:103555005553422044454255470055534220524554
:1035650041440010C4EA611A03530069006C006904
:103575000063006F006E0020004C00610062007364
:10358500001003550053004200200041005000493F
:10359500000A0343003500310046000F8001000199
:10369B00810000810700810C00810E00810F0081E9
:1036AB000D008104008205000084080000000181E8
:0836BB0001AA8102558103FF01
:1036670012321730B62D12296E1234AE12389874F2
:10367700FFFFFE1200461234AE123898122B4C127E
:1036870034AE123898121A1B1234AE12389812162A
:043697009080D0222D
:1037D500E4FDFCC3ED9FEC9E5014E4FBFA0BBB002B
:0E37E500010AEBF44A70F60DBD00010C80E500
:0137F30022B3
:0434AE007F017E001C
:0734B2007849EEF208EFF289
:1034B900E408F208F230B721E4FFFED3784AE29F2C
:1034C90018E29E401EE4FDFC0DBD00010CEDF44C1C
:1034D90070F60FBF00010E80E21238987F147E004B
:1034E9001237D5784CE22401F218E23400F2C3080D
:0934F900E2946418E2940040BC66
:0135020022A6
:1038980030B60512008E80F87FF47E011237D530DD
:0338A800B6FD2248
:10008E0078517C007DFE7BFF7A3579A47E007F015E
:10009E00120D6B7807E2700302026E784D7401F256
:1000AE00784DE2FFC39410507BEF25E025E024C489
:1000BE00F582E43402F583E07028E2FD25E025E0C8
:1000CE0024C5F582E43402F583E0FEED25E025E05B
:1000DE0024C6F582E43402F583E0FDEDFF12386F9D
:1000EE00803A784DE225E025E024C4F582E434021E
:1000FE00F583E0B40126E2FD25E025E024C5F58276
:10010E00E43402F583E0FEED25E025E024C6F58219
:10011E00E43402F583E0FDEDFF123815784DE2046C
:10012E00F20200AE0000000000000000000000001F
:10013E0000000000000000007BFF7A357955E4785E
:10014E0057F208F208F208F274FF08F208F2E4FD22
:10015E00FC122BE79002C7E020E003020253784D19
:10016E007401F2784DE2FFC394104003020253EF84
:10017E0025E025E024C4F582E43402F583E07055D1
:10018E00E2FD25E025E024C5F582E43402F583E0A6
:10019E00FEED25E025E024C6F582E43402F583E089
:1001AE00FDEDFFE2FB25E025E024C7F582E43402F5
:1001BE00F583E075F024A4FDACF0EB75F011A4FB13
:1001CE00AAF078587407F20874E0F2E408F208F224
:1001DE001227598068784DE2FB25E025E024C4F50E
:1001EE0082E43402F583E064017052E2FD25E025DD
:1001FE00E024C5F582E43402F583E0FEED25E0252A
:10020E00E024C6F582E43402F583E0FDEDFFEB2534
:10021E00E025E024C7F582E43402F583E075F0248E
:10022E00A4FDACF0EB75F011A4FBAAF07858E4F243
:10023E0008741FF274FF08F208F2122759784DE283
:10024E0004F2020171000000000000000000000036
:10025E00000000000000000000E47807F20200A198
:10026E00780DE2700302033AE4784DF2784DE2C362
:10027E0094404003020327C2A0D2B1E2FE24C4F58B
:10028E0082E43402F583E0FF74C52EF582E4340275
:10029E00F583E0FD1236DDD2A0784DE2FF24C4F5E1
:1002AE0082E43402F583E0FE780508E2FD2401F2D3
:1002BE0018E2FC3400F2746C2DF58274003CF58368
:1002CE00EEF074C52FF582E43402F583E0FF08E208
:1002DE00FD2401F218E2FC3400F2746C2DF58274E8
:1002EE00003CF583EFF008E2B4002518E2B40220DA
:1002FE007808120F8B122FC77804E290006CF07FF3
:10030E00007E007D007C00122FC7E47805F208F213
:10031E00784DE22402F202027AE4780DF27BFE7A44
:10032E000079517D01FC12231002026E7800E270FA
:10033E00030204479002C7E070030203FD784D7478
:10034E0004F2784DE2C394244003020434C2A0D2D6
:10035E00B1E2FE24C4F582E43402F583E0FF74C5F5
:10036E002EF582E43402F583E0FD1236DDD2A0785C
:10037E004DE2FF24C4F582E43402F583E0FE7805F5
:10038E0008E2FD2401F218E2FC3400F2746C2DF543
:10039E008274003CF583EEF074C52FF582E43402CE
:1003AE00F583E0FF08E2FD2401F218E2FC3400F2CE
:1003BE00746C2DF58274003CF583EFF008E2B40006
:1003CE002518E2B402207808120F8B122FC778047A
:1003DE00E290006CF07F007E007D007C00122FC743
:1003EE00E47805F208F2784DE22402F20203507826
:1003FE004D7404F2784DE2C39424502AC2A0D2B1B7
:10040E00E2FE24C4F582E43402F583E0FF74C52EC7
:10041E00F582E43402F583E0FD1236DDD2A0784D8C
:10042E00E22402F280CEE47800F27BFE7A0079516B
:10043E007D01FC12231002033A780FE270030204CE
:10044E00FE784D7404F2784DE2FFC394244003020B
:10045E0004EB74C42FF582E43402F583E07020E2DD
:10046E00FD24C5F582E43402F583E0FE74C62DF555
:10047E0082E43402F583E0FDEDFF12386F8055788B
:10048E004DE224C4F582E43402F583E0B40120E2A7
:10049E00FD24C5F582E43402F583E0FE74C62DF525
:1004AE0082E43402F583E0FDEDFF123815802578E5
:1004BE004DE224C4F582E43402F583E06410701436
:1004CE00000000000000000000000000000000001E
:1004DE0000000000784DE22404F2020454E4780F88
:1004EE00F27BFE7A0079517D01FC12231002044743
:1004FE00780CE27003020653E4784DF2784DE2FF79
:10050E00C394185011746C2FF582E43402F583E411
:10051E00F0E204F280E69002CBE025E07850F29013
:10052E0002C9E0FEA3E0FDEE784EF2ED08F2900275
:10053E00C8E06401703C18E2FE08E2FF12386FE476
:10054E00784DF27850E2FF784DE2C39F5024123876
:10055E0059784DE2FD246CF582E43402F583E4F023
:10056E00746D2DF582E43402F583EFF0E22402F28D
:10057E0080D1E4780CF27B017A02796C7850E2FD3E
:10058E007C001223107F647E001237D57BFF7A35F4
:10059E00795FE47857F208F208F208F274FF08F275
:1005AE0008F2E4FDFC122BE79002C7E020E0030204
:1005BE0004FE9002CCE075F024A4FDACF0784EE27F
:1005CE00FE08E2FF78587407F20874E0F2E408F2CD
:1005DE0008F27B11FA122759E4784DF27850E2FFB7
:1005EE00784DE2F9C39F40030204FE9002CCE07501
:1005FE00F024A4FDACF0C004C005E9C3132402FF2F
:10060E00E433FE7C007D11120DD7AA06AB07746C85
:10061E0029F582E43402F583E0FE746D29F582E457
:10062E003402F583E0FDEDFF7858E4F208741FF212
:10063E0074FF08F208F2D005D004122759784DE263
:10064E002402F28097780EE26042E4784DF2784D03
:10065E00E2FFC39440501174842FF582E43402F506
:10066E0083E4F0E204F280E69002847401F0A37455
:10067E00E0F0A37401F0A37440F0E4780EF27B0175
:0C068E007A0279847D40FC12231080B9B0
:01069A00223D
:1035EC0053D9BF75B283E4F5B943B980FF0FEFB47B
:1035FC00FFFB43B9C0E5B930E5FBE4F5A943EF02A5
:10360C0075F1FF75A4FF75A5FF75F2FF75A6FF7523
:10361C00AEFF75F4FF43A717C286C28743E102438E
:02362C00E2407A
:01362E002279
:103217001235EC12362F903568E493FE740193FF54
:1032270090356AE493FC740193FD90027374FFF088
:10323700A37435F0A37486F0A374FFF0A37435F07C
:10324700A37496F09035A0E493900279F09035A19D
:10325700E49390027AF09035A2E493FB7401939083
:10326700027BCBF0A3EBF07BFF7A35796C121F96CC
:0C32770012382A75A17075F80F021BA90F
:03003D000236F494
:03008B00021E59F9
:101E5900C0E0C0F0C083C082C0D075D000C000C04F
:0D1E690001C002C003C004C005C006C007D0
:101E76001238BC7846EFF220E203021F207B017A7B
:101E86000279C47D401228BF7801E2FF9002C4E0C7
:101E9600FEB5071408E2FDA3E0B5050C08E2FDA3B4
:101EA600E0B505047807806F7803E2FDB5061318E0
:101EB600E2FE9002C5E0B50609A3E0B50704780C7A
:101EC60080557802E2FF9002C4E0B5071118E2FEE1
:101ED600A3E0B50609A3E0B50504780E80397801BC
:101EE600E2FE9002C4E0FDB506127803E2FCA3E030
:101EF600B50409A3E0B507047800801B7803E2B5B2
:101F060005139002C5E0B5060C18E2FFA3E0B5077D
:101F160004780F8002780D7401F27846E230E70308
:101F260012003D7846E230E6031235EC7846E230A0
:101F3600E41C15081508A8087401F20874DFF27A83
:101F4600007B007C017D3F7E007F00122ACA784616
:101F5600E230E5217804E204F215081508A80874B1
:101F660001F20874DFF27A007B007C017D3F7E007F
:051F76007F00122ACAE1
:101F7B00D007D006D005D004D003D002D001D000BA
:0B1F8B00D0D0D082D083D0F0D0E03264
:0C3843007FFF12384F7FFF12384F7FFFCD
:09384F008FA330FFFDC2FFAFA3FF
:01385800224D
:0A38D60075A3FF30FFFDC2FFAFA392
:0138E00022C5
:0230BC00AE075D
:1030BE00E4FB123843123843C2FAEE4440FF123892
:1030CE004F7857E2FC08E2FD08E2FE08E2FF7818AE
:1030DE00120F6512384F7857E2FC08E2FD08E2FE47
:1030EE0008E2FF7810120F6512384F7857E2FC088D
:1030FE00E2FD08E2FE08E2FF7808120F6512384F73
:10310E007857080808E2FF12384F7F9512384F7F24
:10311E00FF12384FBFFF09AE030BEED3946440EF9E
:02312E00D2FAD3
:01313000227C
:1026A200E4FEFA75A90375A23BE4FD7FFF12384FE1
:1026B2000DEDB464F67857120FF400000000E4FF49
:1026C2001230BCAE070AEAD3940A5004EEB401D920
:1026D200E4FA7857120FF4000000007F371230BC82
:1026E200AE070AEAD3946440037F0122EEB401E20A
:1026F200E4FA7857120FF4000000007F291230BC70
:10270200AE070AEAD3946440037F0122EE70C3EE5F
:10271200601FE4FA7857120FF4000000007F0112E4
:1027220030BCAE070AEAD3946440037F0122EE7004
:10273200E37857120FF4000000007F3B1230BCAE6A
:10274200077857120FF4000002007F101230BC7598
:06275200A201E4F5A9FF5D
:01275800225E
:053283007810120FB7E6
:10328800E4FA75A9037810E2FC08E2FD08E2FE08FA
:10329800E2FF7809120F787857120FB77F111230B2
:1032A800BC0AEAD3940A40037F0122EF70D7C2FA1E
:1032B8001238D6BFFEFAE4FDFC1238D6746C2DF530
:1032C8008274003CF583EFF00DBD00010CE4B505F8
:0E32D800E8ECB402E4123848D2FAE4F5A9FF9B
:0132E60022C5
:052FC7007852120FB763
:102FCC00E4FA75A9037852E2FC08E2FD08E2FE0877
:102FDC00E2FF7809120F787857120FB77F1812306A
:102FEC00BCAE070AEAD3940A40037F0122EE70D5E7
:102FFC00C2FA7FFF12384F7FFE12384FFDFC746C03
:10300C002DF58274003CF583E0FF12384F0DBD00A6
:10301C00010CE4B505E8ECB402E4123843AE07EE5B
:10302C00541F64056003D2FA227FFF12384FEF6001
:07303C00F8D2FAE4F5A9FF48
:01304300226A
:1038AB00E4F91226A2EF600809E9D3940340F3224E
:0138BB0022EA
:10069B000000001824424242424242422418000009
:1006AB00000000107010101010101010107C0000C3
:1006BB000000003C4242420404081020427E00002D
:1006CB000000003C4242041804020242443800007D
:1006DB00000000040C14242444447E04041E000077
:1006EB000000007E40404058640202424438000043
:1006FB000000001C24404058644242422418000071
:10070B000000007E44440808101010101010000068
:10071B000000003C4242422418244242423C00006A
:10072B000000001824424242261A0202243800001C
:10073B000000001010182828243C444242E7000017
:10074B00000000F8444444784442424244F800001C
:10075B000000003E4242808080808042443800008E
:10076B00000000F8444242424242424244F8000038
:10077B00000000FC424848784848404242FC0000D8
:10078B00000000FC424848784848404040E00000E8
:10079B000000003C44448080808E84444438000038
:1007AB00000000E7424242427E42424242E70000E2
:1007BB000000007C1010101010101010107C0000A6
:1007CB000000003E0808080808080808080888F018
:1007DB00000000EE444850705048484444EE00007E
:1007EB00000000E0404040404040404042FE0000DE
:1007FB00000000EE6C6C6C6C5454545454D60000D6
:10080B00000000C7626252524A4A4A4646E2000062
:10081B000000003844828282828282824438000047
:10082B00000000FC424242427C40404040E000005D
:10083B0000000038448282828282B2CA4C380600A1
:10084B00000000FC4242427C4848444442E3000022
:10085B000000003E4242402018040242427C00004D
:10086B00000000FE92101010101010101038000035
:10087B00000000E74242424242424242423C0000F8
:10088B00000000E7424244242428281810100000DE
:10089B00000000D692929292AAAA6C4444440000A3
:1008AB00000000E7422424181818242442E7000013
:1008BB00000000EE444428281010101010380000DF
:1008CB000000007E840408081020204242FC000037
:1008DB00001E1010101010101010101010101E0011
:1008EB0000004040202010101008080404040202ED
:1008FB00007808080808080808080808080878009D
:10090B00001C22000000000000000000000000009E
:10091B00000000000000000000000000000000FFCD
:10092B00006010000000000000000000000000004C
:10093B00000000000000003C421E2242423F00002B
:10094B00000000C0404040586442424264580000DE
:10095B00000000000000001C22404040221C000050
:10096B00000000060202021E22424242261B000029
:10097B00000000000000003C427E4040423C000072
:10098B000000000F1110107E10101010107C0000D2
:10099B00000000000000003E444438403C42423C12
:1009AB00000000C04040405C6242424242E700000F
:1009BB00000000303000007010101010107C000090
:1009CB000000000C0C00001C040404040404447814
:1009DB00000000C04040404E4850684844EE0000C4
:1009EB00000000701010101010101010107C000080
:1009FB0000000000000000FE4949494949ED000094
:100A0B0000000000000000DC6242424242E70000AE
:100A1B00000000000000003C42424242423C000009
:100A2B0000000000000000D864424242447840E0DD
:100A3B00000000000000001E22424242221E02075C
:100A4B0000000000000000EE3220202020F8000003
:100A5B00000000000000003E42403C02427C0000CF
:100A6B00000000000010107C10101010100C000083
:100A7B0000000000000000C642424242463B00001C
:100A8B0000000000000000E74224242810100000A2
:100A9B0000000000000000D79292AAAA4444000074
:100AAB00000000000000006E2418181824760000C7
:100ABB0000000000000000E742242428181010E07A
:100ACB00000000000000007E44081010227E000091
:100ADB0000030404040404080404040404040300D1
:100AEB00080808080808080808080808080808087B
:100AFB000060101010101008101010101010600073
:100B0B00304C43000000000000000000000000001B
:100B1B0000000000000000000000000000000000CA
:100B2B00000000101010101010100000181800001A
:100B3B0000123624480000000000000000000000F6
:100B4B00000000242424FE484848FE484848000082
:100B5B0000001038545450301814145454381010DA
:100B6B0000000044A4A8A8A8541A2A2A2A4400006A
:100B7B0000000030484848506EA4948889760000E5
:100B8B0000606020C00000000000000000000000BA
:100B9B0000020408081010101010100808040200BE
:100BAB00004020101008080808080810102040000A
:100BBB00000000001010D63838D6101000000000CE
:100BCB000000000010101010FE101010100000009C
:100BDB00000000000000000000000000606020C06A
:100BEB0000000000000000007F000000000000007B
:100BFB00000000000000000000000000606000002A
:100C0B0000000102020404080810102020404000DC
:100C1B000000000000001818000000001818000069
:100C2B000000000000000010000000000010102069
:100C3B0000000002040810204020100804020000ED
:100C4B00000000000000FE000000FE00000000009D
:100C5B00000000402010080402040810204000008F
:100C6B000000003C42426202040808001818000011
:100C7B0000000038445AAAAAAAAAB4424438000079
:100C8B00FFFFFFFFFFFFFFFFFFFFFFFFFFFFFFFF69
:0436C300824400003D
:041240007852EFF2FF
:10124400ED64086003021332C2A0D296C2B1E2F583
:10125400A0C297D297D2A0E4F5A675F3FF75A0FFBC
:10126400C2A0D2B1D297C2960000000000000000D4
:10127400D28700000000AFA07855F208EFF2C287D1
:1012840000000000D29600000000C296000000009A
:1012940000000000D28700000000A9A0C28700005F
:1012A4000000D29600000000C2960000000000007A
:1012B4000000D287000000007859E5A0F2C2870040
:1012C400000000D2960000000000000000C296005A
:1012D40000000000000000D28700000000AAA0C2A5
:1012E4008700000000D2960000000000000000D239
:1012F40096000000000000000075A6FFEBB4010B8F
:101304007856E2FEE9F582EE08801EEBB4020CE9A1
:10131400FE7859E2F582EE7857800EEBB4030F782D
:1013240059E2FEEAF582EE7857F2E58208F2ED64BE
:10133400044C600302146875A6FF7852E2FFC2A051
:10134400C2B1E4FDC297EF30E704D2968002C296A0
:10135400D297EF25E0FF0DEDB408E975A6FEEB6426
:10136400016005EB6403702AE4FDC297D287D2962C
:101374007854E225E0FF18E233FEA296E433F582C6
:10138400EEF2EF458208F2C287D2970DEDB409DA86
:101394008032EB64026005EB64047028E4FDC297BC
:1013A400D287D2967854E225E0FF18E233FEA29663
:1013B400E433F582EEF2EF458208F2C287D2970D4C
:1013C400EDB410DAE4FDC297D287D2967856E225BE
:1013D400E0FF18E233FEA296E433F582EEF2EF4525
:1013E4008208F2C287D2970DEDB408DAE4FDC29701
:1013F400D287D296E925E0FFA296E4334FF9C2875B
:10140400D2970DEDB408E7E4FDC297D287D296785F
:1014140059E225E0FFA296E4334FF2C287D2970D3A
:10142400EDB408E575A6FFC287D296D2B1D297D2A1
:1014340096D2A0EBB401127854E2FE08E24EFF0803
:10144400E208CFF208EFF2801BEB6402600AEBB40F
:1014540003028004EBB4040C7856E2FEE9FDEE08C6
:0D146400F2ED08F2C2877857E2FE08E2FFC1
:011471002258
:02386F00AC06A5
:10387100EC786BF2C2A0D296C2B18FC7C297D29731
:02388100D2A0D3
:013883002222
:04381100F808E2FFD2
:02381500AC06FF
:10381700EC786BF2C2A0D296D2B18FC7C297D2977B
:02382700D2A02D
:01382900227C
:1036C800FFAE03EE33333354F84FFFEE25E0FEC46C
:0536D8003354E04BFD3E
:1036DD00C2A0D296D2B18FC7C297D297AF058FC76E
:0636ED00C297D297D2A0A3
:0136F30022B4
:0938E100AD07AC06ECFF0236DD78
:101BA900123859D2857FC87E001237D5C2857FC8C1
:101BB9007E001237D5D2857FC87E001237D57FF7D0
:101BC9007E0012386F7FA91238157F511238157FA0
:101BD9002C1238157F821238157F3612386F7F48DC
:101BE9001238157F3A12386F7F551238157FB412A3
:101BF900386F7F021238157FB112386F7FA0123803
:101C0900157F111238157FC012386F7F0F123815E2
:101C19001238157FC112386F7F411238157FC212F1
:101C2900386F7F221238157FB712386F7FC6123886
:101C3900151F12386FE4FF1238157F2D1238157FE2
:101C4900801238157FE012386FE4FF1238157F08CB
:101C59001238157F0C1238157F021238157F0E12B3
:101C690038157F341238157F301238157F451238F0
:101C7900157F471238157F041238157F0C12381555
:101C89007F0A1238157F2E1238157F341238157FC6
:101C99000F1238157FE112386FE4FF1238157F11E2
:101CA9001238157F0D1238157F011238157F0F1262
:101CB90038157F051238157F391238157F361238D5
:101CC900157F511238157F061238157F0F123815F6
:101CD9007F0D1238157F331238157F371238157F6B
:101CE9000F1238157F2112386F7F1112386F7F78E4
:0F1CF9001237D57F297E0012386F7F140237D53E
:102AB000F2150815087401A808F20874DFF27C0109
:0A2AC0007D3F7A007B007E007F005E
:102ACA0015081508A808EAF208EBF215081508A86F
:102ADA0008ECF208EDF215081508A808EEF208EF5E
:102AEA00F27F2A7E0012386FA908E3FF123815A870
:102AFA000808E2FF123815A8080808A900E3FF121F
:102B0A003815A808080808E2FF1238157F2B123872
:102B1A006FE5082404F9E3FF123815E508240412C6
:102B2A003811E5082406F9E3FF123815E5082406EA
:102B3A001238117F2C12386F75A903E5082408F59D
:022B4A0008225F
:02004600AC0606
:10004800EC784BF2EF08122AB0C2A0E47849F20823
:10005800F2E4FBFA784BE2FF08E2FD1236DD0BBB57
:1000680000010ABA01EEBB40EB784AE22401F2181B
:10007800E23400F2C308E294E018E2940140D2D2DC
:01008800A0D7
:010089002254
:10296E00122AB1C2A079F8E4FE7FF8FD1236DD79A5
:10297E00077EE07F077DE01236DD0BBB00010ABA51
:10298E0001EDBB3EEAE4F97E1FFF7D1F1236DD78B6
:10299E0049F208F279F8E4FE7FF8FD1236DDFAFB13
:1029AE00E4F9FEFFFD1236DD0BBB00010ABA01F0A1
:1029BE00BB3EEDE4F97E1FFF7D1F1236DD784AE245
:1029CE002401F218E23400F2C308E294DE18E29415
:1029DE000140C179F8E4FE7FF8FD1236DDFAFB798D
:1029EE00077EE07F077DE01236DD0BBB00010ABAE1
:1029FE0001EDBB3EEAE4F97E1FFF7D1F1236DDF5C9
:032A0E00A9D2A0AA
:012A110022A2
:101A1B007849746AF2784B7402F21874A0F2E47885
:101A2B004CF2C2A01508150804122AB7784AE2FF37
:101A3B00C3EB9FEA94005069E4784DF27849E2FFDA
:101A4B00784DE2C39F500CE4FD7FF81236DDE204C3
:101A5B00F280E9E4784DF27849E2FF784DE2C39FDA
:101A6B00500CE4FD7FF81236DDE204F280E9E478F5
:101A7B004DF2784BE2FF7849E22FFFE433FE784DCD
:101A8B00E2C39FEE6480F8748098500EE4FD7FF8FB
:101A9B001236DD784DE204F280D80BBB00010A80D0
:101AAB008BE4FAFB784AE2FFC3EB9FEA94005069A0
:101ABB00E4784DF27849E2FF784DE2C39F500C7DFC
:101ACB00E07F071236DDE204F280E9E4784DF2782C
:101ADB0049E2FF784DE2C39F500C7DE07F07123641
:101AEB00DDE204F280E9E4784DF2784BE2FF7849CD
:101AFB00E22FFFE433FE784DE2C39FEE6480F8746F
:101B0B008098500E7DE07F071236DD784DE204F2AF
:101B1B0080D80BBB00010A808BE4FAFB784CE2FF08
:101B2B00784AE22FFFE433FEC3EB9FEA9E5069E451
:101B3B00784DF27849E2FF784DE2C39F500C7D1F40
:101B4B00E4FF1236DDE204F280E9E4784DF27849E5
:101B5B00E2FF784DE2C39F500C7D1FE4FF1236DD90
:101B6B00E204F280E9E4784DF2784BE2FF7849E247
:101B7B002FFFE433FE784DE2C39FEE6480F8748050
:101B8B0098500E7D1FE4FF1236DD784DE204F28093
:0D1B9B00D80BBB00010A8084D2A0E4F5A99C
:011BA800221A
:1032E700AA06A907781474FFF208EAF208E9F215AA
:1032F700081508A808E4F208749FF27C007D7F1285
:103307002AC2E47817F208F27817E2FE08E2FFC350
:10331700EE9440502DEF25E0FFEE33FE7814E2FBEC
:1033270008E2FA08E2F98F828E83120DFFFDACF0F6
:10333700ECFF1236DD7818E22401F218E23400F2CD
:0233470080C63E
:013349002261
:032421007819EF38
:10242400122AB0C2A0D2B17822120FF400000258CE
:102434007819E2FFE4FCFDFE7822E2FB08E2F908E9
:10244400E2FA08E2CBF8120E37EF2401FFE43EFE75
:10245400E43DFDE43CFC781A120FB77822E2FC0854
:10246400E2FD08E2FE08E2FF781AE2FB08E2F9085E
:10247400E2FA08E2CBF8EB2FFFEA3EFEE93DFDE885
:102484003CFC781E8078781EE2FC08E2FD08E2FE3F
:1024940008E2FF781AE2FB08E2F908E2FA08E2CB64
:1024A400F8C3120F54505C781AE2FC08E2FD08E20B
:1024B400FE08E2FF123283E4FBFAC3EA94025024DA
:1024C400746C2BF58274003AF583E0FF746D2BF580
:1024D4008274003AF583E0FD1236DD74022BFBE4CE
:1024E4003AFA80D6781AE2FC08E2FD08E2FE08E235
:1024F4002401FFE43EFEE43DFDE43CFC781A120FA7
:05250400B78083D2A0A6
:0125090022AF
:10147200122AB1E47826F208F2C37826E2940050E8
:1014820012E4FDFF1236DD08E22401F218E2340014
:10149200F280E6E47826F208F2E47828F208F2789C
:1014A20026E2FE08E27803C333CE33CED8F9FFE456
:1014B200FD1236DD7829E22401F218E23400F2C38B
:1014C20008E2940A18E2940040D57827E22401F257
:1014D20018E23400F2C308E2942018E2940040B902
:1014E2000BBB00010AEB64784A7088E4FAFBE478EB
:1014F20026F208F2C37826E294005012E4FDFF12AD
:1015020036DD08E22401F218E23400F280E6E478E3
:1015120026F208F2E47828F208F27827E225E0FDC4
:1015220018E233FCEDAE047803CEC313CE13D8F920
:10153200FFC007EDAE047805C333CE33CED8F9FD34
:10154200D0071236DD7829E22401F218E23400F2E3
:10155200C308E2940A18E2940040BF7827E224010B
:10156200F218E23400F2C308E2942018E294004038
:10157200A30BBB00010AEB64784A60030214F0E497
:10158200FAFBE47826F208F2C37826E294005012BD
:10159200E4FDFF1236DD08E22401F218E23400F223
:1015A20080E6E47826F208F2E47828F208F2782657
:1015B20008E2FDE4FF1236DD7829E22401F218E2A6
:1015C2003400F2C308E2940A18E2940040E078275B
:1015D200E22401F218E23400F2C308E2942018E295
:1015E200940040C40BBB00010AEB64784A7093E498
:1015F200FAFBE47826F208F2C37826E2940050124D
:10160200E4FDFF1236DD08E22401F218E23400F2B2
:1016120080E6E47826F208F2E47828F208F27826E6
:10162200E2FC08E2FD25E0FFEC33FEEF7803CEC3D7
:1016320013CE13D8F9FFAE05EE33333354F84FFF10
:10164200EE25E0C43354E0FE782608E24EFD123661
:10165200DD7829E22401F218E23400F2C308E294B0
:101662000A18E2940040B77827E22401F218E23423
:1016720000F2C308E2942018E29400409B0BBB00E6
:0D168200010AEB64784A60030215F4D2A05F
:01168F002238
:1020CD00122AB1C3EA94005029E4782CF208F2E404
:1020DD00FDFF1236DD782DE22401F218E23400F214
:1020ED00C308E2944018E2940140E40BBB00010ADE
:1020FD0080D1E4FAFBE4782AF208F2E4782CF208B5
:10210D00F2EBAE027803C333CE33CED8F9FFE4FD44
:10211D001236DD782DE22401F218E23400F2C30804
:10212D00E2945018E2940040D8E4782CF208F2EBD7
:10213D0025E0FDEA33FCEDAE047803CEC313CE13D8
:10214D00D8F9FFC007EDAE047805C333CE33CED832
:10215D00F9FDD0071236DD782DE22401F218E234B4
:10216D0000F2C308E2945018E2940040C2E4782CC7
:10217D00F208F2AD03E4FF1236DD782DE22401F210
:10218D0018E23400F2C308E2945018E2940040E3E0
:10219D00E4782CF208F2EB25E0FFEA33FEEF78034A
:1021AD00CEC313CE13D8F91236C8782DE22401F21E
:1021BD0018E23400F2C308E2945018E2940040D6BD
:1021CD00782BE22401F218E23400F2C308E2940FF6
:1021DD0018E2940050030221080BBB00010AEB64C6
:0721ED00204A6003022102F9
:0121F40022C8
:102C7D00122AB1C2A0D2B1C3EA94005029E478302F
:102C8D00F208F2E4FDFF1236DD7831E22401F2188C
:102C9D00E23400F2C308E2944018E2940140E40BE0
:102CAD00BB00010A80D1E4FAFBE4782EF208F2E4CD
:102CBD007830F208F2EBAE027803C333CE33CED8C0
:102CCD00F9FFE4FD1236DD7831E22401F218E23429
:102CDD0000F2C308E2944018E2940140D8782FE244
:102CED002401F218E23400F2C308E2940F18E294C2
:102CFD000040BC0BBB00010AEB64204A70ABD2A0B4
:012D0D0022A3
:102A1200122AB1C2A0D2B1E47834F208F2E4FDFF86
:102A22001236DD7835E22401F218E23400F2C308EE
:102A3200E2944018E2940140E40BBB00010AEB640B
:102A4200204A70D3E4FAFBE47832F208F2E47834F4
:102A5200F208F2EBAE027803CEC313CE13D8F9FF1D
:102A6200C007EBAE027805C333CE33CED8F9FDD022
:102A7200071236DD7835E22401F218E23400F2C39F
:102A820008E2944018E2940140C97833E22401F24A
:102A920018E23400F2C308E2940718E2940040AD51
:0D2AA2000BBB00010AEB64404A709CD2A0FF
:012AAF002204
:102EBB00122AB1C2A0D2B1C3EA94005029E47838E7
:102ECB00F208F2E4FDFF1236DD7839E22401F21844
:102EDB00E23400F2C308E2944018E2940140E40BA0
:102EEB00BB00010A80D1E4FAFBE47836F208F2E485
:102EFB007838F208F2AD03E4FF1236DD7839E224BC
:102F0B0001F218E23400F2C308E2944018E2940193
:102F1B0040E37837E22401F218E23400F2C308E20E
:102F2B00940F18E2940040C70BBB00010AEB64201E
:052F3B004A70B6D2A0AF
:012F4000226E
:102D0E00122AB1C2A0C3EA94005029E4783CF2081A
:102D1E00F2E4FDFF1236DD783DE22401F218E234D2
:102D2E0000F2C308E2944018E2940140E40BBB00A9
:102D3E00010A80D1E4FAFBE4783AF208F2E4783C36
:102D4E00F208F2EB25E0FFEA33FEEF7803CEC31371
:102D5E00CE13D8F91236C8783DE22401F218E234C7
:102D6E0000F2C308E2944018E2940140D6783BE2A8
:102D7E002401F218E23400F2C308E2940F18E29430
:102D8E000040BA0BBB00010AEB64204A70A9D2A026
:012D9E002212
:102B4C00122AB1C2A0D2B1E47849F208F2E4FBFA3D
:102B5C00C3EA9400500DE4FDFF1236DD0BBB0001FF
:102B6C000A80EDE4FAFBE4784BF208F2EBAE027863
:102B7C0002C333CE33CED8F97803CEC313CE13D8D9
:102B8C00F9FFAE03EE25E0F933333354F84FFFEE83
:102B9C0025E025E0FEC43354E049FD1236DD784CC7
:102BAC00E22401F218E23400F2C308E2941418E2B1
:102BBC00940040B80BBB00010AEB64104A70A77874
:102BCC004AE22401F218E23400F2C308E294E0185D
:0A2BDC00E294015003022B59D2A02D
:012BE60022CC
:10304400122AB1C2A0E4783EF208F2E4FBFAC3EA21
:103054009400500DE4FDFF1236DD0BBB00010A8025
:10306400EDE4FAFBE47840F208F2EB25E0FFEA3302
:10307400FEEF7803CEC313CE13D8F91236C87841C5
:10308400E22401F218E23400F2C308E2940A18E2DE
:10309400940040D60BBB00010AEB64204A70C5784B
:1030A4003FE22401F218E23400F2C308E294E0188B
:0730B400E294014096D2A056
:0130BB0022F2
:10186100122AB1E47842F208F2E4FD7FF81236DD83
:101871007843E22401F218E23400F2C308E2944012
:1018810018E2940140E30BBB00010AEB643C4A708F
:10189100D2E4FAFBE47842F208F27DE07F071236E7
:1018A100DD7843E22401F218E23400F2C308E29445
:1018B1004018E2940140E30BBB00010AEB643C4A8F
:1018C10070D2E4FAFBE47842F208F27D1FE4FF12E1
:1018D10036DD7843E22401F218E23400F2C308E273
:1018E100944018E2940140E30BBB00010AEB643C15
:1018F1004A70D2E4FAFBE47842F208F27DE07FFF1D
:101901001236DD7843E22401F218E23400F2C30812
:10191100E2944018E2940140E30BBB00010AEB643E
:101921003C4A70D2E4FAFBE47842F208F27D1F7F70
:10193100F81236DD7843E22401F218E23400F2C3F2
:1019410008E2944018E2940140E30BBB00010AEB6A
:10195100643C4A70D2E4FAFBE47842F208F27DFF7B
:101961007F071236DD7843E22401F218E23400F2F7
:10197100C308E2944018E2940140E30BBB00010A62
:10198100EB643C4A70D2E4FAFBE47842F208F27D5F
:10199100FF7FFF1236DD7843E22401F218E23400C2
:1019A100F2C308E2944018E2940140E30BBB00014A
:1019B1000AEB643C4A70D2E4FAFBE47842F208F2A2
:1019C100E4FDFF1236DD7843E22401F218E234002F
:1019D100F2C308E2944018E2940140E40BBB000119
:1019E1000AEB643C4A70D3E4FAFBC3EA9400502941
:1019F100E47842F208F2E4FDFF1236DD7843E22496
:101A010001F218E23400F2C308E2944018E29401B2
:091A110040E40BBB00010A80D186
:011A1A0022A9
:10334A00EFC3942050047F5F8050EFC39420400C59
:10335A00EFD3942F5006EF2428FF803EEFC394301A
:10336A00400CEFD39439500674D02FFF802CEFC352
:10337A00943A400CEFD394405006EF241EFF801A73
:10338A00EFC39441400CEFD3947E5006EF24C9FF5B
:0B339A008008EFD3947E40027F5F228A
:1025D700FD18E23400FC7856E2FA08E2FB08E2F55F
:1025E7008308E2F5827862E583F208E582F2785A99
:1025F700E2F58308E2F5827864E583F208E582F282
:08260700785DEFF2AF05AE04AF
:10260F00EB240FFCE43A15081508A808F208CCF2E1
:10261F00EF2407FDE43EFC122ACA785DE2FF7E003C
:10262F00D3945FEE940040027F5FEFC4F8540FC85D
:10263F0068FFEEC454F048FE786774FFF208740622
:10264F00F208749BF2E22FF218E23EF2E47866F29F
:10265F007867E2FB0808E2F92401F218E2FA340085
:10266F00F2120D91FBE4FAEBA802088002C333D8F3
:10267F00FC30E704786280027864E2FE08E2FF1221
:10268F0038E10AEAB408E07866E204F2E2C3941093
:02269F0040BE3B
:0126A1002216
:102BE7007852EBF208EAF208E9F208ECF208EDF2A3
:102BF7007852E2FB08E2FA08E2F9120D917003D36A
:102C07008001C340707852E2FB0808E2F92401F220
:102C170018E2FA3400F2120D91FF12334A7855E2A6
:102C2700FC08E2FD08E2FA08E2FB08E2F58308E2A5
:102C3700F5827862E583F208E582F2785B1225F780
:102C4700D37856E2943718E29401400BE4F208F285
:102C57007858E2241080057856E22408F218E23406
:102C670000F2D37858E294CF18E294014082E4F25C
:062C770008F2022BF72217
:102759007852EEF208EFF27856EAF208EBF2785482
:10276900ECF208EDF2D3941FEC94014008187401BF
:10277900F208741FF27856E2FE08E2FFD394CFEE16
:1027890094014009EF24EFF2EE34FF18F27852E297
:10279900C4540FFF7854E2FC08E2FD081225DF78E3
:1027A90052E2540FFF7855E224081225D77952E3F3
:1027B900C4F854F0C809E3C4540F48540FFF7855BE
:1027C900E224101225D77853E2540FFF7855E224FA
:1027D90018FD18E23400FC7856E2FA08E2FB08E238
:1027E900F58308E2F5827862E583F208E582F278FA
:1027F9005AE2F58308E2F5827864E583F208E58216
:04280900F2022607AA
:103859007B027D087C00E4FF1212407844EEF208F6
:06386900EFF2E4FEFF2275
:103503007849EAF208EBF2ED2401FAE43C150815D8
:1035130008A808F208CAF2AB05AA04EF2401FDE4E7
:103523003EFC122ACA7849E2FC08E2FDECFF12369F
:10353300DD18E2FC08E2FDECFF1236DD18E2FC08C0
:10354300E2FDECFF1236DD18E2FC08E2FDECFF02BF
:0235530036DD63
:102F4100784DEEF208EFF28B828A8308ECF208EDFD
:012F5100F28D
:102F52007853E2FF08E215081508A808CFF208EF37
:102F6200F2784DE2FE08E2FF122ACAAE83AF8278FF
:102F720057EEF208EFF27854E22401FF18E234002F
:102F8200FEC37858E29F18E29E5039784DE2FE085F
:102F9200E2FBAA067850E22401FF18E23400FEC3E5
:102FA200EB9FEA9E50117855E2FE08E2FF1238E1EB
:102FB2000BBB00010A80DD7858E22401F218E234EA
:042FC20000F280B2E7
:012FC60022E8
:072D9F007849EEF208EFF2A3
:102DA60008E4F208740FF2C3784CE294DF18E29458
:102DB600015030E2FA08E2FB7853EAF208EBF278C7
:102DC60049E2FF08E27855CFF208EFF27D3F7C0139
:102DD600E4FFFE122F41784CE22410F218E2340090
:102DE600F280C4784BE4F208740FF2C3784CE29494
:102DF6003F18E294015031E2FC08E2FDFFAE047890
:102E0600537401F20874DFF27849E2FB08E2785560
:102E1600CBF208EBF2E4FBFA122F41784CE22410D5
:082E2600F218E23400F280C34F
:012E2E002281
:0838EA005450205445535400D2
:10376D00C294C295E490029FF0EF20E704C2B280AC
:10377D0002D2B2D295EF25E0FFC29590029FE004F0
:05378D00F0E0B408E4C7
:013792002214
:103131009002A0120FC300000000C294D2B3E49029
:10314100029FF090029FE0FFC3940C5049C295305A
:10315100B33AC3740B9FFF74017E00A80708800572
:10316100C333CE33CED8F9FFEE3395E0FDFC9002A8
:10317100A0E0F8A3E0F9A3E0FAA3E04FFFEA4EFED6
:10318100E94DFDE84CFC9002A0120FABD2959002E4
:103191009FE004F080ADD2949002A0A3A3E0FEA32F
:0231A100E0FF4D
:0131A3002209
:0221F500AB0736
:1021F700E4900286F0A3F0A3F0D2B5900286E0C384
:10220700940B502C20B529C294EB04FF12376D12A2
:102217003131900286E025E02489F582E43402F525
:1022270083EEF0A3EFF0900286E004F0D29480CB27
:10223700900286E0700302230CE4A3F0900286E08C
:10224700F9A3E0C39940030222F8E4A3F0900287C0
:10225700E0FF900286E0C39FFF900288E0C39F40A3
:10226700030222EFE0FF25E0248BF582E43402F538
:1022770083E0FCA3E0FDEF25E02489F582E4340246
:10228700F583E0FEA3E0D39DEE9C4053900288E0E7
:1022970025E02489F582E43402F583E0FCA3E0FD20
:1022A700900284ECF0A3EDF0EF25E0248BF582E4B7
:1022B7003402F583E0FEA3E0FF900288E0FB25E00F
:1022C7002489F582E43402F583EEF0A3EFF0EB25E1
:1022D700E0248BF582E43402F583ECF0A3EDF09073
:1022E7000288E004F0022254900287E004F0022200
:1022F70043E9C31325E02489F582E43402F583E03A
:08230700FEA3E0FF22E4FEFF4B
:01230F0022AB
:1016900090026C120FC300000000900270120FC382
:1016A00000000000900274120FC3000000009002BE
:1016B00078120FC30000000090027C120FC30000DC
:1016C0000000900280120FC300000000E4FFFE1231
:1016D00000467FB57EAD122D9F7BFF7A3879EAE414
:1016E0007857F208F208F208F274FF08F208F2E400
:1016F000FDFC122BE7D2B520B5FD20B6030218354C
:101700007F327E001237D530B50302182B7FD012FE
:1017100021F5E4FCFD900274120FAB900274E0FC22
:10172000A3E0FDA3E0FEA3E024BDFFEE34FFFEED49
:1017300034FFFDEC34FFFCE47B407A01F9F8120E33
:1017400037E47BA57A02F9F8120EC290026C120FF0
:10175000AB7F901221F5E4FCFD900278120FAB9064
:101760000278E0FCA3E0FDA3E0FEA3E024A0FFEEEE
:1017700034FFFEED34FFFDEC34FFFCE47BE07A0146
:10178000F9F8120E37E4FB7A03F9F8120EC2900250
:1017900070120FAB7F0F7E001237D530B5030217E2
:1017A00007E4FFFEFDFC90026CE0F8A3E0F9A3E083
:1017B000FAA3E0FBC3120F545003021707E47F4063
:1017C0007E01FDFC90026CE0F8A3A3A3E0120F548D
:1017D0004003021707E4FFFEFDFC900270E0F8A34F
:1017E000E0F9A3E0FAA3E0FBC3120F545003021781
:1017F00007E47FE07E01FDFC900270E0F8A3A3A364
:10180000E0120F54400302170790026CA3A3E0FEFE
:10181000A3E0FFC006A3A3A3E0FEA3E0FDAC06D0B7
:10182000067B007AF81235030217077F327E00121A
:1018300037D50216FAE4FFFE1200467FB57EAD12E0
:101840002D9F7BFF7A3879EAE47857F208F208F2A4
:1018500008F274FF08F208F2E4FDFC122BE702160E
:01186000FA8D
:100003001201100100000040C410000000000102B2
:1000130003010902200001010080FA090400000223
:10002300FF000000070502024000000705820240AE
:0A00330000000403090401000000AE
:101F960090026CEEF0A3EFF0900270EBF0A3EAF083
:101FA600A3E9F0E4900791F0900791E0FF90000319
:101FB60093FE74402FF582E43407F583EEF0900724
:101FC60091E004F0E0B412E0E4900791F0900791FC
:101FD600E0FF90001593FE74522FF582E43407F566
:101FE60083EEF0900791E004F0E0B420E090026CFC
:101FF600E0FEA3E0900748F0EEA3F0A3EDF0ECA31B
:10200600F090077274FFF0A37400F0A37435F0909B
:102016000270E0F9A3E0FAA3E0900775C9F0A3EA1D
:10202600F0A3E9F0900273E0F9A3E0FAA3E09007C9
:1020360078C9F0A3EAF0A3E9F0900276E0F9A3E00C
:10204600FAA3E090077BC9F0A3EAF0A3E9F09002B7
:1020560079E0FFC394FA500590075AEFF090027AA0
:10206600E0900759F090027BE0FEA3E090074CF069
:10207600EEA3F0E59620E7FB759601759708E596C1
:1020860020E7FB75960775970FE59620E7FB759693
:102096000975970EE59620E7FB75960B75970775FC
:1020A600D7E01238CAE4900793F0900792F09007B1
:1020B60094F0900786F043E602D2AFE59620E7FB60
:0720C60075960175970122D8
:10371F009007867402F0E59620E7FB759601759782
:10372F0001E490078EF0A37403F0A3F0E4900793E5
:07373F00F090079204F02254
:10100D00E59620E7FB75960EE4F597E59620E7FB50
:10101D00759691E59620E7FB90079EE597F0E0FF2A
:10102D0030E210E59620E7FB759611E4F5979007F1
:10103D008EF022EF30E410E59620E7FB75961175E2
:10104D009780E490078EF090078EE0600302113ECA
:10105D0090079EE020E00302113E7596204396C056
:10106D00E4900791F0E59620E7FB900791E0247E50
:10107D00F582E43407F583E597F0900791E004F0ED
:10108D00E0B407E1E59620E7FBE4F596900791E0E3
:10109D00247EF582E43407F583E597F0900781E02F
:1010AD00FE900780E07C002400FFEC3E900795F059
:1010BD00A3EFF0900785E0FE900784E02400FFEC9D
:1010CD003E900797F0A3EFF090077FE0B40C00502F
:1010DD005D9010E5F828287302110902110E021116
:1010ED001302111802113B02111D02112202113BB4
:1010FD0002112702112C0211310211361231A48076
:10110D00301233FF802B12250A802612345780218E
:10111D001237B5801C12280D80171235A5801212BA
:10112D0033A5800D1237468008123884800312379C
:10113D00F490078EE06401600302123F90079E74E5
:10114D0002F0C390078DE0944090078CE09400402E
:10115D0061E59620E7FB759620E4900791F09007E6
:10116D0091E0FFC394405022900787E0FBA3E0FA83
:10117D00A3E0F98F82758300120DAAF597E59620ED
:10118D00E7FB900791E004F080D4900788E475F0B8
:10119D0040120DE990078DE024C0F090078CE034EB
:1011AD00FFF090078BE02440F090078AE03400F0C8
:1011BD008052E59620E7FB759620E4900791F0901C
:1011CD000791E0FFD390078DE09F90078CE094008E
:1011DD004026900787E0FBA3E0FAA3E0F990079182
:1011ED00E0F582758300120DAAF597E59620E7FBD1
:1011FD00900791E004F080C790079EE04408F0E46A
:10120D0090078EF0900797E0FEA3E0FF90078AE02D
:10121D00B50611A3E0B5070C90079EE04408F0E475
:10122D0090078EF0E59620E7FB75961190079EE0EE
:03123D00F5972200
:1037F400E59620E7FB75960EE4F597E59620E7FB42
:0D38040075961175972090078E7404F022C0
:1031A40090077EE0247F6007146006240270488044
:1031B4002D90078FE0B40309900782E0B4020280E7
:1031C4000E900790E0B40316900782E0B4820F904B
:1031D400078774FFF0A37400F0A37439800D90077F
:1031E4008774FFF0A37400F0A3743BF090078CE4A1
:1031F400F0A37402F080031237F490078EE06404A5
:10320400601012388490078E7401F0E490078AF0FD
:03321400A3F02202
:1033FF00900780E07041900782E0B4021DE59620AF
:10340F00E7FB75960E759702E59620E7FB75961408
:10341F00759780E490078FF08020E59620E7FB7585
:10342F00960E759702E59620E7FB759611759740F6
:10343F00E4900790F080031237F4E59620E7FB75D0
:08344F00960EE4F597023884A3
:10250A00900796E020E0030225A0900794E030E0CF
:10251A000854FEF04402F08007900794E054FDF05E
:10252A00E59620E7FB75960E759702E59620E7FB80
:10253A00759614759710E59620E7FB7596117597B1
:10254A0008E59620E7FB759694E59620E7FB900749
:10255A009DE597F0E020E4E9E59620E7FB759614FF
:10256A00759710E59620E7FB759691E59620E7FBAF
:10257A0090079DE597F0E020E3E9E59620E7FB75F3
:10258A0096117597089007927408F0900794E0FFE7
:10259A0030E1034401F0900795E0FCA3E0FD30E14F
:1025AA000D9007867406F0900792E04410F0ED3023
:1025BA00E20D9007867404F0900792E04420F0E55B
:0D25CA009620E7FB75960EE4F59702388425
:10345700900780E07040900782E0B4021BE5962059
:10346700E7FB75960E759702E59620E7FB759614B0
:1034770075972090078F8019E59620E7FB75960EC4
:10348700759702E59620E7FB7596117597109007DB
:10349700907403F080031237F4E59620E7FB7596E6
:0734A7000EE4F597023884E2
:1037B500E59620E7FBE4F596900780E0FFF597EFA7
:1037C50090078660057403F080037402F002388464
:10280D00900781E024FE601B14603B2402706990E8
:10281D0007877401F0A37407F0A37440F09007408C
:10282D00E0804A9007877401F0A37407F0A37452F7
:10283D00F0900755E0FE900754E07C002400FFEC7B
:10284D003E90078C802C900780E075F003A42472D5
:10285D00F582E43407F583E0FBA3E0FAA3E0F990F9
:10286D000787EBF0A3EAF0A3E9F0120D91FF9007B3
:10287D008CE4F0A3EFF080031237F490078CE0FEA8
:10288D00A3E0FF900797E0FCA3E0FDC39FEC9E50F3
:10289D000890078CECF0A3EDF090078EE0640460D7
:1028AD001012388490078E7401F0E490078AF0A31B
:0228BD00F02207
:1035A500900786E0FFB40414A374FFF0A37400F041
:1035B500A37439F090078CE4F0A304F0EFB403167C
:1035C50090078774FFF0A37400F0A3743BF0900795
:1035D5008CE4F0A304F012388490078E7401F0E4B3
:0735E50090078AF0A3F02219
:1033A500900780E0D394004042900792E04440F0BB
:1033B5009007867404F0E490078FF0A3F0E596205B
:1033C500E7FB75960E759702E59620E7FB75961255
:1033D500759784E59620E7FB759615759780E596B4
:1033E50020E7FB75960EE4F597800C90078674032D
:0A33F500F090078FF0A3F002388477
:1037460090078774FFF0A37400F0A3743BF0900712
:103756008CE4F0A304F012388490078E7401F0E430
:0737660090078AF0A3F02296
:1038840090078EE06404600BE59620E7FB759611C3
:0438940075974022C2
:03004300021D0893
:101D0800C0E0C0F0C083C082C0D075D000C000C0A1
:101D180001C002C003C004C005C006C0079007A1E7
:101D2800E596F0E59620E7FB75968EE59620E7FBAD
:101D38009007A2E597F0E59620E7FB759686E5966D
:101D480020E7FB900799E597F0E030E30BE5962054
:101D5800E7FB75960B759707900799E030E2031239
:101D6800371F900799E030E014900786E0FF64047D
:101D78006004EFB40607900792E04480F0E59620EF
:101D8800E7FB759682E59620E7FB900799E597F0C3
:101D9800E030E00312100D900799E030E22AE59652
:101DA80020E7FB75960E759702E59620E7FB75967A
:101DB80091E59620E7FB90079AE597F0E0540370C9
:101DC80007900792E04402F0E59620E7FB759684B9
:101DD800E59620E7FB900799E597F0E030E229E5E2
:101DE8009620E7FB75960E759702E59620E7FB753A
:101DF8009694E59620E7FB90079AE597F0E030E0A7
:101E080007900792E04404F0E59620E7FB75960EEC
:101E18009007A2E0F597E59620E7FB9007A1E596E5
:101E2800F0E59620E7FB900794E030E009900792F0
:101E3800E06003123793D007D006D005D004D00352
:101E4800D002D001D000D0D0D082D083D0F0D0E062
:011E58003257
:10362F00E5B964E0602E53A90FC0A943B280E5A9A4
:10363F005407D394014003E4F5A9E4F5B943B980E5
:10364F00E4D5E0FD43B9C0E5B930E5FBD0E0B40205
:08365F000343A90253A90F2245
:1036F40053D7BF43C910E5A95402900791F043B2D0
:103704008075A910E4F5B943B2200012362F900752
:0B37140091E042A953C9EF43D74022C7
:0E38BC00900792E0FFE4F022900792E0FF22D6
:1028BF00900786E0B40606EDD3944040037F0022D4
:1028CF00E59620E7FB75960E759702E59620E7FBD8
:1028DF00759694E59620E7FB90079CE597F0E0202E
:1028EF00E00302296BE59620E7FB759696E59620A7
:1028FF00E7FB900793E597F0E0FFEDC39F5006AE1F
:10290F0005AF068000900793EFF053E6FDE59620A4
:10291F00E7FB7596E2900793E06025FEEB600630CB
:10292F00E70F7F0022E59620E7FBA79709DEF680E9
:10293F000F89828A83E59620E7FBE597F0A3DEF502
:10294F00E59620E7FBE4F596E59620E7FB759614F0
:0F295F00E4F59743E602900793E0FF227F002202
:10231000900786E0B4060DED4C6009D3ED9400EC17
:1023200094104004E4FEFF2253E6FDE490079FF082
:10233000A3F090079BF089828A83C083C0829007B4
:102340009BE030E003022411E59620E7FB75960E32
:10235000759702E59620E7FB759691E59620E7FBD9
:1023600090079BE597F0E030E020E59620E7FB75CD
:10237000960EE4F597E59620E7FB759691E5962095
:10238000E7FB90079BE597F080B4C3ED9440EC9495
:10239000009007A0E0401B2440F090079FE034002D
:1023A000F074C02DFD74FF3CFCE490079BF0784076
:1023B00080132DF090079FE03CF090079B7401F094
:1023C000A805E4FCFDE59620E7FB759622D082D0B7
:1023D00083E8602BEB601130E71AE59620E7FBE419
:1023E00093F597A3D8F48017E59620E7FB87970924
:1023F000D8F6800BE59620E7FBE0F597A3D8F5C06B
:1024000083C082E59620E7FB75961175970102233C
:102410003ED082D08343E60290079FE0FEA3E0FF18
:012420002299
:10382A00900794E04401F0900792E0600BE596203F
:09383A00E7FB75960B75970F2250
:0C38CA00E59620E7FB75960F75978922A4
:10379300D007D007D007D006D005D004D003D0027D
:1037A300D001D000D0D0D082D083D0F0D0E00200BE
:0237B3008B2267
:03000000022E2F9E
:0C2E2F00787FE4F6D8FD758108022E764D
:100C9B00E709F608DFFA8046E709F208DFFA803E3B
:100CAB0088828C83E709F0A3DFFA8032E309F60828
:100CBB00DFFA8078E309F208DFFA807088828C8390
:100CCB00E309F0A3DFFA806489828A83E0A3F60844
:100CDB00DFFA805889828A83E0A3F208DFFA804C1E
:100CEB0080D280FA80C680D4806980F280338010F5
:100CFB0080A680EA809A80A880DA80E280CA80335E
:100D0B0089828A83ECFAE493A3C8C582C8CCC583D5
:100D1B00CCF0A3C8C582C8CCC583CCDFE9DEE780A5
:100D2B000D89828A83E493A3F608DFF9ECFAA9F024
:100D3B00EDFB2289828A83ECFAE0A3C8C582C8CC7A
:100D4B00C583CCF0A3C8C582C8CCC583CCDFEADE93
:100D5B00E880DB89828A83E493A3F208DFF980CCF5
:100D6B0088F0EF60010E4E60C388F0ED2402B404EE
:100D7B000050B9F582EB2402B4040050AF23234595
:060D8B008223900CEB73C3
:100D9100BB010689828A83E0225002E722BBFE0260
:090DA100E32289828A83E4932293
:100DAA00BB010CE58229F582E5833AF583E02250FE
:100DBA0006E92582F8E622BBFE06E92582F8E22248
:0D0DCA00E58229F582E5833AF583E4932262
:100DD700EF8DF0A4A8F0CF8CF0A428CE8DF0A42E30
:020DE700FE22EA
:100DE900C5F0F8A3E028F0C5F0F8E5821582700295
:060DF9001583E038F02232
:100DFF00BB0110E58229F582E5833AF583E0F5F032
:100E0F00A3E0225009E92582F886F008E622BBFE0E
:100E1F000AE92582F8E2F5F008E222E5832AF58354
:080E2F00E993F5F0A3E9932219
:100E3700E88FF0A4CC8BF0A42CFCE98EF0A42CFC5A
:100E47008AF0EDA42CFCEA8EF0A4CDA8F08BF0A4D8
:100E57002DCC3825F0FDE98FF0A42CCD35F0FCEB37
:100E67008EF0A4FEA9F0EB8FF0A4CFC5F02ECD39FC
:0F0E7700FEE43CFCEAA42DCE35F0FDE43CFC2269
:100E860075F008758200EF2FFFEE33FECD33CDCC23
:100E960033CCC58233C5829BED9AEC99E5829840A6
:100EA6000CF582EE9BFEED9AFDEC99FC0FD5F0D683
:100EB600E4CEFBE4CDFAE4CCF9A88222B800C1B9AD
:100EC6000059BA002DEC8BF084CFCECDFCE5F0CBEB
:100ED600F97818EF2FFFEE33FEED33FDEC33FCEB24
:100EE60033FB10D703994004EB99FB0FD8E5E4F9DF
:100EF600FA227818EF2FFFEE33FEED33FDEC33FCCC
:100F0600C933C910D7059BE99A4007EC9BFCE99ABF
:100F1600F90FD8E0E4C9FAE4CCFB2275F010EF2F04
:100F2600FFEE33FEED33FDCC33CCC833C810D70704
:100F36009BEC9AE899400AED9BFDEC9AFCE899F83F
:0E0F46000FD5F0DAE4CDFBE4CCFAE4C8F922D2
:100F5400EB9FF5F0EA9E42F0E99D42F0E89C45F0F3
:010F6400226A
:100F6500E8600FECC313FCED13FDEE13FEEF13FF6A
:030F7500D8F1228E
:100F7800E8600FEFC333FFEE33FEED33FDEC33FCD7
:030F8800D8F1227B
:100F8B007401FF3395E0FEFDFC080808E2CF2FF259
:100F9B0018E2CE3EF218E2CD3DF218E2CC3CF22242
:0C0FAB00ECF0A3EDF0A3EEF0A3EFF022B9
:0C0FB700ECF208EDF208EEF208EFF22276
:100FC300A8828583F0D083D082120FDA120FDA124F
:100FD3000FDA120FDAE473E493A3C583C5F0C58374
:100FE300C8C582C8F0A3C583C5F0C583C8C582C878
:010FF30022DB
:100FF400D083D082E493F208740193F208740293CC
:09100400F208740393F274047302
:102E3B00023667E493A3F8E493A34003F68001F210
:102E4B0008DFF48029E493A3F85407240CC8C33398
:102E5B00C4540F4420C8834004F456800146F6DF67
:102E6B00E4800B010204081020408090369BE47E26
:102E7B00019360BCA3FF543F30E509541FFEE4935C
:102E8B00A360010ECF54C025E060A840B8E493A323
:102E9B00FAE493A3F8E493A3C8C582C8CAC583CA4E
:102EAB00F0A3C8C582C8CAC583CADFE9DEE780BE06
:0136C7000002
:00000001FF
