:102AE60055534220444542554700555342205245CE
:102AF60041440010C4EA611A03530069006C00697E
:102B06000063006F006E0020004C006100620073DD
:102B160000100355005300420020004100500049B8
:102B2600000A0343003500310046000F8001000112
:102CE200012E00013500013A00013C00013D0001C6
:102CF2003B000132000233000004360000000101F3
:082D02002FAA0130550131FF39
:100046001227EC30B63C122593122B367F007EF831
:10005600122C85122B367FE07E07122C85122B364A
:100066007F1F7E00122C85122B3674FFFFFE122C8A
:1000760085122B36E4FFFE122C85122B36121767DB
:0300860080C12214
:102DE100E4FDFCC3ED9FEC9E5014E4FBFA0BBB0029
:0E2DF100010AEBF44A70F60DBD00010C80E5FE
:012DFF0022B1
:042B36007F147E008A
:042B3A008E0B8F0C63
:102B3E00E4F50DF50E30B720E4FFFEC3EF950CEE75
:102B4E00950B501EE4FDFC0DBD00010CEDF44C7018
:102B5E00F60FBF00010E80E3122EAC7F147E001222
:102B6E002DE1050EE50E7002050DC39464E50D947E
:032B7E000040C252
:012B81002231
:102EAC0030B60512068E80F87FF47E01122DE130CB
:032EBC00B6FD223E
:10068E0078137C007D007BFF7A2B79357E007F010D
:10069E00120EC3E5357003020859750F01E50F25DB
:1006AE00E025E02458F582E43402F583E07029E574
:1006BE000F25E025E02459F582E43402F583E0FEAF
:1006CE00E50F25E025E0245AF582E43402F583E0B7
:1006DE00FDEDFF122E82803BE50F25E025E024582C
:1006EE00F582E43402F583E064017027E50F25E01E
:1006FE0025E02459F582E43402F583E0FEE50F256A
:10070E00E025E0245AF582E43402F583E0FDEDFFA6
:10071E00122E3D050FE50FC394104081000000001E
:10072E0000000000000000000000000000000000BB
:10073E007BFF7A2A79E6E4F519F51AF51BF51C7498
:10074E00FFF51DF51EE4FDFC12251190025BE02065
:10075E00E00302083F750F01E50F25E025E0245860
:10076E00F582E43402F583E07054E50F25E025E0D0
:10077E002459F582E43402F583E0FEE50F25E025E9
:10078E00E0245AF582E43402F583E0FDEDFFE50F37
:10079E0025E025E0245BF582E43402F583E075F074
:1007AE0024A4FDACF0E50F75F011A4FBAAF0751AA8
:1007BE0007751BE0E4F51CF51D1223F08067E50FAD
:1007CE0025E025E02458F582E43402F583E0640147
:1007DE007053E50F25E025E02459F582E43402F547
:1007EE0083E0FEE50F25E025E0245AF582E434028D
:1007FE00F583E0FDEDFFE50F25E025E0245BF582B6
:10080E00E43402F583E075F024A4FDACF0E50F7539
:10081E00F011A4FBAAF0751A00751B1F74FFF51CCE
:10082E00F51D1223F0050FE50FC3941050030207B8
:10083E006600000000000000000000000000000044
:10084E000000000000E4F5350206A1E53B7003024E
:10085E000915E4F50FE50FC394404003020904C2E5
:10086E00B0D2B17458250FF582E43402F583E0FF5F
:10087E007459250FF582E43402F583E0FD122E241F
:10088E00D2B07458250FF582E43402F583E0FF05EB
:10089E0034E534AC3370020533142400F582740051
:1008AE003CF583EFF07459250FF582E43402F5839D
:1008BE00E0FF0534E534AC3370020533142400F543
:1008CE008274003CF583EFF0E4B53423E533B402D3
:1008DE001E78361210B9122613900000E532F07F02
:1008EE00007E007D007C00122613E4F533F53405FE
:1008FE000F050F020863E4F53BFB7A0079137D01C7
:10090E00FC121CB5020859E52E7003020A0D900266
:10091E005BE070030209C9750F04E50FC394244010
:10092E00030209FCC2B0D2B17458250FF582E4342B
:10093E0002F583E0FF7459250FF582E43402F58346
:10094E00E0FD122E24D2B07458250FF582E4340245
:10095E00F583E0FF0534E534AC337002053314241F
:10096E0000F58274003CF583EFF07459250FF58283
:10097E00E43402F583E0FF0534E534AC3370020550
:10098E0033142400F58274003CF583EFF0E4B534A3
:10099E0023E533B4021E78361210B91226139000D6
:1009AE0000E532F07F007E007D007C00122613E40D
:1009BE00F533F534050F050F020928750F04E50F01
:1009CE00C394245029C2B0D2B17458250FF582E4D5
:1009DE003402F583E0FF7459250FF582E43402F5F5
:1009EE0083E0FD122E24D2B0050F050F80D0E4F562
:1009FE002EFB7A0079137D01FC121CB5020915E558
:100A0E003D7003020ABE750F04E50FC39424400324
:100A1E00020AAD7458250FF582E43402F583E070B6
:100A2E00217459250FF582E43402F583E0FE745AE1
:100A3E00250FF582E43402F583E0FDEDFF122E82E0
:100A4E0080547458250FF582E43402F583E0B40126
:100A5E00217459250FF582E43402F583E0FE745AB1
:100A6E00250FF582E43402F583E0FDEDFF122E3DF5
:100A7E0080247458250FF582E43402F583E0641067
:100A8E0070140000000000000000000000000000D4
:100A9E000000000000007404250FF50F020A17E491
:100AAE00F53DFB7A0079137D01FC121CB5020A0D8F
:100ABE00E53A7003020BF1E4F50F7400250FF58291
:100ACE00E43402F583E4F0050FE50FB418EC900260
:100ADE005FE025E0F51290025DE0FEA3E0FDEEF58D
:100AEE0010EDF51190025CE064017034AF11AE10A0
:100AFE00122E82E4F50FE50FC395125023122DA18D
:100B0E007400250FF582E43402F583E4F0740125B8
:100B1E000FF582E43402F583EFF0050F050F80D652
:100B2E00E4F53A7B017A027900E512FD7C00121C95
:100B3E00B57F647E00122DE17BFF7A2A79F0E4F511
:100B4E0019F51AF51BF51C74FFF51DF51EE4FDFCD9
:100B5E0012251190025BE020E003020ABE900260B3
:100B6E00E075F024A4FDACF0751A07751BE0E4F5F2
:100B7E001CF51D7B11FAAF11AE101223F0E4F50F28
:100B8E00E50FC395124003020ABE900260E075F0B5
:100B9E0024A4FDACF0C004C005E50FC3132402FF6E
:100BAE00E433FE7C007D11120F2FAA06AB077400F2
:100BBE00250FF582E43402F583E0FE7401250FF56E
:100BCE0082E43402F583E0FDEDFF751A00751B1FFC
:100BDE0074FFF51CF51DD005D0041223F0050F058A
:100BEE000F809DE53C6038E4F50F7418250FF582F3
:100BFE00E43402F583E4F0050FE50FB440ECE49025
:100C0E000218F0A374A0F0E4A3F0A37480F0E4F54E
:0F0C1E003C7B017A0279187D40FC121CB580C422
:010C2D0022A4
:102BC90053D9BF75B283E4F5B943B980FF0FBFFF8D
:102BD900FC43B9C0E5B930E5FBE4F5A943EF02755B
:102BE900F1FF75A4FF75A5FF75F2FF75A6FF75AE18
:102BF900FF75F4FF43A717C286C28743E10243E288
:012C0900408A
:012C0A0022A7
:1027EC00122BC9122C4D902AF9E493FE740193FF1D
:1027FC00902AFBE493FC740193FD90020774FFF0A4
:10280C00A3742BF0A37417F0A374FFF0A3742BF034
:10281C00A37427F0902B31E49390020DF0902B329F
:10282C00E49390020EF0902B33E493FB740193909D
:10283C00020FCBF0A3EBF07BFF7A2A79FD121A631F
:0C284C00122E5375A17075F80F021ED4F7
:03003D00022CB7DB
:03008B00021DC68D
:101DC600C0E0C0F0C083C082C0D075D000C000C0E3
:0D1DD60001C002C003C004C005C006C00764
:101DE300122ED08F08E50830E27C7B017A02795805
:101DF3007D40122205900258E0FFB52F0FA3E0B5F6
:101E0300300AA3E0B53105753501805AEFB53111BC
:101E1300900259E0B5300AA3E0B52F05753A018069
:101E230045900258E0B5300FA3E0B52F0AA3E0B503
:101E33003105753C01802F900258E0FFB52F0FA3A9
:101E4300E0B5310AA3E0B53005752E018018EFB572
:101E53003111900259E0B52F0AA3E0B53005753D65
:101E6300018003753B01E50830E70312003DE508F7
:101E730030E603122BC9E50830E41A155E155EA897
:101E83005E760008769F7A007B007C007D7F7E0073
:101E93007F0012236FE50830E51C0532155E155EE1
:101EA300A85E760008769F7A007B007C007D7F7EAB
:061EB300007F0012236F06
:101EB900D007D006D005D004D003D002D001D0007D
:0B1EC900D0D0D082D083D0F0D0E03227
:0C2E6C007FFF122E787FFF122E787FFF70
:092E78008FA330FFFDC2FFAFA3E0
:012E8100222E
:0A2EEA0075A3FF30FFFDC2FFAFA388
:012EF40022BB
:02292100AE07FF
:10292300E4FB122E6C122E6CC2FAEE4440FF122E00
:1029330078AF1CAE1BAD1AAC197818121093122E77
:1029430078AF1CAE1BAD1AAC197810121093122E6F
:1029530078AF1CAE1BAD1AAC197808121093122E67
:1029630078AF1C122E787F95122E787FFF122E7867
:0E297300BFFF09AE030BEED3946440EFD2FA1F
:012981002233
:1020A000E4FEFA75A90375A23BE4FD7FFF122E78CA
:1020B0000DBD64F7E4F51CF51BF51AF519FF12299F
:1020C00021AE070AEAD3940A5003BE01DCE4FAE425
:1020D000F51CF51BF51AF5197F37122921AE070AF1
:1020E000EAD3946440037F0122BE01E3E4FAF51CC5
:1020F000F51BF51AF5197F29122921AE070AEAD333
:10210000946440037F0122EE70C5EE601FE4FAE4A0
:10211000F51CF51BF51AF5197F01122921AE070AE6
:10212000EAD3946440037F0122EE70E3E4F51CF5EA
:102130001BF51AF5197F3B122921AE07E4F51C7532
:102140001B02F51AF5197F1012292175A201E4F579
:02215000A9FFE5
:01215200226A
:082858008F578E568D558C54EC
:10286000E4FA75A903AF57AE56AD55AC54780912CA
:1028700010A68F1C8E1B8D1A8C197F111229210A0C
:10288000EAD3940A40037F0122EF70D9C2FA122ED4
:10289000EABFFEFAE4FDFC122EEA74002DF5827404
:1028A000003CF583EFF00DBD00010CE4B505E8EC4C
:0C28B000B402E4122E71D2FAE4F5A9FF84
:0128BC0022F9
:082613008F178E168D158C1433
:10261B00E4FA75A903AF17AE16AD15AC1478091211
:10262B0010A68F1C8E1B8D1A8C197F18122921AEA8
:10263B00070AEAD3940A40037F0122EE70D7C2FA4D
:10264B007FFF122E787FFE122E78FDFC74002DF585
:10265B008274003CF583E0FF122E780DBD00010C57
:10266B00E4B505E8ECB402E4122E6CAE07EE541F91
:10267B0064056003D2FA227FFF122E78EF60F8D246
:05268B00FAE4F5A9FFCF
:012690002227
:102EBF00E4F91220A0EF600809E9D3940340F3224C
:012ECF0022E0
:10008E00000000182442424242424242241800001C
:10009E00000000107010101010101010107C0000D6
:1000AE000000003C4242420404081020427E000040
:1000BE000000003C42420418040202424438000090
:1000CE00000000040C14242444447E04041E00008A
:1000DE000000007E40404058640202424438000056
:1000EE000000001C24404058644242422418000084
:1000FE000000007E4444080810101010101000007C
:10010E000000003C4242422418244242423C00007D
:10011E000000001824424242261A0202243800002F
:10012E000000001010182828243C444242E700002A
:10013E00000000F8444444784442424244F800002F
:10014E000000003E424280808080804244380000A1
:10015E00000000F8444242424242424244F800004B
:10016E00000000FC424848784848404242FC0000EB
:10017E00000000FC424848784848404040E00000FB
:10018E000000003C44448080808E8444443800004B
:10019E00000000E7424242427E42424242E70000F5
:1001AE000000007C1010101010101010107C0000B9
:1001BE000000003E0808080808080808080888F02B
:1001CE00000000EE444850705048484444EE000091
:1001DE00000000E0404040404040404042FE0000F1
:1001EE00000000EE6C6C6C6C5454545454D60000E9
:1001FE00000000C7626252524A4A4A4646E2000076
:10020E00000000384482828282828282443800005A
:10021E00000000FC424242427C40404040E0000070
:10022E0000000038448282828282B2CA4C380600B4
:10023E00000000FC4242427C4848444442E3000035
:10024E000000003E4242402018040242427C000060
:10025E00000000FE92101010101010101038000048
:10026E00000000E74242424242424242423C00000B
:10027E00000000E7424244242428281810100000F1
:10028E00000000D692929292AAAA6C4444440000B6
:10029E00000000E7422424181818242442E7000026
:1002AE00000000EE444428281010101010380000F2
:1002BE000000007E840408081020204242FC00004A
:1002CE00001E1010101010101010101010101E0024
:1002DE000000404020201010100808040404020200
:1002EE0000780808080808080808080808087800B0
:1002FE00001C2200000000000000000000000000B2
:10030E00000000000000000000000000000000FFE0
:10031E00006010000000000000000000000000005F
:10032E00000000000000003C421E2242423F00003E
:10033E00000000C0404040586442424264580000F1
:10034E00000000000000001C22404040221C000063
:10035E00000000060202021E22424242261B00003C
:10036E00000000000000003C427E4040423C000085
:10037E000000000F1110107E10101010107C0000E5
:10038E00000000000000003E444438403C42423C25
:10039E00000000C04040405C6242424242E7000022
:1003AE00000000303000007010101010107C0000A3
:1003BE000000000C0C00001C040404040404447827
:1003CE00000000C04040404E4850684844EE0000D7
:1003DE00000000701010101010101010107C000093
:1003EE0000000000000000FE4949494949ED0000A7
:1003FE0000000000000000DC6242424242E70000C2
:10040E00000000000000003C42424242423C00001C
:10041E0000000000000000D864424242447840E0F0
:10042E00000000000000001E22424242221E02076F
:10043E0000000000000000EE3220202020F8000016
:10044E00000000000000003E42403C02427C0000E2
:10045E00000000000010107C10101010100C000096
:10046E0000000000000000C642424242463B00002F
:10047E0000000000000000E74224242810100000B5
:10048E0000000000000000D79292AAAA4444000087
:10049E00000000000000006E2418181824760000DA
:1004AE0000000000000000E742242428181010E08D
:1004BE00000000000000007E44081010227E0000A4
:1004CE0000030404040404080404040404040300E4
:1004DE00080808080808080808080808080808088E
:1004EE000060101010101008101010101010600086
:1004FE00304C43000000000000000000000000002F
:10050E0000000000000000000000000000000000DD
:10051E00000000101010101010100000181800002D
:10052E000012362448000000000000000000000009
:10053E00000000242424FE484848FE484848000095
:10054E0000001038545450301814145454381010ED
:10055E0000000044A4A8A8A8541A2A2A2A4400007D
:10056E0000000030484848506EA4948889760000F8
:10057E0000606020C00000000000000000000000CD
:10058E0000020408081010101010100808040200D1
:10059E00004020101008080808080810102040001D
:1005AE00000000001010D63838D6101000000000E1
:1005BE000000000010101010FE10101010000000AF
:1005CE00000000000000000000000000606020C07D
:1005DE0000000000000000007F000000000000008E
:1005EE00000000000000000000000000606000003D
:1005FE0000000102020404080810102020404000F0
:10060E00000000000000181800000000181800007C
:10061E00000000000000001000000000001010207C
:10062E000000000204081020402010080402000000
:10063E00000000000000FE000000FE0000000000B0
:10064E0000000040201008040204081020400000A2
:10065E000000003C42426202040808001818000024
:10066E0000000038445AAAAAAAAAB442443800008C
:10067E00FFFFFFFFFFFFFFFFFFFFFFFFFFFFFFFF7C
:061116008F3E8C3F8D406E
:10111C00E5406408453F60030211BCC2B0D296C2E0
:10112C00B1F5C7853EC7C297D297D2B075C7FFC27B
:10113C00B0D2B1D297C296F5AEC28700000000D2F1
:10114C009600000000AFC7F5438F44D28775AEFF01
:10115C00D296C296F5AEC28700000000D29600006F
:10116C00000085C748D28775AEFFD296C296F5AE01
:10117C00C28700000000D29600000000A9C7D287E9
:10118C0075AEFFD296C296F5AEC28700000000D2B3
:10119C00960000000085C749D28775AEFFD296BB7A
:1011AC000103021254EB6402600302152D02152296
:1011BC00E5406410453F6003021269EB6401600373
:1011CC0002152DC2B0D296C2B1F5A0853EC7C2970A
:1011DC00D297D2B075C7FFC2B0D2B1D297C296F532
:1011EC00AED28700000000D29600000000AFC7F519
:1011FC00438F44C28775AEFFD296C296F5AED287A6
:10120C0000000000D2960000000085C748C2877518
:10121C00AEFFD296C296F5AED28700000000D296F1
:10122C0000000000A9C7C28775AEFFD296C296F522
:10123C00AED28700000000C2960000000085C749AE
:10124C0075AEFFD296BB010AE9F545E549F54602B4
:10125C00152DEB6402600302152D021522E5406486
:10126C0020453F6003021326EB6401600302152D39
:10127C0075A6FF853E47C2B0C2A1C2A0D2A1FAC2D8
:10128C00A1E54730E704D2A08002C2A0D2A1E54775
:10129C0025E0F5470ABA08E775A6FEE4FAC2A1D222
:1012AC0087D2A0E54425E0FFE54333FEA2A0E4335A
:1012BC00FDEEF543EF4DF544C287D2A10ABA09DD24
:1012CC00E4FAC2A1D287D2A0E54825E0FFA2A0E4AF
:1012DC00334FF548C287D2A10ABA08E6E4FAC2A194
:1012EC00D287D2A0E925E0FFA2A0E4334FF9C28750
:1012FC00D2A10ABA08E8E4FAC2A1D287D2A0E54981
:10130C0025E0FFA2A0E4334FF549C287D2A10ABA67
:10131C0008E675A6FFD2B0021522E5406404453FED
:10132C00600302144F75A6FF853E47C2B0C2B1FAE6
:10133C00C2A1E54730E704D2A08002C2A0D2A1E549
:10134C004725E0F5470ABA08E775A6FEEB6401608D
:10135C0005EB64037027E4FAC2A1D287D2A0E54260
:10136C0025E0FFE54133FEA2A0E433FDEEF541EFAD
:10137C004DF542C287D2A10ABA09DD802FEB640277
:10138C006005EB64047025E4FAC2A1D287D2A0E513
:10139C004225E0FFE54133FEA2A0E433FDEEF5412A
:1013AC00EF4DF542C287D2A10ABA10DDE4FAC2A110
:1013BC00D287D2A0E54425E0FFE54333FEA2A0E4AA
:1013CC0033FDEEF543EF4DF544C287D2A10ABA08BE
:1013DC00DDE4FAC2A1D287D2A0E54825E0FFA2A0A5
:1013EC00E4334FF548C287D2A10ABA08E6E4FAC240
:1013FC00A1D287D2A0E925E0FFA2A0E4334FF9C225
:10140C0087D2A10ABA08E875A6FFC287D296D2B1D4
:10141C00D2A1D2A0D2B0BB010DE5424543F545E5C2
:10142C0044F54602152DEB6402600DBB03028008E7
:10143C00EB6404600302152DE544F545E548F546DB
:10144C0002152DE5406403453F600302152DEB6446
:10145C0001600302152D75A6FF853E47D2B0D2A1BF
:10146C00C2B0C2A00000C2A10000D2A1FAE5473070
:10147C00E704D2A08002C2A0C2A10000D2A1000049
:10148C00E54725E0F5470ABA08E3D2A0D2A175A634
:10149C00FEE4FAC2A1D287D2A0E54225E0FFE541E5
:1014AC0033FEA2A0E433FDEEF541EF4DF542C287C9
:1014BC00D2A10ABA08DDE4FAC2A1D287D2A0E544CF
:1014CC0025E0FFE54333FEA2A0E433FDEEF543EF48
:1014DC004DF544C287D2A10ABA08DDE4FAC2A1D202
:1014EC0087D2A0E54825E0FFA2A0E4334FF548C21F
:1014FC0087D2A10ABA08E6E4FAC2A1D287D2A0E93F
:10150C0025E0FFA2A0E4334FF9C287D2A10ABA08A2
:10151C00E875A6FFD2B0E548FEE9FDEEF545EDF520
:07152C0046C287AE45AF4641
:011533002295
:042E8200AD07AC06E6
:102E8600ECF52DC2B0D296C2B18DA0C297D297D220
:012E9600B08B
:012E97002218
:042E3900F808E6FFB0
:042E3D00AD07AC062B
:102E4100ECF52DC2B0D296D2B18DA0C297D297D255
:012E5100B0D0
:012E5200225D
:072E1D007EF8E4FC7FF8FDE4
:102E2400C2B0D296D2B18FA0C297D2978DA0C297CA
:042E3400D297D2B0AF
:012E38002277
:092EF500AD07AC06AF04022E2467
:101ED400122DA1D2857F967E00122DE1C2857F78D6
:101EE4007E00122DE1D2857F967E00122DE17FFEC9
:101EF4007E00122E827FEF122E827FB3122E827FFB
:101F040003122E3D7F21122E827F36122E82E4FF91
:101F1400122E3D7F3A122E827F55122E3D7FB4122F
:101F24002E827F21122E3D7FF0122E827F31122EBF
:101F34003D7F4C122E3D7F24122E3D7F58122E3DA4
:101F44007FA8122E3D7F26122E3D7F28122E3DE4BF
:101F5400FF122E3D7F2C122E3D7F0C122E3D122E91
:101F64003D7F15122E3D122E3D7F0F122E3D7FF127
:101F7400122E827F0E122E3D7F2D122E3D7F2412B3
:101F84002E3D7F3E122E3D7F99122E3D7F12122E42
:101F94003D0F122E3DE4FF122E3D7F0A122E3D7F8F
:101FA4000D122E3D122E3D7F14122E3D1F122E3D7A
:101FB4007F0F122E3D7FFE122E820F122E827F1172
:0F1FC400122E827F78122DE17F297E00022E825D
:10235800155E155EA85E760008769F7A007B007C85
:07236800007D7F7E007F0075
:10236F00155E155EA85EA60208A603155E155EA88B
:10237F005EA60408A605155E155EA85EA60608A64D
:10238F0007E4F5A97F2AFE122E82A95EE7FF122E1F
:10239F003DA85E08E6FF122E3DA85E0808A900E7DB
:1023AF00FF122E3DA85E080808E6FF122E3D7F2B78
:1023BF00122E82E55E2404F9E7FF122E3DE55E241E
:1023CF0004122E39E55E2406F9E7FF122E3DE55E75
:1023DF002406122E397F2C122E82E55E2408F55E1C
:0123EF0022CB
:022C8500AC069B
:102C87008C0BEFF50C122358C2B0D2B1900000ADF7
:102C97000CAF0B122E24A3E5826480458370F00BE2
:0F2CA700BB00010AEB64A04A70E2D2B0E4F5A9C9
:012CB60022FB
:10259300122358C2B0D2B1122E1D7E077CE07F07F2
:1025A3007DE0122E240BBB00010AEB647E4A70EA25
:1025B300E4FE7C1FFF7D1F122E24F582F583122E6D
:1025C3001DFAFBE4FEFCFFFD122E240BBB00010AE7
:1025D300EB647E4A70EDE4FE7C1FFF7D1F122E2408
:1025E300A3E582649E458370D5122E1DFAFB7E07F8
:1025F3007CE07F077DE0122E240BBB00010AEB6415
:0F2603007E4A70EAE4FF7D1F122E24F5A9D2B0A3
:0126120022A5
:10298200EFC3942050047F5F8050EFC39420400C2B
:10299200EFD3942F5006EF2428FF803EEFC39430EC
:1029A200400CEFD39439500674D02FFF802CEFC324
:1029B200943A400CEFD394405006EF241EFF801A45
:1029C200EFC39441400CEFD3947E5006EF24C9FF2D
:0B29D2008008EFD3947E40027F5F225C
:1022B400FDE43516FC851A24851B25851C26851D01
:0522C40027AB19AA1868
:0622C9008F1FAF05AE04FB
:1022CF00EB240FFDE43A155E155EA85EF608A60531
:1022DF00EF2407FDE43EFC12236FAF1F7E00D3EF08
:1022EF00945FEE940040027F5FEFC4F8540FC8680C
:1022FF00FFEEC454F048FE7529FF752A00752B8E2A
:10230F00EF252BF52BEE352AF52AE4F528AB290519
:10231F002BE52BAA2A7002052A14F9120EE9FBE409
:10232F00FAEBA802088002C333D8FC30E706AF25CA
:10233F00AE248004AF27AE26122EF50ABA08E205A6
:08234F0028E528C3941040C5E5
:012357002263
:102511008B148A1589168C178D18AB14AA15A91658
:10252100120EE97003D38001C34066AB140516E5B2
:1025310016AA157002051514F9120EE9FF12298267
:10254100851B24851C25851D26851E27AB1AAA19E6
:10255100AD18AC171222C9D3E5189477E51794008A
:102561004012E4F517F5187410251AF51AE4351917
:10257100F519800B74082518F518E43517F517D3EC
:10258100E51A948FE51994004090E4F519F51A8045
:0225910089229D
:1023F0008E148F158C168D178A188B19D3E51794A8
:102400005FE5169400400675160075175FD3E51951
:10241000948FE5189400400CE51924EFF519E518A0
:1024200034FFF518E514C4540FFF851A24851B25C5
:10243000851C26851D27AB19AA18AD17AC161222CC
:10244000C9E514540FFFE51724081222B4E514C49B
:10245000F854F0C8E515C4540F48540FFFE517248D
:10246000101222B4E515540FFFE5172418FDE435CA
:1024700016FC851A24851B25851C26851D27AB196E
:05248000AA180222C9A8
:102DA100E4FFFE122E827F66122E827F01122E3DDB
:102DB1001F122E827F66122E827F01122E3D1F224C
:102C0B008A0B8B0CED2401FBE43C155E155EA85E74
:102C1B00F608A603AB05AA04EF2401FDE43EFC1263
:102C2B00236FE50BFFAD0C122E24E50BFFAD0C1241
:102C3B002E24E50BFFAD0C122E24E50BFFAD0C0281
:022C4B002E2435
:0C28BD008E4A8F4B8C4C8D4D8A4E8B4FF9
:1028C900155E155EA85EA65008A651AA4EAB4FAC80
:1028D9004CAD4DAE4AAF4B12236FAB4FAA4EE551EB
:1028E9002401FFE43550FEC3EB9FEA9E5029854B36
:1028F90082854A83E54D2401FFE4354CFEC3E58218
:102909009FE5839E500AAF53AE52122EF5A380E481
:072919000BBB00010A80C79F
:012920002294
:042691008E588F5977
:10269500755A00755B0FC3E55B949FE55A9400502E
:1026A50027855A50855B51855852855953AB5BAA8E
:1026B5005A7D7F7C00E4FFFE1228BD7410255BF572
:1026C5005BE4355AF55A80CE755A00755B0FC3E544
:1026D5005B947FE55A9400502775500075519F858E
:1026E5005852855953E4FBFAAD5BAC5AAF5BAE5A11
:1026F5001228BD7410255BF55BE4355AF55A80CE7A
:0127050022B1
:102D5900C294C295E4900233F0EF20E704C2B28036
:102D690002D2B2D295EF25E0FFC295900233E0047A
:052D7900F0E0B408E4E5
:012D7E002232
:102706009002341210E500000000C294D2B3E490A7
:102716000233F0900233E0FFC3940C5049C2953067
:10272600B33AC3740B9FFF74017E00A807088005A7
:10273600C333CE33CED8F9FFEE3395E0FDFC9002DD
:1027460034E0F8A3E0F9A3E0FAA3E04FFFEA4EFE77
:10275600E94DFDE84CFC9002341210D9D295900256
:1027660033E004F080ADD294900234A3A3E0FEA33C
:02277600E0FF82
:01277800223E
:021B9A00AB0797
:101B9C00E490021AF0A3F0A3F0D2B590021AE0C3BD
:101BAC00940B502C20B529C294EB04FF122D591222
:101BBC00270690021AE025E0241DF582E43402F594
:101BCC0083EEF0A3EFF090021AE004F0D29480CBF5
:101BDC0090021AE07003021CB1E4A3F090021AE028
:101BEC00F9A3E0C3994003021C9DE4A3F090021BEF
:101BFC00E0FF90021AE0C39FFF90021CE0C39F40DD
:101C0C0003021C94E0FF25E0241FF582E43402F566
:101C1C0083E0FCA3E0FDEF25E0241DF582E4340213
:101C2C00F583E0FEA3E0D39DEE9C405390021CE0B4
:101C3C0025E0241DF582E43402F583E0FCA3E0FDED
:101C4C00900218ECF0A3EDF0EF25E0241FF582E4F0
:101C5C003402F583E0FEA3E0FF90021CE0FB25E0DC
:101C6C00241DF582E43402F583EEF0A3EFF0EB25AE
:101C7C00E0241FF582E43402F583ECF0A3EDF09040
:101C8C00021CE004F0021BF990021BE004F0021BA2
:101C9C00E8E9C31325E0241DF582E43402F583E062
:081CAC00FEA3E0FF22E4FEFFAD
:011CB400220D
:101767009002001210E5000000009002041210E53C
:10177700000000009002081210E50000000090022F
:101787000C1210E5000000009002101210E5000096
:1017970000009002141210E500000000E4FFFE12A2
:1017A7002C85D2B520B5FD20B6030219097F327EFC
:1017B70000122DE130B5030218FF7FD0121B9AE407
:1017C700FCFD9002081210D9900208E0FCA3E0FD8E
:1017D700A3E0FEA3E024BDFFEE34FFFEED34FFFDE2
:1017E700EC34FFFCE47B80FAF9F8120F57E47BA591
:1017F7007A02F9F8120FE2E4120D347BB87A1E79F7
:1018070045783F120C2E120D729002001210D97FEC
:1018170090121B9AE4FCFD90020C1210D990020C56
:10182700E0FCA3E0FDA3E0FEA3E024A0FFEE34FF6D
:10183700FEED34FFFDEC34FFFCE47BA0FAF9F8126F
:101847000F57E4FB7A03F9F8120FE2E4120D347B29
:10185700337A337973783F120C2E120D729002048B
:101867001210D97F0F7E00122DE130B5030217BB8E
:10187700E4FFFEFDFC900200E0F8A3E0F9A3E0FA24
:10188700A3E0FBC312108250030217BBE47F80FE64
:10189700FDFC900200E0F8A3A3A3E012108240032E
:1018A7000217BBE4FFFEFDFC900204E0F8A3E0F999
:1018B700A3E0FAA3E0FBC312108250030217BBE4B4
:1018C7007FA0FEFDFC900204E0F8A3A3A3E01210A2
:1018D7008240030217BB900200A3A3E0FEA3E0FF30
:1018E700C006A3A3A3E0FEA3E0FDAC06D0067B00E1
:1018F7007AF8122C0B0217BB7F327E00122DE10201
:0B19070017AEE4FFFE122C850217AEA5
:100003001201100100000040C410000000000102B2
:1000130003010902200001010080FA090400000223
:10002300FF000000070502024000000705820240AE
:0A00330000000403090401000000AE
:101A6300900200EEF0A3EFF0900204EBF0A3EAF093
:101A7300A3E9F0E4900791F0900791E0FF90000351
:101A830093FE74402FF582E43407F583EEF090075C
:101A930091E004F0E0B412E0E4900791F090079134
:101AA300E0FF90001593FE74522FF582E43407F59E
:101AB30083EEF0900791E004F0E0B420E0900200A0
:101AC300E0FEA3E0900748F0EEA3F0A3EDF0ECA353
:101AD300F090077274FFF0A37400F0A37435F090D4
:101AE3000204E0F9A3E0FAA3E0900775C9F0A3EAC2
:101AF300F0A3E9F0900207E0F9A3E0FAA3E090076E
:101B030078C9F0A3EAF0A3E9F090020AE0F9A3E0B0
:101B1300FAA3E090077BC9F0A3EAF0A3E9F09002EF
:101B23000DE0FFC394FA500590075AEFF090020EB0
:101B3300E0900759F090020FE0FEA3E090074CF00D
:101B4300EEA3F0E59620E7FB759601759708E596F9
:101B530020E7FB75960775970FE59620E7FB7596CB
:101B63000975970EE59620E7FB75960B7597077534
:101B7300D7E0122EDEE4900793F0900792F09007DF
:101B830094F0900786F043E602D2AFE59620E7FB98
:071B93007596017597012210
:102D0B009007867402F0E59620E7FB7596017597A0
:102D1B0001E490078EF0A37403F0A3F0E490079303
:072D2B00F090079204F02272
:10153400E59620E7FB75960EE4F597E59620E7FB24
:10154400759691E59620E7FB90079EE597F0E0FFFE
:1015540030E210E59620E7FB759611E4F5979007C5
:101564008EF022EF30E410E59620E7FB75961175B6
:101574009780E490078EF090078EE0600302166572
:1015840090079EE020E0030216657596204396C0FE
:10159400E4900791F0E59620E7FB900791E0247E24
:1015A400F582E43407F583E597F0900791E004F0C1
:1015B400E0B407E1E59620E7FBE4F596900791E0B7
:1015C400247EF582E43407F583E597F0900781E003
:1015D400FE900780E07C002400FFEC3E900795F02D
:1015E400A3EFF0900785E0FE900784E02400FFEC71
:1015F4003E900797F0A3EFF090077FE0B40C005003
:101604005D90160CF828287302163002163502165F
:101614003A02163F02166202164402164902166284
:1016240002164E02165302165802165D12277980CE
:1016340030122A37802B121FD38026122A8F802142
:10164400122DC1801C1221538017122B828012127A
:1016540029DD800D122D328008122E988003122E5F
:101664000090078EE06401600302176690079E7481
:1016740002F0C390078DE0944090078CE094004002
:1016840061E59620E7FB759620E4900791F09007BA
:1016940091E0FFC394405022900787E0FBA3E0FA57
:1016A400A3E0F98F82758300120F02F597E5962067
:1016B400E7FB900791E004F080D4900788E475F08C
:1016C40040120F4190078DE024C0F090078CE03465
:1016D400FFF090078BE02440F090078AE03400F09C
:1016E4008052E59620E7FB759620E4900791F090F0
:1016F4000791E0FFD390078DE09F90078CE0940062
:101704004026900787E0FBA3E0FAA3E0F990079155
:10171400E0F582758300120F02F597E59620E7FB4A
:10172400900791E004F080C790079EE04408F0E43D
:1017340090078EF0900797E0FEA3E0FF90078AE001
:10174400B50611A3E0B5070C90079EE04408F0E449
:1017540090078EF0E59620E7FB75961190079EE0C2
:03176400F59722D4
:102E0000E59620E7FB75960EE4F597E59620E7FB3F
:0D2E100075961175972090078E7404F022BE
:1027790090077EE0247F6007146006240270488079
:102789002D90078FE0B40309900782E0B40202801C
:102799000E900790E0B40316900782E0B4820F9080
:1027A900078774FFF0A37400F0A37439800D9007B4
:1027B9008774FFF0A37400F0A3743BF090078CE4D6
:1027C900F0A37402F08003122E0090078EE06404D7
:1027D9006010122E9890078E7401F0E490078AF029
:0327E900A3F02238
:102A3700900780E07041900782E0B4021DE5962080
:102A4700E7FB75960E759702E59620E7FB759614DA
:102A5700759780E490078FF08020E59620E7FB7557
:102A6700960E759702E59620E7FB759611759740C8
:102A7700E4900790F08003122E00E59620E7FB759F
:082A8700960EE4F597022E986B
:101FD300900796E020E003022069900794E030E048
:101FE3000854FEF04402F08007900794E054FDF09B
:101FF300E59620E7FB75960E759702E59620E7FBBD
:10200300759614759710E59620E7FB7596117597ED
:1020130008E59620E7FB759694E59620E7FB900785
:102023009DE597F0E020E4E9E59620E7FB7596143B
:10203300759710E59620E7FB759691E59620E7FBEB
:1020430090079DE597F0E020E3E9E59620E7FB752F
:1020530096117597089007927408F0900794E0FF23
:1020630030E1034401F0900795E0FCA3E0FD30E18B
:102073000D9007867406F0900792E04410F0ED305F
:10208300E20D9007867404F0900792E04420F0E597
:0D2093009620E7FB75960EE4F597022E9857
:102A8F00900780E07040900782E0B4021BE596202B
:102A9F00E7FB75960E759702E59620E7FB75961482
:102AAF0075972090078F8019E59620E7FB75960E96
:102ABF00759702E59620E7FB7596117597109007AD
:102ACF00907403F08003122E00E59620E7FB7596B5
:072ADF000EE4F597022E98AA
:102DC100E59620E7FBE4F596900780E0FFF597EFA5
:102DD10090078660057403F080037402F0022E9858
:10215300900781E024FE601B14603B2402706990A9
:1021630007877401F0A37407F0A37440F09007404D
:10217300E0804A9007877401F0A37407F0A37452B8
:10218300F0900755E0FE900754E07C002400FFEC3C
:102193003E90078C802C900780E075F003A4247296
:1021A300F582E43407F583E0FBA3E0FAA3E0F990BA
:1021B3000787EBF0A3EAF0A3E9F0120EE9FF90071B
:1021C3008CE4F0A3EFF08003122E0090078CE0FE66
:1021D300A3E0FF900797E0FCA3E0FDC39FEC9E50B4
:1021E3000890078CECF0A3EDF090078EE064046098
:1021F30010122E9890078E7401F0E490078AF0A3D2
:02220300F022C7
:102B8200900786E0FFB40414A374FFF0A37400F06E
:102B9200A37439F090078CE4F0A304F0EFB40316A9
:102BA20090078774FFF0A37400F0A3743BF09007C2
:102BB2008CE4F0A304F0122E9890078E7401F0E4D6
:072BC20090078AF0A3F02246
:1029DD00900780E0D394004042900792E04440F08D
:1029ED009007867404F0E490078FF0A3F0E596202D
:1029FD00E7FB75960E759702E59620E7FB75961227
:102A0D00759784E59620E7FB759615759780E59685
:102A1D0020E7FB75960EE4F597800C9007867403FE
:0A2A2D00F090078FF0A3F0022E983E
:102D320090078774FFF0A37400F0A3743BF0900730
:102D42008CE4F0A304F0122E9890078E7401F0E444
:072D520090078AF0A3F022B4
:102E980090078EE06404600BE59620E7FB759611B9
:042EA80075974022B8
:030043000219128D
:10191200C0E0C0F0C083C082C0D075D000C000C09B
:1019220001C002C003C004C005C006C0079007A1E1
:10193200E596F0E59620E7FB75968EE59620E7FBA7
:101942009007A2E597F0E59620E7FB759686E59667
:1019520020E7FB900799E597F0E030E30BE596204E
:10196200E7FB75960B759707900799E030E2031233
:101972002D0B900799E030E014900786E0FF640495
:101982006004EFB40607900792E04480F0E59620E9
:10199200E7FB759682E59620E7FB900799E597F0BD
:1019A200E030E003121534900799E030E22AE59620
:1019B20020E7FB75960E759702E59620E7FB759674
:1019C20091E59620E7FB90079AE597F0E0540370C3
:1019D20007900792E04402F0E59620E7FB759684B3
:1019E200E59620E7FB900799E597F0E030E229E5DC
:1019F2009620E7FB75960E759702E59620E7FB7534
:101A02009694E59620E7FB90079AE597F0E030E0A0
:101A120007900792E04404F0E59620E7FB75960EE6
:101A22009007A2E0F597E59620E7FB9007A1E596DF
:101A3200F0E59620E7FB900794E030E009900792EA
:101A4200E06003122D7FD007D006D005D004D0036A
:101A5200D002D001D000D0D0D082D083D0F0D0E05C
:011A62003251
:102C4D00E5B964E0602E53A90FC0A943B280E5A990
:102C5D005407D394014003E4F5A9E4F5B943B980D1
:102C6D00E4D5E0FD43B9C0E5B930E5FBD0E0B402F1
:082C7D000343A90253A90F2231
:102CB70053D7BF43C910E5A95402900791F043B217
:102CC7008075A910E4F5B943B22000122C4D900786
:0B2CD70091E042A953C9EF43D740220F
:0E2ED000900792E0FFE4F022900792E0FF22CC
:10220500900786E0B40606EDD3944040037F002294
:10221500E59620E7FB75960E759702E59620E7FB98
:10222500759694E59620E7FB90079CE597F0E020EE
:10223500E0030222B1E59620E7FB759696E5962028
:10224500E7FB900793E597F0E0FFEDC39F5006AEDF
:1022550005AF068000900793EFF053E6FDE5962065
:10226500E7FB7596E2900793E06025FEEB6006308C
:10227500E70F7F0022E59620E7FBA79709DEF680AA
:102285000F89828A83E59620E7FBE597F0A3DEF5C3
:10229500E59620E7FBE4F596E59620E7FB759614B1
:0F22A500E4F59743E602900793E0FF227F0022C3
:101CB500900786E0B4060DED4C6009D3ED9400EC79
:101CC50094104004E4FEFF2253E6FDE490079FF0E4
:101CD500A3F090079BF089828A83C083C082900716
:101CE5009BE030E003021DB6E59620E7FB75960EF6
:101CF500759702E59620E7FB759691E59620E7FB3B
:101D050090079BE597F0E030E020E59620E7FB752E
:101D1500960EE4F597E59620E7FB759691E59620F6
:101D2500E7FB90079BE597F080B4C3ED9440EC94F6
:101D3500009007A0E0401B2440F090079FE034008E
:101D4500F074C02DFD74FF3CFCE490079BF07840D7
:101D550080132DF090079FE03CF090079B7401F0F5
:101D6500A805E4FCFDE59620E7FB759622D082D018
:101D750083E8602BEB601130E71AE59620E7FBE47A
:101D850093F597A3D8F48017E59620E7FB87970985
:101D9500D8F6800BE59620E7FBE0F597A3D8F5C0CC
:101DA50083C082E59620E7FB759611759701021CA5
:101DB500E3D082D08343E60290079FE0FEA3E0FFD5
:011DC50022FB
:102E5300900794E04401F0900792E0600BE5962020
:092E6300E7FB75960B75970F2231
:0C2EDE00E59620E7FB75960F759789229A
:102D7F00D007D007D007D006D005D004D003D0029B
:102D8F00D001D000D0D0D082D083D0F0D0E00200DC
:022D9F008B2285
:100C2E00EC4D6011E8497017ED33EC3304600DE4C0
:100C3E00FCFFFEFD22E933E8330470F8020DDE12EC
:100C4E000DA958046009E4CC2481500628500902ED
:100C5E000DE8284003020DE5C0E0EB4A7044B98070
:100C6E0006D0E0FB020DD4EF4E701CBD8008EBFFEA
:100C7E00EAFEE9FD80EBE98DF0A4FEE5F0020D172A
:100C8E00E9CDF9EAFEEBFFEF89F0A4FCE5F0CE89A1
:100C9E00F0A42EFFE435F0CD89F0A42DFEE435F05E
:100CAE008067EF4E7005BD80D780C3EF8BF0A4AC8C
:100CBE00F0EE8BF0A42CFCE435F0F8EF8AF0A42CC7
:100CCE00E5F038FCE433CB8DF0A42CFCE5F03BF8DA
:100CDE00EE8AF0A42CFCE5F038F8E433CF89F0A4CA
:100CEE002CFCE5F038CF3400CE89F0A42FFFE5F0D0
:100CFE003EFEE433C98DF0A42EFEE5F039CD8AF028
:100D0E00A42FFFE5F03EFEE43DFD33D0E0FB50079F
:100D1E000BBB000F020DE8EC2CFCEF33FFEE33FEA5
:060D2E00ED33FD020DC0D3
:100D340075F020800E75F010800575F0087D007E3A
:100D4400007F003392D530D503121074EC33401079
:100D5400EF33FFEE33FEED33FDEC33FCD5F0ED2243
:0E0D6400E5F0247EA2D513CC92E7CDCEFF227F
:100D7200EDD2E7CD33EC3392D524814006E4FFFE79
:100D8200FDFC22FCE4CFCECDCC24E0501174FF80D8
:100D9200EDC3CC13CCCD13CDCE13CECF13CF047075
:070DA200F030D5DE021074F1
:100DA900E9D2E7C933E833F892D5EDD2E7CD33EC90
:070DB90033FC5002B2D52209
:100DC000EC30E7100FBF000C0EBE00080DBD000494
:100DD0000BEB6014A2D5EB13FCED92E7FD2274FF40
:100DE000FCFDFEFF22E480F8A2D574FF13FC7D8099
:030DF000E480EFAD
:0300000002248552
:0C248500787FE4F6D8FD75815E0224CC5F
:100DF300E709F608DFFA8046E709F208DFFA803EE2
:100E030088828C83E709F0A3DFFA8032E309F608CE
:100E1300DFFA8078E309F208DFFA807088828C8336
:100E2300E309F0A3DFFA806489828A83E0A3F608EA
:100E3300DFFA805889828A83E0A3F208DFFA804CC4
:100E430080D280FA80C680D4806980F2803380109B
:100E530080A680EA809A80A880DA80E280CA803304
:100E630089828A83ECFAE493A3C8C582C8CCC5837C
:100E7300CCF0A3C8C582C8CCC583CCDFE9DEE7804C
:100E83000D89828A83E493A3F608DFF9ECFAA9F0CB
:100E9300EDFB2289828A83ECFAE0A3C8C582C8CC21
:100EA300C583CCF0A3C8C582C8CCC583CCDFEADE3A
:100EB300E880DB89828A83E493A3F208DFF980CC9C
:100EC30088F0EF60010E4E60C388F0ED2402B40495
:100ED3000050B9F582EB2402B4040050AF2323453C
:060EE3008223900E437310
:100EE900BB010689828A83E0225002E722BBFE0207
:090EF900E32289828A83E493223A
:100F0200BB010CE58229F582E5833AF583E02250A4
:100F120006E92582F8E622BBFE06E92582F8E222EE
:0D0F2200E58229F582E5833AF583E4932208
:100F2F00EF8DF0A4A8F0CF8CF0A428CE8DF0A42ED6
:020F3F00FE2290
:100F4100C5F0F8A3E028F0C5F0F8E582158270023B
:060F51001583E038F022D8
:100F5700E88FF0A4CC8BF0A42CFCE98EF0A42CFC39
:100F67008AF0EDA42CFCEA8EF0A4CDA8F08BF0A4B7
:100F77002DCC3825F0FDE98FF0A42CCD35F0FCEB16
:100F87008EF0A4FEA9F0EB8FF0A4CFC5F02ECD39DB
:0F0F9700FEE43CFCEAA42DCE35F0FDE43CFC2248
:100FA60075F008758200EF2FFFEE33FECD33CDCC02
:100FB60033CCC58233C5829BED9AEC99E582984085
:100FC6000CF582EE9BFEED9AFDEC99FC0FD5F0D662
:100FD600E4CEFBE4CDFAE4CCF9A88222B800C1B98C
:100FE6000059BA002DEC8BF084CFCECDFCE5F0CBCA
:100FF600F97818EF2FFFEE33FEED33FDEC33FCEB03
:1010060033FB10D703994004EB99FB0FD8E5E4F9BD
:10101600FA227818EF2FFFEE33FEED33FDEC33FCAA
:10102600C933C910D7059BE99A4007EC9BFCE99A9E
:10103600F90FD8E0E4C9FAE4CCFB2275F010EF2FE3
:10104600FFEE33FEED33FDCC33CCC833C810D707E3
:101056009BEC9AE899400AED9BFDEC9AFCE899F81E
:0E1066000FD5F0DAE4CDFBE4CCFAE4C8F922B1
:0E107400C3E49FFFE49EFEE49DFDE49CFC228D
:10108200EB9FF5F0EA9E42F0E99D42F0E89C45F0C4
:01109200223B
:10109300E8600FECC313FCED13FDEE13FEEF13FF3B
:0310A300D8F1225F
:1010A600E8600FEFC333FFEE33FEED33FDEC33FCA8
:0310B600D8F1224C
:1010B9007401FF3395E0FEFDFC080808E6CF2FF622
:1010C90018E6CE3EF618E6CD3DF618E6CC3CF622FB
:0C10D900ECF0A3EDF0A3EEF0A3EFF0228A
:1010E500A8828583F0D083D0821210FC1210FC12E6
:1010F50010FC1210FCE473E493A3C583C5F0C5830B
:10110500C8C582C8F0A3C583C5F0C583C8C582C854
:0111150022B7
:10249100020046E493A3F8E493A34003F68001F21B
:1024A10008DFF48029E493A3F85407240CC8C3334C
:1024B100C4540F4420C8834004F456800146F6DF1B
:1024C100E4800B0102040810204080902CE2E47E9D
:1024D100019360BCA3FF543F30E509541FFEE49310
:1024E100A360010ECF54C025E060A840B8E493A3D7
:1024F100FAE493A3F8E493A3C8C582C8CAC583CA02
:10250100F0A3C8C582C8CAC583CADFE9DEE780BEB9
:012D0A0000C8
:00000001FF
