:102FD40055534220444542554700555342205245DB
:102FE40041440010C4EA611A03530069006C00698B
:102FF4000063006F006E0020004C006100620073EB
:1030040000100355005300420020004100500049C5
:10301400000A0343003500310046000F800100011F
:10320F00012D00013400013900013B00013C000198
:10321F003A000131000232000004350000000101C4
:08322F002EAA012F550130FF0A
:102C7500122C0930B6621226761230247FF47E01BA
:102C85001232EE7F007EF81231291230247FE07E69
:102C9500071231291230247F1F7E0012312912308C
:102CA50024E4FFFE1231291230247FE87E0312321C
:102CB500EE74FFFFFE1231291230247F207E0312AD
:102CC50032EE1213491230241233807F0A7E00122D
:082CD50032EE121516022C78F4
:012CDD0022D4
:1032EE00E4FDFCC3ED9FEC9E5014E4FBFA0BBB0017
:0E32FE00010AEBF44A70F60DBD00010C80E5EC
:01330C00229E
:043024007F0A7E00A1
:043028008E0B8F0C70
:10302C00E4F50DF50E30B720E4FFFEC3EF950CEE82
:10303C00950B501EE4FDFC0DBD00010CEDF44C7025
:10304C00F60FBF00010E80E312336D7F147E001269
:10305C0032EE050EE50E7002050DC39464E50D9479
:03306C000040C25F
:01306F00223E
:10336D0030B60512068E80F87FF47E011232EE30F3
:03337D00B6FD2278
:10068E0078137C007D007BFF7A3079237E007F011A
:10069E00120EC3E5347003020859750F01E50F25DC
:1006AE00E025E02458F582E43402F583E07029E574
:1006BE000F25E025E02459F582E43402F583E0FEAF
:1006CE00E50F25E025E0245AF582E43402F583E0B7
:1006DE00FDEDFF12318F803BE50F25E025E024581C
:1006EE00F582E43402F583E064017027E50F25E01E
:1006FE0025E02459F582E43402F583E0FEE50F256A
:10070E00E025E0245AF582E43402F583E0FDEDFFA6
:10071E00123166050FE50FC39410408100000000F2
:10072E0000000000000000000000000000000000BB
:10073E007BFF7A2F79D4E4F519F51AF51BF51C74A5
:10074E00FFF51DF51EE4FDFC12254190025BE02035
:10075E00E00302083F750F01E50F25E025E0245860
:10076E00F582E43402F583E07054E50F25E025E0D0
:10077E002459F582E43402F583E0FEE50F25E025E9
:10078E00E0245AF582E43402F583E0FDEDFFE50F37
:10079E0025E025E0245BF582E43402F583E075F074
:1007AE0024A4FDACF0E50F75F011A4FBAAF0751AA8
:1007BE0007751BE0E4F51CF51D1225DC8067E50FBF
:1007CE0025E025E02458F582E43402F583E0640147
:1007DE007053E50F25E025E02459F582E43402F547
:1007EE0083E0FEE50F25E025E0245AF582E434028D
:1007FE00F583E0FDEDFFE50F25E025E0245BF582B6
:10080E00E43402F583E075F024A4FDACF0E50F7539
:10081E00F011A4FBAAF0751A00751B1F74FFF51CCE
:10082E00F51D1225DC050FE50FC3941050030207CA
:10083E006600000000000000000000000000000044
:10084E000000000000E4F5340206A1E53A70030250
:10085E000915E4F50FE50FC394404003020904C2E5
:10086E00B0D2B17458250FF582E43402F583E0FF5F
:10087E007459250FF582E43402F583E0FD12001859
:10088E00D2B07458250FF582E43402F583E0FF05EB
:10089E0033E533AC3270020532142400F582740055
:1008AE003CF583EFF07459250FF582E43402F5839D
:1008BE00E0FF0533E533AC3270020532142400F547
:1008CE008274003CF583EFF0E4B53323E532B402D5
:1008DE001E78351210B91229C0900000E531F07F54
:1008EE00007E007D007C001229C0E4F532F5330550
:1008FE000F050F020863E4F53AFB7A0079137D01C8
:10090E00FC121D3E020859E52D7003020A0D9002DD
:10091E005BE070030209C9750F04E50FC394244010
:10092E00030209FCC2B0D2B17458250FF582E4342B
:10093E0002F583E0FF7459250FF582E43402F58346
:10094E00E0FD120018D2B07458250FF582E434027F
:10095E00F583E0FF0533E533AC3270020532142423
:10096E0000F58274003CF583EFF07459250FF58283
:10097E00E43402F583E0FF0533E533AC3270020553
:10098E0032142400F58274003CF583EFF0E4B533A5
:10099E0023E532B4021E78351210B91229C0900028
:1009AE0000E531F07F007E007D007C001229C0E45E
:1009BE00F532F533050F050F020928750F04E50F03
:1009CE00C394245029C2B0D2B17458250FF582E4D5
:1009DE003402F583E0FF7459250FF582E43402F5F5
:1009EE0083E0FD120018D2B0050F050F80D0E4F59C
:1009FE002DFB7A0079137D01FC121D3E020915E5CF
:100A0E003C7003020ABE750F04E50FC39424400325
:100A1E00020AAD7458250FF582E43402F583E070B6
:100A2E00217459250FF582E43402F583E0FE745AE1
:100A3E00250FF582E43402F583E0FDEDFF12318FD0
:100A4E0080547458250FF582E43402F583E0B40126
:100A5E00217459250FF582E43402F583E0FE745AB1
:100A6E00250FF582E43402F583E0FDEDFF123166C9
:100A7E0080247458250FF582E43402F583E0641067
:100A8E0070140000000000000000000000000000D4
:100A9E000000000000007404250FF50F020A17E491
:100AAE00F53CFB7A0079137D01FC121D3E020A0D06
:100ABE00E5397003020BF1E4F50F7400250FF58292
:100ACE00E43402F583E4F0050FE50FB418EC900260
:100ADE005FE025E0F51290025DE0FEA3E0FDEEF58D
:100AEE0010EDF51190025CE064017034AF11AE10A0
:100AFE0012318FE4F50FE50FC39512502312339187
:100B0E007400250FF582E43402F583E4F0740125B8
:100B1E000FF582E43402F583EFF0050F050F80D652
:100B2E00E4F5397B017A027900E512FD7C00121D95
:100B3E003E7F647E001232EE7BFF7A2F79DEE4F583
:100B4E0019F51AF51BF51C74FFF51DF51EE4FDFCD9
:100B5E0012254190025BE020E003020ABE90026083
:100B6E00E075F024A4FDACF0751A07751BE0E4F5F2
:100B7E001CF51D7B11FAAF11AE101225DCE4F50F3A
:100B8E00E50FC395124003020ABE900260E075F0B5
:100B9E0024A4FDACF0C004C005E50FC3132402FF6E
:100BAE00E433FE7C007D11120F2FAA06AB077400F2
:100BBE00250FF582E43402F583E0FE7401250FF56E
:100BCE0082E43402F583E0FDEDFF751A00751B1FFC
:100BDE0074FFF51CF51DD005D0041225DC050F059C
:100BEE000F809DE53B6038E4F50F7418250FF582F4
:100BFE00E43402F583E4F0050FE50FB440ECE49025
:100C0E000218F0A37480F0E4A3F0A37480F0E4F56E
:0F0C1E003B7B017A0279187D40FC121D3E80C499
:010C2D0022A4
:1000460053D9BF75B283E4F5B943B980FF0FBFFF3B
:10005600FC43B9C0E5B930E5FBE4F5A943EF027509
:10006600F1FF75A4FF75A5FF75F2FF75A6FF75AEC6
:10007600FF75F4FF43A717C286C28743E10243E236
:010086004039
:010087002256
:102C09001200461230F1902FE7E493FE740193FF0E
:102C1900902FE9E493FC740193FD90020774FFF08F
:102C2900A37430F0A37405F0A374FFF0A37430F01B
:102C3900A37415F090301FE49390020DF0903020AA
:102C4900E49390020EF0903021E493FB7401939089
:102C5900020FCBF0A3EBF07BFF7A2F79EB121AEC82
:0C2C690012332A75A17075F80F0216E3F3
:030088000231BA88
:03008B00021E4F03
:101E4F00C0E0C0F0C083C082C0D075D000C000C059
:0D1E5F0001C002C003C004C005C006C007DA
:101E6C001233A08F08E50830E27C7B017A027958A6
:101E7C007D40122349900258E0FFB52E0FA3E0B528
:101E8C002F0AA3E0B53005753401805AEFB5301137
:101E9C00900259E0B52F0AA3E0B52E0575390180E3
:101EAC0045900258E0B52F0FA3E0B52E0AA3E0B57C
:101EBC003005753B01802F900258E0FFB52E0FA323
:101ECC00E0B5300AA3E0B52F05752D018018EFB5EC
:101EDC003011900259E0B52E0AA3E0B52F05753CE0
:101EEC00018003753A01E50830E703120088E50824
:101EFC0030E603120046E50830E41A15681568A8A8
:101F0C0068760008767F7A007B007C007D7F7E00FF
:101F1C007F0012240FE50830E51C053115681568A3
:101F2C00A868760008767F7A007B007C007D7F7E37
:061F3C00007F0012240FDB
:101F4200D007D006D005D004D003D002D001D000F3
:0B1F5200D0D0D082D083D0F0D0E0329D
:0C3343007FFF12334F7FFF12334F7FFFDC
:09334F008FA330FFFDC2FFAFA304
:013358002252
:0A33BA0075A3FF30FFFDC2FFAFA3B3
:0133C40022E6
:022E0F00AE070C
:102E1100E4FB123343123343C2FAEE4440FF123350
:102E21004FAF1CAE1BAD1AAC1978181210931233A8
:102E31004FAF1CAE1BAD1AAC1978101210931233A0
:102E41004FAF1CAE1BAD1AAC197808121093123398
:102E51004FAF1C12334F7F9512334F7FFF12334F09
:0E2E6100BFFF09AE030BEED3946440EFD2FA2C
:012E6F002240
:1021E400E4FEFA75A90375A23BE4FD7FFF12334FA9
:1021F4000DBD64F7E4F51CF51BF51AF519FF122E55
:102204000FAE070AEAD3940A5003BE01DCE4FAE4F1
:10221400F51CF51BF51AF5197F37122E0FAE070AB8
:10222400EAD3946440037F0122BE01E3E4FAF51C7F
:10223400F51BF51AF5197F29122E0FAE070AEAD3FA
:10224400946440037F0122EE70C5EE601FE4FAE45B
:10225400F51CF51BF51AF5197F01122E0FAE070AAE
:10226400EAD3946440037F0122EE70E3E4F51CF5A5
:102274001BF51AF5197F3B122E0FAE07E4F51C75FA
:102284001B02F51AF5197F10122E0F75A201E4F541
:02229400A9FFA0
:012296002225
:082D46008F4D8E4C8D4B8C4A21
:102D4E00E4FA75A903AF4DAE4CAD4BAC4A780912FF
:102D5E0010A68F1C8E1B8D1A8C197F11122E0F0A26
:102D6E00EAD3940A40037F0122EF70D9C2FA1233DC
:102D7E00BABFFEFAE4FDFC1233BA74002DF582746C
:102D8E00003CF583EFF00DBD00010CE4B505E8EC59
:0C2D9E00B402E4123348D2FAE4F5A9FFB5
:012DAA002206
:0829C0008F178E168D158C1483
:1029C800E4FA75A903AF17AE16AD15AC1478091261
:1029D80010A68F1C8E1B8D1A8C197F18122E0FAE05
:1029E800070AEAD3940A40037F0122EE70D7C2FA9D
:1029F8007FFF12334F7FFE12334FFDFC74002DF51D
:102A08008274003CF583E0FF12334F0DBD00010CCA
:102A1800E4B505E8ECB402E4123343AE07EE541F04
:102A280064056003D2FA227FFF12334FEF60F8D2B9
:052A3800FAE4F5A9FF1E
:012A3D002276
:10338000E4F91221E4EF600809E9D3940340F32241
:01339000221A
:10008E00000000182442424242424242241800001C
:10009E00000000107010101010101010107C0000D6
:1000AE000000003C4242420404081020427E000040
:1000BE000000003C42420418040202424438000090
:1000CE00000000040C14242444447E04041E00008A
:1000DE000000007E40404058640202424438000056
:1000EE000000001C24404058644242422418000084
:1000FE000000007E4444080810101010101000007C
:10010E000000003C4242422418244242423C00007D
:10011E000000001824424242261A0202243800002F
:10012E000000001010182828243C444242E700002A
:10013E00000000F8444444784442424244F800002F
:10014E000000003E424280808080804244380000A1
:10015E00000000F8444242424242424244F800004B
:10016E00000000FC424848784848404242FC0000EB
:10017E00000000FC424848784848404040E00000FB
:10018E000000003C44448080808E8444443800004B
:10019E00000000E7424242427E42424242E70000F5
:1001AE000000007C1010101010101010107C0000B9
:1001BE000000003E0808080808080808080888F02B
:1001CE00000000EE444850705048484444EE000091
:1001DE00000000E0404040404040404042FE0000F1
:1001EE00000000EE6C6C6C6C5454545454D60000E9
:1001FE00000000C7626252524A4A4A4646E2000076
:10020E00000000384482828282828282443800005A
:10021E00000000FC424242427C40404040E0000070
:10022E0000000038448282828282B2CA4C380600B4
:10023E00000000FC4242427C4848444442E3000035
:10024E000000003E4242402018040242427C000060
:10025E00000000FE92101010101010101038000048
:10026E00000000E74242424242424242423C00000B
:10027E00000000E7424244242428281810100000F1
:10028E00000000D692929292AAAA6C4444440000B6
:10029E00000000E7422424181818242442E7000026
:1002AE00000000EE444428281010101010380000F2
:1002BE000000007E840408081020204242FC00004A
:1002CE00001E1010101010101010101010101E0024
:1002DE000000404020201010100808040404020200
:1002EE0000780808080808080808080808087800B0
:1002FE00001C2200000000000000000000000000B2
:10030E00000000000000000000000000000000FFE0
:10031E00006010000000000000000000000000005F
:10032E00000000000000003C421E2242423F00003E
:10033E00000000C0404040586442424264580000F1
:10034E00000000000000001C22404040221C000063
:10035E00000000060202021E22424242261B00003C
:10036E00000000000000003C427E4040423C000085
:10037E000000000F1110107E10101010107C0000E5
:10038E00000000000000003E444438403C42423C25
:10039E00000000C04040405C6242424242E7000022
:1003AE00000000303000007010101010107C0000A3
:1003BE000000000C0C00001C040404040404447827
:1003CE00000000C04040404E4850684844EE0000D7
:1003DE00000000701010101010101010107C000093
:1003EE0000000000000000FE4949494949ED0000A7
:1003FE0000000000000000DC6242424242E70000C2
:10040E00000000000000003C42424242423C00001C
:10041E0000000000000000D864424242447840E0F0
:10042E00000000000000001E22424242221E02076F
:10043E0000000000000000EE3220202020F8000016
:10044E00000000000000003E42403C02427C0000E2
:10045E00000000000010107C10101010100C000096
:10046E0000000000000000C642424242463B00002F
:10047E0000000000000000E74224242810100000B5
:10048E0000000000000000D79292AAAA4444000087
:10049E00000000000000006E2418181824760000DA
:1004AE0000000000000000E742242428181010E08D
:1004BE00000000000000007E44081010227E0000A4
:1004CE0000030404040404080404040404040300E4
:1004DE00080808080808080808080808080808088E
:1004EE000060101010101008101010101010600086
:1004FE00304C43000000000000000000000000002F
:10050E0000000000000000000000000000000000DD
:10051E00000000101010101010100000181800002D
:10052E000012362448000000000000000000000009
:10053E00000000242424FE484848FE484848000095
:10054E0000001038545450301814145454381010ED
:10055E0000000044A4A8A8A8541A2A2A2A4400007D
:10056E0000000030484848506EA4948889760000F8
:10057E0000606020C00000000000000000000000CD
:10058E0000020408081010101010100808040200D1
:10059E00004020101008080808080810102040001D
:1005AE00000000001010D63838D6101000000000E1
:1005BE000000000010101010FE10101010000000AF
:1005CE00000000000000000000000000606020C07D
:1005DE0000000000000000007F000000000000008E
:1005EE00000000000000000000000000606000003D
:1005FE0000000102020404080810102020404000F0
:10060E00000000000000181800000000181800007C
:10061E00000000000000001000000000001010207C
:10062E000000000204081020402010080402000000
:10063E00000000000000FE000000FE0000000000B0
:10064E0000000040201008040204081020400000A2
:10065E000000003C42426202040808001818000024
:10066E0000000038445AAAAAAAAAB442443800008C
:10067E00FFFFFFFFFFFFFFFFFFFFFFFFFFFFFFFF7C
:04318F00AD07AC06D6
:10319300ECF52CC2B0C2B1C2B1E4FBED30E704D20E
:1031A300A08002C2A0ED25E0FDEC33FCC2A1D2A1B8
:0631B3000BBB08E7D2B0DF
:0131B90022F3
:09315D00F808E62403FFEE33FE3E
:04316600AD07AC06FF
:10316A00ECF52CC2B0D2B1E4FBED30E704D2A0807A
:10317A0002C2A0ED25E0FDEC33FCC2A1D2A10BBB3B
:04318A0008E7D2B0D0
:01318E00221E
:10000300FFAE03EE33333354F84FFFEE25E0FEC467
:050013003354E04BFD39
:10001800C2B0D2B1E4FEEF25E0FF92A0C2A1D2A106
:100028000EBE08F2D2B1E4FEED25E0FD92A0C2A119
:08003800D2A10EBE08F2D2B005
:01004000229D
:0933C500AD07AC06AF04020018CC
:1016E300D2857F0A7E001232EEC2857F0A7E001207
:1016F30032EED2857F0A7E001232EE7F3A7E0012EE
:10170300318F7F051231667F3612318F7F88123118
:10171300667FFE12318F7FEF12318F7FB412318FCC
:10172300E4FF1231667FFF12318F7F161231667F1D
:10173300FD12318F7F351231667FA412318F7F9670
:101743001231667FE712318F7F941231667F8812E0
:1017530031667FED12318F7F111231667FE41231D2
:101763008F7FC51231667FE212318F7F801231661F
:101773007FA312318F7F121231667FE312318F7F85
:10178300071231667FE512318F7F101231667FF0C9
:1017930012318FE4FF1231667FF112318F7F5512C0
:1017A30031667FF212318F7F071231667FF3123178
:1017B3008F7F521231667FF412318FE4FF1231664C
:1017C3007FF512318FE4FF1231667FF712318F7F7D
:1017D300071231667FF812318F7F221231667FF94B
:1017E30012318F7F771231667FFA12318F7F251284
:1017F30031667FFB12318FE4FF1231667FFC1231B9
:101803008FE4FF1231667F1112318F7FC81232EEDF
:101813007F297E0012318F15681568A86876000845
:10182300767F7A007B007C007D7F7F0012240F751A
:10183300A903C2B0D2B1E4FBFA900000E4FDFF12A9
:101843000018A3E5826480458370F10BBB00010A95
:09185300EB64804A70E3E4F5A99E
:01185C002269
:1023F80015681568A868760008767F7A007B007CE7
:07240800007D7F7E007F00D4
:10240F0015681568A868A60208A60315681568A8B8
:10241F0068A60408A60515681568A868A60608A684
:10242F0007E4F5A97F2AFE12318FA968E7FF123161
:10243F0066A86808E62402123162A8680808A90095
:10244F00E7FF7E00123166A868080808E62402122A
:10245F0031627F2B7E0012318FE5682404F9E7FF8C
:10246F00123166E568240412315DE5682406F9E748
:10247F00FF7E00123166E568240612315D7F2C7EE7
:0E248F000012318F75A903E5682408F5682254
:02312900AC06F2
:10312B008C0BEFF50C1223F8C2B0D2B1E4FB90007C
:10313B0000AD0CAF0B120018A3E5826480458370C1
:10314B00F00BBB00010AEB64804A70E2D2B0E4F5ED
:01315B00A9CA
:01315C002250
:102676001223F8C2B0D2B179F8E4FC7FF8FD12005B
:1026860018E4FB79077CE07F077DE01200180BBB9E
:1026960000010AEB647E4A70EAE4F97C1FFF7D1FA5
:1026A60012001890000079F8E4FC7FF8FD1200187B
:1026B600E4FAFBE4F9FCFFFD1200180BBB00010A6B
:1026C600EB647E4A70EDE4F97C1FFF7D1F12001853
:1026D600A3E582647E458370CD79F8E4FC7FF8FD3E
:1026E600120018E4FAFB79077CE07F077DE0120010
:1026F600180BBB00010AEB647E4A70EAE4FF7D1FFB
:08270600120018E4F5A9D2B09D
:01270E0022A8
:022130008F3DE1
:102132001223F8C2B0D2B1E4754940F548F547F52B
:1021420046AF3DFCFDFEAB49AA48A947A846120F7F
:1021520057EF2401F541E43EF540E43DF53FE43C10
:10216200F53EE5412549F545E5403548F544E53F6D
:102172003547F543E53E3546F542AF45AE44AD43FE
:10218200AC42AB41AA40A93FA83EC3121082504FB5
:10219200AF41AE40AD3FAC3E122D46E4FBFAC3EA7E
:1021A2009402502474002BF58274003AF583E0FF08
:1021B20074012BF58274003AF583E0FD1200187465
:1021C200022BFBE43AFA80D6E5412401F541E435DD
:1021D20040F540E4353FF53FE4353EF53E809BD285
:0121E200B04C
:0121E30022D9
:101349001223F8E4FBE4F50BF50CC3E50B9400500C
:1013590010E4FDFF120018050CE50C70ED050B807B
:10136900E9E4F50BF50CE4F50DF50EE50CAE0B789B
:1013790003C333CE33CED8F9FFE4FD120018050EAE
:10138900E50E7002050DC39404E50D940040DC05DB
:101399000CE50C7002050BC39420E50B940040C6C4
:1013A9000BBB00010AEB64204A709AE4FAFBE4F5EE
:1013B9000BF50CC3E50B94005010E4FDFF12001867
:1013C900050CE50C70ED050B80E9E4F50BF50CE473
:1013D900F50DF50EE50C25E0FDE50B33FCEDAE044E
:1013E9007803CEC313CE13D8F9FFC007EDAE047846
:1013F90005C333CE33CED8F9FDD007120018050E38
:10140900E50E7002050DC39404E50D940040C50571
:101419000CE50C7002050BC39420E50B940040AF5A
:101429000BBB00010AEB64204A7083E4FAFBE4F584
:101439000BF50CC3E50B94005010E4FDFF120018E6
:10144900050CE50C70ED050B80E9E4F50BF50CE4F2
:10145900F50DF50EAD0CE4FF120018050EE50E7042
:1014690002050DC39404E50D940040E8050CE50C54
:101479007002050BC39420E50B940040D20BBB000E
:10148900010AEB64204A70A6E4FAFBE4F50BF50CBB
:10149900C3E50B94005010E4FDFF120018050CE59C
:1014A9000C70ED050B80E9E4F50BF50CE4F50DF591
:1014B9000EE50C25E0FFE50B33FEEF7803CEC313F1
:1014C900CE13D8F9FFAE0CEE33333354F84FFFEE99
:1014D90025E0FEC43354E0450CFD120018050EE565
:1014E9000E7002050DC39404E50D940040C3050C6C
:1014F900E50C7002050BC39420E50B940040AD0B7D
:0C150900BB00010AEB64204A7081D2B0E4
:0115150022B3
:101F5D001223F8E4FBC3EA94005023E4F550F55145
:101F6D00E4FDFF1200180551E55170020550C394B0
:101F7D0080E550940040E90BBB00010A80D7E4FADC
:101F8D00FBE4F54EF54FE4F550F551EBAE02780359
:101F9D00C333CE33CED8F9FFE4FD1200180551E559
:101FAD005170020550C39420E550940040DDE4F5D6
:101FBD0050F551EB25E0FDEA33FCEDAE047803CE90
:101FCD00C313CE13D8F9FFC007EDAE047805C333A4
:101FDD00CE33CED8F9FDD0071200180551E551705A
:101FED00020550C39420E550940040C7E4F550F528
:101FFD0051AD03E4FF1200180551E5517002055073
:10200D00C39420E550940040E8E4F550F551EB25DC
:10201D00E0FFEA33FEEF7803CEC313CE13D8F912E7
:10202D0000030551E55170020550C39420E550940D
:10203D000040DB054FE54F7002054EC39404E54E9D
:10204D0094005003021F930BBB00010AEB64204A5E
:05205D006003021F8E6C
:01206200225B
:10293D001223F8C2B0D296D2B1E4FBC3EA94005090
:10294D0023E4F554F555E4FDFF1200180555E55542
:10295D0070020554C39480E554940040E90BBB000C
:10296D00010A80D7E4FAFBE4F552F553E4F554F58A
:10297D0055EBAE027803C333CE33CED8F9FFE4FD69
:10298D001200180555E55570020554C39480E554A1
:10299D00940040DD0553E55370020552C39404E5E0
:1029AD0052940040C70BBB00010AEB64204A70B77C
:0229BD00D2B096
:0129BF0022F5
:10270F001223F8C2B0D296D2B1E4FBC3EA940050C0
:10271F0023E4F558F559E4FDFF1200180559E55962
:10272F0070020558C39480E558940040E90BBB0034
:10273F00010A80D7E4FAFBE4F556F557E4F558F5AE
:10274F0059EBAE027803CEC313CE13D8F9FFC007EF
:10275F00EBAE027805C333CE33CED8F9FDD00712D6
:10276F0000180559E55970020558C39480E558942F
:10277F000040CE0557E55770020556C39402E55643
:10278F00940040B80BBB00010AEB64404A70A8D21A
:01279F00B089
:0127A0002216
:102CDE001223F8C2B0D296D2B1E4FBC3EA940050EC
:102CEE001BE4F583F582E4FDFF120018A3E5826470
:102CFE0080458370F10BBB00010A80DFE4FAFBE430
:102D0E00F566F567E4F583F582AD03E4FF1200186E
:102D1E00A3E5826480458370F00567E56770020560
:102D2E0066C39404E566940040DA0BBB00010AEB1F
:072D3E0064204A70CAD2B004
:012D4500226B
:1028B8001223F8C2B0D296D2B1E4FBC3EA94005016
:1028C80023E4F55CF55DE4FDFF120018055DE55DA8
:1028D8007002055CC39480E55C940040E90BBB0082
:1028E800010A80D7E4FAFBE4F55AF55BE4F55CF5F8
:1028F8005DEB25E0FFEA33FEEF7803CEC313CE137A
:10290800D8F9120003055DE55D7002055CC394808B
:10291800E55C940040DB055BE55B7002055AC394F7
:1029280004E55A940040C50BBB00010AEB64204A39
:0429380070B5D2B0F4
:01293C002278
:10282D001223F8C2B0D296D2B1E4F55EF55FE4FBA7
:10283D00FAC3EA9400500DE4FDFF1200180BBB0023
:10284D00010A80EDE4FAFBE4F560F561EBAE027888
:10285D0002C333CE33CED8F97803CEC313CE13D8FB
:10286D00F9FFEB25E0FE33333354F84FFFEB25E052
:10287D0025E0C43354E04EFD1200180561E561708A
:10288D00020560C39408E560940040C00BBB0001D5
:10289D000AEB64104A70B0055FE55F7002055EC318
:0A28AD009480E55E94004086D2B0EE
:0128B70022FE
:102B99001223F8C2B0D296D2B1E4F562F563E4FB30
:102BA900FAC3EA9400500DE4FDFF1200180BBB00B4
:102BB900010A80EDE4FAFBE4F564F565EB25E0FF35
:102BC900EA33FEEF7803CEC313CE13D8F91200030C
:102BD9000565E56570020564C39404E564940040E5
:102BE900DB0BBB00010AEB64204A70CB0563E5638C
:0F2BF90070020562C39480E562940040A1D2B0DF
:012C080022A9
:1019AE001223F8E4FBE4F583F582E4FD7FF81200E0
:1019BE0018A3E5826480458370F00BBB00010AEB2F
:1019CE0064104A70E0E4FAFBE4F583F5827DE07F73
:1019DE0007120018A3E5826480458370F00BBB00EC
:1019EE00010AEB64104A70E0E4FAFBE4F583F58239
:1019FE007D1FE4FF120018A3E5826480458370F01A
:101A0E000BBB00010AEB64104A70E0E4FAFBE4F54C
:101A1E0083F5827DE07FFF120018A3E58264804586
:101A2E008370F00BBB00010AEB64104A70E0E4FA1D
:101A3E00FBE4F583F5827D1F7FF8120018A3E58283
:101A4E006480458370F00BBB00010AEB64104A7092
:101A5E00E0E4FAFBE4F583F5827DFF7F07120018C0
:101A6E00A3E5826480458370F00BBB00010AEB6432
:101A7E00104A70E0E4FAFBE4F583F5827DFF7FFF08
:101A8E00120018A3E5826480458370F00BBB000141
:101A9E000AEB64104A70E0E4FAFBE4F583F582E4A5
:101AAE00FDFF120018A3E5826480458370F10BBB25
:101ABE0000010AEB64104A70E1E4FAFBC3EA9400F9
:101ACE00501BE4F583F582E4FDFF120018A3E582B6
:0D1ADE006480458370F10BBB00010A80DFBE
:011AEB0022D8
:102E7000EFC3942050047F5F8050EFC39420400C38
:102E8000EFD3942F5006EF2428FF803EEFC39430F9
:102E9000400CEFD39439500674D02FFF802CEFC331
:102EA000943A400CEFD394405006EF241EFF801A52
:102EB000EFC39441400CEFD3947E5006EF24C9FF3A
:0B2EC0008008EFD3947E40027F5F2269
:10249D00FDE43516FC851A24851B25851C26851D16
:0524AD0027AB19AA187D
:0624B2008F1FAF05AE0410
:1024B800EB240FFDE43A15681568A868F608A60528
:1024C800EF2407FDE43EFC12240FAF1F7E00D3EF7C
:1024D800945FEE940040027F5FEFC4F8540FC86821
:1024E800FFEEC454F048FE7529FF752A00752B8E3F
:1024F800EF252BF52BEE352AF52AE4F528AB29052F
:102508002BE52BAA2A7002052A14F9120EE9FBE41E
:10251800FAEBA802088002C333D8FC30E706AF25DF
:10252800AE248004AF27AE261233C50ABA08E205E6
:0825380028E528C3941040C5FA
:012540002278
:102541008B148A1589168C178D18AB14AA15A91628
:10255100120EE97003D38001C34066AB140516E582
:1025610016AA157002051514F9120EE9FF122E7044
:10257100851B24851C25851D26851E27AB1AAA19B6
:10258100AD18AC171224B2D3E5189477E51794006F
:102591004012E4F517F5187410251AF51AE43519E7
:1025A100F519800B74082518F518E43517F517D3BC
:1025B100E51A946FE51994004090E4F519F51A8035
:1025C1008915681568A868760008767F7A007B000F
:0B25D1007C007D7F7E007F0002240F55
:1025DC008E148F158C168D178A188B19D3E51794BA
:1025EC005FE5169400400675160075175FD3E51964
:1025FC00946FE5189400400CE51924EFF519E518D3
:10260C0034FFF518E514C4540FFF851A24851B25D7
:10261C00851C26851D27AB19AA18AD17AC161224DC
:10262C00B2E514540FFFE517240812249DE514C4D9
:10263C00F854F0C8E515C4540F48540FFFE517249F
:10264C001012249DE515540FFFE517241812249D34
:10265C0015681568A868760008767F7A007B007C80
:0A266C00007D7F7E007F0002240F36
:0E339100C2B0D2B1C2A1D2B0E514FEE515FF64
:01339F00220B
:1031E5008A0B8B0CED2402FBE43C15681568A86876
:1031F500F608A603AB05AA04EF2401FDE43EFC1284
:0A320500240FE50BFFAD0C020018CA
:0C2DAB008E0F8F108C118D128A138B1468
:102DB70015681568A868A61508A616AA13AB14AC5B
:102DC70011AD12AE0FAF1012240FAB14AA13E516F4
:102DD7002401FFE43515FEC3EB9FEA9E50298510B9
:102DE70082850F83E5122401FFE43511FEC3E582D6
:102DF7009FE5839E500AAF18AE171233C5A380E430
:072E07000BBB00010A80C7AC
:012E0E0022A1
:042A3E008E0B8F0C60
:102A4200750D00750E0FC3E50E947FE50D940050D1
:102A520027850D15850E16850B17850C18AB0EAA4A
:102A62000D7D7F7C00E4FFFE122DAB7410250EF568
:102A72000EE4350DF50D80CE750D00750E0FC3E514
:102A82000E947FE50D9400502775150075167F850D
:102A92000B17850C18E4FBFAAD0EAC0DAF0EAE0DA4
:102AA200122DAB7410250EF50EE4350DF50D80CE0A
:012AB2002201
:0833CE005450205445535400F3
:10328600C294C295E4900233F0EF20E704C2B28004
:1032960002D2B2D295EF25E0FFC295900233E00448
:0532A600F0E0B408E4B3
:0132AB002200
:102AB3009002341210E500000000C294D2B3E490F7
:102AC3000233F0900233E0FFC3940C5049C29530B7
:102AD300B33AC3740B9FFF74017E00A807088005F7
:102AE300C333CE33CED8F9FFEE3395E0FDFC90022D
:102AF30034E0F8A3E0F9A3E0FAA3E04FFFEA4EFEC7
:102B0300E94DFDE84CFC9002341210D9D2959002A5
:102B130033E004F080ADD294900234A3A3E0FEA38B
:022B2300E0FFD1
:012B2500228D
:021C2300AB070D
:101C2500E490021AF0A3F0A3F0D2B590021AE0C333
:101C3500940B502C20B529C294EB04FF1232861266
:101C45002AB390021AE025E0241DF582E43402F55A
:101C550083EEF0A3EFF090021AE004F0D29480CB6B
:101C650090021AE07003021D3AE4A3F090021AE014
:101C7500F9A3E0C3994003021D26E4A3F090021BDB
:101C8500E0FF90021AE0C39FFF90021CE0C39F4053
:101C950003021D1DE0FF25E0241FF582E43402F553
:101CA50083E0FCA3E0FDEF25E0241DF582E434028A
:101CB500F583E0FEA3E0D39DEE9C405390021CE02B
:101CC50025E0241DF582E43402F583E0FCA3E0FD64
:101CD500900218ECF0A3EDF0EF25E0241FF582E467
:101CE5003402F583E0FEA3E0FF90021CE0FB25E053
:101CF500241DF582E43402F583EEF0A3EFF0EB2525
:101D0500E0241FF582E43402F583ECF0A3EDF090B6
:101D1500021CE004F0021C8290021BE004F0021C8D
:101D250071E9C31325E0241DF582E43402F583E04F
:081D3500FEA3E0FF22E4FEFF23
:011D3D002283
:101516009002001210E5000000009002041210E58F
:10152600000000009002081210E500000000900282
:101536000C1210E5000000009002101210E50000E9
:1015460000009002141210E500000000E4FFFE12F5
:101556003129D2B520B5FD20B6030216B87F327EFA
:10156600001232EE30B5030216AE7FD0121C23E411
:10157600FCFD9002081210D9900208E0FCA3E0FDE1
:10158600A3E0FEA3E024BDFFEE34FFFEED34FFFD35
:10159600EC34FFFCE47B80FAF9F8120F57E47BA5E4
:1015A6007A02F9F8120FE2E4120D347BB87A1E794A
:1015B60045783F120C2E120D729002001210D97F40
:1015C60090121C23E4FCFD90020C1210D990020C20
:1015D600E0FCA3E0FDA3E0FEA3E024A0FFEE34FFC1
:1015E600FEED34FFFDEC34FFFCE47B80FAF9F812E3
:1015F6000F57E4FB7A03F9F8120FE2E4120D347B7D
:10160600337A337973783F120C2E120D72900204DE
:101616001210D97F0F7E001232EE30B50302156A22
:10162600E4FFFEFDFC900200E0F8A3E0F9A3E0FA77
:10163600A3E0FBC3121082500302156AE47F80FE0A
:10164600FDFC900200E0F8A3A3A3E0121082400381
:1016560002156AE4FFFEFDFC900204E0F8A3E0F93F
:10166600A3E0FAA3E0FBC3121082500302156AE45A
:101676007F80FEFDFC900204E0F8A3A3A3E0121015
:1016860082400302156A900200A3A3E0FEA3E0FFD6
:10169600C006A3A3A3E0FEA3E0FDAC06D0067B0034
:1016A6007AF81231E502156A7F327E001232EE02B6
:1016B600155DE4FFFE1231297FB57EAD122A3E7B11
:1016C600FF7A3379CEE4F519F51AF51BF51C74FF8C
:0D16D600F51DF51EE4FDFC12254102155D19
:1030B7001201100100000040C410000000000102CE
:1030C70003010902200001010080FA09040000023F
:1030D700FF000000070502024000000705820240CA
:0A30E70000000403090401000000CA
:101AEC00900200EEF0A3EFF0900204EBF0A3EAF00A
:101AFC00A3E9F0E4900791F0900791E0FF9030B7E4
:101B0C0093FE74402FF582E43407F583EEF09007D2
:101B1C0091E004F0E0B412E0E4900791F0900791AA
:101B2C00E0FF9030C993FE74522FF582E43407F530
:101B3C0083EEF0900791E004F0E0B420E090020016
:101B4C00E0FEA3E0900748F0EEA3F0A3EDF0ECA3C9
:101B5C00F090077274FFF0A37430F0A374E9F09066
:101B6C000204E0F9A3E0FAA3E0900775C9F0A3EA38
:101B7C00F0A3E9F0900207E0F9A3E0FAA3E09007E4
:101B8C0078C9F0A3EAF0A3E9F090020AE0F9A3E027
:101B9C00FAA3E090077BC9F0A3EAF0A3E9F0900266
:101BAC000DE0FFC394FA500590075AEFF090020E27
:101BBC00E0900759F090020FE0FEA3E090074CF084
:101BCC00EEA3F0E59620E7FB759601759708E59670
:101BDC0020E7FB75960775970FE59620E7FB759642
:101BEC000975970EE59620E7FB75960B75970775AB
:101BFC00D7E01233AEE4900793F0900792F0900781
:101C0C0094F0900786F043E602D2AFE59620E7FB0E
:071C1C007596017597012286
:103238009007867402F0E59620E7FB75960175976E
:1032480001E490078EF0A37403F0A3F0E4900793D1
:07325800F090079204F02240
:10111600E59620E7FB75960EE4F597E59620E7FB46
:10112600759691E59620E7FB90079EE597F0E0FF20
:1011360030E210E59620E7FB759611E4F5979007E7
:101146008EF022EF30E410E59620E7FB75961175D8
:101156009780E490078EF090078EE06003021247B6
:1011660090079EE020E0030212477596204396C042
:10117600E4900791F0E59620E7FB900791E0247E46
:10118600F582E43407F583E597F0900791E004F0E3
:10119600E0B407E1E59620E7FBE4F596900791E0D9
:1011A600247EF582E43407F583E597F0900781E025
:1011B600FE900780E07C002400FFEC3E900795F04F
:1011C600A3EFF0900785E0FE900784E02400FFEC93
:1011D6003E900797F0A3EFF090077FE0B40C005025
:1011E6005D9011EEF82828730212120212170212ED
:1011F6001C02122102124402122602122B0212446F
:1012060002123002123502123A02123F122B2680C7
:1012160030122F25802B1220638026122F7D8021ED
:101226001232CE801C122297801712307080121252
:101236002ECB800D12325F80081233598003123391
:101246000D90078EE06401600302134890079E74B8
:1012560002F0C390078DE0944090078CE094004024
:1012660061E59620E7FB759620E4900791F09007DC
:1012760091E0FFC394405022900787E0FBA3E0FA79
:10128600A3E0F98F82758300120F02F597E5962089
:10129600E7FB900791E004F080D4900788E475F0AE
:1012A60040120F4190078DE024C0F090078CE03487
:1012B600FFF090078BE02440F090078AE03400F0BE
:1012C6008052E59620E7FB759620E4900791F09012
:1012D6000791E0FFD390078DE09F90078CE0940084
:1012E6004026900787E0FBA3E0FAA3E0F990079178
:1012F600E0F582758300120F02F597E59620E7FB6D
:10130600900791E004F080C790079EE04408F0E45F
:1013160090078EF0900797E0FEA3E0FF90078AE023
:10132600B50611A3E0B5070C90079EE04408F0E46B
:1013360090078EF0E59620E7FB75961190079EE0E4
:03134600F59722F6
:10330D00E59620E7FB75960EE4F597E59620E7FB2D
:0D331D0075961175972090078E7404F022AC
:102B260090077EE0247F60071460062402704880C8
:102B36002D90078FE0B40309900782E0B40202806B
:102B46000E900790E0B40316900782E0B4820F90CF
:102B5600078774FFF0A37430F0A374ED800D90071F
:102B66008774FFF0A37430F0A374EFF090078CE441
:102B7600F0A37402F0800312330D90078EE0640414
:102B8600601012335990078E7401F0E490078AF0B2
:032B9600A3F02287
:102F2500900780E07041900782E0B4021DE596208D
:102F3500E7FB75960E759702E59620E7FB759614E7
:102F4500759780E490078FF08020E59620E7FB7564
:102F5500960E759702E59620E7FB759611759740D5
:102F6500E4900790F0800312330DE59620E7FB759A
:082F7500960EE4F597023359B2
:10206300900796E020E0030220F9900794E030E027
:102073000854FEF04402F08007900794E054FDF00A
:10208300E59620E7FB75960E759702E59620E7FB2C
:10209300759614759710E59620E7FB75961175975D
:1020A30008E59620E7FB759694E59620E7FB9007F5
:1020B3009DE597F0E020E4E9E59620E7FB759614AB
:1020C300759710E59620E7FB759691E59620E7FB5B
:1020D30090079DE597F0E020E3E9E59620E7FB759F
:1020E30096117597089007927408F0900794E0FF93
:1020F30030E1034401F0900795E0FCA3E0FD30E1FB
:102103000D9007867406F0900792E04410F0ED30CE
:10211300E20D9007867404F0900792E04420F0E506
:0D2123009620E7FB75960EE4F59702335900
:102F7D00900780E07040900782E0B4021BE5962038
:102F8D00E7FB75960E759702E59620E7FB7596148F
:102F9D0075972090078F8019E59620E7FB75960EA3
:102FAD00759702E59620E7FB7596117597109007BA
:102FBD00907403F0800312330DE59620E7FB7596B0
:072FCD000EE4F597023359F1
:1032CE00E59620E7FBE4F596900780E0FFF597EF93
:1032DE0090078660057403F080037402F002335980
:10229700900781E024FE601B14603B240270699064
:1022A70007877401F0A37407F0A37440F090074008
:1022B700E0804A9007877401F0A37407F0A3745273
:1022C700F0900755E0FE900754E07C002400FFECF7
:1022D7003E90078C802C900780E075F003A4247251
:1022E700F582E43407F583E0FBA3E0FAA3E0F99075
:1022F7000787EBF0A3EAF0A3E9F0120EE9FF9007D6
:102307008CE4F0A3EFF0800312330D90078CE0FE0E
:10231700A3E0FF900797E0FCA3E0FDC39FEC9E506E
:102327000890078CECF0A3EDF090078EE064046052
:102337001012335990078E7401F0E490078AF0A3C6
:02234700F02282
:10307000900786E0FFB40414A374FFF0A37430F04B
:10308000A374EDF090078CE4F0A304F0EFB4031602
:1030900090078774FFF0A37430F0A374EFF09007EB
:1030A0008CE4F0A304F012335990078E7401F0E41D
:0730B00090078AF0A3F02253
:102ECB00900780E0D394004042900792E04440F09A
:102EDB009007867404F0E490078FF0A3F0E596203A
:102EEB00E7FB75960E759702E59620E7FB75961234
:102EFB00759784E59620E7FB759615759780E59693
:102F0B0020E7FB75960EE4F597800C90078674030B
:0A2F1B00F090078FF0A3F002335985
:10325F0090078774FFF0A37430F0A374EFF090071A
:10326F008CE4F0A304F012335990078E7401F0E44C
:07327F0090078AF0A3F02282
:1033590090078EE06404600BE59620E7FB759611F3
:0433690075974022F2
:0300430002185D43
:10185D00C0E0C0F0C083C082C0D075D000C000C051
:10186D0001C002C003C004C005C006C0079007A197
:10187D00E596F0E59620E7FB75968EE59620E7FB5D
:10188D009007A2E597F0E59620E7FB759686E5961D
:10189D0020E7FB900799E597F0E030E30BE5962004
:1018AD00E7FB75960B759707900799E030E20312E9
:1018BD003238900799E030E014900786E0FF640419
:1018CD006004EFB40607900792E04480F0E596209F
:1018DD00E7FB759682E59620E7FB900799E597F073
:1018ED00E030E003121116900799E030E22AE596F8
:1018FD0020E7FB75960E759702E59620E7FB75962A
:10190D0091E59620E7FB90079AE597F0E054037078
:10191D0007900792E04402F0E59620E7FB75968468
:10192D00E59620E7FB900799E597F0E030E229E591
:10193D009620E7FB75960E759702E59620E7FB75E9
:10194D009694E59620E7FB90079AE597F0E030E056
:10195D0007900792E04404F0E59620E7FB75960E9C
:10196D009007A2E0F597E59620E7FB9007A1E59695
:10197D00F0E59620E7FB900794E030E009900792A0
:10198D00E060031232ACD007D006D005D004D003EE
:10199D00D002D001D000D0D0D082D083D0F0D0E012
:0119AD003207
:1030F100E5B964E0602E53A90FC0A943B280E5A9E8
:103101005407D394014003E4F5A9E4F5B943B98028
:10311100E4D5E0FD43B9C0E5B930E5FBD0E0B40248
:083121000343A90253A90F2288
:1031BA0053D7BF43C910E5A95402900791F043B20F
:1031CA008075A910E4F5B943B220001230F19007D6
:0B31DA0091E042A953C9EF43D7402207
:0E33A000900792E0FFE4F022900792E0FF22F7
:10234900900786E0B40606EDD3944040037F00224F
:10235900E59620E7FB75960E759702E59620E7FB53
:10236900759694E59620E7FB90079CE597F0E020A9
:10237900E0030223F5E59620E7FB759696E596209E
:10238900E7FB900793E597F0E0FFEDC39F5006AE9A
:1023990005AF068000900793EFF053E6FDE5962020
:1023A900E7FB7596E2900793E06025FEEB60063047
:1023B900E70F7F0022E59620E7FBA79709DEF68065
:1023C9000F89828A83E59620E7FBE597F0A3DEF57E
:1023D900E59620E7FBE4F596E59620E7FB7596146C
:0F23E900E4F59743E602900793E0FF227F00227E
:101D3E00900786E0B4060DED4C6009D3ED9400ECEF
:101D4E0094104004E4FEFF2253E6FDE490079FF05A
:101D5E00A3F090079BF089828A83C083C08290078C
:101D6E009BE030E003021E3FE59620E7FB75960EE2
:101D7E00759702E59620E7FB759691E59620E7FBB1
:101D8E0090079BE597F0E030E020E59620E7FB75A5
:101D9E00960EE4F597E59620E7FB759691E596206D
:101DAE00E7FB90079BE597F080B4C3ED9440EC946D
:101DBE00009007A0E0401B2440F090079FE0340005
:101DCE00F074C02DFD74FF3CFCE490079BF078404E
:101DDE0080132DF090079FE03CF090079B7401F06C
:101DEE00A805E4FCFDE59620E7FB759622D082D08F
:101DFE0083E8602BEB601130E71AE59620E7FBE4F1
:101E0E0093F597A3D8F48017E59620E7FB879709FB
:101E1E00D8F6800BE59620E7FBE0F597A3D8F5C042
:101E2E0083C082E59620E7FB759611759701021D1A
:101E3E006CD082D08343E60290079FE0FEA3E0FFC2
:011E4E002271
:10332A00900794E04401F0900792E0600BE5962044
:09333A00E7FB75960B75970F2255
:0C33AE00E59620E7FB75960F75978922C5
:1032AC00D007D007D007D006D005D004D003D00269
:1032BC00D001D000D0D0D082D083D0F0D0E00200AA
:0232CC008B2253
:100C2E00EC4D6011E8497017ED33EC3304600DE4C0
:100C3E00FCFFFEFD22E933E8330470F8020DDE12EC
:100C4E000DA958046009E4CC2481500628500902ED
:100C5E000DE8284003020DE5C0E0EB4A7044B98070
:100C6E0006D0E0FB020DD4EF4E701CBD8008EBFFEA
:100C7E00EAFEE9FD80EBE98DF0A4FEE5F0020D172A
:100C8E00E9CDF9EAFEEBFFEF89F0A4FCE5F0CE89A1
:100C9E00F0A42EFFE435F0CD89F0A42DFEE435F05E
:100CAE008067EF4E7005BD80D780C3EF8BF0A4AC8C
:100CBE00F0EE8BF0A42CFCE435F0F8EF8AF0A42CC7
:100CCE00E5F038FCE433CB8DF0A42CFCE5F03BF8DA
:100CDE00EE8AF0A42CFCE5F038F8E433CF89F0A4CA
:100CEE002CFCE5F038CF3400CE89F0A42FFFE5F0D0
:100CFE003EFEE433C98DF0A42EFEE5F039CD8AF028
:100D0E00A42FFFE5F03EFEE43DFD33D0E0FB50079F
:100D1E000BBB000F020DE8EC2CFCEF33FFEE33FEA5
:060D2E00ED33FD020DC0D3
:100D340075F020800E75F010800575F0087D007E3A
:100D4400007F003392D530D503121074EC33401079
:100D5400EF33FFEE33FEED33FDEC33FCD5F0ED2243
:0E0D6400E5F0247EA2D513CC92E7CDCEFF227F
:100D7200EDD2E7CD33EC3392D524814006E4FFFE79
:100D8200FDFC22FCE4CFCECDCC24E0501174FF80D8
:100D9200EDC3CC13CCCD13CDCE13CECF13CF047075
:070DA200F030D5DE021074F1
:100DA900E9D2E7C933E833F892D5EDD2E7CD33EC90
:070DB90033FC5002B2D52209
:100DC000EC30E7100FBF000C0EBE00080DBD000494
:100DD0000BEB6014A2D5EB13FCED92E7FD2274FF40
:100DE000FCFDFEFF22E480F8A2D574FF13FC7D8099
:030DF000E480EFAD
:030000000227A133
:0C27A100787FE4F6D8FD7581680227E817
:100DF300E709F608DFFA8046E709F208DFFA803EE2
:100E030088828C83E709F0A3DFFA8032E309F608CE
:100E1300DFFA8078E309F208DFFA807088828C8336
:100E2300E309F0A3DFFA806489828A83E0A3F608EA
:100E3300DFFA805889828A83E0A3F208DFFA804CC4
:100E430080D280FA80C680D4806980F2803380109B
:100E530080A680EA809A80A880DA80E280CA803304
:100E630089828A83ECFAE493A3C8C582C8CCC5837C
:100E7300CCF0A3C8C582C8CCC583CCDFE9DEE7804C
:100E83000D89828A83E493A3F608DFF9ECFAA9F0CB
:100E9300EDFB2289828A83ECFAE0A3C8C582C8CC21
:100EA300C583CCF0A3C8C582C8CCC583CCDFEADE3A
:100EB300E880DB89828A83E493A3F208DFF980CC9C
:100EC30088F0EF60010E4E60C388F0ED2402B40495
:100ED3000050B9F582EB2402B4040050AF2323453C
:060EE3008223900E437310
:100EE900BB010689828A83E0225002E722BBFE0207
:090EF900E32289828A83E493223A
:100F0200BB010CE58229F582E5833AF583E02250A4
:100F120006E92582F8E622BBFE06E92582F8E222EE
:0D0F2200E58229F582E5833AF583E4932208
:100F2F00EF8DF0A4A8F0CF8CF0A428CE8DF0A42ED6
:020F3F00FE2290
:100F4100C5F0F8A3E028F0C5F0F8E582158270023B
:060F51001583E038F022D8
:100F5700E88FF0A4CC8BF0A42CFCE98EF0A42CFC39
:100F67008AF0EDA42CFCEA8EF0A4CDA8F08BF0A4B7
:100F77002DCC3825F0FDE98FF0A42CCD35F0FCEB16
:100F87008EF0A4FEA9F0EB8FF0A4CFC5F02ECD39DB
:0F0F9700FEE43CFCEAA42DCE35F0FDE43CFC2248
:100FA60075F008758200EF2FFFEE33FECD33CDCC02
:100FB60033CCC58233C5829BED9AEC99E582984085
:100FC6000CF582EE9BFEED9AFDEC99FC0FD5F0D662
:100FD600E4CEFBE4CDFAE4CCF9A88222B800C1B98C
:100FE6000059BA002DEC8BF084CFCECDFCE5F0CBCA
:100FF600F97818EF2FFFEE33FEED33FDEC33FCEB03
:1010060033FB10D703994004EB99FB0FD8E5E4F9BD
:10101600FA227818EF2FFFEE33FEED33FDEC33FCAA
:10102600C933C910D7059BE99A4007EC9BFCE99A9E
:10103600F90FD8E0E4C9FAE4CCFB2275F010EF2FE3
:10104600FFEE33FEED33FDCC33CCC833C810D707E3
:101056009BEC9AE899400AED9BFDEC9AFCE899F81E
:0E1066000FD5F0DAE4CDFBE4CCFAE4C8F922B1
:0E107400C3E49FFFE49EFEE49DFDE49CFC228D
:10108200EB9FF5F0EA9E42F0E99D42F0E89C45F0C4
:01109200223B
:10109300E8600FECC313FCED13FDEE13FEEF13FF3B
:0310A300D8F1225F
:1010A600E8600FEFC333FFEE33FEED33FDEC33FCA8
:0310B600D8F1224C
:1010B9007401FF3395E0FEFDFC080808E6CF2FF622
:1010C90018E6CE3EF618E6CD3DF618E6CC3CF622FB
:0C10D900ECF0A3EDF0A3EEF0A3EFF0228A
:1010E500A8828583F0D083D0821210FC1210FC12E6
:1010F50010FC1210FCE473E493A3C583C5F0C5830B
:10110500C8C582C8F0A3C583C5F0C583C8C582C854
:0111150022B7
:1027AD00022C75E493A3F8E493A34003F68001F2A1
:1027BD0008DFF48029E493A3F85407240CC8C3332D
:1027CD00C4540F4420C8834004F456800146F6DFFC
:1027DD00E4800B010204081020408090320FE47E4B
:1027ED00019360BCA3FF543F30E509541FFEE493F1
:1027FD00A360010ECF54C025E060A840B8E493A3B8
:10280D00FAE493A3F8E493A3C8C582C8CAC583CAE2
:10281D00F0A3C8C582C8CAC583CADFE9DEE780BE9A
:013237000096
:00000001FF
