:103627005553422044454255470055534220524581
:1036370041440010C4EA611A03530069006C006931
:103647000063006F006E0020004C00610062007391
:10365700001003550053004200200041005000496C
:10366700000A0343003500310046000F80010001C6
:1037DC00810000810700810C00810E00810F0081A7
:1037EC000D008104008205000084080000000181A6
:0837FC0001AA8102558103FFBF
:1038340012334C30B620122A95123580121B5C12BA
:103844003580122C7D123580E4FFFE1200461235BD
:07385400801219BC80DD2287
:10391100E4FDFCC3ED9FEC9E5014E4FBFA0BBB00ED
:0E392100010AEBF44A70F60DBD00010C80E5C2
:01392F002275
:043580007F057E0045
:073584007853EEF208EFF2AC
:10358B00E408F208F230B721E4FFFED37854E29F4F
:10359B0018E29E401EE4FDFC0DBD00010CEDF44C49
:1035AB0070F60FBF00010E80E21239A67F147E0069
:1035BB001239117856E22401F218E23400F2C308F2
:0935CB00E2946418E2940040BC93
:0135D40022D4
:1039A60030B60512008E80F87FF47E011239113090
:0339B600B6FD2239
:10008E00785B7C007DFE7BFF7A3679767E007F0181
:10009E00120F2F7807E2700302026E78577401F286
:1000AE007857E2FFC39410507BEF25E025E024CD76
:1000BE00F582E43402F583E07028E2FD25E025E0C8
:1000CE0024CEF582E43402F583E0FEED25E025E052
:1000DE0024CFF582E43402F583E0FDEDFF1237AD57
:1000EE00803A7857E225E025E024CDF582E434020B
:1000FE00F583E0B40126E2FD25E025E024CEF5826D
:10010E00E43402F583E0FEED25E025E024CFF58210
:10011E00E43402F583E0FDEDFF12377E7857E204FA
:10012E00F20200AE0000000000000000000000001F
:10013E0000000000000000007BFF7A367927E4788B
:10014E0061F208F208F208F274FF08F208F2E4FD18
:10015E00FC122D189002D0E020E0030202537857D3
:10016E007401F27857E2FFC394104003020253EF7A
:10017E0025E025E024CDF582E43402F583E07055C8
:10018E00E2FD25E025E024CEF582E43402F583E09D
:10019E00FEED25E025E024CFF582E43402F583E080
:1001AE00FDEDFFE2FB25E025E024D0F582E43402EC
:1001BE00F583E075F024A4FDACF0EB75F011A4FB13
:1001CE00AAF078627407F20874E0F2E408F208F21A
:1001DE0012288180687857E2FB25E025E024CDF5D2
:1001EE0082E43402F583E064017052E2FD25E025DD
:1001FE00E024CEF582E43402F583E0FEED25E02521
:10020E00E024CFF582E43402F583E0FDEDFFEB252B
:10021E00E025E024D0F582E43402F583E075F02485
:10022E00A4FDACF0EB75F011A4FBAAF07862E4F239
:10023E0008741FF274FF08F208F21228817857E250
:10024E0004F2020171000000000000000000000036
:10025E00000000000000000000E47807F20200A198
:10026E00780DE2700302033AE47857F27857E2C34E
:10027E0094404003020327C2B0D2B1E2FE24CDF572
:10028E0082E43402F583E0FF74CE2EF582E434026C
:10029E00F583E0FD123716D2B07857E2FF24CDF584
:1002AE0082E43402F583E0FE780508E2FD2401F2D3
:1002BE0018E2FC3400F274752DF58274003CF5835F
:1002CE00EEF074CE2FF582E43402F583E0FF08E2FF
:1002DE00FD2401F218E2FC3400F274752DF58274DF
:1002EE00003CF583EFF008E2B4002518E2B40220DA
:1002FE0078081211251230FE7804E2900075F07F16
:10030E00007E007D007C001230FEE47805F208F2DB
:10031E007857E22402F202027AE4780DF27BFE7A3A
:10032E0000795B7D01FC12243802026E7800E270C7
:10033E00030204479002D0E070030203FD78577465
:10034E0004F27857E2C394244003020434C2B0D2BC
:10035E00B1E2FE24CDF582E43402F583E0FF74CEE3
:10036E002EF582E43402F583E0FD123716D2B07812
:10037E0057E2FF24CDF582E43402F583E0FE7805E2
:10038E0008E2FD2401F218E2FC3400F274752DF53A
:10039E008274003CF583EEF074CE2FF582E43402C5
:1003AE00F583E0FF08E2FD2401F218E2FC3400F2CE
:1003BE0074752DF58274003CF583EFF008E2B400FD
:1003CE002518E2B4022078081211251230FE7804A6
:1003DE00E2900075F07F007E007D007C001230FE02
:1003EE00E47805F208F27857E22402F2020350781C
:1003FE00577404F27857E2C39424502AC2B0D2B193
:10040E00E2FE24CDF582E43402F583E0FF74CE2EB5
:10041E00F582E43402F583E0FD123716D2B0785738
:10042E00E22402F280CEE47800F27BFE7A00795B61
:10043E007D01FC12243802033A780FE270030204A5
:10044E00FE78577404F27857E2FFC39424400302F7
:10045E0004EB74CD2FF582E43402F583E07020E2D4
:10046E00FD24CEF582E43402F583E0FE74CF2DF543
:10047E0082E43402F583E0FDEDFF1237AD8055784E
:10048E0057E224CDF582E43402F583E0B40120E294
:10049E00FD24CEF582E43402F583E0FE74CF2DF513
:1004AE0082E43402F583E0FDEDFF12377E8025787D
:1004BE0057E224CDF582E43402F583E06410701423
:1004CE00000000000000000000000000000000001E
:1004DE00000000007857E22404F2020454E4780F7E
:1004EE00F27BFE7A00795B7D01FC12243802044710
:1004FE00780CE27003020653E47857F27857E2FF65
:10050E00C39418501174752FF582E43402F583E408
:10051E00F0E204F280E69002D4E025E0785AF29000
:10052E0002D2E0FEA3E0FDEE7858F2ED08F2900262
:10053E00D1E06401703C18E2FE08E2FF1237ADE430
:10054E007857F2785AE2FF7857E2C39F5024123957
:10055E007C7857E2FD2475F582E43402F583E4F0ED
:10056E0074762DF582E43402F583EFF0E22402F284
:10057E0080D1E4780CF27B017A027975785AE2FD2B
:10058E007C001224387F647E001239117BFF7A368C
:10059E007931E47861F208F208F208F274FF08F299
:1005AE0008F2E4FDFC122D189002D0E020E00302C8
:1005BE0004FE9002D5E075F024A4FDACF07858E26C
:1005CE00FE08E2FF78627407F20874E0F2E408F2C3
:1005DE0008F27B11FA122881E47857F2785AE2FF7A
:1005EE007857E2F9C39F40030204FE9002D5E075EE
:1005FE00F024A4FDACF0C004C005E9C3132402FF2F
:10060E00E433FE7C007D11120F9BAA06AB077475B6
:10061E0029F582E43402F583E0FE747629F582E44E
:10062E003402F583E0FDEDFF7862E4F208741FF208
:10063E0074FF08F208F2D005D0041228817857E230
:10064E002402F28097780EE26041E47857F27857F0
:10065E00E2FFC394405011748D2FF582E43402F5FD
:10066E0083E4F0E204F280E690028D7401F0A3744C
:10067E0040F0E4A3F0A374F0F0E4780EF27B017A7C
:0B068E0002798D7D40FC12243880BAF8
:01069900223E
:1036BE0053D9BF75B283E4F5B943B980FF0FEFB4A8
:1036CE00FFFB43B9C0E5B930E5FBE4F5A943EF02D2
:1036DE0075F1FF75A4FF75A5FF75F2FF75A6FF7551
:1036EE00AEFF75F4FF43A717C286C28743E10243BC
:0236FE00E240A8
:0137000022A6
:10334C001236BE12374290363AE493FE740193FF64
:10335C0090363CE493FC740193FD90027C74FFF076
:10336C00A37436F0A37458F0A374FFF0A37436F072
:10337C00A37468F0903672E493900282F0903673E6
:10338C00E493900283F0903674E493FB7401939071
:10339C000284CBF0A3EBF07BFF7A36793E1220BC93
:0C33AC0012394D75A17075F80F02160261
:03003D000238097D
:03008B00021F7FD2
:101F7F00C0E0C0F0C083C082C0D075D000C000C028
:0D1F8F0001C002C003C004C005C006C007A9
:101F9C001239CA7851EFF220E2030220467B017A13
:101FAC000279CD7D401229E67801E2FF9002CDE066
:101FBC00FEB5071408E2FDA3E0B5050C08E2FDA38D
:101FCC00E0B505047807806F7803E2FDB5061318B9
:101FDC00E2FE9002CEE0B50609A3E0B50704780C4A
:101FEC0080557802E2FF9002CDE0B5071118E2FEB1
:101FFC00A3E0B50609A3E0B50504780E8039780195
:10200C00E2FE9002CDE0FDB506127803E2FCA3E0FF
:10201C00B50409A3E0B507047800801B7803E2B58A
:10202C0005139002CEE0B5060C18E2FFA3E0B5074D
:10203C0004780F8002780D7401F27851E230E703D6
:10204C0012003D7851E230E6031236BE7851E23090
:10205C00E41C15081508A8087401F208743FF27AFC
:10206C00007B007C007DEF7E007F00122BFB785103
:10207C00E230E5217804E204F215081508A808748A
:10208C0001F208743FF27A007B007C007DEF7E0049
:05209C007F00122BFB88
:1020A100D007D006D005D004D003D002D001D00093
:0B20B100D0D0D082D083D0F0D0E0323D
:0C3966007FFF1239727FFF1239727FFF61
:093972008FA330FFFDC2FFAFA3DB
:01397B002229
:0A39E40075A3FF30FFFDC2FFAFA383
:0139EE0022B6
:0231F100AE0727
:1031F300E4FB123966123966C2FAEE4440FF123913
:10320300727861E2FC08E2FD08E2FE08E2FF78184A
:103213001210FF1239727861E2FC08E2FD08E2FE47
:1032230008E2FF78101210FF1239727861E2FC088D
:10323300E2FD08E2FE08E2FF78081210FF1239727D
:103243007861080808E2FF1239727F951239727F9C
:10325300FF123972BFFF09AE030BEED3946440EF44
:02326300D2FA9D
:013265002246
:1027CA00E4FEFA75A90375A23BE4FD7FFF12397294
:1027DA000DEDB464F6786112118E00000000E4FF7A
:1027EA001231F1AE070AEAD3940A5004EEB401D9C1
:1027FA00E4FA786112118E000000007F371231F17D
:10280A00AE070AEAD3946440037F0122EEB401E2E0
:10281A00E4FA786112118E000000007F291231F16A
:10282A00AE070AEAD3946440037F0122EE70C3EE36
:10283A00601FE4FA786112118E000000007F011215
:10284A0031F1AE070AEAD3946440037F0122EE70A5
:10285A00E3786112118E000000007F3B1231F1AE65
:10286A0007786112118E000002007F101231F17593
:06287A00A201E4F5A9FF34
:012880002235
:0533B800781012115114
:1033BD00E4FA75A9037810E2FC08E2FD08E2FE08C4
:1033CD00E2FF780912111278611211517F11123139
:1033DD00F10AEAD3940A40037F0122EF70D7C2FAB3
:1033ED001239E4BFFEFAE4FDFC1239E474752DF5D3
:1033FD008274003CF583EFF00DBD00010CE4B505C2
:0E340D00E8ECB402E412396BD2FAE4F5A9FF40
:01341B00228E
:0530FE00785C12115185
:10310300E4FA75A903785CE2FC08E2FD08E2FE0834
:10311300E2FF780912111278611211517F181231EE
:10312300F1AE070AEAD3940A40037F0122EE70D579
:10313300C2FA7FFF1239727FFE123972FDFC747579
:103143002DF58274003CF583E0FF1239720DBD004A
:10315300010CE4B505E8ECB402E4123966AE07EEFF
:10316300541F64056003D2FA227FFF123972EF60A5
:07317300F8D2FAE4F5A9FF10
:01317A002232
:1039B900E4F91227CAEF600809E9D3940340F32216
:0139C90022DB
:10069A00000000182442424242424242241800000A
:1006AA00000000107010101010101010107C0000C4
:1006BA000000003C4242420404081020427E00002E
:1006CA000000003C4242041804020242443800007E
:1006DA00000000040C14242444447E04041E000078
:1006EA000000007E40404058640202424438000044
:1006FA000000001C24404058644242422418000072
:10070A000000007E44440808101010101010000069
:10071A000000003C4242422418244242423C00006B
:10072A000000001824424242261A0202243800001D
:10073A000000001010182828243C444242E7000018
:10074A00000000F8444444784442424244F800001D
:10075A000000003E4242808080808042443800008F
:10076A00000000F8444242424242424244F8000039
:10077A00000000FC424848784848404242FC0000D9
:10078A00000000FC424848784848404040E00000E9
:10079A000000003C44448080808E84444438000039
:1007AA00000000E7424242427E42424242E70000E3
:1007BA000000007C1010101010101010107C0000A7
:1007CA000000003E0808080808080808080888F019
:1007DA00000000EE444850705048484444EE00007F
:1007EA00000000E0404040404040404042FE0000DF
:1007FA00000000EE6C6C6C6C5454545454D60000D7
:10080A00000000C7626252524A4A4A4646E2000063
:10081A000000003844828282828282824438000048
:10082A00000000FC424242427C40404040E000005E
:10083A0000000038448282828282B2CA4C380600A2
:10084A00000000FC4242427C4848444442E3000023
:10085A000000003E4242402018040242427C00004E
:10086A00000000FE92101010101010101038000036
:10087A00000000E74242424242424242423C0000F9
:10088A00000000E7424244242428281810100000DF
:10089A00000000D692929292AAAA6C4444440000A4
:1008AA00000000E7422424181818242442E7000014
:1008BA00000000EE444428281010101010380000E0
:1008CA000000007E840408081020204242FC000038
:1008DA00001E1010101010101010101010101E0012
:1008EA0000004040202010101008080404040202EE
:1008FA00007808080808080808080808080878009E
:10090A00001C22000000000000000000000000009F
:10091A00000000000000000000000000000000FFCE
:10092A00006010000000000000000000000000004D
:10093A00000000000000003C421E2242423F00002C
:10094A00000000C0404040586442424264580000DF
:10095A00000000000000001C22404040221C000051
:10096A00000000060202021E22424242261B00002A
:10097A00000000000000003C427E4040423C000073
:10098A000000000F1110107E10101010107C0000D3
:10099A00000000000000003E444438403C42423C13
:1009AA00000000C04040405C6242424242E7000010
:1009BA00000000303000007010101010107C000091
:1009CA000000000C0C00001C040404040404447815
:1009DA00000000C04040404E4850684844EE0000C5
:1009EA00000000701010101010101010107C000081
:1009FA0000000000000000FE4949494949ED000095
:100A0A0000000000000000DC6242424242E70000AF
:100A1A00000000000000003C42424242423C00000A
:100A2A0000000000000000D864424242447840E0DE
:100A3A00000000000000001E22424242221E02075D
:100A4A0000000000000000EE3220202020F8000004
:100A5A00000000000000003E42403C02427C0000D0
:100A6A00000000000010107C10101010100C000084
:100A7A0000000000000000C642424242463B00001D
:100A8A0000000000000000E74224242810100000A3
:100A9A0000000000000000D79292AAAA4444000075
:100AAA00000000000000006E2418181824760000C8
:100ABA0000000000000000E742242428181010E07B
:100ACA00000000000000007E44081010227E000092
:100ADA0000030404040404080404040404040300D2
:100AEA00080808080808080808080808080808087C
:100AFA000060101010101008101010101010600074
:100B0A00304C43000000000000000000000000001C
:100B1A0000000000000000000000000000000000CB
:100B2A00000000101010101010100000181800001B
:100B3A0000123624480000000000000000000000F7
:100B4A00000000242424FE484848FE484848000083
:100B5A0000001038545450301814145454381010DB
:100B6A0000000044A4A8A8A8541A2A2A2A4400006B
:100B7A0000000030484848506EA4948889760000E6
:100B8A0000606020C00000000000000000000000BB
:100B9A0000020408081010101010100808040200BF
:100BAA00004020101008080808080810102040000B
:100BBA00000000001010D63838D6101000000000CF
:100BCA000000000010101010FE101010100000009D
:100BDA00000000000000000000000000606020C06B
:100BEA0000000000000000007F000000000000007C
:100BFA00000000000000000000000000606000002B
:100C0A0000000102020404080810102020404000DD
:100C1A00000000000000181800000000181800006A
:100C2A00000000000000001000000000001010206A
:100C3A0000000002040810204020100804020000EE
:100C4A00000000000000FE000000FE00000000009E
:100C5A000000004020100804020408102040000090
:100C6A000000003C42426202040808001818000012
:100C7A0000000038445AAAAAAAAAB442443800007A
:100C8A00FFFFFFFFFFFFFFFFFFFFFFFFFFFFFFFF6A
:04380400824F0000EF
:041E3D00785CEFF2EC
:101E4100ED64044C6003021F7575A6FFE2FFC2B08A
:101E5100C2B1E4FDC2A1EF30E704D2A08002C2A06A
:101E6100D2A1EF25E0FF0DEDB408E975A6FEEB6404
:101E7100016005EB6403702AE4FDC2A1D287D2A000
:101E8100785EE225E0FF18E233FEA2A0E433F5829A
:101E9100EEF2EF458208F2C287D2A10DEDB409DA64
:101EA1008032EB64026005EB64047028E4FDC2A19A
:101EB100D287D2A0785EE225E0FF18E233FEA2A02D
:101EC100E433F582EEF2EF458208F2C287D2A10D2A
:101ED100EDB410DAE4FDC2A1D287D2A07860E22588
:101EE100E0FF18E233FEA2A0E433F582EEF2EF4503
:101EF1008208F2C287D2A10DEDB408DAE4FDC2A1D5
:101F0100D287D2A0E925E0FFA2A0E4334FF9C2872E
:101F1100D2A10DEDB408E7E4FDC2A1D287D2A07829
:101F210063E225E0FFA2A0E4334FF2C287D2A10D04
:101F3100EDB408E575A6FFC287D296D2B1D2A1D27F
:101F4100A0D2B0EBB40112785EE2FE08E24EFF08C7
:101F5100E208CFF208EFF2801BEB6402600AEBB4F7
:101F610003028004EBB4040C7860E2FEE9FDEE08A4
:0D1F7100F2ED08F2C2877861E2FE08E2FF9F
:011F7E002240
:0437AD00AD07AC06B2
:1037B100EC7874F2C2B0C2A0C2A1D2A1E4FBED3098
:1037C100E704D2A08002C2A0ED25E0FDEC33FCC2EB
:0A37D100A1D2A10BEBB408E6D2B0C0
:0137DB0022CB
:04377A00F808E2FF6A
:04377E00AD07AC06E1
:10378200EC7874F2C2B0D2A0C2A1D2A1E4FBED30B7
:10379200E704D2A08002C2A0ED25E0FDEC33FCC21A
:0A37A200A1D2A10BEBB408E6D2B0EF
:0137AC0022FA
:10370100FFAE03EE33333354F84FFFEE25E0FEC432
:053711003354E04BFD04
:10371600C2B0D2A0D2B1C2A1D2A1E4FEEF25E0FF91
:1037260092A0ED25E0FD92B1C2A100000000D2A159
:0B373600000000000EEEB408E3D2B06B
:013741002265
:0939EF00AD07AC06ECFF0237162F
:1016020012397CD2857F967E00123911C2857F788D
:101612007E00123911D2857F967E001239117FFE2B
:101622007E001237AD7FEF1237AD7F361237AD7FB6
:101632004812377E7F3A1237AD7F0512377E7FA47C
:101642001237AD7F4412377E12377E7FA51237AD37
:101652007F4212377E12377E7FAA1237AD7F881201
:10166200377E12377E7FE81237AD7F1112377E7FC9
:101672000B12377E7FE31237AD7F0112377E7F1068
:1016820012377E7FFF1237AD7F6112377E7FAC1239
:1016920037ADE4FF12377E7FA61237AD7F2A1237AD
:1016A2007E12377E7FA71237AD7F2B12377E12371D
:1016B2007E7FA81237AD7F1812377E12377E7FA940
:1016C2001237AD7F2A12377E12377E7FAD1237ADC9
:1016D2007F3312377E7FAF1237AD7F5512377E7F51
:1016E200AE1237AD7F2B12377E1F1237ADE4FF12D9
:1016F200377E12377E12377E7FEF12377E7F2B12B4
:1017020037ADE4FF12377E12377E0F12377E7F3FEE
:1017120012377E7F2C1237AD7FF01237AD7F021267
:10172200377EE4FF12377E12377E7F2512377E0F17
:1017320012377E7F0512377E7FF11237AD7F01129D
:10174200377E7F0312377EE4FF12377E7F331237F4
:101752007E12377E7F0A12377E7FF21237AD7F0507
:1017620012377E7F0312377E7F3C12377E7F041250
:10177200377E12377E7F4C12377E7FF31237AD7F72
:101782000912377E7F0412377E7F4712377E7F032E
:1017920012377E1F12377E7F5212377E7FF4123746
:1017A200AD7F0A12377E7F1712377E1F12377E7F78
:1017B2001F12377E7F2112377E7F0F12377E7FF511
:1017C2001237AD7F0712377E7F1212377E12377EB5
:1017D2007F1F12377E0F12377E7F0F12377E7FE90F
:1017E2001237AD7F0812377E7F111237AD7F781224
:0E17F20039117F297E001237AD7F2C0237ADF2
:102BE100F2150815087401A808F208743FF27A007A
:0A2BF1007B007C007DEF7E007F007A
:102BFB0015081508A808EAF208EBF215081508A83D
:102C0B0008ECF208EDF215081508A808EEF208EF2B
:102C1B00F27F2A7E001237ADA908E3FF12377EA898
:102C2B000808E2FF12377EA8080808A900E3FF1284
:102C3B00377EA808080808E2FF12377E7F2B123771
:102C4B00ADE5082404F9E3FF12377EE508240412EE
:102C5B00377AE5082406F9E3FF12377EE5082406E8
:102C6B0012377A7F2C1237AD75A903E5082408F5C6
:022C7B0008222D
:02004600AC0606
:10004800EC7855F2EF08122BE1C2B0E47853F208CD
:10005800F2E4FBFA7855E2FF08E2FD1237160BBB13
:1000680000010AEB64F04A70EB7854E22401F218BC
:10007800E23400F2C308E2944018E2940140D2D27C
:01008800B0C7
:010089002254
:102A9500122BE2C2B079F8E4FC7FF8FD123716E498
:102AA500FB79077CE07F077DE01237160BBB000141
:102AB5000AEB64EE4A70EAE4F97C1FFF7D1F1237CA
:102AC50016E47853F208F279F8E4FC7FF8FD123742
:102AD50016E4FAFBE4F9FCFFFD1237160BBB000107
:102AE5000AEB64EE4A70EDE4F97C1FFF7D1F123797
:102AF500167854E22401F218E23400F2C308E29495
:102B05003E18E2940140C079F8E4FC7FF8FD1237E5
:102B150016E4FAFB79077CE07F077DE01237160B98
:102B2500BB00010AEB64EE4A70EAE4F97C1FFF7D05
:092B35001F123716E4F5A9D2B015
:012B3E002274
:101B5C0078537450F2E47855F218746AF27856742B
:101B6C0002F2C2B01508150814122BE8E4FB7854E5
:101B7C00E2FFC3EB9FEA94005069E47857F2785384
:101B8C00E2FF7857E2C39F500CE4FD7FF812371642
:101B9C00E204F280E9E47857F27853E2FF7857E2F6
:101BAC00C39F500C7D1FE4FF123716E204F280E94C
:101BBC00E47857F27855E2FF7853E22FFFE433FED6
:101BCC007857E2C39FEE6480F8748098500E7DE0E5
:101BDC007F071237167857E204F280D80BBB00014E
:101BEC000A808BE4FAFB7854E2FFC3EB9FEA940083
:101BFC005069E47857F27853E2FF7857E2C39F506C
:101C0C000C7DE07F07123716E204F280E9E4785786
:101C1C00F27853E2FF7857E2C39F500CE4FD7FF853
:101C2C00123716E204F280E9E47857F27855E2FFB5
:101C3C007853E22FFFE433FE7857E2C39FEE6480C3
:101C4C00F8748098500E7D1FE4FF1237167857E217
:101C5C0004F280D80BBB00010A808BE4FAFB7856A7
:101C6C00E2FF7854E22FFFE433FEC3EB9FEA9E5071
:101C7C0069E47857F27853E2FF7857E2C39F500C2F
:101C8C007D1FE4FF123716E204F280E9E47857F284
:101C9C007853E2FF7857E2C39F500C7DE07F071228
:101CAC003716E204F280E9E47857F27855E2FF78CF
:101CBC0053E22FFFE433FE7857E2C39FEE6480F8C3
:101CCC00748098500EE4FD7FF81237167857E204B2
:0F1CDC00F280D80BBB00010A8084D2B0E4F5A9D6
:011CEB0022D6
:032549007814EF14
:10254C00122BE1C2B0D2B1781D12118E0000012CF9
:10255C007814E2FFE4FCFDFE781DE2FB08E2F908CA
:10256C00E2FA08E2CBF8120FC3EF2401FFE43EFEBF
:10257C00E43DFDE43CFC7815121151781DE2FC0899
:10258C00E2FD08E2FE08E2FF7815E2FB08E2F9083A
:10259C00E2FA08E2CBF8EB2FFFEA3EFEE93DFDE85C
:1025AC003CFC781980787819E2FC08E2FD08E2FE20
:1025BC0008E2FF7815E2FB08E2F908E2FA08E2CB40
:1025CC00F8C31210EE505C7815E2FC08E2FD08E24C
:1025DC00FE08E2FF1233B8E4FBFAC3EA940250247B
:1025EC0074752BF58274003AF583E0FF74762BF545
:1025FC008274003AF583E0FD12371674022BFBE46B
:10260C003AFA80D67815E2FC08E2FD08E2FE08E210
:10261C002401FFE43EFEE43DFDE43CFC7815121180
:05262C00518083D2B0D3
:012631002286
:1013DA00122BE2E4FBE47821F208F2E4FDFF123773
:1013EA00167822E22401F218E23400F2C308E294E9
:1013FA001018E2940040E4E47821F208F2E4782339
:10140A00F208F27821E2FE08E27803C333CE33CE43
:10141A00D8F9FFE4FD1237167824E22401F218E223
:10142A003400F2C308E2940718E2940040D5782207
:10143A00E22401F218E23400F2C308E2942018E22E
:10144A00940040B90BBB00010AEB64504A7086E471
:10145A00FAFBE47821F208F2E4FDFF12371678224B
:10146A00E22401F218E23400F2C308E2941018E20E
:10147A00940040E4E47821F208F2E47823F208F2D6
:10148A007822E225E0FD18E233FCEDAE047803CEC3
:10149A00C313CE13D8F9FFC007EDAE047805C333E2
:1014AA00CE33CED8F9FDD0071237167824E22401BC
:1014BA00F218E23400F2C308E2940718E2940040FA
:1014CA00BF7822E22401F218E23400F2C308E2945F
:1014DA002018E2940040A30BBB00010AEB64504AB7
:1014EA00600302145CE4FAFBE47821F208F2E4FDFA
:1014FA00FF1237167822E22401F218E23400F2C30E
:10150A0008E2941018E2940040E4E47821F208F228
:10151A00E47823F208F2782108E2FDE4FF12371694
:10152A007824E22401F218E23400F2C308E29407B4
:10153A0018E2940040E07822E22401F218E2340032
:10154A00F2C308E2942018E2940040C40BBB0001E5
:10155A000AEB64504A7091E4FAFBE47821F208F24B
:10156A00E4FDFF1237167822E22401F218E2340071
:10157A00F2C308E2941018E2940040E4E47821F2FD
:10158A0008F2E47823F208F27821E2FC08E2FD2569
:10159A00E0FFEC33FEEF7803CEC313CE13D8F9FF86
:1015AA00AE05EE33333354F84FFFEE25E0C433541F
:1015BA00E0FE782108E24EFD1237167824E2240173
:1015CA00F218E23400F2C308E2940718E2940040E9
:1015DA00B77822E22401F218E23400F2C308E29456
:1015EA002018E29400409B0BBB00010AEB64504AAE
:0715FA006003021564D2B08A
:0116010022C6
:1021F300122BE2E4FBC3EA94005029E47827F208A7
:10220300F2E4FDFF1237167828E22401F218E234D3
:1022130000F2C308E294F018E2940040E40BBB0020
:10222300010A80D1E4FAFBE47825F208F2E4782786
:10223300F208F2EBAE027803C333CE33CED8F9FF04
:10224300E4FD1237167828E22401F218E23400F292
:10225300C308E2943C18E2940040D8E47827F208DB
:10226300F2EB25E0FDEA33FCEDAE047803CEC313B5
:10227300CE13D8F9FFC007EDAE047805C333CE33D0
:10228300CED8F9FDD0071237167828E22401F218C8
:10229300E23400F2C308E2943C18E2940040C2E442
:1022A3007827F208F2AD03E4FF1237167828E22408
:1022B30001F218E23400F2C308E2943C18E29400FD
:1022C30040E3E47827F208F2EB25E0FFEA33FEEF80
:1022D3007803CEC313CE13D8F91237017828E2243A
:1022E30001F218E23400F2C308E2943C18E29400CD
:1022F30040D67826E22401F218E23400F2C308E261
:10230300940A18E2940050030222300BBB00010A26
:09231300EB64204A600302222A57
:01231C00229E
:102DAE00122BE2C2B0D2B1E4FBC3EA94005029E484
:102DBE00782BF208F2E4FDFF123716782CE224018C
:102DCE00F218E23400F2C308E294F018E2940040E4
:102DDE00E40BBB00010A80D1E4FAFBE47829F20887
:102DEE00F2E4782BF208F2EBAE027803C333CE3363
:102DFE00CED8F9FFE4FD123716782CE22401F21832
:102E0E00E23400F2C308E294F018E2940040D8785D
:102E1E002AE22401F218E23400F2C308E2940A18FE
:102E2E00E2940040BC0BBB00010AEB64204A70AB7D
:022E3E00D2B010
:012E4000226F
:102B3F00122BE2C2B0D2B1E4FBC3EA94005029E4F5
:102B4F00782FF208F2E4FDFF1237167830E22401F5
:102B5F00F218E23400F2C308E294F018E294004055
:102B6F00E40BBB00010A80D1E4FAFBE4782DF208F4
:102B7F00F2E4782FF208F2EBAE027803CEC313CE55
:102B8F0013D8F9FFC007EBAE027805C333CE33CEAF
:102B9F00D8F9FDD0071237167830E22401F218E287
:102BAF003400F2C308E294F018E2940040C9782E82
:102BBF00E22401F218E23400F2C308E2940518E2AD
:102BCF00940040AD0BBB00010AEB64404A709CD2ED
:012BDF00B045
:012BE00022D2
:102FF000122BE2C2B0D2B1E4FBC3EA94005029E440
:103000007833F208F2E4FDFF1237167834E2240137
:10301000F218E23400F2C308E294F018E29400409F
:10302000E40BBB00010A80D1E4FAFBE47831F2083A
:10303000F2E47833F208F2AD03E4FF123716783485
:10304000E22401F218E23400F2C308E294F018E23C
:10305000940040E37832E22401F218E23400F2C333
:1030600008E2940A18E2940040C70BBB00010AEB87
:0730700064204A70B6D2B0E3
:013077002236
:102E4100122BE2C2B0E4FBC3EA94005029E47837C4
:102E5100F208F2E4FDFF1237167838E22401F21885
:102E6100E23400F2C308E294F018E2940040E40B6B
:102E7100BB00010A80D1E4FAFBE47835F208F2E400
:102E81007837F208F2EB25E0FFEA33FEEF7803CE64
:102E9100C313CE13D8F91237017838E22401F2189E
:102EA100E23400F2C308E294F018E2940040D678CC
:102EB10036E22401F218E23400F2C308E2940A185F
:102EC100E2940040BA0BBB00010AEB64204A70A9EE
:022ED100D2B07D
:012ED30022DC
:102C7D00122BE2C2B0D2B1E47853F208F2E4FBFABF
:102C8D00C3EA9400500DE4FDFF1237160BBB000193
:102C9D000A80EDE4FAFBE47855F208F2EBAE027827
:102CAD0002C333CE33CED8F97803CEC313CE13D8A7
:102CBD00F9FFAE03EE25E0F933333354F84FFFEE51
:102CCD0025E025E0FEC43354E049FD123716785651
:102CDD00E22401F218E23400F2C308E2940F18E284
:102CED00940040B80BBB00010AEB64104A70A77842
:102CFD0054E22401F218E23400F2C308E2944018C1
:0A2D0D00E294015003022C8AD2B0B8
:012D17002299
:10317B00122BE2C2B0E47839F208F2E4FBFAE4FD78
:10318B00FF1237160BBB00010AEB64104A70EFE419
:10319B00FAFBE4783BF208F2EB25E0FFEA33FEEFB3
:1031AB007803CEC313CE13D8F9123701783CE2243F
:1031BB0001F218E23400F2C308E2940718E294001B
:1031CB0040D60BBB00010AEB64204A70C5783AE28B
:1031DB002401F218E23400F2C308E2944018E2949E
:0531EB00014098D2B084
:0131F00022BC
:10180000122BE2E4FBE4783DF208F2E4FD7FF812EB
:101810003716783EE22401F218E23400F2C308E2FF
:1018200094F018E2940040E30BBB00010AEB64283B
:101830004A70D2E4FAFBE4783DF208F27DE07F07DB
:10184000123716783EE22401F218E23400F2C3089F
:10185000E294F018E2940040E30BBB00010AEB6451
:10186000284A70D2E4FAFBE4783DF208F27D1FE4E6
:10187000FF123716783EE22401F218E23400F2C378
:1018800008E294F018E2940040E30BBB00010AEB7D
:1018900064284A70D2E4FAFBE4783DF208F27DE075
:1018A0007FFF123716783EE22401F218E23400F28C
:1018B000C308E294F018E2940040E30BBB00010A75
:1018C000EB64284A70D2E4FAFBE4783DF208F27D3A
:1018D0001F7FF8123716783EE22401F218E2340036
:1018E000F2C308E294F018E2940040E30BBB00015D
:1018F0000AEB64284A70D2E4FAFBE4783DF208F27D
:101900007DFF7F07123716783EE22401F218E23499
:1019100000F2C308E294F018E2940040E30BBB002D
:10192000010AEB64284A70D2E4FAFBE4783DF2083D
:10193000F27DFF7FFF123716783EE22401F218E2B3
:101940003400F2C308E294F018E2940040E30BBBC9
:1019500000010AEB64284A70D2E4FAFBE4783DF215
:1019600008F2E4FDFF123716783EE22401F218E295
:101970003400F2C308E294F018E2940040E40BBB98
:1019800000010AEB64284A70D3E4FAFBC3EA94002E
:101990005029E4783DF208F2E4FDFF123716783E54
:1019A000E22401F218E23400F2C308E294F018E2F3
:0B19B000940040E40BBB00010A80D152
:0119BB002209
:10341C00EFC3942050047F5F8050EFC39420400C86
:10342C00EFD3942F5006EF2428FF803EEFC3943047
:10343C00400CEFD39439500674D02FFF802CEFC37F
:10344C00943A400CEFD394405006EF241EFF801AA0
:10345C00EFC39441400CEFD3947E5006EF24C9FF88
:0B346C008008EFD3947E40027F5F22B7
:1026FF00FD18E23400FC7860E2FA08E2FB08E2F52C
:10270F008308E2F582786CE583F208E582F278645B
:10271F00E2F58308E2F582786EE583F208E582F24E
:08272F007867EFF2AF05AE047C
:10273700EB240FFCE43A15081508A808F208CCF2B8
:10274700EF2407FDE43EFC122BFB7867E2FF7E00D7
:10275700D3945FEE940040027F5FEFC4F8540FC834
:1027670068FFEEC454F048FE787174FFF2087406EF
:10277700F208749AF2E22FF218E23EF2E47870F26D
:102787007871E2FB0808E2F92401F218E2FA340052
:10279700F2120F55FBE4FAEBA802088002C333D804
:1027A700FC30E704786C8002786EE2FE08E2FF12E4
:1027B70039EF0AEAB408E07870E204F2E2C3941051
:0227C70040BE12
:0127C90022ED
:102D1800785CEBF208EAF208E9F208ECF208EDF266
:102D2800785CE2FB08E2FA08E2F9120F557003D367
:102D38008001C34070785CE2FB0808E2F92401F2E4
:102D480018E2FA3400F2120F55FF12341C785FE2D1
:102D5800FC08E2FD08E2FA08E2FB08E2F58308E273
:102D6800F582786CE583F208E582F2786512271F10
:102D7800D37860E294E718E29400400BE4F208F29A
:102D88007862E2241080057860E22408F218E234C0
:102D980000F2D37862E2942F18E294014082E4F2C0
:062DA80008F2022D2822B2
:10288100785CEEF208EFF27860EAF208EBF2785E3B
:10289100ECF208EDF2D394CFEC9400400718E4F287
:1028A1000874CFF27860E2FE08E2FFD3942FEE9431
:1028B100014009EF24EFF2EE34FF18F2785CE2C434
:1028C100540FFF785EE2FC08E2FD08122707785CEE
:1028D100E2540FFF785FE224081226FF795CE3C41B
:1028E100F854F0C809E3C4540F48540FFF785FE26D
:1028F10024101226FF785DE2540FFF785FE224185E
:10290100FD18E23400FC7860E2FA08E2FB08E2F527
:102911008308E2F582786CE583F208E582F2786457
:10292100E2F58308E2F582786EE583F208E582F24A
:0329310002272F4B
:10397C007B017D047C007F04121E3D784FEEF20823
:06398C00EFF2E4FEFF2251
:1035D5007853EAF208EBF2ED2401FAE43C150815FC
:1035E50008A808F208CAF2AB05AA04EF2401FDE415
:1035F5003EFC122BFB7853E2FC08E2FDECFF123790
:103605001618E2FC08E2FDECFF12371618E2FC087A
:10361500E2FDECFF12371618E2FC08E2FDECFF02B2
:02362500371656
:10307800783FEEF208EFF28B828A8308ECF208EDD3
:01308800F255
:103089007845E2FF08E215081508A808CFF208EF0D
:10309900F2783FE2FE08E2FF122BFBAE83AF8278A3
:1030A90049EEF208EFF27846E22401FF18E2340013
:1030B900FEC3784AE29F18E29E5039783FE2FE0843
:1030C900E2FBAA067842E22401FF18E23400FEC3BB
:1030D900EB9FEA9E50117847E2FE08E2FF1239EFB2
:1030E9000BBB00010A80DD784AE22401F218E234C0
:0430F90000F280B2AF
:0130FD0022B0
:072ED400784BEEF208EFF26B
:102EDB0008E4F208740FF2C3784EE2943F18E294C0
:102EEB00015030E2FA08E2FB7845EAF208EBF2789F
:102EFB004BE2FF08E27847CFF208EFF27DEF7C0060
:102F0B00E4FFFE123078784EE22410F218E234001F
:102F1B00F280C4784DE4F208740FF2C3784EE29459
:102F2B00EF18E294005031E2FC08E2FDFFAE0478AA
:102F3B00457401F208743FF2784BE2FB08E27847E4
:102F4B00CBF208EBF2E4FBFA123078784EE2241065
:082F5B00F218E23400F280C319
:012F6300224B
:1038A900C294C295E49002A8F0EF20E704C2B28066
:1038B90002D2B2D295EF25E0FFC2959002A8E004AA
:0538C900F0E0B408E48A
:0138CE0022D7
:103266009002A912115D00000000C294D2B3E4904E
:1032760002A8F09002A8E0FFC3940C5049C2953012
:10328600B33AC3740B9FFF74017E00A8070880053C
:10329600C333CE33CED8F9FFEE3395E0FDFC900272
:1032A600A9E0F8A3E0F9A3E0FAA3E04FFFEA4EFE97
:1032B600E94DFDE84CFC9002A9121145D295900209
:1032C600A8E004F080ADD2949002A9A3A3E0FEA3E7
:0232D600E0FF17
:0132D80022D3
:02231D00AB070C
:10231F00E490028FF0A3F0A3F0D2B590028FE0C348
:10232F00940B502C20B529C294EB04FF1238A9123C
:10233F00326690028FE025E02492F582E43402F5B4
:10234F0083EEF0A3EFF090028FE004F0D29480CBF5
:10235F0090028FE07003022434E4A3F090028FE028
:10236F00F9A3E0C3994003022420E4A3F090029064
:10237F00E0FF90028FE0C39FFF900291E0C39F4068
:10238F0003022417E0FF25E02494F582E43402F5DC
:10239F0083E0FCA3E0FDEF25E02492F582E4340214
:1023AF00F583E0FEA3E0D39DEE9C4053900291E0B5
:1023BF0025E02492F582E43402F583E0FCA3E0FDEE
:1023CF0090028DECF0A3EDF0EF25E02494F582E47C
:1023DF003402F583E0FEA3E0FF900291E0FB25E0DD
:1023EF002492F582E43402F583EEF0A3EFF0EB25AF
:1023FF00E02494F582E43402F583ECF0A3EDF09041
:10240F000291E004F002237C900290E004F002239A
:10241F006BE9C31325E02492F582E43402F583E0DF
:08242F00FEA3E0FF22E4FEFF22
:012437002282
:1019BC0090027512115D0000000090027912115D09
:1019CC000000000090027D12115D000000009002EA
:1019DC008112115D0000000090028512115D000063
:1019EC00000090028912115D00000000E4FFFE125D
:1019FC000046D2B520B5FD20B603021B537F327EC4
:101A0C000012391120B5F07FD012231DE4FCFD909B
:101A1C00027D12114590027DE0FCA3E0FDA3E0FEE7
:101A2C00A3E024BDFFEE34FFFEED34FFFDEC34FFEC
:101A3C00FCE47BF0FAF9F8120FC3E47BA57A02F907
:101A4C00F812104EE4120DA07BB87A1E7945783F3F
:101A5C00120C9A120DDE9002751211457F90122312
:101A6C001DE4FCFD900281121145900281E0FCA363
:101A7C00E0FDA3E0FEA3E024A0FFEE34FFFEED3476
:101A8C00FFFDEC34FFFCE47B407A01F9F8120FC344
:101A9C00E4FB7A03F9F812104EE4120DA07B337AB2
:101AAC00337973783F120C9A120DDE900279121171
:101ABC00457F0A7E0012391130B503021A10E4FF7B
:101ACC00FEFDFC900275E0F8A3E0F9A3E0FAA3E0B8
:101ADC00FBC31210EE5003021A10E47FF0FEFDFC63
:101AEC00900275E0F8A3A3A3E01210EE4003021AD3
:101AFC0010E4FFFEFDFC900279E0F8A3E0F9A3E00E
:101B0C00FAA3E0FBC31210EE5003021A10E47F405C
:101B1C007E01FDFC900279E0F8A3A3A3E01210EE85
:101B2C004003021A10900275A3A3E0FEA3E0FFC0CD
:101B3C0006A3A3A3E0FEA3E0FDAC06D0067B007ACF
:101B4C00F81235D5021A10E4FFFE120046021A03F1
:100003001201100100000040C410000000000102B2
:1000130003010902200001010080FA090400000223
:10002300FF000000070502024000000705820240AE
:0A00330000000403090401000000AE
:1020BC00900275EEF0A3EFF0900279EBF0A3EAF04A
:1020CC00A3E9F0E4900791F0900791E0FF900003F2
:1020DC0093FE74402FF582E43407F583EEF09007FD
:1020EC0091E004F0E0B412E0E4900791F0900791D5
:1020FC00E0FF90001593FE74522FF582E43407F53F
:10210C0083EEF0900791E004F0E0B420E0900275CB
:10211C00E0FEA3E0900748F0EEA3F0A3EDF0ECA3F3
:10212C00F090077274FFF0A37400F0A37435F09074
:10213C000279E0F9A3E0FAA3E0900775C9F0A3EAED
:10214C00F0A3E9F090027CE0F9A3E0FAA3E0900799
:10215C0078C9F0A3EAF0A3E9F090027FE0F9A3E0DC
:10216C00FAA3E090077BC9F0A3EAF0A3E9F0900290
:10217C0082E0FFC394FA500590075AEFF090028367
:10218C00E0900759F0900284E0FEA3E090074CF039
:10219C00EEA3F0E59620E7FB759601759708E5969A
:1021AC0020E7FB75960775970FE59620E7FB75966C
:1021BC000975970EE59620E7FB75960B75970775D5
:1021CC00D7E01239D8E4900793F0900792F090077B
:1021DC0094F0900786F043E602D2AFE59620E7FB39
:0721EC0075960175970122B1
:10385B009007867402F0E59620E7FB759601759745
:10386B0001E490078EF0A37403F0A3F0E4900793A8
:07387B00F090079204F02217
:1011A700E59620E7FB75960EE4F597E59620E7FBB5
:1011B700759691E59620E7FB90079EE597F0E0FF8F
:1011C70030E210E59620E7FB759611E4F597900756
:1011D7008EF022EF30E410E59620E7FB7596117547
:1011E7009780E490078EF090078EE060030212D894
:1011F70090079EE020E0030212D87596204396C020
:10120700E4900791F0E59620E7FB900791E0247EB4
:10121700F582E43407F583E597F0900791E004F051
:10122700E0B407E1E59620E7FBE4F596900791E047
:10123700247EF582E43407F583E597F0900781E093
:10124700FE900780E07C002400FFEC3E900795F0BD
:10125700A3EFF0900785E0FE900784E02400FFEC01
:101267003E900797F0A3EFF090077FE0B40C005093
:101277005D90127FF82828730212A30212A80212A7
:10128700AD0212B20212D50212B70212BC0212D577
:101297000212C10212C60212CB0212D01232D98038
:1012A700301234D1802B1226328026123529802124
:1012B7001238F1801C1229348017123677801212E7
:1012C7003477800D123882800812399280031239E0
:1012D7003090078EE0640160030213D990079E7473
:1012E70002F0C390078DE0944090078CE094004093
:1012F70061E59620E7FB759620E4900791F090074B
:1013070091E0FFC394405022900787E0FBA3E0FAE7
:10131700A3E0F98F82758300120F6EF597E596208B
:10132700E7FB900791E004F080D4900788E475F01C
:1013370040120FAD90078DE024C0F090078CE03489
:10134700FFF090078BE02440F090078AE03400F02C
:101357008052E59620E7FB759620E4900791F09080
:101367000791E0FFD390078DE09F90078CE09400F2
:101377004026900787E0FBA3E0FAA3E0F9900791E6
:10138700E0F582758300120F6EF597E59620E7FB6F
:10139700900791E004F080C790079EE04408F0E4CE
:1013A70090078EF0900797E0FEA3E0FF90078AE092
:1013B700B50611A3E0B5070C90079EE04408F0E4DA
:1013C70090078EF0E59620E7FB75961190079EE053
:0313D700F5972265
:10393000E59620E7FB75960EE4F597E59620E7FB04
:0D39400075961175972090078E7404F02283
:1032D90090077EE0247F600714600624027048800E
:1032E9002D90078FE0B40309900782E0B4020280B1
:1032F9000E900790E0B40316900782E0B4820F9015
:10330900078774FFF0A37400F0A37439800D900748
:103319008774FFF0A37400F0A3743BF090078CE46A
:10332900F0A37402F0800312393090078EE0640430
:10333900601012399290078E7401F0E490078AF0B8
:03334900A3F022CC
:1034D100900780E07041900782E0B4021DE59620DC
:1034E100E7FB75960E759702E59620E7FB75961436
:1034F100759780E490078FF08020E59620E7FB75B3
:10350100960E759702E59620E7FB75961175974023
:10351100E4900790F08003123930E59620E7FB75BF
:08352100960EE4F597023992C1
:10263200900796E020E0030226C8900794E030E07D
:102642000854FEF04402F08007900794E054FDF035
:10265200E59620E7FB75960E759702E59620E7FB57
:10266200759614759710E59620E7FB759611759788
:1026720008E59620E7FB759694E59620E7FB900720
:102682009DE597F0E020E4E9E59620E7FB759614D6
:10269200759710E59620E7FB759691E59620E7FB86
:1026A20090079DE597F0E020E3E9E59620E7FB75CA
:1026B20096117597089007927408F0900794E0FFBE
:1026C20030E1034401F0900795E0FCA3E0FD30E126
:1026D2000D9007867406F0900792E04410F0ED30FA
:1026E200E20D9007867404F0900792E04420F0E532
:0D26F2009620E7FB75960EE4F597023992ED
:10352900900780E07040900782E0B4021BE5962086
:10353900E7FB75960E759702E59620E7FB759614DD
:1035490075972090078F8019E59620E7FB75960EF1
:10355900759702E59620E7FB759611759710900708
:10356900907403F08003123930E59620E7FB7596D5
:073579000EE4F59702399200
:1038F100E59620E7FBE4F596900780E0FFF597EF6A
:1039010090078660057403F080037402F002399217
:10293400900781E024FE601B14603B2402706990C0
:1029440007877401F0A37407F0A37440F090074064
:10295400E0804A9007877401F0A37407F0A37452CF
:10296400F0900755E0FE900754E07C002400FFEC53
:102974003E90078C802C900780E075F003A42472AD
:10298400F582E43407F583E0FBA3E0FAA3E0F990D1
:102994000787EBF0A3EAF0A3E9F0120F55FF9007C5
:1029A4008CE4F0A3EFF0800312393090078CE0FE42
:1029B400A3E0FF900797E0FCA3E0FDC39FEC9E50CB
:1029C4000890078CECF0A3EDF090078EE0640460AF
:1029D4001012399290078E7401F0E490078AF0A3E4
:0229E400F022DF
:10367700900786E0FFB40414A374FFF0A37400F06E
:10368700A37439F090078CE4F0A304F0EFB40316A9
:1036970090078774FFF0A37400F0A3743BF09007C2
:1036A7008CE4F0A304F012399290078E7401F0E4D1
:0736B70090078AF0A3F02246
:10347700900780E0D394004042900792E04440F0E8
:103487009007867404F0E490078FF0A3F0E5962088
:10349700E7FB75960E759702E59620E7FB75961282
:1034A700759784E59620E7FB759615759780E596E1
:1034B70020E7FB75960EE4F597800C90078674035A
:0A34C700F090078FF0A3F002399295
:1038820090078774FFF0A37400F0A3743BF09007D5
:103892008CE4F0A304F012399290078E7401F0E4E4
:0738A20090078AF0A3F02259
:1039920090078EE06404600BE59620E7FB759611B4
:0439A20075974022B3
:03004300021CECB0
:101CEC00C0E0C0F0C083C082C0D075D000C000C0BE
:101CFC0001C002C003C004C005C006C0079007A104
:101D0C00E596F0E59620E7FB75968EE59620E7FBC9
:101D1C009007A2E597F0E59620E7FB759686E59689
:101D2C0020E7FB900799E597F0E030E30BE5962070
:101D3C00E7FB75960B759707900799E030E2031255
:101D4C00385B900799E030E014900786E0FF64045C
:101D5C006004EFB40607900792E04480F0E596200B
:101D6C00E7FB759682E59620E7FB900799E597F0DF
:101D7C00E030E0031211A7900799E030E22AE596D3
:101D8C0020E7FB75960E759702E59620E7FB759696
:101D9C0091E59620E7FB90079AE597F0E0540370E5
:101DAC0007900792E04402F0E59620E7FB759684D5
:101DBC00E59620E7FB900799E597F0E030E229E5FE
:101DCC009620E7FB75960E759702E59620E7FB7556
:101DDC009694E59620E7FB90079AE597F0E030E0C3
:101DEC0007900792E04404F0E59620E7FB75960E09
:101DFC009007A2E0F597E59620E7FB9007A1E59602
:101E0C00F0E59620E7FB900794E030E0099007920C
:101E1C00E060031238CFD007D006D005D004D00331
:101E2C00D002D001D000D0D0D082D083D0F0D0E07E
:011E3C003273
:10374200E5B964E0602E53A90FC0A943B280E5A990
:103752005407D394014003E4F5A9E4F5B943B980D1
:10376200E4D5E0FD43B9C0E5B930E5FBD0E0B402F1
:083772000343A90253A90F2231
:1038090053D7BF43C910E5A95402900791F043B2B9
:103819008075A910E4F5B943B22000123742900728
:0B38290091E042A953C9EF43D74022B1
:0E39CA00900792E0FFE4F022900792E0FF22C7
:1029E600900786E0B40606EDD3944040037F0022AC
:1029F600E59620E7FB75960E759702E59620E7FBB0
:102A0600759694E59620E7FB90079CE597F0E02005
:102A1600E003022A92E59620E7FB759696E5962056
:102A2600E7FB900793E597F0E0FFEDC39F5006AEF6
:102A360005AF068000900793EFF053E6FDE596207C
:102A4600E7FB7596E2900793E06025FEEB600630A3
:102A5600E70F7F0022E59620E7FBA79709DEF680C1
:102A66000F89828A83E59620E7FBE597F0A3DEF5DA
:102A7600E59620E7FBE4F596E59620E7FB759614C8
:0F2A8600E4F59743E602900793E0FF227F0022DA
:10243800900786E0B4060DED4C6009D3ED9400ECEE
:1024480094104004E4FEFF2253E6FDE490079FF059
:10245800A3F090079BF089828A83C083C08290078B
:102468009BE030E003022539E59620E7FB75960EE0
:10247800759702E59620E7FB759691E59620E7FBB0
:1024880090079BE597F0E030E020E59620E7FB75A4
:10249800960EE4F597E59620E7FB759691E596206C
:1024A800E7FB90079BE597F080B4C3ED9440EC946C
:1024B800009007A0E0401B2440F090079FE0340004
:1024C800F074C02DFD74FF3CFCE490079BF078404D
:1024D80080132DF090079FE03CF090079B7401F06B
:1024E800A805E4FCFDE59620E7FB759622D082D08E
:1024F80083E8602BEB601130E71AE59620E7FBE4F0
:1025080093F597A3D8F48017E59620E7FB879709FA
:10251800D8F6800BE59620E7FBE0F597A3D8F5C041
:1025280083C082E59620E7FB759611759701022412
:1025380066D082D08343E60290079FE0FEA3E0FFC7
:012548002270
:10394D00900794E04401F0900792E0600BE596201B
:09395D00E7FB75960B75970F222C
:0C39D800E59620E7FB75960F7597892295
:1038CF00D007D007D007D006D005D004D003D00240
:1038DF00D001D000D0D0D082D083D0F0D0E0020081
:0238EF008B222A
:100C9A00EC4D6011E8497017ED33EC3304600DE454
:100CAA00FCFFFEFD22E933E8330470F8020E4A1213
:100CBA000E1558046009E4CC248150062850090214
:100CCA000E54284003020E51C0E0EB4A7044B9802A
:100CDA0006D0E0FB020E40EF4E701CBD8008EBFF11
:100CEA00EAFEE9FD80EBE98DF0A4FEE5F0020D8352
:100CFA00E9CDF9EAFEEBFFEF89F0A4FCE5F0CE8935
:100D0A00F0A42EFFE435F0CD89F0A42DFEE435F0F1
:100D1A008067EF4E7005BD80D780C3EF8BF0A4AC1F
:100D2A00F0EE8BF0A42CFCE435F0F8EF8AF0A42C5A
:100D3A00E5F038FCE433CB8DF0A42CFCE5F03BF86D
:100D4A00EE8AF0A42CFCE5F038F8E433CF89F0A45D
:100D5A002CFCE5F038CF3400CE89F0A42FFFE5F063
:100D6A003EFEE433C98DF0A42EFEE5F039CD8AF0BB
:100D7A00A42FFFE5F03EFEE43DFD33D0E0FB500733
:100D8A000BBB000F020E54EC2CFCEF33FFEE33FECC
:060D9A00ED33FD020E2CFA
:100DA00075F020800E75F010800575F0087D007ECE
:100DB000007F003392D530D5031210E0EC334010A1
:100DC000EF33FFEE33FEED33FDEC33FCD5F0ED22D7
:0E0DD000E5F0247EA2D513CC92E7CDCEFF2213
:100DDE00EDD2E7CD33EC3392D524814006E4FFFE0D
:100DEE00FDFC22FCE4CFCECDCC24E0501174FF806C
:100DFE00EDC3CC13CCCD13CDCE13CECF13CF047009
:070E0E00F030D5DE0210E018
:100E1500E9D2E7C933E833F892D5EDD2E7CD33EC23
:070E250033FC5002B2D5229C
:100E2C00EC30E7100FBF000C0EBE00080DBD000427
:100E3C000BEB6014A2D5EB13FCED92E7FD2274FFD3
:100E4C00FCFDFEFF22E480F8A2D574FF13FC7D802C
:030E5C00E480EF40
:03000000022F6468
:0C2F6400787FE4F6D8FD758108022FABE1
:100E5F00E709F608DFFA8046E709F208DFFA803E75
:100E6F0088828C83E709F0A3DFFA8032E309F60862
:100E7F00DFFA8078E309F208DFFA807088828C83CA
:100E8F00E309F0A3DFFA806489828A83E0A3F6087E
:100E9F00DFFA805889828A83E0A3F208DFFA804C58
:100EAF0080D280FA80C680D4806980F2803380102F
:100EBF0080A680EA809A80A880DA80E280CA803398
:100ECF0089828A83ECFAE493A3C8C582C8CCC58310
:100EDF00CCF0A3C8C582C8CCC583CCDFE9DEE780E0
:100EEF000D89828A83E493A3F608DFF9ECFAA9F05F
:100EFF00EDFB2289828A83ECFAE0A3C8C582C8CCB5
:100F0F00C583CCF0A3C8C582C8CCC583CCDFEADECD
:100F1F00E880DB89828A83E493A3F208DFF980CC2F
:100F2F0088F0EF60010E4E60C388F0ED2402B40428
:100F3F000050B9F582EB2402B4040050AF232345CF
:060F4F008223900EAF7337
:100F5500BB010689828A83E0225002E722BBFE029A
:090F6500E32289828A83E49322CD
:100F6E00BB010CE58229F582E5833AF583E0225038
:100F7E0006E92582F8E622BBFE06E92582F8E22282
:0D0F8E00E58229F582E5833AF583E493229C
:100F9B00EF8DF0A4A8F0CF8CF0A428CE8DF0A42E6A
:020FAB00FE2224
:100FAD00C5F0F8A3E028F0C5F0F8E58215827002CF
:060FBD001583E038F0226C
:100FC300E88FF0A4CC8BF0A42CFCE98EF0A42CFCCD
:100FD3008AF0EDA42CFCEA8EF0A4CDA8F08BF0A44B
:100FE3002DCC3825F0FDE98FF0A42CCD35F0FCEBAA
:100FF3008EF0A4FEA9F0EB8FF0A4CFC5F02ECD396F
:0F100300FEE43CFCEAA42DCE35F0FDE43CFC22DB
:1010120075F008758200EF2FFFEE33FECD33CDCC95
:1010220033CCC58233C5829BED9AEC99E582984018
:101032000CF582EE9BFEED9AFDEC99FC0FD5F0D6F5
:10104200E4CEFBE4CDFAE4CCF9A88222B800C1B91F
:101052000059BA002DEC8BF084CFCECDFCE5F0CB5D
:10106200F97818EF2FFFEE33FEED33FDEC33FCEB96
:1010720033FB10D703994004EB99FB0FD8E5E4F951
:10108200FA227818EF2FFFEE33FEED33FDEC33FC3E
:10109200C933C910D7059BE99A4007EC9BFCE99A32
:1010A200F90FD8E0E4C9FAE4CCFB2275F010EF2F77
:1010B200FFEE33FEED33FDCC33CCC833C810D70777
:1010C2009BEC9AE899400AED9BFDEC9AFCE899F8B2
:0E10D2000FD5F0DAE4CDFBE4CCFAE4C8F92245
:0E10E000C3E49FFFE49EFEE49DFDE49CFC2221
:1010EE00EB9FF5F0EA9E42F0E99D42F0E89C45F058
:0110FE0022CF
:1010FF00E8600FECC313FCED13FDEE13FEEF13FFCF
:03110F00D8F122F2
:10111200E8600FEFC333FFEE33FEED33FDEC33FC3B
:03112200D8F122DF
:101125007401FF3395E0FEFDFC080808E2CF2FF2BD
:1011350018E2CE3EF218E2CD3DF218E2CC3CF222A6
:0C114500ECF0A3EDF0A3EEF0A3EFF0221D
:0C115100ECF208EDF208EEF208EFF222DA
:10115D00A8828583F0D083D082121174121174127B
:10116D001174121174E473E493A3C583C5F0C583A0
:10117D00C8C582C8F0A3C583C5F0C583C8C582C8DC
:01118D00223F
:10118E00D083D082E493F208740193F20874029330
:09119E00F208740393F274047367
:102F7000023834E493A3F8E493A34003F68001F20B
:102F800008DFF48029E493A3F85407240CC8C33362
:102F9000C4540F4420C8834004F456800146F6DF31
:102FA000E4800B01020408102040809037DCE47EAE
:102FB000019360BCA3FF543F30E509541FFEE49326
:102FC000A360010ECF54C025E060A840B8E493A3ED
:102FD000FAE493A3F8E493A3C8C582C8CAC583CA18
:102FE000F0A3C8C582C8CAC583CADFE9DEE780BED0
:0138080000BF
:00000001FF
