:10354C00555342204445425547005553422052455D
:10355C0041440010C4EA611A03530069006C00690D
:10356C000063006F006E0020004C0061006200736D
:10357C000010035500530042002000410050004948
:10358C00000A0343003500310046000F80010001A2
:10369200810000810700810C00810E00810F0081F2
:1036A2000D008104008205000084080000000181F1
:0836B20001AA8102558103FF0A
:10365E0012321030B62D1229721234A512388F7410
:10366E00FFFFFE1200461234A512388F122AB41232
:10367E0034A512388F121A0F1234A512388F121663
:04368E009680D02230
:1037CC00E4FDFCC3ED9FEC9E5014E4FBFA0BBB0034
:0E37DC00010AEBF44A70F60DBD00010C80E509
:0137EA0022BC
:0434A5007F017E0025
:0734A9007859EEF208EFF282
:1034B000E408F208F230B721E4FFFED3785AE29F25
:1034C00018E29E401EE4FDFC0DBD00010CEDF44C25
:1034D00070F60FBF00010E80E212388F7F147E005D
:1034E0001237CC785CE22401F218E23400F2C3080F
:0934F000E2946418E2940040BC6F
:0134F90022B0
:10388F0030B60512008E80F87FF47E011237CC30EF
:03389F00B6FD2251
:10008E0078617C007DFE7BFF7A35799B7E007F0157
:10009E00120D697807E2700302026E785D7401F248
:1000AE00785DE2FFC39410507BEF25E025E024D469
:1000BE00F582E43402F583E07028E2FD25E025E0C8
:1000CE0024D5F582E43402F583E0FEED25E025E04B
:1000DE0024D6F582E43402F583E0FDEDFF12386696
:1000EE00803A785DE225E025E024D4F582E43402FE
:1000FE00F583E0B40126E2FD25E025E024D5F58266
:10010E00E43402F583E0FEED25E025E024D6F58209
:10011E00E43402F583E0FDEDFF12380C785DE20465
:10012E00F20200AE0000000000000000000000001F
:10013E0000000000000000007BFF7A35794CE47867
:10014E0067F208F208F208F274FF08F208F2E4FD12
:10015E00FC122BE99002D7E020E003020253785DF7
:10016E007401F2785DE2FFC394104003020253EF74
:10017E0025E025E024D4F582E43402F583E07055C1
:10018E00E2FD25E025E024D5F582E43402F583E096
:10019E00FEED25E025E024D6F582E43402F583E079
:1001AE00FDEDFFE2FB25E025E024D7F582E43402E5
:1001BE00F583E075F024A4FDACF0EB75F011A4FB13
:1001CE00AAF078687407F20874E0F2E408F208F214
:1001DE0012275E8068785DE2FB25E025E024D4F5E9
:1001EE0082E43402F583E064017052E2FD25E025DD
:1001FE00E024D5F582E43402F583E0FEED25E0251A
:10020E00E024D6F582E43402F583E0FDEDFFEB2524
:10021E00E025E024D7F582E43402F583E075F0247E
:10022E00A4FDACF0EB75F011A4FBAAF07868E4F233
:10023E0008741FF274FF08F208F212275E785DE26E
:10024E0004F2020171000000000000000000000036
:10025E00000000000000000000E47807F20200A198
:10026E00780DE2700302033AE4785DF2785DE2C342
:10027E0094404003020327C2B0D2B1E2FE24D4F56B
:10028E0082E43402F583E0FF74D52EF582E4340265
:10029E00F583E0FD1236D4D2B0785DE2FF24D4F5BA
:1002AE0082E43402F583E0FE780508E2FD2401F2D3
:1002BE0018E2FC3400F2747C2DF58274003CF58358
:1002CE00EEF074D52FF582E43402F583E0FF08E2F8
:1002DE00FD2401F218E2FC3400F2747C2DF58274D8
:1002EE00003CF583EFF008E2B4002518E2B40220DA
:1002FE007808120F89122FC27804E290007CF07FEA
:10030E00007E007D007C00122FC2E47805F208F218
:10031E00785DE22402F202027AE4780DF27BFE7A34
:10032E000079617D01FC12231502026E7800E270E5
:10033E00030204479002D7E070030203FD785D7458
:10034E0004F2785DE2C394244003020434C2B0D2B6
:10035E00B1E2FE24D4F582E43402F583E0FF74D5D5
:10036E002EF582E43402F583E0FD1236D4D2B07855
:10037E005DE2FF24D4F582E43402F583E0FE7805D5
:10038E0008E2FD2401F218E2FC3400F2747C2DF533
:10039E008274003CF583EEF074D52FF582E43402BE
:1003AE00F583E0FF08E2FD2401F218E2FC3400F2CE
:1003BE00747C2DF58274003CF583EFF008E2B400F6
:1003CE002518E2B402207808120F89122FC2780481
:1003DE00E290007CF07F007E007D007C00122FC238
:1003EE00E47805F208F2785DE22402F20203507816
:1003FE005D7404F2785DE2C39424502AC2B0D2B187
:10040E00E2FE24D4F582E43402F583E0FF74D52EA7
:10041E00F582E43402F583E0FD1236D4D2B0785D75
:10042E00E22402F280CEE47800F27BFE7A0079615B
:10043E007D01FC12231502033A780FE270030204C9
:10044E00FE785D7404F2785DE2FFC39424400302EB
:10045E0004EB74D42FF582E43402F583E07020E2CD
:10046E00FD24D5F582E43402F583E0FE74D62DF535
:10047E0082E43402F583E0FDEDFF12386680557894
:10048E005DE224D4F582E43402F583E0B40120E287
:10049E00FD24D5F582E43402F583E0FE74D62DF505
:1004AE0082E43402F583E0FDEDFF12380C802578EE
:1004BE005DE224D4F582E43402F583E06410701416
:1004CE00000000000000000000000000000000001E
:1004DE0000000000785DE22404F2020454E4780F78
:1004EE00F27BFE7A0079617D01FC1223150204472E
:1004FE00780CE27003020653E4785DF2785DE2FF59
:10050E00C394185011747C2FF582E43402F583E401
:10051E00F0E204F280E69002DBE025E07860F290F3
:10052E0002D9E0FEA3E0FDEE785EF2ED08F2900255
:10053E00D8E06401703C18E2FE08E2FF123866E46F
:10054E00785DF27860E2FF785DE2C39F5024123846
:10055E0050785DE2FD247CF582E43402F583E4F00C
:10056E00747D2DF582E43402F583EFF0E22402F27D
:10057E0080D1E4780CF27B017A02797C7860E2FD1E
:10058E007C001223157F647E001237CC7BFF7A35F8
:10059E007956E47867F208F208F208F274FF08F26E
:1005AE0008F2E4FDFC122BE99002D7E020E00302F2
:1005BE0004FE9002DCE075F024A4FDACF0785EE25F
:1005CE00FE08E2FF78687407F20874E0F2E408F2BD
:1005DE0008F27B11FA12275EE4785DF27860E2FF92
:1005EE00785DE2F9C39F40030204FE9002DCE075E1
:1005FE00F024A4FDACF0C004C005E9C3132402FF2F
:10060E00E433FE7C007D11120DD5AA06AB07747C77
:10061E0029F582E43402F583E0FE747D29F582E447
:10062E003402F583E0FDEDFF7868E4F208741FF202
:10063E0074FF08F208F2D005D00412275E785DE24E
:10064E002402F28097780EE26040E4785DF2785DE5
:10065E00E2FFC39440501174942FF582E43402F5F6
:10066E0083E4F0E204F280E6E4900294F0A374F0E6
:10067E00F0E4A3F0A374F0F0E4780EF27B017A02BA
:0A068E0079947D40FC12231580BB17
:01069800223F
:1035E30053D9BF75B283E4F5B943B980FF0FEFB484
:1035F300FFFB43B9C0E5B930E5FBE4F5A943EF02AE
:1036030075F1FF75A4FF75A5FF75F2FF75A6FF752C
:10361300AEFF75F4FF43A717C286C28743E1024397
:02362300E24083
:013625002282
:103210001235E312362690355FE493FE740193FF76
:10322000903561E493FC740193FD90028374FFF088
:10323000A37435F0A3747DF0A374FFF0A37435F08C
:10324000A3748DF0903597E493900289F0903598AF
:10325000E49390028AF0903599E493FB7401939083
:10326000028BCBF0A3EBF07BFF7A357963121F9DC5
:0C32700012382175A17075F80F021B9D2B
:03003D000236EB9D
:03008B00021E64EE
:101E6400C0E0C0F0C083C082C0D075D000C000C044
:0D1E740001C002C003C004C005C006C007C5
:101E81001238B37856EFF220E203021F2B7B017A5E
:101E91000279D47D401228C37801E2FF9002D4E098
:101EA100FEB5071408E2FDA3E0B5050C08E2FDA3A9
:101EB100E0B505047807806F7803E2FDB5061318D5
:101EC100E2FE9002D5E0B50609A3E0B50704780C5F
:101ED10080557802E2FF9002D4E0B5071118E2FEC6
:101EE100A3E0B50609A3E0B50504780E80397801B1
:101EF100E2FE9002D4E0FDB506127803E2FCA3E015
:101F0100B50409A3E0B507047800801B7803E2B5A6
:101F110005139002D5E0B5060C18E2FFA3E0B50762
:101F210004780F8002780D7401F27856E230E703ED
:101F310012003D7856E230E6031235E37856E2307E
:101F4100E41A15081508A808E4F20874EFF27A00FB
:101F51007B007C00FD7E007F00122B677856E2300B
:101F6100E51F7804E204F215081508A808E4F20850
:101F710074EFF27A007B007C00FD7E007F00122B63
:011F810067F8
:101F8200D007D006D005D004D003D002D001D000B3
:0B1F9200D0D0D082D083D0F0D0E0325D
:0C383A007FFF1238467FFF1238467FFFE8
:093846008FA330FFFDC2FFAFA308
:01384F002256
:0A38CD0075A3FF30FFFDC2FFAFA39B
:0138D70022CE
:0230B500AE0764
:1030B700E4FB12383A12383AC2FAEE4440FF1238AB
:1030C700467867E2FC08E2FD08E2FE08E2FF7818AE
:1030D700120F631238467867E2FC08E2FD08E2FE49
:1030E70008E2FF7810120F631238467867E2FC088F
:1030F700E2FD08E2FE08E2FF7808120F6312384685
:103107007867080808E2FF1238467F951238467F2D
:10311700FF123846BFFF09AE030BEED3946440EFAE
:02312700D2FADA
:013129002283
:1026A700E4FEFA75A90375A23BE4FD7FFF123846E5
:1026B7000DEDB464F67867120FF200000000E4FF36
:1026C7001230B5AE070AEAD3940A5004EEB401D922
:1026D700E4FA7867120FF2000000007F371230B576
:1026E700AE070AEAD3946440037F0122EEB401E205
:1026F700E4FA7867120FF2000000007F291230B564
:10270700AE070AEAD3946440037F0122EE70C3EE5A
:10271700601FE4FA7867120FF2000000007F0112D1
:1027270030B5AE070AEAD3946440037F0122EE7006
:10273700E37867120FF2000000007F3B1230B5AE5E
:10274700077867120FF2000002007F101230B5758C
:06275700A201E4F5A9FF58
:01275D002259
:05327C007810120FB5EF
:10328100E4FA75A9037810E2FC08E2FD08E2FE0801
:10329100E2FF7809120F767867120FB57F111230AD
:1032A100B50AEAD3940A40037F0122EF70D7C2FA2C
:1032B1001238CDBFFEFAE4FDFC1238CD747C2DF539
:1032C1008274003CF583EFF00DBD00010CE4B505FF
:0E32D100E8ECB402E412383FD2FAE4F5A9FFAB
:0132DF0022CC
:052FC2007862120FB55A
:102FC700E4FA75A9037862E2FC08E2FD08E2FE086C
:102FD700E2FF7809120F767867120FB57F18123063
:102FE700B5AE070AEAD3940A40037F0122EE70D5F3
:102FF700C2FA7FFF1238467FFE123846FDFC747C0A
:103007002DF58274003CF583E0FF1238460DBD00B4
:10301700010CE4B505E8ECB402E412383AAE07EE69
:10302700541F64056003D2FA227FFF123846EF600F
:07303700F8D2FAE4F5A9FF4D
:01303E00226F
:1038A200E4F91226A7EF600809E9D3940340F32252
:0138B20022F3
:10069900000000182442424242424242241800000B
:1006A900000000107010101010101010107C0000C5
:1006B9000000003C4242420404081020427E00002F
:1006C9000000003C4242041804020242443800007F
:1006D900000000040C14242444447E04041E000079
:1006E9000000007E40404058640202424438000045
:1006F9000000001C24404058644242422418000073
:100709000000007E4444080810101010101000006A
:100719000000003C4242422418244242423C00006C
:100729000000001824424242261A0202243800001E
:100739000000001010182828243C444242E7000019
:10074900000000F8444444784442424244F800001E
:100759000000003E42428080808080424438000090
:10076900000000F8444242424242424244F800003A
:10077900000000FC424848784848404242FC0000DA
:10078900000000FC424848784848404040E00000EA
:100799000000003C44448080808E8444443800003A
:1007A900000000E7424242427E42424242E70000E4
:1007B9000000007C1010101010101010107C0000A8
:1007C9000000003E0808080808080808080888F01A
:1007D900000000EE444850705048484444EE000080
:1007E900000000E0404040404040404042FE0000E0
:1007F900000000EE6C6C6C6C5454545454D60000D8
:10080900000000C7626252524A4A4A4646E2000064
:100819000000003844828282828282824438000049
:10082900000000FC424242427C40404040E000005F
:1008390000000038448282828282B2CA4C380600A3
:10084900000000FC4242427C4848444442E3000024
:100859000000003E4242402018040242427C00004F
:10086900000000FE92101010101010101038000037
:10087900000000E74242424242424242423C0000FA
:10088900000000E7424244242428281810100000E0
:10089900000000D692929292AAAA6C4444440000A5
:1008A900000000E7422424181818242442E7000015
:1008B900000000EE444428281010101010380000E1
:1008C9000000007E840408081020204242FC000039
:1008D900001E1010101010101010101010101E0013
:1008E90000004040202010101008080404040202EF
:1008F900007808080808080808080808080878009F
:10090900001C2200000000000000000000000000A0
:10091900000000000000000000000000000000FFCF
:10092900006010000000000000000000000000004E
:10093900000000000000003C421E2242423F00002D
:10094900000000C0404040586442424264580000E0
:10095900000000000000001C22404040221C000052
:10096900000000060202021E22424242261B00002B
:10097900000000000000003C427E4040423C000074
:100989000000000F1110107E10101010107C0000D4
:10099900000000000000003E444438403C42423C14
:1009A900000000C04040405C6242424242E7000011
:1009B900000000303000007010101010107C000092
:1009C9000000000C0C00001C040404040404447816
:1009D900000000C04040404E4850684844EE0000C6
:1009E900000000701010101010101010107C000082
:1009F90000000000000000FE4949494949ED000096
:100A090000000000000000DC6242424242E70000B0
:100A1900000000000000003C42424242423C00000B
:100A290000000000000000D864424242447840E0DF
:100A3900000000000000001E22424242221E02075E
:100A490000000000000000EE3220202020F8000005
:100A5900000000000000003E42403C02427C0000D1
:100A6900000000000010107C10101010100C000085
:100A790000000000000000C642424242463B00001E
:100A890000000000000000E74224242810100000A4
:100A990000000000000000D79292AAAA4444000076
:100AA900000000000000006E2418181824760000C9
:100AB90000000000000000E742242428181010E07C
:100AC900000000000000007E44081010227E000093
:100AD90000030404040404080404040404040300D3
:100AE900080808080808080808080808080808087D
:100AF9000060101010101008101010101010600075
:100B0900304C43000000000000000000000000001D
:100B190000000000000000000000000000000000CC
:100B2900000000101010101010100000181800001C
:100B390000123624480000000000000000000000F8
:100B4900000000242424FE484848FE484848000084
:100B590000001038545450301814145454381010DC
:100B690000000044A4A8A8A8541A2A2A2A4400006C
:100B790000000030484848506EA4948889760000E7
:100B890000606020C00000000000000000000000BC
:100B990000020408081010101010100808040200C0
:100BA900004020101008080808080810102040000C
:100BB900000000001010D63838D6101000000000D0
:100BC9000000000010101010FE101010100000009E
:100BD900000000000000000000000000606020C06C
:100BE90000000000000000007F000000000000007D
:100BF900000000000000000000000000606000002C
:100C090000000102020404080810102020404000DE
:100C1900000000000000181800000000181800006B
:100C2900000000000000001000000000001010206B
:100C390000000002040810204020100804020000EF
:100C4900000000000000FE000000FE00000000009F
:100C59000000004020100804020408102040000091
:100C69000000003C42426202040808001818000013
:100C790000000038445AAAAAAAAAB442443800007B
:100C8900FFFFFFFFFFFFFFFFFFFFFFFFFFFFFFFF6B
:0436BA008254000036
:04123E007862EFF2F1
:10124200ED64086003021330C2B0D296C2B1E2F577
:10125200A0C297D297D2B0E4F5A675F3FF75A0FFAE
:10126200C2B0D2B1D297C2960000000000000000C6
:10127200D28700000000AFA07865F208EFF2C287C3
:1012820000000000D29600000000C296000000009C
:1012920000000000D28700000000A9A0C287000061
:1012A2000000D29600000000C2960000000000007C
:1012B2000000D287000000007869E5A0F2C2870032
:1012C200000000D2960000000000000000C296005C
:1012D20000000000000000D28700000000AAA0C2A7
:1012E2008700000000D2960000000000000000D23B
:1012F20096000000000000000075A6FFEBB4010B91
:101302007866E2FEE9F582EE08801EEBB4020CE993
:10131200FE7869E2F582EE7867800EEBB4030F780F
:1013220069E2FEEAF582EE7867F2E58208F2ED64A0
:10133200044C600302146675A6FF7862E2FFC2B035
:10134200C2B1E4FDC297EF30E704D2968002C296A2
:10135200D297EF25E0FF0DEDB408E975A6FEEB6428
:10136200016005EB6403702AE4FDC297D287D2962E
:101372007864E225E0FF18E233FEA296E433F582B8
:10138200EEF2EF458208F2C287D2970DEDB409DA88
:101392008032EB64026005EB64047028E4FDC297BE
:1013A200D287D2967864E225E0FF18E233FEA29655
:1013B200E433F582EEF2EF458208F2C287D2970D4E
:1013C200EDB410DAE4FDC297D287D2967866E225B0
:1013D200E0FF18E233FEA296E433F582EEF2EF4527
:1013E2008208F2C287D2970DEDB408DAE4FDC29703
:1013F200D287D296E925E0FFA296E4334FF9C2875D
:10140200D2970DEDB408E7E4FDC297D287D2967861
:1014120069E225E0FFA296E4334FF2C287D2970D2C
:10142200EDB408E575A6FFC287D296D2B1D297D2A3
:1014320096D2B0EBB401127864E2FE08E24EFF08E5
:10144200E208CFF208EFF2801BEB6402600AEBB411
:1014520003028004EBB4040C7866E2FEE9FDEE08B8
:0D146200F2ED08F2C2877867E2FE08E2FFB3
:01146F00225A
:02386600AC06AE
:10386800EC787BF2C2B0D296C2B18FC7C297D2971A
:02387800D2B0CC
:01387A00222B
:04380800F808E2FFDB
:02380C00AC0608
:10380E00EC787BF2C2B0D296D2B18FC7C297D29764
:02381E00D2B026
:013820002285
:1036BF00FFAE03EE33333354F84FFFEE25E0FEC475
:0536CF003354E04BFD47
:1036D400C2B0D296D2B18FC7C297D297AF058FC767
:0636E400C297D297D2B09C
:0136EA0022BD
:0938D800AD07AC06ECFF0236D48A
:101B9D00123850D2857FC87E001237CCC2857FC8DF
:101BAD007E001237CCD2857FC87E001237CC7F11D4
:101BBD007E001238667F961237CC7F367E00123843
:101BCD0066E4FF12380C7F3A1238667F0512380C26
:101BDD007F211238667F2A123866E4FF12380C1204
:101BED00380C12380C7FEF12380C7F2B123866E44C
:101BFD00FF12380C12380C12380C7FEF12380C7F94
:101C0D00B21238667F0C12380C12380CE4FF123801
:101C1D000C7F3312380C12380C7FB71238667F35B3
:101C2D0012380C7FBB1238667F1F12380C7FC01222
:101C3D0038667F2C12380C7FC21238667F0112383D
:101C4D000C7FC31238667F1212380C7FC4123866AF
:101C5D007F2012380C7FC61238667F0F12380C7F2A
:101C6D00D01238667FA412380C7FA112380C7FE099
:101C7D001238667FD012380C7F0812380C7F111283
:101C8D00380C7F0812380C7F0C12380C7F15123867
:101C9D000C7F3912380C7F3312380C7F5012380CF0
:101CAD007F3612380C7F1312380C0F12380C7F2927
:101CBD0012380C7F2D12380C7FE11238667FD0124E
:101CCD00380C7F0812380C7F1012380C7F08123830
:101CDD000C7F0612380C12380C7F3912380C7F44E9
:101CED0012380C7F5112380C7F0B12380C7F1612E4
:101CFD00380C7F1412380C7F2F12380C7F311238AC
:061D0D000C7F290238667C
:102B4F00F215081508A808E4F20874EFF2FD7A00F0
:082B5F007B007C007E007F007A
:102B670015081508A808EAF208EBF215081508A8D1
:102B770008ECF208EDF215081508A808EEF208EFC0
:102B8700F27F2A7E00123866A908E3FF12380CA8E4
:102B97000808E2FF12380CA8080808A900E3FF128A
:102BA700380CA808080808E2FF12380C7F2B1238E7
:102BB70066E5082404F9E3FF12380CE5082404123B
:102BC7003808E5082406F9E3FF12380CE50824065F
:102BD7001238087F2C12386675A903E5082408F512
:022BE7000822C2
:02004600AC0606
:10004800EC785BF2EF08122B4FC2B0E47859F20853
:10005800F2E4FBFA785BE2FF08E2FD1236D40BBB50
:1000680000010AEB64F04A70EB785AE22401F218B6
:10007800E23400F2C308E294F018E2940040D2D2CD
:01008800B0C7
:010089002254
:10297200122B50C2B079F8E4FE7FF8FD1236D479FA
:10298200077EE07F077DE01236D40BBB00010AEB25
:1029920064EE4A70EAE4F97E1FFF7D1F1236D47896
:1029A20059F208F279F8E4FE7FF8FD1236D4FAFB08
:1029B200E4F9FEFFFD1236D40BBB00010AEB64EE14
:1029C2004A70EDE4F97E1FFF7D1F1236D4785AE279
:1029D2002401F218E23400F2C308E294EE18E29401
:1029E2000040C179F8E4FE7FF8FD1236D4FAFB7993
:1029F200077EE07F077DE01236D40BBB00010AEBB5
:102A020064EE4A70EAE4F97E1FFF7D1F1236D4F5A8
:032A1200A9D2B096
:012A1500229E
:101A0F0078597450F2E4785BF2187450F2E4785C11
:101A1F00F2C2B015081508A808122B57785AE2FF22
:101A2F00C3EB9FEA94005069E4785DF27859E2FFC6
:101A3F00785DE2C39F500CE4FD7FF81236D4E204C8
:101A4F00F280E9E4785DF27859E2FF785DE2C39FB6
:101A5F00500CE4FD7FF81236D4E204F280E9E4780A
:101A6F005DF2785BE2FF7859E22FFFE433FE785D99
:101A7F00E2C39FEE6480F8748098500EE4FD7FF807
:101A8F001236D4785DE204F280D80BBB00010A80D5
:101A9F008BE4FAFB785AE2FFC3EB9FEA940050699C
:101AAF00E4785DF27859E2FF785DE2C39F500C7DD8
:101ABF00E07F071236D4E204F280E9E4785DF27831
:101ACF0059E2FF785DE2C39F500C7DE07F0712362D
:101ADF00D4E204F280E9E4785DF2785BE2FF7859B2
:101AEF00E22FFFE433FE785DE2C39FEE6480F8746B
:101AFF008098500E7DE07F071236D4785DE204F2B5
:101B0F0080D80BBB00010A808BE4FAFB785CE2FF04
:101B1F00785AE22FFFE433FEC3EB9FEA9E5069E44D
:101B2F00785DF27859E2FF785DE2C39F500C7D1F1C
:101B3F00E4FF1236D4E204F280E9E4785DF27859DA
:101B4F00E2FF785DE2C39F500C7D1FE4FF1236D495
:101B5F00E204F280E9E4785DF2785BE2FF7859E223
:101B6F002FFFE433FE785DE2C39FEE6480F874804C
:101B7F0098500E7D1FE4FF1236D4785DE204F28098
:0D1B8F00D80BBB00010A8084D2B0E4F5A998
:011B9C002226
:1032E000AA06A907781474FFF208EAF208E9F215B1
:1032F000081508A808E4F208749FF27D7F122B5D80
:10330000E47817F208F27817E2FE08E2FFC3EE94C1
:1033100040502DEF25E0FFEE33FE7814E2FB08E28B
:10332000FA08E2F98F828E83120DFDFDACF0ECFFFE
:103330001236D47818E22401F218E23400F280C682
:01334000226A
:032426007819EF33
:10242900122B4FC2B0D2B17822120FF2000000E194
:102439007819E2FFE4FCFDFE7822E2FB08E2F908E4
:10244900E2FA08E2CBF8120E35EF2401FFE43EFE72
:10245900E43DFDE43CFC781A120FB57822E2FC0851
:10246900E2FD08E2FE08E2FF781AE2FB08E2F90859
:10247900E2FA08E2CBF8EB2FFFEA3EFEE93DFDE880
:102489003CFC781E8078781EE2FC08E2FD08E2FE3A
:1024990008E2FF781AE2FB08E2F908E2FA08E2CB5F
:1024A900F8C3120F52505C781AE2FC08E2FD08E208
:1024B900FE08E2FF12327CE4FBFAC3EA94025024DC
:1024C900747C2BF58274003AF583E0FF747D2BF55B
:1024D9008274003AF583E0FD1236D474022BFBE4D2
:1024E9003AFA80D6781AE2FC08E2FD08E2FE08E230
:1024F9002401FFE43EFEE43DFDE43CFC781A120FA2
:05250900B58083D2B093
:01250E0022AA
:10147000122B50E47826F208F2E4FDFF1236D478FD
:1014800027E22401F218E23400F2C308E2941018B3
:10149000E2940040E4E47826F208F2E47828F208C6
:1014A000F27826E2FE08E27803C333CE33CED8F9D1
:1014B000FFE4FD1236D47829E22401F218E2340068
:1014C000F2C308E2940718E2940040D57827E2249A
:1014D00001F218E23400F2C308E2942018E294000A
:1014E00040B90BBB00010AEB643C4A7086E4FAFB8E
:1014F000E47826F208F2E4FDFF1236D47827E224DD
:1015000001F218E23400F2C308E2941018E29400E9
:1015100040E4E47826F208F2E47828F208F278272A
:10152000E225E0FD18E233FCEDAE047803CEC313F0
:10153000CE13D8F9FFC007EDAE047805C333CE3320
:10154000CED8F9FDD0071236D47829E22401F2185A
:10155000E23400F2C308E2940718E2940040BF7836
:1015600027E22401F218E23400F2C308E2942018C2
:10157000E2940040A30BBB00010AEB643C4A600309
:101580000214F0E4FAFBE47826F208F2E4FDFF121C
:1015900036D47827E22401F218E23400F2C308E2DC
:1015A000941018E2940040E4E47826F208F2E4781B
:1015B00028F208F2782608E2FDE4FF1236D47829F2
:1015C000E22401F218E23400F2C308E2940718E2C0
:1015D000940040E07827E22401F218E23400F2C3DC
:1015E00008E2942018E2940040C40BBB00010AEB0F
:1015F000643C4A7091E4FAFBE47826F208F2E4FDD8
:10160000FF1236D47827E22401F218E23400F2C344
:1016100008E2941018E2940040E4E47826F208F21C
:10162000E47828F208F27826E2FC08E2FD25E0FFE3
:10163000EC33FEEF7803CEC313CE13D8F9FFAE051B
:10164000EE33333354F84FFFEE25E0C43354E0FE5D
:10165000782608E24EFD1236D47829E22401F218E9
:10166000E23400F2C308E2940718E2940040B7782D
:1016700027E22401F218E23400F2C308E2942018B1
:10168000E29400409B0BBB00010AEB643C4A600300
:051690000215F8D2B0C4
:011695002232
:1020D400122B50E4782CF208F2E4FDFF1236D47887
:1020E4002DE22401F218E23400F2C308E294F0185D
:1020F400E2940040E40BBB00010AEB64104A70D385
:10210400E4FAFBE4782AF208F2E4782CF208F2EB21
:10211400AE027803C333CE33CED8F9FFE4FD1236D2
:10212400D4782DE22401F218E23400F2C308E294D8
:102134003C18E2940040D8E4782CF208F2EB25E055
:10214400FDEA33FCEDAE047803CEC313CE13D8F905
:10215400FFC007EDAE047805C333CE33CED8F9FD06
:10216400D0071236D4782DE22401F218E23400F2BA
:10217400C308E2943C18E2940040C2E4782CF208CC
:10218400F2AD03E4FF1236D4782DE22401F218E212
:102194003400F2C308E2943C18E2940040E3E4788B
:1021A4002CF208F2EB25E0FFEA33FEEF7803CEC30E
:1021B40013CE13D8F91236BF782DE22401F218E2B7
:1021C4003400F2C308E2943C18E2940040D6782B21
:1021D400E22401F218E23400F2C308E2940718E2A0
:1021E4009400500302210D0BBB00010AEB64204A4A
:0521F400600302210759
:0121F90022C3
:102C7F00122B50C2B0D2B1E47830F208F2E4FDFF6B
:102C8F001236D47831E22401F218E23400F2C3088C
:102C9F00E294F018E2940040E40BBB00010AEB64ED
:102CAF00104A70D3E4FAFBE4782EF208F2E478309D
:102CBF00F208F2EBAE027803C333CE33CED8F9FF6E
:102CCF00E4FD1236D47831E22401F218E23400F236
:102CDF00C308E294F018E2940040D8782FE2240160
:102CEF00F218E23400F2C308E2940718E2940040AD
:0E2CFF00BC0BBB00010AEB64204A70ABD2B0E4
:012D0D0022A3
:102A1600122B50C2B0D2B1E47834F208F2E4FDFFD2
:102A26001236D47835E22401F218E23400F2C308F3
:102A3600E294F018E2940040E40BBB00010AEB6458
:102A4600304A70D3E4FAFBE47832F208F2E47834E0
:102A5600F208F2EBAE027803CEC313CE13D8F9FF19
:102A6600C007EBAE027805C333CE33CED8F9FDD01E
:102A7600071236D47835E22401F218E23400F2C3A4
:102A860008E294F018E2940040C97833E22401F297
:102A960018E23400F2C308E2940318E2940040AD51
:0D2AA6000BBB00010AEB64404A709CD2B0EB
:012AB3002200
:102F3E00122B50C2B0D2B1E47838F208F2E4FDFFA1
:102F4E001236D47839E22401F218E23400F2C308C2
:102F5E00E294F018E2940040E40BBB00010AEB642B
:102F6E00104A70D3E4FAFBE47836F208F2E47838CB
:102F7E00F208F2AD03E4FF1236D47839E22401F2FE
:102F8E0018E23400F2C308E294F018E2940040E331
:102F9E007837E22401F218E23400F2C308E2940713
:102FAE0018E2940040C70BBB00010AEB64204A7084
:032FBE00B6D2B0D8
:012FC10022ED
:102D0E00122B50C2B0E4783CF208F2E4FDFF12360A
:102D1E00D4783DE22401F218E23400F2C308E294C2
:102D2E00F018E2940040E40BBB00010AEB64104A79
:102D3E0070D3E4FAFBE4783AF208F2E4783CF20855
:102D4E00F2EB25E0FFEA33FEEF7803CEC313CE138A
:102D5E00D8F91236BF783DE22401F218E23400F2BF
:102D6E00C308E294F018E2940040D6783BE22401C6
:102D7E00F218E23400F2C308E2940718E29400401D
:0E2D8E00BA0BBB00010AEB64204A70A9D2B058
:012D9C002214
:102AB400122B50C2B0D2B1E47859F208F2E4FBFA16
:102AC400C3EA9400500DE4FDFF1236D40BBB0001A1
:102AD4000A80EDE4FAFBE4785BF208F2EBAE0278EC
:102AE40002C333CE33CED8F97803CEC313CE13D872
:102AF400F9FFAE03EE25E0F933333354F84FFFEE1C
:102B040025E025E0FEC43354E049FD1236D4785C58
:102B1400E22401F218E23400F2C308E2940F18E24E
:102B2400940040B80BBB00010AEB64104A70A7780C
:102B34005AE22401F218E23400F2C308E294F018D5
:0A2B4400E294005003022AC1D2B04F
:012B4E002264
:10303F00122B50C2B0E4783EF208F2E4FBFAE4FD42
:10304F00FF1236D40BBB00010AEB64104A70EFE499
:10305F00FAFBE47840F208F2EB25E0FFEA33FEEFEB
:10306F007803CEC313CE13D8F91236BF7841E224BA
:10307F0001F218E23400F2C308E2940718E2940058
:10308F0040D60BBB00010AEB64204A70C5783FE2C3
:10309F002401F218E23400F2C308E294F018E2942B
:0530AF00004098D2B0C2
:0130B40022F9
:10185500122B50E47842F208F2E4FD7FF81236D4F8
:101865007843E22401F218E23400F2C308E294F06E
:1018750018E2940040E30BBB00010AEB641E4A70BA
:10188500D2E4FAFBE47842F208F27DE07F071236F3
:10189500D47843E22401F218E23400F2C308E2945A
:1018A500F018E2940040E30BBB00010AEB641E4A0A
:1018B50070D2E4FAFBE47842F208F27D1FE4FF12ED
:1018C50036D47843E22401F218E23400F2C308E288
:1018D50094F018E2940040E30BBB00010AEB641E90
:1018E5004A70D2E4FAFBE47842F208F27DE07FFF29
:1018F5001236D47843E22401F218E23400F2C30828
:10190500E294F018E2940040E30BBB00010AEB649B
:101915001E4A70D2E4FAFBE47842F208F27D1F7F9A
:10192500F81236D47843E22401F218E23400F2C307
:1019350008E294F018E2940040E30BBB00010AEBC7
:10194500641E4A70D2E4FAFBE47842F208F27DFFA5
:101955007F071236D47843E22401F218E23400F20C
:10196500C308E294F018E2940040E30BBB00010ABF
:10197500EB641E4A70D2E4FAFBE47842F208F27D89
:10198500FF7FFF1236D47843E22401F218E23400D7
:10199500F2C308E294F018E2940040E30BBB0001A7
:1019A5000AEB641E4A70D2E4FAFBE47842F208F2CC
:1019B500E4FDFF1236D47843E22401F218E2340044
:1019C500F2C308E294F018E2940040E40BBB000176
:1019D5000AEB641E4A70D3E4FAFBC3EA940050296B
:1019E500E47842F208F2E4FDFF1236D47843E224AB
:1019F50001F218E23400F2C308E294F018E2940010
:091A050040E40BBB00010A80D192
:011A0E0022B5
:10334100EFC3942050047F5F8050EFC39420400C62
:10335100EFD3942F5006EF2428FF803EEFC3943023
:10336100400CEFD39439500674D02FFF802CEFC35B
:10337100943A400CEFD394405006EF241EFF801A7C
:10338100EFC39441400CEFD3947E5006EF24C9FF64
:0B3391008008EFD3947E40027F5F2293
:1025DC00FD18E23400FC7866E2FA08E2FB08E2F54A
:1025EC008308E2F5827872E583F208E582F2786A74
:1025FC00E2F58308E2F5827874E583F208E582F26D
:08260C00786DEFF2AF05AE049A
:10261400EB240FFCE43A15081508A808F208CCF2DC
:10262400EF2407FDE43EFC122B67786DE2FF7E0089
:10263400D3945FEE940040027F5FEFC4F8540FC858
:1026440068FFEEC454F048FE787774FFF20874060D
:10265400F2087499F2E22FF218E23EF2E47876F28C
:102664007877E2FB0808E2F92401F218E2FA340070
:10267400F2120D8FFBE4FAEBA802088002C333D8F0
:10268400FC30E704787280027874E2FE08E2FF12FC
:1026940038D80AEAB408E07876E204F2E2C3941087
:0226A40040BE36
:0126A6002211
:102BE9007862EBF208EAF208E9F208ECF208EDF291
:102BF9007862E2FB08E2FA08E2F9120D8F7003D35A
:102C09008001C340707862E2FB0808E2F92401F20E
:102C190018E2FA3400F2120D8FFF1233417865E29F
:102C2900FC08E2FD08E2FA08E2FB08E2F58308E2A3
:102C3900F5827872E583F208E582F2786B1225FC59
:102C4900D37866E294E718E29400400BE4F208F2C4
:102C59007868E2241080057866E22408F218E234E4
:102C690000F2D37868E294DF18E294004082E4F23B
:062C790008F2022BF92213
:10275E007862EEF208EFF27866EAF208EBF278644D
:10276E00ECF208EDF2D394CFEC9400400718E4F2AB
:10277E000874CFF27866E2FE08E2FFD394DFEE949F
:10278E00004009EF24EFF2EE34FF18F27862E2C453
:10279E00540FFF7864E2FC08E2FD081225E478622B
:1027AE00E2540FFF7865E224081225DC7962E3C457
:1027BE00F854F0C809E3C4540F48540FFF7865E28B
:1027CE0024101225DC7863E2540FFF7865E224189A
:1027DE00FD18E23400FC7866E2FA08E2FB08E2F546
:1027EE008308E2F5827872E583F208E582F2786A70
:1027FE00E2F58308E2F5827874E583F208E582F269
:03280E0002260C93
:103850007B027D087C00E4FF12123E7854EEF208F1
:06386000EFF2E4FEFF227E
:1034FA007859EAF208EBF2ED2401FAE43C150815D2
:10350A0008A808F208CAF2AB05AA04EF2401FDE4F0
:10351A003EFC122B677859E2FC08E2FDECFF1236FA
:10352A00D418E2FC08E2FDECFF1236D418E2FC08DB
:10353A00E2FDECFF1236D418E2FC08E2FDECFF02D1
:02354A0036D475
:102EB8007844EEF208EFF28B828A8308ECF208ED90
:012EC800F217
:102EC900784AE2FF08E215081508A808CFF208EFCA
:102ED900F27844E2FE08E2FF122B67AE83AF8278F4
:102EE9004EEEF208EFF2784BE22401FF18E23400CB
:102EF900FEC3784FE29F18E29E50397844E2FE08FB
:102F0900E2FBAA067847E22401FF18E23400FEC377
:102F1900EB9FEA9E5011784CE2FE08E2FF1238D886
:102F29000BBB00010A80DD784FE22401F218E2347C
:042F390000F280B270
:012F3D002271
:072D9D007850EEF208EFF29E
:102DA40008E4F208740FF2C37853E294EF18E29443
:102DB400005030E2FA08E2FB784AEAF208EBF278D3
:102DC40050E2FF08E2784CCFF208EFF27DEF7C008E
:102DD400E4FFFE122EB87853E22410F218E2340015
:102DE400F280C47852E4F208740FF2C37853E29488
:102DF400EF18E294005030E2FC08E2FDFFAE0478E4
:102E04004AE4F20874EFF27850E2FB08E2784CCB23
:102E1400F208EBF2E4FBFA122EB87853E22410F233
:072E240018E23400F280C443
:012E2B002284
:0838E1005450205445535400DB
:10376400C294C295E49002AFF0EF20E704C2B280A5
:1037740002D2B2D295EF25E0FFC2959002AFE004E9
:05378400F0E0B408E4D0
:01378900221D
:10312A009002B0120FC100000000C294D2B3E49022
:10313A0002AFF09002AFE0FFC3940C5049C2953041
:10314A00B33AC3740B9FFF74017E00A80708800579
:10315A00C333CE33CED8F9FFEE3395E0FDFC9002AF
:10316A00B0E0F8A3E0F9A3E0FAA3E04FFFEA4EFECD
:10317A00E94DFDE84CFC9002B0120FA9D2959002DD
:10318A00AFE004F080ADD2949002B0A3A3E0FEA316
:02319A00E0FF54
:01319C002210
:0221FA00AB0731
:1021FC00E4900296F0A3F0A3F0D2B5900296E0C35F
:10220C00940B502C20B529C294EB04FF12376412A6
:10221C00312A900296E025E02499F582E43402F507
:10222C0083EEF0A3EFF0900296E004F0D29480CB12
:10223C00900296E07003022311E4A3F0900296E062
:10224C00F9A3E0C39940030222FDE4A3F0900297A6
:10225C00E0FF900296E0C39FFF900298E0C39F407E
:10226C00030222F4E0FF25E0249BF582E43402F51E
:10227C0083E0FCA3E0FDEF25E02499F582E4340231
:10228C00F583E0FEA3E0D39DEE9C4053900298E0D2
:10229C0025E02499F582E43402F583E0FCA3E0FD0B
:1022AC00900294ECF0A3EDF0EF25E0249BF582E492
:1022BC003402F583E0FEA3E0FF900298E0FB25E0FA
:1022CC002499F582E43402F583EEF0A3EFF0EB25CC
:1022DC00E0249BF582E43402F583ECF0A3EDF0905E
:1022EC000298E004F0022259900297E004F00222D6
:1022FC0048E9C31325E02499F582E43402F583E020
:08230C00FEA3E0FF22E4FEFF46
:0123140022A6
:1016960090027C120FC100000000900280120FC160
:1016A60000000000900284120FC1000000009002AA
:1016B60088120FC10000000090028C120FC10000BA
:1016C6000000900290120FC100000000E4FFFE121D
:1016D60000467BFF7A3879E1E47867F208F208F28F
:1016E60008F274FF08F208F2E4FDFC122BE9D2B509
:1016F60020B5FD20B6030218307F327E001237CCAB
:1017060030B5030218267FD01221FAE4FCFD9002C0
:1017160084120FA9900284E0FCA3E0FDA3E0FEA3DF
:10172600E024BDFFEE34FFFEED34FFFDEC34FFFC9C
:10173600E47BF0FAF9F8120E35E47BA57A02F9F8A3
:10174600120EC090027C120FA97F901221FAE4FCBF
:10175600FD900288120FA9900288E0FCA3E0FDA389
:10176600E0FEA3E024A0FFEE34FFFEED34FFFDEC27
:1017760034FFFCE47BF0FAF9F8120E35E4FB7A0349
:10178600F9F8120EC0900280120FA97F0F7E001288
:1017960037CC30B503021706E4FFFEFDFC90027C51
:1017A600E0F8A3E0F9A3E0FAA3E0FBC3120F52505E
:1017B60003021706E47FF0FEFDFC90027CE0F8A32E
:1017C600A3A3E0120F524003021706E4FFFEFDFC3E
:1017D600900280E0F8A3E0F9A3E0FAA3E0FBC312CD
:1017E6000F525003021706E47FF0FEFDFC900280C4
:1017F600E0F8A3A3A3E0120F5240030217069002DB
:101806007CA3A3E0FEA3E0FFC006A3A3A3E0FEA380
:10181600E0FDAC06D0067B007AF81234FA02170611
:101826007F327E001237CC0216F9E4FFFE12004624
:101836007BFF7A3879E1E47867F208F208F208F279
:0F18460074FF08F208F2E4FDFC122BE90216F918
:100003001201100100000040C410000000000102B2
:1000130003010902200001010080FA090400000223
:10002300FF000000070502024000000705820240AE
:0A00330000000403090401000000AE
:101F9D0090027CEEF0A3EFF0900280EBF0A3EAF05C
:101FAD00A3E9F0E4900791F0900791E0FF90000312
:101FBD0093FE74402FF582E43407F583EEF090071D
:101FCD0091E004F0E0B412E0E4900791F0900791F5
:101FDD00E0FF90001593FE74522FF582E43407F55F
:101FED0083EEF0900791E004F0E0B420E090027CE5
:101FFD00E0FEA3E0900748F0EEA3F0A3EDF0ECA314
:10200D00F090077274FFF0A37400F0A37435F09094
:10201D000280E0F9A3E0FAA3E0900775C9F0A3EA06
:10202D00F0A3E9F0900283E0F9A3E0FAA3E09007B2
:10203D0078C9F0A3EAF0A3E9F0900286E0F9A3E0F5
:10204D00FAA3E090077BC9F0A3EAF0A3E9F09002B0
:10205D0089E0FFC394FA500590075AEFF090028A79
:10206D00E0900759F090028BE0FEA3E090074CF052
:10207D00EEA3F0E59620E7FB759601759708E596BA
:10208D0020E7FB75960775970FE59620E7FB75968C
:10209D000975970EE59620E7FB75960B75970775F5
:1020AD00D7E01238C1E4900793F0900792F09007B3
:1020BD0094F0900786F043E602D2AFE59620E7FB59
:0720CD0075960175970122D1
:103716009007867402F0E59620E7FB75960175978B
:1037260001E490078EF0A37403F0A3F0E4900793EE
:07373600F090079204F0225D
:10100B00E59620E7FB75960EE4F597E59620E7FB52
:10101B00759691E59620E7FB90079EE597F0E0FF2C
:10102B0030E210E59620E7FB759611E4F5979007F3
:10103B008EF022EF30E410E59620E7FB75961175E4
:10104B009780E490078EF090078EE0600302113CCE
:10105B0090079EE020E00302113C7596204396C05A
:10106B00E4900791F0E59620E7FB900791E0247E52
:10107B00F582E43407F583E597F0900791E004F0EF
:10108B00E0B407E1E59620E7FBE4F596900791E0E5
:10109B00247EF582E43407F583E597F0900781E031
:1010AB00FE900780E07C002400FFEC3E900795F05B
:1010BB00A3EFF0900785E0FE900784E02400FFEC9F
:1010CB003E900797F0A3EFF090077FE0B40C005031
:1010DB005D9010E3F828287302110702110C02111E
:1010EB001102111602113902111B021120021139C2
:1010FB0002112502112A02112F02113412319D8087
:10110B00301233F6802B12250F802612344E80219D
:10111B001237AC801C122811801712359C801212CA
:10112B00339C800D12373D800812387B80031237B9
:10113B00EB90078EE06401600302123D90079E74F2
:10114B0002F0C390078DE0944090078CE094004030
:10115B0061E59620E7FB759620E4900791F09007E8
:10116B0091E0FFC394405022900787E0FBA3E0FA85
:10117B00A3E0F98F82758300120DA8F597E59620F1
:10118B00E7FB900791E004F080D4900788E475F0BA
:10119B0040120DE790078DE024C0F090078CE034EF
:1011AB00FFF090078BE02440F090078AE03400F0CA
:1011BB008052E59620E7FB759620E4900791F0901E
:1011CB000791E0FFD390078DE09F90078CE0940090
:1011DB004026900787E0FBA3E0FAA3E0F990079184
:1011EB00E0F582758300120DA8F597E59620E7FBD5
:1011FB00900791E004F080C790079EE04408F0E46C
:10120B0090078EF0900797E0FEA3E0FF90078AE02F
:10121B00B50611A3E0B5070C90079EE04408F0E477
:10122B0090078EF0E59620E7FB75961190079EE0F0
:03123B00F5972202
:1037EB00E59620E7FB75960EE4F597E59620E7FB4B
:0D37FB0075961175972090078E7404F022CA
:10319D0090077EE0247F600714600624027048804B
:1031AD002D90078FE0B40309900782E0B4020280EE
:1031BD000E900790E0B40316900782E0B4820F9052
:1031CD00078774FFF0A37400F0A37439800D900786
:1031DD008774FFF0A37400F0A3743BF090078CE4A8
:1031ED00F0A37402F080031237EB90078EE06404B5
:1031FD00601012387B90078E7401F0E490078AF00E
:03320D00A3F02209
:1033F600900780E07041900782E0B4021DE59620B8
:10340600E7FB75960E759702E59620E7FB75961411
:10341600759780E490078FF08020E59620E7FB758E
:10342600960E759702E59620E7FB759611759740FF
:10343600E4900790F080031237EBE59620E7FB75E2
:08344600960EE4F59702387BB5
:10250F00900796E020E0030225A5900794E030E0C5
:10251F000854FEF04402F08007900794E054FDF059
:10252F00E59620E7FB75960E759702E59620E7FB7B
:10253F00759614759710E59620E7FB7596117597AC
:10254F0008E59620E7FB759694E59620E7FB900744
:10255F009DE597F0E020E4E9E59620E7FB759614FA
:10256F00759710E59620E7FB759691E59620E7FBAA
:10257F0090079DE597F0E020E3E9E59620E7FB75EE
:10258F0096117597089007927408F0900794E0FFE2
:10259F0030E1034401F0900795E0FCA3E0FD30E14A
:1025AF000D9007867406F0900792E04410F0ED301E
:1025BF00E20D9007867404F0900792E04420F0E556
:0D25CF009620E7FB75960EE4F59702387B29
:10344E00900780E07040900782E0B4021BE5962062
:10345E00E7FB75960E759702E59620E7FB759614B9
:10346E0075972090078F8019E59620E7FB75960ECD
:10347E00759702E59620E7FB7596117597109007E4
:10348E00907403F080031237EBE59620E7FB7596F8
:07349E000EE4F59702387BF4
:1037AC00E59620E7FBE4F596900780E0FFF597EFB0
:1037BC0090078660057403F080037402F002387B76
:10281100900781E024FE601B14603B2402706990E4
:1028210007877401F0A37407F0A37440F090074088
:10283100E0804A9007877401F0A37407F0A37452F3
:10284100F0900755E0FE900754E07C002400FFEC77
:102851003E90078C802C900780E075F003A42472D1
:10286100F582E43407F583E0FBA3E0FAA3E0F990F5
:102871000787EBF0A3EAF0A3E9F0120D8FFF9007B1
:102881008CE4F0A3EFF080031237EB90078CE0FEAD
:10289100A3E0FF900797E0FCA3E0FDC39FEC9E50EF
:1028A1000890078CECF0A3EDF090078EE0640460D3
:1028B1001012387B90078E7401F0E490078AF0A320
:0228C100F02203
:10359C00900786E0FFB40414A374FFF0A37400F04A
:1035AC00A37439F090078CE4F0A304F0EFB4031685
:1035BC0090078774FFF0A37400F0A3743BF090079E
:1035CC008CE4F0A304F012387B90078E7401F0E4C5
:0735DC0090078AF0A3F02222
:10339C00900780E0D394004042900792E04440F0C4
:1033AC009007867404F0E490078FF0A3F0E5962064
:1033BC00E7FB75960E759702E59620E7FB7596125E
:1033CC00759784E59620E7FB759615759780E596BD
:1033DC0020E7FB75960EE4F597800C900786740336
:0A33EC00F090078FF0A3F002387B89
:10373D0090078774FFF0A37400F0A3743BF090071B
:10374D008CE4F0A304F012387B90078E7401F0E442
:07375D0090078AF0A3F0229F
:10387B0090078EE06404600BE59620E7FB759611CC
:04388B0075974022CB
:03004300021D1388
:101D1300C0E0C0F0C083C082C0D075D000C000C096
:101D230001C002C003C004C005C006C0079007A1DC
:101D3300E596F0E59620E7FB75968EE59620E7FBA2
:101D43009007A2E597F0E59620E7FB759686E59662
:101D530020E7FB900799E597F0E030E30BE5962049
:101D6300E7FB75960B759707900799E030E203122E
:101D73003716900799E030E014900786E0FF64047B
:101D83006004EFB40607900792E04480F0E59620E4
:101D9300E7FB759682E59620E7FB900799E597F0B8
:101DA300E030E00312100B900799E030E22AE59649
:101DB30020E7FB75960E759702E59620E7FB75966F
:101DC30091E59620E7FB90079AE597F0E0540370BE
:101DD30007900792E04402F0E59620E7FB759684AE
:101DE300E59620E7FB900799E597F0E030E229E5D7
:101DF3009620E7FB75960E759702E59620E7FB752F
:101E03009694E59620E7FB90079AE597F0E030E09B
:101E130007900792E04404F0E59620E7FB75960EE1
:101E23009007A2E0F597E59620E7FB9007A1E596DA
:101E3300F0E59620E7FB900794E030E009900792E5
:101E4300E0600312378AD007D006D005D004D00350
:101E5300D002D001D000D0D0D082D083D0F0D0E057
:011E6300324C
:10362600E5B964E0602E53A90FC0A943B280E5A9AD
:103636005407D394014003E4F5A9E4F5B943B980EE
:10364600E4D5E0FD43B9C0E5B930E5FBD0E0B4020E
:083656000343A90253A90F224E
:1036EB0053D7BF43C910E5A95402900791F043B2D9
:1036FB008075A910E4F5B943B22000123626900765
:0B370B0091E042A953C9EF43D74022D0
:0E38B300900792E0FFE4F022900792E0FF22DF
:1028C300900786E0B40606EDD3944040037F0022D0
:1028D300E59620E7FB75960E759702E59620E7FBD4
:1028E300759694E59620E7FB90079CE597F0E0202A
:1028F300E00302296FE59620E7FB759696E596209F
:10290300E7FB900793E597F0E0FFEDC39F5006AE1A
:1029130005AF068000900793EFF053E6FDE59620A0
:10292300E7FB7596E2900793E06025FEEB600630C7
:10293300E70F7F0022E59620E7FBA79709DEF680E5
:102943000F89828A83E59620E7FBE597F0A3DEF5FE
:10295300E59620E7FBE4F596E59620E7FB759614EC
:0F296300E4F59743E602900793E0FF227F0022FE
:10231500900786E0B4060DED4C6009D3ED9400EC12
:1023250094104004E4FEFF2253E6FDE490079FF07D
:10233500A3F090079BF089828A83C083C0829007AF
:102345009BE030E003022416E59620E7FB75960E28
:10235500759702E59620E7FB759691E59620E7FBD4
:1023650090079BE597F0E030E020E59620E7FB75C8
:10237500960EE4F597E59620E7FB759691E5962090
:10238500E7FB90079BE597F080B4C3ED9440EC9490
:10239500009007A0E0401B2440F090079FE0340028
:1023A500F074C02DFD74FF3CFCE490079BF0784071
:1023B50080132DF090079FE03CF090079B7401F08F
:1023C500A805E4FCFDE59620E7FB759622D082D0B2
:1023D50083E8602BEB601130E71AE59620E7FBE414
:1023E50093F597A3D8F48017E59620E7FB8797091F
:1023F500D8F6800BE59620E7FBE0F597A3D8F5C066
:1024050083C082E59620E7FB759611759701022337
:1024150043D082D08343E60290079FE0FEA3E0FF0E
:012425002294
:10382100900794E04401F0900792E0600BE5962048
:09383100E7FB75960B75970F2259
:0C38C100E59620E7FB75960F75978922AD
:10378A00D007D007D007D006D005D004D003D00286
:10379A00D001D000D0D0D082D083D0F0D0E00200C7
:0237AA008B2270
:03000000022E2CA1
:0C2E2C00787FE4F6D8FD758108022E7353
:100C9900E709F608DFFA8046E709F208DFFA803E3D
:100CA90088828C83E709F0A3DFFA8032E309F6082A
:100CB900DFFA8078E309F208DFFA807088828C8392
:100CC900E309F0A3DFFA806489828A83E0A3F60846
:100CD900DFFA805889828A83E0A3F208DFFA804C20
:100CE90080D280FA80C680D4806980F280338010F7
:100CF90080A680EA809A80A880DA80E280CA803360
:100D090089828A83ECFAE493A3C8C582C8CCC583D7
:100D1900CCF0A3C8C582C8CCC583CCDFE9DEE780A7
:100D29000D89828A83E493A3F608DFF9ECFAA9F026
:100D3900EDFB2289828A83ECFAE0A3C8C582C8CC7C
:100D4900C583CCF0A3C8C582C8CCC583CCDFEADE95
:100D5900E880DB89828A83E493A3F208DFF980CCF7
:100D690088F0EF60010E4E60C388F0ED2402B404F0
:100D79000050B9F582EB2402B4040050AF23234597
:060D89008223900CE973C7
:100D8F00BB010689828A83E0225002E722BBFE0262
:090D9F00E32289828A83E4932295
:100DA800BB010CE58229F582E5833AF583E0225000
:100DB80006E92582F8E622BBFE06E92582F8E2224A
:0D0DC800E58229F582E5833AF583E4932264
:100DD500EF8DF0A4A8F0CF8CF0A428CE8DF0A42E32
:020DE500FE22EC
:100DE700C5F0F8A3E028F0C5F0F8E5821582700297
:060DF7001583E038F02234
:100DFD00BB0110E58229F582E5833AF583E0F5F034
:100E0D00A3E0225009E92582F886F008E622BBFE10
:100E1D000AE92582F8E2F5F008E222E5832AF58356
:080E2D00E993F5F0A3E993221B
:100E3500E88FF0A4CC8BF0A42CFCE98EF0A42CFC5C
:100E45008AF0EDA42CFCEA8EF0A4CDA8F08BF0A4DA
:100E55002DCC3825F0FDE98FF0A42CCD35F0FCEB39
:100E65008EF0A4FEA9F0EB8FF0A4CFC5F02ECD39FE
:0F0E7500FEE43CFCEAA42DCE35F0FDE43CFC226B
:100E840075F008758200EF2FFFEE33FECD33CDCC25
:100E940033CCC58233C5829BED9AEC99E5829840A8
:100EA4000CF582EE9BFEED9AFDEC99FC0FD5F0D685
:100EB400E4CEFBE4CDFAE4CCF9A88222B800C1B9AF
:100EC4000059BA002DEC8BF084CFCECDFCE5F0CBED
:100ED400F97818EF2FFFEE33FEED33FDEC33FCEB26
:100EE40033FB10D703994004EB99FB0FD8E5E4F9E1
:100EF400FA227818EF2FFFEE33FEED33FDEC33FCCE
:100F0400C933C910D7059BE99A4007EC9BFCE99AC1
:100F1400F90FD8E0E4C9FAE4CCFB2275F010EF2F06
:100F2400FFEE33FEED33FDCC33CCC833C810D70706
:100F34009BEC9AE899400AED9BFDEC9AFCE899F841
:0E0F44000FD5F0DAE4CDFBE4CCFAE4C8F922D4
:100F5200EB9FF5F0EA9E42F0E99D42F0E89C45F0F5
:010F6200226C
:100F6300E8600FECC313FCED13FDEE13FEEF13FF6C
:030F7300D8F12290
:100F7600E8600FEFC333FFEE33FEED33FDEC33FCD9
:030F8600D8F1227D
:100F89007401FF3395E0FEFDFC080808E2CF2FF25B
:100F990018E2CE3EF218E2CD3DF218E2CC3CF22244
:0C0FA900ECF0A3EDF0A3EEF0A3EFF022BB
:0C0FB500ECF208EDF208EEF208EFF22278
:100FC100A8828583F0D083D082120FD8120FD81255
:100FD1000FD8120FD8E473E493A3C583C5F0C5837A
:100FE100C8C582C8F0A3C583C5F0C583C8C582C87A
:010FF10022DD
:100FF200D083D082E493F208740193F208740293CE
:09100200F208740393F274047304
:102E380002365EE493A3F8E493A34003F68001F21C
:102E480008DFF48029E493A3F85407240CC8C3339B
:102E5800C4540F4420C8834004F456800146F6DF6A
:102E6800E4800B0102040810204080903692E47E32
:102E7800019360BCA3FF543F30E509541FFEE4935F
:102E8800A360010ECF54C025E060A840B8E493A326
:102E9800FAE493A3F8E493A3C8C582C8CAC583CA51
:102EA800F0A3C8C582C8CAC583CADFE9DEE780BE09
:0136BE00000B
:00000001FF
