:10312A005553422044454255470055534220524583
:10313A0041440010C4EA611A03530069006C006933
:10314A000063006F006E0020004C00610062007393
:10315A00001003550053004200200041005000496E
:10316A00000A0343003500310046000F80010001C8
:10330C00012E00013500013A00013C00013D000195
:10331C003B000132000233000004360000000101C2
:08332C002FAA0130550131FF09
:10333500122D5E30B6201227D512317A12195B1282
:10334500317A12298012317AE4FFFE123287123166
:073355007A12151580DD223C
:10341200E4FDFCC3ED9FEC9E5014E4FBFA0BBB00F1
:0E342200010AEBF44A70F60DBD00010C80E5C6
:013430002279
:04317A007F147E0040
:04317E008E0B8F0C19
:10318200E4F50DF50E30B720E4FFFEC3EF950CEE2B
:10319200950B501EE4FDFC0DBD00010CEDF44C70CE
:1031A200F60FBF00010E80E31234C47F147E0012BA
:1031B2003412050EE50E7002050DC39464E50D94FC
:0331C2000040C208
:0131C50022E7
:1034C40030B60512068E80F87FF47E011234123075
:0334D400B6FD2220
:10068E0078137C007D007BFF7A3179797E007F01C3
:10069E00120EC4E5357003020859750F01E50F25DA
:1006AE00E025E02458F582E43402F583E07029E574
:1006BE000F25E025E02459F582E43402F583E0FEAF
:1006CE00E50F25E025E0245AF582E43402F583E0B7
:1006DE00FDEDFF12344E803BE50F25E025E024585A
:1006EE00F582E43402F583E064017027E50F25E01E
:1006FE0025E02459F582E43402F583E0FEE50F256A
:10070E00E025E0245AF582E43402F583E0FDEDFFA6
:10071E0012346C050FE50FC39410408100000000E9
:10072E0000000000000000000000000000000000BB
:10073E007BFF7A31792AE4F519F51AF51BF51C744D
:10074E00FFF51DF51EE4FDFC122A0990025BE02068
:10075E00E00302083F750F01E50F25E025E0245860
:10076E00F582E43402F583E07054E50F25E025E0D0
:10077E002459F582E43402F583E0FEE50F25E025E9
:10078E00E0245AF582E43402F583E0FDEDFFE50F37
:10079E0025E025E0245BF582E43402F583E075F074
:1007AE0024A4FDACF0E50F75F011A4FBAAF0751AA8
:1007BE0007751BE0E4F51CF51D1227408067E50F59
:1007CE0025E025E02458F582E43402F583E0640147
:1007DE007053E50F25E025E02459F582E43402F547
:1007EE0083E0FEE50F25E025E0245AF582E434028D
:1007FE00F583E0FDEDFFE50F25E025E0245BF582B6
:10080E00E43402F583E075F024A4FDACF0E50F7539
:10081E00F011A4FBAAF0751A00751B1F74FFF51CCE
:10082E00F51D122740050FE50FC394105003020764
:10083E006600000000000000000000000000000044
:10084E000000000000E4F5350206A1E53B7003024E
:10085E000915E4F50FE50FC394404003020904C2E5
:10086E00B0D2B17458250FF582E43402F583E0FF5F
:10087E007459250FF582E43402F583E0FD1232F748
:10088E00D2B07458250FF582E43402F583E0FF05EB
:10089E0034E534AC3370020533142400F582740051
:1008AE003CF583EFF07459250FF582E43402F5839D
:1008BE00E0FF0534E534AC3370020533142400F543
:1008CE008274003CF583EFF0E4B53423E533B402D3
:1008DE001E78361210BA122A8B900000E532F07F85
:1008EE00007E007D007C00122A8BE4F533F5340582
:1008FE000F050F020863E4F53BFB7A0079137D01C7
:10090E00FC121F4C020859E52E7003020A0D9002CC
:10091E005BE070030209C9750F04E50FC394244010
:10092E00030209FCC2B0D2B17458250FF582E4342B
:10093E0002F583E0FF7459250FF582E43402F58346
:10094E00E0FD1232F7D2B07458250FF582E434026E
:10095E00F583E0FF0534E534AC337002053314241F
:10096E0000F58274003CF583EFF07459250FF58283
:10097E00E43402F583E0FF0534E534AC3370020550
:10098E0033142400F58274003CF583EFF0E4B534A3
:10099E0023E533B4021E78361210BA122A8B900059
:1009AE0000E532F07F007E007D007C00122A8BE491
:1009BE00F533F534050F050F020928750F04E50F01
:1009CE00C394245029C2B0D2B17458250FF582E4D5
:1009DE003402F583E0FF7459250FF582E43402F5F5
:1009EE0083E0FD1232F7D2B0050F050F80D0E4F58B
:1009FE002EFB7A0079137D01FC121F4C020915E5BE
:100A0E003D7003020ABE750F04E50FC39424400324
:100A1E00020AAD7458250FF582E43402F583E070B6
:100A2E00217459250FF582E43402F583E0FE745AE1
:100A3E00250FF582E43402F583E0FDEDFF12344E0E
:100A4E0080547458250FF582E43402F583E0B40126
:100A5E00217459250FF582E43402F583E0FE745AB1
:100A6E00250FF582E43402F583E0FDEDFF12346CC0
:100A7E0080247458250FF582E43402F583E0641067
:100A8E0070140000000000000000000000000000D4
:100A9E000000000000007404250FF50F020A17E491
:100AAE00F53DFB7A0079137D01FC121F4C020A0DF5
:100ABE00E53A7003020BF1E4F50F7400250FF58291
:100ACE00E43402F583E4F0050FE50FB418EC900260
:100ADE005FE025E0F51290025DE0FEA3E0FDEEF58D
:100AEE0010EDF51190025CE064017034AF11AE10A0
:100AFE0012344EE4F50FE50FC3951250231234D77E
:100B0E007400250FF582E43402F583E4F0740125B8
:100B1E000FF582E43402F583EFF0050F050F80D652
:100B2E00E4F53A7B017A027900E512FD7C00121F92
:100B3E004C7F647E001234127BFF7A317934E4F5F7
:100B4E0019F51AF51BF51C74FFF51DF51EE4FDFCD9
:100B5E00122A0990025BE020E003020ABE900260B6
:100B6E00E075F024A4FDACF0751A07751BE0E4F5F2
:100B7E001CF51D7B11FAAF11AE10122740E4F50FD4
:100B8E00E50FC395124003020ABE900260E075F0B5
:100B9E0024A4FDACF0C004C005E50FC3132402FF6E
:100BAE00E433FE7C007D11120F30AA06AB077400F1
:100BBE00250FF582E43402F583E0FE7401250FF56E
:100BCE0082E43402F583E0FDEDFF751A00751B1FFC
:100BDE0074FFF51CF51DD005D004122740050F0536
:100BEE000F809DE53C6039E4F50F7418250FF582F2
:100BFE00E43402F583E4F0050FE50FB440ECE49025
:100C0E000218F0A374F0F0A37401F0A37440F0E4A2
:100C1E00F53C7B017A0279187D40FC121F4C80C393
:010C2E0022A3
:1000460053D9BF75B283E4F5B943B980FF0FBFFF3B
:10005600FC43B9C0E5B930E5FBE4F5A943EF027509
:10006600F1FF75A4FF75A5FF75F2FF75A6FF75AEC6
:10007600FF75F4FF43A717C286C28743E10243E236
:010086004039
:010087002256
:102D5E0012004612324F90313DE493FE740193FF00
:102D6E0090313FE493FC740193FD90020774FFF0E1
:102D7E00A37431F0A3745BF0A374FFF0A37431F06D
:102D8E00A3746BF0903175E49390020DF090317650
:102D9E00E49390020EF0903177E493FB74019390DC
:102DAE00020FCBF0A3EBF07BFF7A317941121AA719
:0C2DBE0012348175A17075F80F021BDE45
:03003D000232B7D5
:03008B0002205DF3
:10205D00C0E0C0F0C083C082C0D075D000C000C049
:0D206D0001C002C003C004C005C006C007CA
:10207A001234FB8F08E50830E27C7B017A0279583A
:10208A007D40122554900258E0FFB52F0FA3E0B50A
:10209A00300AA3E0B53105753501805AEFB5311123
:1020AA00900259E0B5300AA3E0B52F05753A0180D0
:1020BA0045900258E0B5300FA3E0B52F0AA3E0B56A
:1020CA003105753C01802F900258E0FFB52F0FA310
:1020DA00E0B5310AA3E0B53005752E018018EFB5D9
:1020EA003111900259E0B52F0AA3E0B53005753DCC
:1020FA00018003753B01E50830E70312003DE5085E
:10210A0030E603120046E50830E41A15791579A875
:10211A007976000876EF7A007B007C017D3F7E00AD
:10212A007F001226BEE50830E51C053215791579BF
:10213A00A87976000876EF7A007B007C017D3F7EE5
:06214A00007F001226BE1A
:10215000D007D006D005D004D003D002D001D000E3
:0B216000D0D0D082D083D0F0D0E0328D
:0C349A007FFF1234A67FFF1234A67FFFD4
:0934A6008FA330FFFDC2FFAFA3AC
:0134AF0022FA
:0A35150075A3FF30FFFDC2FFAFA356
:01351F002289
:022F6500AE07B5
:102F6700E4FB12349A12349AC2FAEE4440FF123448
:102F7700A6AF1CAE1BAD1AAC1978181210941234F8
:102F8700A6AF1CAE1BAD1AAC1978101210941234F0
:102F9700A6AF1CAE1BAD1AAC1978081210941234E8
:102FA700A6AF1C1234A67F951234A67FFF1234A653
:0E2FB700BFFF09AE030BEED3946440EFD2FAD5
:012FC50022E9
:1023EF00E4FEFA75A90375A23BE4FD7FFF1234A644
:1023FF000DBD64F7E4F51CF51BF51AF519FF122F47
:10240F0065AE070AEAD3940A5003BE01DCE4FAE48E
:10241F00F51CF51BF51AF5197F37122F65AE070A54
:10242F00EAD3946440037F0122BE01E3E4FAF51C72
:10243F00F51BF51AF5197F29122F65AE070AEAD396
:10244F00946440037F0122EE70C5EE601FE4FAE44E
:10245F00F51CF51BF51AF5197F01122F65AE070A4A
:10246F00EAD3946440037F0122EE70E3E4F51CF598
:10247F001BF51AF5197F3B122F65AE07E4F51C7596
:10248F001B02F51AF5197F10122F6575A201E4F5DD
:02249F00A9FF93
:0124A1002218
:082E9C008F588E578D568C559E
:102EA400E4FA75A903AF58AE57AD56AC557809127C
:102EB40010A78F1C8E1B8D1A8C197F11122F650A77
:102EC400EAD3940A40037F0122EF70D9C2FA123583
:102ED40015BFFEFAE4FDFC12351574002DF582745D
:102EE400003CF583EFF00DBD00010CE4B505E8EC02
:0C2EF400B402E412349FD2FAE4F5A9FF06
:012F000022AE
:082A8B008F178E168D158C14B7
:102A9300E4FA75A903AF17AE16AD15AC1478091295
:102AA30010A78F1C8E1B8D1A8C197F18122F65AEE1
:102AB300070AEAD3940A40037F0122EE70D7C2FAD1
:102AC3007FFF1234A67FFE1234A6FDFC74002DF5A1
:102AD3008274003CF583E0FF1234A60DBD00010CA7
:102AE300E4B505E8ECB402E412349AAE07EE541FE1
:102AF30064056003D2FA227FFF1234A6EF60F8D296
:052B0300FAE4F5A9FF52
:012B080022AA
:1034EA00E4F91223EFEF600809E9D3940340F322C9
:0134FA0022AF
:10008E00000000182442424242424242241800001C
:10009E00000000107010101010101010107C0000D6
:1000AE000000003C4242420404081020427E000040
:1000BE000000003C42420418040202424438000090
:1000CE00000000040C14242444447E04041E00008A
:1000DE000000007E40404058640202424438000056
:1000EE000000001C24404058644242422418000084
:1000FE000000007E4444080810101010101000007C
:10010E000000003C4242422418244242423C00007D
:10011E000000001824424242261A0202243800002F
:10012E000000001010182828243C444242E700002A
:10013E00000000F8444444784442424244F800002F
:10014E000000003E424280808080804244380000A1
:10015E00000000F8444242424242424244F800004B
:10016E00000000FC424848784848404242FC0000EB
:10017E00000000FC424848784848404040E00000FB
:10018E000000003C44448080808E8444443800004B
:10019E00000000E7424242427E42424242E70000F5
:1001AE000000007C1010101010101010107C0000B9
:1001BE000000003E0808080808080808080888F02B
:1001CE00000000EE444850705048484444EE000091
:1001DE00000000E0404040404040404042FE0000F1
:1001EE00000000EE6C6C6C6C5454545454D60000E9
:1001FE00000000C7626252524A4A4A4646E2000076
:10020E00000000384482828282828282443800005A
:10021E00000000FC424242427C40404040E0000070
:10022E0000000038448282828282B2CA4C380600B4
:10023E00000000FC4242427C4848444442E3000035
:10024E000000003E4242402018040242427C000060
:10025E00000000FE92101010101010101038000048
:10026E00000000E74242424242424242423C00000B
:10027E00000000E7424244242428281810100000F1
:10028E00000000D692929292AAAA6C4444440000B6
:10029E00000000E7422424181818242442E7000026
:1002AE00000000EE444428281010101010380000F2
:1002BE000000007E840408081020204242FC00004A
:1002CE00001E1010101010101010101010101E0024
:1002DE000000404020201010100808040404020200
:1002EE0000780808080808080808080808087800B0
:1002FE00001C2200000000000000000000000000B2
:10030E00000000000000000000000000000000FFE0
:10031E00006010000000000000000000000000005F
:10032E00000000000000003C421E2242423F00003E
:10033E00000000C0404040586442424264580000F1
:10034E00000000000000001C22404040221C000063
:10035E00000000060202021E22424242261B00003C
:10036E00000000000000003C427E4040423C000085
:10037E000000000F1110107E10101010107C0000E5
:10038E00000000000000003E444438403C42423C25
:10039E00000000C04040405C6242424242E7000022
:1003AE00000000303000007010101010107C0000A3
:1003BE000000000C0C00001C040404040404447827
:1003CE00000000C04040404E4850684844EE0000D7
:1003DE00000000701010101010101010107C000093
:1003EE0000000000000000FE4949494949ED0000A7
:1003FE0000000000000000DC6242424242E70000C2
:10040E00000000000000003C42424242423C00001C
:10041E0000000000000000D864424242447840E0F0
:10042E00000000000000001E22424242221E02076F
:10043E0000000000000000EE3220202020F8000016
:10044E00000000000000003E42403C02427C0000E2
:10045E00000000000010107C10101010100C000096
:10046E0000000000000000C642424242463B00002F
:10047E0000000000000000E74224242810100000B5
:10048E0000000000000000D79292AAAA4444000087
:10049E00000000000000006E2418181824760000DA
:1004AE0000000000000000E742242428181010E08D
:1004BE00000000000000007E44081010227E0000A4
:1004CE0000030404040404080404040404040300E4
:1004DE00080808080808080808080808080808088E
:1004EE000060101010101008101010101010600086
:1004FE00304C43000000000000000000000000002F
:10050E0000000000000000000000000000000000DD
:10051E00000000101010101010100000181800002D
:10052E000012362448000000000000000000000009
:10053E00000000242424FE484848FE484848000095
:10054E0000001038545450301814145454381010ED
:10055E0000000044A4A8A8A8541A2A2A2A4400007D
:10056E0000000030484848506EA4948889760000F8
:10057E0000606020C00000000000000000000000CD
:10058E0000020408081010101010100808040200D1
:10059E00004020101008080808080810102040001D
:1005AE00000000001010D63838D6101000000000E1
:1005BE000000000010101010FE10101010000000AF
:1005CE00000000000000000000000000606020C07D
:1005DE0000000000000000007F000000000000008E
:1005EE00000000000000000000000000606000003D
:1005FE0000000102020404080810102020404000F0
:10060E00000000000000181800000000181800007C
:10061E00000000000000001000000000001010207C
:10062E000000000204081020402010080402000000
:10063E00000000000000FE000000FE0000000000B0
:10064E0000000040201008040204081020400000A2
:10065E000000003C42426202040808001818000024
:10066E0000000038445AAAAAAAAAB442443800008C
:10067E00FFFFFFFFFFFFFFFFFFFFFFFFFFFFFFFF7C
:101D0900ED64044C6003021E2A75A6FFC2B0C2B17D
:101D1900FDC2A1EF30E704D2A08002C2A0D2A1EF98
:101D290025E0FF0DBD08EA75A6FEEB64016005EB31
:101D390064037029E4FDC2A1D287D2A0E51525E08C
:101D4900FFE51433FEA2A0E433F582EEF514EF4566
:101D590082F515C287D2A10DBD09DB8031EB640282
:101D69006005EB64047027E4FDC2A1D287D2A0E527
:101D79001525E0FFE51433FEA2A0E433F582EEF564
:101D890014EF4582F515C287D2A10DBD10DBE4FD24
:101D9900C2A1D287D2A0E51725E0FFE51633FEA23E
:101DA900A0E433F582EEF516EF4582F517C287D226
:101DB900A10DBD08DBE4FDC2A1D287D2A0E925E0CF
:101DC900FFA2A0E4334FF9C287D2A10DBD08E8E410
:101DD900FDC2A1D287D2A0E51A25E0FFA2A0E43373
:101DE9004FF51AC287D2A10DBD08E675A6FFC287B5
:101DF900D296D2B1D2A1D2A0D2B0BB010CE5154581
:101E090016F518E517F5198018EB64026008BB038D
:101E1900028003BB040BE517FEE9FDEEF518EDF5AD
:071E290019C287AE18AF19C2
:011E3000228F
:04344E00AD07AC0614
:10345200ECC2B0D296C2B1F5A0C297D2978DA0C2EB
:0534620097D297D2B0E3
:013467002242
:04346800F808E6FF7B
:02346C00AC06AC
:10346E00ECF52DC2B0D296D2B1EFF5A0C297D2979D
:02347E00D2B0CA
:013480002229
:1032E200FFAE03EE33333354F84FFFEE25E0FEC456
:0532F2003354E04BFD28
:1032F700C2B0D296D2B18FA0C297D2978DA0C297F3
:04330700D297D2B0D7
:01330B00229F
:09352000AD07AC06AF040232F75E
:101BDE001234D7D2857F967E00123412C2857F785A
:101BEE007E00123412D2857F967E001234127FC888
:101BFE007E0012344E7FFF12346C7F9312346C7F52
:101C0E004212346C7F3612344E7FC812346C7F3AD7
:101C1E0012344E7F5512346C7FC012344E7F141224
:101C2E00346C7F0E12346C7FC112344E7F0112342D
:101C3E006C7FC512344E7FF412346C7FB112344E69
:101C4E00E4FF12346C7F1B12346C7FB412344E7F5F
:101C5E000212346C7FE012344EE4FF12346C7F0EAD
:101C6E0012346C7F1812346C7F0512346C7F131291
:101C7E00346C7F0912346C7F3D12346C7F891234C0
:101C8E006C7F4A12346C7F0812346C7F0E12346CE7
:101C9E007F0A12346C7F1B12346C12346C7F0F125D
:101CAE00346C7FE112344EE4FF12346C7F21123417
:101CBE006C7F2412346C7F0312346C7F0F12346CE1
:101CCE007F0612346C7F3712346C1F12346C7F47D0
:101CDE0012346C7F0212346C7F0912346C7F07123F
:101CEE00346C7F2E12346C7F3312346C7F0F1234AF
:0B1CFE006C7F1112344E7F2902344E1F
:1026A70015791579A87976000876EF7A007B007C92
:0726B700017D3F7E007F0062
:1026BE0015791579A879A60208A60315791579A8B2
:1026CE0079A60408A60515791579A879A60608A68F
:1026DE00077F2A7E0012344EA979E7FF12346CA8C8
:1026EE007908E6FF12346CA8790808A900E7FF12F2
:1026FE00346CA879080808E6FF12346C7F2B12346C
:10270E004EE5792404F9E7FF12346CE579240412BE
:10271E003468E5792406F9E7FF12346CE57924066E
:10272E001234687F2C12344E75A903E5792408F50E
:02273E007922FE
:02328700AC0693
:103289008C0BEFF50C1226A7C2B0E4FEEEC39440F6
:1032990074809481500AAD0CAF0B1232F70E80EC9A
:0D32A9000BBB00010AEB64F04A70DFD2B0ED
:0132B60022F5
:10195B00750B6A750D02750C50E4F50EC2B0157956
:10196B001579A879F60876EFFAFB7C017D3FFEFF2F
:10197B001226BEC3EB950CEA94005054E4F50FE528
:10198B000FC3950B500BE4FD7FF81232F7050F8058
:10199B00EEE4F50FE50FC3950B500B7D1FE4FF1223
:1019AB0032F7050F80EEE4F50FE50B250DFFE43361
:1019BB00FEC3E50F9FEE6480F8748098500B7DE0BA
:1019CB007F071232F7050F80E00BBB00010A80A3E3
:1019DB00E4FAFBC3EB950CEA94005054E4F50FE5E5
:1019EB000FC3950B500B7DE07F071232F7050F806D
:1019FB00EEE4F50FE50FC3950B500BE4FD7FF812EA
:101A0B0032F7050F80EEE4F50FE50B250DFFE43300
:101A1B00FEC3E50F9FEE6480F8748098500B7D1F1A
:101A2B00E4FF1232F7050F80E00BBB00010A80A325
:101A3B00E4FAFBE50C250EFFE433FEC3EB9FEA9EB5
:101A4B005054E4F50FE50FC3950B500B7D1FE4FFCE
:101A5B001232F7050F80EEE4F50FE50FC3950B502F
:101A6B000B7DE07F071232F7050F80EEE4F50FE5F3
:101A7B000B250DFFE433FEC3E50F9FEE6480F87476
:101A8B008098500BE4FD7FF81232F7050F80E00BC6
:0B1A9B00BB00010A809DD2B0E4F5A959
:011AA600221D
:1027D5001226A7C2B07EF8E4FC7FF8FD1232F77E20
:1027E500077CE07F077DE01232F70BBB00010ABAD8
:1027F50001EDBB3EEAE4FE7C1FFF7D1F1232F7F5BB
:1028050082F5837EF8E4FC7FF8FD1232F7FAFBE4EB
:10281500FEFCFFFD1232F70BBB00010ABA01F0BB4B
:102825003EEDE4FE7C1FFF7D1F1232F7A3E58264B7
:10283500EE458370CE7EF8E4FC7FF8FD1232F7FAA0
:10284500FB7E077CE07F077DE01232F70BBB0001C2
:102855000ABA01EDBB3EEAE4FF7D1F1232F7F5A986
:02286500D2B0EF
:01286700224E
:02233A008F3ED4
:10233C001226A7C2B0D2B1E4754A2C754901F548F2
:10234C00F547AF3EFCFDFEAB4AAA49A948A8471287
:10235C000F58EF2401F542E43EF541E43DF540E42D
:10236C003CF53FE542254AF546E5413549F545E55D
:10237C00403548F544E53F3547F543AF46AE45ADEE
:10238C0044AC43AB42AA41A940A83FC312108350AE
:10239C004FAF42AE41AD40AC3F122E9CE4FBFAC3B2
:1023AC00EA9402502474002BF58274003AF583E011
:1023BC00FF74012BF58274003AF583E0FD1232F7BD
:1023CC0074022BFBE43AFA80D6E5422401F542E490
:1023DC003541F541E43540F540E4353FF53F809B10
:0223EC00D2B06D
:0123EE0022CC
:10134A001226A7E4F559F55AC3E55994005010E45A
:10135A00FDFF1232F7055AE55A70ED055980E9E4A6
:10136A00F559F55AE4F55BF55CE55AAE597803C3CD
:10137A0033CE33CED8F9FFE4FD1232F7055CE55CD3
:10138A007002055BC3940AE55B940040DC055AE5EC
:10139A005A70020559C39420E559940040C60BBB04
:1013AA0000010AEB643C4A709AE4FAFBE4F559F549
:1013BA005AC3E55994005010E4FDFF1232F7055A5A
:1013CA00E55A70ED055980E9E4F559F55AE4F55BFB
:1013DA00F55CE55A25E0FDE55933FCEDAE047803EA
:1013EA00CEC313CE13D8F9FFC007EDAE047805C3F8
:1013FA0033CE33CED8F9FDD0071232F7055CE55C5F
:10140A007002055BC3940AE55B940040C5055AE582
:10141A005A70020559C39420E559940040AF0BBB9A
:10142A0000010AEB643C4A7083E4FAFBE4F559F5DF
:10143A005AC3E55994005010E4FDFF1232F7055AD9
:10144A00E55A70ED055980E9E4F559F55AE4F55B7A
:10145A00F55CAD5AE4FF1232F7055CE55C700205F3
:10146A005BC3940AE55B940040E8055AE55A7002AA
:10147A000559C39420E559940040D20BBB00010AD8
:10148A00EB643C4A70A6E4FAFBE4F559F55AC3E565
:10149A005994005010E4FDFF1232F7055AE55A70CC
:1014AA00ED055980E9E4F559F55AE4F55BF55CE593
:1014BA005A25E0FFE55933FEEF7803CEC313CE1366
:1014CA00D8F9FFAE5AEE33333354F84FFFEE25E026
:1014DA00FEC43354E0455AFD1232F7055CE55C70F0
:1014EA0002055BC3940AE55B940040C3055AE55ABA
:1014FA0070020559C39420E559940040AD0BBB0016
:0A150A00010AEB643C4A7081D2B084
:0115140022B4
:10216B001226A7E4F55FF560E4FDFF1232F7056078
:10217B00E5607002055FC39440E55F940140E90B95
:10218B00BB00010AEB64104A70D9E4FAFBE4F55D7D
:10219B00F55EE4F55FF560EBAE027803C333CE3347
:1021AB00CED8F9FFE4FD1232F70560E56070020549
:1021BB005FC39450E55F940040DDE4F55FF560EBA1
:1021CB0025E0FDEA33FCEDAE047803CEC313CE134A
:1021DB00D8F9FFC007EDAE047805C333CE33CED8A4
:1021EB00F9FDD0071232F70560E5607002055FC399
:1021FB009450E55F940040C7E4F55FF560AD03E4F0
:10220B00FF1232F70560E5607002055FC39450E57D
:10221B005F940040E8E4F55FF560EB25E0FFEA33FF
:10222B00FEEF7803CEC313CE13D8F91232E205605A
:10223B00E5607002055FC39450E55F940040DB05D9
:10224B005EE55E7002055DC39407E55D9400500387
:10225B0002219D0BBB00010AEB64204A60030221A3
:01226B0098DA
:01226C00224F
:102B09001226A7C2B0D2B1E4F563F564E4FDFF1261
:102B190032F70564E56470020563C39440E5639484
:102B29000140E90BBB00010AEB64104A70D9E4FAD1
:102B3900FBE4F561F562E4F563F564EBAE02780355
:102B4900C333CE33CED8F9FFE4FD1232F70564E57D
:102B59006470020563C39440E563940140DD056236
:102B6900E56270020561C39407E561940040C70BF3
:0C2B7900BB00010AEB64204A70B7D2B028
:012B8500222D
:102868001226A7C2B0D2B1E4F567F568E4FDFF12FD
:1028780032F70568E56870020567C39440E5679418
:102888000140E90BBB00010AEB64304A70D9E4FA55
:10289800FBE4F565F566E4F567F568EBAE027803E9
:1028A800CEC313CE13D8F9FFC007EBAE027805C329
:1028B80033CE33CED8F9FDD0071232F70568E56874
:1028C80070020567C39440E567940140CE0566E54C
:1028D8006670020565C39403E565940040B80BBBB8
:0B28E80000010AEB64404A70A8D2B067
:0128F30022C2
:102E36001226A7C2B0D2B1E4F583F582E4FDFF12F3
:102E460032F7A3E582B440F4E583B401EF0BBB008F
:102E5600010AEB64104A70DFE4FAFBE4F575F576D7
:102E6600E4F583F582AD03E4FF1232F7A3E582B4FD
:102E760040F3E583B401EE0576E57670020575C389
:102E86009407E575940040D80BBB00010AEB64205B
:052E96004A70C8D2B033
:012E9B002214
:102B86001226A7C2B0E4F56BF56CE4FDFF1232F72E
:102B9600056CE56C7002056BC39440E56B940140CF
:102BA600E90BBB00010AEB64104A70D9E4FAFBE4B6
:102BB600F569F56AE4F56BF56CEB25E0FFEA33FEA3
:102BC600EF7803CEC313CE13D8F91232E2056CE5C3
:102BD6006C7002056BC39440E56B940140DB056A9B
:102BE600E56A70020569C39407E569940040C50B60
:0C2BF600BB00010AEB64204A70B5D2B0AD
:012C020022AF
:102980001226A7C2B0D2B1E4F50BF50CE4FBFAC3F2
:10299000EA9400500DE4FDFF1232F70BBB00010A70
:1029A00080EDE4FAFBE4F50DF50EEBAE027802C320
:1029B00033CE33CED8F97803CEC313CE13D8F9FF74
:1029C000EB25E0FE33333354F84FFFEB25E025E0F1
:1029D000C43354E04EFD1232F7050EE50E700205C9
:1029E0000DC39414E50D940040C00BBB00010AEB2D
:1029F00064104A70B0050CE50C7002050BC394F02E
:082A0000E50B94004086D2B002
:012A080022AB
:102DCA001226A7C2B0E4F56DF56EE4FBFAC3EA94E5
:102DDA0000500DE4FDFF1232F70BBB00010A80ED33
:102DEA00E4FAFBE4F56FF570EB25E0FFEA33FEEF5A
:102DFA007803CEC313CE13D8F91232E20570E57008
:102E0A007002056FC3940AE56F940040DB0BBB00A8
:102E1A00010AEB64204A70CB056EE56E7002056DFF
:0B2E2A00C394F0E56D940040A1D2B00D
:012E3500227A
:10180D001226A7E4F583F582E4FD7FF81232F7A3E3
:10181D00E582B440F3E583B401EE0BBB00010AEBA6
:10182D00641E4A70DEE4FAFBE4F583F5827DE07F09
:10183D00071232F7A3E582B440F3E583B401EE0B52
:10184D00BB00010AEB641E4A70DEE4FAFBE4F5838B
:10185D00F5827D1FE4FF1232F7A3E582B440F3E574
:10186D0083B401EE0BBB00010AEB641E4A70DEE48B
:10187D00FAFBE4F583F5827DE07FFF1232F7A3E5F5
:10188D0082B440F3E583B401EE0BBB00010AEB64B7
:10189D001E4A70DEE4FAFBE4F583F5827D1F7FF8C6
:1018AD001232F7A3E582B440F3E583B401EE0BBB2E
:1018BD0000010AEB641E4A70DEE4FAFBE4F583F5E1
:1018CD00827DFF7F071232F7A3E582B440F3E583F3
:1018DD00B401EE0BBB00010AEB641E4A70DEE4FAA4
:1018ED00FBE4F583F5827DFF7FFF1232F7A3E582DE
:1018FD00B440F3E583B401EE0BBB00010AEB641EAB
:10190D004A70DEE4FAFBE4F583F582E4FDFF123262
:10191D00F7A3E582B440F4E583B401EF0BBB0001FE
:10192D000AEB641E4A70DFE4FAFBC3EA9400501D13
:10193D00E4F583F582E4FDFF1232F7A3E582B440AE
:0D194D00F4E583B401EF0BBB00010A80DD5F
:01195A00226A
:102FC600EFC3942050047F5F8050EFC39420400CE1
:102FD600EFD3942F5006EF2428FF803EEFC39430A2
:102FE600400CEFD39439500674D02FFF802CEFC3DA
:102FF600943A400CEFD394405006EF241EFF801AFB
:10300600EFC39441400CEFD3947E5006EF24C9FFE2
:0B3016008008EFD3947E40027F5F2211
:10260300FDE43516FC851A24851B25851C26851DAE
:0526130027AB19AA1815
:062618008F1FAF05AE04A8
:10261E00EB240FFDE43A15791579A879F608A6058D
:10262E00EF2407FDE43EFC1226BEAF1F7E00D3EF63
:10263E00945FEE940040027F5FEFC4F8540FC868B9
:10264E00FFEEC454F048FE7529FF752A00752B8ED7
:10265E00EF252BF52BEE352AF52AE4F528AB2905C7
:10266E002BE52BAA2A7002052A14F9120EEAFBE4B6
:10267E00FAEBA802088002C333D8FC30E706AF2578
:10268E00AE248004AF27AE261235200ABA08E20522
:08269E0028E528C3941040C593
:0126A6002211
:102A09008B148A1589168C178D18AB14AA15A9165B
:102A1900120EEA7003D38001C34066AB140516E5B4
:102A290016AA157002051514F9120EEAFF122FC61F
:102A3900851B24851C25851D26851E27AB1AAA19E9
:102A4900AD18AC17122618D3E5189437E517940179
:102A59004012E4F517F5187410251AF51AE435191A
:102A6900F519800B74082518F518E43517F517D3EF
:102A7900E51A94DFE51994004090E4F519F51A80F8
:022A89008922A0
:102740008E148F158C168D178A188B19D3E5179454
:102750001FE5169401400675160175171FD3E5197C
:1027600094DFE5189400400CE51924EFF519E518FD
:1027700034FFF518E514C4540FFF851A24851B2572
:10278000851C26851D27AB19AA18AD17AC16122675
:1027900018E514540FFFE5172408122603E514C4A6
:1027A000F854F0C8E515C4540F48540FFFE517243A
:1027B00010122603E515540FFFE5172418FDE43524
:1027C00016FC851A24851B25851C26851D27AB191B
:0527D000AA1802261802
:1034D7007B017D047C007F04121D098E778F78E4C1
:0334E700FEFF22C3
:10320D008A0B8B0CED2401FBE43C15791579A8791B
:10321D00F608A603AB05AA04EF2401FDE43EFC125B
:10322D0026BEE50BFFAD0C1232F7E50BFFAD0C1210
:10323D0032F7E50BFFAD0C1232F7E50BFFAD0C02CB
:02324D0032F756
:0C2F01008E4B8F4C8C4D8D4E8A4F8B50A8
:102F0D0015791579A879A65108A652AA4FAB50ACE0
:102F1D004DAD4EAE4BAF4C1226BEAB50AA4FE55247
:102F2D002401FFE43551FEC3EB9FEA9E5029854CE9
:102F3D0082854B83E54E2401FFE4354DFEC3E582CA
:102F4D009FE5839E500AAF54AE53123520A380E403
:072F5D000BBB00010A80C755
:012F6400224A
:042C03008E718F72CD
:102C070075730075740FC3E57494EFE57394005002
:102C170027857351857452857153857254AB74AA95
:102C2700737D3F7C01E4FFFE122F0174102574F5BC
:102C370074E43573F57380CE75730075740FC3E54F
:102C470074943FE573940150277551007552EF85D1
:102C57007153857254E4FBFAAD74AC73AF74AE7301
:102C6700122F0174102574F574E43573F57380CE53
:012C7700223A
:1033AA00C294C295E4900233F0EF20E704C2B280DF
:1033BA0002D2B2D295EF25E0FFC295900233E00423
:0533CA00F0E0B408E48E
:0133CF0022DB
:102C78009002341210E600000000C294D2B3E4902F
:102C88000233F0900233E0FFC3940C5049C29530F0
:102C9800B33AC3740B9FFF74017E00A80708800530
:102CA800C333CE33CED8F9FFEE3395E0FDFC900266
:102CB80034E0F8A3E0F9A3E0FAA3E04FFFEA4EFE00
:102CC800E94DFDE84CFC9002341210DAD2959002DE
:102CD80033E004F080ADD294900234A3A3E0FEA3C5
:022CE800E0FF0B
:012CEA0022C7
:021E3100AB07FD
:101E3300E490021AF0A3F0A3F0D2B590021AE0C323
:101E4300940B502C20B529C294EB04FF1233AA1231
:101E53002C7890021AE025E0241DF582E43402F583
:101E630083EEF0A3EFF090021AE004F0D29480CB5B
:101E730090021AE07003021F48E4A3F090021AE0F4
:101E8300F9A3E0C3994003021F34E4A3F090021BBB
:101E9300E0FF90021AE0C39FFF90021CE0C39F4043
:101EA30003021F2BE0FF25E0241FF582E43402F533
:101EB30083E0FCA3E0FDEF25E0241DF582E434027A
:101EC300F583E0FEA3E0D39DEE9C405390021CE01B
:101ED30025E0241DF582E43402F583E0FCA3E0FD54
:101EE300900218ECF0A3EDF0EF25E0241FF582E457
:101EF3003402F583E0FEA3E0FF90021CE0FB25E043
:101F0300241DF582E43402F583EEF0A3EFF0EB2514
:101F1300E0241FF582E43402F583ECF0A3EDF090A6
:101F2300021CE004F0021E9090021BE004F0021E6B
:101F33007FE9C31325E0241DF582E43402F583E031
:081F4300FEA3E0FF22E4FEFF13
:011F4B002273
:101515009002001210E6000000009002041210E68E
:10152500000000009002081210E600000000900282
:101535000C1210E6000000009002101210E60000E8
:1015450000009002141210E600000000D2B520B58C
:10155500FD20B6030216B37F327E0012341230B579
:10156500030216A97FD0121E31E4FCFD9002081279
:1015750010DA900208E0FCA3E0FDA3E0FEA3E0245E
:10158500BDFFEE34FFFEED34FFFDEC34FFFCE47BE4
:10159500407A01F9F8120F58E47BA57A02F9F8129E
:1015A5000FE3E4120D357BB87A1E7945783F120CAE
:1015B5002F120D739002001210DA7F90121E31E483
:1015C500FCFD90020C1210DA90020CE0FCA3E0FD89
:1015D500A3E0FEA3E024A0FFEE34FFFEED34FFFD03
:1015E500EC34FFFCE47BF0FAF9F8120F58E4FB7ACF
:1015F50003F9F8120FE3E4120D357B337A3379736F
:10160500783F120C2F120D739002041210DA7F0F1F
:101615007E0012341230B503021563E4FFFEFDFCB3
:10162500900200E0F8A3E0F9A3E0FAA3E0FBC312FF
:1016350010835003021563E47F407E01FDFC900298
:1016450000E0F8A3A3A3E01210834003021563E4AE
:10165500FFFEFDFC900204E0F8A3E0F9A3E0FAA385
:10166500E0FBC31210835003021563E47FF0FEFD17
:10167500FC900204E0F8A3A3A3E012108340030248
:101685001563900200A3A3E0FEA3E0FFC006A3A399
:10169500A3E0FEA3E0FDAC06D0067B007AF812328B
:1016A5000D0215637F327E00123412021556E4FFD7
:0716B500FE123287021556F8
:100003001201100100000040C410000000000102B2
:1000130003010902200001010080FA090400000223
:10002300FF000000070502024000000705820240AE
:0A00330000000403090401000000AE
:101AA700900200EEF0A3EFF0900204EBF0A3EAF04F
:101AB700A3E9F0E4900791F0900791E0FF9000030D
:101AC70093FE74402FF582E43407F583EEF0900718
:101AD70091E004F0E0B412E0E4900791F0900791F0
:101AE700E0FF90001593FE74522FF582E43407F55A
:101AF70083EEF0900791E004F0E0B420E09002005C
:101B0700E0FEA3E0900748F0EEA3F0A3EDF0ECA30E
:101B1700F090077274FFF0A37400F0A37435F0908F
:101B27000204E0F9A3E0FAA3E0900775C9F0A3EA7D
:101B3700F0A3E9F0900207E0F9A3E0FAA3E0900729
:101B470078C9F0A3EAF0A3E9F090020AE0F9A3E06C
:101B5700FAA3E090077BC9F0A3EAF0A3E9F09002AB
:101B67000DE0FFC394FA500590075AEFF090020E6C
:101B7700E0900759F090020FE0FEA3E090074CF0C9
:101B8700EEA3F0E59620E7FB759601759708E596B5
:101B970020E7FB75960775970FE59620E7FB759687
:101BA7000975970EE59620E7FB75960B75970775F0
:101BB700D7E0123509E4900793F0900792F0900769
:101BC70094F0900786F043E602D2AFE59620E7FB54
:071BD70075960175970122CC
:10335C009007867402F0E59620E7FB759601759749
:10336C0001E490078EF0A37403F0A3F0E4900793AC
:07337C00F090079204F0221B
:10111700E59620E7FB75960EE4F597E59620E7FB45
:10112700759691E59620E7FB90079EE597F0E0FF1F
:1011370030E210E59620E7FB759611E4F5979007E6
:101147008EF022EF30E410E59620E7FB75961175D7
:101157009780E490078EF090078EE06003021248B4
:1011670090079EE020E0030212487596204396C040
:10117700E4900791F0E59620E7FB900791E0247E45
:10118700F582E43407F583E597F0900791E004F0E2
:10119700E0B407E1E59620E7FBE4F596900791E0D8
:1011A700247EF582E43407F583E597F0900781E024
:1011B700FE900780E07C002400FFEC3E900795F04E
:1011C700A3EFF0900785E0FE900784E02400FFEC92
:1011D7003E900797F0A3EFF090077FE0B40C005024
:1011E7005D9011EFF82828730212130212180212E9
:1011F7001D02122202124502122702122C02124568
:1012070002123102123602123B021240122CEB80FC
:101217003012307B802B12226D80261230D3802132
:101227001233F2801C1224A280171231C6801212C8
:101237003021800D12338380081234B080031234BA
:101247003190078EE06401600302134990079E7492
:1012570002F0C390078DE0944090078CE094004023
:1012670061E59620E7FB759620E4900791F09007DB
:1012770091E0FFC394405022900787E0FBA3E0FA78
:10128700A3E0F98F82758300120F03F597E5962087
:10129700E7FB900791E004F080D4900788E475F0AD
:1012A70040120F4290078DE024C0F090078CE03485
:1012B700FFF090078BE02440F090078AE03400F0BD
:1012C7008052E59620E7FB759620E4900791F09011
:1012D7000791E0FFD390078DE09F90078CE0940083
:1012E7004026900787E0FBA3E0FAA3E0F990079177
:1012F700E0F582758300120F03F597E59620E7FB6B
:10130700900791E004F080C790079EE04408F0E45E
:1013170090078EF0900797E0FEA3E0FF90078AE022
:10132700B50611A3E0B5070C90079EE04408F0E46A
:1013370090078EF0E59620E7FB75961190079EE0E3
:03134700F59722F5
:10343100E59620E7FB75960EE4F597E59620E7FB08
:0D34410075961175972090078E7404F02287
:102CEB0090077EE0247F6007146006240270488002
:102CFB002D90078FE0B40309900782E0B4020280A5
:102D0B000E900790E0B40316900782E0B4820F9008
:102D1B00078774FFF0A37400F0A37439800D90073C
:102D2B008774FFF0A37400F0A3743BF090078CE45E
:102D3B00F0A37402F0800312343190078EE0640428
:102D4B0060101234B090078E7401F0E490078AF093
:032D5B00A3F022C0
:10307B00900780E07041900782E0B4021DE5962036
:10308B00E7FB75960E759702E59620E7FB75961490
:10309B00759780E490078FF08020E59620E7FB750D
:1030AB00960E759702E59620E7FB7596117597407E
:1030BB00E4900790F08003123431E59620E7FB751E
:0830CB00960EE4F5970234B003
:10226D00900796E020E003022303900794E030E00E
:10227D000854FEF04402F08007900794E054FDF0FE
:10228D00E59620E7FB75960E759702E59620E7FB20
:10229D00759614759710E59620E7FB759611759751
:1022AD0008E59620E7FB759694E59620E7FB9007E9
:1022BD009DE597F0E020E4E9E59620E7FB7596149F
:1022CD00759710E59620E7FB759691E59620E7FB4F
:1022DD0090079DE597F0E020E3E9E59620E7FB7593
:1022ED0096117597089007927408F0900794E0FF87
:1022FD0030E1034401F0900795E0FCA3E0FD30E1EF
:10230D000D9007867406F0900792E04410F0ED30C2
:10231D00E20D9007867404F0900792E04420F0E5FA
:0D232D009620E7FB75960EE4F5970234B09C
:1030D300900780E07040900782E0B4021BE59620E1
:1030E300E7FB75960E759702E59620E7FB75961438
:1030F30075972090078F8019E59620E7FB75960E4C
:10310300759702E59620E7FB759611759710900762
:10311300907403F08003123431E59620E7FB759633
:073123000EE4F5970234B041
:1033F200E59620E7FBE4F596900780E0FFF597EF6E
:1034020090078660057403F080037402F00234B002
:1024A200900781E024FE601B14603B240270699057
:1024B20007877401F0A37407F0A37440F0900740FB
:1024C200E0804A9007877401F0A37407F0A3745266
:1024D200F0900755E0FE900754E07C002400FFECEA
:1024E2003E90078C802C900780E075F003A4247244
:1024F200F582E43407F583E0FBA3E0FAA3E0F99068
:102502000787EBF0A3EAF0A3E9F0120EEAFF9007C7
:102512008CE4F0A3EFF0800312343190078CE0FEDC
:10252200A3E0FF900797E0FCA3E0FDC39FEC9E5061
:102532000890078CECF0A3EDF090078EE064046045
:10254200101234B090078E7401F0E490078AF0A361
:02255200F02275
:1031C600900786E0FFB40414A374FFF0A37400F024
:1031D600A37439F090078CE4F0A304F0EFB403165F
:1031E60090078774FFF0A37400F0A3743BF0900778
:1031F6008CE4F0A304F01234B090078E7401F0E46E
:0732060090078AF0A3F022FB
:10302100900780E0D394004042900792E04440F042
:103031009007867404F0E490078FF0A3F0E59620E2
:10304100E7FB75960E759702E59620E7FB759612DC
:10305100759784E59620E7FB759615759780E5963B
:1030610020E7FB75960EE4F597800C9007867403B4
:0A307100F090078FF0A3F00234B0D6
:1033830090078774FFF0A37400F0A3743BF09007D9
:103393008CE4F0A304F01234B090078E7401F0E4CF
:0733A30090078AF0A3F0225D
:1034B00090078EE06404600BE59620E7FB7596119B
:0434C000759740229A
:030043000216BCE6
:1016BC00C0E0C0F0C083C082C0D075D000C000C0F4
:1016CC0001C002C003C004C005C006C0079007A13A
:1016DC00E596F0E59620E7FB75968EE59620E7FB00
:1016EC009007A2E597F0E59620E7FB759686E596C0
:1016FC0020E7FB900799E597F0E030E30BE59620A7
:10170C00E7FB75960B759707900799E030E203128B
:10171C00335C900799E030E014900786E0FF640496
:10172C006004EFB40607900792E04480F0E5962041
:10173C00E7FB759682E59620E7FB900799E597F015
:10174C00E030E003121117900799E030E22AE59699
:10175C0020E7FB75960E759702E59620E7FB7596CC
:10176C0091E59620E7FB90079AE597F0E05403701B
:10177C0007900792E04402F0E59620E7FB7596840B
:10178C00E59620E7FB900799E597F0E030E229E534
:10179C009620E7FB75960E759702E59620E7FB758C
:1017AC009694E59620E7FB90079AE597F0E030E0F9
:1017BC0007900792E04404F0E59620E7FB75960E3F
:1017CC009007A2E0F597E59620E7FB9007A1E59638
:1017DC00F0E59620E7FB900794E030E00990079243
:1017EC00E060031233D0D007D006D005D004D0036C
:1017FC00D002D001D000D0D0D082D083D0F0D0E0B5
:01180C0032A9
:10324F00E5B964E0602E53A90FC0A943B280E5A988
:10325F005407D394014003E4F5A9E4F5B943B980C9
:10326F00E4D5E0FD43B9C0E5B930E5FBD0E0B402E9
:08327F000343A90253A90F2229
:1032B70053D7BF43C910E5A95402900791F043B211
:1032C7008075A910E4F5B943B2200012324F900778
:0B32D70091E042A953C9EF43D7402209
:0E34FB00900792E0FFE4F022900792E0FF229B
:10255400900786E0B40606EDD3944040037F002242
:10256400E59620E7FB75960E759702E59620E7FB46
:10257400759694E59620E7FB90079CE597F0E0209C
:10258400E003022600E59620E7FB759696E5962083
:10259400E7FB900793E597F0E0FFEDC39F5006AE8D
:1025A40005AF068000900793EFF053E6FDE5962013
:1025B400E7FB7596E2900793E06025FEEB6006303A
:1025C400E70F7F0022E59620E7FBA79709DEF68058
:1025D4000F89828A83E59620E7FBE597F0A3DEF571
:1025E400E59620E7FBE4F596E59620E7FB7596145F
:0F25F400E4F59743E602900793E0FF227F002271
:101F4C00900786E0B4060DED4C6009D3ED9400ECDF
:101F5C0094104004E4FEFF2253E6FDE490079FF04A
:101F6C00A3F090079BF089828A83C083C08290077C
:101F7C009BE030E00302204DE59620E7FB75960EC2
:101F8C00759702E59620E7FB759691E59620E7FBA1
:101F9C0090079BE597F0E030E020E59620E7FB7595
:101FAC00960EE4F597E59620E7FB759691E596205D
:101FBC00E7FB90079BE597F080B4C3ED9440EC945D
:101FCC00009007A0E0401B2440F090079FE03400F5
:101FDC00F074C02DFD74FF3CFCE490079BF078403E
:101FEC0080132DF090079FE03CF090079B7401F05C
:101FFC00A805E4FCFDE59620E7FB759622D082D07F
:10200C0083E8602BEB601130E71AE59620E7FBE4E0
:10201C0093F597A3D8F48017E59620E7FB879709EB
:10202C00D8F6800BE59620E7FBE0F597A3D8F5C032
:10203C0083C082E59620E7FB759611759701021F08
:10204C007AD082D08343E60290079FE0FEA3E0FFA4
:01205C002261
:10348100900794E04401F0900792E0600BE59620EC
:09349100E7FB75960B75970F22FD
:0C350900E59620E7FB75960F7597892268
:1033D000D007D007D007D006D005D004D003D00244
:1033E000D001D000D0D0D082D083D0F0D0E0020085
:0233F0008B222E
:100C2F00EC4D6011E8497017ED33EC3304600DE4BF
:100C3F00FCFFFEFD22E933E8330470F8020DDF12EA
:100C4F000DAA58046009E4CC2481500628500902EB
:100C5F000DE9284003020DE6C0E0EB4A7044B9806D
:100C6F0006D0E0FB020DD5EF4E701CBD8008EBFFE8
:100C7F00EAFEE9FD80EBE98DF0A4FEE5F0020D1828
:100C8F00E9CDF9EAFEEBFFEF89F0A4FCE5F0CE89A0
:100C9F00F0A42EFFE435F0CD89F0A42DFEE435F05D
:100CAF008067EF4E7005BD80D780C3EF8BF0A4AC8B
:100CBF00F0EE8BF0A42CFCE435F0F8EF8AF0A42CC6
:100CCF00E5F038FCE433CB8DF0A42CFCE5F03BF8D9
:100CDF00EE8AF0A42CFCE5F038F8E433CF89F0A4C9
:100CEF002CFCE5F038CF3400CE89F0A42FFFE5F0CF
:100CFF003EFEE433C98DF0A42EFEE5F039CD8AF027
:100D0F00A42FFFE5F03EFEE43DFD33D0E0FB50079E
:100D1F000BBB000F020DE9EC2CFCEF33FFEE33FEA3
:060D2F00ED33FD020DC1D1
:100D350075F020800E75F010800575F0087D007E39
:100D4500007F003392D530D503121075EC33401077
:100D5500EF33FFEE33FEED33FDEC33FCD5F0ED2242
:0E0D6500E5F0247EA2D513CC92E7CDCEFF227E
:100D7300EDD2E7CD33EC3392D524814006E4FFFE78
:100D8300FDFC22FCE4CFCECDCC24E0501174FF80D7
:100D9300EDC3CC13CCCD13CDCE13CECF13CF047074
:070DA300F030D5DE021075EF
:100DAA00E9D2E7C933E833F892D5EDD2E7CD33EC8F
:070DBA0033FC5002B2D52208
:100DC100EC30E7100FBF000C0EBE00080DBD000493
:100DD1000BEB6014A2D5EB13FCED92E7FD2274FF3F
:100DE100FCFDFEFF22E480F8A2D574FF13FC7D8098
:030DF100E480EFAC
:030000000228F4DF
:0C28F400787FE4F6D8FD75817902293B5D
:100DF400E709F608DFFA8046E709F208DFFA803EE1
:100E040088828C83E709F0A3DFFA8032E309F608CD
:100E1400DFFA8078E309F208DFFA807088828C8335
:100E2400E309F0A3DFFA806489828A83E0A3F608E9
:100E3400DFFA805889828A83E0A3F208DFFA804CC3
:100E440080D280FA80C680D4806980F2803380109A
:100E540080A680EA809A80A880DA80E280CA803303
:100E640089828A83ECFAE493A3C8C582C8CCC5837B
:100E7400CCF0A3C8C582C8CCC583CCDFE9DEE7804B
:100E84000D89828A83E493A3F608DFF9ECFAA9F0CA
:100E9400EDFB2289828A83ECFAE0A3C8C582C8CC20
:100EA400C583CCF0A3C8C582C8CCC583CCDFEADE39
:100EB400E880DB89828A83E493A3F208DFF980CC9B
:100EC40088F0EF60010E4E60C388F0ED2402B40494
:100ED4000050B9F582EB2402B4040050AF2323453B
:060EE4008223900E44730E
:100EEA00BB010689828A83E0225002E722BBFE0206
:090EFA00E32289828A83E4932239
:100F0300BB010CE58229F582E5833AF583E02250A3
:100F130006E92582F8E622BBFE06E92582F8E222ED
:0D0F2300E58229F582E5833AF583E4932207
:100F3000EF8DF0A4A8F0CF8CF0A428CE8DF0A42ED5
:020F4000FE228F
:100F4200C5F0F8A3E028F0C5F0F8E582158270023A
:060F52001583E038F022D7
:100F5800E88FF0A4CC8BF0A42CFCE98EF0A42CFC38
:100F68008AF0EDA42CFCEA8EF0A4CDA8F08BF0A4B6
:100F78002DCC3825F0FDE98FF0A42CCD35F0FCEB15
:100F88008EF0A4FEA9F0EB8FF0A4CFC5F02ECD39DA
:0F0F9800FEE43CFCEAA42DCE35F0FDE43CFC2247
:100FA70075F008758200EF2FFFEE33FECD33CDCC01
:100FB70033CCC58233C5829BED9AEC99E582984084
:100FC7000CF582EE9BFEED9AFDEC99FC0FD5F0D661
:100FD700E4CEFBE4CDFAE4CCF9A88222B800C1B98B
:100FE7000059BA002DEC8BF084CFCECDFCE5F0CBC9
:100FF700F97818EF2FFFEE33FEED33FDEC33FCEB02
:1010070033FB10D703994004EB99FB0FD8E5E4F9BC
:10101700FA227818EF2FFFEE33FEED33FDEC33FCA9
:10102700C933C910D7059BE99A4007EC9BFCE99A9D
:10103700F90FD8E0E4C9FAE4CCFB2275F010EF2FE2
:10104700FFEE33FEED33FDCC33CCC833C810D707E2
:101057009BEC9AE899400AED9BFDEC9AFCE899F81D
:0E1067000FD5F0DAE4CDFBE4CCFAE4C8F922B0
:0E107500C3E49FFFE49EFEE49DFDE49CFC228C
:10108300EB9FF5F0EA9E42F0E99D42F0E89C45F0C3
:01109300223A
:10109400E8600FECC313FCED13FDEE13FEEF13FF3A
:0310A400D8F1225E
:1010A700E8600FEFC333FFEE33FEED33FDEC33FCA7
:0310B700D8F1224B
:1010BA007401FF3395E0FEFDFC080808E6CF2FF621
:1010CA0018E6CE3EF618E6CD3DF618E6CC3CF622FA
:0C10DA00ECF0A3EDF0A3EEF0A3EFF02289
:1010E600A8828583F0D083D0821210FD1210FD12E3
:1010F60010FD1210FDE473E493A3C583C5F0C58308
:10110600C8C582C8F0A3C583C5F0C583C8C582C853
:0111160022B6
:10290000023335E493A3F8E493A34003F68001F285
:1029100008DFF48029E493A3F85407240CC8C333D8
:10292000C4540F4420C8834004F456800146F6DFA7
:10293000E4800B010204081020408090330CE47EF8
:10294000019360BCA3FF543F30E509541FFEE4939C
:10295000A360010ECF54C025E060A840B8E493A363
:10296000FAE493A3F8E493A3C8C582C8CAC583CA8E
:10297000F0A3C8C582C8CAC583CADFE9DEE780BE46
:013334000098
:00000001FF
