:10360C00555342204445425547005553422052459C
:10361C0041440010C4EA611A03530069006C00694C
:10362C000063006F006E0020004C006100620073AC
:10363C000010035500530042002000410050004987
:10364C00000A0343003500310046000F80010001E1
:10371E00810000810700810C00810E00810F008165
:10372E000D00810400820500008408000000018164
:08373E0001AA8102558103FF7D
:10379E001232D030B620122A30123565123950123C
:1037AE002B74123565123950121C7F123565123981
:0737BE005012190480DD2206
:1038A000E4FDFCC3ED9FEC9E5014E4FBFA0BBB005F
:0E38B000010AEBF44A70F60DBD00010C80E534
:0138BE0022E7
:043565007F017E0064
:073569007858EEF208EFF2C2
:10357000E408F208F230B721E4FFFED37859E29F65
:1035800018E29E401EE4FDFC0DBD00010CEDF44C64
:1035900070F60FBF00010E80E21239507F147E00DA
:1035A0001238A0785BE22401F218E23400F2C3087A
:0935B000E2946418E2940040BCAE
:0135B90022EF
:1039500030B60512008E80F87FF47E011238A03058
:03396000B6FD228F
:10008E0078607C007DFE7BFF7A36795B7E007F0197
:10009E00120D6A7807E2700302026E785C7401F248
:1000AE00785CE2FFC39410507BEF25E025E024D36B
:1000BE00F582E43402F583E07028E2FD25E025E0C8
:1000CE0024D4F582E43402F583E0FEED25E025E04C
:1000DE0024D5F582E43402F583E0FDEDFF1238DC21
:1000EE00803A785CE225E025E024D3F582E4340200
:1000FE00F583E0B40126E2FD25E025E024D4F58267
:10010E00E43402F583E0FEED25E025E024D5F5820A
:10011E00E43402F583E0FDEDFF123843785CE2042F
:10012E00F20200AE0000000000000000000000001F
:10013E0000000000000000007BFF7A36790CE478A6
:10014E0066F208F208F208F274FF08F208F2E4FD13
:10015E00FC122C0F9002D6E020E003020253785CD2
:10016E007401F2785CE2FFC394104003020253EF75
:10017E0025E025E024D3F582E43402F583E07055C2
:10018E00E2FD25E025E024D4F582E43402F583E097
:10019E00FEED25E025E024D5F582E43402F583E07A
:1001AE00FDEDFFE2FB25E025E024D6F582E43402E6
:1001BE00F583E075F024A4FDACF0EB75F011A4FB13
:1001CE00AAF078677407F20874E0F2E408F208F215
:1001DE0012281C8068785CE2FB25E025E024D3F52C
:1001EE0082E43402F583E064017052E2FD25E025DD
:1001FE00E024D4F582E43402F583E0FEED25E0251B
:10020E00E024D5F582E43402F583E0FDEDFFEB2525
:10021E00E025E024D6F582E43402F583E075F0247F
:10022E00A4FDACF0EB75F011A4FBAAF07867E4F234
:10023E0008741FF274FF08F208F212281C785CE2B0
:10024E0004F2020171000000000000000000000036
:10025E00000000000000000000E47807F20200A198
:10026E00780DE2700302033AE4785CF2785CE2C344
:10027E0094404003020327C2B0D2B1E2FE24D3F56C
:10028E0082E43402F583E0FF74D42EF582E4340266
:10029E00F583E0FD12378BD2B0785CE2FF24D3F504
:1002AE0082E43402F583E0FE780508E2FD2401F2D3
:1002BE0018E2FC3400F2747B2DF58274003CF58359
:1002CE00EEF074D42FF582E43402F583E0FF08E2F9
:1002DE00FD2401F218E2FC3400F2747B2DF58274D9
:1002EE00003CF583EFF008E2B4002518E2B40220DA
:1002FE007808120F8A1230827804E290007BF07F29
:10030E00007E007D007C00123082E47805F208F257
:10031E00785CE22402F202027AE4780DF27BFE7A35
:10032E000079607D01FC1223D902026E7800E27022
:10033E00030204479002D6E070030203FD785C745A
:10034E0004F2785CE2C394244003020434C2B0D2B7
:10035E00B1E2FE24D3F582E43402F583E0FF74D4D7
:10036E002EF582E43402F583E0FD12378BD2B0789D
:10037E005CE2FF24D3F582E43402F583E0FE7805D7
:10038E0008E2FD2401F218E2FC3400F2747B2DF534
:10039E008274003CF583EEF074D42FF582E43402BF
:1003AE00F583E0FF08E2FD2401F218E2FC3400F2CE
:1003BE00747B2DF58274003CF583EFF008E2B400F7
:1003CE002518E2B402207808120F8A1230827804BF
:1003DE00E290007BF07F007E007D007C0012308278
:1003EE00E47805F208F2785CE22402F20203507817
:1003FE005C7404F2785CE2C39424502AC2B0D2B189
:10040E00E2FE24D3F582E43402F583E0FF74D42EA9
:10041E00F582E43402F583E0FD12378BD2B0785CBE
:10042E00E22402F280CEE47800F27BFE7A0079605C
:10043E007D01FC1223D902033A780FE27003020405
:10044E00FE785C7404F2785CE2FFC39424400302ED
:10045E0004EB74D32FF582E43402F583E07020E2CE
:10046E00FD24D4F582E43402F583E0FE74D52DF537
:10047E0082E43402F583E0FDEDFF1238DC8055781E
:10048E005CE224D3F582E43402F583E0B40120E289
:10049E00FD24D4F582E43402F583E0FE74D52DF507
:1004AE0082E43402F583E0FDEDFF123843802578B7
:1004BE005CE224D3F582E43402F583E06410701418
:1004CE00000000000000000000000000000000001E
:1004DE0000000000785CE22404F2020454E4780F79
:1004EE00F27BFE7A0079607D01FC1223D90204476B
:1004FE00780CE27003020653E4785CF2785CE2FF5B
:10050E00C394185011747B2FF582E43402F583E402
:10051E00F0E204F280E69002DAE025E0785FF290F5
:10052E0002D8E0FEA3E0FDEE785DF2ED08F2900257
:10053E00D7E06401703C18E2FE08E2FF1238DCE4FA
:10054E00785CF2785FE2FF785CE2C39F5024123948
:10055E0026785CE2FD247BF582E43402F583E4F038
:10056E00747C2DF582E43402F583EFF0E22402F27E
:10057E0080D1E4780CF27B017A02797B785FE2FD20
:10058E007C001223D97F647E001238A07BFF7A365E
:10059E007916E47866F208F208F208F274FF08F2AF
:1005AE0008F2E4FDFC122C0F9002D6E020E00302CC
:1005BE0004FE9002DBE075F024A4FDACF0785DE261
:1005CE00FE08E2FF78677407F20874E0F2E408F2BE
:1005DE0008F27B11FA12281CE4785CF2785FE2FFD5
:1005EE00785CE2F9C39F40030204FE9002DBE075E3
:1005FE00F024A4FDACF0C004C005E9C3132402FF2F
:10060E00E433FE7C007D11120DD6AA06AB07747B77
:10061E0029F582E43402F583E0FE747C29F582E448
:10062E003402F583E0FDEDFF7867E4F208741FF203
:10063E0074FF08F208F2D005D00412281C785CE290
:10064E002402F28097780EE26041E4785CF2785CE6
:10065E00E2FFC39440501174932FF582E43402F5F7
:10066E0083E4F0E204F280E69002937401F0A37446
:10067E0040F0E4A3F0A374F0F0E4780EF27B017A7C
:0B068E000279937D40FC1223D980BA52
:01069900223E
:1000460053D9BF75B283E4F5B943B980FF0FEFB456
:10005600FFFB43B9C0E5B930E5FBE4F5A943EF0280
:1000660075F1FF75A4FF75A5FF75F2FF75A6FF75FF
:10007600AEFF75F4FF43A717C286C28743E102436A
:02008600E24056
:010088002255
:1032D0001200461236E690361FE493FE740193FF07
:1032E000903621E493FC740193FD90028274FFF008
:1032F000A37436F0A3743DF0A374FFF0A37436F00A
:10330000A3744DF0903657E493900288F0903658AD
:10331000E493900289F0903659E493FB7401939002
:10332000028ACBF0A3EBF07BFF7A36792312205F81
:0C3330001238F775A17075F80F02100C30
:03003D0002374B3C
:03008B00021F222F
:101F2200C0E0C0F0C083C082C0D075D000C000C085
:0D1F320001C002C003C004C005C006C00706
:101F3F001239747855EFF220E203021FE97B017A20
:101F4F000279D37D401229817801E2FF9002D3E01C
:101F5F00FEB5071408E2FDA3E0B5050C08E2FDA3EA
:101F6F00E0B505047807806F7803E2FDB506131816
:101F7F00E2FE9002D4E0B50609A3E0B50704780CA1
:101F8F0080557802E2FF9002D3E0B5071118E2FE08
:101F9F00A3E0B50609A3E0B50504780E80397801F2
:101FAF00E2FE9002D3E0FDB506127803E2FCA3E057
:101FBF00B50409A3E0B507047800801B7803E2B5E8
:101FCF0005139002D4E0B5060C18E2FFA3E0B507A5
:101FDF0004780F8002780D7401F27855E230E70330
:101FEF0012003D7855E230E6031200467855E23094
:101FFF00E41C15081508A8087401F208743FF27A5A
:10200F00007B007C007DEF7E007F00122CBE785598
:10201F00E230E5217804E204F215081508A80874E7
:10202F0001F208743FF27A007B007C007DEF7E00A6
:05203F007F00122CBE21
:10204400D007D006D005D004D003D002D001D000F0
:0B205400D0D0D082D083D0F0D0E0329A
:0C3910007FFF12391C7FFF12391C7FFF63
:09391C008FA330FFFDC2FFAFA331
:01392500227F
:0A398E0075A3FF30FFFDC2FFAFA3D9
:01399800220C
:02317500AE07A3
:10317700E4FB123910123910C2FAEE4440FF12393B
:103187001C7866E2FC08E2FD08E2FE08E2FF781818
:10319700120F6412391C7866E2FC08E2FD08E2FEB1
:1031A70008E2FF7810120F6412391C7866E2FC08F7
:1031B700E2FD08E2FE08E2FF7808120F6412391CEC
:1031C7007866080808E2FF12391C7F9512391C7FC0
:1031D700FF12391CBFFF09AE030BEED3946440EF17
:0231E700D2FA1A
:0131E90022C3
:10276500E4FEFA75A90375A23BE4FD7FFF12391C4F
:102775000DEDB464F67866120FF300000000E4FF77
:10278500123175AE070AEAD3940A5004EEB401D9A2
:10279500E4FA7866120FF3000000007F37123175F6
:1027A500AE070AEAD3946440037F0122EEB401E246
:1027B500E4FA7866120FF3000000007F29123175E4
:1027C500AE070AEAD3946440037F0122EE70C3EE9C
:1027D500601FE4FA7866120FF3000000007F011213
:1027E5003175AE070AEAD3946440037F0122EE7087
:1027F500E37866120FF3000000007F3B123175AEDF
:10280500077866120FF3000002007F10123175750C
:06281500A201E4F5A9FF99
:01281B00229A
:05333C007810120FB62D
:10334100E4FA75A9037810E2FC08E2FD08E2FE0840
:10335100E2FF7809120F777866120FB67F111231EA
:10336100750AEAD3940A40037F0122EF70D7C2FAAB
:1033710012398EBFFEFAE4FDFC12398E747B2DF5F5
:103381008274003CF583EFF00DBD00010CE4B5053E
:0E339100E8ECB402E4123915D2FAE4F5A9FF13
:01339F00220B
:053082007861120FB699
:10308700E4FA75A9037861E2FC08E2FD08E2FE08AC
:10309700E2FF7809120F777866120FB67F181231A0
:1030A70075AE070AEAD3940A40037F0122EE70D572
:1030B700C2FA7FFF12391C7FFE12391CFDFC747B9C
:1030C7002DF58274003CF583E0FF12391C0DBD001D
:1030D700010CE4B505E8ECB402E4123910AE07EED2
:1030E700541F64056003D2FA227FFF12391CEF6078
:0730F700F8D2FAE4F5A9FF8D
:0130FE0022AF
:10396300E4F9122765EF600809E9D3940340F322D1
:013973002231
:10069A00000000182442424242424242241800000A
:1006AA00000000107010101010101010107C0000C4
:1006BA000000003C4242420404081020427E00002E
:1006CA000000003C4242041804020242443800007E
:1006DA00000000040C14242444447E04041E000078
:1006EA000000007E40404058640202424438000044
:1006FA000000001C24404058644242422418000072
:10070A000000007E44440808101010101010000069
:10071A000000003C4242422418244242423C00006B
:10072A000000001824424242261A0202243800001D
:10073A000000001010182828243C444242E7000018
:10074A00000000F8444444784442424244F800001D
:10075A000000003E4242808080808042443800008F
:10076A00000000F8444242424242424244F8000039
:10077A00000000FC424848784848404242FC0000D9
:10078A00000000FC424848784848404040E00000E9
:10079A000000003C44448080808E84444438000039
:1007AA00000000E7424242427E42424242E70000E3
:1007BA000000007C1010101010101010107C0000A7
:1007CA000000003E0808080808080808080888F019
:1007DA00000000EE444850705048484444EE00007F
:1007EA00000000E0404040404040404042FE0000DF
:1007FA00000000EE6C6C6C6C5454545454D60000D7
:10080A00000000C7626252524A4A4A4646E2000063
:10081A000000003844828282828282824438000048
:10082A00000000FC424242427C40404040E000005E
:10083A0000000038448282828282B2CA4C380600A2
:10084A00000000FC4242427C4848444442E3000023
:10085A000000003E4242402018040242427C00004E
:10086A00000000FE92101010101010101038000036
:10087A00000000E74242424242424242423C0000F9
:10088A00000000E7424244242428281810100000DF
:10089A00000000D692929292AAAA6C4444440000A4
:1008AA00000000E7422424181818242442E7000014
:1008BA00000000EE444428281010101010380000E0
:1008CA000000007E840408081020204242FC000038
:1008DA00001E1010101010101010101010101E0012
:1008EA0000004040202010101008080404040202EE
:1008FA00007808080808080808080808080878009E
:10090A00001C22000000000000000000000000009F
:10091A00000000000000000000000000000000FFCE
:10092A00006010000000000000000000000000004D
:10093A00000000000000003C421E2242423F00002C
:10094A00000000C0404040586442424264580000DF
:10095A00000000000000001C22404040221C000051
:10096A00000000060202021E22424242261B00002A
:10097A00000000000000003C427E4040423C000073
:10098A000000000F1110107E10101010107C0000D3
:10099A00000000000000003E444438403C42423C13
:1009AA00000000C04040405C6242424242E7000010
:1009BA00000000303000007010101010107C000091
:1009CA000000000C0C00001C040404040404447815
:1009DA00000000C04040404E4850684844EE0000C5
:1009EA00000000701010101010101010107C000081
:1009FA0000000000000000FE4949494949ED000095
:100A0A0000000000000000DC6242424242E70000AF
:100A1A00000000000000003C42424242423C00000A
:100A2A0000000000000000D864424242447840E0DE
:100A3A00000000000000001E22424242221E02075D
:100A4A0000000000000000EE3220202020F8000004
:100A5A00000000000000003E42403C02427C0000D0
:100A6A00000000000010107C10101010100C000084
:100A7A0000000000000000C642424242463B00001D
:100A8A0000000000000000E74224242810100000A3
:100A9A0000000000000000D79292AAAA4444000075
:100AAA00000000000000006E2418181824760000C8
:100ABA0000000000000000E742242428181010E07B
:100ACA00000000000000007E44081010227E000092
:100ADA0000030404040404080404040404040300D2
:100AEA00080808080808080808080808080808087C
:100AFA000060101010101008101010101010600074
:100B0A00304C43000000000000000000000000001C
:100B1A0000000000000000000000000000000000CB
:100B2A00000000101010101010100000181800001B
:100B3A0000123624480000000000000000000000F7
:100B4A00000000242424FE484848FE484848000083
:100B5A0000001038545450301814145454381010DB
:100B6A0000000044A4A8A8A8541A2A2A2A4400006B
:100B7A0000000030484848506EA4948889760000E6
:100B8A0000606020C00000000000000000000000BB
:100B9A0000020408081010101010100808040200BF
:100BAA00004020101008080808080810102040000B
:100BBA00000000001010D63838D6101000000000CF
:100BCA000000000010101010FE101010100000009D
:100BDA00000000000000000000000000606020C06B
:100BEA0000000000000000007F000000000000007C
:100BFA00000000000000000000000000606000002B
:100C0A0000000102020404080810102020404000DD
:100C1A00000000000000181800000000181800006A
:100C2A00000000000000001000000000001010206A
:100C3A0000000002040810204020100804020000EE
:100C4A00000000000000FE000000FE00000000009E
:100C5A000000004020100804020408102040000090
:100C6A000000003C42426202040808001818000012
:100C7A0000000038445AAAAAAAAAB442443800007A
:100C8A00FFFFFFFFFFFFFFFFFFFFFFFFFFFFFFFF6A
:0437460082530000AA
:0414AC007861EFF282
:1014B000ED6408600302159EC2B0D296C2B1E2F597
:1014C000A0C297D297D2B0E4F5A675F3FF75A0FF3E
:1014D000C2B0D2B1D297C296000000000000000056
:1014E000D28700000000AFA07864F208EFF2C28754
:1014F00000000000D29600000000C296000000002C
:1015000000000000D28700000000A9A0C2870000F0
:101510000000D29600000000C2960000000000000B
:101520000000D287000000007868E5A0F2C28700C2
:10153000000000D2960000000000000000C29600EB
:1015400000000000000000D28700000000AAA0C236
:101550008700000000D2960000000000000000D2CA
:1015600096000000000000000075A6FFEBB4010B20
:101570007865E2FEE9F582EE08801EEBB4020CE924
:10158000FE7868E2F582EE7866800EEBB4030F78A1
:1015900068E2FEEAF582EE7866F2E58208F2ED6432
:1015A000044C60030216D475A6FF7861E2FFC2B056
:1015B000C2B1E4FDC297EF30E704D2968002C29632
:1015C000D297EF25E0FF0DEDB408E975A6FEEB64B8
:1015D000016005EB6403702AE4FDC297D287D296BE
:1015E0007863E225E0FF18E233FEA296E433F58249
:1015F000EEF2EF458208F2C287D2970DEDB409DA18
:101600008032EB64026005EB64047028E4FDC2974D
:10161000D287D2967863E225E0FF18E233FEA296E5
:10162000E433F582EEF2EF458208F2C287D2970DDD
:10163000EDB410DAE4FDC297D287D2967865E22540
:10164000E0FF18E233FEA296E433F582EEF2EF45B6
:101650008208F2C287D2970DEDB408DAE4FDC29792
:10166000D287D296E925E0FFA296E4334FF9C287EC
:10167000D2970DEDB408E7E4FDC297D287D29678F1
:1016800068E225E0FFA296E4334FF2C287D2970DBD
:10169000EDB408E575A6FFC287D296D2B1D297D233
:1016A00096D2B0EBB401127863E2FE08E24EFF0876
:1016B000E208CFF208EFF2801BEB6402600AEBB4A1
:1016C00003028004EBB4040C7865E2FEE9FDEE0849
:0D16D000F2ED08F2C2877866E2FE08E2FF44
:0116DD0022EA
:0438DC00AD07AC0682
:1038E000EC787AF2C2B0D296C2B1F5A0AF058FC71C
:0638F000C297D297D2B08E
:0138F60022AF
:0A383900E5082404F8E2FE08E2FFAF
:04384300AD07AC061B
:10384700EC787AF2C2B0D296D2B1F5A0AF058FC7A5
:06385700C297D297D2B027
:01385D002248
:10377600FFAE03EE33333354F84FFFEE25E0FEC4BD
:053786003354E04BFD8F
:10378B00C2B0D296D2B18FA0AF058FC7C297D297D6
:02379B00D2B0AA
:01379D002209
:09399900AD07AC06ECFF02378B10
:10100C00123926D2857FC87E001238A0C2857FC8CF
:10101C007E001238A0D2857FC87E001238A07F01D6
:10102C007E001238DC7F000E1238437F021E12380D
:10103C00DC7F007E021238437F037E001238DC7F97
:10104C00307E101238437F047E001238DCE4FF122D
:10105C0038437F081238DC7F077E021238437F0941
:10106C007E001238DCE4FF1238437F0A1238DCE4CD
:10107C00FF1238437F0C1238DCE4FF1238437F0D2B
:10108C001238DCE4FF1238437F0F1238DCE4FF1215
:10109C0038437F101238DCE4FF1238437F111238CA
:1010AC00DC7F071238437F121238DCE4FF1238431E
:1010BC007F131238DCE4FF1238437F071238DC7FD1
:1010CC00011238437FC81238A07F107E001238DC22
:1010DC007F907E161238437F117E001238DC7F27FA
:1010EC007E021238437F327E001238A07F127E00BF
:1010FC001238DC7F0D1238437F321238A07F137EFA
:10110C00001238DC7F007E101238437F297E0012DB
:10111C0038DC7F301238437F2B1238DC7F0F1238CB
:10112C00437F321238A07F207E001238DCE4FF129D
:10113C0038437F211238DCE4FF1238437F301238F9
:10114C00DCE4FF1238437F311238DC7404FFFE12EA
:10115C0038437F327E001238DC7F031238437F35F0
:10116C001238DC7F057E041238437F367E0012383D
:10117C00DC7408FFFE1238437F377E001238DC7FA8
:10118C00077E041238437F387E001238DC7403FF6C
:10119C00FE1238437F397E001238DC7407FFFE12D2
:1011AC0038437F3C7E001238DC7F047E05123843C6
:1011BC007F3D7E001238DC7408FFFE1238437F50EE
:1011CC007E001238DCE4FF1238437F511238DC7F8A
:1011DC00EF1238437F521238DCE4FF1238437F534E
:1011EC001238DC7F3F0E1238437F601E1238DC7FD2
:1011FC00007EA71238437F617E001238DC7F01121B
:10120C0038437F6A1238DCE4FF1238437F8012388F
:10121C00DCE4FF1238437F811238DCE4FF123843E0
:10122C007F821238DCE4FF1238437F831238DCE40F
:10123C00FF1238437F841238DCE4FF1238437F8579
:10124C001238DCE4FF1238437F901238DC7F101226
:10125C0038437F921238DCE4FF1238437F07123890
:0D126C00DC7F330E1238437F221E0238DC77
:102CA500150815087401A808F208743FF27DEF7A3B
:092CB500007B007C007E007F0022
:102CBE0015081508A808EAF208EBF215081508A879
:102CCE0008ECF208EDF215081508A808EEF208EF68
:102CDE00F27F507E001238DCA80812383E7F517EFB
:102CEE00001238DCA808080812383E7F527E001207
:102CFE0038DC1238397F537E001238DCE5082406A2
:102D0E0012383D7F207E001238DCA80812383E7F34
:102D1E00217E001238DC1238397F227E001238DC18
:0A2D2E0075A903E5082408F5082242
:0236A300AC0673
:1036A500EC785AF2EFF9122CA5C2B0E47858F2087A
:1036B500F2E4FBFA785AE2FFAD0112378B0BBB003F
:1036C500010AEB64F04A70EC7859E22401F218E241
:1036D5003400F2C308E2944018E2940140D3D2B01A
:0136E50022C2
:102A3000122CA5C2B079F8E4FE7FF8FD12378B792D
:102A4000077EE07F077DE012378B0BBB00010AEBAE
:102A500064EE4A70EAE4F97E1FFF7D1F12378B781F
:102A600058F208F279F8E4FE7FF8FD12378BFAFB92
:102A7000E4F9FEFFFD12378B0BBB00010AEB64EE9D
:102A80004A70EDE4F97E1FFF7D1F12378B7859E203
:102A90002401F218E23400F2C308E2943E18E294F2
:102AA0000140C179F8E4FE7FF8FD12378BFAFB791B
:102AB000077EE07F077DE012378B0BBB00010AEB3E
:102AC00064EE4A70EAE4F97E1FFF7D1F12378BF532
:032AD000A9D2B0D8
:012AD30022E0
:101C7F0078587450F2E4785AF218746AF2785B74F8
:101C8F0002F2C2B01508150814122CAB7859E2FFF6
:101C9F00C3EB9FEA94005055E4F97858E2FFE9C38B
:101CAF009F500AE4FD7FF812378B0980EDE4F97835
:101CBF0058E2FFE9C39F500AE4FD7FF812378B0902
:101CCF0080EDE4F9785AE2FF7858E22FFFE433FE13
:101CDF00E9C39FEE6480F8748098500AE4FD7FF8A2
:101CEF0012378B0980DE0BBB00010A809FE4FAFBE1
:101CFF007859E2FFC3EB9FEA94005055E4F9785806
:101D0F00E2FFE9C39F500A7DE07F0712378B0980FE
:101D1F00EDE4F97858E2FFE9C39F500A7DE07F07B1
:101D2F0012378B0980EDE4F9785AE2FF7858E22FE9
:101D3F00FFE433FEE9C39FEE6480F8748098500A85
:101D4F007DE07F0712378B0980DE0BBB00010A8015
:101D5F009FE4FAFB785BE2FF7859E22FFFE433FE52
:101D6F00C3EB9FEA9E5055E4F97858E2FFE9C39F11
:101D7F00500A7D1FE4FF12378B0980EDE4F9785884
:101D8F00E2FFE9C39F500A7D1FE4FF12378B0980E2
:101D9F00EDE4F9785AE2FF7858E22FFFE433FEE9D9
:101DAF00C39FEE6480F8748098500A7D1FE4FF1281
:101DBF00378B0980DE0BBB00010A8098D2B0E4F5A7
:011DCF00A96A
:011DD00022F0
:1033A000AA06A907781474FFF208EAF208E9F215F0
:1033B000081508A808E4F208749FF27D7F122CB467
:1033C000E47817F208F27817E2FE08E2FFC3EE9401
:1033D00040502DEF25E0FFEE33FE7814E2FB08E2CB
:1033E000FA08E2F98F828E83120DFEFDACF0ECFF3D
:1033F00012378B7818E22401F218E23400F280C60A
:0134000022A9
:0224EA00A90740
:1024EC00122CA5C2B0D2B17821120FF30000012C2E
:1024FC00AF01E4FCFDFE7821E2FB08E2F908E2FA08
:10250C0008E2CBF8120E36EF2401FFE43EFEE43D68
:10251C00FDE43CFC7819120FB67821E2FC08E2FDD0
:10252C0008E2FE08E2FF7819E2FB08E2F908E2FA99
:10253C0008E2CBF8EB2FFFEA3EFEE93DFDE83CFC60
:10254C00781D8078781DE2FC08E2FD08E2FE08E2C6
:10255C00FF7819E2FB08E2F908E2FA08E2CBF8C3CB
:10256C00120F53505C7819E2FC08E2FD08E2FE08F9
:10257C00E2FF12333CE4FBFAC3EA94025024747B6E
:10258C002BF58274003AF583E0FF747C2BF5827492
:10259C00003AF583E0FD12378B74022BFBE43AFA18
:1025AC0080D67819E2FC08E2FD08E2FE08E224017C
:1025BC00FFE43EFEE43DFDE43CFC7819120FB680CE
:0325CC0083D2B007
:0125CF0022E9
:1016DE00122CA5E47825F208F2E4FDFF12378B7880
:1016EE0026E22401F218E23400F2C308E294101844
:1016FE00E2940040E4E47825F208F2E47827F20858
:10170E00F27825E2FE08E27803C333CE33CED8F961
:10171E00FFE4FD12378B7828E22401F218E2340040
:10172E00F2C308E2940718E2940040D57826E2242A
:10173E0001F218E23400F2C308E2942018E2940099
:10174E0040B90BBB00010AEB64504A7086E4FAFB09
:10175E00E47825F208F2E4FDFF12378B7826E224B6
:10176E0001F218E23400F2C308E2941018E2940079
:10177E0040E4E47825F208F2E47827F208F27826BD
:10178E00E225E0FD18E233FCEDAE047803CEC31380
:10179E00CE13D8F9FFC007EDAE047805C333CE33B0
:1017AE00CED8F9FDD00712378B7828E22401F21833
:1017BE00E23400F2C308E2940718E2940040BF78C6
:1017CE0026E22401F218E23400F2C308E294201853
:1017DE00E2940040A30BBB00010AEB64504A600385
:1017EE0002175EE4FAFBE47825F208F2E4FDFF123C
:1017FE00378B7826E22401F218E23400F2C308E2B5
:10180E00941018E2940040E4E47825F208F2E478AB
:10181E0027F208F2782508E2FDE4FF12378B7828CC
:10182E00E22401F218E23400F2C308E2940718E24F
:10183E00940040E07826E22401F218E23400F2C36C
:10184E0008E2942018E2940040C40BBB00010AEB9E
:10185E0064504A7091E4FAFBE47825F208F2E4FD54
:10186E00FF12378B7826E22401F218E23400F2C31D
:10187E0008E2941018E2940040E4E47825F208F2AD
:10188E00E47827F208F27825E2FC08E2FD25E0FF75
:10189E00EC33FEEF7803CEC313CE13D8F9FFAE05AB
:1018AE00EE33333354F84FFFEE25E0C43354E0FEED
:1018BE00782508E24EFD12378B7828E22401F218C3
:1018CE00E23400F2C308E2940718E2940040B778BD
:1018DE0026E22401F218E23400F2C308E294201842
:1018EE00E29400409B0BBB00010AEB64504A60037C
:0518FE00021866D2B0E3
:0119030022C1
:10219600122CA5C3EA94005029E4782BF208F2E445
:1021A600FDFF12378B782CE22401F218E23400F29C
:1021B600C308E294F018E2940040E40BBB00010A65
:1021C60080D1E4FAFBE47829F208F2E4782BF208ED
:1021D600F2EBAE027803C333CE33CED8F9FFE4FD7B
:1021E60012378B782CE22401F218E23400F2C3088D
:1021F600E2943C18E2940040D8E4782BF208F2EB23
:1022060025E0FDEA33FCEDAE047803CEC313CE130E
:10221600D8F9FFC007EDAE047805C333CE33CED868
:10222600F9FDD00712378B782CE22401F218E2343C
:1022360000F2C308E2943C18E2940040C2E4782B12
:10224600F208F2AD03E4FF12378B782CE22401F298
:1022560018E23400F2C308E2943C18E2940040E32A
:10226600E4782BF208F2EB25E0FFEA33FEEF780381
:10227600CEC313CE13D8F9123776782CE22401F2A6
:1022860018E23400F2C308E2943C18E2940040D607
:10229600782AE22401F218E23400F2C308E2940A32
:1022A60018E2940050030221D10BBB00010AEB6433
:0722B600204A60030221CB66
:0122BD0022FE
:102D3800122CA5C2B0D2B1C3EA94005029E4782F6E
:102D4800F208F2E4FDFF12378B7830E22401F21822
:102D5800E23400F2C308E294F018E2940040E40B75
:102D6800BB00010A80D1E4FAFBE4782DF208F2E412
:102D7800782FF208F2EBAE027803C333CE33CED805
:102D8800F9FFE4FD12378B7830E22401F218E234BF
:102D980000F2C308E294F018E2940040D8782EE2DA
:102DA8002401F218E23400F2C308E2940A18E2940B
:102DB8000040BC0BBB00010AEB64204A70ABD2B0E8
:012DC80022E8
:102AD400122CA5C2B0D2B1C3EA94005029E47833D1
:102AE400F208F2E4FDFF12378B7834E22401F21885
:102AF400E23400F2C308E294F018E2940040E40BDC
:102B0400BB00010A80D1E4FAFBE47831F208F2E474
:102B14007833F208F2EBAE027803CEC313CE13D8A7
:102B2400F9FFC007EBAE027805C333CE33CED8F934
:102B3400FDD00712378B7834E22401F218E2340016
:102B4400F2C308E294F018E2940040C97832E22417
:102B540001F218E23400F2C308E2940518E294008A
:0F2B640040AD0BBB00010AEB64404A709CD2B03D
:012B7300223F
:102F7600122CA5C2B0D2B1C3EA94005029E4783726
:102F8600F208F2E4FDFF12378B7838E22401F218DA
:102F9600E23400F2C308E294F018E2940040E40B35
:102FA600BB00010A80D1E4FAFBE47835F208F2E4CA
:102FB6007837F208F2AD03E4FF12378B7838E22453
:102FC60001F218E23400F2C308E294F018E2940029
:102FD60040E37836E22401F218E23400F2C308E254
:102FE600940A18E2940040C70BBB00010AEB642068
:052FF6004A70B6D2B0E4
:012FFB0022B3
:102DC900122CA5C2B0C3EA94005029E4783BF2085A
:102DD900F2E4FDFF12378B783CE22401F218E23469
:102DE90000F2C308E294F018E2940040E40BBB003F
:102DF900010A80D1E4FAFBE47839F208F2E4783B7D
:102E0900F208F2EB25E0FFEA33FEEF7803CEC313B5
:102E1900CE13D8F9123776783CE22401F218E2345D
:102E290000F2C308E294F018E2940040D6783AE23E
:102E39002401F218E23400F2C308E2940A18E29479
:102E49000040BA0BBB00010AEB64204A70A9D2B05A
:012E59002256
:102B7400122CA5C2B0D2B1E47858F208F2E4FBFA00
:102B8400C3EA9400500DE4FDFF12378B0BBB000128
:102B94000A80EDE4FAFBE4785AF208F2EBAE02782C
:102BA40002C333CE33CED8F97803CEC313CE13D8B1
:102BB400F9FFAE03EE25E0F933333354F84FFFEE5B
:102BC40025E025E0FEC43354E049FD12378B785BE1
:102BD400E22401F218E23400F2C308E2940F18E28E
:102BE400940040B80BBB00010AEB64104A70A7784C
:102BF40059E22401F218E23400F2C308E2944018C6
:0A2C0400E294015003022B81D2B0CC
:012C0E0022A3
:1030FF00122CA5C2B0E4783DF208F2E4FBFAE4FD2D
:10310F00FF12378B0BBB00010AEB64104A70EFE420
:10311F00FAFBE4783FF208F2EB25E0FFEA33FEEF2B
:10312F007803CEC313CE13D8F91237767840E22442
:10313F0001F218E23400F2C308E2940718E2940097
:10314F0040D60BBB00010AEB64204A70C5783EE203
:10315F002401F218E23400F2C308E2944018E2941A
:05316F00014098D2B000
:013174002238
:101AC500122CA5E47841F208F2E4FD7FF812378B79
:101AD5007842E22401F218E23400F2C308E294F0FD
:101AE50018E2940040E30BBB00010AEB64284A703E
:101AF500D2E4FAFBE47841F208F27DE07F07123781
:101B05008B7842E22401F218E23400F2C308E29431
:101B1500F018E2940040E30BBB00010AEB64284A8D
:101B250070D2E4FAFBE47841F208F27D1FE4FF127B
:101B3500378B7842E22401F218E23400F2C308E25E
:101B450094F018E2940040E30BBB00010AEB642813
:101B55004A70D2E4FAFBE47841F208F27DE07FFFB7
:101B650012378B7842E22401F218E23400F2C308FE
:101B7500E294F018E2940040E30BBB00010AEB6429
:101B8500284A70D2E4FAFBE47841F208F27D1F7F1F
:101B9500F812378B7842E22401F218E23400F2C3DE
:101BA50008E294F018E2940040E30BBB00010AEB55
:101BB50064284A70D2E4FAFBE47841F208F27DFF2A
:101BC5007F0712378B7842E22401F218E23400F2E3
:101BD500C308E294F018E2940040E30BBB00010A4D
:101BE500EB64284A70D2E4FAFBE47841F208F27D0E
:101BF500FF7FFF12378B7842E22401F218E23400AE
:101C0500F2C308E294F018E2940040E30BBB000134
:101C15000AEB64284A70D2E4FAFBE47841F208F250
:101C2500E4FDFF12378B7842E22401F218E234001A
:101C3500F2C308E294F018E2940040E40BBB000103
:101C45000AEB64284A70D3E4FAFBC3EA94005029EE
:101C5500E47841F208F2E4FDFF12378B7842E22482
:101C650001F218E23400F2C308E294F018E294009D
:091C750040E40BBB00010A80D120
:011C7E002243
:10340100EFC3942050047F5F8050EFC39420400CA1
:10341100EFD3942F5006EF2428FF803EEFC3943062
:10342100400CEFD39439500674D02FFF802CEFC39A
:10343100943A400CEFD394405006EF241EFF801ABB
:10344100EFC39441400CEFD3947E5006EF24C9FFA3
:0B3451008008EFD3947E40027F5F22D2
:10269D00FD18E23400FC7865E2FA08E2FB08E2F589
:1026AD008308E2F5827871E583F208E582F27869B4
:1026BD00E2F58308E2F5827873E583F208E582F2AC
:0626CD00A907AF05AE04F1
:1026D300EB240FFCE43A15081508A808F208CCF21D
:1026E300EF2407FDE43EFC122CBEAF017E00D3EFC6
:1026F300945FEE940040027F5FEFC4F8540FC86804
:10270300FFEEC454F048FE787674FFF2087406F2C4
:1027130008749AF2E22FF218E23EF2E47875F27846
:1027230076E2FB0808E2F92401F218E2FA3400F237
:10273300120D90FBE4FAEBA802088002C333D8FC25
:1027430030E704787180027873E2FE08E2FF123901
:10275300990AEAB408E07875E204F2E2C3941040FF
:01276300BEB7
:012764002252
:102C0F007861EBF208EAF208E9F208ECF208EDF26B
:102C1F007861E2FB08E2FA08E2F9120D907003D333
:102C2F008001C340707861E2FB0808E2F92401F2E9
:102C3F0018E2FA3400F2120D90FF1234017864E2B8
:102C4F00FC08E2FD08E2FA08E2FB08E2F58308E27D
:102C5F00F5827871E583F208E582F2786A1226BD73
:102C6F00D37865E294E718E29400400BE4F208F29F
:102C7F007867E2241080057865E22408F218E234C0
:102C8F0000F2D37867E2942F18E294014082E4F2C5
:062C9F0008F2022C1F22C6
:10281C007861EEF208EFF27865EAF208EBF2786391
:10282C00ECF208EDF2D394CFEC9400400718E4F2EC
:10283C000874CFF27865E2FE08E2FFD3942FEE9491
:10284C00014009EF24EFF2EE34FF18F27861E2C494
:10285C00540FFF7863E2FC08E2FD081226A57861AC
:10286C00E2540FFF7864E2240812269D7961E3C4D8
:10287C00F854F0C809E3C4540F48540FFF7864E2CD
:10288C00241012269D7862E2540FFF7864E224181B
:10289C00FD18E23400FC7865E2FA08E2FB08E2F588
:1028AC008308E2F5827871E583F208E582F27869B3
:1028BC00E2F58308E2F5827873E583F208E582F2AB
:0328CC000226CD14
:103926007B027D087C00E4FF1214AC7853EEF208AB
:06393600EFF2E4FEFF22A7
:1035BA007858EAF208EBF2ED2401FAE43C15081512
:1035CA0008A808F208CAF2AB05AA04EF2401FDE430
:1035DA003EFC122CBE7858E2FC08E2FDECFF1237E2
:1035EA008B18E2FC08E2FDECFF12378B18E2FC08AC
:1035FA00E2FDECFF12378B18E2FC08E2FDECFF0259
:02360A00378BFC
:102FFC007843EEF208EFF28B828A8308ECF208ED4C
:01300C00F2D1
:10300D007849E2FF08E215081508A808CFF208EF85
:10301D00F27843E2FE08E2FF122CBEAE83AF827857
:10302D004DEEF208EFF2784AE22401FF18E2340087
:10303D00FEC3784EE29F18E29E50397843E2FE08B7
:10304D00E2FBAA067846E22401FF18E23400FEC333
:10305D00EB9FEA9E5011784BE2FE08E2FF12399980
:10306D000BBB00010A80DD784EE22401F218E23438
:04307D0000F280B22B
:01308100222C
:072E5A00784FEEF208EFF2E1
:102E610008E4F208740FF2C37852E2943F18E29436
:102E7100015030E2FA08E2FB7849EAF208EBF27815
:102E81004FE2FF08E2784BCFF208EFF27DEF7C00D2
:102E9100E4FFFE122FFC7852E22410F218E2340013
:102EA100F280C47851E4F208740FF2C37852E294CC
:102EB100EF18E294005031E2FC08E2FDFFAE047825
:102EC100497401F208743FF2784FE2FB08E2784B53
:102ED100CBF208EBF2E4FBFA122FFC7852E2241059
:082EE100F218E23400F280C394
:012EE90022C6
:0839A200545020544553540019
:10381300C294C295E49002AEF0EF20E704C2B280F6
:1038230002D2B2D295EF25E0FFC2959002AEE0043A
:05383300F0E0B408E420
:01383800226D
:1031EA009002AF120FC200000000C294D2B3E49062
:1031FA0002AEF09002AEE0FFC3940C5049C2953083
:10320A00B33AC3740B9FFF74017E00A807088005B8
:10321A00C333CE33CED8F9FFEE3395E0FDFC9002EE
:10322A00AFE0F8A3E0F9A3E0FAA3E04FFFEA4EFE0D
:10323A00E94DFDE84CFC9002AF120FAAD29590021C
:10324A00AEE004F080ADD2949002AFA3A3E0FEA357
:02325A00E0FF93
:01325C00224F
:0222BE00AB076C
:1022C000E4900295F0A3F0A3F0D2B5900295E0C39C
:1022D000940B502C20B529C294EB04FF1238131232
:1022E00031EA900295E025E02498F582E43402F585
:1022F00083EEF0A3EFF0900295E004F0D29480CB4F
:10230000900295E070030223D5E4A3F0900295E0DB
:10231000F9A3E0C39940030223C1E4A3F09002961D
:10232000E0FF900295E0C39FFF900297E0C39F40BB
:10233000030223B8E0FF25E0249AF582E43402F595
:1023400083E0FCA3E0FDEF25E02498F582E434026D
:10235000F583E0FEA3E0D39DEE9C4053900297E00E
:1023600025E02498F582E43402F583E0FCA3E0FD47
:10237000900293ECF0A3EDF0EF25E0249AF582E4CF
:102380003402F583E0FEA3E0FF900297E0FB25E036
:102390002498F582E43402F583EEF0A3EFF0EB2508
:1023A000E0249AF582E43402F583ECF0A3EDF0909A
:1023B0000297E004F002231D900296E004F002234D
:1023C0000CE9C31325E02498F582E43402F583E098
:0823D000FEA3E0FF22E4FEFF82
:0123D80022E2
:1019040090027B120FC20000000090027F120FC2EF
:1019140000000000900283120FC200000000900239
:1019240087120FC20000000090028B120FC2000049
:10193400000090028F120FC200000000E4FFFE12AC
:1019440036A37BFF7A3979A2E47866F208F208F2CA
:1019540008F274FF08F208F2E4FDFC122C0FD2B571
:1019640020B5FD20B603021AA07F327E001238A0F3
:1019740030B503021A967FD01222BEE4FCFD900219
:1019840083120FAA900283E0FCA3E0FDA3E0FEA370
:10199400E024BDFFEE34FFFEED34FFFDEC34FFFC2C
:1019A400E47BF0FAF9F8120E36E47BA57A02F9F832
:1019B400120EC190027B120FAA7F901222BEE4FC89
:1019C400FD900287120FAA900287E0FCA3E0FDA31A
:1019D400E0FEA3E024A0FFEE34FFFEED34FFFDECB7
:1019E40034FFFCE47B407A01F9F8120E36E4FB7A0A
:1019F40003F9F8120EC190027F120FAA7F0F7E0026
:101A04001238A030B503021974E4FFFEFDFC900205
:101A14007BE0F8A3E0F9A3E0FAA3E0FBC3120F53C1
:101A24005003021974E47FF0FEFDFC90027BE0F8A1
:101A3400A3A3A3E0120F534003021974E4FFFEFDB5
:101A4400FC90027FE0F8A3E0F9A3E0FAA3E0FBC373
:101A5400120F535003021974E47F407E01FDFC9081
:101A6400027FE0F8A3A3A3E0120F5340030219740A
:101A740090027BA3A3E0FEA3E0FFC006A3A3A3E020
:101A8400FEA3E0FDAC06D0067B007AF81235BA025C
:101A940019747F327E001238A0021967E4FFFE1227
:101AA40036A37BFF7A3979A2E47866F208F208F269
:101AB40008F274FF08F208F2E4FDFC122C0F02197C
:011AC40067BA
:100003001201100100000040C410000000000102B2
:1000130003010902200001010080FA090400000223
:10002300FF000000070502024000000705820240AE
:0A00330000000403090401000000AE
:10205F0090027BEEF0A3EFF090027FEBF0A3EAF09B
:10206F00A3E9F0E4900791F0900791E0FF9000034F
:10207F0093FE74402FF582E43407F583EEF090075A
:10208F0091E004F0E0B412E0E4900791F090079132
:10209F00E0FF90001593FE74522FF582E43407F59C
:1020AF0083EEF0900791E004F0E0B420E090027B23
:1020BF00E0FEA3E0900748F0EEA3F0A3EDF0ECA351
:1020CF00F090077274FFF0A37400F0A37435F090D2
:1020DF00027FE0F9A3E0FAA3E0900775C9F0A3EA45
:1020EF00F0A3E9F0900282E0F9A3E0FAA3E09007F1
:1020FF0078C9F0A3EAF0A3E9F0900285E0F9A3E034
:10210F00FAA3E090077BC9F0A3EAF0A3E9F09002ED
:10211F0088E0FFC394FA500590075AEFF0900289B8
:10212F00E0900759F090028AE0FEA3E090074CF090
:10213F00EEA3F0E59620E7FB759601759708E596F7
:10214F0020E7FB75960775970FE59620E7FB7596C9
:10215F000975970EE59620E7FB75960B7597077532
:10216F00D7E0123982E4900793F0900792F090072E
:10217F0094F0900786F043E602D2AFE59620E7FB96
:07218F00759601759701220E
:1037C5009007867402F0E59620E7FB7596017597DC
:1037D50001E490078EF0A37403F0A3F0E49007933F
:0737E500F090079204F022AE
:10127900E59620E7FB75960EE4F597E59620E7FBE2
:10128900759691E59620E7FB90079EE597F0E0FFBC
:1012990030E210E59620E7FB759611E4F597900783
:1012A9008EF022EF30E410E59620E7FB7596117574
:1012B9009780E490078EF090078EE060030213AAEE
:1012C90090079EE020E0030213AA7596204396C07A
:1012D900E4900791F0E59620E7FB900791E0247EE2
:1012E900F582E43407F583E597F0900791E004F07F
:1012F900E0B407E1E59620E7FBE4F596900791E075
:10130900247EF582E43407F583E597F0900781E0C0
:10131900FE900780E07C002400FFEC3E900795F0EA
:10132900A3EFF0900785E0FE900784E02400FFEC2E
:101339003E900797F0A3EFF090077FE0B40C0050C0
:101349005D901351F828287302137502137A02135A
:101359007F0213840213A702138902138E0213A7B3
:1013690002139302139802139D0213A212325D8095
:10137900301234B6802B1225D0802612350E8021EA
:10138900123880801C1228CF801712365C80121206
:10139900345C800D1237EC800812393C8003123816
:1013A900BF90078EE0640160030214AB90079E743E
:1013B90002F0C390078DE0944090078CE0940040C0
:1013C90061E59620E7FB759620E4900791F0900778
:1013D90091E0FFC394405022900787E0FBA3E0FA15
:1013E900A3E0F98F82758300120DA9F597E5962080
:1013F900E7FB900791E004F080D4900788E475F04A
:1014090040120DE890078DE024C0F090078CE0347D
:10141900FFF090078BE02440F090078AE03400F059
:101429008052E59620E7FB759620E4900791F090AD
:101439000791E0FFD390078DE09F90078CE094001F
:101449004026900787E0FBA3E0FAA3E0F990079113
:10145900E0F582758300120DA9F597E59620E7FB63
:10146900900791E004F080C790079EE04408F0E4FB
:1014790090078EF0900797E0FEA3E0FF90078AE0BF
:10148900B50611A3E0B5070C90079EE04408F0E407
:1014990090078EF0E59620E7FB75961190079EE080
:0314A900F5972292
:1038BF00E59620E7FB75960EE4F597E59620E7FB76
:0D38CF0075961175972090078E7404F022F5
:10325D0090077EE0247F600714600624027048808A
:10326D002D90078FE0B40309900782E0B40202802D
:10327D000E900790E0B40316900782E0B4820F9091
:10328D00078774FFF0A37400F0A37439800D9007C5
:10329D008774FFF0A37400F0A3743BF090078CE4E7
:1032AD00F0A37402F080031238BF90078EE064041F
:1032BD00601012393C90078E7401F0E490078AF08B
:0332CD00A3F02249
:1034B600900780E07041900782E0B4021DE59620F7
:1034C600E7FB75960E759702E59620E7FB75961451
:1034D600759780E490078FF08020E59620E7FB75CE
:1034E600960E759702E59620E7FB7596117597403F
:1034F600E4900790F080031238BFE59620E7FB754D
:08350600960EE4F59702393C32
:1025D000900796E020E003022666900794E030E042
:1025E0000854FEF04402F08007900794E054FDF098
:1025F000E59620E7FB75960E759702E59620E7FBBA
:10260000759614759710E59620E7FB7596117597EA
:1026100008E59620E7FB759694E59620E7FB900782
:102620009DE597F0E020E4E9E59620E7FB75961438
:10263000759710E59620E7FB759691E59620E7FBE8
:1026400090079DE597F0E020E3E9E59620E7FB752C
:1026500096117597089007927408F0900794E0FF20
:1026600030E1034401F0900795E0FCA3E0FD30E188
:102670000D9007867406F0900792E04410F0ED305C
:10268000E20D9007867404F0900792E04420F0E594
:0D2690009620E7FB75960EE4F59702393CA5
:10350E00900780E07040900782E0B4021BE59620A1
:10351E00E7FB75960E759702E59620E7FB759614F8
:10352E0075972090078F8019E59620E7FB75960E0C
:10353E00759702E59620E7FB759611759710900723
:10354E00907403F080031238BFE59620E7FB759662
:07355E000EE4F59702393C71
:10388000E59620E7FBE4F596900780E0FFF597EFDB
:1038900090078660057403F080037402F002393CDF
:1028CF00900781E024FE601B14603B240270699026
:1028DF0007877401F0A37407F0A37440F0900740CA
:1028EF00E0804A9007877401F0A37407F0A3745235
:1028FF00F0900755E0FE900754E07C002400FFECB9
:10290F003E90078C802C900780E075F003A4247212
:10291F00F582E43407F583E0FBA3E0FAA3E0F99036
:10292F000787EBF0A3EAF0A3E9F0120D90FF9007F1
:10293F008CE4F0A3EFF080031238BF90078CE0FE19
:10294F00A3E0FF900797E0FCA3E0FDC39FEC9E5030
:10295F000890078CECF0A3EDF090078EE064046014
:10296F001012393C90078E7401F0E490078AF0A39F
:02297F00F02244
:10365C00900786E0FFB40414A374FFF0A37400F089
:10366C00A37439F090078CE4F0A304F0EFB40316C4
:10367C0090078774FFF0A37400F0A3743BF09007DD
:10368C008CE4F0A304F012393C90078E7401F0E442
:07369C0090078AF0A3F02261
:10345C00900780E0D394004042900792E04440F003
:10346C009007867404F0E490078FF0A3F0E59620A3
:10347C00E7FB75960E759702E59620E7FB7596129D
:10348C00759784E59620E7FB759615759780E596FC
:10349C0020E7FB75960EE4F597800C900786740375
:0A34AC00F090078FF0A3F002393C06
:1037EC0090078774FFF0A37400F0A3743BF090076C
:1037FC008CE4F0A304F012393C90078E7401F0E4D1
:07380C0090078AF0A3F022EF
:10393C0090078EE06404600BE59620E7FB7596110A
:04394C007597402209
:03004300021DD1CA
:101DD100C0E0C0F0C083C082C0D075D000C000C0D8
:101DE10001C002C003C004C005C006C0079007A11E
:101DF100E596F0E59620E7FB75968EE59620E7FBE4
:101E01009007A2E597F0E59620E7FB759686E596A3
:101E110020E7FB900799E597F0E030E30BE596208A
:101E2100E7FB75960B759707900799E030E203126F
:101E310037C5900799E030E014900786E0FF64040D
:101E41006004EFB40607900792E04480F0E5962025
:101E5100E7FB759682E59620E7FB900799E597F0F9
:101E6100E030E003121279900799E030E22AE5961A
:101E710020E7FB75960E759702E59620E7FB7596B0
:101E810091E59620E7FB90079AE597F0E0540370FF
:101E910007900792E04402F0E59620E7FB759684EF
:101EA100E59620E7FB900799E597F0E030E229E518
:101EB1009620E7FB75960E759702E59620E7FB7570
:101EC1009694E59620E7FB90079AE597F0E030E0DD
:101ED10007900792E04404F0E59620E7FB75960E23
:101EE1009007A2E0F597E59620E7FB9007A1E5961C
:101EF100F0E59620E7FB900794E030E00990079227
:101F0100E0600312385ED007D006D005D004D003BC
:101F1100D002D001D000D0D0D082D083D0F0D0E098
:011F2100328D
:1036E600E5B964E0602E53A90FC0A943B280E5A9ED
:1036F6005407D394014003E4F5A9E4F5B943B9802E
:10370600E4D5E0FD43B9C0E5B930E5FBD0E0B4024D
:083716000343A90253A90F228D
:10374B0053D7BF43C910E5A95402900791F043B278
:10375B008075A910E4F5B943B220001236E6900744
:0B376B0091E042A953C9EF43D7402270
:0E397400900792E0FFE4F022900792E0FF221D
:10298100900786E0B40606EDD3944040037F002211
:10299100E59620E7FB75960E759702E59620E7FB15
:1029A100759694E59620E7FB90079CE597F0E0206B
:1029B100E003022A2DE59620E7FB759696E5962021
:1029C100E7FB900793E597F0E0FFEDC39F5006AE5C
:1029D10005AF068000900793EFF053E6FDE59620E2
:1029E100E7FB7596E2900793E06025FEEB60063009
:1029F100E70F7F0022E59620E7FBA79709DEF68027
:102A01000F89828A83E59620E7FBE597F0A3DEF53F
:102A1100E59620E7FBE4F596E59620E7FB7596142D
:0F2A2100E4F59743E602900793E0FF227F00223F
:1023D900900786E0B4060DED4C6009D3ED9400EC4E
:1023E90094104004E4FEFF2253E6FDE490079FF0B9
:1023F900A3F090079BF089828A83C083C0829007EB
:102409009BE030E0030224DAE59620E7FB75960E9F
:10241900759702E59620E7FB759691E59620E7FB0F
:1024290090079BE597F0E030E020E59620E7FB7503
:10243900960EE4F597E59620E7FB759691E59620CB
:10244900E7FB90079BE597F080B4C3ED9440EC94CB
:10245900009007A0E0401B2440F090079FE0340063
:10246900F074C02DFD74FF3CFCE490079BF07840AC
:1024790080132DF090079FE03CF090079B7401F0CA
:10248900A805E4FCFDE59620E7FB759622D082D0ED
:1024990083E8602BEB601130E71AE59620E7FBE44F
:1024A90093F597A3D8F48017E59620E7FB8797095A
:1024B900D8F6800BE59620E7FBE0F597A3D8F5C0A1
:1024C90083C082E59620E7FB759611759701022472
:1024D90007D082D08343E60290079FE0FEA3E0FF86
:0124E90022D0
:1038F700900794E04401F0900792E0600BE5962072
:09390700E7FB75960B75970F2282
:0C398200E59620E7FB75960F75978922EB
:10385E00D007D007D007D006D005D004D003D002B1
:10386E00D001D000D0D0D082D083D0F0D0E00200F2
:02387E008B229B
:03000000022EEAE3
:0C2EEA00787FE4F6D8FD758108022F31D6
:100C9A00E709F608DFFA8046E709F208DFFA803E3C
:100CAA0088828C83E709F0A3DFFA8032E309F60829
:100CBA00DFFA8078E309F208DFFA807088828C8391
:100CCA00E309F0A3DFFA806489828A83E0A3F60845
:100CDA00DFFA805889828A83E0A3F208DFFA804C1F
:100CEA0080D280FA80C680D4806980F280338010F6
:100CFA0080A680EA809A80A880DA80E280CA80335F
:100D0A0089828A83ECFAE493A3C8C582C8CCC583D6
:100D1A00CCF0A3C8C582C8CCC583CCDFE9DEE780A6
:100D2A000D89828A83E493A3F608DFF9ECFAA9F025
:100D3A00EDFB2289828A83ECFAE0A3C8C582C8CC7B
:100D4A00C583CCF0A3C8C582C8CCC583CCDFEADE94
:100D5A00E880DB89828A83E493A3F208DFF980CCF6
:100D6A0088F0EF60010E4E60C388F0ED2402B404EF
:100D7A000050B9F582EB2402B4040050AF23234596
:060D8A008223900CEA73C5
:100D9000BB010689828A83E0225002E722BBFE0261
:090DA000E32289828A83E4932294
:100DA900BB010CE58229F582E5833AF583E02250FF
:100DB90006E92582F8E622BBFE06E92582F8E22249
:0D0DC900E58229F582E5833AF583E4932263
:100DD600EF8DF0A4A8F0CF8CF0A428CE8DF0A42E31
:020DE600FE22EB
:100DE800C5F0F8A3E028F0C5F0F8E5821582700296
:060DF8001583E038F02233
:100DFE00BB0110E58229F582E5833AF583E0F5F033
:100E0E00A3E0225009E92582F886F008E622BBFE0F
:100E1E000AE92582F8E2F5F008E222E5832AF58355
:080E2E00E993F5F0A3E993221A
:100E3600E88FF0A4CC8BF0A42CFCE98EF0A42CFC5B
:100E46008AF0EDA42CFCEA8EF0A4CDA8F08BF0A4D9
:100E56002DCC3825F0FDE98FF0A42CCD35F0FCEB38
:100E66008EF0A4FEA9F0EB8FF0A4CFC5F02ECD39FD
:0F0E7600FEE43CFCEAA42DCE35F0FDE43CFC226A
:100E850075F008758200EF2FFFEE33FECD33CDCC24
:100E950033CCC58233C5829BED9AEC99E5829840A7
:100EA5000CF582EE9BFEED9AFDEC99FC0FD5F0D684
:100EB500E4CEFBE4CDFAE4CCF9A88222B800C1B9AE
:100EC5000059BA002DEC8BF084CFCECDFCE5F0CBEC
:100ED500F97818EF2FFFEE33FEED33FDEC33FCEB25
:100EE50033FB10D703994004EB99FB0FD8E5E4F9E0
:100EF500FA227818EF2FFFEE33FEED33FDEC33FCCD
:100F0500C933C910D7059BE99A4007EC9BFCE99AC0
:100F1500F90FD8E0E4C9FAE4CCFB2275F010EF2F05
:100F2500FFEE33FEED33FDCC33CCC833C810D70705
:100F35009BEC9AE899400AED9BFDEC9AFCE899F840
:0E0F45000FD5F0DAE4CDFBE4CCFAE4C8F922D3
:100F5300EB9FF5F0EA9E42F0E99D42F0E89C45F0F4
:010F6300226B
:100F6400E8600FECC313FCED13FDEE13FEEF13FF6B
:030F7400D8F1228F
:100F7700E8600FEFC333FFEE33FEED33FDEC33FCD8
:030F8700D8F1227C
:100F8A007401FF3395E0FEFDFC080808E2CF2FF25A
:100F9A0018E2CE3EF218E2CD3DF218E2CC3CF22243
:0C0FAA00ECF0A3EDF0A3EEF0A3EFF022BA
:0C0FB600ECF208EDF208EEF208EFF22277
:100FC200A8828583F0D083D082120FD9120FD91252
:100FD2000FD9120FD9E473E493A3C583C5F0C58377
:100FE200C8C582C8F0A3C583C5F0C583C8C582C879
:010FF20022DC
:100FF300D083D082E493F208740193F208740293CD
:09100300F208740393F274047303
:102EF60002379EE493A3F8E493A34003F68001F21D
:102F060008DFF48029E493A3F85407240CC8C333DC
:102F1600C4540F4420C8834004F456800146F6DFAB
:102F2600E4800B010204081020408090371EE47EE6
:102F3600019360BCA3FF543F30E509541FFEE493A0
:102F4600A360010ECF54C025E060A840B8E493A367
:102F5600FAE493A3F8E493A3C8C582C8CAC583CA92
:102F6600F0A3C8C582C8CAC583CADFE9DEE780BE4A
:01374A00007E
:00000001FF
