:1037A2005553422044454255470055534220524505
:1037B20041440010C4EA611A03530069006C0069B5
:1037C2000063006F006E0020004C00610062007315
:1037D20000100355005300420020004100500049F0
:1037E200000A0343003500310046000F800100014A
:1038B400810000810700810C00810E00810F0081CE
:1038C4000D008104008205000084080000000181CD
:0838D40001AA8102558103FFE6
:1039340012346630B620122BBA1236FB123AE01259
:103944002D9D1236FB123AE0121DC71236FB123AB5
:07395400E012186A80DD2279
:103A1100E4FDFCC3ED9FEC9E5014E4FBFA0BBB00EC
:0E3A2100010AEBF44A70F60DBD00010C80E5C1
:013A2F002274
:0436FB007F017E00CD
:0736FF007859EEF208EFF22A
:10370600E408F208F230B721E4FFFED3785AE29FCC
:1037160018E29E401EE4FDFC0DBD00010CEDF44CCC
:1037260070F60FBF00010E80E2123AE07F147E00B1
:10373600123A11785CE22401F218E23400F2C3086E
:09374600E2946418E2940040BC16
:01374F002257
:103AE00030B60512008E80F87FF47E01123A113054
:033AF000B6FD22FE
:10008E0078617C007DFE7BFF7A3779F17E007F01FF
:10009E00120F2F7807E2700302026E785D7401F280
:1000AE00785DE2FFC39410507BEF25E025E024D469
:1000BE00F582E43402F583E07028E2FD25E025E0C8
:1000CE0024D5F582E43402F583E0FEED25E025E04B
:1000DE0024D6F582E43402F583E0FDEDFF123A6C8E
:1000EE00803A785DE225E025E024D4F582E43402FE
:1000FE00F583E0B40126E2FD25E025E024D5F58266
:10010E00E43402F583E0FEED25E025E024D6F58209
:10011E00E43402F583E0FDEDFF123A34785DE2043B
:10012E00F20200AE0000000000000000000000001F
:10013E0000000000000000007BFF7A3779A2E4780F
:10014E0067F208F208F208F274FF08F208F2E4FD12
:10015E00FC122E389002D7E020E003020253785DA5
:10016E007401F2785DE2FFC394104003020253EF74
:10017E0025E025E024D4F582E43402F583E07055C1
:10018E00E2FD25E025E024D5F582E43402F583E096
:10019E00FEED25E025E024D6F582E43402F583E079
:1001AE00FDEDFFE2FB25E025E024D7F582E43402E5
:1001BE00F583E075F024A4FDACF0EB75F011A4FB13
:1001CE00AAF078687407F20874E0F2E408F208F214
:1001DE001229A68068785DE2FB25E025E024D4F59F
:1001EE0082E43402F583E064017052E2FD25E025DD
:1001FE00E024D5F582E43402F583E0FEED25E0251A
:10020E00E024D6F582E43402F583E0FDEDFFEB2524
:10021E00E025E024D7F582E43402F583E075F0247E
:10022E00A4FDACF0EB75F011A4FBAAF07868E4F233
:10023E0008741FF274FF08F208F21229A6785DE224
:10024E0004F2020171000000000000000000000036
:10025E00000000000000000000E47807F20200A198
:10026E00780DE2700302033AE4785DF2785DE2C342
:10027E0094404003020327C2B0D2B1E2FE24D4F56B
:10028E0082E43402F583E0FF74D52EF582E4340265
:10029E00F583E0FD123921D2B0785DE2FF24D4F56A
:1002AE0082E43402F583E0FE780508E2FD2401F2D3
:1002BE0018E2FC3400F2747C2DF58274003CF58358
:1002CE00EEF074D52FF582E43402F583E0FF08E2F8
:1002DE00FD2401F218E2FC3400F2747C2DF58274D8
:1002EE00003CF583EFF008E2B4002518E2B40220DA
:1002FE00780812115D1232187804E290007CF07FBB
:10030E00007E007D007C00123218E47805F208F2BF
:10031E00785DE22402F202027AE4780DF27BFE7A34
:10032E000079617D01FC12255D02026E7800E2709B
:10033E00030204479002D7E070030203FD785D7458
:10034E0004F2785DE2C394244003020434C2B0D2B6
:10035E00B1E2FE24D4F582E43402F583E0FF74D5D5
:10036E002EF582E43402F583E0FD123921D2B07805
:10037E005DE2FF24D4F582E43402F583E0FE7805D5
:10038E0008E2FD2401F218E2FC3400F2747C2DF533
:10039E008274003CF583EEF074D52FF582E43402BE
:1003AE00F583E0FF08E2FD2401F218E2FC3400F2CE
:1003BE00747C2DF58274003CF583EFF008E2B400F6
:1003CE002518E2B40220780812115D123218780452
:1003DE00E290007CF07F007E007D007C00123218DF
:1003EE00E47805F208F2785DE22402F20203507816
:1003FE005D7404F2785DE2C39424502AC2B0D2B187
:10040E00E2FE24D4F582E43402F583E0FF74D52EA7
:10041E00F582E43402F583E0FD123921D2B0785D25
:10042E00E22402F280CEE47800F27BFE7A0079615B
:10043E007D01FC12255D02033A780FE2700302047F
:10044E00FE785D7404F2785DE2FFC39424400302EB
:10045E0004EB74D42FF582E43402F583E07020E2CD
:10046E00FD24D5F582E43402F583E0FE74D62DF535
:10047E0082E43402F583E0FDEDFF123A6C8055788C
:10048E005DE224D4F582E43402F583E0B40120E287
:10049E00FD24D5F582E43402F583E0FE74D62DF505
:1004AE0082E43402F583E0FDEDFF123A34802578C4
:1004BE005DE224D4F582E43402F583E06410701416
:1004CE00000000000000000000000000000000001E
:1004DE0000000000785DE22404F2020454E4780F78
:1004EE00F27BFE7A0079617D01FC12255D020447E4
:1004FE00780CE27003020653E4785DF2785DE2FF59
:10050E00C394185011747C2FF582E43402F583E401
:10051E00F0E204F280E69002DBE025E07860F290F3
:10052E0002D9E0FEA3E0FDEE785EF2ED08F2900255
:10053E00D8E06401703C18E2FE08E2FF123A6CE467
:10054E00785DF27860E2FF785DE2C39F5024123A44
:10055E00B6785DE2FD247CF582E43402F583E4F0A6
:10056E00747D2DF582E43402F583EFF0E22402F27D
:10057E0080D1E4780CF27B017A02797C7860E2FD1E
:10058E007C0012255D7F647E00123A117BFF7A3764
:10059E0079ACE47867F208F208F208F274FF08F218
:1005AE0008F2E4FDFC122E389002D7E020E00302A0
:1005BE0004FE9002DCE075F024A4FDACF0785EE25F
:1005CE00FE08E2FF78687407F20874E0F2E408F2BD
:1005DE0008F27B11FA1229A6E4785DF27860E2FF48
:1005EE00785DE2F9C39F40030204FE9002DCE075E1
:1005FE00F024A4FDACF0C004C005E9C3132402FF2F
:10060E00E433FE7C007D11120F9BAA06AB07747CAF
:10061E0029F582E43402F583E0FE747D29F582E447
:10062E003402F583E0FDEDFF7868E4F208741FF202
:10063E0074FF08F208F2D005D0041229A6785DE204
:10064E002402F28097780EE26041E4785DF2785DE4
:10065E00E2FFC39440501174942FF582E43402F5F6
:10066E0083E4F0E204F280E69002947401F0A37445
:10067E0040F0E4A3F0A374F0F0E4780EF27B017A7C
:0B068E000279947D40FC12255D80BACB
:01069900223E
:1038390053D9BF75B283E4F5B943B980FF0FEFB42B
:10384900FFFB43B9C0E5B930E5FBE4F5A943EF0255
:1038590075F1FF75A4FF75A5FF75F2FF75A6FF75D4
:10386900AEFF75F4FF43A717C286C28743E102433F
:02387900E2402B
:01387B00222A
:1034660012383912387C9037B5E493FE740193FF15
:103476009037B7E493FC740193FD90028374FFF0D8
:10348600A37437F0A374D3F0A374FFF0A37437F0DA
:10349600A374E3F09037EDE493900289F09037EE51
:1034A600E49390028AF09037EFE493FB74019390D3
:1034B600028BCBF0A3EBF07BFF7A3779B91221E3CD
:0C34C600123A8775A17075F80F021A42C7
:03003D000238E1A5
:03008B000220A6AA
:1020A600C0E0C0F0C083C082C0D075D000C000C000
:0D20B60001C002C003C004C005C006C00781
:1020C300123B047856EFF220E20302216D7B017A82
:1020D3000279D47D40122B0B7801E2FF9002D4E009
:1020E300FEB5071408E2FDA3E0B5050C08E2FDA365
:1020F300E0B505047807806F7803E2FDB506131891
:10210300E2FE9002D5E0B50609A3E0B50704780C1A
:1021130080557802E2FF9002D4E0B5071118E2FE81
:10212300A3E0B50609A3E0B50504780E803978016C
:10213300E2FE9002D4E0FDB506127803E2FCA3E0D0
:10214300B50409A3E0B507047800801B7803E2B562
:1021530005139002D5E0B5060C18E2FFA3E0B5071E
:1021630004780F8002780D7401F27856E230E703A9
:1021730012003D7856E230E6031238397856E230E1
:10218300E41C15081508A8087401F208743FF27AD4
:10219300007B007C007DEF7E007F00122D187856B7
:1021A300E230E5217804E204F215081508A8087462
:1021B30001F208743FF27A007B007C007DEF7E0021
:0521C3007F00122D1841
:1021C800D007D006D005D004D003D002D001D0006B
:0B21D800D0D0D082D083D0F0D0E03215
:0C3AA0007FFF123AAC7FFF123AAC7FFFB0
:093AAC008FA330FFFDC2FFAFA3A0
:013AB50022EE
:0A3B1E0075A3FF30FFFDC2FFAFA347
:013B2800227A
:02330B00AE070B
:10330D00E4FB123AA0123AA0C2FAEE4440FF123A80
:10331D00AC7867E2FC08E2FD08E2FE08E2FF7818EF
:10332D00121137123AAC7867E2FC08E2FD08E2FEB2
:10333D0008E2FF7810121137123AAC7867E2FC08F8
:10334D00E2FD08E2FE08E2FF7808121137123AACEE
:10335D007867080808E2FF123AAC7F95123AAC7F05
:10336D00FF123AACBFFF09AE030BEED3946440EFEE
:02337D00D2FA82
:01337F00222B
:1028EF00E4FEFA75A90375A23BE4FD7FFF123AAC33
:1028FF000DEDB464F678671211C600000000E4FF16
:10290F0012330BAE070AEAD3940A5004EEB401D97E
:10291F00E4FA78671211C6000000007F3712330BFC
:10292F00AE070AEAD3946440037F0122EEB401E2BA
:10293F00E4FA78671211C6000000007F2912330BEA
:10294F00AE070AEAD3946440037F0122EE70C3EE10
:10295F00601FE4FA78671211C6000000007F0112B1
:10296F00330BAE070AEAD3946440037F0122EE7063
:10297F00E378671211C6000000007F3B12330BAEE5
:10298F000778671211C6000002007F1012330B7513
:06299F00A201E4F5A9FF0E
:0129A500220F
:0534D2007810121189C1
:1034D700E4FA75A9037810E2FC08E2FD08E2FE08A9
:1034E700E2FF780912114A78671211897F111233A6
:1034F7000B0AEAD3940A40037F0122EF70D7C2FA7E
:10350700123B1EBFFEFAE4FDFC123B1E747C2DF538
:103517008274003CF583EFF00DBD00010CE4B505A6
:0E352700E8ECB402E4123AA5D2FAE4F5A9FFEA
:013535002273
:0532180078621211892B
:10321D00E4FA75A9037862E2FC08E2FD08E2FE0813
:10322D00E2FF780912114A78671211897F1812335B
:10323D000BAE070AEAD3940A40037F0122EE70D544
:10324D00C2FA7FFF123AAC7FFE123AACFDFC747CE1
:10325D002DF58274003CF583E0FF123AAC0DBD00F4
:10326D00010CE4B505E8ECB402E4123AA0AE07EEA9
:10327D00541F64056003D2FA227FFF123AACEF604F
:07328D00F8D2FAE4F5A9FFF5
:013294002217
:103AF300E4F91228EFEF600809E9D3940340F322B5
:013B0300229F
:10069A00000000182442424242424242241800000A
:1006AA00000000107010101010101010107C0000C4
:1006BA000000003C4242420404081020427E00002E
:1006CA000000003C4242041804020242443800007E
:1006DA00000000040C14242444447E04041E000078
:1006EA000000007E40404058640202424438000044
:1006FA000000001C24404058644242422418000072
:10070A000000007E44440808101010101010000069
:10071A000000003C4242422418244242423C00006B
:10072A000000001824424242261A0202243800001D
:10073A000000001010182828243C444242E7000018
:10074A00000000F8444444784442424244F800001D
:10075A000000003E4242808080808042443800008F
:10076A00000000F8444242424242424244F8000039
:10077A00000000FC424848784848404242FC0000D9
:10078A00000000FC424848784848404040E00000E9
:10079A000000003C44448080808E84444438000039
:1007AA00000000E7424242427E42424242E70000E3
:1007BA000000007C1010101010101010107C0000A7
:1007CA000000003E0808080808080808080888F019
:1007DA00000000EE444850705048484444EE00007F
:1007EA00000000E0404040404040404042FE0000DF
:1007FA00000000EE6C6C6C6C5454545454D60000D7
:10080A00000000C7626252524A4A4A4646E2000063
:10081A000000003844828282828282824438000048
:10082A00000000FC424242427C40404040E000005E
:10083A0000000038448282828282B2CA4C380600A2
:10084A00000000FC4242427C4848444442E3000023
:10085A000000003E4242402018040242427C00004E
:10086A00000000FE92101010101010101038000036
:10087A00000000E74242424242424242423C0000F9
:10088A00000000E7424244242428281810100000DF
:10089A00000000D692929292AAAA6C4444440000A4
:1008AA00000000E7422424181818242442E7000014
:1008BA00000000EE444428281010101010380000E0
:1008CA000000007E840408081020204242FC000038
:1008DA00001E1010101010101010101010101E0012
:1008EA0000004040202010101008080404040202EE
:1008FA00007808080808080808080808080878009E
:10090A00001C22000000000000000000000000009F
:10091A00000000000000000000000000000000FFCE
:10092A00006010000000000000000000000000004D
:10093A00000000000000003C421E2242423F00002C
:10094A00000000C0404040586442424264580000DF
:10095A00000000000000001C22404040221C000051
:10096A00000000060202021E22424242261B00002A
:10097A00000000000000003C427E4040423C000073
:10098A000000000F1110107E10101010107C0000D3
:10099A00000000000000003E444438403C42423C13
:1009AA00000000C04040405C6242424242E7000010
:1009BA00000000303000007010101010107C000091
:1009CA000000000C0C00001C040404040404447815
:1009DA00000000C04040404E4850684844EE0000C5
:1009EA00000000701010101010101010107C000081
:1009FA0000000000000000FE4949494949ED000095
:100A0A0000000000000000DC6242424242E70000AF
:100A1A00000000000000003C42424242423C00000A
:100A2A0000000000000000D864424242447840E0DE
:100A3A00000000000000001E22424242221E02075D
:100A4A0000000000000000EE3220202020F8000004
:100A5A00000000000000003E42403C02427C0000D0
:100A6A00000000000010107C10101010100C000084
:100A7A0000000000000000C642424242463B00001D
:100A8A0000000000000000E74224242810100000A3
:100A9A0000000000000000D79292AAAA4444000075
:100AAA00000000000000006E2418181824760000C8
:100ABA0000000000000000E742242428181010E07B
:100ACA00000000000000007E44081010227E000092
:100ADA0000030404040404080404040404040300D2
:100AEA00080808080808080808080808080808087C
:100AFA000060101010101008101010101010600074
:100B0A00304C43000000000000000000000000001C
:100B1A0000000000000000000000000000000000CB
:100B2A00000000101010101010100000181800001B
:100B3A0000123624480000000000000000000000F7
:100B4A00000000242424FE484848FE484848000083
:100B5A0000001038545450301814145454381010DB
:100B6A0000000044A4A8A8A8541A2A2A2A4400006B
:100B7A0000000030484848506EA4948889760000E6
:100B8A0000606020C00000000000000000000000BB
:100B9A0000020408081010101010100808040200BF
:100BAA00004020101008080808080810102040000B
:100BBA00000000001010D63838D6101000000000CF
:100BCA000000000010101010FE101010100000009D
:100BDA00000000000000000000000000606020C06B
:100BEA0000000000000000007F000000000000007C
:100BFA00000000000000000000000000606000002B
:100C0A0000000102020404080810102020404000DD
:100C1A00000000000000181800000000181800006A
:100C2A00000000000000001000000000001010206A
:100C3A0000000002040810204020100804020000EE
:100C4A00000000000000FE000000FE00000000009E
:100C5A000000004020100804020408102040000090
:100C6A000000003C42426202040808001818000012
:100C7A0000000038445AAAAAAAAAB442443800007A
:100C8A00FFFFFFFFFFFFFFFFFFFFFFFFFFFFFFFF6A
:0438DC008254000012
:041412007862EFF21B
:10141600ED64086003021504C2B0D296C2B1E2F5CB
:10142600A0C297D297D2B0E4F5A675F3FF75A0FFD8
:10143600C2B0D2B1D297C2960000000000000000F0
:10144600D28700000000AFA07865F208EFF2C287ED
:1014560000000000D29600000000C29600000000C6
:1014660000000000D28700000000A9A0C28700008B
:101476000000D29600000000C296000000000000A6
:101486000000D287000000007869E5A0F2C287005C
:10149600000000D2960000000000000000C2960086
:1014A60000000000000000D28700000000AAA0C2D1
:1014B6008700000000D2960000000000000000D265
:1014C60096000000000000000075A6FFEBB4010BBB
:1014D6007866E2FEE9F582EE08801EEBB4020CE9BE
:1014E600FE7869E2F582EE7867800EEBB4030F783A
:1014F60069E2FEEAF582EE7867F2E58208F2ED64CB
:10150600044C600302163A75A6FF7862E2FFC2B089
:10151600C2B1E4FDC297EF30E704D2968002C296CC
:10152600D297EF25E0FF0DEDB408E975A6FEEB6452
:10153600016005EB6403702AE4FDC297D287D29658
:101546007864E225E0FF18E233FEA296E433F582E2
:10155600EEF2EF458208F2C287D2970DEDB409DAB2
:101566008032EB64026005EB64047028E4FDC297E8
:10157600D287D2967864E225E0FF18E233FEA2967F
:10158600E433F582EEF2EF458208F2C287D2970D78
:10159600EDB410DAE4FDC297D287D2967866E225DA
:1015A600E0FF18E233FEA296E433F582EEF2EF4551
:1015B6008208F2C287D2970DEDB408DAE4FDC2972D
:1015C600D287D296E925E0FFA296E4334FF9C28787
:1015D600D2970DEDB408E7E4FDC297D287D296788C
:1015E60069E225E0FFA296E4334FF2C287D2970D57
:1015F600EDB408E575A6FFC287D296D2B1D297D2CE
:1016060096D2B0EBB401127864E2FE08E24EFF080F
:10161600E208CFF208EFF2801BEB6402600AEBB43B
:1016260003028004EBB4040C7866E2FEE9FDEE08E2
:0D163600F2ED08F2C2877867E2FE08E2FFDD
:011643002284
:043A6C00AD07AC06F0
:103A7000EC787BF2C2B0D296C2B1F5A0AF058FC789
:063A8000C297D297D2B0FC
:013A8600221D
:043A3000F808E2FFB1
:043A3400AD07AC0628
:103A3800EC787BF2C2B0D296D2B1F5A0AF058FC7B1
:063A4800C297D297D2B034
:013A4E002255
:10390C00FFAE03EE33333354F84FFFEE25E0FEC425
:05391C003354E04BFDF7
:10392100C2B0D296D2B18FA0AF058FC7C297D2973E
:02393100D2B012
:013933002271
:093B2900AD07AC06ECFF023921E6
:101A4200123AB6D2857FC87E00123A11C2857FC88B
:101A52007E00123A11D2857FC87E00123A117FCFE2
:101A62007E00123A6CE4FF123A347FC3123A347F9A
:101A720030123A347FED123A6C7F64123A347F03AB
:101A8200123A347F12123A347F81123A347FE812CA
:101A92003A6C7F85123A34E4FF123A347F78123A74
:101AA200347FCB123A6C7F39123A347F2C123A349B
:101AB200E4FF123A347F34123A347F02123A347F0E
:101AC200F7123A6C7F20123A347FEA123A6CE4FF42
:101AD200123A34E4FF123A347FC0123A6C7F191280
:101AE2003A347FC1123A6C7F11123A347FC5123AEE
:101AF2006C7F3C123A347F3F123A347FC7123A6C01
:101B02007F9C123A347F36123A6C7F08123A347F45
:101B12003A123A6C7F55123A347FB1123A6CE4FFB2
:101B2200123A347F17123A347FB6123A6C7F0A1295
:101B32003A347FA2123A347FF6123A6C7F01123A9B
:101B4200347F30123A347FF2123A6CE4FF123A34A4
:101B52007F26123A6C7F01123A347FE0123A6C7F90
:101B62000F123A347F26123A347F22123A347F0A15
:101B7200123A347F10123A347F0A123A347F4C12EE
:101B82003A347FCA123A347F36123A34E4FF123AB8
:101B9200347F15123A34E4FF123A347F10123A3489
:101BA2007F10123A34E4FF123A347FE1123A6CE4C5
:101BB200FF123A347F19123A347F1B123A347F05EE
:101BC200123A347F0F123A347F05123A347F3312BD
:101BD2003A347F35123A347F49123A347F0F123A3F
:101BE200347F1F123A347F0F123A347F3F123A3455
:101BF2007F3F123A347F0F123A347F11123A6C7FD0
:0B1C020078123A117F297E00023A6C34
:102CFE00F2150815087401A808F208743FF27DEF6A
:0A2D0E007A007B007C007E007F004D
:102D180015081508A808EAF208EBF215081508A81E
:102D280008ECF208EDF215081508A808EEF208EF0D
:102D3800F27F2A7E00123A6CA908E3FF123A34A8FF
:102D48000808E2FF123A34A8080808A900E3FF12AD
:102D58003A34A808080808E2FF123A347F2B123ADE
:102D68006CE5082404F9E3FF123A34E50824041258
:102D78003A30E5082406F9E3FF123A34E508240658
:102D8800123A307F2C123A6C75A90375A902E5082E
:052D98002408F50822EB
:02004600AC0606
:10004800EC785BF2EF08122CFEC2B0E47859F208A3
:10005800F2E4FBFA785BE2FF08E2FD1239210BBB00
:1000680000010AEB64F04A70EB785AE22401F218B6
:10007800E23400F2C308E2944018E2940140D2D27C
:01008800B0C7
:010089002254
:102BBA00122CFFC2B079F8E4FE7FF8FD12392179B0
:102BCA00077EE07F077DE01239210BBB00010AEB8B
:102BDA0064EE4A70EAE4F97E1FFF7D1F12392178FC
:102BEA0059F208F279F8E4FE7FF8FD123921FAFB6E
:102BFA00E4F9FEFFFD1239210BBB00010AEB64EE7A
:102C0A004A70EDE4F97E1FFF7D1F123921785AE2DE
:102C1A002401F218E23400F2C308E2943E18E29466
:102C2A000140C179F8E4FE7FF8FD123921FAFB79F7
:102C3A00077EE07F077DE01239210BBB00010AEB1A
:102C4A0064EE4A70EAE4F97E1FFF7D1F123921F50E
:032C5A00A9D2B04C
:012C5D002254
:101DC70078597450F2E4785BF218746AF2785C74AC
:101DD70002F2C2B01508150814122D05785AE2FF51
:101DE700C3EB9FEA94005069E4785DF27859E2FF0B
:101DF700785DE2C39F500CE4FD7FF8123921E204BD
:101E0700F280E9E4785DF27859E2FF785DE2C39FFA
:101E1700500CE4FD7FF8123921E204F280E9E478FE
:101E27005DF2785BE2FF7859E22FFFE433FE785DDD
:101E3700E2C39FEE6480F8748098500EE4FD7FF84B
:101E4700123921785DE204F280D80BBB00010A80C9
:101E57008BE4FAFB785AE2FFC3EB9FEA94005069E0
:101E6700E4785DF27859E2FF785DE2C39F500C7D1C
:101E7700E07F07123921E204F280E9E4785DF27825
:101E870059E2FF785DE2C39F500C7DE07F0712396E
:101E970021E204F280E9E4785DF2785BE2FF7859A9
:101EA700E22FFFE433FE785DE2C39FEE6480F874AF
:101EB7008098500E7DE07F07123921785DE204F2A9
:101EC70080D80BBB00010A808BE4FAFB785CE2FF49
:101ED700785AE22FFFE433FEC3EB9FEA9E5069E492
:101EE700785DF27859E2FF785DE2C39F500C7D1F61
:101EF700E4FF123921E204F280E9E4785DF27859CF
:101F0700E2FF785DE2C39F500C7D1FE4FF12392189
:101F1700E204F280E9E4785DF2785BE2FF7859E267
:101F27002FFFE433FE785DE2C39FEE6480F8748090
:101F370098500E7D1FE4FF123921785DE204F2808C
:0D1F4700D80BBB00010A8084D2B0E4F5A9DC
:011F5400226A
:10353600AA06A907781474FFF208EAF208E9F21558
:10354600081508A808E4F208749FF27D7F122D0E74
:10355600E47817F208F27817E2FE08E2FFC3EE9469
:1035660040502DEF25E0FFEE33FE7814E2FB08E233
:10357600FA08E2F98F828E83120FC3FDACF0ECFFDE
:103586001239217818E22401F218E23400F280C6DA
:013596002212
:03266E007819EFE9
:10267100122CFEC2B0D2B178221211C60000012C78
:102681007819E2FFE4FCFDFE7822E2FB08E2F9089A
:10269100E2FA08E2CBF8120FFBEF2401FFE43EFE61
:1026A100E43DFDE43CFC781A1211897822E2FC0831
:1026B100E2FD08E2FE08E2FF781AE2FB08E2F9080F
:1026C100E2FA08E2CBF8EB2FFFEA3EFEE93DFDE836
:1026D1003CFC781E8078781EE2FC08E2FD08E2FEF0
:1026E10008E2FF781AE2FB08E2F908E2FA08E2CB15
:1026F100F8C3121126505C781AE2FC08E2FD08E2E8
:10270100FE08E2FF1234D2E4FBFAC3EA9402502439
:10271100747C2BF58274003AF583E0FF747D2BF510
:102721008274003AF583E0FD12392174022BFBE437
:102731003AFA80D6781AE2FC08E2FD08E2FE08E2E5
:102741002401FFE43EFEE43DFDE43CFC781A121155
:05275100898083D2B075
:012756002260
:10164400122CFFE47826F208F2E4FDFF1239217827
:1016540027E22401F218E23400F2C308E2941018DD
:10166400E2940040E4E47826F208F2E47828F208F0
:10167400F27826E2FE08E27803C333CE33CED8F9FB
:10168400FFE4FD1239217829E22401F218E2340042
:10169400F2C308E2940718E2940040D57827E224C4
:1016A40001F218E23400F2C308E2942018E2940034
:1016B40040B90BBB00010AEB64504A7086E4FAFBA4
:1016C400E47826F208F2E4FDFF1239217827E224B7
:1016D40001F218E23400F2C308E2941018E2940014
:1016E40040E4E47826F208F2E47828F208F2782755
:1016F400E225E0FD18E233FCEDAE047803CEC3131B
:10170400CE13D8F9FFC007EDAE047805C333CE334A
:10171400CED8F9FDD0071239217829E22401F21834
:10172400E23400F2C308E2940718E2940040BF7860
:1017340027E22401F218E23400F2C308E2942018EC
:10174400E2940040A30BBB00010AEB64504A60031F
:101754000216C4E4FAFBE47826F208F2E4FDFF1270
:1017640039217827E22401F218E23400F2C308E2B6
:10177400941018E2940040E4E47826F208F2E47845
:1017840028F208F2782608E2FDE4FF1239217829CC
:10179400E22401F218E23400F2C308E2940718E2EA
:1017A400940040E07827E22401F218E23400F2C306
:1017B40008E2942018E2940040C40BBB00010AEB39
:1017C40064504A7091E4FAFBE47826F208F2E4FDEE
:1017D400FF1239217827E22401F218E23400F2C31F
:1017E40008E2941018E2940040E4E47826F208F247
:1017F400E47828F208F27826E2FC08E2FD25E0FF0E
:10180400EC33FEEF7803CEC313CE13D8F9FFAE0545
:10181400EE33333354F84FFFEE25E0C43354E0FE87
:10182400782608E24EFD1239217829E22401F218C3
:10183400E23400F2C308E2940718E2940040B77857
:1018440027E22401F218E23400F2C308E2942018DB
:10185400E29400409B0BBB00010AEB64504A600316
:051864000217CCD2B018
:01186900225C
:10231A00122CFFC3EA94005029E4782CF208F2E464
:10232A00FDFF123921782DE22401F218E23400F27D
:10233A00C308E294F018E2940040E40BBB00010ADF
:10234A0080D1E4FAFBE4782AF208F2E4782CF20865
:10235A00F2EBAE027803C333CE33CED8F9FFE4FDF5
:10236A00123921782DE22401F218E23400F2C3086E
:10237A00E2943C18E2940040D8E4782CF208F2EB9C
:10238A0025E0FDEA33FCEDAE047803CEC313CE1389
:10239A00D8F9FFC007EDAE047805C333CE33CED8E3
:1023AA00F9FDD007123921782DE22401F218E2341E
:1023BA0000F2C308E2943C18E2940040C2E4782C8C
:1023CA00F208F2AD03E4FF123921782DE22401F27A
:1023DA0018E23400F2C308E2943C18E2940040E3A5
:1023EA00E4782CF208F2EB25E0FFEA33FEEF7803FB
:1023FA00CEC313CE13D8F912390C782DE22401F288
:10240A0018E23400F2C308E2943C18E2940040D681
:10241A00782BE22401F218E23400F2C308E2940AAB
:10242A0018E2940050030223550BBB00010AEB6427
:07243A00204A600302234F5A
:012441002278
:102ECE00122CFFC2B0D2B1C3EA94005029E478307C
:102EDE00F208F2E4FDFF1239217831E22401F218F2
:102EEE00E23400F2C308E294F018E2940040E40BDE
:102EFE00BB00010A80D1E4FAFBE4782EF208F2E47A
:102F0E007830F208F2EBAE027803C333CE33CED86C
:102F1E00F9FFE4FD1239217831E22401F218E2348E
:102F2E0000F2C308E294F018E2940040D8782FE241
:102F3E002401F218E23400F2C308E2940A18E29473
:102F4E000040BC0BBB00010AEB64204A70ABD2B050
:012F5E002250
:102C5E00122CFFC2B0D2B1C3EA94005029E47834EA
:102C6E00F208F2E4FDFF1239217835E22401F21860
:102C7E00E23400F2C308E294F018E2940040E40B50
:102C8E00BB00010A80D1E4FAFBE47832F208F2E4E8
:102C9E007834F208F2EBAE027803CEC313CE13D81B
:102CAE00F9FFC007EBAE027805C333CE33CED8F9A9
:102CBE00FDD0071239217835E22401F218E23400F2
:102CCE00F2C308E294F018E2940040C97833E2248B
:102CDE0001F218E23400F2C308E2940518E29400FF
:0F2CEE0040AD0BBB00010AEB64404A709CD2B0B2
:012CFD0022B4
:10310C00122CFFC2B0D2B1C3EA94005029E4783833
:10311C00F208F2E4FDFF1239217839E22401F218A9
:10312C00E23400F2C308E294F018E2940040E40B9D
:10313C00BB00010A80D1E4FAFBE47836F208F2E431
:10314C007838F208F2AD03E4FF1239217839E22421
:10315C0001F218E23400F2C308E294F018E2940091
:10316C0040E37837E22401F218E23400F2C308E2BB
:10317C00940A18E2940040C70BBB00010AEB6420D0
:05318C004A70B6D2B04C
:01319100221B
:102F5F00122CFFC2B0C3EA94005029E4783CF20867
:102F6F00F2E4FDFF123921783DE22401F218E23438
:102F7F0000F2C308E294F018E2940040E40BBB00A7
:102F8F00010A80D1E4FAFBE4783AF208F2E4783CE3
:102F9F00F208F2EB25E0FFEA33FEEF7803CEC3131E
:102FAF00CE13D8F912390C783DE22401F218E2342D
:102FBF0000F2C308E294F018E2940040D6783BE2A6
:102FCF002401F218E23400F2C308E2940A18E294E2
:102FDF000040BA0BBB00010AEB64204A70A9D2B0C3
:012FEF0022BF
:102D9D00122CFFC2B0D2B1E47859F208F2E4FBFA7A
:102DAD00C3EA9400500DE4FDFF1239210BBB000165
:102DBD000A80EDE4FAFBE4785BF208F2EBAE027800
:102DCD0002C333CE33CED8F97803CEC313CE13D886
:102DDD00F9FFAE03EE25E0F933333354F84FFFEE30
:102DED0025E025E0FEC43354E049FD123921785C1D
:102DFD00E22401F218E23400F2C308E2940F18E263
:102E0D00940040B80BBB00010AEB64104A70A77820
:102E1D005AE22401F218E23400F2C308E294401899
:0A2E2D00E294015003022DAAD2B076
:012E37002278
:10329500122CFFC2B0E4783EF208F2E4FBFAE4FD3A
:1032A500FF1239210BBB00010AEB64104A70EFE4F1
:1032B500FAFBE47840F208F2EB25E0FFEA33FEEF93
:1032C5007803CEC313CE13D8F912390C7841E22412
:1032D50001F218E23400F2C308E2940718E2940000
:1032E50040D60BBB00010AEB64204A70C5783FE26B
:1032F5002401F218E23400F2C308E2944018E29483
:05330500014098D2B068
:01330A0022A0
:101C0D00122CFFE47842F208F2E4FD7FF81239213C
:101C1D007843E22401F218E23400F2C308E294F0B2
:101C2D0018E2940040E30BBB00010AEB64284A70F4
:101C3D00D2E4FAFBE47842F208F27DE07F07123934
:101C4D00217843E22401F218E23400F2C308E29451
:101C5D00F018E2940040E30BBB00010AEB64284A44
:101C6D0070D2E4FAFBE47842F208F27D1FE4FF1231
:101C7D0039217843E22401F218E23400F2C308E27C
:101C8D0094F018E2940040E30BBB00010AEB6428CA
:101C9D004A70D2E4FAFBE47842F208F27DE07FFF6D
:101CAD001239217843E22401F218E23400F2C3081C
:101CBD00E294F018E2940040E30BBB00010AEB64E0
:101CCD00284A70D2E4FAFBE47842F208F27D1F7FD5
:101CDD00F81239217843E22401F218E23400F2C3FC
:101CED0008E294F018E2940040E30BBB00010AEB0C
:101CFD0064284A70D2E4FAFBE47842F208F27DFFE0
:101D0D007F071239217843E22401F218E23400F200
:101D1D00C308E294F018E2940040E30BBB00010A03
:101D2D00EB64284A70D2E4FAFBE47842F208F27DC3
:101D3D00FF7FFF1239217843E22401F218E23400CB
:101D4D00F2C308E294F018E2940040E30BBB0001EB
:101D5D000AEB64284A70D2E4FAFBE47842F208F206
:101D6D00E4FDFF1239217843E22401F218E2340038
:101D7D00F2C308E294F018E2940040E40BBB0001BA
:101D8D000AEB64284A70D3E4FAFBC3EA94005029A5
:101D9D00E47842F208F2E4FDFF1239217843E2249F
:101DAD0001F218E23400F2C308E294F018E2940054
:091DBD0040E40BBB00010A80D1D7
:011DC60022FA
:10359700EFC3942050047F5F8050EFC39420400C0A
:1035A700EFD3942F5006EF2428FF803EEFC39430CB
:1035B700400CEFD39439500674D02FFF802CEFC303
:1035C700943A400CEFD394405006EF241EFF801A24
:1035D700EFC39441400CEFD3947E5006EF24C9FF0C
:0B35E7008008EFD3947E40027F5F223B
:10282400FD18E23400FC7866E2FA08E2FB08E2F5FF
:102834008308E2F5827872E583F208E582F2786A29
:10284400E2F58308E2F5827874E583F208E582F222
:08285400786DEFF2AF05AE0450
:10285C00EB240FFCE43A15081508A808F208CCF292
:10286C00EF2407FDE43EFC122D18786DE2FF7E008C
:10287C00D3945FEE940040027F5FEFC4F8540FC80E
:10288C0068FFEEC454F048FE787774FFF2087406C3
:10289C00F208749AF2E22FF218E23EF2E47876F241
:1028AC007877E2FB0808E2F92401F218E2FA340026
:1028BC00F2120F55FBE4FAEBA802088002C333D8DE
:1028CC00FC30E704787280027874E2FE08E2FF12B2
:1028DC003B290AEAB408E07876E204F2E2C39410E9
:0228EC0040BEEC
:0128EE0022C7
:102E38007862EBF208EAF208E9F208ECF208EDF23F
:102E48007862E2FB08E2FA08E2F9120F557003D340
:102E58008001C340707862E2FB0808E2F92401F2BD
:102E680018E2FA3400F2120F55FF1235977865E22E
:102E7800FC08E2FD08E2FA08E2FB08E2F58308E252
:102E8800F5827872E583F208E582F2786B122844BD
:102E9800D37866E294E718E29400400BE4F208F273
:102EA8007868E2241080057866E22408F218E23493
:102EB80000F2D37868E2942F18E294014082E4F299
:062EC80008F2022E482270
:1029A6007862EEF208EFF27866EAF208EBF2786403
:1029B600ECF208EDF2D394CFEC9400400718E4F261
:1029C6000874CFF27866E2FE08E2FFD3942FEE9405
:1029D600014009EF24EFF2EE34FF18F27862E2C408
:1029E600540FFF7864E2FC08E2FD0812282C786296
:1029F600E2540FFF7865E224081228247962E3C4C2
:102A0600F854F0C809E3C4540F48540FFF7865E240
:102A160024101228247863E2540FFF7865E2241804
:102A2600FD18E23400FC7866E2FA08E2FB08E2F5FB
:102A36008308E2F5827872E583F208E582F2786A25
:102A4600E2F58308E2F5827874E583F208E582F21E
:032A5600022854FF
:103AB6007B027D087C00E4FF1214127854EEF208B3
:063AC600EFF2E4FEFF2216
:103750007859EAF208EBF2ED2401FAE43C15081579
:1037600008A808F208CAF2AB05AA04EF2401FDE498
:103770003EFC122D187859E2FC08E2FDECFF1239EC
:103780002118E2FC08E2FDECFF12392118E2FC08E6
:10379000E2FDECFF12392118E2FC08E2FDECFF0229
:0237A0003921CD
:103192007844EEF208EFF28B828A8308ECF208EDB3
:0131A200F23A
:1031A300784AE2FF08E215081508A808CFF208EFED
:1031B300F27844E2FE08E2FF122D18AE83AF827864
:1031C3004EEEF208EFF2784BE22401FF18E23400EE
:1031D300FEC3784FE29F18E29E50397844E2FE081E
:1031E300E2FBAA067847E22401FF18E23400FEC39B
:1031F300EB9FEA9E5011784CE2FE08E2FF123B2956
:103203000BBB00010A80DD784FE22401F218E2349F
:0432130000F280B293
:013217002294
:072FF0007850EEF208EFF249
:102FF70008E4F208740FF2C37853E2943F18E2949E
:10300700015030E2FA08E2FB784AEAF208EBF2787C
:1030170050E2FF08E2784CCFF208EFF27DEF7C0038
:10302700E4FFFE1231927853E22410F218E23400E2
:10303700F280C47852E4F208740FF2C37853E29432
:10304700EF18E294005031E2FC08E2FDFFAE04788D
:103057004A7401F208743FF27850E2FB08E2784CB8
:10306700CBF208EBF2E4FBFA1231927853E2241028
:08307700F218E23400F280C3FC
:01307F00222E
:083B3200545020544553540087
:1039A900C294C295E49002AFF0EF20E704C2B2805E
:1039B90002D2B2D295EF25E0FFC2959002AFE004A2
:0539C900F0E0B408E489
:0139CE0022D6
:103380009002B012119500000000C294D2B3E490F4
:1033900002AFF09002AFE0FFC3940C5049C29530E9
:1033A000B33AC3740B9FFF74017E00A80708800521
:1033B000C333CE33CED8F9FFEE3395E0FDFC900257
:1033C000B0E0F8A3E0F9A3E0FAA3E04FFFEA4EFE75
:1033D000E94DFDE84CFC9002B012117DD2959002AF
:1033E000AFE004F080ADD2949002B0A3A3E0FEA3BE
:0233F000E0FFFC
:0133F20022B8
:02244200AB07E6
:10244400E4900296F0A3F0A3F0D2B5900296E0C314
:10245400940B502C20B529C294EB04FF1239A91215
:102464003380900296E025E02499F582E43402F565
:1024740083EEF0A3EFF0900296E004F0D29480CBC8
:10248400900296E07003022559E4A3F0900296E0CE
:10249400F9A3E0C3994003022545E4A3F090029711
:1024A400E0FF900296E0C39FFF900298E0C39F4034
:1024B4000302253CE0FF25E0249BF582E43402F589
:1024C40083E0FCA3E0FDEF25E02499F582E43402E7
:1024D400F583E0FEA3E0D39DEE9C4053900298E088
:1024E40025E02499F582E43402F583E0FCA3E0FDC1
:1024F400900294ECF0A3EDF0EF25E0249BF582E448
:102504003402F583E0FEA3E0FF900298E0FB25E0AF
:102514002499F582E43402F583EEF0A3EFF0EB2581
:10252400E0249BF582E43402F583ECF0A3EDF09013
:102534000298E004F00224A1900297E004F002243F
:1025440090E9C31325E02499F582E43402F583E08D
:08255400FEA3E0FF22E4FEFFFC
:01255C00225C
:10186A0090027C12119500000000900280121195DE
:10187A0000000000900284121195000000009002FE
:10188A00881211950000000090028C121195000038
:10189A00000090029012119500000000E4FFFE1271
:1018AA0000467BFF7A3B7932E47867F208F208F265
:1018BA0008F274FF08F208F2E4FDFC122E38D2B5E1
:1018CA0020B5FD20B603021A1D7F327E00123A119E
:1018DA0020B5F07FD0122442E4FCFD90028412115C
:1018EA007D900284E0FCA3E0FDA3E0FEA3E024BD1A
:1018FA00FFEE34FFFEED34FFFDEC34FFFCE47BF039
:10190A00FAF9F8120FFBE47BA57A02F9F8121086AD
:10191A00E4120DA07BB87A1E7945783F120C9A1210
:10192A000DDE90027C12117D7F90122442E4FCFDB0
:10193A0090028812117D900288E0FCA3E0FDA3E0EA
:10194A00FEA3E024A0FFEE34FFFEED34FFFDEC34ED
:10195A00FFFCE47B407A01F9F8120FFBE4FB7A03FF
:10196A00F9F8121086E4120DA07B337A3379737872
:10197A003F120C9A120DDE90028012117D7F0A7EB0
:10198A0000123A1130B5030218DAE4FFFEFDFC90AA
:10199A00027CE0F8A3E0F9A3E0FAA3E0FBC312118A
:1019AA002650030218DAE47FF0FEFDFC90027CE088
:1019BA00F8A3A3A3E012112640030218DAE4FFFEFB
:1019CA00FDFC900280E0F8A3E0F9A3E0FAA3E0FBB3
:1019DA00C312112650030218DAE47F407E01FDFC8F
:1019EA00900280E0F8A3A3A3E01211264003021894
:1019FA00DA90027CA3A3E0FEA3E0FFC006A3A3A3A0
:101A0A00E0FEA3E0FDAC06D0067B007AF812375060
:101A1A000218DAE4FFFE1200467BFF7A3B7932E4D1
:101A2A007867F208F208F208F274FF08F208F2E4A2
:081A3A00FDFC122E380218CD4C
:100003001201100100000040C410000000000102B2
:1000130003010902200001010080FA090400000223
:10002300FF000000070502024000000705820240AE
:0A00330000000403090401000000AE
:1021E30090027CEEF0A3EFF0900280EBF0A3EAF014
:1021F300A3E9F0E4900791F0900791E0FF900003CA
:1022030093FE74402FF582E43407F583EEF09007D4
:1022130091E004F0E0B412E0E4900791F0900791AC
:10222300E0FF90001593FE74522FF582E43407F516
:1022330083EEF0900791E004F0E0B420E090027C9C
:10224300E0FEA3E0900748F0EEA3F0A3EDF0ECA3CB
:10225300F090077274FFF0A37400F0A37435F0904C
:102263000280E0F9A3E0FAA3E0900775C9F0A3EABE
:10227300F0A3E9F0900283E0F9A3E0FAA3E090076A
:1022830078C9F0A3EAF0A3E9F0900286E0F9A3E0AD
:10229300FAA3E090077BC9F0A3EAF0A3E9F0900268
:1022A30089E0FFC394FA500590075AEFF090028A31
:1022B300E0900759F090028BE0FEA3E090074CF00A
:1022C300EEA3F0E59620E7FB759601759708E59672
:1022D30020E7FB75960775970FE59620E7FB759644
:1022E3000975970EE59620E7FB75960B75970775AD
:1022F300D7E0123B12E4900793F0900792F0900717
:1023030094F0900786F043E602D2AFE59620E7FB10
:072313007596017597012288
:10395B009007867402F0E59620E7FB759601759744
:10396B0001E490078EF0A37403F0A3F0E4900793A7
:07397B00F090079204F02216
:1011DF00E59620E7FB75960EE4F597E59620E7FB7D
:1011EF00759691E59620E7FB90079EE597F0E0FF57
:1011FF0030E210E59620E7FB759611E4F59790071E
:10120F008EF022EF30E410E59620E7FB759611750E
:10121F009780E490078EF090078EE0600302131022
:10122F0090079EE020E0030213107596204396C0AE
:10123F00E4900791F0E59620E7FB900791E0247E7C
:10124F00F582E43407F583E597F0900791E004F019
:10125F00E0B407E1E59620E7FBE4F596900791E00F
:10126F00247EF582E43407F583E597F0900781E05B
:10127F00FE900780E07C002400FFEC3E900795F085
:10128F00A3EFF0900785E0FE900784E02400FFECC9
:10129F003E900797F0A3EFF090077FE0B40C00505B
:1012AF005D9012B7F82828730212DB0212E00212C7
:1012BF00E50212EA02130D0212EF0212F402130DED
:1012CF000212F90212FE0213030213081233F38003
:1012DF003012364C802B12275780261236A48021CD
:1012EF001239F1801C122A5980171237F28012120C
:1012FF0035F2800D1239828008123ACC8003123AEF
:10130F004F90078EE06401600302141190079E74E2
:10131F0002F0C390078DE0944090078CE09400405A
:10132F0061E59620E7FB759620E4900791F0900712
:10133F0091E0FFC394405022900787E0FBA3E0FAAF
:10134F00A3E0F98F82758300120F6EF597E5962053
:10135F00E7FB900791E004F080D4900788E475F0E4
:10136F0040120FAD90078DE024C0F090078CE03451
:10137F00FFF090078BE02440F090078AE03400F0F4
:10138F008052E59620E7FB759620E4900791F09048
:10139F000791E0FFD390078DE09F90078CE09400BA
:1013AF004026900787E0FBA3E0FAA3E0F9900791AE
:1013BF00E0F582758300120F6EF597E59620E7FB37
:1013CF00900791E004F080C790079EE04408F0E496
:1013DF0090078EF0900797E0FEA3E0FF90078AE05A
:1013EF00B50611A3E0B5070C90079EE04408F0E4A2
:1013FF0090078EF0E59620E7FB75961190079EE01B
:03140F00F597222C
:103A4F00E59620E7FB75960EE4F597E59620E7FBE4
:0D3A5F0075961175972090078E7404F02263
:1033F30090077EE0247F60071460062402704880F3
:103403002D90078FE0B40309900782E0B402028095
:103413000E900790E0B40316900782E0B4820F90F9
:10342300078774FFF0A37400F0A37439800D90072D
:103433008774FFF0A37400F0A3743BF090078CE44F
:10344300F0A37402F08003123A4F90078EE06404F5
:103453006010123ACC90078E7401F0E490078AF062
:03346300A3F022B1
:10364C00900780E07041900782E0B4021DE596205F
:10365C00E7FB75960E759702E59620E7FB759614B9
:10366C00759780E490078FF08020E59620E7FB7536
:10367C00960E759702E59620E7FB759611759740A7
:10368C00E4900790F08003123A4FE59620E7FB7523
:08369C00960EE4F597023ACC0A
:10275700900796E020E0030227ED900794E030E031
:102767000854FEF04402F08007900794E054FDF00F
:10277700E59620E7FB75960E759702E59620E7FB31
:10278700759614759710E59620E7FB759611759762
:1027970008E59620E7FB759694E59620E7FB9007FA
:1027A7009DE597F0E020E4E9E59620E7FB759614B0
:1027B700759710E59620E7FB759691E59620E7FB60
:1027C70090079DE597F0E020E3E9E59620E7FB75A4
:1027D70096117597089007927408F0900794E0FF98
:1027E70030E1034401F0900795E0FCA3E0FD30E100
:1027F7000D9007867406F0900792E04410F0ED30D4
:10280700E20D9007867404F0900792E04420F0E50B
:0D2817009620E7FB75960EE4F597023ACC8B
:1036A400900780E07040900782E0B4021BE596200A
:1036B400E7FB75960E759702E59620E7FB75961461
:1036C40075972090078F8019E59620E7FB75960E75
:1036D400759702E59620E7FB75961175971090078C
:1036E400907403F08003123A4FE59620E7FB759639
:0736F4000EE4F597023ACC49
:1039F100E59620E7FBE4F596900780E0FFF597EF69
:103A010090078660057403F080037402F0023ACCDB
:102A5900900781E024FE601B14603B24027069909A
:102A690007877401F0A37407F0A37440F09007403E
:102A7900E0804A9007877401F0A37407F0A37452A9
:102A8900F0900755E0FE900754E07C002400FFEC2D
:102A99003E90078C802C900780E075F003A4247287
:102AA900F582E43407F583E0FBA3E0FAA3E0F990AB
:102AB9000787EBF0A3EAF0A3E9F0120F55FF90079F
:102AC9008CE4F0A3EFF08003123A4F90078CE0FEFC
:102AD900A3E0FF900797E0FCA3E0FDC39FEC9E50A5
:102AE9000890078CECF0A3EDF090078EE064046089
:102AF90010123ACC90078E7401F0E490078AF0A383
:022B0900F022B8
:1037F200900786E0FFB40414A374FFF0A37400F0F2
:10380200A37439F090078CE4F0A304F0EFB403162C
:1038120090078774FFF0A37400F0A3743BF0900745
:103822008CE4F0A304F0123ACC90078E7401F0E419
:0738320090078AF0A3F022C9
:1035F200900780E0D394004042900792E04440F06C
:103602009007867404F0E490078FF0A3F0E596200B
:10361200E7FB75960E759702E59620E7FB75961205
:10362200759784E59620E7FB759615759780E59664
:1036320020E7FB75960EE4F597800C9007867403DD
:0A364200F090078FF0A3F0023ACCDD
:1039820090078774FFF0A37400F0A3743BF09007D4
:103992008CE4F0A304F0123ACC90078E7401F0E4A8
:0739A20090078AF0A3F02258
:103ACC0090078EE06404600BE59620E7FB75961179
:043ADC007597402278
:03004300021F5544
:101F5500C0E0C0F0C083C082C0D075D000C000C052
:101F650001C002C003C004C005C006C0079007A198
:101F7500E596F0E59620E7FB75968EE59620E7FB5E
:101F85009007A2E597F0E59620E7FB759686E5961E
:101F950020E7FB900799E597F0E030E30BE5962005
:101FA500E7FB75960B759707900799E030E20312EA
:101FB500395B900799E030E014900786E0FF6404F0
:101FC5006004EFB40607900792E04480F0E59620A0
:101FD500E7FB759682E59620E7FB900799E597F074
:101FE500E030E0031211DF900799E030E22AE59630
:101FF50020E7FB75960E759702E59620E7FB75962B
:1020050091E59620E7FB90079AE597F0E054037079
:1020150007900792E04402F0E59620E7FB75968469
:10202500E59620E7FB900799E597F0E030E229E592
:102035009620E7FB75960E759702E59620E7FB75EA
:102045009694E59620E7FB90079AE597F0E030E057
:1020550007900792E04404F0E59620E7FB75960E9D
:102065009007A2E0F597E59620E7FB9007A1E59696
:10207500F0E59620E7FB900794E030E009900792A1
:10208500E060031239CFD007D006D005D004D003C5
:10209500D002D001D000D0D0D082D083D0F0D0E013
:0120A5003208
:10387C00E5B964E0602E53A90FC0A943B280E5A955
:10388C005407D394014003E4F5A9E4F5B943B98096
:10389C00E4D5E0FD43B9C0E5B930E5FBD0E0B402B6
:0838AC000343A90253A90F22F6
:1038E10053D7BF43C910E5A95402900791F043B2E1
:1038F1008075A910E4F5B943B2200012387C900715
:0B39010091E042A953C9EF43D74022D8
:0E3B0400900792E0FFE4F022900792E0FF228B
:102B0B00900786E0B40606EDD3944040037F002285
:102B1B00E59620E7FB75960E759702E59620E7FB89
:102B2B00759694E59620E7FB90079CE597F0E020DF
:102B3B00E003022BB7E59620E7FB759696E596200A
:102B4B00E7FB900793E597F0E0FFEDC39F5006AED0
:102B5B0005AF068000900793EFF053E6FDE5962056
:102B6B00E7FB7596E2900793E06025FEEB6006307D
:102B7B00E70F7F0022E59620E7FBA79709DEF6809B
:102B8B000F89828A83E59620E7FBE597F0A3DEF5B4
:102B9B00E59620E7FBE4F596E59620E7FB759614A2
:0F2BAB00E4F59743E602900793E0FF227F0022B4
:10255D00900786E0B4060DED4C6009D3ED9400ECC8
:10256D0094104004E4FEFF2253E6FDE490079FF033
:10257D00A3F090079BF089828A83C083C082900765
:10258D009BE030E00302265EE59620E7FB75960E94
:10259D00759702E59620E7FB759691E59620E7FB8A
:1025AD0090079BE597F0E030E020E59620E7FB757E
:1025BD00960EE4F597E59620E7FB759691E5962046
:1025CD00E7FB90079BE597F080B4C3ED9440EC9446
:1025DD00009007A0E0401B2440F090079FE03400DE
:1025ED00F074C02DFD74FF3CFCE490079BF0784027
:1025FD0080132DF090079FE03CF090079B7401F045
:10260D00A805E4FCFDE59620E7FB759622D082D067
:10261D0083E8602BEB601130E71AE59620E7FBE4C9
:10262D0093F597A3D8F48017E59620E7FB879709D4
:10263D00D8F6800BE59620E7FBE0F597A3D8F5C01B
:10264D0083C082E59620E7FB7596117597010225EB
:10265D008BD082D08343E60290079FE0FEA3E0FF7C
:01266D00224A
:103A8700900794E04401F0900792E0600BE59620E0
:093A9700E7FB75960B75970F22F1
:0C3B1200E59620E7FB75960F7597892259
:1039CF00D007D007D007D006D005D004D003D0023F
:1039DF00D001D000D0D0D082D083D0F0D0E0020080
:0239EF008B2229
:100C9A00EC4D6011E8497017ED33EC3304600DE454
:100CAA00FCFFFEFD22E933E8330470F8020E4A1213
:100CBA000E1558046009E4CC248150062850090214
:100CCA000E54284003020E51C0E0EB4A7044B9802A
:100CDA0006D0E0FB020E40EF4E701CBD8008EBFF11
:100CEA00EAFEE9FD80EBE98DF0A4FEE5F0020D8352
:100CFA00E9CDF9EAFEEBFFEF89F0A4FCE5F0CE8935
:100D0A00F0A42EFFE435F0CD89F0A42DFEE435F0F1
:100D1A008067EF4E7005BD80D780C3EF8BF0A4AC1F
:100D2A00F0EE8BF0A42CFCE435F0F8EF8AF0A42C5A
:100D3A00E5F038FCE433CB8DF0A42CFCE5F03BF86D
:100D4A00EE8AF0A42CFCE5F038F8E433CF89F0A45D
:100D5A002CFCE5F038CF3400CE89F0A42FFFE5F063
:100D6A003EFEE433C98DF0A42EFEE5F039CD8AF0BB
:100D7A00A42FFFE5F03EFEE43DFD33D0E0FB500733
:100D8A000BBB000F020E54EC2CFCEF33FFEE33FECC
:060D9A00ED33FD020E2CFA
:100DA00075F020800E75F010800575F0087D007ECE
:100DB000007F003392D530D503121118EC33401068
:100DC000EF33FFEE33FEED33FDEC33FCD5F0ED22D7
:0E0DD000E5F0247EA2D513CC92E7CDCEFF2213
:100DDE00EDD2E7CD33EC3392D524814006E4FFFE0D
:100DEE00FDFC22FCE4CFCECDCC24E0501174FF806C
:100DFE00EDC3CC13CCCD13CDCE13CECF13CF047009
:070E0E00F030D5DE021118DF
:100E1500E9D2E7C933E833F892D5EDD2E7CD33EC23
:070E250033FC5002B2D5229C
:100E2C00EC30E7100FBF000C0EBE00080DBD000427
:100E3C000BEB6014A2D5EB13FCED92E7FD2274FFD3
:100E4C00FCFDFEFF22E480F8A2D574FF13FC7D802C
:030E5C00E480EF40
:030000000230804B
:0C308000787FE4F6D8FD7581080230C7A7
:100E5F00E709F608DFFA8046E709F208DFFA803E75
:100E6F0088828C83E709F0A3DFFA8032E309F60862
:100E7F00DFFA8078E309F208DFFA807088828C83CA
:100E8F00E309F0A3DFFA806489828A83E0A3F6087E
:100E9F00DFFA805889828A83E0A3F208DFFA804C58
:100EAF0080D280FA80C680D4806980F2803380102F
:100EBF0080A680EA809A80A880DA80E280CA803398
:100ECF0089828A83ECFAE493A3C8C582C8CCC58310
:100EDF00CCF0A3C8C582C8CCC583CCDFE9DEE780E0
:100EEF000D89828A83E493A3F608DFF9ECFAA9F05F
:100EFF00EDFB2289828A83ECFAE0A3C8C582C8CCB5
:100F0F00C583CCF0A3C8C582C8CCC583CCDFEADECD
:100F1F00E880DB89828A83E493A3F208DFF980CC2F
:100F2F0088F0EF60010E4E60C388F0ED2402B40428
:100F3F000050B9F582EB2402B4040050AF232345CF
:060F4F008223900EAF7337
:100F5500BB010689828A83E0225002E722BBFE029A
:090F6500E32289828A83E49322CD
:100F6E00BB010CE58229F582E5833AF583E0225038
:100F7E0006E92582F8E622BBFE06E92582F8E22282
:0D0F8E00E58229F582E5833AF583E493229C
:100F9B00EF8DF0A4A8F0CF8CF0A428CE8DF0A42E6A
:020FAB00FE2224
:100FAD00C5F0F8A3E028F0C5F0F8E58215827002CF
:060FBD001583E038F0226C
:100FC300BB0110E58229F582E5833AF583E0F5F06C
:100FD300A3E0225009E92582F886F008E622BBFE49
:100FE3000AE92582F8E2F5F008E222E5832AF5838F
:080FF300E993F5F0A3E9932254
:100FFB00E88FF0A4CC8BF0A42CFCE98EF0A42CFC95
:10100B008AF0EDA42CFCEA8EF0A4CDA8F08BF0A412
:10101B002DCC3825F0FDE98FF0A42CCD35F0FCEB71
:10102B008EF0A4FEA9F0EB8FF0A4CFC5F02ECD3936
:0F103B00FEE43CFCEAA42DCE35F0FDE43CFC22A3
:10104A0075F008758200EF2FFFEE33FECD33CDCC5D
:10105A0033CCC58233C5829BED9AEC99E5829840E0
:10106A000CF582EE9BFEED9AFDEC99FC0FD5F0D6BD
:10107A00E4CEFBE4CDFAE4CCF9A88222B800C1B9E7
:10108A000059BA002DEC8BF084CFCECDFCE5F0CB25
:10109A00F97818EF2FFFEE33FEED33FDEC33FCEB5E
:1010AA0033FB10D703994004EB99FB0FD8E5E4F919
:1010BA00FA227818EF2FFFEE33FEED33FDEC33FC06
:1010CA00C933C910D7059BE99A4007EC9BFCE99AFA
:1010DA00F90FD8E0E4C9FAE4CCFB2275F010EF2F3F
:1010EA00FFEE33FEED33FDCC33CCC833C810D7073F
:1010FA009BEC9AE899400AED9BFDEC9AFCE899F87A
:0E110A000FD5F0DAE4CDFBE4CCFAE4C8F9220C
:0E111800C3E49FFFE49EFEE49DFDE49CFC22E8
:10112600EB9FF5F0EA9E42F0E99D42F0E89C45F01F
:011136002296
:10113700E8600FECC313FCED13FDEE13FEEF13FF96
:03114700D8F122BA
:10114A00E8600FEFC333FFEE33FEED33FDEC33FC03
:03115A00D8F122A7
:10115D007401FF3395E0FEFDFC080808E2CF2FF285
:10116D0018E2CE3EF218E2CD3DF218E2CC3CF2226E
:0C117D00ECF0A3EDF0A3EEF0A3EFF022E5
:0C118900ECF208EDF208EEF208EFF222A2
:10119500A8828583F0D083D0821211AC1211AC12D3
:1011A50011AC1211ACE473E493A3C583C5F0C583F8
:1011B500C8C582C8F0A3C583C5F0C583C8C582C8A4
:0111C5002207
:1011C600D083D082E493F208740193F208740293F8
:0911D600F208740393F27404732F
:10308C00023934E493A3F8E493A34003F68001F2ED
:10309C0008DFF48029E493A3F85407240CC8C33345
:1030AC00C4540F4420C8834004F456800146F6DF14
:1030BC00E4800B01020408102040809038B4E47EB8
:1030CC00019360BCA3FF543F30E509541FFEE49309
:1030DC00A360010ECF54C025E060A840B8E493A3D0
:1030EC00FAE493A3F8E493A3C8C582C8CAC583CAFB
:1030FC00F0A3C8C582C8CAC583CADFE9DEE780BEB3
:0138E00000E7
:00000001FF
