:10350A00555342204445425547005553422052459F
:10351A0041440010C4EA611A03530069006C00694F
:10352A000063006F006E0020004C006100620073AF
:10353A00001003550053004200200041005000498A
:10354A00000A0343003500310046000F80010001E4
:10369200012F00013600013B00013D00013E000107
:1036A2003C00013300023400000437000000010135
:0836B20030AA0131550132FF7D
:1034B7001230EF30B64C122AC912355A122D0D129E
:1034C700355A121DFA12355AE4FFFE1236BB123571
:1034D7005A12389B7F0A7E001237BEE4F50BAF0BFA
:1034E7001226C41238757FC87E001237BE7F057E4C
:1034F7000012355E050BE50BC3940640E1121B0273
:0235070080B191
:01350900229F
:1037BE00E4FDFCC3ED9FEC9E5014E4FBFA0BBB0042
:0E37CE00010AEBF44A70F60DBD00010C80E517
:0137DC0022CA
:04355A007F147E005C
:04355E008E0C8F0D33
:10356200E4F50EF50F30B720E4FFFEC3EF950DEE44
:10357200950C501EE4FDFC0DBD00010CEDF44C70E9
:10358200F60FBF00010E80E31238757F147E001221
:1035920037BE050FE50F7002050EC39464E50E9465
:0335A2000040C224
:0135A5002203
:1038750030B60512068E80F87FF47E011237BE3011
:03388500B6FD226B
:10068E0078147C007D007BFF7A3579597E007F01DE
:10069E00120EC4E5367003020859751001E51025D7
:1006AE00E025E02458F582E43402F583E07029E574
:1006BE001025E025E02459F582E43402F583E0FEAE
:1006CE00E51025E025E0245AF582E43402F583E0B6
:1006DE00FDEDFF123818803BE51025E025E024588B
:1006EE00F582E43402F583E064017027E51025E01D
:1006FE0025E02459F582E43402F583E0FEE5102569
:10070E00E025E0245AF582E43402F583E0FDEDFFA6
:10071E001237E10510E510C394104081000000006F
:10072E0000000000000000000000000000000000BB
:10073E007BFF7A35790AE4F51AF51BF51CF51D7465
:10074E00FFF51EF51FE4FDFC122D9690025BE020D6
:10075E00E00302083F751001E51025E025E024585E
:10076E00F582E43402F583E07054E51025E025E0CF
:10077E002459F582E43402F583E0FEE51025E025E8
:10078E00E0245AF582E43402F583E0FDEDFFE51036
:10079E0025E025E0245BF582E43402F583E075F074
:1007AE0024A4FDACF0E51075F011A4FBAAF0751BA6
:1007BE0007751CE0E4F51DF51E122B5E8067E51033
:1007CE0025E025E02458F582E43402F583E0640147
:1007DE007053E51025E025E02459F582E43402F546
:1007EE0083E0FEE51025E025E0245AF582E434028C
:1007FE00F583E0FDEDFFE51025E025E0245BF582B5
:10080E00E43402F583E075F024A4FDACF0E5107538
:10081E00F011A4FBAAF0751B00751C1F74FFF51DCB
:10082E00F51E122B5E0510E510C39410500302073F
:10083E006600000000000000000000000000000044
:10084E000000000000E4F5360206A1E53C7003024C
:10085E000915E4F510E510C394404003020904C2E3
:10086E00B0D2B174582510F582E43402F583E0FF5E
:10087E0074592510F582E43402F583E0FD123745F4
:10088E00D2B074582510F582E43402F583E0FF05EA
:10089E0035E535AC3470020534142400F58274004D
:1008AE003CF583EFF074592510F582E43402F5839C
:1008BE00E0FF0535E535AC3470020534142400F53F
:1008CE008274003CF583EFF0E4B53523E534B402D1
:1008DE001E78371210BA122F16900000E533F07FF3
:1008EE00007E007D007C00122F16E4F534F53505F0
:1008FE00100510020863E4F53CFB7A0079147D01C3
:10090E00FC1222D4020859E52F7003020A0D900240
:10091E005BE070030209C9751004E510C39424400E
:10092E00030209FCC2B0D2B174582510F582E4342A
:10093E0002F583E0FF74592510F582E43402F58345
:10094E00E0FD123745D2B074582510F582E434021A
:10095E00F583E0FF0535E535AC347002053414241B
:10096E0000F58274003CF583EFF074592510F58282
:10097E00E43402F583E0FF0535E535AC347002054D
:10098E0034142400F58274003CF583EFF0E4B535A1
:10099E0023E534B4021E78371210BA122F169000C7
:1009AE0000E533F07F007E007D007C00122F16E400
:1009BE00F534F53505100510020928751004E510FB
:1009CE00C394245029C2B0D2B174582510F582E4D4
:1009DE003402F583E0FF74592510F582E43402F5F4
:1009EE0083E0FD123745D2B00510051080D0E4F536
:1009FE002FFB7A0079147D01FC1222D4020915E531
:100A0E003E7003020ABE751004E510C39424400321
:100A1E00020AAD74582510F582E43402F583E070B5
:100A2E002174592510F582E43402F583E0FE745AE0
:100A3E002510F582E43402F583E0FDEDFF1238183F
:100A4E00805474582510F582E43402F583E0B40125
:100A5E002174592510F582E43402F583E0FE745AB0
:100A6E002510F582E43402F583E0FDEDFF1237E147
:100A7E00802474582510F582E43402F583E0641066
:100A8E0070140000000000000000000000000000D4
:100A9E0000000000000074042510F510020A17E48F
:100AAE00F53EFB7A0079147D01FC1222D4020A0D68
:100ABE00E53B7003020BF1E4F51074002510F5828E
:100ACE00E43402F583E4F00510E510B418EC90025E
:100ADE005FE025E0F51390025DE0FEA3E0FDEEF58C
:100AEE0011EDF51290025CE064017034AF12AE119C
:100AFE00123818E4F510E510C395135023123888F8
:100B0E0074002510F582E43402F583E4F0740125B7
:100B1E0010F582E43402F583EFF00510051080D64F
:100B2E00E4F53B7B017A027900E513FD7C0012228D
:100B3E00D47F647E001237BE7BFF7A357914E4F5DC
:100B4E001AF51BF51CF51D74FFF51EF51FE4FDFCD3
:100B5E00122D9690025BE020E003020ABE90026026
:100B6E00E075F024A4FDACF0751B07751CE0E4F5F0
:100B7E001DF51E7B11FAAF12AE11122B5EE4F510AD
:100B8E00E510C395134003020ABE900260E075F0B3
:100B9E0024A4FDACF0C004C005E510C3132402FF6D
:100BAE00E433FE7C007D11120F30AA06AB077400F1
:100BBE002510F582E43402F583E0FE74012510F56C
:100BCE0082E43402F583E0FDEDFF751B00751C1FFA
:100BDE0074FFF51DF51ED005D004122B5E05100511
:100BEE0010809DE53D6039E4F51074182510F582EE
:100BFE00E43402F583E4F00510E510B440EC900205
:100C0E00187401F0A37440F0E4A3F0A374F0F0E4C0
:100C1E00F53D7B017A0279187D40FC1222D480C307
:010C2E0022A3
:1000460053D9BF75B283E4F5B943B980FF0FBFFF3B
:10005600FC43B9C0E5B930E5FBE4F5A943EF027509
:10006600F1FF75A4FF75A5FF75F2FF75A6FF75AEC6
:10007600FF75F4FF43A717C286C28743E10243E236
:010086004039
:010087002256
:1030EF0012004612362F90351DE493FE740193FFA4
:1030FF0090351FE493FC740193FD90020774FFF069
:10310F00A37435F0A3743BF0A374FFF0A37435F0F0
:10311F00A3744BF0903555E49390020DF090355613
:10312F00E49390020EF0903557E493FB7401939063
:10313F00020FCBF0A3EBF07BFF7A357921122082BF
:0C314F0012383275A17075F80F02176C71
:03003D0002366721
:03008B000223E568
:1023E500C0E0C0F0C083C082C0D075D000C000C0BE
:0D23F50001C002C003C004C005C006C0073F
:102402001238AC8F08E50830E27C7B017A027958F9
:102412007D401228DE900258E0FFB5300FA3E0B5F0
:10242200310AA3E0B53205753601805AEFB5321193
:10243200900259E0B5310AA3E0B53005753B018041
:1024420045900258E0B5310FA3E0B5300AA3E0B5DC
:102452003205753D01802F900258E0FFB5300FA381
:10246200E0B5320AA3E0B53105752F018018EFB54A
:102472003211900259E0B5300AA3E0B53105753E3C
:10248200018003753C01E50830E70312003DE508D1
:1024920030E603120046E50830E41A15691569A80A
:1024A20069760108763F7A007B007C007DEF7E0032
:1024B2007F00122A48E50830E51C053315691569C5
:1024C200A869760108763F7A007B007C007DEF7E6A
:0624D200007F00122A4801
:1024D800D007D006D005D004D003D002D001D00058
:0B24E800D0D0D082D083D0F0D0E03202
:0C384B007FFF1238577FFF1238577FFFB5
:093857008FA330FFFDC2FFAFA3F7
:013860002245
:0A38C60075A3FF30FFFDC2FFAFA3A2
:0138D00022D5
:0232F200AE0725
:1032F400E4FB12384B12384BC2FAEE4440FF12384A
:1033040057AF21AE20AD1FAC1E781812109412389E
:1033140057AF21AE20AD1FAC1E7810121094123896
:1033240057AF21AE20AD1FAC1E780812109412388E
:1033340057AF211238577F951238577FFF123857ED
:0E334400BFFF09AE030BEED3946440EFD2FA44
:013352002258
:10277900E4FEFA75A90375A23BE4FD7FFF12385701
:102789000DBD64F7E4F521F520F51FF51EFF1232A2
:10279900F2AE070AEAD3940A5003BE01DCE4FAE474
:1027A900F521F520F51FF51E7F371232F2AE070A23
:1027B900EAD3946440037F0122BE01E3E4FAF521E0
:1027C900F520F51FF51E7F291232F2AE070AEAD36A
:1027D900946440037F0122EE70C5EE601FE4FAE4C1
:1027E900F521F520F51FF51E7F011232F2AE070A19
:1027F900EAD3946440037F0122EE70E3E4F521F506
:1028090020F51FF51E7F3B1232F2AE07E4F5217564
:102819002002F51FF51E7F101232F275A201E4F5B0
:02282900A9FF05
:01282B00228A
:0831C5008F1C8E1B8D1A8C1962
:1031CD00E4FA75A903AF1CAE1BAD1AAC1978091240
:1031DD0010A78F218E208D1F8C1E7F111232F20AA7
:1031ED00EAD3940A40037F0122EF70D9C2FA123854
:1031FD00C6BFFEFAE4FDFC1238C674002DF58274CC
:10320D00003CF583EFF00DBD00010CE4B505E8ECD5
:0C321D00B402E4123850D2FAE4F5A9FF24
:013229002282
:082F16008F188E178D168C1523
:102F1E00E4FA75A903AF18AE17AD16AC1578091201
:102F2E0010A78F218E208D1F8C1E7F181232F2AEAD
:102F3E00070AEAD3940A40037F0122EE70D7C2FA41
:102F4E007FFF1238577FFE123857FDFC74002DF5A7
:102F5E008274003CF583E0FF1238570DBD00010C62
:102F6E00E4B505E8ECB402E412384BAE07EE541F9C
:102F7E0064056003D2FA227FFF123857EF60F8D251
:052F8E00FAE4F5A9FFC3
:012F9300221B
:10389B00E4F9122779EF600809E9D3940340F32286
:0138AB0022FA
:10008E00000000182442424242424242241800001C
:10009E00000000107010101010101010107C0000D6
:1000AE000000003C4242420404081020427E000040
:1000BE000000003C42420418040202424438000090
:1000CE00000000040C14242444447E04041E00008A
:1000DE000000007E40404058640202424438000056
:1000EE000000001C24404058644242422418000084
:1000FE000000007E4444080810101010101000007C
:10010E000000003C4242422418244242423C00007D
:10011E000000001824424242261A0202243800002F
:10012E000000001010182828243C444242E700002A
:10013E00000000F8444444784442424244F800002F
:10014E000000003E424280808080804244380000A1
:10015E00000000F8444242424242424244F800004B
:10016E00000000FC424848784848404242FC0000EB
:10017E00000000FC424848784848404040E00000FB
:10018E000000003C44448080808E8444443800004B
:10019E00000000E7424242427E42424242E70000F5
:1001AE000000007C1010101010101010107C0000B9
:1001BE000000003E0808080808080808080888F02B
:1001CE00000000EE444850705048484444EE000091
:1001DE00000000E0404040404040404042FE0000F1
:1001EE00000000EE6C6C6C6C5454545454D60000E9
:1001FE00000000C7626252524A4A4A4646E2000076
:10020E00000000384482828282828282443800005A
:10021E00000000FC424242427C40404040E0000070
:10022E0000000038448282828282B2CA4C380600B4
:10023E00000000FC4242427C4848444442E3000035
:10024E000000003E4242402018040242427C000060
:10025E00000000FE92101010101010101038000048
:10026E00000000E74242424242424242423C00000B
:10027E00000000E7424244242428281810100000F1
:10028E00000000D692929292AAAA6C4444440000B6
:10029E00000000E7422424181818242442E7000026
:1002AE00000000EE444428281010101010380000F2
:1002BE000000007E840408081020204242FC00004A
:1002CE00001E1010101010101010101010101E0024
:1002DE000000404020201010100808040404020200
:1002EE0000780808080808080808080808087800B0
:1002FE00001C2200000000000000000000000000B2
:10030E00000000000000000000000000000000FFE0
:10031E00006010000000000000000000000000005F
:10032E00000000000000003C421E2242423F00003E
:10033E00000000C0404040586442424264580000F1
:10034E00000000000000001C22404040221C000063
:10035E00000000060202021E22424242261B00003C
:10036E00000000000000003C427E4040423C000085
:10037E000000000F1110107E10101010107C0000E5
:10038E00000000000000003E444438403C42423C25
:10039E00000000C04040405C6242424242E7000022
:1003AE00000000303000007010101010107C0000A3
:1003BE000000000C0C00001C040404040404447827
:1003CE00000000C04040404E4850684844EE0000D7
:1003DE00000000701010101010101010107C000093
:1003EE0000000000000000FE4949494949ED0000A7
:1003FE0000000000000000DC6242424242E70000C2
:10040E00000000000000003C42424242423C00001C
:10041E0000000000000000D864424242447840E0F0
:10042E00000000000000001E22424242221E02076F
:10043E0000000000000000EE3220202020F8000016
:10044E00000000000000003E42403C02427C0000E2
:10045E00000000000010107C10101010100C000096
:10046E0000000000000000C642424242463B00002F
:10047E0000000000000000E74224242810100000B5
:10048E0000000000000000D79292AAAA4444000087
:10049E00000000000000006E2418181824760000DA
:1004AE0000000000000000E742242428181010E08D
:1004BE00000000000000007E44081010227E0000A4
:1004CE0000030404040404080404040404040300E4
:1004DE00080808080808080808080808080808088E
:1004EE000060101010101008101010101010600086
:1004FE00304C43000000000000000000000000002F
:10050E0000000000000000000000000000000000DD
:10051E00000000101010101010100000181800002D
:10052E000012362448000000000000000000000009
:10053E00000000242424FE484848FE484848000095
:10054E0000001038545450301814145454381010ED
:10055E0000000044A4A8A8A8541A2A2A2A4400007D
:10056E0000000030484848506EA4948889760000F8
:10057E0000606020C00000000000000000000000CD
:10058E0000020408081010101010100808040200D1
:10059E00004020101008080808080810102040001D
:1005AE00000000001010D63838D6101000000000E1
:1005BE000000000010101010FE10101010000000AF
:1005CE00000000000000000000000000606020C07D
:1005DE0000000000000000007F000000000000008E
:1005EE00000000000000000000000000606000003D
:1005FE0000000102020404080810102020404000F0
:10060E00000000000000181800000000181800007C
:10061E00000000000000001000000000001010207C
:10062E000000000204081020402010080402000000
:10063E00000000000000FE000000FE0000000000B0
:10064E0000000040201008040204081020400000A2
:10065E000000003C42426202040808001818000024
:10066E0000000038445AAAAAAAAAB442443800008C
:10067E00FFFFFFFFFFFFFFFFFFFFFFFFFFFFFFFF7C
:061117008F158C168D17E8
:10111D00E517640860030211C1C2B0D296C2B18551
:10112D0015A0C297D297D2B0F5A675F3FF75A0FFA3
:10113D00C2B0D2B1D297C29600000000D287000093
:10114D000000AFA0F51A8F1BC28700000000D296D9
:10115D0000000000C29600000000D28700000000D1
:10116D0085A01FC28700000000D29600000000C2BB
:10117D009600000000D28700000000A9A0C28700E1
:10118D00000000D29600000000C29600000000D2C0
:10119D00870000000085A020C28775A6FFBB010354
:1011AD00021527BB0203021527EB6403600302152A
:1011BD0032021259E51764104516600302126EEBE8
:1011CD0064016003021532C2B0D296C2B1F5A0859A
:1011DD0015C7C297D297D2B075C7FFC2B0D2B1D2E0
:1011ED0097C296F5AED28700000000D2960000009F
:1011FD0000AFC7F51A8F1BC28775AEFFD296C29688
:10120D00F5AED28700000000D2960000000085C721
:10121D001FC28775AEFFD296C296F5AED28700007B
:10122D000000D29600000000A9C7C28775AEFFD29C
:10123D0096C296F5AED28700000000C2960000005F
:10124D000085C72075AEFFD296BB010AE9F51CE5F6
:10125D0020F51D021532EB640260030215320215F2
:10126D0027E51764204516600302132BEB6401601C
:10127D000302153275A6FF85151EC2B0C2A1C2A00C
:10128D00D2A1FAC2A1E51E30E704D2A08002C2A00D
:10129D00D2A1E51E25E0F51E0ABA08E775A6FEE403
:1012AD00FAC2A1D287D2A0E51B25E0FFE51A33FED5
:1012BD00A2A0E433FDEEF51AEF4DF51BC287D2A1C6
:1012CD000ABA09DDE4FAC2A1D287D2A0E51F25E052
:1012DD00FFA2A0E4334FF51FC287D2A10ABA08E6D8
:1012ED00E4FAC2A1D287D2A0E925E0FFA2A0E4339F
:1012FD004FF9C287D2A10ABA08E8E4FAC2A1D2878F
:10130D00D2A0E52025E0FFA2A0E4334FF520C2874F
:10131D00D2A10ABA08E675A6FFD2B0021527E517C5
:10132D0064044516600302145475A6FF85151EC28C
:10133D00B0C2B1FAC2A1E51E30E704D2A08002C24C
:10134D00A0D2A1E51E25E0F51E0ABA08E775A6FE96
:10135D00EB64016005EB64037027E4FAC2A1D28748
:10136D00D2A0E51925E0FFE51833FEA2A0E433FD78
:10137D00EEF518EF4DF519C287D2A10ABA09DD8035
:10138D002FEB64026005EB64047025E4FAC2A1D270
:10139D0087D2A0E51925E0FFE51833FEA2A0E433BE
:1013AD00FDEEF518EF4DF519C287D2A10ABA10DD81
:1013BD00E4FAC2A1D287D2A0E51B25E0FFE51A33DE
:1013CD00FEA2A0E433FDEEF51AEF4DF51BC287D258
:1013DD00A10ABA08DDE4FAC2A1D287D2A0E51F2581
:1013ED00E0FFA2A0E4334FF51FC287D2A10ABA08CD
:1013FD00E6E4FAC2A1D287D2A0E925E0FFA2A0E4DB
:10140D00334FF9C287D2A10ABA08E875A6FFC28781
:10141D00D296D2B1D2A1D2A0D2B0BB010DE5194561
:10142D001AF51CE51BF51D021532EB6402600DBBB0
:10143D0003028008EB64046003021532E51BF51C02
:10144D00E51FF51D021532E517640345166003020D
:10145D001532EB6401600302153275A6FF85151E6A
:10146D00D2B0D2A1C2B0C2A00000C2A10000D2A1D0
:10147D00FAE51E30E704D2A08002C2A0C2A100008E
:10148D00D2A10000E51E25E0F51E0ABA08E3D2A0A0
:10149D00D2A175A6FEE4FAC2A1D287D2A0E5192584
:1014AD00E0FFE51833FEA2A0E433FDEEF518EF4D95
:1014BD00F519C287D2A10ABA08DDE4FAC2A1D28712
:1014CD00D2A0E51B25E0FFE51A33FEA2A0E433FD13
:1014DD00EEF51AEF4DF51BC287D2A10ABA08DDE46D
:1014ED00FAC2A1D287D2A0E51F25E0FFA2A0E43366
:1014FD004FF51FC287D2A10ABA08E6E4FAC2A1D2FB
:10150D0087D2A0E925E0FFA2A0E4334FF9C287D22C
:10151D00A10ABA08E875A6FFD2B0E51FFEE9FDEEF7
:0B152D00F51CEDF51DC287AE1CAF1DC4
:011538002290
:04381800AD07AC0646
:10381C00AF04EFF52EC2B0D296C2B1F5A08DC7C2DF
:05382C0097D297D2B015
:013831002274
:0437DD00F808E6FF03
:0437E100AD07AC067E
:1037E500AF04EFF52EC2B0D296D2B1F5A08DC7C207
:0537F50097D297D2B04D
:0137FA0022AC
:10373000FFAE03EE33333354F84FFFEE25E0FEC403
:053740003354E04BFDD5
:10374500C2B0D296D2B18FA08DC7C297D297D2B050
:013755002251
:0938D100AD07AC06AF0402374557
:10176C00123888D2857F967E001237BEC2857F786C
:10177C007E001237BED2857F967E001237BE7FCF99
:10178C007E00123818E4FF1237E17FC31237E17F75
:10179C00301237E17FED1238187F641237E17F0386
:1017AC001237E17F121237E17F811237E17FE812A5
:1017BC0038187F851237E1E4FF1237E17F78123752
:1017CC00E17FCB1238187F391237E17F2C1237E1C9
:1017DC00E4FF1237E17F341237E17F021237E17FE9
:1017EC00F71238187F201237E17FEA123818E4FF1D
:1017FC001237E1E4FF1237E17FC01238187F19125B
:10180C0037E17FC11238187F111237E17FC51238CA
:10181C00187F3C1237E17F3F1237E17FC71238182F
:10182C007F961237E17F361238187F081237E17F26
:10183C003A1238187F551237E17FB1123818E4FF8D
:10184C001237E17F171237E17FB61238187F0A1270
:10185C0037E17FA21237E17FF61238187F01123779
:10186C00E17F301237E17FF2123818E4FF1237E1D2
:10187C007F261238187F011237E17FE01238187F6B
:10188C000F1237E17F261237E17F221237E17F0AF0
:10189C001237E17F101237E17F0A1237E17F4C12C9
:1018AC0037E17FCA1237E17F361237E1E4FF123796
:1018BC00E17F151237E1E4FF1237E17F101237E1B7
:1018CC007F101237E1E4FF1237E17FE1123818E4A0
:1018DC00FF1237E17F191237E17F1B1237E17F05C9
:1018EC001237E17F0F1237E17F051237E17F331298
:1018FC0037E17F351237E17F491237E17F0F12371D
:10190C00E17F1F1237E17F0F1237E17F3F1237E182
:10191C007F3F1237E17F0F1237E17F111238187FAA
:0B192C00781237BE7F297E00023818B9
:102A310015691569A869760108763F7A007B007CE3
:072A4100007DEF7E007F0025
:102A480015691569A869A60208A60315691569A874
:102A580069A60408A60515691569A869A60608A641
:102A680007E4F5A97F2AFE123818A969E7FF12378B
:102A7800E1A86908E6FF1237E1A8690808A900E794
:102A8800FF1237E1A869080808E6FF1237E17F2B33
:102A9800123818E5692404F9E7FF1237E1E56924DB
:102AA800041237DDE5692406F9E7FF1237E1E56925
:102AB80024061237DD7F2C123818E5692408F569D9
:012AC80022EB
:0236BB00AC065B
:1036BD008C0CEFF50D122A31C2B0E4FEAD0DAF0C3E
:1036CD001237450EBEF0F50BBB00010ABA01EBBB7C
:0436DD0040E8D2B03F
:0136E10022C6
:101DFA00750C50E4F50E750D6A750F02C2B01569BF
:101E0A001569A869760108763FFAFBFC7DEFFEFFAB
:101E1A00122A48C3EB950DEA94005054E4F510E5F4
:101E2A0010C3950C500BE4FD7FF81237450510805E
:101E3A00EEE4F510E510C3950C500B7D1FE4FF127C
:101E4A003745051080EEE4F510E50C250EFFE43366
:101E5A00FEC3E5109FEE6480F8748098500B7DE015
:101E6A007F07123745051080E00BBB00010A80A3EB
:101E7A00E4FAFBC3EB950DEA94005054E4F510E53F
:101E8A0010C3950C500B7DE07F0712374505108073
:101E9A00EEE4F510E510C3950C500BE4FD7FF81243
:101EAA003745051080EEE4F510E50C250EFFE43306
:101EBA00FEC3E5109FEE6480F8748098500B7D1F76
:101ECA00E4FF123745051080E00BBB00010A80A32E
:101EDA00E4FAFBE50D250FFFE433FEC3EB9FEA9E10
:101EEA005054E4F510E510C3950C500B7D1FE4FF28
:101EFA00123745051080EEE4F510E510C3950C5035
:101F0A000B7DE07F07123745051080EEE4F510E5FA
:101F1A000C250EFFE433FEC3E5109FEE6480F874CF
:101F2A008098500BE4FD7FF8123745051080E00BCE
:0B1F3A00BB00010A809DD2B0E4F5A9B5
:011F45002279
:102AC900122A31C2B07EF8E4FC7FF8FD1237457E48
:102AD900077CE07F077DE01237450BBB00010AEB5D
:102AE90064EE4A70EAE4FE7C1FFF7D1F123745F54C
:102AF90082F5837EF8E4FC7FF8FD123745FAFBE4A2
:102B0900FEFCFFFD1237450BBB00010AEB64EE4AE0
:102B190070EDE4FE7C1FFF7D1F123745A3E582B4EB
:102B29003ED1E583B401CC7EF8E4FC7FF8FD123791
:102B390045FAFB7E077CE07F077DE01237450BBB3A
:102B490000010AEB64EE4A70EAE4FF7D1F12374583
:042B5900F5A9D2B058
:012B5D002255
:0226C4008F0C79
:1026C600122A31C2B0D2B1E475182C751701F5166D
:1026D600F515AF0CFCFDFEAB18AA17A916A8151226
:1026E6000F58EF2401F510E43EF50FE43DF50EE436
:1026F6003CF50DE5102518F514E50F3517F513E52E
:102706000E3516F512E50D3515F511AF14AE13ADF0
:1027160012AC11AB10AA0FA90EA80DC3121083504C
:102726004FAF10AE0FAD0EAC0D1231C5E4FBFAC3C0
:10273600EA9402502474002BF58274003AF583E083
:10274600FF74012BF58274003AF583E0FD123745DC
:1027560074022BFBE43AFA80D6E5102401F510E466
:10276600350FF50FE4350EF50EE4350DF50D809BAE
:02277600D2B0DF
:01277800223E
:10193700122A31E4F549F54AE4FDFF123745054A15
:10194700E54A70020549C39410E549940040E9E46B
:10195700F549F54AE4F54BF54CE54AAE497803C33A
:1019670033CE33CED8F9FFE4FD123745054CE54CAD
:101977007002054BC39407E54B940040DC054AE52C
:101987004A70020549C39420E549940040C60BBB41
:1019970000010AEB64504A709AE4FAFBE4F549F552
:1019A7004AE4FDFF123745054AE54A70020549C377
:1019B7009410E549940040E9E4F549F54AE4F54B0C
:1019C700F54CE54A25E0FDE54933FCEDAE04780327
:1019D700CEC313CE13D8F9FFC007EDAE047805C305
:1019E70033CE33CED8F9FDD007123745054CE54C39
:1019F7007002054BC39407E54B940040C5054AE5C3
:101A07004A70020549C39420E549940040AF0BBBD7
:101A170000010AEB64504A7083E4FAFBE4F549F5E8
:101A27004AE4FDFF123745054AE54A70020549C3F6
:101A37009410E549940040E9E4F549F54AE4F54B8B
:101A4700F54CAD4AE4FF123745054CE54C700205ED
:101A57004BC39407E54B940040E8054AE54A7002FA
:101A67000549C39420E549940040D20BBB00010A05
:101A7700EB64504A70A6E4FAFBE4F549F54AE4FD45
:101A8700FF123745054AE54A70020549C39410E538
:101A970049940040E9E4F549F54AE4F54BF54CE58E
:101AA7004A25E0FFE54933FEEF7803CEC313CE1393
:101AB700D8F9FFAE4AEE33333354F84FFFEE25E043
:101AC700FEC43354E0454AFD123745054CE54C70DA
:101AD70002054BC39407E54B940040C3054AE54A0A
:101AE70070020549C39420E549940040AD0BBB0043
:0A1AF700010AEB64504A7081D2B07E
:011B010022C1
:1024F300122A31C3EA94005023E4F54FF550E4FD6A
:10250300FF1237450550E5507002054FC394F0E5BF
:102513004F940040E90BBB00010A80D7E4FAFBE4C7
:10252300F54DF54EE4F54FF550EBAE027803C333AA
:10253300CE33CED8F9FFE4FD1237450550E5507090
:1025430002054FC3943CE54F940040DDE4F54FF59D
:1025530050EB25E0FDEA33FCEDAE047803CEC31364
:10256300CE13D8F9FFC007EDAE047805C333CE33DD
:10257300CED8F9FDD0071237450550E55070020556
:102583004FC3943CE54F940040C7E4F54FF550AD7D
:1025930003E4FF1237450550E5507002054FC3941D
:1025A3003CE54F940040E8E4F54FF550EB25E0FFA0
:1025B300EA33FEEF7803CEC313CE13D8F9123730C4
:1025C3000550E5507002054FC3943CE54F9400401D
:1025D300DB054EE54E7002054DC3940AE54D9400AC
:1025E30050030225270BBB00010AEB64204A60035A
:0325F3000225229C
:0125F60022C2
:102E1800122A31C2B0D2B1C3EA94005023E4F55368
:102E2800F554E4FDFF1237450554E5547002055387
:102E3800C394F0E553940040E90BBB00010A80D726
:102E4800E4FAFBE4F551F552E4F553F554EBAE0220
:102E58007803C333CE33CED8F9FFE4FD12374505E6
:102E680054E55470020553C394F0E553940040DDD3
:102E78000552E55270020551C3940AE55194004089
:0E2E8800C70BBB00010AEB64204A70B7D2B042
:012E96002219
:102BF300122A31C2B0D2B1C3EA94005023E4F5578C
:102C0300F558E4FDFF1237450558E558700205579E
:102C1300C394F0E557940040E90BBB00010A80D749
:102C2300E4FAFBE4F555F556E4F557F558EBAE0237
:102C33007803CEC313CE13D8F9FFC007EBAE0278E7
:102C430005C333CE33CED8F9FDD007123745055827
:102C5300E55870020557C394F0E557940040CE053C
:102C630056E55670020555C39405E555940040B8E2
:0D2C73000BBB00010AEB64404A70A8D2B010
:012C80002231
:10322A00122A31C2B0D2B1C3EA9400501BE4F5832A
:10323A00F582E4FDFF123745A3E58264F045837009
:10324A00F10BBB00010A80DFE4FAFBE4F565F566E1
:10325A00E4F583F582AD03E4FF123745A3E5826402
:10326A00F0458370F00566E56670020565C3940A49
:10327A00E565940040DA0BBB00010AEB64204A7052
:03328A00CAD2B0F5
:01328D00221E
:102E9700122A31C2B0C3EA94005023E4F55BF55C13
:102EA700E4FDFF123745055CE55C7002055BC394E2
:102EB700F0E55B940040E90BBB00010A80D7E4FA18
:102EC700FBE4F559F55AE4F55BF55CEB25E0FFEA21
:102ED70033FEEF7803CEC313CE13D8F9123730057C
:102EE7005CE55C7002055BC394F0E55B940040DB36
:102EF700055AE55A70020559C3940AE559940040EA
:0E2F0700C50BBB00010AEB64204A70B5D2B0C6
:012F15002299
:102D0D00122A31C2B0D2B1E4F50CF50DE4FBFAC3D1
:102D1D00EA9400500DE4FDFF1237450BBB00010A8C
:102D2D0080EDE4FAFBE4F50EF50FEBAE027802C38D
:102D3D0033CE33CED8F97803CEC313CE13D8F9FFE3
:102D4D00EB25E0FE33333354F84FFFEB25E025E060
:102D5D00C43354E04EFD123745050FE50F700205E3
:102D6D000EC3940FE50E940040C00BBB00010AEB9F
:102D7D0064104A70B0050DE50D7002050CC394404A
:082D8D00E50C94014086D2B070
:012D9500221B
:10315B00122A31C2B0E4F55DF55EE4FBFAE4FDFF43
:10316B001237450BBB00010AEB64104A70EFE4FA0F
:10317B00FBE4F55FF560EB25E0FFEA33FEEF780348
:10318B00CEC313CE13D8F91237300560E560700249
:10319B00055FC39407E55F940040DB0BBB00010A9E
:1031AB00EB64204A70CB055EE55E7002055DC3944F
:0931BB0040E55D940140A3D2B08F
:0131C40022E8
:101F4600122A31E4F583F582E4FD7FF8123745A3C2
:101F5600E58264F0458370F00BBB00010AEB642850
:101F66004A70E0E4FAFBE4F583F5827DE07F071230
:101F76003745A3E58264F0458370F00BBB00010A88
:101F8600EB64284A70E0E4FAFBE4F583F5827D1FF2
:101F9600E4FF123745A3E58264F0458370F00BBB7E
:101FA60000010AEB64284A70E0E4FAFBE4F583F5E5
:101FB600827DE07FFF123745A3E58264F04583709A
:101FC600F00BBB00010AEB64284A70E0E4FAFBE47C
:101FD600F583F5827D1F7FF8123745A3E58264F00D
:101FE600458370F00BBB00010AEB64284A70E0E4FD
:101FF600FAFBE4F583F5827DFF7F07123745A3E5FB
:102006008264F0458370F00BBB00010AEB64284A3A
:1020160070E0E4FAFBE4F583F5827DFF7FFF12377B
:1020260045A3E58264F0458370F00BBB00010AEB23
:1020360064284A70E0E4FAFBE4F583F582E4FDFFE8
:10204600123745A3E58264F0458370F10BBB0001AE
:102056000AEB64284A70E1E4FAFBC3EA9400501BD9
:10206600E4F583F582E4FDFF123745A3E58264F0CB
:0B207600458370F10BBB00010A80DF06
:01208100223C
:10335300EFC3942050047F5F8050EFC39420400C50
:10336300EFD3942F5006EF2428FF803EEFC3943011
:10337300400CEFD39439500674D02FFF802CEFC349
:10338300943A400CEFD394405006EF241EFF801A6A
:10339300EFC39441400CEFD3947E5006EF24C9FF52
:0B33A3008008EFD3947E40027F5F2281
:10298D00FDE43517FC851B25851C26851D27851E19
:05299D0028AB1AAA1985
:0629A2008F20AF05AE041A
:1029A800EB240FFDE43A15691569A869F608A60530
:1029B800EF2407FDE43EFC122A48AF207E00D3EF47
:1029C800945FEE940040027F5FEFC4F8540FC8682C
:1029D800FFEEC454F048FE752AFF752B00752C8E47
:1029E800EF252CF52CEE352BF52BE4F529AB2A0534
:1029F8002CE52CAA2B7002052B14F9120EEAFBE425
:102A0800FAEBA802088002C333D8FC30E706AF26E9
:102A1800AE258004AF28AE271238D10ABA08E205DD
:082A280029E529C3941040C503
:012A30002283
:102D96008B158A1689178C188D19AB15AA16A917C3
:102DA600120EEA7003D38001C34066AB150517E522
:102DB60017AA167002051614F9120EEAFF123353FB
:102DC600851C25851D26851E27851F28AB1BAA1A4F
:102DD600AD19AC181229A2D3E51994E7E5189400A9
:102DE6004012E4F518F5197410251BF51BE4351A85
:102DF600F51A800B74082519F519E43518F518D35A
:102E0600E51B942FE51A94014090E4F51AF51B8012
:022E160089220F
:102B5E008E158F168C178D188A198B1AD3E518942B
:102B6E00CFE517940040067517007518CFD3E51AF8
:102B7E00942FE5199401400CE51A24EFF51AE51986
:102B8E0034FFF519E515C4540FFF851B25851C264A
:102B9E00851D27851E28AB1AAA19AD18AC17122948
:102BAE00A2E515540FFFE518240812298DE515C46A
:102BBE00F854F0C8E516C4540F48540FFFE5182416
:102BCE001012298DE516540FFFE5182418FDE43573
:102BDE0017FC851B25851C26851D27851E28AB1AEF
:052BEE00AA190229A252
:103888007B017D047C007F041211178E678F68E42A
:03389800FEFF220E
:1035ED008A0C8B0DED2401FBE43C15691569A86966
:1035FD00F608A603AB05AA04EF2401FDE43EFC1278
:10360D002A48E50CFFAD0D123745E50CFFAD0D1247
:10361D003745E50CFFAD0D123745E50CFFAD0D023D
:02362D0037451F
:0C328E008E3F8F408C418D428A438B4460
:10329A0015691569A869A64508A646AA43AB44ACB0
:1032AA0041AD42AE3FAF40122A48AB44AA43E5467D
:1032BA002401FFE43545FEC3EB9FEA9E5029854071
:1032CA0082853F83E5422401FFE43541FEC3E5825E
:1032DA009FE5839E500AAF48AE471238D1A380E4D7
:0732EA000BBB00010A80C7C5
:0132F10022BA
:042F94008E618F6259
:102F980075630075640FC3E564943FE5639401505D
:102FA80027856345856446856147856248AB64AA81
:102FB800637DEF7C00E4FFFE12328E74102564F509
:102FC80064E43563F56380CE75630075640FC3E50B
:102FD8006494EFE5639400502775450175463F8575
:102FE8006147856248E4FBFAAD64AC63AF64AE63E5
:102FF80012328E74102564F564E43563F56380CE6F
:0130080022A5
:10375600C294C295E4900233F0EF20E704C2B2802F
:1037660002D2B2D295EF25E0FFC295900233E00473
:05377600F0E0B408E4DE
:01377B00222B
:103009009002341210E600000000C294D2B3E4909A
:103019000233F0900233E0FFC3940C5049C295305B
:10302900B33AC3740B9FFF74017E00A8070880059B
:10303900C333CE33CED8F9FFEE3395E0FDFC9002D1
:1030490034E0F8A3E0F9A3E0FAA3E04FFFEA4EFE6B
:10305900E94DFDE84CFC9002341210DAD295900249
:1030690033E004F080ADD294900234A3A3E0FEA330
:02307900E0FF76
:01307B002232
:0221B900AB0772
:1021BB00E490021AF0A3F0A3F0D2B590021AE0C398
:1021CB00940B502C20B529C294EB04FF12375612F6
:1021DB00300990021AE025E0241DF582E43402F563
:1021EB0083EEF0A3EFF090021AE004F0D29480CBD0
:1021FB0090021AE070030222D0E4A3F090021AE0DE
:10220B00F9A3E0C39940030222BCE4A3F090021BA4
:10221B00E0FF90021AE0C39FFF90021CE0C39F40B7
:10222B00030222B3E0FF25E0241FF582E43402F51C
:10223B0083E0FCA3E0FDEF25E0241DF582E43402EE
:10224B00F583E0FEA3E0D39DEE9C405390021CE08F
:10225B0025E0241DF582E43402F583E0FCA3E0FDC8
:10226B00900218ECF0A3EDF0EF25E0241FF582E4CB
:10227B003402F583E0FEA3E0FF90021CE0FB25E0B7
:10228B00241DF582E43402F583EEF0A3EFF0EB2589
:10229B00E0241FF582E43402F583ECF0A3EDF0901B
:1022AB00021CE004F002221890021BE004F0022250
:1022BB0007E9C31325E0241DF582E43402F583E01E
:0822CB00FEA3E0FF22E4FEFF88
:0122D30022E8
:101B02009002001210E6000000009002041210E69B
:101B1200000000009002081210E60000000090028F
:101B22000C1210E6000000009002101210E60000F5
:101B320000009002141210E600000000D2B520B599
:101B4200FD20B603021CA07F327E001237BE30B5E4
:101B520003021C967FD01221B9E4FCFD9002081208
:101B620010DA900208E0FCA3E0FDA3E0FEA3E0246B
:101B7200BDFFEE34FFFEED34FFFDEC34FFFCE47BF1
:101B8200F0FAF9F8120F58E47BA57A02F9F8120F6D
:101B9200E3E4120D357BB87A1E7945783F120C2F9B
:101BA200120D739002001210DA7F901221B9E4FC38
:101BB200FD90020C1210DA90020CE0FCA3E0FDA3EF
:101BC200E0FEA3E024A0FFEE34FFFEED34FFFDECC7
:101BD20034FFFCE47B407A01F9F8120F58E4FB7AF7
:101BE20003F9F8120FE3E4120D357B337A3379737C
:101BF200783F120C2F120D739002041210DA7F0F2D
:101C02007E001237BE30B503021B50E4FFFEFDFC1E
:101C1200900200E0F8A3E0F9A3E0FAA3E0FBC3120C
:101C220010835003021B50E47FF0FEFDFC90020083
:101C3200E0F8A3A3A3E01210834003021B50E4FFC9
:101C4200FEFDFC900204E0F8A3E0F9A3E0FAA3E0B1
:101C5200FBC31210835003021B50E47F407E01FD40
:101C6200FC900204E0F8A3A3A3E012108340030255
:101C72001B50900200A3A3E0FEA3E0FFC006A3A3B3
:101C8200A3E0FEA3E0FDAC06D0067B007AF8123595
:101C9200ED021B507F327E001237BE021B43E4FF6F
:071CA200FE1236BB021B43DA
:100003001201100100000040C410000000000102B2
:1000130003010902200001010080FA090400000223
:10002300FF000000070502024000000705820240AE
:0A00330000000403090401000000AE
:10208200900200EEF0A3EFF0900204EBF0A3EAF06E
:10209200A3E9F0E4900791F0900791E0FF9000032C
:1020A20093FE74402FF582E43407F583EEF0900737
:1020B20091E004F0E0B412E0E4900791F09007910F
:1020C200E0FF90001593FE74522FF582E43407F579
:1020D20083EEF0900791E004F0E0B420E09002007B
:1020E200E0FEA3E0900748F0EEA3F0A3EDF0ECA32E
:1020F200F090077274FFF0A37400F0A37435F090AF
:102102000204E0F9A3E0FAA3E0900775C9F0A3EA9C
:10211200F0A3E9F0900207E0F9A3E0FAA3E0900748
:1021220078C9F0A3EAF0A3E9F090020AE0F9A3E08B
:10213200FAA3E090077BC9F0A3EAF0A3E9F09002CA
:102142000DE0FFC394FA500590075AEFF090020E8B
:10215200E0900759F090020FE0FEA3E090074CF0E8
:10216200EEA3F0E59620E7FB759601759708E596D4
:1021720020E7FB75960775970FE59620E7FB7596A6
:102182000975970EE59620E7FB75960B759707750F
:10219200D7E01238BAE4900793F0900792F09007D4
:1021A20094F0900786F043E602D2AFE59620E7FB73
:0721B20075960175970122EB
:1036E2009007867402F0E59620E7FB7596017597C0
:1036F20001E490078EF0A37403F0A3F0E490079323
:07370200F090079204F02291
:10153900E59620E7FB75960EE4F597E59620E7FB1F
:10154900759691E59620E7FB90079EE597F0E0FFF9
:1015590030E210E59620E7FB759611E4F5979007C0
:101569008EF022EF30E410E59620E7FB75961175B1
:101579009780E490078EF090078EE0600302166A68
:1015890090079EE020E00302166A7596204396C0F4
:10159900E4900791F0E59620E7FB900791E0247E1F
:1015A900F582E43407F583E597F0900791E004F0BC
:1015B900E0B407E1E59620E7FBE4F596900791E0B2
:1015C900247EF582E43407F583E597F0900781E0FE
:1015D900FE900780E07C002400FFEC3E900795F028
:1015E900A3EFF0900785E0FE900784E02400FFEC6C
:1015F9003E900797F0A3EFF090077FE0B40C0050FE
:101609005D901611F828287302163502163A02164B
:101619003F02164402166702164902164E02166761
:1016290002165302165802165D02166212307C80A9
:1016390030123408802B1225F7802612346080215D
:1016490012379E801C12282C80171235A680121280
:1016590033AE800D123709800812386180031237C2
:10166900FB90078EE06401600302176B90079E747C
:1016790002F0C390078DE0944090078CE0940040FD
:1016890061E59620E7FB759620E4900791F09007B5
:1016990091E0FFC394405022900787E0FBA3E0FA52
:1016A900A3E0F98F82758300120F03F597E5962061
:1016B900E7FB900791E004F080D4900788E475F087
:1016C90040120F4290078DE024C0F090078CE0345F
:1016D900FFF090078BE02440F090078AE03400F097
:1016E9008052E59620E7FB759620E4900791F090EB
:1016F9000791E0FFD390078DE09F90078CE094005D
:101709004026900787E0FBA3E0FAA3E0F990079150
:10171900E0F582758300120F03F597E59620E7FB44
:10172900900791E004F080C790079EE04408F0E438
:1017390090078EF0900797E0FEA3E0FF90078AE0FC
:10174900B50611A3E0B5070C90079EE04408F0E444
:1017590090078EF0E59620E7FB75961190079EE0BD
:03176900F59722CF
:1037FB00E59620E7FB75960EE4F597E59620E7FB3B
:0D380B0075961175972090078E7404F022B9
:10307C0090077EE0247F600714600624027048806D
:10308C002D90078FE0B40309900782E0B402028010
:10309C000E900790E0B40316900782E0B4820F9074
:1030AC00078774FFF0A37400F0A37439800D9007A8
:1030BC008774FFF0A37400F0A3743BF090078CE4CA
:1030CC00F0A37402F080031237FB90078EE06404C7
:1030DC00601012386190078E7401F0E490078AF04A
:0330EC00A3F0222C
:10340800900780E07041900782E0B4021DE59620A5
:10341800E7FB75960E759702E59620E7FB759614FF
:10342800759780E490078FF08020E59620E7FB757C
:10343800960E759702E59620E7FB759611759740ED
:10344800E4900790F080031237FBE59620E7FB75C0
:08345800960EE4F597023861BD
:1025F700900796E020E00302268D900794E030E0F4
:102607000854FEF04402F08007900794E054FDF070
:10261700E59620E7FB75960E759702E59620E7FB92
:10262700759614759710E59620E7FB7596117597C3
:1026370008E59620E7FB759694E59620E7FB90075B
:102647009DE597F0E020E4E9E59620E7FB75961411
:10265700759710E59620E7FB759691E59620E7FBC1
:1026670090079DE597F0E020E3E9E59620E7FB7505
:1026770096117597089007927408F0900794E0FFF9
:1026870030E1034401F0900795E0FCA3E0FD30E161
:102697000D9007867406F0900792E04410F0ED3035
:1026A700E20D9007867404F0900792E04420F0E56D
:0D26B7009620E7FB75960EE4F5970238615A
:10346000900780E07040900782E0B4021BE5962050
:10347000E7FB75960E759702E59620E7FB759614A7
:1034800075972090078F8019E59620E7FB75960EBB
:10349000759702E59620E7FB7596117597109007D2
:1034A000907403F080031237FBE59620E7FB7596D6
:0734B0000EE4F597023861FC
:10379E00E59620E7FBE4F596900780E0FFF597EFBE
:1037AE0090078660057403F080037402F00238619E
:10282C00900781E024FE601B14603B2402706990C9
:10283C0007877401F0A37407F0A37440F09007406D
:10284C00E0804A9007877401F0A37407F0A37452D8
:10285C00F0900755E0FE900754E07C002400FFEC5C
:10286C003E90078C802C900780E075F003A42472B6
:10287C00F582E43407F583E0FBA3E0FAA3E0F990DA
:10288C000787EBF0A3EAF0A3E9F0120EEAFF90073A
:10289C008CE4F0A3EFF080031237FB90078CE0FE82
:1028AC00A3E0FF900797E0FCA3E0FDC39FEC9E50D4
:1028BC000890078CECF0A3EDF090078EE0640460B8
:1028CC001012386190078E7401F0E490078AF0A31F
:0228DC00F022E8
:1035A600900786E0FFB40414A374FFF0A37400F040
:1035B600A37439F090078CE4F0A304F0EFB403167B
:1035C60090078774FFF0A37400F0A3743BF0900794
:1035D6008CE4F0A304F012386190078E7401F0E4D5
:0735E60090078AF0A3F02218
:1033AE00900780E0D394004042900792E04440F0B2
:1033BE009007867404F0E490078FF0A3F0E5962052
:1033CE00E7FB75960E759702E59620E7FB7596124C
:1033DE00759784E59620E7FB759615759780E596AB
:1033EE0020E7FB75960EE4F597800C900786740324
:0A33FE00F090078FF0A3F002386191
:1037090090078774FFF0A37400F0A3743BF090074F
:103719008CE4F0A304F012386190078E7401F0E490
:0737290090078AF0A3F022D3
:1038610090078EE06404600BE59620E7FB759611E6
:0438710075974022E5
:03004300021CA9F3
:101CA900C0E0C0F0C083C082C0D075D000C000C001
:101CB90001C002C003C004C005C006C0079007A147
:101CC900E596F0E59620E7FB75968EE59620E7FB0D
:101CD9009007A2E597F0E59620E7FB759686E596CD
:101CE90020E7FB900799E597F0E030E30BE59620B4
:101CF900E7FB75960B759707900799E030E2031299
:101D090036E2900799E030E014900786E0FF64041A
:101D19006004EFB40607900792E04480F0E596204E
:101D2900E7FB759682E59620E7FB900799E597F022
:101D3900E030E003121539900799E030E22AE59680
:101D490020E7FB75960E759702E59620E7FB7596D9
:101D590091E59620E7FB90079AE597F0E054037028
:101D690007900792E04402F0E59620E7FB75968418
:101D7900E59620E7FB900799E597F0E030E229E541
:101D89009620E7FB75960E759702E59620E7FB7599
:101D99009694E59620E7FB90079AE597F0E030E006
:101DA90007900792E04404F0E59620E7FB75960E4C
:101DB9009007A2E0F597E59620E7FB9007A1E59645
:101DC900F0E59620E7FB900794E030E00990079250
:101DD900E0600312377CD007D006D005D004D003C9
:101DE900D002D001D000D0D0D082D083D0F0D0E0C2
:011DF90032B7
:10362F00E5B964E0602E53A90FC0A943B280E5A9A4
:10363F005407D394014003E4F5A9E4F5B943B980E5
:10364F00E4D5E0FD43B9C0E5B930E5FBD0E0B40205
:08365F000343A90253A90F2245
:1036670053D7BF43C910E5A95402900791F043B25D
:103677008075A910E4F5B943B2200012362F9007E0
:0B36870091E042A953C9EF43D7402255
:0E38AC00900792E0FFE4F022900792E0FF22E6
:1028DE00900786E0B40606EDD3944040037F0022B5
:1028EE00E59620E7FB75960E759702E59620E7FBB9
:1028FE00759694E59620E7FB90079CE597F0E0200F
:10290E00E00302298AE59620E7FB759696E5962068
:10291E00E7FB900793E597F0E0FFEDC39F5006AEFF
:10292E0005AF068000900793EFF053E6FDE5962085
:10293E00E7FB7596E2900793E06025FEEB600630AC
:10294E00E70F7F0022E59620E7FBA79709DEF680CA
:10295E000F89828A83E59620E7FBE597F0A3DEF5E3
:10296E00E59620E7FBE4F596E59620E7FB759614D1
:0F297E00E4F59743E602900793E0FF227F0022E3
:1022D400900786E0B4060DED4C6009D3ED9400EC54
:1022E40094104004E4FEFF2253E6FDE490079FF0BF
:1022F400A3F090079BF089828A83C083C0829007F1
:102304009BE030E0030223D5E59620E7FB75960EAB
:10231400759702E59620E7FB759691E59620E7FB15
:1023240090079BE597F0E030E020E59620E7FB7509
:10233400960EE4F597E59620E7FB759691E59620D1
:10234400E7FB90079BE597F080B4C3ED9440EC94D1
:10235400009007A0E0401B2440F090079FE0340069
:10236400F074C02DFD74FF3CFCE490079BF07840B2
:1023740080132DF090079FE03CF090079B7401F0D0
:10238400A805E4FCFDE59620E7FB759622D082D0F3
:1023940083E8602BEB601130E71AE59620E7FBE455
:1023A40093F597A3D8F48017E59620E7FB87970960
:1023B400D8F6800BE59620E7FBE0F597A3D8F5C0A7
:1023C40083C082E59620E7FB759611759701022379
:1023D40002D082D08343E60290079FE0FEA3E0FF91
:0123E40022D6
:10383200900794E04401F0900792E0600BE5962037
:09384200E7FB75960B75970F2248
:0C38BA00E59620E7FB75960F75978922B4
:10377C00D007D007D007D006D005D004D003D00294
:10378C00D001D000D0D0D082D083D0F0D0E00200D5
:02379C008B227E
:100C2F00EC4D6011E8497017ED33EC3304600DE4BF
:100C3F00FCFFFEFD22E933E8330470F8020DDF12EA
:100C4F000DAA58046009E4CC2481500628500902EB
:100C5F000DE9284003020DE6C0E0EB4A7044B9806D
:100C6F0006D0E0FB020DD5EF4E701CBD8008EBFFE8
:100C7F00EAFEE9FD80EBE98DF0A4FEE5F0020D1828
:100C8F00E9CDF9EAFEEBFFEF89F0A4FCE5F0CE89A0
:100C9F00F0A42EFFE435F0CD89F0A42DFEE435F05D
:100CAF008067EF4E7005BD80D780C3EF8BF0A4AC8B
:100CBF00F0EE8BF0A42CFCE435F0F8EF8AF0A42CC6
:100CCF00E5F038FCE433CB8DF0A42CFCE5F03BF8D9
:100CDF00EE8AF0A42CFCE5F038F8E433CF89F0A4C9
:100CEF002CFCE5F038CF3400CE89F0A42FFFE5F0CF
:100CFF003EFEE433C98DF0A42EFEE5F039CD8AF027
:100D0F00A42FFFE5F03EFEE43DFD33D0E0FB50079E
:100D1F000BBB000F020DE9EC2CFCEF33FFEE33FEA3
:060D2F00ED33FD020DC1D1
:100D350075F020800E75F010800575F0087D007E39
:100D4500007F003392D530D503121075EC33401077
:100D5500EF33FFEE33FEED33FDEC33FCD5F0ED2242
:0E0D6500E5F0247EA2D513CC92E7CDCEFF227E
:100D7300EDD2E7CD33EC3392D524814006E4FFFE78
:100D8300FDFC22FCE4CFCECDCC24E0501174FF80D7
:100D9300EDC3CC13CCCD13CDCE13CECF13CF047074
:070DA300F030D5DE021075EF
:100DAA00E9D2E7C933E833F892D5EDD2E7CD33EC8F
:070DBA0033FC5002B2D52208
:100DC100EC30E7100FBF000C0EBE00080DBD000493
:100DD1000BEB6014A2D5EB13FCED92E7FD2274FF3F
:100DE100FCFDFEFF22E480F8A2D574FF13FC7D8098
:030DF100E480EFAC
:03000000022C814E
:0C2C8100787FE4F6D8FD758169022CC84C
:100DF400E709F608DFFA8046E709F208DFFA803EE1
:100E040088828C83E709F0A3DFFA8032E309F608CD
:100E1400DFFA8078E309F208DFFA807088828C8335
:100E2400E309F0A3DFFA806489828A83E0A3F608E9
:100E3400DFFA805889828A83E0A3F208DFFA804CC3
:100E440080D280FA80C680D4806980F2803380109A
:100E540080A680EA809A80A880DA80E280CA803303
:100E640089828A83ECFAE493A3C8C582C8CCC5837B
:100E7400CCF0A3C8C582C8CCC583CCDFE9DEE7804B
:100E84000D89828A83E493A3F608DFF9ECFAA9F0CA
:100E9400EDFB2289828A83ECFAE0A3C8C582C8CC20
:100EA400C583CCF0A3C8C582C8CCC583CCDFEADE39
:100EB400E880DB89828A83E493A3F208DFF980CC9B
:100EC40088F0EF60010E4E60C388F0ED2402B40494
:100ED4000050B9F582EB2402B4040050AF2323453B
:060EE4008223900E44730E
:100EEA00BB010689828A83E0225002E722BBFE0206
:090EFA00E32289828A83E4932239
:100F0300BB010CE58229F582E5833AF583E02250A3
:100F130006E92582F8E622BBFE06E92582F8E222ED
:0D0F2300E58229F582E5833AF583E4932207
:100F3000EF8DF0A4A8F0CF8CF0A428CE8DF0A42ED5
:020F4000FE228F
:100F4200C5F0F8A3E028F0C5F0F8E582158270023A
:060F52001583E038F022D7
:100F5800E88FF0A4CC8BF0A42CFCE98EF0A42CFC38
:100F68008AF0EDA42CFCEA8EF0A4CDA8F08BF0A4B6
:100F78002DCC3825F0FDE98FF0A42CCD35F0FCEB15
:100F88008EF0A4FEA9F0EB8FF0A4CFC5F02ECD39DA
:0F0F9800FEE43CFCEAA42DCE35F0FDE43CFC2247
:100FA70075F008758200EF2FFFEE33FECD33CDCC01
:100FB70033CCC58233C5829BED9AEC99E582984084
:100FC7000CF582EE9BFEED9AFDEC99FC0FD5F0D661
:100FD700E4CEFBE4CDFAE4CCF9A88222B800C1B98B
:100FE7000059BA002DEC8BF084CFCECDFCE5F0CBC9
:100FF700F97818EF2FFFEE33FEED33FDEC33FCEB02
:1010070033FB10D703994004EB99FB0FD8E5E4F9BC
:10101700FA227818EF2FFFEE33FEED33FDEC33FCA9
:10102700C933C910D7059BE99A4007EC9BFCE99A9D
:10103700F90FD8E0E4C9FAE4CCFB2275F010EF2FE2
:10104700FFEE33FEED33FDCC33CCC833C810D707E2
:101057009BEC9AE899400AED9BFDEC9AFCE899F81D
:0E1067000FD5F0DAE4CDFBE4CCFAE4C8F922B0
:0E107500C3E49FFFE49EFEE49DFDE49CFC228C
:10108300EB9FF5F0EA9E42F0E99D42F0E89C45F0C3
:01109300223A
:10109400E8600FECC313FCED13FDEE13FEEF13FF3A
:0310A400D8F1225E
:1010A700E8600FEFC333FFEE33FEED33FDEC33FCA7
:0310B700D8F1224B
:1010BA007401FF3395E0FEFDFC080808E6CF2FF621
:1010CA0018E6CE3EF618E6CD3DF618E6CC3CF622FA
:0C10DA00ECF0A3EDF0A3EEF0A3EFF02289
:1010E600A8828583F0D083D0821210FD1210FD12E3
:1010F60010FD1210FDE473E493A3C583C5F0C58308
:10110600C8C582C8F0A3C583C5F0C583C8C582C853
:0111160022B6
:102C8D000234B7E493A3F8E493A34003F68001F272
:102C9D0008DFF48029E493A3F85407240CC8C33348
:102CAD00C4540F4420C8834004F456800146F6DF17
:102CBD00E4800B0102040810204080903692E47EDF
:102CCD00019360BCA3FF543F30E509541FFEE4930C
:102CDD00A360010ECF54C025E060A840B8E493A3D3
:102CED00FAE493A3F8E493A3C8C582C8CAC583CAFE
:102CFD00F0A3C8C582C8CAC583CADFE9DEE780BEB6
:0136BA00000F
:00000001FF
