:10360D00555342204445425547005553422052459B
:10361D0041440010C4EA611A03530069006C00694B
:10362D000063006F006E0020004C006100620073AB
:10363D000010035500530042002000410050004986
:10364D00000A0343003500310046000F80010001E0
:1037880081090081100081150081170081180081CE
:103798001600810D00820E000084110000000181D6
:0837A8000AAA810B55810CFFF8
:1038FD0012333630B614122A7F121B46122C67E48F
:0A390D00FFFE1200461217C780E902
:01391700228D
:1038C100E4FDFCC3ED9FEC9E5014E4FBFA0BBB003E
:0E38D100010AEBF44A70F60DBD00010C80E513
:0138DF0022C6
:0735BC007800EEF208EFF2C7
:1035C300E408F208F230B721E4FFFED37801E29F6A
:1035D30018E29E401EE4FDFC0DBD00010CEDF44C11
:1035E30070F60FBF00010E80E21239717F147E0066
:1035F3001238C17803E22401F218E23400F2C3085E
:09360300E2946418E2940040BC5A
:01360C00229B
:1039710030B60512008E80F87FF47E011238C13016
:03398100B6FD226E
:10008E0078087C007DFE7BFF7A36795C7E007F01EE
:10009E00120F2F7810E2700302026E78047401F2D0
:1000AE007804E2FFC39410507BEF25E025E024E8AE
:1000BE00F582E43402F583E07028E2FD25E025E0C8
:1000CE0024E9F582E43402F583E0FEED25E025E037
:1000DE0024EAF582E43402F583E0FDEDFF1237B534
:1000EE00803A7804E225E025E024E8F582E4340243
:1000FE00F583E0B40126E2FD25E025E024E9F58252
:10010E00E43402F583E0FEED25E025E024EAF582F5
:10011E00E43402F583E0FDEDFF12375D7804E2046E
:10012E00F20200AE0000000000000000000000001F
:10013E0000000000000000007BFF7A36790DE478A5
:10014E0063F208F208F208F274FF08F208F2E4FD16
:10015E00FC122D029002EBE020E003020253780421
:10016E007401F27804E2FFC394104003020253EFCD
:10017E0025E025E024E8F582E43402F583E07055AD
:10018E00E2FD25E025E024E9F582E43402F583E082
:10019E00FEED25E025E024EAF582E43402F583E065
:1001AE00FDEDFFE2FB25E025E024EBF582E43402D1
:1001BE00F583E075F024A4FDACF0EB75F011A4FB13
:1001CE00AAF0786F7407F20874E0F2E408F208F20D
:1001DE0012286B80687804E2FB25E025E024E8F520
:1001EE0082E43402F583E064017052E2FD25E025DD
:1001FE00E024E9F582E43402F583E0FEED25E02506
:10020E00E024EAF582E43402F583E0FDEDFFEB2510
:10021E00E025E024EBF582E43402F583E075F0246A
:10022E00A4FDACF0EB75F011A4FBAAF0786FE4F22C
:10023E0008741FF274FF08F208F212286B7804E2B9
:10024E0004F2020171000000000000000000000036
:10025E00000000000000000000E47810F20200A18F
:10026E007816E2700302033AE47804F27804E2C3EB
:10027E0094404003020327C2B0D2B1E2FE24E8F557
:10028E0082E43402F583E0FF74E92EF582E4340251
:10029E00F583E0FD120018D2B07804E2FF24E8F5F1
:1002AE0082E43402F583E0FE780E08E2FD2401F2CA
:1002BE0018E2FC3400F274902DF58274003CF58344
:1002CE00EEF074E92FF582E43402F583E0FF08E2E4
:1002DE00FD2401F218E2FC3400F274902DF58274C4
:1002EE00003CF583EFF008E2B4002518E2B40220DA
:1002FE0078111211251230E8780DE2900090F07FFF
:10030E00007E007D007C001230E8E4780EF208F2E8
:10031E007804E22402F202027AE47816F27BFE7A84
:10032E000079087D01FC12242202026E7809E27027
:10033E00030204479002EBE070030203FD7804749D
:10034E0004F27804E2C394244003020434C2B0D20F
:10035E00B1E2FE24E8F582E43402F583E0FF74E9AD
:10036E002EF582E43402F583E0FD120018D2B07847
:10037E0004E2FF24E8F582E43402F583E0FE780E11
:10038E0008E2FD2401F218E2FC3400F274902DF51F
:10039E008274003CF583EEF074E92FF582E43402AA
:1003AE00F583E0FF08E2FD2401F218E2FC3400F2CE
:1003BE0074902DF58274003CF583EFF008E2B400E2
:1003CE002518E2B4022078111211251230E8780DAA
:1003DE00E2900090F07F007E007D007C001230E8FD
:1003EE00E4780EF208F27804E22402F20203507866
:1003FE00047404F27804E2C39424502AC2B0D2B139
:10040E00E2FE24E8F582E43402F583E0FF74E92E7F
:10041E00F582E43402F583E0FD120018D2B07804C0
:10042E00E22402F280CEE47809F27BFE7A007908AB
:10043E007D01FC12242202033A7818E270030204B2
:10044E00FE78047404F27804E2FFC394244003029D
:10045E0004EB74E82FF582E43402F583E07020E2B9
:10046E00FD24E9F582E43402F583E0FE74EA2DF50D
:10047E0082E43402F583E0FDEDFF1237B580557846
:10048E0004E224E8F582E43402F583E0B40120E2CC
:10049E00FD24E9F582E43402F583E0FE74EA2DF5DD
:1004AE0082E43402F583E0FDEDFF12375D8025789E
:1004BE0004E224E8F582E43402F583E0641070145B
:1004CE00000000000000000000000000000000001E
:1004DE00000000007804E22404F2020454E47818C8
:1004EE00F27BFE7A0079087D01FC12242202044779
:1004FE007815E27003020653E47804F27804E2FF02
:10050E00C39418501174902FF582E43402F583E4ED
:10051E00F0E204F280E69002EFE025E07807F29038
:10052E0002EDE0FEA3E0FDEE7805F2ED08F290029A
:10053E00ECE06401703C18E2FE08E2FF1237B5E40D
:10054E007804F27807E2FF7804E2C39F5024123950
:10055E00477804E2FD2490F582E43402F583E4F05A
:10056E0074912DF582E43402F583EFF0E22402F269
:10057E0080D1E47815F27B017A0279907807E2FD5A
:10058E007C001224227F647E001238C17BFF7A36F3
:10059E007917E47863F208F208F208F274FF08F2B1
:1005AE0008F2E4FDFC122D029002EBE020E00302C3
:1005BE0004FE9002F0E075F024A4FDACF07805E2A4
:1005CE00FE08E2FF786F7407F20874E0F2E408F2B6
:1005DE0008F27B11FA12286BE47804F27807E2FF36
:1005EE007804E2F9C39F40030204FE9002F0E07526
:1005FE00F024A4FDACF0C004C005E9C3132402FF2F
:10060E00E433FE7C007D11120F9BAA06AB0774909B
:10061E0029F582E43402F583E0FE749129F582E433
:10062E003402F583E0FDEDFF786FE4F208741FF2FB
:10063E0074FF08F208F2D005D00412286B7804E299
:10064E002402F280977817E26041E47804F278048D
:10065E00E2FFC39440501174A82FF582E43402F5E2
:10066E0083E4F0E204F280E69002A87401F0A37431
:10067E0040F0E4A3F0A374F0F0E47817F27B017A73
:0B068E000279A87D40FC12242280BAF3
:01069900223E
:1036A40053D9BF75B283E4F5B943B980FF0FEFB4C2
:1036B400FFFB43B9C0E5B930E5FBE4F5A943EF02EC
:1036C40075F1FF75A4FF75A5FF75F2FF75A6FF756B
:1036D400AEFF75F4FF43A717C286C28743E10243D6
:0236E400E240C2
:0136E60022C1
:103336001236A4123721903620E493FE740193FFCF
:10334600903622E493FC740193FD90032F74FFF0F2
:10335600A37436F0A3743EF0A374FFF0A37436F0A2
:10336600A3744EF0903658E493900335F090365996
:10337600E493900336F090365AE493FB74019390ED
:103386000337CBF0A3EBF07BFF7A3679241220A625
:0C33960012391875A17075F80F021602AC
:0339C3000237E0E8
:03008B00021F69E8
:101F6900C0E0C0F0C083C082C0D075D000C000C03E
:0D1F790001C002C003C004C005C006C007BF
:101F86001239957885EFF220E2030220307B017A40
:101F96000279E87D401229D0780AE2FF9002E8E053
:101FA600FEB5071408E2FDA3E0B5050C08E2FDA3A3
:101FB600E0B505047810806F780CE2FDB5061318BD
:101FC600E2FE9002E9E0B50609A3E0B5070478153C
:101FD6008055780BE2FF9002E8E0B5071118E2FEA3
:101FE600A3E0B50609A3E0B5050478178039780A99
:101FF600E2FE9002E8E0FDB50612780CE2FCA3E0F2
:10200600B50409A3E0B507047809801B780CE2B58E
:1020160005139002E9E0B5060C18E2FFA3E0B50748
:10202600047818800278167401F27885E230E703A6
:102036001239C37885E230E6031236A47885E23099
:10204600E41C15081508A8087401F208743FF27A12
:10205600007B007C007DEF7E007F00122BE57885FB
:10206600E230E521780DE204F215081508A8087497
:1020760001F208743FF27A007B007C007DEF7E005F
:052086007F00122BE5B4
:10208B00D007D006D005D004D003D002D001D000A9
:0B209B00D0D0D082D083D0F0D0E03253
:0C3931007FFF12393D7FFF12393D7FFF00
:09393D008FA330FFFDC2FFAFA310
:01394600225E
:0A39AF0075A3FF30FFFDC2FFAFA3B8
:0139B90022EB
:0231DB00AE073D
:1031DD00E4FB123931123931C2FAEE4440FF123993
:1031ED003D781AE2FC08E2FD08E2FE08E2FF7818DD
:1031FD001210FF12393D781AE2FC08E2FD08E2FEDA
:10320D0008E2FF78101210FF12393D781AE2FC081F
:10321D00E2FD08E2FE08E2FF78081210FF12393DC8
:10322D00781A080808E2FF12393D7F9512393D7F63
:10323D00FF12393DBFFF09AE030BEED3946440EF8F
:02324D00D2FAB3
:01324F00225C
:1027B400E4FEFA75A90375A23BE4FD7FFF12393DDF
:1027C4000DEDB464F6781A12118E00000000E4FFD7
:1027D4001231DBAE070AEAD3940A5004EEB401D9ED
:1027E400E4FA781A12118E000000007F371231DBF0
:1027F400AE070AEAD3946440037F0122EEB401E2F7
:10280400E4FA781A12118E000000007F291231DBDD
:10281400AE070AEAD3946440037F0122EE70C3EE4C
:10282400601FE4FA781A12118E000000007F011272
:1028340031DBAE070AEAD3946440037F0122EE70D1
:10284400E3781A12118E000000007F3B1231DBAED8
:1028540007781A12118E000002007F101231DB7506
:06286400A201E4F5A9FF4A
:01286A00224B
:0533A200781E1211511C
:1033A700E4FA75A903781EE2FC08E2FD08E2FE08CC
:1033B700E2FF7809121112781A1211517F11123196
:1033C700DB0AEAD3940A40037F0122EF70D7C2FADF
:1033D7001239AFBFFEFAE4FDFC1239AF74902DF538
:1033E7008274003CF583EFF00DBD00010CE4B505D8
:0E33F700E8ECB402E4123936D2FAE4F5A9FF8C
:0134050022A4
:0530E8007822121151D5
:1030ED00E4FA75A9037822E2FC08E2FD08E2FE0885
:1030FD00E2FF7809121112781A1211517F1812314C
:10310D00DBAE070AEAD3940A40037F0122EE70D5A5
:10311D00C2FA7FFF12393D7FFE12393DFDFC7490DE
:10312D002DF58274003CF583E0FF12393D0DBD0095
:10313D00010CE4B505E8ECB402E4123931AE07EE4A
:10314D00541F64056003D2FA227FFF12393DEF60F0
:07315D00F8D2FAE4F5A9FF26
:013164002248
:10398400E4F91227B4EF600809E9D3940340F32261
:013994002210
:10069A00000000182442424242424242241800000A
:1006AA00000000107010101010101010107C0000C4
:1006BA000000003C4242420404081020427E00002E
:1006CA000000003C4242041804020242443800007E
:1006DA00000000040C14242444447E04041E000078
:1006EA000000007E40404058640202424438000044
:1006FA000000001C24404058644242422418000072
:10070A000000007E44440808101010101010000069
:10071A000000003C4242422418244242423C00006B
:10072A000000001824424242261A0202243800001D
:10073A000000001010182828243C444242E7000018
:10074A00000000F8444444784442424244F800001D
:10075A000000003E4242808080808042443800008F
:10076A00000000F8444242424242424244F8000039
:10077A00000000FC424848784848404242FC0000D9
:10078A00000000FC424848784848404040E00000E9
:10079A000000003C44448080808E84444438000039
:1007AA00000000E7424242427E42424242E70000E3
:1007BA000000007C1010101010101010107C0000A7
:1007CA000000003E0808080808080808080888F019
:1007DA00000000EE444850705048484444EE00007F
:1007EA00000000E0404040404040404042FE0000DF
:1007FA00000000EE6C6C6C6C5454545454D60000D7
:10080A00000000C7626252524A4A4A4646E2000063
:10081A000000003844828282828282824438000048
:10082A00000000FC424242427C40404040E000005E
:10083A0000000038448282828282B2CA4C380600A2
:10084A00000000FC4242427C4848444442E3000023
:10085A000000003E4242402018040242427C00004E
:10086A00000000FE92101010101010101038000036
:10087A00000000E74242424242424242423C0000F9
:10088A00000000E7424244242428281810100000DF
:10089A00000000D692929292AAAA6C4444440000A4
:1008AA00000000E7422424181818242442E7000014
:1008BA00000000EE444428281010101010380000E0
:1008CA000000007E840408081020204242FC000038
:1008DA00001E1010101010101010101010101E0012
:1008EA0000004040202010101008080404040202EE
:1008FA00007808080808080808080808080878009E
:10090A00001C22000000000000000000000000009F
:10091A00000000000000000000000000000000FFCE
:10092A00006010000000000000000000000000004D
:10093A00000000000000003C421E2242423F00002C
:10094A00000000C0404040586442424264580000DF
:10095A00000000000000001C22404040221C000051
:10096A00000000060202021E22424242261B00002A
:10097A00000000000000003C427E4040423C000073
:10098A000000000F1110107E10101010107C0000D3
:10099A00000000000000003E444438403C42423C13
:1009AA00000000C04040405C6242424242E7000010
:1009BA00000000303000007010101010107C000091
:1009CA000000000C0C00001C040404040404447815
:1009DA00000000C04040404E4850684844EE0000C5
:1009EA00000000701010101010101010107C000081
:1009FA0000000000000000FE4949494949ED000095
:100A0A0000000000000000DC6242424242E70000AF
:100A1A00000000000000003C42424242423C00000A
:100A2A0000000000000000D864424242447840E0DE
:100A3A00000000000000001E22424242221E02075D
:100A4A0000000000000000EE3220202020F8000004
:100A5A00000000000000003E42403C02427C0000D0
:100A6A00000000000010107C10101010100C000084
:100A7A0000000000000000C642424242463B00001D
:100A8A0000000000000000E74224242810100000A3
:100A9A0000000000000000D79292AAAA4444000075
:100AAA00000000000000006E2418181824760000C8
:100ABA0000000000000000E742242428181010E07B
:100ACA00000000000000007E44081010227E000092
:100ADA0000030404040404080404040404040300D2
:100AEA00080808080808080808080808080808087C
:100AFA000060101010101008101010101010600074
:100B0A00304C43000000000000000000000000001C
:100B1A0000000000000000000000000000000000CB
:100B2A00000000101010101010100000181800001B
:100B3A0000123624480000000000000000000000F7
:100B4A00000000242424FE484848FE484848000083
:100B5A0000001038545450301814145454381010DB
:100B6A0000000044A4A8A8A8541A2A2A2A4400006B
:100B7A0000000030484848506EA4948889760000E6
:100B8A0000606020C00000000000000000000000BB
:100B9A0000020408081010101010100808040200BF
:100BAA00004020101008080808080810102040000B
:100BBA00000000001010D63838D6101000000000CF
:100BCA000000000010101010FE101010100000009D
:100BDA00000000000000000000000000606020C06B
:100BEA0000000000000000007F000000000000007C
:100BFA00000000000000000000000000606000002B
:100C0A0000000102020404080810102020404000DD
:100C1A00000000000000181800000000181800006A
:100C2A00000000000000001000000000001010206A
:100C3A0000000002040810204020100804020000EE
:100C4A00000000000000FE000000FE00000000009E
:100C5A000000004020100804020408102040000090
:100C6A000000003C42426202040808001818000012
:100C7A0000000038445AAAAAAAAAB442443800007A
:100C8A00FFFFFFFFFFFFFFFFFFFFFFFFFFFFFFFF6A
:0437B0008283000010
:041E27007888EFF2D6
:101E2B00ED64044C6003021F5F75A6FFE2FFC2B0B6
:101E3B00C2B1E4FDC2A1EF30E704D2A08002C2A080
:101E4B00D2A1EF25E0FF0DEDB408E975A6FEEB641A
:101E5B00016005EB6403702AE4FDC2A1D287D2A016
:101E6B00788AE225E0FF18E233FEA2A0E433F58284
:101E7B00EEF2EF458208F2C287D2A10DEDB409DA7A
:101E8B008032EB64026005EB64047028E4FDC2A1B0
:101E9B00D287D2A0788AE225E0FF18E233FEA2A017
:101EAB00E433F582EEF2EF458208F2C287D2A10D40
:101EBB00EDB410DAE4FDC2A1D287D2A0788CE22572
:101ECB00E0FF18E233FEA2A0E433F582EEF2EF4519
:101EDB008208F2C287D2A10DEDB408DAE4FDC2A1EB
:101EEB00D287D2A0E925E0FFA2A0E4334FF9C28745
:101EFB00D2A10DEDB408E7E4FDC2A1D287D2A07840
:101F0B008FE225E0FFA2A0E4334FF2C287D2A10DEE
:101F1B00EDB408E575A6FFC287D296D2B1D2A1D295
:101F2B00A0D2B0EBB40112788AE2FE08E24EFF08B1
:101F3B00E208CFF208EFF2801BEB6402600AEBB40D
:101F4B0003028004EBB4040C788CE2FEE9FDEE088E
:0D1F5B00F2ED08F2C287788DE2FE08E2FF89
:011F68002256
:0437B500AD07AC06AA
:1037B900EC788DF2C2B0C2B1E4FBED30E704D2A0DF
:1037C9008002C2A0ED25E0FDEC33FCC2A1D2A10B21
:0637D900EBB408E6D2B0DB
:0137DF0022C7
:04375900F808E2FF8B
:04375D00AD07AC0602
:10376100EC788DF2C2B0D2B1E4FBED30E704D2A027
:103771008002C2A0ED25E0FDEC33FCC2A1D2A10B79
:06378100EBB408E6D2B033
:01378700221F
:10000300FFAE03EE33333354F84FFFEE25E0FEC467
:050013003354E04BFD39
:10001800C2B0D2B1E4FEEF25E0FF92A0C2A1D2A106
:100028000EEEB408F1D2B1E4FEED25E0FD92A0C2D7
:0A003800A1D2A10EEEB408F1D2B07F
:01004200229B
:0939BA00AD07AC06ECFF02001899
:10160200123947D2857F967E001238C1C2857F7813
:101612007E001238C1D2857F967E001238C17FCFFC
:101622007E001237B5E4FF12375D7FC312375D7F4C
:101632003012375D7FED1237B57F6412375D7F035D
:1016420012375D7F1212375D7F8112375D7FE8129C
:1016520037B57F8512375DE4FF12375D7F78123729
:101662005D7FCB1237B57F3912375D7F2C12375D24
:10167200E4FF12375D7F3412375D7F0212375D7FE0
:10168200F71237B57F2012375D7FEA1237B5E4FFD4
:1016920012375D12375D7FC01237B57F1912375D81
:1016A2007FC11237B57F1112375D7FC51237B57F03
:1016B2003C12375D7F3F12375D7FC71237B57F9689
:1016C20012375D7F361237B57F0812375D7F3A12C7
:1016D20037B57F5512375D7FB11237B5E4FF123748
:1016E2005D7F1712375D7FB61237B57F0A12375DFD
:1016F2007FA212375D7FF61237B57F0112375D7F09
:101702003012375D7FF21237B5E4FF12375D7F2664
:101712001237B57F0112375D7FE01237B57F0F12A6
:10172200375D7F2612375D7F2212375D7F0A1237BF
:101732005D7F1012375D7F0A12375D7F4C12375D75
:101742007FCA12375D7F3612375DE4FF12375D7F45
:101752001512375DE4FF12375D7F1012375D1237C5
:101762005DE4FF12375D7FE11237B5E4FF12375DAA
:101772007F1912375D7F1B12375D7F0512375D7F40
:101782000F12375D7F0512375D7F3312375D7F356C
:1017920012375D7F4912375D7F0F12375D7F1F124F
:1017A200375D7F0F12375D7F3F12375D12375D7FE6
:1017B2000F12375D7F111237B57F781238C17F293A
:0517C2007E000237B5B6
:102BCB00F2150815087401A808F208743FF27A0090
:0A2BDB007B007C007DEF7E007F0090
:102BE50015081508A808EAF208EBF215081508A853
:102BF50008ECF208EDF215081508A808EEF208EF42
:102C0500F27F2A7E001237B5A908E3FF12375DA8C7
:102C15000808E2FF12375DA8080808A900E3FF12BB
:102C2500375DA808080808E2FF12375D7F2B1237C9
:102C3500B5E5082404F9E3FF12375DE5082404121D
:102C45003759E5082406F9E3FF12375DE508240640
:102C55001237597F2C1237B575A903E5082408F5F5
:022C6500082243
:02004600AC0606
:10004800EC788AF2EF08122BCBC2B0E47888F20879
:10005800F2E4FBFA788AE2FF08E2FD1200180BBB13
:1000680000010AEB64F04A70EB7889E22401F21887
:10007800E23400F2C308E2944018E2940140D2D27C
:01008800B0C7
:010089002254
:102A7F00122BCCC2B079F8E4FC7FF8FD120018E4F9
:102A8F00FB79077CE07F077DE01200180BBB00018C
:102A9F000AEB64EE4A70EAE4F97C1FFF7D1F120017
:102AAF0018E47888F208F279F8E4FC7FF8FD120058
:102ABF0018E4FAFBE4F9FCFFFD1200180BBB000150
:102ACF000AEB64EE4A70EDE4F97C1FFF7D1F1200E4
:102ADF00187889E22401F218E23400F2C308E29474
:102AEF003E18E2940140C079F8E4FC7FF8FD120033
:102AFF0018E4FAFB79077CE07F077DE01200180BE2
:102B0F00BB00010AEB64EE4A70EAE4F97C1FFF7D1B
:092B1F001F120018E4F5A9D2B060
:012B2800228A
:101B460078887450F2E4788AF218746AF2788B74A2
:101B560002F2C2B01508150814122BD2E4FB7889DC
:101B6600E2FFC3EB9FEA94005069E4788CF2788830
:101B7600E2FF788CE2C39F500CE4FD7FF812001858
:101B8600E204F280E9E4788CF27888E2FF788CE26D
:101B9600C39F500C7D1FE4FF120018E204F280E997
:101BA600E4788CF2788AE2FF7888E22FFFE433FE4D
:101BB600788CE2C39FEE6480F8748098500E7DE0C6
:101BC6007F07120018788CE204F280D80BBB000164
:101BD6000A808BE4FAFB7889E2FFC3EB9FEA940064
:101BE6005069E4788CF27888E2FF788CE2C39F50E3
:101BF6000C7DE07F07120018E204F280E9E4788C9D
:101C0600F27888E2FF788CE2C39F500CE4FD7FF8FF
:101C1600120018E204F280E9E4788CF2788AE2FF96
:101C26007888E22FFFE433FE788CE2C39FEE64806F
:101C3600F8748098500E7D1FE4FF120018788CE22D
:101C460004F280D80BBB00010A808BE4FAFB788B88
:101C5600E2FF7889E22FFFE433FEC3EB9FEA9E5052
:101C660069E4788CF27888E2FF788CE2C39F500CA6
:101C76007D1FE4FF120018E204F280E9E4788CF29A
:101C86007888E2FF788CE2C39F500C7DE07F0712D4
:101C96000018E204F280E9E4788CF2788AE2FF78B0
:101CA60088E22FFFE433FE788CE2C39FEE6480F86F
:101CB600748098500EE4FD7FF8120018788CE204C8
:0F1CC600F280D80BBB00010A8084D2B0E4F5A9EC
:011CD50022EC
:032533007826EF18
:10253600122BCBC2B0D2B1782F12118E0000012C13
:102546007826E2FFE4FCFDFE782FE2FB08E2F908BC
:10255600E2FA08E2CBF8120FC3EF2401FFE43EFED5
:10256600E43DFDE43CFC7827121151782FE2FC088B
:10257600E2FD08E2FE08E2FF7827E2FB08E2F9083E
:10258600E2FA08E2CBF8EB2FFFEA3EFEE93DFDE872
:102596003CFC782B8078782BE2FC08E2FD08E2FE12
:1025A60008E2FF7827E2FB08E2F908E2FA08E2CB44
:1025B600F8C31210EE505C7827E2FC08E2FD08E250
:1025C600FE08E2FF1233A2E4FBFAC3EA94025024A7
:1025D60074902BF58274003AF583E0FF74912BF525
:1025E6008274003AF583E0FD12001874022BFBE4B6
:1025F6003AFA80D67827E2FC08E2FD08E2FE08E215
:102606002401FFE43EFEE43DFDE43CFC7827121184
:05261600518083D2B0E9
:01261B00229C
:1013DA00122BCCE4FBE47833F208F2E4FDFF1200AE
:1013EA00187834E22401F218E23400F2C308E294D5
:1013FA001018E2940040E4E47833F208F2E4783515
:10140A00F208F27833E2FE08E27803C333CE33CE31
:10141A00D8F9FFE4FD1200187836E22401F218E246
:10142A003400F2C308E2940718E2940040D57834F5
:10143A00E22401F218E23400F2C308E2942018E22E
:10144A00940040B90BBB00010AEB64504A7086E471
:10145A00FAFBE47833F208F2E4FDFF12001878345C
:10146A00E22401F218E23400F2C308E2941018E20E
:10147A00940040E4E47833F208F2E47835F208F2B2
:10148A007834E225E0FD18E233FCEDAE047803CEB1
:10149A00C313CE13D8F9FFC007EDAE047805C333E2
:1014AA00CE33CED8F9FDD0071200187836E22401DF
:1014BA00F218E23400F2C308E2940718E2940040FA
:1014CA00BF7834E22401F218E23400F2C308E2944D
:1014DA002018E2940040A30BBB00010AEB64504AB7
:1014EA00600302145CE4FAFBE47833F208F2E4FDE8
:1014FA00FF1200187834E22401F218E23400F2C331
:10150A0008E2941018E2940040E4E47833F208F216
:10151A00E47835F208F2783308E2FDE4FF120018A5
:10152A007836E22401F218E23400F2C308E29407A2
:10153A0018E2940040E07834E22401F218E2340020
:10154A00F2C308E2942018E2940040C40BBB0001E5
:10155A000AEB64504A7091E4FAFBE47833F208F239
:10156A00E4FDFF1200187834E22401F218E2340094
:10157A00F2C308E2941018E2940040E4E47833F2EB
:10158A0008F2E47835F208F27833E2FC08E2FD2545
:10159A00E0FFEC33FEEF7803CEC313CE13D8F9FF86
:1015AA00AE05EE33333354F84FFFEE25E0C433541F
:1015BA00E0FE783308E24EFD1200187836E2240184
:1015CA00F218E23400F2C308E2940718E2940040E9
:1015DA00B77834E22401F218E23400F2C308E29444
:1015EA002018E29400409B0BBB00010AEB64504AAE
:0715FA006003021564D2B08A
:0116010022C6
:1021DD00122BCCE4FBC3EA94005029E47839F208C1
:1021ED00F2E4FDFF120018783AE22401F218E2340D
:1021FD0000F2C308E294F018E2940040E40BBB0037
:10220D00010A80D1E4FAFBE47837F208F2E4783978
:10221D00F208F2EBAE027803C333CE33CED8F9FF1A
:10222D00E4FD120018783AE22401F218E23400F2CB
:10223D00C308E2943C18E2940040D8E47839F208DF
:10224D00F2EB25E0FDEA33FCEDAE047803CEC313CB
:10225D00CE13D8F9FFC007EDAE047805C333CE33E6
:10226D00CED8F9FDD007120018783AE22401F21801
:10227D00E23400F2C308E2943C18E2940040C2E458
:10228D007839F208F2AD03E4FF120018783AE2242F
:10229D0001F218E23400F2C308E2943C18E2940013
:1022AD0040E3E47839F208F2EB25E0FFEA33FEEF84
:1022BD007803CEC313CE13D8F9120003783AE22473
:1022CD0001F218E23400F2C308E2943C18E29400E3
:1022DD0040D67838E22401F218E23400F2C308E265
:1022ED00940A18E29400500302221A0BBB00010A53
:0922FD00EB64204A600302221484
:0123060022B4
:102D9800122BCCC2B0D2B1E4FBC3EA94005029E4B0
:102DA800783DF208F2E4FDFF120018783EE22401B3
:102DB800F218E23400F2C308E294F018E2940040FA
:102DC800E40BBB00010A80D1E4FAFBE4783BF2088B
:102DD800F2E4783DF208F2EBAE027803C333CE3367
:102DE800CED8F9FFE4FD120018783EE22401F2186B
:102DF800E23400F2C308E294F018E2940040D87874
:102E08003CE22401F218E23400F2C308E2940A1802
:102E1800E2940040BC0BBB00010AEB64204A70AB93
:022E2800D2B026
:012E2A002285
:102B2900122BCCC2B0D2B1E4FBC3EA94005029E421
:102B39007841F208F2E4FDFF1200187842E224011C
:102B4900F218E23400F2C308E294F018E29400406B
:102B5900E40BBB00010A80D1E4FAFBE4783FF208F8
:102B6900F2E47841F208F2EBAE027803CEC313CE59
:102B790013D8F9FFC007EBAE027805C333CE33CEC5
:102B8900D8F9FDD0071200187842E22401F218E2C0
:102B99003400F2C308E294F018E2940040C9784086
:102BA900E22401F218E23400F2C308E2940518E2C3
:102BB900940040AD0BBB00010AEB64404A709CD203
:012BC900B05B
:012BCA0022E8
:102FDA00122BCCC2B0D2B1E4FBC3EA94005029E46C
:102FEA007845F208F2E4FDFF1200187846E224015F
:102FFA00F218E23400F2C308E294F018E2940040B6
:10300A00E40BBB00010A80D1E4FAFBE47843F2083E
:10301A00F2E47845F208F2AD03E4FF1200187846AC
:10302A00E22401F218E23400F2C308E294F018E252
:10303A00940040E37844E22401F218E23400F2C337
:10304A0008E2940A18E2940040C70BBB00010AEB9D
:07305A0064204A70B6D2B0F9
:01306100224C
:102E2B00122BCCC2B0E4FBC3EA94005029E47849DE
:102E3B00F208F2E4FDFF120018784AE22401F218BE
:102E4B00E23400F2C308E294F018E2940040E40B81
:102E5B00BB00010A80D1E4FAFBE47847F208F2E404
:102E6B007849F208F2EB25E0FFEA33FEEF7803CE68
:102E7B00C313CE13D8F9120003784AE22401F218D7
:102E8B00E23400F2C308E294F018E2940040D678E2
:102E9B0048E22401F218E23400F2C308E2940A1863
:102EAB00E2940040BA0BBB00010AEB64204A70A904
:022EBB00D2B093
:012EBD0022F2
:102C6700122BCCC2B0D2B1E47888F208F2E4FBFAB6
:102C7700C3EA9400500DE4FDFF1200180BBB0001DE
:102C87000A80EDE4FAFBE4788AF208F2EBAE027808
:102C970002C333CE33CED8F97803CEC313CE13D8BD
:102CA700F9FFAE03EE25E0F933333354F84FFFEE67
:102CB70025E025E0FEC43354E049FD120018788B67
:102CC700E22401F218E23400F2C308E2940F18E29A
:102CD700940040B80BBB00010AEB64104A70A77858
:102CE70089E22401F218E23400F2C308E2944018A2
:0A2CF700E294015003022C74D2B0E5
:012D010022AF
:10316500122BCCC2B0E4784BF208F2E4FBFAE4FD92
:10317500FF1200180BBB00010AEB64104A70EFE464
:10318500FAFBE4784DF208F2EB25E0FFEA33FEEFB7
:103195007803CEC313CE13D8F9120003784EE22478
:1031A50001F218E23400F2C308E2940718E2940031
:1031B50040D60BBB00010AEB64204A70C5784CE28F
:1031C5002401F218E23400F2C308E2944018E294B4
:0531D500014098D2B09A
:0131DA0022D2
:10198A00122BCCE4FBE4784FF208F2E4FD7FF81264
:10199A0000187850E22401F218E23400F2C308E297
:1019AA0094F018E2940040E30BBB00010AEB6428B0
:1019BA004A70D2E4FAFBE4784FF208F27DE07F073E
:1019CA001200187850E22401F218E23400F2C30837
:1019DA00E294F018E2940040E30BBB00010AEB64C6
:1019EA00284A70D2E4FAFBE4784FF208F27D1FE449
:1019FA00FF1200187850E22401F218E23400F2C310
:101A0A0008E294F018E2940040E30BBB00010AEBF1
:101A1A0064284A70D2E4FAFBE4784FF208F27DE0D7
:101A2A007FFF1200187850E22401F218E23400F223
:101A3A00C308E294F018E2940040E30BBB00010AE9
:101A4A00EB64284A70D2E4FAFBE4784FF208F27D9C
:101A5A001F7FF81200187850E22401F218E23400CD
:101A6A00F2C308E294F018E2940040E30BBB0001D1
:101A7A000AEB64284A70D2E4FAFBE4784FF208F2DF
:101A8A007DFF7F071200187850E22401F218E23431
:101A9A0000F2C308E294F018E2940040E30BBB00A2
:101AAA00010AEB64284A70D2E4FAFBE4784FF208A0
:101ABA00F27DFF7FFF1200187850E22401F218E24B
:101ACA003400F2C308E294F018E2940040E30BBB3E
:101ADA0000010AEB64284A70D2E4FAFBE4784FF278
:101AEA0008F2E4FDFF1200187850E22401F218E22D
:101AFA003400F2C308E294F018E2940040E40BBB0D
:101B0A0000010AEB64284A70D3E4FAFBC3EA9400A2
:101B1A005029E4784FF208F2E4FDFF1200187850D9
:101B2A00E22401F218E23400F2C308E294F018E267
:0B1B3A00940040E40BBB00010A80D1C6
:011B4500227D
:10340600EFC3942050047F5F8050EFC39420400C9C
:10341600EFD3942F5006EF2428FF803EEFC394305D
:10342600400CEFD39439500674D02FFF802CEFC395
:10343600943A400CEFD394405006EF241EFF801AB6
:10344600EFC39441400CEFD3947E5006EF24C9FF9E
:0B3456008008EFD3947E40027F5F22CD
:1026E900FD18E23400FC786DE2FA08E2FB08E2F535
:1026F9008308E2F5827856E583F208E582F278717B
:10270900E2F58308E2F5827858E583F208E582F27A
:082719007851EFF2AF05AE04A8
:10272100EB240FFCE43A15081508A808F208CCF2CE
:10273100EF2407FDE43EFC122BE57851E2FF7E0019
:10274100D3945FEE940040027F5FEFC4F8540FC84A
:1027510068FFEEC454F048FE785B74FFF20874061B
:10276100F208749AF2E22FF218E23EF2E4785AF299
:10277100785BE2FB0808E2F92401F218E2FA34007E
:10278100F2120F55FBE4FAEBA802088002C333D81A
:10279100FC30E704785680027858E2FE08E2FF1226
:1027A10039BA0AEAB408E0785AE204F2E2C39410B2
:0227B10040BE28
:0127B3002203
:102D0200785EEBF208EAF208E9F208ECF208EDF27A
:102D1200785EE2FB08E2FA08E2F9120F557003D37B
:102D22008001C34070785EE2FB0808E2F92401F2F8
:102D320018E2FA3400F2120F55FF1234067861E2FB
:102D4200FC08E2FD08E2FA08E2FB08E2F58308E289
:102D5200F5827856E583F208E582F2786712270950
:102D6200D37862E294E718E29400400BE4F208F2AE
:102D72007864E2241080057862E22408F218E234D2
:102D820000F2D37864E2942F18E294014082E4F2D4
:062D920008F2022D1222DE
:10286B007869EEF208EFF2786DEAF208EBF2786B2A
:10287B00ECF208EDF2D394CFEC9400400718E4F29D
:10288B000874CFF2786DE2FE08E2FFD3942FEE943A
:10289B00014009EF24EFF2EE34FF18F27869E2C43D
:1028AB00540FFF786BE2FC08E2FD081226F1786901
:1028BB00E2540FFF786CE224081226E97969E3C42D
:1028CB00F854F0C809E3C4540F48540FFF786CE276
:1028DB0024101226E9786AE2540FFF786CE2241870
:1028EB00FD18E23400FC786DE2FA08E2FB08E2F531
:1028FB008308E2F5827856E583F208E582F2787177
:10290B00E2F58308E2F5827858E583F208E582F276
:03291B0002271977
:103947007B017D047C007F04121E277883EEF2083A
:06395700EFF2E4FEFF2286
:10356A007888EAF208EBF2ED2401FAE43C15081532
:10357A0008A808F208CAF2AB05AA04EF2401FDE480
:10358A003EFC122BE57888E2FC08E2FDECFF120013
:10359A001818E2FC08E2FDECFF12001818E2FC0819
:1035AA00E2FDECFF12001818E2FC08E2FDECFF0253
:0235BA000018F7
:103062007873EEF208EFF28B828A8308ECF208EDB5
:01307200F26B
:103073007879E2FF08E215081508A808CFF208EFEF
:10308300F27873E2FE08E2FF122BE5AE83AF82789B
:103093007DEEF208EFF2787AE22401FF18E23400C1
:1030A300FEC3787EE29F18E29E50397873E2FE08F1
:1030B300E2FBAA067876E22401FF18E23400FEC39D
:1030C300EB9FEA9E5011787BE2FE08E2FF1239BAC9
:1030D3000BBB00010A80DD787EE22401F218E234A2
:0430E30000F280B2C5
:0130E70022C6
:072EBE00787FEEF208EFF24D
:102EC50008E4F208740FF2C37882E2943F18E294A2
:102ED500015030E2FA08E2FB7879EAF208EBF27881
:102EE5007FE2FF08E2787BCFF208EFF27DEF7C000E
:102EF500E4FFFE1230627882E22410F218E2340018
:102F0500F280C47881E4F208740FF2C37882E29407
:102F1500EF18E294005031E2FC08E2FDFFAE0478C0
:102F2500797401F208743FF2787FE2FB08E2787B5E
:102F3500CBF208EBF2E4FBFA1230627882E224105D
:082F4500F218E23400F280C32F
:012F4D002261
:10385900C294C295E490035BF0EF20E704C2B28002
:1038690002D2B2D295EF25E0FFC29590035BE00446
:05387900F0E0B408E4DA
:01387E002227
:1032500090035C12115D00000000C294D2B3E490B0
:10326000035BF090035BE0FFC3940C5049C29530C0
:10327000B33AC3740B9FFF74017E00A80708800552
:10328000C333CE33CED8F9FFEE3395E0FDFC900387
:103290005CE0F8A3E0F9A3E0FAA3E04FFFEA4EFEFA
:1032A000E94DFDE84CFC90035C121145D29590036A
:1032B0005BE004F080ADD29490035CA3A3E0FEA396
:0232C000E0FF2D
:0132C20022E9
:02230700AB0722
:10230900E4900342F0A3F0A3F0D2B5900342E0C3F6
:10231900940B502C20B529C294EB04FF12385912A2
:102329003250900342E025E02445F582E43403F578
:1023390083EEF0A3EFF0900342E004F0D29480CB57
:10234900900342E0700302241EE4A3F0900342E0EC
:10235900F9A3E0C399400302240AE4A3F0900343DC
:10236900E0FF900342E0C39FFF900344E0C39F4016
:1023790003022401E0FF25E02447F582E43403F554
:1023890083E0FCA3E0FDEF25E02445F582E4340376
:10239900F583E0FEA3E0D39DEE9C4053900344E017
:1023A90025E02445F582E43403F583E0FCA3E0FD50
:1023B900900340ECF0A3EDF0EF25E02447F582E42B
:1023C9003403F583E0FEA3E0FF900344E0FB25E03E
:1023D9002445F582E43403F583EEF0A3EFF0EB2511
:1023E900E02447F582E43403F583ECF0A3EDF090A3
:1023F9000344E004F0022366900343E004F002235F
:1024090055E9C31325E02445F582E43403F583E057
:08241900FEA3E0FF22E4FEFF38
:012421002298
:1017C70090032812115D0000000090032C12115D98
:1017D7000000000090033012115D0000000090032C
:1017E7003412115D0000000090033812115D0000F3
:1017F700000090033C12115D00000000E4FFFE12A0
:101807000046D2B520B5FD20B6030219817F327E8E
:10181700001238C120B5F07FD0122307E4FCFD90F9
:101827000330121145900330E0FCA3E0FDA3E0FE76
:10183700A3E024BDFFEE34FFFEED34FFFDEC34FFE3
:10184700FCE47BF0FAF9F8120FC3E47BA57A02F9FE
:10185700F812104EE4120DA07BB87A1E7945783F36
:10186700120C9A120DDE9003281211457F90122355
:1018770007E4FCFD900334121145900334E0FCA308
:10188700E0FDA3E0FEA3E024A0FFEE34FFFEED346D
:10189700FFFDEC34FFFCE47B407A01F9F8120FC33B
:1018A700E4FB7A03F9F812104EE4120DA07B337AA9
:1018B700337973783F120C9A120DDE90032C1211B4
:1018C700457F0A7E001238C1900328E0F8A3E0F9AB
:1018D700A3E0FAA3E0FBC374409BFF74019AFEE404
:1018E70099FDE498FC90032812114530B5030218BE
:1018F7001BE4FFFEFDFC900328E0F8A3E0F9A3E05A
:10190700FAA3E0FBC31210EE500302181BE47FF0AA
:10191700FEFDFC900328E0F8A3A3A3E01210EE401D
:101927000302181BE4FFFEFDFC90032CE0F8A3E084
:10193700F9A3E0FAA3E0FBC31210EE500302181B51
:10194700E47F407E01FDFC90032CE0F8A3A3A3E015
:101957001210EE400302181B900328A3A3E0FEA376
:10196700E0FFC006A3A3A3E0FEA3E0FDAC06D006FC
:101977007B007AF812356A02181BE4FFFE12004654
:0319870002180E35
:1036E7001201100100000040C41000000000010298
:1036F70003010902200001010080FA090400000209
:10370700FF00000007050202400000070582024093
:0A3717000000040309040100000093
:1020A600900328EEF0A3EFF090032CEBF0A3EAF0F8
:1020B600A3E9F0E4900791F0900791E0FF9036E7EE
:1020C60093FE74402FF582E43407F583EEF0900713
:1020D60091E004F0E0B412E0E4900791F0900791EB
:1020E600E0FF9036F993FE74522FF582E43407F53B
:1020F60083EEF0900791E004F0E0B420E09003282E
:10210600E0FEA3E0900748F0EEA3F0A3EDF0ECA309
:10211600F090077274FFF0A37437F0A37419F0906F
:10212600032CE0F9A3E0FAA3E0900775C9F0A3EA4F
:10213600F0A3E9F090032FE0F9A3E0FAA3E09007FB
:1021460078C9F0A3EAF0A3E9F0900332E0F9A3E03E
:10215600FAA3E090077BC9F0A3EAF0A3E9F09003A5
:1021660035E0FFC394FA500590075AEFF090033616
:10217600E0900759F0900337E0FEA3E090074CF09B
:10218600EEA3F0E59620E7FB759601759708E596B0
:1021960020E7FB75960775970FE59620E7FB759682
:1021A6000975970EE59620E7FB75960B75970775EB
:1021B600D7E01239A3E4900793F0900792F09007C6
:1021C60094F0900786F043E602D2AFE59620E7FB4F
:0721D60075960175970122C7
:10380B009007867402F0E59620E7FB759601759795
:10381B0001E490078EF0A37403F0A3F0E4900793F8
:07382B00F090079204F02267
:1011A700E59620E7FB75960EE4F597E59620E7FBB5
:1011B700759691E59620E7FB90079EE597F0E0FF8F
:1011C70030E210E59620E7FB759611E4F597900756
:1011D7008EF022EF30E410E59620E7FB7596117547
:1011E7009780E490078EF090078EE060030212D894
:1011F70090079EE020E0030212D87596204396C020
:10120700E4900791F0E59620E7FB900791E0247EB4
:10121700F582E43407F583E597F0900791E004F051
:10122700E0B407E1E59620E7FBE4F596900791E047
:10123700247EF582E43407F583E597F0900781E093
:10124700FE900780E07C002400FFEC3E900795F0BD
:10125700A3EFF0900785E0FE900784E02400FFEC01
:101267003E900797F0A3EFF090077FE0B40C005093
:101277005D90127FF82828730212A30212A80212A7
:10128700AD0212B20212D50212B70212BC0212D577
:101297000212C10212C60212CB0212D01232C3804E
:1012A700301234BB802B12261C8026123513802166
:1012B7001238A1801C12291E801712365D80121267
:1012C7003461800D123832800812395D800312387C
:1012D700E090078EE0640160030213D990079E74C3
:1012E70002F0C390078DE0944090078CE094004093
:1012F70061E59620E7FB759620E4900791F090074B
:1013070091E0FFC394405022900787E0FBA3E0FAE7
:10131700A3E0F98F82758300120F6EF597E596208B
:10132700E7FB900791E004F080D4900788E475F01C
:1013370040120FAD90078DE024C0F090078CE03489
:10134700FFF090078BE02440F090078AE03400F02C
:101357008052E59620E7FB759620E4900791F09080
:101367000791E0FFD390078DE09F90078CE09400F2
:101377004026900787E0FBA3E0FAA3E0F9900791E6
:10138700E0F582758300120F6EF597E59620E7FB6F
:10139700900791E004F080C790079EE04408F0E4CE
:1013A70090078EF0900797E0FEA3E0FF90078AE092
:1013B700B50611A3E0B5070C90079EE04408F0E4DA
:1013C70090078EF0E59620E7FB75961190079EE053
:0313D700F5972265
:1038E000E59620E7FB75960EE4F597E59620E7FB55
:0D38F00075961175972090078E7404F022D4
:1032C30090077EE0247F6007146006240270488024
:1032D3002D90078FE0B40309900782E0B4020280C7
:1032E3000E900790E0B40316900782E0B4820F902B
:1032F300078774FFF0A37437F0A3741D800D900744
:103303008774FFF0A37437F0A3741FF090078CE465
:10331300F0A37402F080031238E090078EE0640497
:10332300601012395D90078E7401F0E490078AF003
:03333300A3F022E2
:1034BB00900780E07041900782E0B4021DE59620F2
:1034CB00E7FB75960E759702E59620E7FB7596144C
:1034DB00759780E490078FF08020E59620E7FB75C9
:1034EB00960E759702E59620E7FB7596117597403A
:1034FB00E4900790F080031238E0E59620E7FB7527
:08350B00960EE4F59702395D0C
:10261C00900796E020E0030226B2900794E030E0A9
:10262C000854FEF04402F08007900794E054FDF04B
:10263C00E59620E7FB75960E759702E59620E7FB6D
:10264C00759614759710E59620E7FB75961175979E
:10265C0008E59620E7FB759694E59620E7FB900736
:10266C009DE597F0E020E4E9E59620E7FB759614EC
:10267C00759710E59620E7FB759691E59620E7FB9C
:10268C0090079DE597F0E020E3E9E59620E7FB75E0
:10269C0096117597089007927408F0900794E0FFD4
:1026AC0030E1034401F0900795E0FCA3E0FD30E13C
:1026BC000D9007867406F0900792E04410F0ED3010
:1026CC00E20D9007867404F0900792E04420F0E548
:0D26DC009620E7FB75960EE4F59702395D38
:10351300900780E07040900782E0B4021BE596209C
:10352300E7FB75960E759702E59620E7FB759614F3
:1035330075972090078F8019E59620E7FB75960E07
:10354300759702E59620E7FB75961175971090071E
:10355300907403F080031238E0E59620E7FB75963C
:073563000EE4F59702395D4B
:1038A100E59620E7FBE4F596900780E0FFF597EFBA
:1038B10090078660057403F080037402F002395D9D
:10291E00900781E024FE601B14603B2402706990D6
:10292E0007877401F0A37407F0A37440F09007407A
:10293E00E0804A9007877401F0A37407F0A37452E5
:10294E00F0900755E0FE900754E07C002400FFEC69
:10295E003E90078C802C900780E075F003A42472C3
:10296E00F582E43407F583E0FBA3E0FAA3E0F990E7
:10297E000787EBF0A3EAF0A3E9F0120F55FF9007DB
:10298E008CE4F0A3EFF080031238E090078CE0FEA9
:10299E00A3E0FF900797E0FCA3E0FDC39FEC9E50E1
:1029AE000890078CECF0A3EDF090078EE0640460C5
:1029BE001012395D90078E7401F0E490078AF0A32F
:0229CE00F022F5
:10365D00900786E0FFB40414A374FFF0A37437F051
:10366D00A3741DF090078CE4F0A304F0EFB40316DF
:10367D0090078774FFF0A37437F0A3741FF09007C1
:10368D008CE4F0A304F012395D90078E7401F0E420
:07369D0090078AF0A3F02260
:10346100900780E0D394004042900792E04440F0FE
:103471009007867404F0E490078FF0A3F0E596209E
:10348100E7FB75960E759702E59620E7FB75961298
:10349100759784E59620E7FB759615759780E596F7
:1034A10020E7FB75960EE4F597800C900786740370
:0A34B100F090078FF0A3F002395DE0
:1038320090078774FFF0A37437F0A3741FF090070A
:103842008CE4F0A304F012395D90078E7401F0E469
:0738520090078AF0A3F022A9
:10395D0090078EE06404600BE59620E7FB759611E9
:04396D0075974022E8
:03004300021CD6C6
:101CD600C0E0C0F0C083C082C0D075D000C000C0D4
:101CE60001C002C003C004C005C006C0079007A11A
:101CF600E596F0E59620E7FB75968EE59620E7FBE0
:101D06009007A2E597F0E59620E7FB759686E5969F
:101D160020E7FB900799E597F0E030E30BE5962086
:101D2600E7FB75960B759707900799E030E203126B
:101D3600380B900799E030E014900786E0FF6404C2
:101D46006004EFB40607900792E04480F0E5962021
:101D5600E7FB759682E59620E7FB900799E597F0F5
:101D6600E030E0031211A7900799E030E22AE596E9
:101D760020E7FB75960E759702E59620E7FB7596AC
:101D860091E59620E7FB90079AE597F0E0540370FB
:101D960007900792E04402F0E59620E7FB759684EB
:101DA600E59620E7FB900799E597F0E030E229E514
:101DB6009620E7FB75960E759702E59620E7FB756C
:101DC6009694E59620E7FB90079AE597F0E030E0D9
:101DD60007900792E04404F0E59620E7FB75960E1F
:101DE6009007A2E0F597E59620E7FB9007A1E59618
:101DF600F0E59620E7FB900794E030E00990079223
:101E0600E0600312387FD007D006D005D004D00397
:101E1600D002D001D000D0D0D082D083D0F0D0E094
:011E26003289
:10372100E5B964E0602E53A90FC0A943B280E5A9B1
:103731005407D394014003E4F5A9E4F5B943B980F2
:10374100E4D5E0FD43B9C0E5B930E5FBD0E0B40212
:083751000343A90253A90F2252
:1037E00053D7BF43C910E5A95402900791F043B2E3
:1037F0008075A910E4F5B943B22000123721900773
:0B38000091E042A953C9EF43D74022DA
:0E399500900792E0FFE4F022900792E0FF22FC
:1029D000900786E0B40606EDD3944040037F0022C2
:1029E000E59620E7FB75960E759702E59620E7FBC6
:1029F000759694E59620E7FB90079CE597F0E0201C
:102A0000E003022A7CE59620E7FB759696E5962082
:102A1000E7FB900793E597F0E0FFEDC39F5006AE0C
:102A200005AF068000900793EFF053E6FDE5962092
:102A3000E7FB7596E2900793E06025FEEB600630B9
:102A4000E70F7F0022E59620E7FBA79709DEF680D7
:102A50000F89828A83E59620E7FBE597F0A3DEF5F0
:102A6000E59620E7FBE4F596E59620E7FB759614DE
:0F2A7000E4F59743E602900793E0FF227F0022F0
:10242200900786E0B4060DED4C6009D3ED9400EC04
:1024320094104004E4FEFF2253E6FDE490079FF06F
:10244200A3F090079BF089828A83C083C0829007A1
:102452009BE030E003022523E59620E7FB75960E0C
:10246200759702E59620E7FB759691E59620E7FBC6
:1024720090079BE597F0E030E020E59620E7FB75BA
:10248200960EE4F597E59620E7FB759691E5962082
:10249200E7FB90079BE597F080B4C3ED9440EC9482
:1024A200009007A0E0401B2440F090079FE034001A
:1024B200F074C02DFD74FF3CFCE490079BF0784063
:1024C20080132DF090079FE03CF090079B7401F081
:1024D200A805E4FCFDE59620E7FB759622D082D0A4
:1024E20083E8602BEB601130E71AE59620E7FBE406
:1024F20093F597A3D8F48017E59620E7FB87970911
:10250200D8F6800BE59620E7FBE0F597A3D8F5C057
:1025120083C082E59620E7FB759611759701022428
:1025220050D082D08343E60290079FE0FEA3E0FFF3
:012532002286
:10391800900794E04401F0900792E0600BE5962050
:09392800E7FB75960B75970F2261
:0C39A300E59620E7FB75960F75978922CA
:10387F00D007D007D007D006D005D004D003D00290
:10388F00D001D000D0D0D082D083D0F0D0E00200D1
:02389F008B227A
:100C9A00EC4D6011E8497017ED33EC3304600DE454
:100CAA00FCFFFEFD22E933E8330470F8020E4A1213
:100CBA000E1558046009E4CC248150062850090214
:100CCA000E54284003020E51C0E0EB4A7044B9802A
:100CDA0006D0E0FB020E40EF4E701CBD8008EBFF11
:100CEA00EAFEE9FD80EBE98DF0A4FEE5F0020D8352
:100CFA00E9CDF9EAFEEBFFEF89F0A4FCE5F0CE8935
:100D0A00F0A42EFFE435F0CD89F0A42DFEE435F0F1
:100D1A008067EF4E7005BD80D780C3EF8BF0A4AC1F
:100D2A00F0EE8BF0A42CFCE435F0F8EF8AF0A42C5A
:100D3A00E5F038FCE433CB8DF0A42CFCE5F03BF86D
:100D4A00EE8AF0A42CFCE5F038F8E433CF89F0A45D
:100D5A002CFCE5F038CF3400CE89F0A42FFFE5F063
:100D6A003EFEE433C98DF0A42EFEE5F039CD8AF0BB
:100D7A00A42FFFE5F03EFEE43DFD33D0E0FB500733
:100D8A000BBB000F020E54EC2CFCEF33FFEE33FECC
:060D9A00ED33FD020E2CFA
:100DA00075F020800E75F010800575F0087D007ECE
:100DB000007F003392D530D5031210E0EC334010A1
:100DC000EF33FFEE33FEED33FDEC33FCD5F0ED22D7
:0E0DD000E5F0247EA2D513CC92E7CDCEFF2213
:100DDE00EDD2E7CD33EC3392D524814006E4FFFE0D
:100DEE00FDFC22FCE4CFCECDCC24E0501174FF806C
:100DFE00EDC3CC13CCCD13CDCE13CECF13CF047009
:070E0E00F030D5DE0210E018
:100E1500E9D2E7C933E833F892D5EDD2E7CD33EC23
:070E250033FC5002B2D5229C
:100E2C00EC30E7100FBF000C0EBE00080DBD000427
:100E3C000BEB6014A2D5EB13FCED92E7FD2274FFD3
:100E4C00FCFDFEFF22E480F8A2D574FF13FC7D802C
:030E5C00E480EF40
:03000000022F4E7E
:0C2F4E00787FE4F6D8FD758108022F950D
:100E5F00E709F608DFFA8046E709F208DFFA803E75
:100E6F0088828C83E709F0A3DFFA8032E309F60862
:100E7F00DFFA8078E309F208DFFA807088828C83CA
:100E8F00E309F0A3DFFA806489828A83E0A3F6087E
:100E9F00DFFA805889828A83E0A3F208DFFA804C58
:100EAF0080D280FA80C680D4806980F2803380102F
:100EBF0080A680EA809A80A880DA80E280CA803398
:100ECF0089828A83ECFAE493A3C8C582C8CCC58310
:100EDF00CCF0A3C8C582C8CCC583CCDFE9DEE780E0
:100EEF000D89828A83E493A3F608DFF9ECFAA9F05F
:100EFF00EDFB2289828A83ECFAE0A3C8C582C8CCB5
:100F0F00C583CCF0A3C8C582C8CCC583CCDFEADECD
:100F1F00E880DB89828A83E493A3F208DFF980CC2F
:100F2F0088F0EF60010E4E60C388F0ED2402B40428
:100F3F000050B9F582EB2402B4040050AF232345CF
:060F4F008223900EAF7337
:100F5500BB010689828A83E0225002E722BBFE029A
:090F6500E32289828A83E49322CD
:100F6E00BB010CE58229F582E5833AF583E0225038
:100F7E0006E92582F8E622BBFE06E92582F8E22282
:0D0F8E00E58229F582E5833AF583E493229C
:100F9B00EF8DF0A4A8F0CF8CF0A428CE8DF0A42E6A
:020FAB00FE2224
:100FAD00C5F0F8A3E028F0C5F0F8E58215827002CF
:060FBD001583E038F0226C
:100FC300E88FF0A4CC8BF0A42CFCE98EF0A42CFCCD
:100FD3008AF0EDA42CFCEA8EF0A4CDA8F08BF0A44B
:100FE3002DCC3825F0FDE98FF0A42CCD35F0FCEBAA
:100FF3008EF0A4FEA9F0EB8FF0A4CFC5F02ECD396F
:0F100300FEE43CFCEAA42DCE35F0FDE43CFC22DB
:1010120075F008758200EF2FFFEE33FECD33CDCC95
:1010220033CCC58233C5829BED9AEC99E582984018
:101032000CF582EE9BFEED9AFDEC99FC0FD5F0D6F5
:10104200E4CEFBE4CDFAE4CCF9A88222B800C1B91F
:101052000059BA002DEC8BF084CFCECDFCE5F0CB5D
:10106200F97818EF2FFFEE33FEED33FDEC33FCEB96
:1010720033FB10D703994004EB99FB0FD8E5E4F951
:10108200FA227818EF2FFFEE33FEED33FDEC33FC3E
:10109200C933C910D7059BE99A4007EC9BFCE99A32
:1010A200F90FD8E0E4C9FAE4CCFB2275F010EF2F77
:1010B200FFEE33FEED33FDCC33CCC833C810D70777
:1010C2009BEC9AE899400AED9BFDEC9AFCE899F8B2
:0E10D2000FD5F0DAE4CDFBE4CCFAE4C8F92245
:0E10E000C3E49FFFE49EFEE49DFDE49CFC2221
:1010EE00EB9FF5F0EA9E42F0E99D42F0E89C45F058
:0110FE0022CF
:1010FF00E8600FECC313FCED13FDEE13FEEF13FFCF
:03110F00D8F122F2
:10111200E8600FEFC333FFEE33FEED33FDEC33FC3B
:03112200D8F122DF
:101125007401FF3395E0FEFDFC080808E2CF2FF2BD
:1011350018E2CE3EF218E2CD3DF218E2CC3CF222A6
:0C114500ECF0A3EDF0A3EEF0A3EFF0221D
:0C115100ECF208EDF208EEF208EFF222DA
:10115D00A8828583F0D083D082121174121174127B
:10116D001174121174E473E493A3C583C5F0C583A0
:10117D00C8C582C8F0A3C583C5F0C583C8C582C8DC
:01118D00223F
:10118E00D083D082E493F208740193F20874029330
:09119E00F208740393F274047367
:102F5A000238FDE493A3F8E493A34003F68001F258
:102F6A0008DFF48029E493A3F85407240CC8C33378
:102F7A00C4540F4420C8834004F456800146F6DF47
:102F8A00E4800B0102040810204080903788E47E18
:102F9A00019360BCA3FF543F30E509541FFEE4933C
:102FAA00A360010ECF54C025E060A840B8E493A303
:102FBA00FAE493A3F8E493A3C8C582C8CAC583CA2E
:102FCA00F0A3C8C582C8CAC583CADFE9DEE780BEE6
:0137B4000014
:00000001FF
