:1036B40055534220444542554700555342205245F4
:1036C40041440010C4EA611A03530069006C0069A4
:1036D4000063006F006E0020004C00610062007304
:1036E40000100355005300420020004100500049DF
:1036F400000A0343003500310046000F8001000139
:10380F00810000810700810C00810E00810F008173
:10381F000D00810400820500008408000000018172
:08382F0001AA8102558103FF8B
:1037040012337630B642122AD812360D74FFFFFEF9
:1037140012004612360D7F007EF812004612360D56
:103724007FE07E0712004612360D7F1F7E001200D6
:103734004612360D122C1A12360DE4FFFE12004604
:0937440012360D121A1C80BB2282
:10394900E4FDFCC3ED9FEC9E5014E4FBFA0BBB00B5
:0E395900010AEBF44A70F60DBD00010C80E58A
:01396700223D
:04360D007F0A7E00B2
:07361100785EEEF208EFF213
:10361800E408F208F230B721E4FFFED3785FE29FB6
:1036280018E29E401EE4FDFC0DBD00010CEDF44CBB
:1036380070F60FBF00010E80E2123A147F147E006C
:103648001239497861E22401F218E23400F2C30821
:09365800E2946418E2940040BC05
:013661002246
:103A140030B60512008E80F87FF47E0112394930E9
:033A2400B6FD22CA
:10008E0078667C007DFE7BFF7A3779037E007F01E8
:10009E00120F2F7807E2700302026E78627401F27B
:1000AE007862E2FFC39410507BEF25E025E024D95F
:1000BE00F582E43402F583E07028E2FD25E025E0C8
:1000CE0024DAF582E43402F583E0FEED25E025E046
:1000DE0024DBF582E43402F583E0FDEDFF12398571
:1000EE00803A7862E225E025E024D9F582E43402F4
:1000FE00F583E0B40126E2FD25E025E024DAF58261
:10010E00E43402F583E0FEED25E025E024DBF58204
:10011E00E43402F583E0FDEDFF1239A57862E204C6
:10012E00F20200AE0000000000000000000000001F
:10013E0000000000000000007BFF7A3679B4E478FE
:10014E006CF208F208F208F274FF08F208F2E4FD0D
:10015E00FC122D4D9002DCE020E003020253786287
:10016E007401F27862E2FFC394104003020253EF6F
:10017E0025E025E024D9F582E43402F583E07055BC
:10018E00E2FD25E025E024DAF582E43402F583E091
:10019E00FEED25E025E024DBF582E43402F583E074
:1001AE00FDEDFFE2FB25E025E024DCF582E43402E0
:1001BE00F583E075F024A4FDACF0EB75F011A4FB13
:1001CE00AAF0786D7407F20874E0F2E408F208F20F
:1001DE001228C380687862E2FB25E025E024D9F579
:1001EE0082E43402F583E064017052E2FD25E025DD
:1001FE00E024DAF582E43402F583E0FEED25E02515
:10020E00E024DBF582E43402F583E0FDEDFFEB251F
:10021E00E025E024DCF582E43402F583E075F02479
:10022E00A4FDACF0EB75F011A4FBAAF0786DE4F22E
:10023E0008741FF274FF08F208F21228C37862E203
:10024E0004F2020171000000000000000000000036
:10025E00000000000000000000E47807F20200A198
:10026E00780DE2700302033AE47862F27862E2C338
:10027E0094404003020327C2B0D2B1E2FE24D9F566
:10028E0082E43402F583E0FF74DA2EF582E4340260
:10029E00F583E0FD123851D2B07862E2FF24D9F531
:1002AE0082E43402F583E0FE780508E2FD2401F2D3
:1002BE0018E2FC3400F274812DF58274003CF58353
:1002CE00EEF074DA2FF582E43402F583E0FF08E2F3
:1002DE00FD2401F218E2FC3400F274812DF58274D3
:1002EE00003CF583EFF008E2B4002518E2B40220DA
:1002FE00780812115D1231267804E2900081F07FA9
:10030E00007E007D007C00123126E47805F208F2B2
:10031E007862E22402F202027AE4780DF27BFE7A2F
:10032E000079667D01FC12247A02026E7800E2707A
:10033E00030204479002DCE070030203FD7862744E
:10034E0004F27862E2C394244003020434C2B0D2B1
:10035E00B1E2FE24D9F582E43402F583E0FF74DACB
:10036E002EF582E43402F583E0FD123851D2B078D6
:10037E0062E2FF24D9F582E43402F583E0FE7805CB
:10038E0008E2FD2401F218E2FC3400F274812DF52E
:10039E008274003CF583EEF074DA2FF582E43402B9
:1003AE00F583E0FF08E2FD2401F218E2FC3400F2CE
:1003BE0074812DF58274003CF583EFF008E2B400F1
:1003CE002518E2B40220780812115D123126780445
:1003DE00E2900081F07F007E007D007C00123126CD
:1003EE00E47805F208F27862E22402F20203507811
:1003FE00627404F27862E2C39424502AC2B0D2B17D
:10040E00E2FE24D9F582E43402F583E0FF74DA2E9D
:10041E00F582E43402F583E0FD123851D2B07862F1
:10042E00E22402F280CEE47800F27BFE7A00796656
:10043E007D01FC12247A02033A780FE27003020463
:10044E00FE78627404F27862E2FFC39424400302E1
:10045E0004EB74D92FF582E43402F583E07020E2C8
:10046E00FD24DAF582E43402F583E0FE74DB2DF52B
:10047E0082E43402F583E0FDEDFF12398580557874
:10048E0062E224D9F582E43402F583E0B40120E27D
:10049E00FD24DAF582E43402F583E0FE74DB2DF5FB
:1004AE0082E43402F583E0FDEDFF1239A580257854
:1004BE0062E224D9F582E43402F583E0641070140C
:1004CE00000000000000000000000000000000001E
:1004DE00000000007862E22404F2020454E4780F73
:1004EE00F27BFE7A0079667D01FC12247A020447C3
:1004FE00780CE27003020653E47862F27862E2FF4F
:10050E00C39418501174812FF582E43402F583E4FC
:10051E00F0E204F280E69002E0E025E07865F290E9
:10052E0002DEE0FEA3E0FDEE7863F2ED08F290024B
:10053E00DDE06401703C18E2FE08E2FF123985E44A
:10054E007862F27865E2FF7862E2C39F5024123936
:10055E00EA7862E2FD2481F582E43402F583E4F068
:10056E0074822DF582E43402F583EFF0E22402F278
:10057E0080D1E4780CF27B017A0279817865E2FD14
:10058E007C0012247A7F647E001239497BFF7A3612
:10059E0079BEE4786CF208F208F208F274FF08F201
:1005AE0008F2E4FDFC122D4D9002DCE020E0030287
:1005BE0004FE9002E1E075F024A4FDACF07863E255
:1005CE00FE08E2FF786D7407F20874E0F2E408F2B8
:1005DE0008F27B11FA1228C3E47862F27865E2FF22
:1005EE007862E2F9C39F40030204FE9002E1E075D7
:1005FE00F024A4FDACF0C004C005E9C3132402FF2F
:10060E00E433FE7C007D11120F9BAA06AB077481AA
:10061E0029F582E43402F583E0FE748229F582E442
:10062E003402F583E0FDEDFF786DE4F208741FF2FD
:10063E0074FF08F208F2D005D0041228C37862E2E3
:10064E002402F28097780EE26041E47862F27862DA
:10065E00E2FFC39440501174992FF582E43402F5F1
:10066E0083E4F0E204F280E6E4900299F0A374F0E1
:10067E00F0A37401F0A37440F0E4780EF27B017ADB
:0B068E000279997D40FC12247A80BAAA
:01069900223E
:1037940053D9BF75B283E4F5B943B980FF0FEFB4D1
:1037A400FFFB43B9C0E5B930E5FBE4F5A943EF02FB
:1037B40075F1FF75A4FF75A5FF75F2FF75A6FF757A
:1037C400AEFF75F4FF43A717C286C28743E10243E5
:0237D400E240D1
:0137D60022D0
:103376001237941237D79036C7E493FE740193FF41
:103386009036C9E493FC740193FD90028874FFF0B3
:10339600A37436F0A374E5F0A374FFF0A37436F0BB
:1033A600A374F5F09036FFE49390028EF090370008
:1033B600E49390028FF0903701E493FB74019390AD
:1033C6000290CBF0A3EBF07BFF7A3679CB121FD7B6
:0C33D6001239BB75A17075F80F02210EB2
:03003D000238681E
:03008B00021E9CB6
:101E9C00C0E0C0F0C083C082C0D075D000C000C00C
:0D1EAC0001C002C003C004C005C006C0078D
:101EB900123A38785BEFF220E203021F637B017A62
:101EC9000279D97D40122A297801E2FF9002D9E0EE
:101ED900FEB5071408E2FDA3E0B5050C08E2FDA371
:101EE900E0B505047807806F7803E2FDB50613189D
:101EF900E2FE9002DAE0B50609A3E0B50704780C22
:101F090080557802E2FF9002D9E0B5071118E2FE88
:101F1900A3E0B50609A3E0B50504780E8039780178
:101F2900E2FE9002D9E0FDB506127803E2FCA3E0D7
:101F3900B50409A3E0B507047800801B7803E2B56E
:101F490005139002DAE0B5060C18E2FFA3E0B50725
:101F590004780F8002780D7401F2785BE230E703B0
:101F690012003D785BE230E603123794785BE23089
:101F7900E41B15081508A808E4F20874EFF27A00C2
:101F89007B007C017D3F7E007F00122CCE785BE2D6
:101F990030E5207804E204F215081508A808E4F2EF
:101FA9000874EFF27A007B007C017D3F7E007F00A0
:031FB900122CCE19
:101FBC00D007D006D005D004D003D002D001D00079
:0B1FCC00D0D0D082D083D0F0D0E03223
:0C39D4007FFF1239E07FFF1239E07FFF17
:0939E0008FA330FFFDC2FFAFA36D
:0139E90022BB
:0A3A520075A3FF30FFFDC2FFAFA314
:013A5C002247
:02321B00AE07FC
:10321D00E4FB1239D41239D4C2FAEE4440FF12390C
:10322D00E0786CE2FC08E2FD08E2FE08E2FF7818A7
:10323D001211371239E0786CE2FC08E2FD08E2FE6B
:10324D0008E2FF78101211371239E0786CE2FC08B1
:10325D00E2FD08E2FE08E2FF78081211371239E0AC
:10326D00786C080808E2FF1239E07F951239E07F8B
:10327D00FF1239E0BFFF09AE030BEED3946440EFAC
:02328D00D2FA73
:01328F00221C
:10280C00E4FEFA75A90375A23BE4FD7FFF1239E0E3
:10281C000DEDB464F6786C1211C600000000E4FFF4
:10282C0012321BAE070AEAD3940A5004EEB401D953
:10283C00E4FA786C1211C6000000007F3712321BCC
:10284C00AE070AEAD3946440037F0122EEB401E29E
:10285C00E4FA786C1211C6000000007F2912321BBA
:10286C00AE070AEAD3946440037F0122EE70C3EEF4
:10287C00601FE4FA786C1211C6000000007F011290
:10288C00321BAE070AEAD3946440037F0122EE7038
:10289C00E3786C1211C6000000007F3B12321BAEB5
:1028AC0007786C1211C6000002007F1012321B75E3
:0628BC00A201E4F5A9FFF2
:0128C20022F3
:0533E2007810121189B2
:1033E700E4FA75A9037810E2FC08E2FD08E2FE089A
:1033F700E2FF780912114A786C1211897F11123293
:103407001B0AEAD3940A40037F0122EF70D7C2FA5E
:10341700123A52BFFEFAE4FDFC123A5274812DF5BE
:103427008274003CF583EFF00DBD00010CE4B50597
:0E343700E8ECB402E41239D9D2FAE4F5A9FFA8
:013445002264
:05312600786712118919
:10312B00E4FA75A9037867E2FC08E2FD08E2FE0801
:10313B00E2FF780912114A786C1211897F1812324A
:10314B001BAE070AEAD3940A40037F0122EE70D527
:10315B00C2FA7FFF1239E07FFE1239E0FDFC748169
:10316B002DF58274003CF583E0FF1239E00DBD00B4
:10317B00010CE4B505E8ECB402E41239D4AE07EE69
:10318B00541F64056003D2FA227FFF1239E0EF600F
:07319B00F8D2FAE4F5A9FFE8
:0131A200220A
:103A2700E4F912280CEF600809E9D3940340F32264
:013A3700226C
:10069A00000000182442424242424242241800000A
:1006AA00000000107010101010101010107C0000C4
:1006BA000000003C4242420404081020427E00002E
:1006CA000000003C4242041804020242443800007E
:1006DA00000000040C14242444447E04041E000078
:1006EA000000007E40404058640202424438000044
:1006FA000000001C24404058644242422418000072
:10070A000000007E44440808101010101010000069
:10071A000000003C4242422418244242423C00006B
:10072A000000001824424242261A0202243800001D
:10073A000000001010182828243C444242E7000018
:10074A00000000F8444444784442424244F800001D
:10075A000000003E4242808080808042443800008F
:10076A00000000F8444242424242424244F8000039
:10077A00000000FC424848784848404242FC0000D9
:10078A00000000FC424848784848404040E00000E9
:10079A000000003C44448080808E84444438000039
:1007AA00000000E7424242427E42424242E70000E3
:1007BA000000007C1010101010101010107C0000A7
:1007CA000000003E0808080808080808080888F019
:1007DA00000000EE444850705048484444EE00007F
:1007EA00000000E0404040404040404042FE0000DF
:1007FA00000000EE6C6C6C6C5454545454D60000D7
:10080A00000000C7626252524A4A4A4646E2000063
:10081A000000003844828282828282824438000048
:10082A00000000FC424242427C40404040E000005E
:10083A0000000038448282828282B2CA4C380600A2
:10084A00000000FC4242427C4848444442E3000023
:10085A000000003E4242402018040242427C00004E
:10086A00000000FE92101010101010101038000036
:10087A00000000E74242424242424242423C0000F9
:10088A00000000E7424244242428281810100000DF
:10089A00000000D692929292AAAA6C4444440000A4
:1008AA00000000E7422424181818242442E7000014
:1008BA00000000EE444428281010101010380000E0
:1008CA000000007E840408081020204242FC000038
:1008DA00001E1010101010101010101010101E0012
:1008EA0000004040202010101008080404040202EE
:1008FA00007808080808080808080808080878009E
:10090A00001C22000000000000000000000000009F
:10091A00000000000000000000000000000000FFCE
:10092A00006010000000000000000000000000004D
:10093A00000000000000003C421E2242423F00002C
:10094A00000000C0404040586442424264580000DF
:10095A00000000000000001C22404040221C000051
:10096A00000000060202021E22424242261B00002A
:10097A00000000000000003C427E4040423C000073
:10098A000000000F1110107E10101010107C0000D3
:10099A00000000000000003E444438403C42423C13
:1009AA00000000C04040405C6242424242E7000010
:1009BA00000000303000007010101010107C000091
:1009CA000000000C0C00001C040404040404447815
:1009DA00000000C04040404E4850684844EE0000C5
:1009EA00000000701010101010101010107C000081
:1009FA0000000000000000FE4949494949ED000095
:100A0A0000000000000000DC6242424242E70000AF
:100A1A00000000000000003C42424242423C00000A
:100A2A0000000000000000D864424242447840E0DE
:100A3A00000000000000001E22424242221E02075D
:100A4A0000000000000000EE3220202020F8000004
:100A5A00000000000000003E42403C02427C0000D0
:100A6A00000000000010107C10101010100C000084
:100A7A0000000000000000C642424242463B00001D
:100A8A0000000000000000E74224242810100000A3
:100A9A0000000000000000D79292AAAA4444000075
:100AAA00000000000000006E2418181824760000C8
:100ABA0000000000000000E742242428181010E07B
:100ACA00000000000000007E44081010227E000092
:100ADA0000030404040404080404040404040300D2
:100AEA00080808080808080808080808080808087C
:100AFA000060101010101008101010101010600074
:100B0A00304C43000000000000000000000000001C
:100B1A0000000000000000000000000000000000CB
:100B2A00000000101010101010100000181800001B
:100B3A0000123624480000000000000000000000F7
:100B4A00000000242424FE484848FE484848000083
:100B5A0000001038545450301814145454381010DB
:100B6A0000000044A4A8A8A8541A2A2A2A4400006B
:100B7A0000000030484848506EA4948889760000E6
:100B8A0000606020C00000000000000000000000BB
:100B9A0000020408081010101010100808040200BF
:100BAA00004020101008080808080810102040000B
:100BBA00000000001010D63838D6101000000000CF
:100BCA000000000010101010FE101010100000009D
:100BDA00000000000000000000000000606020C06B
:100BEA0000000000000000007F000000000000007C
:100BFA00000000000000000000000000606000002B
:100C0A0000000102020404080810102020404000DD
:100C1A00000000000000181800000000181800006A
:100C2A00000000000000001000000000001010206A
:100C3A0000000002040810204020100804020000EE
:100C4A00000000000000FE000000FE00000000009E
:100C5A000000004020100804020408102040000090
:100C6A000000003C42426202040808001818000012
:100C7A0000000038445AAAAAAAAAB442443800007A
:100C8A00FFFFFFFFFFFFFFFFFFFFFFFFFFFFFFFF6A
:0438370082590000B2
:041412007867EFF216
:10141600ED64086003021504C2B0D296C2B1E2F5CB
:10142600A0C297D297D2B0E4F5A675F3FF75A0FFD8
:10143600C2B0D2B1D297C2960000000000000000F0
:10144600D28700000000AFA0786AF208EFF2C287E8
:1014560000000000D29600000000C29600000000C6
:1014660000000000D28700000000A9A0C28700008B
:101476000000D29600000000C296000000000000A6
:101486000000D28700000000786EE5A0F2C2870057
:10149600000000D2960000000000000000C2960086
:1014A60000000000000000D28700000000AAA0C2D1
:1014B6008700000000D2960000000000000000D265
:1014C60096000000000000000075A6FFEBB4010BBB
:1014D600786BE2FEE9F582EE08801EEBB4020CE9B9
:1014E600FE786EE2F582EE786C800EEBB4030F7830
:1014F6006EE2FEEAF582EE786CF2E58208F2ED64C1
:10150600044C600302163A75A6FF7867E2FFC2B084
:10151600C2B1E4FDC2A1EF30E704D2A08002C2A0AE
:10152600D2A1EF25E0FF0DEDB408E975A6FEEB6448
:10153600016005EB6403702AE4FDC2A1D287D2A044
:101546007869E225E0FF18E233FEA2A0E433F582D3
:10155600EEF2EF458208F2C287D2A10DEDB409DAA8
:101566008032EB64026005EB64047028E4FDC2A1DE
:10157600D287D2A07869E225E0FF18E233FEA2A066
:10158600E433F582EEF2EF458208F2C287D2A10D6E
:10159600EDB410DAE4FDC2A1D287D2A0786BE225C1
:1015A600E0FF18E233FEA2A0E433F582EEF2EF4547
:1015B6008208F2C287D2A10DEDB408DAE4FDC2A119
:1015C600D287D2A0E925E0FFA2A0E4334FF9C28773
:1015D600D2A10DEDB408E7E4FDC2A1D287D2A0786E
:1015E6006EE225E0FFA2A0E4334FF2C287D2A10D3E
:1015F600EDB408E575A6FFC287D296D2B1D2A1D2C4
:10160600A0D2B0EBB401127869E2FE08E24EFF0800
:10161600E208CFF208EFF2801BEB6402600AEBB43B
:1016260003028004EBB4040C786BE2FEE9FDEE08DD
:0D163600F2ED08F2C287786CE2FE08E2FFD8
:011643002284
:04398500AD07AC06D8
:10398900ECC2B0D296C2B1F5A0C297D297AF058F5B
:07399900A0C297D297D2B043
:0139A0002204
:0439A100F808E2FF41
:0239A500AC066E
:1039A700EC7880F2C2B0D296D2B1EFF5A0C297D22E
:0339B70097D2B0F4
:0139BA0022EA
:10383C00FFAE03EE33333354F84FFFEE25E0FEC4F6
:05384C003354E04BFDC8
:10385100C2B0D296D2B18FA0C297D297AF058FA036
:06386100C297D297D2B01D
:01386700223E
:093A5D00AD07AC06ECFF02385184
:10210E001239EAD2857F967E00123949C2857F78D0
:10211E007E00123949D2857F967E001239497FC8DA
:10212E007E001239857FFF1239A57F931239A57F64
:10213E00421239A57F361239857FC81239A57F3AEA
:10214E001239857F551239A57FC01239857F141239
:10215E0039A57F0E1239A57FC11239857F0112393B
:10216E00A57FC51239857FF41239A57FB112398545
:10217E00E4FF1239A57F1B1239A57FB41239857F72
:10218E00021239A57FE0123985E4FF1239A57F0EC0
:10219E001239A57F181239A57F051239A57F1312A2
:1021AE0039A57F091239A57F3D1239A57F891239CC
:1021BE00A57F4A1239A57F081239A57F0E1239A5BF
:1021CE007F0A1239A57F1B1239A51239A57F0F126E
:1021DE0039A57FE1123985E4FF1239A57F21123925
:1021EE00A57F241239A57F031239A57F0F1239A5B9
:1021FE007F061239A57F371239A51F1239A57F47E1
:10220E001239A57F021239A57F091239A57F07124F
:10221E0039A57F2E1239A57F331239A57F0F1239BA
:0B222E00A57F111239857F2902398538
:102CB500F215081508A808E4F20874EFF27C017D06
:092CC5003F7A007B007E007F00D5
:102CCE0015081508A808EAF208EBF215081508A869
:102CDE0008ECF208EDF215081508A808EEF208EF58
:102CEE00F27F2A7E00123985A908E3FF1239A5A8C2
:102CFE000808E2FF1239A5A8080808A900E3FF1288
:102D0E0039A5A808080808E2FF1239A57F2B123949
:102D1E0085E5082404F9E3FF1239A5E50824041219
:102D2E0039A1E5082406F9E3FF1239A5E5082406C2
:0F2D3E001239A17F2C123985E5082408F50822E7
:02004600AC0606
:10004800EC7860F2EF08122CB5C2B0E4785EF208E2
:10005800F2E4FBFA7860E2FF08E2FD1238510BBBCC
:1000680000010ABA01EEBB40EB785FE22401F21806
:10007800E23400F2C308E294F018E2940040D2D2CD
:01008800B0C7
:010089002254
:102AD800122CB6C2B079F8E4FE7FF8FD12385179AD
:102AE800077EE07F077DE01238510BBB00010ABA70
:102AF80001EDBB3EEAE4F97E1FFF7D1F12385178D5
:102B08005EF208F279F8E4FE7FF8FD123851FAFB1C
:102B1800E4F9FEFFFD1238510BBB00010ABA01F0BF
:102B2800BB3EEDE4F97E1FFF7D1F123851785FE24E
:102B38002401F218E23400F2C308E294EE18E29499
:102B48000040C179F8E4FE7FF8FD123851FAFB79AC
:102B5800077EE07F077DE01238510BBB00010ABAFF
:102B680001EDBB3EEAE4F97E1FFF7D1F123851F5E7
:032B7800A9D2B02F
:012B7B002237
:101BBC007814746AF278167402F2187450F2E4789D
:101BCC0017F2C2B015081508A808122CBD7815E23A
:101BDC00FFC3EB9FEA94005069E47818F27814E2A2
:101BEC00FF7818E2C39F500CE4FD7FF8123851E2E5
:101BFC0004F280E9E47818F27814E2FF7818E2C372
:101C0C009F500C7D1FE4FF123851E204F280E9E48E
:101C1C007818F27816E2FF7814E22FFFE433FE789E
:101C2C0018E2C39FEE6480F8748098500E7DE07FBC
:101C3C00071238517818E204F280D80BBB00010A65
:101C4C00808BE4FAFB7815E2FFC3EB9FEA9400501B
:101C5C0069E47818F27814E2FF7818E2C39F500C0C
:101C6C007DE07F07123851E204F280E9E47818F243
:101C7C007814E2FF7818E2C39F500CE4FD7FF81251
:101C8C003851E204F280E9E47818F27816E2FF7831
:101C9C0014E22FFFE433FE7818E2C39FEE6480F861
:101CAC00748098500E7D1FE4FF1238517818E204AE
:101CBC00F280D80BBB00010A808BE4FAFB7817E2A8
:101CCC00FF7815E22FFFE433FEC3EB9FEA9E5069C9
:101CDC00E47818F27814E2FF7818E2C39F500C7D78
:101CEC001FE4FF123851E204F280E9E47818F2782C
:101CFC0014E2FF7818E2C39F500C7DE07F07123886
:101D0C0051E204F280E9E47818F27816E2FF7814D4
:101D1C00E22FFFE433FE7818E2C39FEE6480F87480
:101D2C008098500EE4FD7FF81238517818E204F2D6
:0E1D3C0080D80BBB00010A8084D2B0E4F5A968
:011D4A002276
:10344600AA06A907781974FFF208EAF208E9F21544
:10345600081508A808E4F208749FF27C007D7F1224
:103466002CC6E4781CF208F2781CE2FE08E2FFC3E0
:10347600EE9440502DEF25E0FFEE33FE7819E2FB87
:1034860008E2FA08E2F98F828E83120FC3FDACF0D0
:10349600ECFF123851781DE22401F218E23400F2F2
:0234A60080C6DE
:0134A8002201
:03258B00781EEFC8
:10258E00122CB5C2B0D2B178271211C60000012CA0
:10259E00781EE2FFE4FCFDFE7827E2FB08E2F90874
:1025AE00E2FA08E2CBF8120FFBEF2401FFE43EFE45
:1025BE00E43DFDE43CFC781F1211897827E2FC080B
:1025CE00E2FD08E2FE08E2FF781FE2FB08E2F908EE
:1025DE00E2FA08E2CBF8EB2FFFEA3EFEE93DFDE81A
:1025EE003CFC782380787823E2FC08E2FD08E2FECA
:1025FE0008E2FF781FE2FB08E2F908E2FA08E2CBF4
:10260E00F8C3121126505C781FE2FC08E2FD08E2C6
:10261E00FE08E2FF1233E2E4FBFAC3EA940250240E
:10262E0074812BF58274003AF583E0FF74822BF5EA
:10263E008274003AF583E0FD12385174022BFBE4EC
:10264E003AFA80D6781FE2FC08E2FD08E2FE08E2C4
:10265E002401FFE43EFEE43DFDE43CFC781F121134
:05266E00898083D2B059
:012673002244
:10164400122CB6E4782BF208F2C3782BE294005003
:1016540012E4FDFF12385108E22401F218E23400CA
:10166400F280E6E4782BF208F2E4782DF208F278BE
:101674002BE2FE08E27803C333CE33CED8F9FFE47D
:10168400FD123851782EE22401F218E23400F2C33C
:1016940008E2940A18E2940040D5782CE22401F27E
:1016A40018E23400F2C308E2942018E2940040B92E
:1016B4000BBB00010AEB643C4A7088E4FAFBE47853
:1016C4002BF208F2C3782BE294005012E4FDFF12CF
:1016D400385108E22401F218E23400F280E6E4789A
:1016E4002BF208F2E4782DF208F2782CE225E0FDE2
:1016F40018E233FCEDAE047803CEC313CE13D8F94D
:10170400FFC007EDAE047805C333CE33CED8F9FD60
:10171400D007123851782EE22401F218E23400F294
:10172400C308E2940A18E2940040BF782CE2240132
:10173400F218E23400F2C308E2942018E294004064
:10174400A30BBB00010AEB643C4A60030216C2E42B
:10175400FAFBE4782BF208F2C3782BE294005012DF
:10176400E4FDFF12385108E22401F218E23400F2D9
:1017740080E6E4782BF208F2E4782DF208F2782B74
:1017840008E2FDE4FF123851782EE22401F218E257
:101794003400F2C308E2940A18E2940040E0782C82
:1017A400E22401F218E23400F2C308E2942018E2C1
:1017B400940040C40BBB00010AEB643C4A7093E400
:1017C400FAFBE4782BF208F2C3782BE2940050126F
:1017D400E4FDFF12385108E22401F218E23400F269
:1017E40080E6E4782BF208F2E4782DF208F2782B04
:1017F400E2FC08E2FD25E0FFEC33FEEF7803CEC304
:1018040013CE13D8F9FFAE05EE33333354F84FFF3C
:10181400EE25E0C43354E0FE782B08E24EFD123886
:1018240051782EE22401F218E23400F2C308E29463
:101834000A18E2940040B7782CE22401F218E2344A
:1018440000F2C308E2942018E29400409B0BBB0012
:0D185400010AEB643C4A60030217C6D2B0E3
:011861002264
:10223900122CB6E47831F208F2E4FDFF1238517835
:1022490032E22401F218E23400F2C308E2944018A1
:10225900E2940140E40BBB00010AEB64104A70D31D
:10226900E4FAFBE4782FF208F2E47831F208F2EBB1
:10227900AE027803C333CE33CED8F9FFE4FD12386A
:10228900517832E22401F218E23400F2C308E294F0
:102299005018E2940040D8E47831F208F2EB25E0D6
:1022A900FDEA33FCEDAE047803CEC313CE13D8F99F
:1022B900FFC007EDAE047805C333CE33CED8F9FDA0
:1022C900D0071238517832E22401F218E23400F2D0
:1022D900C308E2945018E2940040C2E47831F2084D
:1022E900F2AD03E4FF1238517832E22401F218E228
:1022F9003400F2C308E2945018E2940040E3E47811
:1023090031F208F2EB25E0FFEA33FEEF7803CEC3A2
:1023190013CE13D8F912383C7832E22401F218E2CC
:102329003400F2C308E2945018E2940040D67830A1
:10233900E22401F218E23400F2C308E2940718E239
:10234900940050030222720BBB00010AEB64204A7D
:05235900600302226C8C
:01235E00225C
:102DE300122CB6C2B0D2B1E47835F208F2E4FDFF9A
:102DF3001238517836E22401F218E23400F2C308A3
:102E0300E2944018E2940140E40BBB00010AEB6436
:102E1300104A70D3E4FAFBE47833F208F2E478352D
:102E2300F208F2EBAE027803C333CE33CED8F9FF08
:102E3300E4FD1238517836E22401F218E23400F24C
:102E4300C308E2944018E2940140D87834E22401A4
:102E5300F218E23400F2C308E2940718E294004047
:0E2E6300BC0BBB00010AEB64204A70ABD2B07E
:012E7100223E
:102B7C00122CB6C2B0D2B1E47839F208F2E4FDFFFF
:102B8C00123851783AE22401F218E23400F2C30808
:102B9C00E2944018E2940140E40BBB00010AEB64A0
:102BAC00304A70D3E4FAFBE47837F208F2E478396F
:102BBC00F208F2EBAE027803CEC313CE13D8F9FFB2
:102BCC00C007EBAE027805C333CE33CED8F9FDD0B7
:102BDC0007123851783AE22401F218E23400F2C3B9
:102BEC0008E2944018E2940140C97838E22401F2DA
:102BFC0018E23400F2C308E2940318E2940040ADEA
:0D2C0C000BBB00010AEB64404A709CD2B083
:012C19002298
:1030A200122CB6C2B0D2B1E4783DF208F2E4FDFFD0
:1030B200123851783EE22401F218E23400F2C308D9
:1030C200E2944018E2940140E40BBB00010AEB6475
:1030D200104A70D3E4FAFBE4783BF208F2E4783D5C
:1030E200F208F2AD03E4FF123851783EE22401F215
:1030F20018E23400F2C308E2944018E2940140E37B
:10310200783CE22401F218E23400F2C308E29407A8
:1031120018E2940040C70BBB00010AEB64204A701E
:03312200B6D2B072
:013125002287
:102E7200122CB6C2B0E47841F208F2E4FDFF123837
:102E8200517842E22401F218E23400F2C308E294DB
:102E92004018E2940140E40BBB00010AEB64104AC3
:102EA20070D3E4FAFBE4783FF208F2E47841F208E6
:102EB200F2EB25E0FFEA33FEEF7803CEC313CE1325
:102EC200D8F912383C7842E22401F218E23400F2D6
:102ED200C308E2944018E2940140D67840E224010B
:102EE200F218E23400F2C308E2940718E2940040B8
:0E2EF200BA0BBB00010AEB64204A70A9D2B0F3
:012F000022AE
:102C1A00122CB6C2B0D2B1E4785EF208F2E4FBFA42
:102C2A00C3EA9400500DE4FDFF1238510BBB0001BA
:102C3A000A80EDE4FAFBE47860F208F2EBAE02787F
:102C4A0002C333CE33CED8F97803CEC313CE13D80A
:102C5A00F9FFAE03EE25E0F933333354F84FFFEEB4
:102C6A0025E025E0FEC43354E049FD12385178616D
:102C7A00E22401F218E23400F2C308E2941418E2E2
:102C8A00940040B80BBB00010AEB64104A70A778A5
:102C9A005FE22401F218E23400F2C308E294F01869
:0A2CAA00E294005003022C27D2B080
:012CB40022FD
:1031A300122CB6C2B0E47843F208F2E4FBFAC3EAA5
:1031B3009400500DE4FDFF1238510BBB00010A804F
:1031C300EDE4FAFBE47845F208F2EB25E0FFEA339D
:1031D300FEEF7803CEC313CE13D8F912383C7846EA
:1031E300E22401F218E23400F2C308E2940A18E27E
:1031F300940040D60BBB00010AEB64204A70C578EB
:1032030044E22401F218E23400F2C308E294F01815
:07321300E294004096D2B0E6
:01321A002291
:10186200122CB6E47847F208F2E4FD7FF812385100
:101872007848E22401F218E23400F2C308E294400C
:1018820018E2940140E30BBB00010AEB641E4A70AC
:10189200D2E4FAFBE47847F208F27DE07F071238DF
:1018A200517848E22401F218E23400F2C308E294CB
:1018B2004018E2940140E30BBB00010AEB641E4AAC
:1018C20070D2E4FAFBE47847F208F27D1FE4FF12DB
:1018D20038517848E22401F218E23400F2C308E2F7
:1018E200944018E2940140E30BBB00010AEB641E32
:1018F2004A70D2E4FAFBE47847F208F27DE07FFF17
:101902001238517848E22401F218E23400F2C30896
:10191200E2944018E2940140E30BBB00010AEB643D
:101922001E4A70D2E4FAFBE47847F208F27D1F7F88
:10193200F81238517848E22401F218E23400F2C376
:1019420008E2944018E2940140E30BBB00010AEB69
:10195200641E4A70D2E4FAFBE47847F208F27DFF93
:101962007F071238517848E22401F218E23400F27B
:10197200C308E2944018E2940140E30BBB00010A61
:10198200EB641E4A70D2E4FAFBE47847F208F27D77
:10199200FF7FFF1238517848E22401F218E2340046
:1019A200F2C308E2944018E2940140E30BBB000149
:1019B2000AEB641E4A70D2E4FAFBE47847F208F2BA
:1019C200E4FDFF1238517848E22401F218E23400B3
:1019D200F2C308E2944018E2940140E40BBB000118
:1019E2000AEB641E4A70D3E4FAFBC3EA940050295E
:1019F200E47847F208F2E4FDFF1238517848E22415
:101A020001F218E23400F2C308E2944018E29401B1
:091A120040E40BBB00010A80D185
:011A1B0022A8
:1034A900EFC3942050047F5F8050EFC39420400CF9
:1034B900EFD3942F5006EF2428FF803EEFC39430BA
:1034C900400CEFD39439500674D02FFF802CEFC3F2
:1034D900943A400CEFD394405006EF241EFF801A13
:1034E900EFC39441400CEFD3947E5006EF24C9FFFB
:0B34F9008008EFD3947E40027F5F222A
:10274100FD18E23400FC786BE2FA08E2FB08E2F5DE
:102751008308E2F5827877E583F208E582F2786F03
:10276100E2F58308E2F5827879E583F208E582F201
:082771007872EFF2AF05AE042F
:10277900EB240FFCE43A15081508A808F208CCF276
:10278900EF2407FDE43EFC122CCE7872E2FF7E00B6
:10279900D3945FEE940040027F5FEFC4F8540FC8F2
:1027A90068FFEEC454F048FE787C74FFF2087406A2
:1027B900F208749AF2E22FF218E23EF2E4787BF220
:1027C900787CE2FB0808E2F92401F218E2FA340005
:1027D900F2120F55FBE4FAEBA802088002C333D8C2
:1027E900FC30E704787780027879E2FE08E2FF128C
:1027F9003A5D0AEAB408E0787BE204F2E2C3941095
:0228090040BECF
:01280B0022AA
:102D4D007867EBF208EAF208E9F208ECF208EDF226
:102D5D007867E2FB08E2FA08E2F9120F557003D327
:102D6D008001C340707867E2FB0808E2F92401F2A4
:102D7D0018E2FA3400F2120F55FF1234A9786AE204
:102D8D00FC08E2FD08E2FA08E2FB08E2F58308E23E
:102D9D00F5827877E583F208E582F2787012276183
:102DAD00D3786BE2943718E29401400BE4F208F209
:102DBD00786DE224108005786BE22408F218E23475
:102DCD0000F2D3786DE294DF18E294004082E4F2D1
:062DDD0008F2022D5D2248
:1028C3007867EEF208EFF2786BEAF208EBF27869D8
:1028D300ECF208EDF2D3941FEC9401400818740154
:1028E300F208741FF2786BE2FE08E2FFD394DFEE86
:1028F30094004009EF24EFF2EE34FF18F27867E218
:10290300C4540FFF7869E2FC08E2FD0812274978F6
:1029130067E2540FFF786AE224081227417967E3DC
:10292300C4F854F0C809E3C4540F48540FFF786A3D
:10293300E224101227417868E2540FFF786AE224F8
:1029430018FD18E23400FC786BE2FA08E2FB08E2B7
:10295300F58308E2F5827877E583F208E582F27879
:102963006FE2F58308E2F5827879E583F208E58280
:04297300F2022771D4
:1039EA007B027D087C00E4FF1214127859EEF2087B
:0639FA00EFF2E4FEFF22E3
:10366200785EEAF208EBF2ED2401FAE43C15081563
:1036720008A808F208CAF2AB05AA04EF2401FDE487
:103682003EFC122CCE785EE2FC08E2FDECFF123822
:103692005118E2FC08E2FDECFF12385118E2FC0876
:1036A200E2FDECFF12385118E2FC08E2FDECFF02E9
:0236B20038518D
:10301C007849EEF208EFF28B828A8308ECF208ED25
:01302C00F2B1
:10302D00784FE2FF08E215081508A808CFF208EF5F
:10303D00F27849E2FE08E2FF122CCEAE83AF827821
:10304D0053EEF208EFF27850E22401FF18E234005B
:10305D00FEC37854E29F18E29E50397849E2FE088B
:10306D00E2FBAA06784CE22401FF18E23400FEC30D
:10307D00EB9FEA9E50117851E2FE08E2FF123A5D95
:10308D000BBB00010A80DD7854E22401F218E23412
:04309D0000F280B20B
:0130A100220C
:072F01007855EEF208EFF233
:102F080008E4F208740FF2C37858E294EF18E294D8
:102F1800005030E2FA08E2FB784FEAF208EBF27868
:102F280055E2FF08E27851CFF208EFF27D3F7C01CD
:102F3800E4FFFE12301C7858E22410F218E2340044
:102F4800F280C47857E4F208740FF2C37858E29418
:102F58003F18E294015030E2FC08E2FDFFAE04782D
:102F68004FE4F20874EFF27855E2FB08E27851CBAF
:102F7800F208EBF2E4FBFA12301C7858E22410F263
:072F880018E23400F280C4DE
:012F8F00221F
:1038E100C294C295E49002B4F0EF20E704C2B28022
:1038F10002D2B2D295EF25E0FFC2959002B4E00466
:05390100F0E0B408E451
:01390600229E
:103290009002B512119500000000C294D2B3E490E0
:1032A00002B4F09002B4E0FFC3940C5049C29530D0
:1032B000B33AC3740B9FFF74017E00A80708800512
:1032C000C333CE33CED8F9FFEE3395E0FDFC900248
:1032D000B5E0F8A3E0F9A3E0FAA3E04FFFEA4EFE61
:1032E000E94DFDE84CFC9002B512117DD29590029B
:1032F000B4E004F080ADD2949002B5A3A3E0FEA3A5
:02330000E0FFEC
:0133020022A8
:02235F00AB07CA
:10236100E490029BF0A3F0A3F0D2B590029BE0C3EE
:10237100940B502C20B529C294EB04FF1238E112C2
:10238100329090029BE025E0249EF582E43402F530
:1023910083EEF0A3EFF090029BE004F0D29480CBA7
:1023A10090029BE07003022476E4A3F090029BE08C
:1023B100F9A3E0C3994003022462E4A3F090029CD4
:1023C100E0FF90029BE0C39FFF90029DE0C39F400E
:1023D10003022459E0FF25E024A0F582E43402F54C
:1023E10083E0FCA3E0FDEF25E0249EF582E43402C6
:1023F100F583E0FEA3E0D39DEE9C405390029DE067
:1024010025E0249EF582E43402F583E0FCA3E0FD9F
:10241100900299ECF0A3EDF0EF25E024A0F582E421
:102421003402F583E0FEA3E0FF90029DE0FB25E08E
:10243100249EF582E43402F583EEF0A3EFF0EB2560
:10244100E024A0F582E43402F583ECF0A3EDF090F2
:10245100029DE004F00223BE90029CE004F00223FE
:10246100ADE9C31325E0249EF582E43402F583E04F
:08247100FEA3E0FF22E4FEFFE0
:012479002240
:101A1C009002811211950000000090028512119520
:101A2C000000000090028912119500000000900245
:101A3C008D1211950000000090029112119500007A
:101A4C00000090029512119500000000E4FFFE12B8
:101A5C000046D2B520B5FD20B603021BB37F327E03
:101A6C000012394920B5F07FD012235FE4FCFD90C1
:101A7C00028912117D900289E0FCA3E0FDA3E0FE37
:101A8C00A3E024BDFFEE34FFFEED34FFFDEC34FF8C
:101A9C00FCE47B407A01F9F8120FFBE47BA57A0297
:101AAC00F9F8121086E4120DA07BA47A7079BD7837
:101ABC003E120C9A120DDE90028112117D7F901253
:101ACC00235FE4FCFD90028D12117D90028DE0FCF1
:101ADC00A3E0FDA3E0FEA3E024A0FFEE34FFFEEDA7
:101AEC0034FFFDEC34FFFCE47BF0FAF9F8120FFB49
:101AFC00E4FB7A03F9F8121086E4120DA07B667AE7
:101B0C006679E6783E120C9A120DDE90028512115F
:101B1C007D7F0A7E0012394930B503021A70E4FF4A
:101B2C00FEFDFC900281E0F8A3E0F9A3E0FAA3E04B
:101B3C00FBC31211265003021A70E47F407E01FD94
:101B4C00FC900281E0F8A3A3A3E01211264003024B
:101B5C001A70E4FFFEFDFC900285E0F8A3E0F9A307
:101B6C00E0FAA3E0FBC31211265003021A70E47FC3
:101B7C00F0FEFDFC900285E0F8A3A3A3E012112671
:101B8C004003021A70900281A3A3E0FEA3E0FFC001
:101B9C0006A3A3A3E0FEA3E0FDAC06D0067B007A6F
:101BAC00F8123662021A70E4FFFE120046021A6343
:100003001201100100000040C410000000000102B2
:1000130003010902200001010080FA090400000223
:10002300FF000000070502024000000705820240AE
:0A00330000000403090401000000AE
:101FD700900281EEF0A3EFF0900285EBF0A3EAF018
:101FE700A3E9F0E4900791F0900791E0FF900003D8
:101FF70093FE74402FF582E43407F583EEF09007E3
:1020070091E004F0E0B412E0E4900791F0900791BA
:10201700E0FF90001593FE74522FF582E43407F524
:1020270083EEF0900791E004F0E0B420E0900281A5
:10203700E0FEA3E0900748F0EEA3F0A3EDF0ECA3D9
:10204700F090077274FFF0A37400F0A37435F0905A
:102057000285E0F9A3E0FAA3E0900775C9F0A3EAC7
:10206700F0A3E9F0900288E0F9A3E0FAA3E0900773
:1020770078C9F0A3EAF0A3E9F090028BE0F9A3E0B6
:10208700FAA3E090077BC9F0A3EAF0A3E9F0900276
:102097008EE0FFC394FA500590075AEFF090028F35
:1020A700E0900759F0900290E0FEA3E090074CF013
:1020B700EEA3F0E59620E7FB759601759708E59680
:1020C70020E7FB75960775970FE59620E7FB759652
:1020D7000975970EE59620E7FB75960B75970775BB
:1020E700D7E0123A46E4900793F0900792F09007F2
:1020F70094F0900786F043E602D2AFE59620E7FB1F
:072107007596017597012296
:103893009007867402F0E59620E7FB75960175970D
:1038A30001E490078EF0A37403F0A3F0E490079370
:0738B300F090079204F022DF
:1011DF00E59620E7FB75960EE4F597E59620E7FB7D
:1011EF00759691E59620E7FB90079EE597F0E0FF57
:1011FF0030E210E59620E7FB759611E4F59790071E
:10120F008EF022EF30E410E59620E7FB759611750E
:10121F009780E490078EF090078EE0600302131022
:10122F0090079EE020E0030213107596204396C0AE
:10123F00E4900791F0E59620E7FB900791E0247E7C
:10124F00F582E43407F583E597F0900791E004F019
:10125F00E0B407E1E59620E7FBE4F596900791E00F
:10126F00247EF582E43407F583E597F0900781E05B
:10127F00FE900780E07C002400FFEC3E900795F085
:10128F00A3EFF0900785E0FE900784E02400FFECC9
:10129F003E900797F0A3EFF090077FE0B40C00505B
:1012AF005D9012B7F82828730212DB0212E00212C7
:1012BF00E50212EA02130D0212EF0212F402130DED
:1012CF000212F90212FE02130302130812330380F3
:1012DF003012355E802B12267480261235B680218F
:1012EF00123929801C122977801712374D8012125C
:1012FF003504800D1238BA8008123A008003123973
:10130F006890078EE06401600302141190079E74C9
:10131F0002F0C390078DE0944090078CE09400405A
:10132F0061E59620E7FB759620E4900791F0900712
:10133F0091E0FFC394405022900787E0FBA3E0FAAF
:10134F00A3E0F98F82758300120F6EF597E5962053
:10135F00E7FB900791E004F080D4900788E475F0E4
:10136F0040120FAD90078DE024C0F090078CE03451
:10137F00FFF090078BE02440F090078AE03400F0F4
:10138F008052E59620E7FB759620E4900791F09048
:10139F000791E0FFD390078DE09F90078CE09400BA
:1013AF004026900787E0FBA3E0FAA3E0F9900791AE
:1013BF00E0F582758300120F6EF597E59620E7FB37
:1013CF00900791E004F080C790079EE04408F0E496
:1013DF0090078EF0900797E0FEA3E0FF90078AE05A
:1013EF00B50611A3E0B5070C90079EE04408F0E4A2
:1013FF0090078EF0E59620E7FB75961190079EE01B
:03140F00F597222C
:10396800E59620E7FB75960EE4F597E59620E7FBCC
:0D39780075961175972090078E7404F0224B
:1033030090077EE0247F60071460062402704880E3
:103313002D90078FE0B40309900782E0B402028086
:103323000E900790E0B40316900782E0B4820F90EA
:10333300078774FFF0A37400F0A37439800D90071E
:103343008774FFF0A37400F0A3743BF090078CE440
:10335300F0A37402F0800312396890078EE06404CE
:103363006010123A0090078E7401F0E490078AF01F
:03337300A3F022A2
:10355E00900780E07041900782E0B4021DE596204E
:10356E00E7FB75960E759702E59620E7FB759614A8
:10357E00759780E490078FF08020E59620E7FB7525
:10358E00960E759702E59620E7FB75961175974096
:10359E00E4900790F08003123968E59620E7FB75FA
:0835AE00960EE4F597023A00C5
:10267400900796E020E00302270A900794E030E0F8
:102684000854FEF04402F08007900794E054FDF0F3
:10269400E59620E7FB75960E759702E59620E7FB15
:1026A400759614759710E59620E7FB759611759746
:1026B40008E59620E7FB759694E59620E7FB9007DE
:1026C4009DE597F0E020E4E9E59620E7FB75961494
:1026D400759710E59620E7FB759691E59620E7FB44
:1026E40090079DE597F0E020E3E9E59620E7FB7588
:1026F40096117597089007927408F0900794E0FF7C
:1027040030E1034401F0900795E0FCA3E0FD30E1E3
:102714000D9007867406F0900792E04410F0ED30B7
:10272400E20D9007867404F0900792E04420F0E5EF
:0D2734009620E7FB75960EE4F597023A003B
:1035B600900780E07040900782E0B4021BE59620F9
:1035C600E7FB75960E759702E59620E7FB75961450
:1035D60075972090078F8019E59620E7FB75960E64
:1035E600759702E59620E7FB75961175971090077B
:1035F600907403F08003123968E59620E7FB759610
:073606000EE4F597023A0003
:10392900E59620E7FBE4F596900780E0FFF597EF31
:1039390090078660057403F080037402F0023A0070
:10297700900781E024FE601B14603B24027069907D
:1029870007877401F0A37407F0A37440F090074021
:10299700E0804A9007877401F0A37407F0A374528C
:1029A700F0900755E0FE900754E07C002400FFEC10
:1029B7003E90078C802C900780E075F003A424726A
:1029C700F582E43407F583E0FBA3E0FAA3E0F9908E
:1029D7000787EBF0A3EAF0A3E9F0120F55FF900782
:1029E7008CE4F0A3EFF0800312396890078CE0FEC7
:1029F700A3E0FF900797E0FCA3E0FDC39FEC9E5088
:102A07000890078CECF0A3EDF090078EE06404606B
:102A170010123A0090078E7401F0E490078AF0A331
:022A2700F0229B
:10374D00900786E0FFB40414A374FFF0A37400F097
:10375D00A37439F090078CE4F0A304F0EFB40316D2
:10376D0090078774FFF0A37400F0A3743BF09007EB
:10377D008CE4F0A304F0123A0090078E7401F0E48B
:07378D0090078AF0A3F0226F
:10350400900780E0D394004042900792E04440F05A
:103514009007867404F0E490078FF0A3F0E59620FA
:10352400E7FB75960E759702E59620E7FB759612F4
:10353400759784E59620E7FB759615759780E59653
:1035440020E7FB75960EE4F597800C9007867403CC
:0A355400F090078FF0A3F0023A0098
:1038BA0090078774FFF0A37400F0A3743BF090079D
:1038CA008CE4F0A304F0123A0090078E7401F0E43D
:0738DA0090078AF0A3F02221
:103A000090078EE06404600BE59620E7FB75961145
:043A10007597402244
:03004300021D4B50
:101D4B00C0E0C0F0C083C082C0D075D000C000C05E
:101D5B0001C002C003C004C005C006C0079007A1A4
:101D6B00E596F0E59620E7FB75968EE59620E7FB6A
:101D7B009007A2E597F0E59620E7FB759686E5962A
:101D8B0020E7FB900799E597F0E030E30BE5962011
:101D9B00E7FB75960B759707900799E030E20312F6
:101DAB003893900799E030E014900786E0FF6404C5
:101DBB006004EFB40607900792E04480F0E59620AC
:101DCB00E7FB759682E59620E7FB900799E597F080
:101DDB00E030E0031211DF900799E030E22AE5963C
:101DEB0020E7FB75960E759702E59620E7FB759637
:101DFB0091E59620E7FB90079AE597F0E054037086
:101E0B0007900792E04402F0E59620E7FB75968475
:101E1B00E59620E7FB900799E597F0E030E229E59E
:101E2B009620E7FB75960E759702E59620E7FB75F6
:101E3B009694E59620E7FB90079AE597F0E030E063
:101E4B0007900792E04404F0E59620E7FB75960EA9
:101E5B009007A2E0F597E59620E7FB9007A1E596A2
:101E6B00F0E59620E7FB900794E030E009900792AD
:101E7B00E06003123907D007D006D005D004D00399
:101E8B00D002D001D000D0D0D082D083D0F0D0E01F
:011E9B003214
:1037D700E5B964E0602E53A90FC0A943B280E5A9FB
:1037E7005407D394014003E4F5A9E4F5B943B9803C
:1037F700E4D5E0FD43B9C0E5B930E5FBD0E0B4025C
:083807000343A90253A90F229B
:1038680053D7BF43C910E5A95402900791F043B25A
:103878008075A910E4F5B943B220001237D7900734
:0B38880091E042A953C9EF43D7402252
:0E3A3800900792E0FFE4F022900792E0FF2258
:102A2900900786E0B40606EDD3944040037F002268
:102A3900E59620E7FB75960E759702E59620E7FB6C
:102A4900759694E59620E7FB90079CE597F0E020C2
:102A5900E003022AD5E59620E7FB759696E59620D0
:102A6900E7FB900793E597F0E0FFEDC39F5006AEB3
:102A790005AF068000900793EFF053E6FDE5962039
:102A8900E7FB7596E2900793E06025FEEB60063060
:102A9900E70F7F0022E59620E7FBA79709DEF6807E
:102AA9000F89828A83E59620E7FBE597F0A3DEF597
:102AB900E59620E7FBE4F596E59620E7FB75961485
:0F2AC900E4F59743E602900793E0FF227F002297
:10247A00900786E0B4060DED4C6009D3ED9400ECAC
:10248A0094104004E4FEFF2253E6FDE490079FF017
:10249A00A3F090079BF089828A83C083C082900749
:1024AA009BE030E00302257BE59620E7FB75960E5C
:1024BA00759702E59620E7FB759691E59620E7FB6E
:1024CA0090079BE597F0E030E020E59620E7FB7562
:1024DA00960EE4F597E59620E7FB759691E596202A
:1024EA00E7FB90079BE597F080B4C3ED9440EC942A
:1024FA00009007A0E0401B2440F090079FE03400C2
:10250A00F074C02DFD74FF3CFCE490079BF078400A
:10251A0080132DF090079FE03CF090079B7401F028
:10252A00A805E4FCFDE59620E7FB759622D082D04B
:10253A0083E8602BEB601130E71AE59620E7FBE4AD
:10254A0093F597A3D8F48017E59620E7FB879709B8
:10255A00D8F6800BE59620E7FBE0F597A3D8F5C0FF
:10256A0083C082E59620E7FB7596117597010224D0
:10257A00A8D082D08343E60290079FE0FEA3E0FF43
:01258A00222E
:1039BB00900794E04401F0900792E0600BE59620AD
:0939CB00E7FB75960B75970F22BE
:0C3A4600E59620E7FB75960F7597892226
:10390700D007D007D007D006D005D004D003D00207
:10391700D001D000D0D0D082D083D0F0D0E0020048
:023927008B22F1
:100C9A00EC4D6011E8497017ED33EC3304600DE454
:100CAA00FCFFFEFD22E933E8330470F8020E4A1213
:100CBA000E1558046009E4CC248150062850090214
:100CCA000E54284003020E51C0E0EB4A7044B9802A
:100CDA0006D0E0FB020E40EF4E701CBD8008EBFF11
:100CEA00EAFEE9FD80EBE98DF0A4FEE5F0020D8352
:100CFA00E9CDF9EAFEEBFFEF89F0A4FCE5F0CE8935
:100D0A00F0A42EFFE435F0CD89F0A42DFEE435F0F1
:100D1A008067EF4E7005BD80D780C3EF8BF0A4AC1F
:100D2A00F0EE8BF0A42CFCE435F0F8EF8AF0A42C5A
:100D3A00E5F038FCE433CB8DF0A42CFCE5F03BF86D
:100D4A00EE8AF0A42CFCE5F038F8E433CF89F0A45D
:100D5A002CFCE5F038CF3400CE89F0A42FFFE5F063
:100D6A003EFEE433C98DF0A42EFEE5F039CD8AF0BB
:100D7A00A42FFFE5F03EFEE43DFD33D0E0FB500733
:100D8A000BBB000F020E54EC2CFCEF33FFEE33FECC
:060D9A00ED33FD020E2CFA
:100DA00075F020800E75F010800575F0087D007ECE
:100DB000007F003392D530D503121118EC33401068
:100DC000EF33FFEE33FEED33FDEC33FCD5F0ED22D7
:0E0DD000E5F0247EA2D513CC92E7CDCEFF2213
:100DDE00EDD2E7CD33EC3392D524814006E4FFFE0D
:100DEE00FDFC22FCE4CFCECDCC24E0501174FF806C
:100DFE00EDC3CC13CCCD13CDCE13CECF13CF047009
:070E0E00F030D5DE021118DF
:100E1500E9D2E7C933E833F892D5EDD2E7CD33EC23
:070E250033FC5002B2D5229C
:100E2C00EC30E7100FBF000C0EBE00080DBD000427
:100E3C000BEB6014A2D5EB13FCED92E7FD2274FFD3
:100E4C00FCFDFEFF22E480F8A2D574FF13FC7D802C
:030E5C00E480EF40
:03000000022F903C
:0C2F9000787FE4F6D8FD758108022FD789
:100E5F00E709F608DFFA8046E709F208DFFA803E75
:100E6F0088828C83E709F0A3DFFA8032E309F60862
:100E7F00DFFA8078E309F208DFFA807088828C83CA
:100E8F00E309F0A3DFFA806489828A83E0A3F6087E
:100E9F00DFFA805889828A83E0A3F208DFFA804C58
:100EAF0080D280FA80C680D4806980F2803380102F
:100EBF0080A680EA809A80A880DA80E280CA803398
:100ECF0089828A83ECFAE493A3C8C582C8CCC58310
:100EDF00CCF0A3C8C582C8CCC583CCDFE9DEE780E0
:100EEF000D89828A83E493A3F608DFF9ECFAA9F05F
:100EFF00EDFB2289828A83ECFAE0A3C8C582C8CCB5
:100F0F00C583CCF0A3C8C582C8CCC583CCDFEADECD
:100F1F00E880DB89828A83E493A3F208DFF980CC2F
:100F2F0088F0EF60010E4E60C388F0ED2402B40428
:100F3F000050B9F582EB2402B4040050AF232345CF
:060F4F008223900EAF7337
:100F5500BB010689828A83E0225002E722BBFE029A
:090F6500E32289828A83E49322CD
:100F6E00BB010CE58229F582E5833AF583E0225038
:100F7E0006E92582F8E622BBFE06E92582F8E22282
:0D0F8E00E58229F582E5833AF583E493229C
:100F9B00EF8DF0A4A8F0CF8CF0A428CE8DF0A42E6A
:020FAB00FE2224
:100FAD00C5F0F8A3E028F0C5F0F8E58215827002CF
:060FBD001583E038F0226C
:100FC300BB0110E58229F582E5833AF583E0F5F06C
:100FD300A3E0225009E92582F886F008E622BBFE49
:100FE3000AE92582F8E2F5F008E222E5832AF5838F
:080FF300E993F5F0A3E9932254
:100FFB00E88FF0A4CC8BF0A42CFCE98EF0A42CFC95
:10100B008AF0EDA42CFCEA8EF0A4CDA8F08BF0A412
:10101B002DCC3825F0FDE98FF0A42CCD35F0FCEB71
:10102B008EF0A4FEA9F0EB8FF0A4CFC5F02ECD3936
:0F103B00FEE43CFCEAA42DCE35F0FDE43CFC22A3
:10104A0075F008758200EF2FFFEE33FECD33CDCC5D
:10105A0033CCC58233C5829BED9AEC99E5829840E0
:10106A000CF582EE9BFEED9AFDEC99FC0FD5F0D6BD
:10107A00E4CEFBE4CDFAE4CCF9A88222B800C1B9E7
:10108A000059BA002DEC8BF084CFCECDFCE5F0CB25
:10109A00F97818EF2FFFEE33FEED33FDEC33FCEB5E
:1010AA0033FB10D703994004EB99FB0FD8E5E4F919
:1010BA00FA227818EF2FFFEE33FEED33FDEC33FC06
:1010CA00C933C910D7059BE99A4007EC9BFCE99AFA
:1010DA00F90FD8E0E4C9FAE4CCFB2275F010EF2F3F
:1010EA00FFEE33FEED33FDCC33CCC833C810D7073F
:1010FA009BEC9AE899400AED9BFDEC9AFCE899F87A
:0E110A000FD5F0DAE4CDFBE4CCFAE4C8F9220C
:0E111800C3E49FFFE49EFEE49DFDE49CFC22E8
:10112600EB9FF5F0EA9E42F0E99D42F0E89C45F01F
:011136002296
:10113700E8600FECC313FCED13FDEE13FEEF13FF96
:03114700D8F122BA
:10114A00E8600FEFC333FFEE33FEED33FDEC33FC03
:03115A00D8F122A7
:10115D007401FF3395E0FEFDFC080808E2CF2FF285
:10116D0018E2CE3EF218E2CD3DF218E2CC3CF2226E
:0C117D00ECF0A3EDF0A3EEF0A3EFF022E5
:0C118900ECF208EDF208EEF208EFF222A2
:10119500A8828583F0D083D0821211AC1211AC12D3
:1011A50011AC1211ACE473E493A3C583C5F0C583F8
:1011B500C8C582C8F0A3C583C5F0C583C8C582C8A4
:0111C5002207
:1011C600D083D082E493F208740193F208740293F8
:0911D600F208740393F27404732F
:102F9C00023704E493A3F8E493A34003F68001F210
:102FAC0008DFF48029E493A3F85407240CC8C33336
:102FBC00C4540F4420C8834004F456800146F6DF05
:102FCC00E4800B010204081020408090380FE47E4E
:102FDC00019360BCA3FF543F30E509541FFEE493FA
:102FEC00A360010ECF54C025E060A840B8E493A3C1
:102FFC00FAE493A3F8E493A3C8C582C8CAC583CAEC
:10300C00F0A3C8C582C8CAC583CADFE9DEE780BEA3
:01383B00008C
:00000001FF
