:10371B00555342204445425547005553422052458C
:10372B0041440010C4EA611A03530069006C00693C
:10373B000063006F006E0020004C0061006200739C
:10374B000010035500530042002000410050004977
:10375B00000A0343003500310046000F80010001D1
:10386700810000810700810C00810E00810F00811B
:103877000D0081040082050000840800000001811A
:0838870001AA8102558103FF33
:100003001233DD30B636122B3C123674123A6C744E
:10001300FFFFFE120046123674123A6C122D1912AB
:100023003674123A6C121C16123674123A6CE4FFD0
:0D003300FE12004612367412186280C722B9
:10399D00E4FDFCC3ED9FEC9E5014E4FBFA0BBB0061
:0E39AD00010AEBF44A70F60DBD00010C80E536
:0139BB0022E9
:043674007F017E0054
:073678007859EEF208EFF2B1
:10367F00E408F208F230B721E4FFFED3785AE29F54
:10368F0018E29E401EE4FDFC0DBD00010CEDF44C54
:10369F0070F60FBF00010E80E2123A6C7F147E00AD
:1036AF0012399D785CE22401F218E23400F2C3086B
:0936BF00E2946418E2940040BC9E
:0136C80022DF
:103A6C0030B60512008E80F87FF47E0112399D303D
:033A7C00B6FD2272
:10008E0078617C007DFE7BFF7A37796A7E007F0186
:10009E00120F2F7807E2700302026E785D7401F280
:1000AE00785DE2FFC39410507BEF25E025E024D469
:1000BE00F582E43402F583E07028E2FD25E025E0C8
:1000CE0024D5F582E43402F583E0FEED25E025E04B
:1000DE0024D6F582E43402F583E0FDEDFF1239F803
:1000EE00803A785DE225E025E024D4F582E43402FE
:1000FE00F583E0B40126E2FD25E025E024D5F58266
:10010E00E43402F583E0FEED25E025E024D6F58209
:10011E00E43402F583E0FDEDFF1239C0785DE204B0
:10012E00F20200AE0000000000000000000000001F
:10013E0000000000000000007BFF7A37791BE47896
:10014E0067F208F208F208F274FF08F208F2E4FD12
:10015E00FC122DB49002D7E020E003020253785D2A
:10016E007401F2785DE2FFC394104003020253EF74
:10017E0025E025E024D4F582E43402F583E07055C1
:10018E00E2FD25E025E024D5F582E43402F583E096
:10019E00FEED25E025E024D6F582E43402F583E079
:1001AE00FDEDFFE2FB25E025E024D7F582E43402E5
:1001BE00F583E075F024A4FDACF0EB75F011A4FB13
:1001CE00AAF078687407F20874E0F2E408F208F214
:1001DE001229278068785DE2FB25E025E024D4F51E
:1001EE0082E43402F583E064017052E2FD25E025DD
:1001FE00E024D5F582E43402F583E0FEED25E0251A
:10020E00E024D6F582E43402F583E0FDEDFFEB2524
:10021E00E025E024D7F582E43402F583E075F0247E
:10022E00A4FDACF0EB75F011A4FBAAF07868E4F233
:10023E0008741FF274FF08F208F2122927785DE2A3
:10024E0004F2020171000000000000000000000036
:10025E00000000000000000000E47807F20200A198
:10026E00780DE2700302033AE4785DF2785DE2C342
:10027E0094404003020327C2B0D2B1E2FE24D4F56B
:10028E0082E43402F583E0FF74D52EF582E4340265
:10029E00F583E0FD1238D4D2B0785DE2FF24D4F5B8
:1002AE0082E43402F583E0FE780508E2FD2401F2D3
:1002BE0018E2FC3400F2747C2DF58274003CF58358
:1002CE00EEF074D52FF582E43402F583E0FF08E2F8
:1002DE00FD2401F218E2FC3400F2747C2DF58274D8
:1002EE00003CF583EFF008E2B4002518E2B40220DA
:1002FE00780812115D12318D7804E290007CF07F47
:10030E00007E007D007C0012318DE47805F208F24B
:10031E00785DE22402F202027AE4780DF27BFE7A34
:10032E000079617D01FC1224DE02026E7800E2701B
:10033E00030204479002D7E070030203FD785D7458
:10034E0004F2785DE2C394244003020434C2B0D2B6
:10035E00B1E2FE24D4F582E43402F583E0FF74D5D5
:10036E002EF582E43402F583E0FD1238D4D2B07853
:10037E005DE2FF24D4F582E43402F583E0FE7805D5
:10038E0008E2FD2401F218E2FC3400F2747C2DF533
:10039E008274003CF583EEF074D52FF582E43402BE
:1003AE00F583E0FF08E2FD2401F218E2FC3400F2CE
:1003BE00747C2DF58274003CF583EFF008E2B400F6
:1003CE002518E2B40220780812115D12318D7804DE
:1003DE00E290007CF07F007E007D007C0012318D6B
:1003EE00E47805F208F2785DE22402F20203507816
:1003FE005D7404F2785DE2C39424502AC2B0D2B187
:10040E00E2FE24D4F582E43402F583E0FF74D52EA7
:10041E00F582E43402F583E0FD1238D4D2B0785D73
:10042E00E22402F280CEE47800F27BFE7A0079615B
:10043E007D01FC1224DE02033A780FE270030204FF
:10044E00FE785D7404F2785DE2FFC39424400302EB
:10045E0004EB74D42FF582E43402F583E07020E2CD
:10046E00FD24D5F582E43402F583E0FE74D62DF535
:10047E0082E43402F583E0FDEDFF1239F880557801
:10048E005DE224D4F582E43402F583E0B40120E287
:10049E00FD24D5F582E43402F583E0FE74D62DF505
:1004AE0082E43402F583E0FDEDFF1239C080257839
:1004BE005DE224D4F582E43402F583E06410701416
:1004CE00000000000000000000000000000000001E
:1004DE0000000000785DE22404F2020454E4780F78
:1004EE00F27BFE7A0079617D01FC1224DE02044764
:1004FE00780CE27003020653E4785DF2785DE2FF59
:10050E00C394185011747C2FF582E43402F583E401
:10051E00F0E204F280E69002DBE025E07860F290F3
:10052E0002D9E0FEA3E0FDEE785EF2ED08F2900255
:10053E00D8E06401703C18E2FE08E2FF1239F8E4DC
:10054E00785DF27860E2FF785DE2C39F5024123A44
:10055E0042785DE2FD247CF582E43402F583E4F01A
:10056E00747D2DF582E43402F583EFF0E22402F27D
:10057E0080D1E4780CF27B017A02797C7860E2FD1E
:10058E007C001224DE7F647E0012399D7BFF7A3759
:10059E007925E47867F208F208F208F274FF08F29F
:1005AE0008F2E4FDFC122DB49002D7E020E0030225
:1005BE0004FE9002DCE075F024A4FDACF0785EE25F
:1005CE00FE08E2FF78687407F20874E0F2E408F2BD
:1005DE0008F27B11FA122927E4785DF27860E2FFC7
:1005EE00785DE2F9C39F40030204FE9002DCE075E1
:1005FE00F024A4FDACF0C004C005E9C3132402FF2F
:10060E00E433FE7C007D11120F9BAA06AB07747CAF
:10061E0029F582E43402F583E0FE747D29F582E447
:10062E003402F583E0FDEDFF7868E4F208741FF202
:10063E0074FF08F208F2D005D004122927785DE283
:10064E002402F28097780EE26041E4785DF2785DE4
:10065E00E2FFC39440501174942FF582E43402F5F6
:10066E0083E4F0E204F280E6E4900294F0A374F0E6
:10067E00F0A37401F0A37440F0E4780EF27B017ADB
:0B068E000279947D40FC1224DE80BA4B
:01069900223E
:1037B20053D9BF75B283E4F5B943B980FF0FEFB4B3
:1037C200FFFB43B9C0E5B930E5FBE4F5A943EF02DD
:1037D20075F1FF75A4FF75A5FF75F2FF75A6FF755C
:1037E200AEFF75F4FF43A717C286C28743E10243C7
:0237F200E240B3
:0137F40022B2
:1033DD001237B212382F90372EE493FE740193FFFB
:1033ED00903730E493FC740193FD90028374FFF0E9
:1033FD00A37437F0A3744CF0A374FFF0A37437F0EB
:10340D00A3745CF0903766E493900289F09037676F
:10341D00E49390028AF0903768E493FB74019390E3
:10342D00028BCBF0A3EBF07BFF7A37793212203190
:0C343D00123A1375A17075F80F02216897
:03004000023894EF
:03008B00021EF65C
:101EF600C0E0C0F0C083C082C0D075D000C000C0B2
:0D1F060001C002C003C004C005C006C00732
:101F1300123A907856EFF220E203021FBD7B017A5A
:101F23000279D47D40122A8D7801E2FF9002D4E039
:101F3300FEB5071408E2FDA3E0B5050C08E2FDA316
:101F4300E0B505047807806F7803E2FDB506131842
:101F5300E2FE9002D5E0B50609A3E0B50704780CCC
:101F630080557802E2FF9002D4E0B5071118E2FE33
:101F7300A3E0B50609A3E0B50504780E803978011E
:101F8300E2FE9002D4E0FDB506127803E2FCA3E082
:101F9300B50409A3E0B507047800801B7803E2B514
:101FA30005139002D5E0B5060C18E2FFA3E0B507D0
:101FB30004780F8002780D7401F27856E230E7035B
:101FC3001200407856E230E6031237B27856E23018
:101FD300E41B15081508A808E4F20874EFF27A0068
:101FE3007B007C017D3F7E007F00122C977856E2B8
:101FF30030E5207804E204F215081508A808E4F295
:102003000874EFF27A007B007C017D3F7E007F0045
:03201300122C97F5
:10201600D007D006D005D004D003D002D001D0001E
:0B202600D0D0D082D083D0F0D0E032C8
:0C3A2C007FFF123A387FFF123A387FFF0C
:093A38008FA330FFFDC2FFAFA314
:013A41002262
:0A3AAA0075A3FF30FFFDC2FFAFA3BC
:013AB40022EF
:02328200AE0795
:10328400E4FB123A2C123A2CC2FAEE4440FF123AF2
:10329400387867E2FC08E2FD08E2FE08E2FF7818ED
:1032A400121137123A387867E2FC08E2FD08E2FEB0
:1032B40008E2FF7810121137123A387867E2FC08F6
:1032C400E2FD08E2FE08E2FF7808121137123A38EC
:1032D4007867080808E2FF123A387F95123A387F77
:1032E400FF123A38BFFF09AE030BEED3946440EFEC
:0232F400D2FA0C
:0132F60022B5
:10287000E4FEFA75A90375A23BE4FD7FFF123A3826
:102880000DEDB464F678671211C600000000E4FF95
:10289000123282AE070AEAD3940A5004EEB401D988
:1028A000E4FA78671211C6000000007F3712328206
:1028B000AE070AEAD3946440037F0122EEB401E23A
:1028C000E4FA78671211C6000000007F29123282F4
:1028D000AE070AEAD3946440037F0122EE70C3EE90
:1028E000601FE4FA78671211C6000000007F011231
:1028F0003282AE070AEAD3946440037F0122EE706D
:10290000E378671211C6000000007F3B123282AEEE
:102910000778671211C6000002007F10123282751C
:06292000A201E4F5A9FF8D
:01292600228E
:0534490078101211894A
:10344E00E4FA75A9037810E2FC08E2FD08E2FE0832
:10345E00E2FF780912114A78671211897F11123230
:10346E00820AEAD3940A40037F0122EF70D7C2FA90
:10347E00123AAABFFEFAE4FDFC123AAA747C2DF5AC
:10348E008274003CF583EFF00DBD00010CE4B50530
:0E349E00E8ECB402E4123A31D2FAE4F5A9FFE8
:0134AC0022FD
:05318D007862121189B7
:10319200E4FA75A9037862E2FC08E2FD08E2FE089F
:1031A200E2FF780912114A78671211897F181232E8
:1031B20082AE070AEAD3940A40037F0122EE70D559
:1031C200C2FA7FFF123A387FFE123A38FDFC747C55
:1031D2002DF58274003CF583E0FF123A380DBD00F4
:1031E200010CE4B505E8ECB402E4123A2CAE07EEA9
:1031F200541F64056003D2FA227FFF123A38EF604F
:07320200F8D2FAE4F5A9FF80
:0132090022A2
:103A7F00E4F9122870EF600809E9D3940340F322A8
:013A8F002214
:10069A00000000182442424242424242241800000A
:1006AA00000000107010101010101010107C0000C4
:1006BA000000003C4242420404081020427E00002E
:1006CA000000003C4242041804020242443800007E
:1006DA00000000040C14242444447E04041E000078
:1006EA000000007E40404058640202424438000044
:1006FA000000001C24404058644242422418000072
:10070A000000007E44440808101010101010000069
:10071A000000003C4242422418244242423C00006B
:10072A000000001824424242261A0202243800001D
:10073A000000001010182828243C444242E7000018
:10074A00000000F8444444784442424244F800001D
:10075A000000003E4242808080808042443800008F
:10076A00000000F8444242424242424244F8000039
:10077A00000000FC424848784848404242FC0000D9
:10078A00000000FC424848784848404040E00000E9
:10079A000000003C44448080808E84444438000039
:1007AA00000000E7424242427E42424242E70000E3
:1007BA000000007C1010101010101010107C0000A7
:1007CA000000003E0808080808080808080888F019
:1007DA00000000EE444850705048484444EE00007F
:1007EA00000000E0404040404040404042FE0000DF
:1007FA00000000EE6C6C6C6C5454545454D60000D7
:10080A00000000C7626252524A4A4A4646E2000063
:10081A000000003844828282828282824438000048
:10082A00000000FC424242427C40404040E000005E
:10083A0000000038448282828282B2CA4C380600A2
:10084A00000000FC4242427C4848444442E3000023
:10085A000000003E4242402018040242427C00004E
:10086A00000000FE92101010101010101038000036
:10087A00000000E74242424242424242423C0000F9
:10088A00000000E7424244242428281810100000DF
:10089A00000000D692929292AAAA6C4444440000A4
:1008AA00000000E7422424181818242442E7000014
:1008BA00000000EE444428281010101010380000E0
:1008CA000000007E840408081020204242FC000038
:1008DA00001E1010101010101010101010101E0012
:1008EA0000004040202010101008080404040202EE
:1008FA00007808080808080808080808080878009E
:10090A00001C22000000000000000000000000009F
:10091A00000000000000000000000000000000FFCE
:10092A00006010000000000000000000000000004D
:10093A00000000000000003C421E2242423F00002C
:10094A00000000C0404040586442424264580000DF
:10095A00000000000000001C22404040221C000051
:10096A00000000060202021E22424242261B00002A
:10097A00000000000000003C427E4040423C000073
:10098A000000000F1110107E10101010107C0000D3
:10099A00000000000000003E444438403C42423C13
:1009AA00000000C04040405C6242424242E7000010
:1009BA00000000303000007010101010107C000091
:1009CA000000000C0C00001C040404040404447815
:1009DA00000000C04040404E4850684844EE0000C5
:1009EA00000000701010101010101010107C000081
:1009FA0000000000000000FE4949494949ED000095
:100A0A0000000000000000DC6242424242E70000AF
:100A1A00000000000000003C42424242423C00000A
:100A2A0000000000000000D864424242447840E0DE
:100A3A00000000000000001E22424242221E02075D
:100A4A0000000000000000EE3220202020F8000004
:100A5A00000000000000003E42403C02427C0000D0
:100A6A00000000000010107C10101010100C000084
:100A7A0000000000000000C642424242463B00001D
:100A8A0000000000000000E74224242810100000A3
:100A9A0000000000000000D79292AAAA4444000075
:100AAA00000000000000006E2418181824760000C8
:100ABA0000000000000000E742242428181010E07B
:100ACA00000000000000007E44081010227E000092
:100ADA0000030404040404080404040404040300D2
:100AEA00080808080808080808080808080808087C
:100AFA000060101010101008101010101010600074
:100B0A00304C43000000000000000000000000001C
:100B1A0000000000000000000000000000000000CB
:100B2A00000000101010101010100000181800001B
:100B3A0000123624480000000000000000000000F7
:100B4A00000000242424FE484848FE484848000083
:100B5A0000001038545450301814145454381010DB
:100B6A0000000044A4A8A8A8541A2A2A2A4400006B
:100B7A0000000030484848506EA4948889760000E6
:100B8A0000606020C00000000000000000000000BB
:100B9A0000020408081010101010100808040200BF
:100BAA00004020101008080808080810102040000B
:100BBA00000000001010D63838D6101000000000CF
:100BCA000000000010101010FE101010100000009D
:100BDA00000000000000000000000000606020C06B
:100BEA0000000000000000007F000000000000007C
:100BFA00000000000000000000000000606000002B
:100C0A0000000102020404080810102020404000DD
:100C1A00000000000000181800000000181800006A
:100C2A00000000000000001000000000001010206A
:100C3A0000000002040810204020100804020000EE
:100C4A00000000000000FE000000FE00000000009E
:100C5A000000004020100804020408102040000090
:100C6A000000003C42426202040808001818000012
:100C7A0000000038445AAAAAAAAAB442443800007A
:100C8A00FFFFFFFFFFFFFFFFFFFFFFFFFFFFFFFF6A
:04388F00825400005F
:041412007862EFF21B
:10141600ED64086003021504C2B0D296C2B1E2F5CB
:10142600A0C297D297D2B0E4F5A675F3FF75A0FFD8
:10143600C2B0D2B1D297C2960000000000000000F0
:10144600D28700000000AFA07865F208EFF2C287ED
:1014560000000000D29600000000C29600000000C6
:1014660000000000D28700000000A9A0C28700008B
:101476000000D29600000000C296000000000000A6
:101486000000D287000000007869E5A0F2C287005C
:10149600000000D2960000000000000000C2960086
:1014A60000000000000000D28700000000AAA0C2D1
:1014B6008700000000D2960000000000000000D265
:1014C60096000000000000000075A6FFEBB4010BBB
:1014D6007866E2FEE9F582EE08801EEBB4020CE9BE
:1014E600FE7869E2F582EE7867800EEBB4030F783A
:1014F60069E2FEEAF582EE7867F2E58208F2ED64CB
:10150600044C600302163A75A6FF7862E2FFC2B089
:10151600C2B1E4FDC297EF30E704D2968002C296CC
:10152600D297EF25E0FF0DEDB408E975A6FEEB6452
:10153600016005EB6403702AE4FDC297D287D29658
:101546007864E225E0FF18E233FEA296E433F582E2
:10155600EEF2EF458208F2C287D2970DEDB409DAB2
:101566008032EB64026005EB64047028E4FDC297E8
:10157600D287D2967864E225E0FF18E233FEA2967F
:10158600E433F582EEF2EF458208F2C287D2970D78
:10159600EDB410DAE4FDC297D287D2967866E225DA
:1015A600E0FF18E233FEA296E433F582EEF2EF4551
:1015B6008208F2C287D2970DEDB408DAE4FDC2972D
:1015C600D287D296E925E0FFA296E4334FF9C28787
:1015D600D2970DEDB408E7E4FDC297D287D296788C
:1015E60069E225E0FFA296E4334FF2C287D2970D57
:1015F600EDB408E575A6FFC287D296D2B1D297D2CE
:1016060096D2B0EBB401127864E2FE08E24EFF080F
:10161600E208CFF208EFF2801BEB6402600AEBB43B
:1016260003028004EBB4040C7866E2FEE9FDEE08E2
:0D163600F2ED08F2C2877867E2FE08E2FFDD
:011643002284
:0439F800AD07AC0665
:1039FC00EC787BF2C2B0D296C2B1F5A0AF058FC7FE
:063A0C00C297D297D2B070
:013A12002291
:0439BC00F808E2FF26
:0439C000AD07AC069D
:1039C400EC787BF2C2B0D296D2B1F5A0AF058FC726
:0639D400C297D297D2B0A9
:0139DA0022CA
:1038BF00FFAE03EE33333354F84FFFEE25E0FEC473
:0538CF003354E04BFD45
:1038D400C2B0D296D2B18FA0AF058FC7C297D2978C
:0238E400D2B060
:0138E60022BF
:093AB500AD07AC06ECFF0238D4A9
:10216800123A42D2857FC87E0012399DC2857FC847
:102178007E0012399DD2857FC87E0012399D7FC8A6
:102188007E001239F87FFF1239C07F931239C07F61
:10219800421239C07F361239F87FC81239C07F3AE7
:1021A8001239F87F551239C07FC01239F87F1312DF
:1021B80039C07F0E1239C07FC11239F87F02123937
:1021C800C07FC51239F87FD31239C07FB11239F8F0
:1021D800E4FF1239C07F1B1239C07FB41239F8E40A
:1021E800FF1239C07FE01239F8E4FF1239C07F03CB
:1021F8001239C07F081239C07F061239C07F131206
:1022080039C07F091239C07F391239C07F39123974
:10221800C07F481239C07F021239C07F0A1239C004
:102228007F081239C07F171239C07F171239C07F53
:102238000F1239C07FE11239F8E4FF1239C07F2844
:102248001239C07F291239C07F011239C07F0D129F
:1022580039C07F031239C07F3F1239C07F3312392A
:10226800C07F521239C07F041239C07F0F1239C0A3
:102278007F0E1239C07F371239C07F381239C07FBC
:102288000F1239C07F111239F87F7812399D7F29D2
:052298007E000239F890
:102C7E00F215081508A808E4F20874EFF27C017D3D
:092C8E003F7A007B007E007F000C
:102C970015081508A808EAF208EBF215081508A8A0
:102CA70008ECF208EDF215081508A808EEF208EF8F
:102CB700F27F2A7E001239F8A908E3FF1239C0A86B
:102CC7000808E2FF1239C0A8080808A900E3FF12A4
:102CD70039C0A808080808E2FF1239C07F2B12394B
:102CE700F8E5082404F9E3FF1239C0E508240412C3
:102CF70039BCE5082406F9E3FF1239C0E5082406C4
:102D07001239BC7F2C1239F875A903E5082408F598
:022D1700082290
:02004600AC0606
:10004800EC785BF2EF08122C7EC2B0E47859F20823
:10005800F2E4FBFA785BE2FF08E2FD1238D40BBB4E
:1000680000010ABA01EEBB40EB785AE22401F2180B
:10007800E23400F2C308E294F018E2940040D2D2CD
:01008800B0C7
:010089002254
:102B3C00122C7FC2B079F8E4FE7FF8FD1238D479FC
:102B4C00077EE07F077DE01238D40BBB00010ABA88
:102B5C0001EDBB3EEAE4F97E1FFF7D1F1238D478ED
:102B6C0059F208F279F8E4FE7FF8FD1238D4FAFB3A
:102B7C00E4F9FEFFFD1238D40BBB00010ABA01F0D8
:102B8C00BB3EEDE4F97E1FFF7D1F1238D4785AE26C
:102B9C002401F218E23400F2C308E294EE18E29435
:102BAC000040C179F8E4FE7FF8FD1238D4FAFB79C5
:102BBC00077EE07F077DE01238D40BBB00010ABA18
:102BCC0001EDBB3EEAE4F97E1FFF7D1F1238D4F500
:032BDC00A9D2B0CB
:012BDF0022D3
:101C16007859746AF2785B7402F2187450F2E478B8
:101C26005CF2C2B015081508A808122C86785AE28C
:101C3600FFC3EB9FEA94005069E4785DF27859E2BD
:101C4600FF785DE2C39F500CE4FD7FF81238D4E2C2
:101C560004F280E9E4785DF27859E2FF785DE2C348
:101C66009F500CE4FD7FF81238D4E204F280E9E4D8
:101C7600785DF2785BE2FF7859E22FFFE433FE7875
:101C86005DE2C39FEE6480F8748098500EE4FD7F99
:101C9600F81238D4785DE204F280D80BBB00010A52
:101CA600808BE4FAFB785AE2FFC3EB9FEA9400507C
:101CB60069E4785DF27859E2FF785DE2C39F500CE3
:101CC6007DE07F071238D4E204F280E9E4785DF221
:101CD6007859E2FF785DE2C39F500C7DE07F0712E2
:101CE60038D4E204F280E9E4785DF2785BE2FF78CA
:101CF60059E22FFFE433FE785DE2C39FEE6480F87D
:101D0600748098500E7DE07F071238D4785DE20427
:101D1600F280D80BBB00010A808BE4FAFB785CE208
:101D2600FF785AE22FFFE433FEC3EB9FEA9E506929
:101D3600E4785DF27859E2FF785DE2C39F500C7D4E
:101D46001FE4FF1238D4E204F280E9E4785DF27809
:101D560059E2FF785DE2C39F500C7D1FE4FF123805
:101D6600D4E204F280E9E4785DF2785BE2FF785928
:101D7600E22FFFE433FE785DE2C39FEE6480F874E1
:101D86008098500E7D1FE4FF1238D4785DE204F28D
:0E1D960080D80BBB00010A8084D2B0E4F5A90E
:011DA400221C
:1034AD00AA06A907781474FFF208EAF208E9F215E2
:1034BD00081508A808E4F208749FF27C007D7F12BD
:1034CD002C8FE47817F208F27817E2FE08E2FFC3BA
:1034DD00EE9440502DEF25E0FFEE33FE7814E2FB25
:1034ED0008E2FA08E2F98F828E83120FC3FDACF069
:1034FD00ECFF1238D47818E22401F218E23400F20D
:02350D0080C676
:01350F002299
:0325EF007819EF69
:1025F200122C7EC2B0D2B178221211C60000012C78
:102602007819E2FFE4FCFDFE7822E2FB08E2F90819
:10261200E2FA08E2CBF8120FFBEF2401FFE43EFEE0
:10262200E43DFDE43CFC781A1211897822E2FC08B0
:10263200E2FD08E2FE08E2FF781AE2FB08E2F9088E
:10264200E2FA08E2CBF8EB2FFFEA3EFEE93DFDE8B5
:102652003CFC781E8078781EE2FC08E2FD08E2FE6F
:1026620008E2FF781AE2FB08E2F908E2FA08E2CB94
:10267200F8C3121126505C781AE2FC08E2FD08E267
:10268200FE08E2FF123449E4FBFAC3EA9402502442
:10269200747C2BF58274003AF583E0FF747D2BF590
:1026A2008274003AF583E0FD1238D474022BFBE405
:1026B2003AFA80D6781AE2FC08E2FD08E2FE08E265
:1026C2002401FFE43EFEE43DFDE43CFC781A1211D5
:0526D200898083D2B0F5
:0126D70022E0
:10164400122C7FE47826F208F2C37826E294005044
:1016540012E4FDFF1238D408E22401F218E2340047
:10166400F280E6E47826F208F2E47828F208F278C8
:1016740026E2FE08E27803C333CE33CED8F9FFE482
:10168400FD1238D47829E22401F218E23400F2C3BE
:1016940008E2940A18E2940040D57827E22401F283
:1016A40018E23400F2C308E2942018E2940040B92E
:1016B4000BBB00010AEB643C4A7088E4FAFBE47853
:1016C40026F208F2C37826E294005012E4FDFF12D9
:1016D40038D408E22401F218E23400F280E6E47817
:1016E40026F208F2E47828F208F27827E225E0FDF1
:1016F40018E233FCEDAE047803CEC313CE13D8F94D
:10170400FFC007EDAE047805C333CE33CED8F9FD60
:10171400D0071238D47829E22401F218E23400F216
:10172400C308E2940A18E2940040BF7827E2240137
:10173400F218E23400F2C308E2942018E294004064
:10174400A30BBB00010AEB643C4A60030216C2E42B
:10175400FAFBE47826F208F2C37826E294005012E9
:10176400E4FDFF1238D408E22401F218E23400F256
:1017740080E6E47826F208F2E47828F208F2782683
:1017840008E2FDE4FF1238D47829E22401F218E2D9
:101794003400F2C308E2940A18E2940040E0782787
:1017A400E22401F218E23400F2C308E2942018E2C1
:1017B400940040C40BBB00010AEB643C4A7093E400
:1017C400FAFBE47826F208F2C37826E29400501279
:1017D400E4FDFF1238D408E22401F218E23400F2E6
:1017E40080E6E47826F208F2E47828F208F2782613
:1017F400E2FC08E2FD25E0FFEC33FEEF7803CEC304
:1018040013CE13D8F9FFAE05EE33333354F84FFF3C
:10181400EE25E0C43354E0FE782608E24EFD12388B
:10182400D47829E22401F218E23400F2C308E294E5
:101834000A18E2940040B77827E22401F218E2344F
:1018440000F2C308E2942018E29400409B0BBB0012
:0D185400010AEB643C4A60030217C6D2B0E3
:011861002264
:10229D00122C7FE4782CF208F2E4FDFF1238D4788A
:1022AD002DE22401F218E23400F2C308E294401842
:1022BD00E2940140E40BBB00010AEB64104A70D3B9
:1022CD00E4FAFBE4782AF208F2E4782CF208F2EB57
:1022DD00AE027803C333CE33CED8F9FFE4FD123806
:1022ED00D4782DE22401F218E23400F2C308E2940E
:1022FD005018E2940040D8E4782CF208F2EB25E077
:10230D00FDEA33FCEDAE047803CEC313CE13D8F93A
:10231D00FFC007EDAE047805C333CE33CED8F9FD3B
:10232D00D0071238D4782DE22401F218E23400F2ED
:10233D00C308E2945018E2940040C2E4782CF208ED
:10234D00F2AD03E4FF1238D4782DE22401F218E245
:10235D003400F2C308E2945018E2940040E3E478AC
:10236D002CF208F2EB25E0FFEA33FEEF7803CEC343
:10237D0013CE13D8F91238BF782DE22401F218E2EA
:10238D003400F2C308E2945018E2940040D6782B42
:10239D00E22401F218E23400F2C308E2940718E2D5
:1023AD00940050030222D60BBB00010AEB64204AB5
:0523BD0060030222D0C4
:0123C20022F8
:102E4A00122C7FC2B0D2B1E47830F208F2E4FDFF6E
:102E5A001238D47831E22401F218E23400F2C308BD
:102E6A00E2944018E2940140E40BBB00010AEB64CF
:102E7A00104A70D3E4FAFBE4782EF208F2E47830D0
:102E8A00F208F2EBAE027803C333CE33CED8F9FFA1
:102E9A00E4FD1238D47831E22401F218E23400F267
:102EAA00C308E2944018E2940140D8782FE2240142
:102EBA00F218E23400F2C308E2940718E2940040E0
:0E2ECA00BC0BBB00010AEB64204A70ABD2B017
:012ED80022D7
:102BE000122C7FC2B0D2B1E47834F208F2E4FDFFD7
:102BF0001238D47835E22401F218E23400F2C30826
:102C0000E2944018E2940140E40BBB00010AEB643B
:102C1000304A70D3E4FAFBE47832F208F2E4783414
:102C2000F208F2EBAE027803CEC313CE13D8F9FF4D
:102C3000C007EBAE027805C333CE33CED8F9FDD052
:102C4000071238D47835E22401F218E23400F2C3D6
:102C500008E2944018E2940140C97833E22401F27A
:102C600018E23400F2C308E2940318E2940040AD85
:0D2C70000BBB00010AEB64404A709CD2B01F
:012C7D002234
:10310900122C7FC2B0D2B1E47838F208F2E4FDFFA4
:103119001238D47839E22401F218E23400F2C308F3
:10312900E2944018E2940140E40BBB00010AEB640D
:10313900104A70D3E4FAFBE47836F208F2E47838FE
:10314900F208F2AD03E4FF1238D47839E22401F22F
:1031590018E23400F2C308E2944018E2940140E313
:103169007837E22401F218E23400F2C308E2940746
:1031790018E2940040C70BBB00010AEB64204A70B7
:03318900B6D2B00B
:01318C002220
:102ED900122C7FC2B0E4783CF208F2E4FDFF12380C
:102EE900D4783DE22401F218E23400F2C308E294F6
:102EF9004018E2940140E40BBB00010AEB64104A5C
:102F090070D3E4FAFBE4783AF208F2E4783CF20888
:102F1900F2EB25E0FFEA33FEEF7803CEC313CE13BD
:102F2900D8F91238BF783DE22401F218E23400F2F0
:102F3900C308E2944018E2940140D6783BE22401A8
:102F4900F218E23400F2C308E2940718E294004050
:0E2F5900BA0BBB00010AEB64204A70A9D2B08B
:012F67002247
:102D1900122C7FC2B0D2B1E47859F208F2E4FBFA7E
:102D2900C3EA9400500DE4FDFF1238D40BBB000137
:102D39000A80EDE4FAFBE4785BF208F2EBAE027884
:102D490002C333CE33CED8F97803CEC313CE13D80A
:102D5900F9FFAE03EE25E0F933333354F84FFFEEB4
:102D690025E025E0FEC43354E049FD1238D4785CEF
:102D7900E22401F218E23400F2C308E2941418E2E2
:102D8900940040B80BBB00010AEB64104A70A778A5
:102D99005AE22401F218E23400F2C308E294F0186E
:0A2DA900E294005003022D26D2B080
:012DB30022FD
:10320A00122C7FC2B0E4783EF208F2E4FBFAC3EA79
:10321A009400500DE4FDFF1238D40BBB00010A8064
:10322A00EDE4FAFBE47840F208F2EB25E0FFEA333A
:10323A00FEEF7803CEC313CE13D8F91238BF784104
:10324A00E22401F218E23400F2C308E2940A18E216
:10325A00940040D60BBB00010AEB64204A70C57883
:10326A003FE22401F218E23400F2C308E294F018B3
:07327A00E294004096D2B07F
:01328100222A
:101A5C00122C7FE47842F208F2E4FD7FF81238D4BD
:101A6C007843E22401F218E23400F2C308E2944015
:101A7C0018E2940140E30BBB00010AEB641E4A70B0
:101A8C00D2E4FAFBE47842F208F27DE07F071238E8
:101A9C00D47843E22401F218E23400F2C308E29451
:101AAC004018E2940140E30BBB00010AEB641E4AB0
:101ABC0070D2E4FAFBE47842F208F27D1FE4FF12E4
:101ACC0038D47843E22401F218E23400F2C308E27D
:101ADC00944018E2940140E30BBB00010AEB641E36
:101AEC004A70D2E4FAFBE47842F208F27DE07FFF20
:101AFC001238D47843E22401F218E23400F2C3081D
:101B0C00E2944018E2940140E30BBB00010AEB6441
:101B1C001E4A70D2E4FAFBE47842F208F27D1F7F91
:101B2C00F81238D47843E22401F218E23400F2C3FC
:101B3C0008E2944018E2940140E30BBB00010AEB6D
:101B4C00641E4A70D2E4FAFBE47842F208F27DFF9C
:101B5C007F071238D47843E22401F218E23400F201
:101B6C00C308E2944018E2940140E30BBB00010A65
:101B7C00EB641E4A70D2E4FAFBE47842F208F27D80
:101B8C00FF7FFF1238D47843E22401F218E23400CC
:101B9C00F2C308E2944018E2940140E30BBB00014D
:101BAC000AEB641E4A70D2E4FAFBE47842F208F2C3
:101BBC00E4FDFF1238D47843E22401F218E2340039
:101BCC00F2C308E2944018E2940140E40BBB00011C
:101BDC000AEB641E4A70D3E4FAFBC3EA9400502962
:101BEC00E47842F208F2E4FDFF1238D47843E224A0
:101BFC0001F218E23400F2C308E2944018E29401B6
:091C0C0040E40BBB00010A80D189
:011C150022AC
:10351000EFC3942050047F5F8050EFC39420400C91
:10352000EFD3942F5006EF2428FF803EEFC3943052
:10353000400CEFD39439500674D02FFF802CEFC38A
:10354000943A400CEFD394405006EF241EFF801AAB
:10355000EFC39441400CEFD3947E5006EF24C9FF93
:0B3560008008EFD3947E40027F5F22C2
:1027A500FD18E23400FC7866E2FA08E2FB08E2F57F
:1027B5008308E2F5827872E583F208E582F2786AA9
:1027C500E2F58308E2F5827874E583F208E582F2A2
:0827D500786DEFF2AF05AE04D0
:1027DD00EB240FFCE43A15081508A808F208CCF212
:1027ED00EF2407FDE43EFC122C97786DE2FF7E008E
:1027FD00D3945FEE940040027F5FEFC4F8540FC88E
:10280D0068FFEEC454F048FE787774FFF208740642
:10281D00F208749AF2E22FF218E23EF2E47876F2C0
:10282D007877E2FB0808E2F92401F218E2FA3400A5
:10283D00F2120F55FBE4FAEBA802088002C333D85D
:10284D00FC30E704787280027874E2FE08E2FF1231
:10285D003AB50AEAB408E07876E204F2E2C39410DD
:02286D0040BE6B
:01286F002246
:102DB4007862EBF208EAF208E9F208ECF208EDF2C4
:102DC4007862E2FB08E2FA08E2F9120F557003D3C5
:102DD4008001C340707862E2FB0808E2F92401F242
:102DE40018E2FA3400F2120F55FF1235107865E23A
:102DF400FC08E2FD08E2FA08E2FB08E2F58308E2D7
:102E0400F5827872E583F208E582F2786B1227C5C1
:102E1400D37866E2943718E29401400BE4F208F2A6
:102E24007868E2241080057866E22408F218E23417
:102E340000F2D37868E294DF18E294004082E4F26E
:062E440008F2022DC42279
:102927007862EEF208EFF27866EAF208EBF2786482
:10293700ECF208EDF2D3941FEC94014008187401EF
:10294700F208741FF27866E2FE08E2FFD394DFEE26
:1029570094004009EF24EFF2EE34FF18F27862E2B8
:10296700C4540FFF7864E2FC08E2FD081227AD7833
:1029770062E2540FFF7865E224081227A57962E323
:10298700C4F854F0C809E3C4540F48540FFF7865DE
:10299700E224101227A57863E2540FFF7865E2243A
:1029A70018FD18E23400FC7866E2FA08E2FB08E258
:1029B700F58308E2F5827872E583F208E582F2781A
:1029C7006AE2F58308E2F5827874E583F208E58226
:0429D700F20227D50C
:103A42007B027D087C00E4FF1214127854EEF20827
:063A5200EFF2E4FEFF228A
:1036C9007859EAF208EBF2ED2401FAE43C15081501
:1036D90008A808F208CAF2AB05AA04EF2401FDE420
:1036E9003EFC122C977859E2FC08E2FDECFF1238F7
:1036F900D418E2FC08E2FDECFF1238D418E2FC0809
:10370900E2FDECFF1238D418E2FC08E2FDECFF02FE
:0237190038D4A2
:103083007844EEF208EFF28B828A8308ECF208EDC3
:01309300F24A
:10309400784AE2FF08E215081508A808CFF208EFFD
:1030A400F27844E2FE08E2FF122C97AE83AF8278F6
:1030B4004EEEF208EFF2784BE22401FF18E23400FE
:1030C400FEC3784FE29F18E29E50397844E2FE082E
:1030D400E2FBAA067847E22401FF18E23400FEC3AB
:1030E400EB9FEA9E5011784CE2FE08E2FF123AB5DB
:1030F4000BBB00010A80DD784FE22401F218E234B0
:0431040000F280B2A3
:0131080022A4
:072F68007850EEF208EFF2D1
:102F6F0008E4F208740FF2C37853E294EF18E29476
:102F7F00005030E2FA08E2FB784AEAF208EBF27806
:102F8F0050E2FF08E2784CCFF208EFF27D3F7C0170
:102F9F00E4FFFE1230837853E22410F218E234007B
:102FAF00F280C47852E4F208740FF2C37853E294BB
:102FBF003F18E294015030E2FC08E2FDFFAE0478C6
:102FCF004AE4F20874EFF27850E2FB08E2784CCB57
:102FDF00F208EBF2E4FBFA1230837853E22410F29A
:072FEF0018E23400F280C477
:012FF60022B8
:083ABE005450205445535400FC
:10393500C294C295E49002AFF0EF20E704C2B280D2
:1039450002D2B2D295EF25E0FFC2959002AFE00416
:05395500F0E0B408E4FD
:01395A00224A
:1032F7009002B012119500000000C294D2B3E4907E
:1033070002AFF09002AFE0FFC3940C5049C2953072
:10331700B33AC3740B9FFF74017E00A807088005AA
:10332700C333CE33CED8F9FFEE3395E0FDFC9002E0
:10333700B0E0F8A3E0F9A3E0FAA3E04FFFEA4EFEFE
:10334700E94DFDE84CFC9002B012117DD295900238
:10335700AFE004F080ADD2949002B0A3A3E0FEA347
:02336700E0FF85
:013369002241
:0223C300AB0766
:1023C500E4900296F0A3F0A3F0D2B5900296E0C394
:1023D500940B502C20B529C294EB04FF1239351209
:1023E50032F7900296E025E02499F582E43402F56F
:1023F50083EEF0A3EFF0900296E004F0D29480CB48
:10240500900296E070030224DAE4A3F0900296E0CD
:10241500F9A3E0C39940030224C6E4A3F090029710
:10242500E0FF900296E0C39FFF900298E0C39F40B3
:10243500030224BDE0FF25E0249BF582E43402F588
:1024450083E0FCA3E0FDEF25E02499F582E4340266
:10245500F583E0FEA3E0D39DEE9C4053900298E007
:1024650025E02499F582E43402F583E0FCA3E0FD40
:10247500900294ECF0A3EDF0EF25E0249BF582E4C7
:102485003402F583E0FEA3E0FF900298E0FB25E02F
:102495002499F582E43402F583EEF0A3EFF0EB2501
:1024A500E0249BF582E43402F583ECF0A3EDF09093
:1024B5000298E004F0022422900297E004F002243E
:1024C50011E9C31325E02499F582E43402F583E08C
:0824D500FEA3E0FF22E4FEFF7C
:0124DD0022DC
:1018620090027C12119500000000900280121195E6
:101872000000000090028412119500000000900206
:10188200881211950000000090028C121195000040
:10189200000090029012119500000000E4FFFE1279
:1018A20000467BFF7A3A79BEE47867F208F208F2E2
:1018B20008F274FF08F208F2E4FDFC122DB4D2B56E
:1018C20020B5FD20B603021A377F327E0012399D01
:1018D20020B5F07FD01223C3E4FCFD9002841211E4
:1018E2007D900284E0FCA3E0FDA3E0FEA3E024BD22
:1018F200FFEE34FFFEED34FFFDEC34FFFCE47B40F1
:101902007A01F9F8120FFBE47BA57A02F9F81210BA
:1019120086E4120DA07BB87A1E7945783F120C9AA4
:10192200120DDE90027C12117D7F901223C3E4FC23
:10193200FD90028812117D900288E0FCA3E0FDA3D5
:10194200E0FEA3E024A0FFEE34FFFEED34FFFDEC49
:1019520034FFFCE47BF0FAF9F8120FFBE4FB7A03A4
:10196200F9F8121086E4120DA07B337A337973787A
:101972003F120C9A120DDE90028012117D7F0A7EB8
:101982000012399D90027CE0F8A3E0F9A3E0FAA3EB
:10199200E0FBC374F09BFFE49AFEE499FDE498FC3B
:1019A20090027C12117D30B5030218D2E4FFFEFDD5
:1019B200FC90027CE0F8A3E0F9A3E0FAA3E0FBC309
:1019C20012112650030218D2E47F407E01FDFC90E2
:1019D200027CE0F8A3A3A3E012112640030218D26E
:1019E200E4FFFEFDFC900280E0F8A3E0F9A3E0FA38
:1019F200A3E0FBC312112650030218D2E47FF0FECB
:101A0200FDFC900280E0F8A3A3A3E012112640039C
:101A12000218D290027CA3A3E0FEA3E0FFC006A3BB
:101A2200A3A3E0FEA3E0FDAC06D0067B007AF81289
:101A320036C90218D2E4FFFE1200467BFF7A3A79D9
:101A4200BEE47867F208F208F208F274FF08F208BE
:0A1A5200F2E4FDFC122DB40218C5E9
:1037F5001201100100000040C41000000000010289
:1038050003010902200001010080FA0904000002F9
:10381500FF00000007050202400000070582024084
:0A3825000000040309040100000084
:1020310090027CEEF0A3EFF0900280EBF0A3EAF0C7
:10204100A3E9F0E4900791F0900791E0FF9037F554
:1020510093FE74402FF582E43407F583EEF0900788
:1020610091E004F0E0B412E0E4900791F090079160
:10207100E0FF90380793FE74522FF582E43407F5A0
:1020810083EEF0900791E004F0E0B420E090027C50
:10209100E0FEA3E0900748F0EEA3F0A3EDF0ECA37F
:1020A100F090077274FFF0A37438F0A37427F090D6
:1020B1000280E0F9A3E0FAA3E0900775C9F0A3EA72
:1020C100F0A3E9F0900283E0F9A3E0FAA3E090071E
:1020D10078C9F0A3EAF0A3E9F0900286E0F9A3E061
:1020E100FAA3E090077BC9F0A3EAF0A3E9F090021C
:1020F10089E0FFC394FA500590075AEFF090028AE5
:10210100E0900759F090028BE0FEA3E090074CF0BD
:10211100EEA3F0E59620E7FB759601759708E59625
:1021210020E7FB75960775970FE59620E7FB7596F7
:102131000975970EE59620E7FB75960B7597077560
:10214100D7E0123A9EE4900793F0900792F090073F
:1021510094F0900786F043E602D2AFE59620E7FBC4
:07216100759601759701223C
:1038E7009007867402F0E59620E7FB7596017597B9
:1038F70001E490078EF0A37403F0A3F0E49007931C
:07390700F090079204F0228A
:1011DF00E59620E7FB75960EE4F597E59620E7FB7D
:1011EF00759691E59620E7FB90079EE597F0E0FF57
:1011FF0030E210E59620E7FB759611E4F59790071E
:10120F008EF022EF30E410E59620E7FB759611750E
:10121F009780E490078EF090078EE0600302131022
:10122F0090079EE020E0030213107596204396C0AE
:10123F00E4900791F0E59620E7FB900791E0247E7C
:10124F00F582E43407F583E597F0900791E004F019
:10125F00E0B407E1E59620E7FBE4F596900791E00F
:10126F00247EF582E43407F583E597F0900781E05B
:10127F00FE900780E07C002400FFEC3E900795F085
:10128F00A3EFF0900785E0FE900784E02400FFECC9
:10129F003E900797F0A3EFF090077FE0B40C00505B
:1012AF005D9012B7F82828730212DB0212E00212C7
:1012BF00E50212EA02130D0212EF0212F402130DED
:1012CF000212F90212FE02130302130812336A808C
:1012DF00301235C5802B1226D8802612361D80215C
:1012EF0012397D801C1229DB801712376B80121286
:1012FF00356B800D12390E8008123A58800312395F
:10130F00DB90078EE06401600302141190079E7456
:10131F0002F0C390078DE0944090078CE09400405A
:10132F0061E59620E7FB759620E4900791F0900712
:10133F0091E0FFC394405022900787E0FBA3E0FAAF
:10134F00A3E0F98F82758300120F6EF597E5962053
:10135F00E7FB900791E004F080D4900788E475F0E4
:10136F0040120FAD90078DE024C0F090078CE03451
:10137F00FFF090078BE02440F090078AE03400F0F4
:10138F008052E59620E7FB759620E4900791F09048
:10139F000791E0FFD390078DE09F90078CE09400BA
:1013AF004026900787E0FBA3E0FAA3E0F9900791AE
:1013BF00E0F582758300120F6EF597E59620E7FB37
:1013CF00900791E004F080C790079EE04408F0E496
:1013DF0090078EF0900797E0FEA3E0FF90078AE05A
:1013EF00B50611A3E0B5070C90079EE04408F0E4A2
:1013FF0090078EF0E59620E7FB75961190079EE01B
:03140F00F597222C
:1039DB00E59620E7FB75960EE4F597E59620E7FB59
:0D39EB0075961175972090078E7404F022D8
:10336A0090077EE0247F600714600624027048807C
:10337A002D90078FE0B40309900782E0B40202801F
:10338A000E900790E0B40316900782E0B4820F9083
:10339A00078774FFF0A37438F0A3742B800D90078D
:1033AA008774FFF0A37438F0A3742DF090078CE4AF
:1033BA00F0A37402F080031239DB90078EE06404F4
:1033CA006010123A5890078E7401F0E490078AF060
:0333DA00A3F0223B
:1035C500900780E07041900782E0B4021DE59620E7
:1035D500E7FB75960E759702E59620E7FB75961441
:1035E500759780E490078FF08020E59620E7FB75BE
:1035F500960E759702E59620E7FB7596117597402F
:10360500E4900790F080031239DBE59620E7FB751F
:08361500960EE4F597023A5805
:1026D800900796E020E00302276E900794E030E030
:1026E8000854FEF04402F08007900794E054FDF08F
:1026F800E59620E7FB75960E759702E59620E7FBB1
:10270800759614759710E59620E7FB7596117597E1
:1027180008E59620E7FB759694E59620E7FB900779
:102728009DE597F0E020E4E9E59620E7FB7596142F
:10273800759710E59620E7FB759691E59620E7FBDF
:1027480090079DE597F0E020E3E9E59620E7FB7523
:1027580096117597089007927408F0900794E0FF17
:1027680030E1034401F0900795E0FCA3E0FD30E17F
:102778000D9007867406F0900792E04410F0ED3053
:10278800E20D9007867404F0900792E04420F0E58B
:0D2798009620E7FB75960EE4F597023A587F
:10361D00900780E07040900782E0B4021BE5962091
:10362D00E7FB75960E759702E59620E7FB759614E8
:10363D0075972090078F8019E59620E7FB75960EFC
:10364D00759702E59620E7FB759611759710900713
:10365D00907403F080031239DBE59620E7FB759635
:07366D000EE4F597023A5844
:10397D00E59620E7FBE4F596900780E0FFF597EFDD
:10398D0090078660057403F080037402F0023A58C4
:1029DB00900781E024FE601B14603B240270699019
:1029EB0007877401F0A37407F0A37440F0900740BD
:1029FB00E0804A9007877401F0A37407F0A3745228
:102A0B00F0900755E0FE900754E07C002400FFECAB
:102A1B003E90078C802C900780E075F003A4247205
:102A2B00F582E43407F583E0FBA3E0FAA3E0F99029
:102A3B000787EBF0A3EAF0A3E9F0120F55FF90071D
:102A4B008CE4F0A3EFF080031239DB90078CE0FEEF
:102A5B00A3E0FF900797E0FCA3E0FDC39FEC9E5023
:102A6B000890078CECF0A3EDF090078EE064046007
:102A7B0010123A5890078E7401F0E490078AF0A375
:022A8B00F02237
:10376B00900786E0FFB40414A374FFF0A37438F041
:10377B00A3742BF090078CE4F0A304F0EFB40316C2
:10378B0090078774FFF0A37438F0A3742DF09007A3
:10379B008CE4F0A304F0123A5890078E7401F0E415
:0737AB0090078AF0A3F02251
:10356B00900780E0D394004042900792E04440F0F3
:10357B009007867404F0E490078FF0A3F0E5962093
:10358B00E7FB75960E759702E59620E7FB7596128D
:10359B00759784E59620E7FB759615759780E596EC
:1035AB0020E7FB75960EE4F597800C900786740365
:0A35BB00F090078FF0A3F0023A58D9
:10390E0090078774FFF0A37438F0A3742DF090071E
:10391E008CE4F0A304F0123A5890078E7401F0E490
:07392E0090078AF0A3F022CC
:103A580090078EE06404600BE59620E7FB759611ED
:043A680075974022EC
:03004300021DA5F6
:101DA500C0E0C0F0C083C082C0D075D000C000C004
:101DB50001C002C003C004C005C006C0079007A14A
:101DC500E596F0E59620E7FB75968EE59620E7FB10
:101DD5009007A2E597F0E59620E7FB759686E596D0
:101DE50020E7FB900799E597F0E030E30BE59620B7
:101DF500E7FB75960B759707900799E030E203129C
:101E050038E7900799E030E014900786E0FF640416
:101E15006004EFB40607900792E04480F0E5962051
:101E2500E7FB759682E59620E7FB900799E597F025
:101E3500E030E0031211DF900799E030E22AE596E1
:101E450020E7FB75960E759702E59620E7FB7596DC
:101E550091E59620E7FB90079AE597F0E05403702B
:101E650007900792E04402F0E59620E7FB7596841B
:101E7500E59620E7FB900799E597F0E030E229E544
:101E85009620E7FB75960E759702E59620E7FB759C
:101E95009694E59620E7FB90079AE597F0E030E009
:101EA50007900792E04404F0E59620E7FB75960E4F
:101EB5009007A2E0F597E59620E7FB9007A1E59648
:101EC500F0E59620E7FB900794E030E00990079253
:101ED500E0600312395BD007D006D005D004D003EB
:101EE500D002D001D000D0D0D082D083D0F0D0E0C5
:011EF50032BA
:10382F00E5B964E0602E53A90FC0A943B280E5A9A2
:10383F005407D394014003E4F5A9E4F5B943B980E3
:10384F00E4D5E0FD43B9C0E5B930E5FBD0E0B40203
:08385F000343A90253A90F2243
:1038940053D7BF43C910E5A95402900791F043B22E
:1038A4008075A910E4F5B943B2200012382F9007AF
:0B38B40091E042A953C9EF43D7402226
:0E3A9000900792E0FFE4F022900792E0FF2200
:102A8D00900786E0B40606EDD3944040037F002204
:102A9D00E59620E7FB75960E759702E59620E7FB08
:102AAD00759694E59620E7FB90079CE597F0E0205E
:102ABD00E003022B39E59620E7FB759696E5962007
:102ACD00E7FB900793E597F0E0FFEDC39F5006AE4F
:102ADD0005AF068000900793EFF053E6FDE59620D5
:102AED00E7FB7596E2900793E06025FEEB600630FC
:102AFD00E70F7F0022E59620E7FBA79709DEF6801A
:102B0D000F89828A83E59620E7FBE597F0A3DEF532
:102B1D00E59620E7FBE4F596E59620E7FB75961420
:0F2B2D00E4F59743E602900793E0FF227F002232
:1024DE00900786E0B4060DED4C6009D3ED9400EC48
:1024EE0094104004E4FEFF2253E6FDE490079FF0B3
:1024FE00A3F090079BF089828A83C083C0829007E5
:10250E009BE030E0030225DFE59620E7FB75960E93
:10251E00759702E59620E7FB759691E59620E7FB09
:10252E0090079BE597F0E030E020E59620E7FB75FD
:10253E00960EE4F597E59620E7FB759691E59620C5
:10254E00E7FB90079BE597F080B4C3ED9440EC94C5
:10255E00009007A0E0401B2440F090079FE034005D
:10256E00F074C02DFD74FF3CFCE490079BF07840A6
:10257E0080132DF090079FE03CF090079B7401F0C4
:10258E00A805E4FCFDE59620E7FB759622D082D0E7
:10259E0083E8602BEB601130E71AE59620E7FBE449
:1025AE0093F597A3D8F48017E59620E7FB87970954
:1025BE00D8F6800BE59620E7FBE0F597A3D8F5C09B
:1025CE0083C082E59620E7FB75961175970102256B
:1025DE000CD082D08343E60290079FE0FEA3E0FF7B
:0125EE0022CA
:103A1300900794E04401F0900792E0600BE5962054
:093A2300E7FB75960B75970F2265
:0C3A9E00E59620E7FB75960F75978922CE
:10395B00D007D007D007D006D005D004D003D002B3
:10396B00D001D000D0D0D082D083D0F0D0E00200F4
:02397B008B229D
:100C9A00EC4D6011E8497017ED33EC3304600DE454
:100CAA00FCFFFEFD22E933E8330470F8020E4A1213
:100CBA000E1558046009E4CC248150062850090214
:100CCA000E54284003020E51C0E0EB4A7044B9802A
:100CDA0006D0E0FB020E40EF4E701CBD8008EBFF11
:100CEA00EAFEE9FD80EBE98DF0A4FEE5F0020D8352
:100CFA00E9CDF9EAFEEBFFEF89F0A4FCE5F0CE8935
:100D0A00F0A42EFFE435F0CD89F0A42DFEE435F0F1
:100D1A008067EF4E7005BD80D780C3EF8BF0A4AC1F
:100D2A00F0EE8BF0A42CFCE435F0F8EF8AF0A42C5A
:100D3A00E5F038FCE433CB8DF0A42CFCE5F03BF86D
:100D4A00EE8AF0A42CFCE5F038F8E433CF89F0A45D
:100D5A002CFCE5F038CF3400CE89F0A42FFFE5F063
:100D6A003EFEE433C98DF0A42EFEE5F039CD8AF0BB
:100D7A00A42FFFE5F03EFEE43DFD33D0E0FB500733
:100D8A000BBB000F020E54EC2CFCEF33FFEE33FECC
:060D9A00ED33FD020E2CFA
:100DA00075F020800E75F010800575F0087D007ECE
:100DB000007F003392D530D503121118EC33401068
:100DC000EF33FFEE33FEED33FDEC33FCD5F0ED22D7
:0E0DD000E5F0247EA2D513CC92E7CDCEFF2213
:100DDE00EDD2E7CD33EC3392D524814006E4FFFE0D
:100DEE00FDFC22FCE4CFCECDCC24E0501174FF806C
:100DFE00EDC3CC13CCCD13CDCE13CECF13CF047009
:070E0E00F030D5DE021118DF
:100E1500E9D2E7C933E833F892D5EDD2E7CD33EC23
:070E250033FC5002B2D5229C
:100E2C00EC30E7100FBF000C0EBE00080DBD000427
:100E3C000BEB6014A2D5EB13FCED92E7FD2274FFD3
:100E4C00FCFDFEFF22E480F8A2D574FF13FC7D802C
:030E5C00E480EF40
:03000000022FF7D5
:0C2FF700787FE4F6D8FD75810802303EBA
:100E5F00E709F608DFFA8046E709F208DFFA803E75
:100E6F0088828C83E709F0A3DFFA8032E309F60862
:100E7F00DFFA8078E309F208DFFA807088828C83CA
:100E8F00E309F0A3DFFA806489828A83E0A3F6087E
:100E9F00DFFA805889828A83E0A3F208DFFA804C58
:100EAF0080D280FA80C680D4806980F2803380102F
:100EBF0080A680EA809A80A880DA80E280CA803398
:100ECF0089828A83ECFAE493A3C8C582C8CCC58310
:100EDF00CCF0A3C8C582C8CCC583CCDFE9DEE780E0
:100EEF000D89828A83E493A3F608DFF9ECFAA9F05F
:100EFF00EDFB2289828A83ECFAE0A3C8C582C8CCB5
:100F0F00C583CCF0A3C8C582C8CCC583CCDFEADECD
:100F1F00E880DB89828A83E493A3F208DFF980CC2F
:100F2F0088F0EF60010E4E60C388F0ED2402B40428
:100F3F000050B9F582EB2402B4040050AF232345CF
:060F4F008223900EAF7337
:100F5500BB010689828A83E0225002E722BBFE029A
:090F6500E32289828A83E49322CD
:100F6E00BB010CE58229F582E5833AF583E0225038
:100F7E0006E92582F8E622BBFE06E92582F8E22282
:0D0F8E00E58229F582E5833AF583E493229C
:100F9B00EF8DF0A4A8F0CF8CF0A428CE8DF0A42E6A
:020FAB00FE2224
:100FAD00C5F0F8A3E028F0C5F0F8E58215827002CF
:060FBD001583E038F0226C
:100FC300BB0110E58229F582E5833AF583E0F5F06C
:100FD300A3E0225009E92582F886F008E622BBFE49
:100FE3000AE92582F8E2F5F008E222E5832AF5838F
:080FF300E993F5F0A3E9932254
:100FFB00E88FF0A4CC8BF0A42CFCE98EF0A42CFC95
:10100B008AF0EDA42CFCEA8EF0A4CDA8F08BF0A412
:10101B002DCC3825F0FDE98FF0A42CCD35F0FCEB71
:10102B008EF0A4FEA9F0EB8FF0A4CFC5F02ECD3936
:0F103B00FEE43CFCEAA42DCE35F0FDE43CFC22A3
:10104A0075F008758200EF2FFFEE33FECD33CDCC5D
:10105A0033CCC58233C5829BED9AEC99E5829840E0
:10106A000CF582EE9BFEED9AFDEC99FC0FD5F0D6BD
:10107A00E4CEFBE4CDFAE4CCF9A88222B800C1B9E7
:10108A000059BA002DEC8BF084CFCECDFCE5F0CB25
:10109A00F97818EF2FFFEE33FEED33FDEC33FCEB5E
:1010AA0033FB10D703994004EB99FB0FD8E5E4F919
:1010BA00FA227818EF2FFFEE33FEED33FDEC33FC06
:1010CA00C933C910D7059BE99A4007EC9BFCE99AFA
:1010DA00F90FD8E0E4C9FAE4CCFB2275F010EF2F3F
:1010EA00FFEE33FEED33FDCC33CCC833C810D7073F
:1010FA009BEC9AE899400AED9BFDEC9AFCE899F87A
:0E110A000FD5F0DAE4CDFBE4CCFAE4C8F9220C
:0E111800C3E49FFFE49EFEE49DFDE49CFC22E8
:10112600EB9FF5F0EA9E42F0E99D42F0E89C45F01F
:011136002296
:10113700E8600FECC313FCED13FDEE13FEEF13FF96
:03114700D8F122BA
:10114A00E8600FEFC333FFEE33FEED33FDEC33FC03
:03115A00D8F122A7
:10115D007401FF3395E0FEFDFC080808E2CF2FF285
:10116D0018E2CE3EF218E2CD3DF218E2CC3CF2226E
:0C117D00ECF0A3EDF0A3EEF0A3EFF022E5
:0C118900ECF208EDF208EEF208EFF222A2
:10119500A8828583F0D083D0821211AC1211AC12D3
:1011A50011AC1211ACE473E493A3C583C5F0C583F8
:1011B500C8C582C8F0A3C583C5F0C583C8C582C8A4
:0111C5002207
:1011C600D083D082E493F208740193F208740293F8
:0911D600F208740393F27404732F
:10300300020003E493A3F8E493A34003F68001F2E0
:1030130008DFF48029E493A3F85407240CC8C333CE
:10302300C4540F4420C8834004F456800146F6DF9D
:10303300E4800B0102040810204080903867E47E8E
:10304300019360BCA3FF543F30E509541FFEE49392
:10305300A360010ECF54C025E060A840B8E493A359
:10306300FAE493A3F8E493A3C8C582C8CAC583CA84
:10307300F0A3C8C582C8CAC583CADFE9DEE780BE3C
:013893000034
:00000001FF
