:1031A9005553422044454255470055534220524504
:1031B90041440010C4EA611A03530069006C0069B4
:1031C9000063006F006E0020004C00610062007314
:1031D90000100355005300420020004100500049EF
:1031E900000A0343003500310046000F8001000149
:10335B00012F00013600013B00013D00013E000141
:10336B003C0001330002340000043700000001016F
:08337B0030AA0131550132FFB7
:10338400122DE330B6201227C91231F9121DA012F2
:1033940031F9122A051231F9E4FFFE1234201231F8
:0633A400F912171180DD93
:0133AA002200
:1034AE00E4FDFCC3ED9FEC9E5014E4FBFA0BBB0055
:0E34BE00010AEBF44A70F60DBD00010C80E52A
:0134CC0022DD
:0431F9007F0A7E00CB
:0431FD008E0C8F0D98
:10320100E4F50EF50F30B720E4FFFEC3EF950DEEA8
:10321100950C501EE4FDFC0DBD00010CEDF44C704D
:10322100F60FBF00010E80E31235477F147E0012B6
:1032310034AE050FE50F7002050EC39464E50E94DC
:033241000040C288
:013244002267
:1035470030B60512068E80F87FF47E011234AE3055
:03355700B6FD229C
:10068E0078147C007D007BFF7A3179F87E007F0143
:10069E00120EC3E5367003020859751001E51025D8
:1006AE00E025E02458F582E43402F583E07029E574
:1006BE001025E025E02459F582E43402F583E0FEAE
:1006CE00E51025E025E0245AF582E43402F583E0B6
:1006DE00FDEDFF1234EA803BE51025E025E02458BD
:1006EE00F582E43402F583E064017027E51025E01D
:1006FE0025E02459F582E43402F583E0FEE5102569
:10070E00E025E0245AF582E43402F583E0FDEDFFA6
:10071E001233B50510E510C394104081000000009F
:10072E0000000000000000000000000000000000BB
:10073E007BFF7A3179A9E4F51AF51BF51CF51D74CA
:10074E00FFF51EF51FE4FDFC122A8E90025BE020E1
:10075E00E00302083F751001E51025E025E024585E
:10076E00F582E43402F583E07054E51025E025E0CF
:10077E002459F582E43402F583E0FEE51025E025E8
:10078E00E0245AF582E43402F583E0FDEDFFE51036
:10079E0025E025E0245BF582E43402F583E075F074
:1007AE0024A4FDACF0E51075F011A4FBAAF0751BA6
:1007BE0007751CE0E4F51DF51E1227348067E51061
:1007CE0025E025E02458F582E43402F583E0640147
:1007DE007053E51025E025E02459F582E43402F546
:1007EE0083E0FEE51025E025E0245AF582E434028C
:1007FE00F583E0FDEDFFE51025E025E0245BF582B5
:10080E00E43402F583E075F024A4FDACF0E5107538
:10081E00F011A4FBAAF0751B00751C1F74FFF51DCB
:10082E00F51E1227340510E510C39410500302076D
:10083E006600000000000000000000000000000044
:10084E000000000000E4F5360206A1E53C7003024C
:10085E000915E4F510E510C394404003020904C2E3
:10086E00B0D2B174582510F582E43402F583E0FF5E
:10087E0074592510F582E43402F583E0FD123346F7
:10088E00D2B074582510F582E43402F583E0FF05EA
:10089E0035E535AC3470020534142400F58274004D
:1008AE003CF583EFF074592510F582E43402F5839C
:1008BE00E0FF0535E535AC3470020534142400F53F
:1008CE008274003CF583EFF0E4B53523E534B402D1
:1008DE001E78371210B9122B10900000E533F07FFE
:1008EE00007E007D007C00122B10E4F534F53505FA
:1008FE00100510020863E4F53CFB7A0079147D01C3
:10090E00FC121FDA020859E52F7003020A0D90023D
:10091E005BE070030209C9751004E510C39424400E
:10092E00030209FCC2B0D2B174582510F582E4342A
:10093E0002F583E0FF74592510F582E43402F58345
:10094E00E0FD123346D2B074582510F582E434021D
:10095E00F583E0FF0535E535AC347002053414241B
:10096E0000F58274003CF583EFF074592510F58282
:10097E00E43402F583E0FF0535E535AC347002054D
:10098E0034142400F58274003CF583EFF0E4B535A1
:10099E0023E534B4021E78371210B9122B109000D2
:1009AE0000E533F07F007E007D007C00122B10E40A
:1009BE00F534F53505100510020928751004E510FB
:1009CE00C394245029C2B0D2B174582510F582E4D4
:1009DE003402F583E0FF74592510F582E43402F5F4
:1009EE0083E0FD123346D2B00510051080D0E4F539
:1009FE002FFB7A0079147D01FC121FDA020915E52E
:100A0E003E7003020ABE751004E510C39424400321
:100A1E00020AAD74582510F582E43402F583E070B5
:100A2E002174592510F582E43402F583E0FE745AE0
:100A3E002510F582E43402F583E0FDEDFF1234EA71
:100A4E00805474582510F582E43402F583E0B40125
:100A5E002174592510F582E43402F583E0FE745AB0
:100A6E002510F582E43402F583E0FDEDFF1233B577
:100A7E00802474582510F582E43402F583E0641066
:100A8E0070140000000000000000000000000000D4
:100A9E0000000000000074042510F510020A17E48F
:100AAE00F53EFB7A0079147D01FC121FDA020A0D65
:100ABE00E53B7003020BF1E4F51074002510F5828E
:100ACE00E43402F583E4F00510E510B418EC90025E
:100ADE005FE025E0F51390025DE0FEA3E0FDEEF58C
:100AEE0011EDF51290025CE064017034AF12AE119C
:100AFE001234EAE4F510E510C39513502312355A5B
:100B0E0074002510F582E43402F583E4F0740125B7
:100B1E0010F582E43402F583EFF00510051080D64F
:100B2E00E4F53B7B017A027900E513FD7C00121F90
:100B3E00DA7F647E001234AE7BFF7A3179B3E4F54E
:100B4E001AF51BF51CF51D74FFF51EF51FE4FDFCD3
:100B5E00122A8E90025BE020E003020ABE90026031
:100B6E00E075F024A4FDACF0751B07751CE0E4F5F0
:100B7E001DF51E7B11FAAF12AE11122734E4F510DB
:100B8E00E510C395134003020ABE900260E075F0B3
:100B9E0024A4FDACF0C004C005E510C3132402FF6D
:100BAE00E433FE7C007D11120F2FAA06AB077400F2
:100BBE002510F582E43402F583E0FE74012510F56C
:100BCE0082E43402F583E0FDEDFF751B00751C1FFA
:100BDE0074FFF51DF51ED005D0041227340510053F
:100BEE0010809DE53D6038E4F51074182510F582EF
:100BFE00E43402F583E4F00510E510B440ECE49023
:100C0E000218F0A374DCF0E4A3F0A374B0F0E4F5E2
:0F0C1E003D7B017A0279187D40FC121FDA80C4F9
:010C2D0022A4
:1000460053D9BF75B283E4F5B943B980FF0FBFFF3B
:10005600FC43B9C0E5B930E5FBE4F5A943EF027509
:10006600F1FF75A4FF75A5FF75F2FF75A6FF75AEC6
:10007600FF75F4FF43A717C286C28743E10243E236
:010086004039
:010087002256
:102DE3001200461232CE9031BCE493FE740193FF7D
:102DF3009031BEE493FC740193FD90020774FFF0DD
:102E0300A37431F0A374DAF0A374FFF0A37431F068
:102E1300A374EAF09031F4E49390020DF09031F54D
:102E2300E49390020EF09031F6E493FB74019390D7
:102E3300020FCBF0A3EBF07BFF7A3179C0121B4179
:0C2E430012350475A17075F80F021349D8
:03003D0002330685
:03008B000220EB65
:1020EB00C0E0C0F0C083C082C0D075D000C000C0BB
:0D20FB0001C002C003C004C005C006C0073C
:1021080012357E8F08E50830E27C7B017A02795827
:102118007D401225E1900258E0FFB5300FA3E0B5ED
:10212800310AA3E0B53205753601805AEFB5321190
:10213800900259E0B5310AA3E0B53005753B01803E
:1021480045900258E0B5310FA3E0B5300AA3E0B5D9
:102158003205753D01802F900258E0FFB5300FA37E
:10216800E0B5320AA3E0B53105752F018018EFB547
:102178003211900259E0B5300AA3E0B53105753E39
:10218800018003753C01E50830E70312003DE508CE
:1021980030E603120046E50830E41A15791579A8E7
:1021A8007976000876DB7A007B007C007DAF7E00C4
:1021B8007F00122873E50830E51C05331579157979
:1021C800A87976000876DB7A007B007C007DAF7EFC
:0621D800007F00122873D5
:1021DE00D007D006D005D004D003D002D001D00055
:0B21EE00D0D0D082D083D0F0D0E032FF
:0C351D007FFF1235297FFF1235297FFF48
:093529008FA330FFFDC2FFAFA328
:013532002276
:0A35980075A3FF30FFFDC2FFAFA3D3
:0135A2002206
:022FE400AE0736
:102FE600E4FB12351D12351DC2FAEE4440FF1235C0
:102FF60029AF1DAE1CAD1BAC1A78181210931235F2
:1030060029AF1DAE1CAD1BAC1A78101210931235E9
:1030160029AF1DAE1CAD1BAC1A78081210931235E1
:1030260029AF1D1235297F951235297FFF123529C3
:0E303600BFFF09AE030BEED3946440EFD2FA55
:013044002269
:10247C00E4FEFA75A90375A23BE4FD7FFF12352932
:10248C000DBD64F7E4F51DF51CF51BF51AFF122FB5
:10249C00E4AE070AEAD3940A5003BE01DCE4FAE482
:1024AC00F51DF51CF51BF51A7F37122FE4AE070A44
:1024BC00EAD3946440037F0122BE01E3E4FAF51DE4
:1024CC00F51CF51BF51A7F29122FE4AE070AEAD387
:1024DC00946440037F0122EE70C5EE601FE4FAE4C1
:1024EC00F51DF51CF51BF51A7F01122FE4AE070A3A
:1024FC00EAD3946440037F0122EE70E3E4F51DF50A
:10250C001CF51BF51A7F3B122FE4AE07E4F51D7585
:10251C001C02F51BF51A7F10122FE475A201E4F5CD
:02252C00A9FF05
:01252E00228A
:082EB9008F588E578D568C5581
:102EC100E4FA75A903AF58AE57AD56AC557809125F
:102ED10010A68F1D8E1C8D1B8C1A7F11122FE40AD8
:102EE100EAD3940A40037F0122EF70D9C2FA123566
:102EF10098BFFEFAE4FDFC12359874002DF582743A
:102F0100003CF583EFF00DBD00010CE4B505E8ECE4
:0C2F1100B402E4123522D2FAE4F5A9FF64
:012F1D002291
:082B10008F188E178D168C152D
:102B1800E4FA75A903AF18AE17AD16AC157809120B
:102B280010A68F1D8E1C8D1B8C1A7F18122FE4AED9
:102B3800070AEAD3940A40037F0122EE70D7C2FA4B
:102B48007FFF1235297FFE123529FDFC74002DF513
:102B58008274003CF583E0FF1235290DBD00010C9D
:102B6800E4B505E8ECB402E412351DAE07EE541FD7
:102B780064056003D2FA227FFF123529EF60F8D28C
:052B8800FAE4F5A9FFCD
:012B8D002225
:10356D00E4F912247CEF600809E9D3940340F322B7
:01357D00222B
:10008E00000000182442424242424242241800001C
:10009E00000000107010101010101010107C0000D6
:1000AE000000003C4242420404081020427E000040
:1000BE000000003C42420418040202424438000090
:1000CE00000000040C14242444447E04041E00008A
:1000DE000000007E40404058640202424438000056
:1000EE000000001C24404058644242422418000084
:1000FE000000007E4444080810101010101000007C
:10010E000000003C4242422418244242423C00007D
:10011E000000001824424242261A0202243800002F
:10012E000000001010182828243C444242E700002A
:10013E00000000F8444444784442424244F800002F
:10014E000000003E424280808080804244380000A1
:10015E00000000F8444242424242424244F800004B
:10016E00000000FC424848784848404242FC0000EB
:10017E00000000FC424848784848404040E00000FB
:10018E000000003C44448080808E8444443800004B
:10019E00000000E7424242427E42424242E70000F5
:1001AE000000007C1010101010101010107C0000B9
:1001BE000000003E0808080808080808080888F02B
:1001CE00000000EE444850705048484444EE000091
:1001DE00000000E0404040404040404042FE0000F1
:1001EE00000000EE6C6C6C6C5454545454D60000E9
:1001FE00000000C7626252524A4A4A4646E2000076
:10020E00000000384482828282828282443800005A
:10021E00000000FC424242427C40404040E0000070
:10022E0000000038448282828282B2CA4C380600B4
:10023E00000000FC4242427C4848444442E3000035
:10024E000000003E4242402018040242427C000060
:10025E00000000FE92101010101010101038000048
:10026E00000000E74242424242424242423C00000B
:10027E00000000E7424244242428281810100000F1
:10028E00000000D692929292AAAA6C4444440000B6
:10029E00000000E7422424181818242442E7000026
:1002AE00000000EE444428281010101010380000F2
:1002BE000000007E840408081020204242FC00004A
:1002CE00001E1010101010101010101010101E0024
:1002DE000000404020201010100808040404020200
:1002EE0000780808080808080808080808087800B0
:1002FE00001C2200000000000000000000000000B2
:10030E00000000000000000000000000000000FFE0
:10031E00006010000000000000000000000000005F
:10032E00000000000000003C421E2242423F00003E
:10033E00000000C0404040586442424264580000F1
:10034E00000000000000001C22404040221C000063
:10035E00000000060202021E22424242261B00003C
:10036E00000000000000003C427E4040423C000085
:10037E000000000F1110107E10101010107C0000E5
:10038E00000000000000003E444438403C42423C25
:10039E00000000C04040405C6242424242E7000022
:1003AE00000000303000007010101010107C0000A3
:1003BE000000000C0C00001C040404040404447827
:1003CE00000000C04040404E4850684844EE0000D7
:1003DE00000000701010101010101010107C000093
:1003EE0000000000000000FE4949494949ED0000A7
:1003FE0000000000000000DC6242424242E70000C2
:10040E00000000000000003C42424242423C00001C
:10041E0000000000000000D864424242447840E0F0
:10042E00000000000000001E22424242221E02076F
:10043E0000000000000000EE3220202020F8000016
:10044E00000000000000003E42403C02427C0000E2
:10045E00000000000010107C10101010100C000096
:10046E0000000000000000C642424242463B00002F
:10047E0000000000000000E74224242810100000B5
:10048E0000000000000000D79292AAAA4444000087
:10049E00000000000000006E2418181824760000DA
:1004AE0000000000000000E742242428181010E08D
:1004BE00000000000000007E44081010227E0000A4
:1004CE0000030404040404080404040404040300E4
:1004DE00080808080808080808080808080808088E
:1004EE000060101010101008101010101010600086
:1004FE00304C43000000000000000000000000002F
:10050E0000000000000000000000000000000000DD
:10051E00000000101010101010100000181800002D
:10052E000012362448000000000000000000000009
:10053E00000000242424FE484848FE484848000095
:10054E0000001038545450301814145454381010ED
:10055E0000000044A4A8A8A8541A2A2A2A4400007D
:10056E0000000030484848506EA4948889760000F8
:10057E0000606020C00000000000000000000000CD
:10058E0000020408081010101010100808040200D1
:10059E00004020101008080808080810102040001D
:1005AE00000000001010D63838D6101000000000E1
:1005BE000000000010101010FE10101010000000AF
:1005CE00000000000000000000000000606020C07D
:1005DE0000000000000000007F000000000000008E
:1005EE00000000000000000000000000606000003D
:1005FE0000000102020404080810102020404000F0
:10060E00000000000000181800000000181800007C
:10061E00000000000000001000000000001010207C
:10062E000000000204081020402010080402000000
:10063E00000000000000FE000000FE0000000000B0
:10064E0000000040201008040204081020400000A2
:10065E000000003C42426202040808001818000024
:10066E0000000038445AAAAAAAAAB442443800008C
:10067E00FFFFFFFFFFFFFFFFFFFFFFFFFFFFFFFF7C
:101C7800ED64044C6003021D9975A6FFC2B0C2B1A1
:101C8800FDC2A1EF30E704D2A08002C2A0D2A1EF2A
:101C980025E0FF0DBD08EA75A6FEEB64016005EBC3
:101CA80064037029E4FDC2A1D287D2A0E51625E01D
:101CB800FFE51533FEA2A0E433F582EEF515EF45F6
:101CC80082F516C287D2A10DBD09DB8031EB640213
:101CD8006005EB64047027E4FDC2A1D287D2A0E5B9
:101CE8001625E0FFE51533FEA2A0E433F582EEF5F4
:101CF80015EF4582F516C287D2A10DBD10DBE4FDB4
:101D0800C2A1D287D2A0E51825E0FFE51733FEA2CD
:101D1800A0E433F582EEF517EF4582F518C287D2B5
:101D2800A10DBD08DBE4FDC2A1D287D2A0E925E060
:101D3800FFA2A0E4334FF9C287D2A10DBD08E8E4A1
:101D4800FDC2A1D287D2A0E51B25E0FFA2A0E43303
:101D58004FF51BC287D2A10DBD08E675A6FFC28745
:101D6800D296D2B1D2A1D2A0D2B0BB010CE5164511
:101D780017F519E518F51A8018EB64026008BB031B
:101D8800028003BB040BE518FEE9FDEEF519EDF53D
:071D98001AC287AE19AF1A51
:011D9F002221
:0434EA00AD07AC0678
:1034EE00ECC2B0D296C2B1F5A0C297D2978DA0C24F
:0534FE0097D297D2B047
:0135030022A5
:0A33AB00E5792404F8E6FE08E6FFC9
:0433B500AD07AC06AE
:1033B900ECF52EC2B0D296D2B1F5A0C297D297ED54
:0833C900F5A0C297D297D2B023
:0133D10022D9
:10333100FFAE03EE33333354F84FFFEE25E0FEC406
:053341003354E04BFDD8
:10334600C2B0D296D2B18FA0C297D2978DA0C297A3
:04335600D297D2B088
:01335A002250
:0935A300AD07AC06AF040233468B
:1013490012355AD2857F967E001234AEC2857F78D7
:101359007E001234AED2857F967E001234AE7FD0E5
:101369007E001234EA7F031233B57FEB1234EA7F31
:10137900007E0B1233B57FEC7E001234EA7F4F12E8
:1013890033B57FC71234EA7F0F7E031233B57F016D
:101399007E001234EA7F1C0E1233B57F021E12340E
:1013A900EA7F000E1233B57F031E1234EA7F307EC6
:1013B900101233B57F087E001234EA7408FE123326
:1013C900B57F0C7E001234EAE4FF1233B57F0F12A9
:1013D90034EA7F017E0D1233B57F327E001234AEBE
:1013E9007F107E001234EA7F007E0A1233B57F1126
:1013F9007E001234EA7F417E1B1233B57F327E00B4
:101409001234AE7F127E001234EA7F017E1012334D
:10141900B57F137E001234EA7F4D1233B57F141263
:1014290034EA7F507E4D1233B57F307E001234EAA4
:10143900E4FF1233B57F311234EA7FDB1233B57F13
:10144900321234EAE4FF1233B57F331234EAE4FF8F
:101459001233B57F341234EA7FDB1233B57F35128C
:1014690034EAE4FF1233B57F361234EA7FAF123320
:10147900B57F371234EAE4FF1233B57F381234EA04
:101489007FDB1233B57F391234EAE4FF1233B57FBB
:10149900501234EAE4FF1233B57F511234EA7F0265
:1014A9007E051233B57F527E001234EA7F047E0A2C
:1014B9001233B57F537E001234EA7F067E0412335D
:1014C900B57F547E001234EA7F0A7E041233B57F59
:1014D900557E001234EA7F057E021233B57F567EAF
:1014E900001234EAE4FF1233B57F571234EA7F045D
:1014F9007E061233B57F587E001234EA7F007E07DC
:101509001233B57F597E001234EA7F071233B57F53
:10151900321234AE7F207E001234EAE4FF1233B572
:101529007F211234EAE4FF1233B57F071234EA7FD0
:0D153900177E101233B57F967E000234AE8F
:10285C0015791579A87976000876DB7A007B007CEF
:07286C00007DAF7E007F003C
:1028730015791579A879A60208A60315791579A8FB
:1028830079A60408A60515791579A879A60608A6D8
:10289300077F367E001234EAA87908081233B07F26
:1028A300377E001234EAA8791233B07F387E0012E3
:1028B30034EAE57924061233AF7F397E001234EA15
:1028C3001233AB7F207E001234EAA8791233B07F33
:1028D300217E001234EA1233AB7F227E001234EAE7
:0A28E30075A903E5792408F57922B0
:02342000AC06F8
:103422008C0CEFF912285CC2B0E4FEAD01AF0C12B5
:1034320033460EBEB0F50BBB00010AEB64DC4A70EA
:03344200E8D2B01D
:013445002264
:101DA000750C3A750E02750D49750F01C2B01228F7
:101DB0005CC3EB950DEA9400504BE4F9E9C3950C34
:101DC000500AE4FD7FF81233460980F0E4F9E9C3D4
:101DD000950C500A7D1FE4FF1233460980F0E4F9A8
:101DE000E50C250EFFE433FEE9C39FEE6480F87432
:101DF0008098500A7DE07F071233460980E20BBBD2
:101E000000010A80ACE4FAFBC3EB950DEA940050A4
:101E10004BE4F9E9C3950C500A7DE07F0712334685
:101E20000980F0E4F9E9C3950C500AE4FD7FF8124B
:101E300033460980F0E4F9E50C250EFFE433FEE9B2
:101E4000C39FEE6480F8748098500A7D1FE4FF12EF
:101E500033460980E20BBB00010A80ACE4FAFBE5E3
:101E60000D250FFFE433FEC3EB9FEA9E504BE4F9D0
:101E7000E9C3950C500A7D1FE4FF1233460980F038
:101E8000E4F9E9C3950C500A7DE07F071233460957
:101E900080F0E4F9E50C250EFFE433FEE9C39FEE84
:101EA0006480F8748098500AE4FD7FF81233460984
:0E1EB00080E20BBB00010A80A6D2B0E4F5A9C7
:011EBE002201
:1027C90012285CC2B07EF8E4FC7FF8FD1233467E25
:1027D900077CE07F077DE01233460BBB00010AEB63
:1027E90064AE4A70EAE4FE7C1FFF7D1F123346F592
:1027F90082F5837EF8E4FC7FF8FD123346FAFBE4A8
:10280900FEFCFFFD1233460BBB00010AEB64AE4A26
:1028190070EDE4FE7C1FFF7D1F123346A3E5826441
:10282900DA458370CE7EF8E4FC7FF8FD123346FA70
:10283900FB7E077CE07F077DE01233460BBB00017E
:102849000AEB64AE4A70EAE4FF7D1F123346F5A92C
:02285900D2B0FB
:01285B00225A
:0223C800A90763
:1023CA0012285CC2B0D2B1E4754A97F549F548F5CE
:1023DA0047AF01FCFDFEAB4AAA49A948A847120F1C
:1023EA0057EF2401F542E43EF541E43DF540E43C73
:1023FA00F53FE542254AF546E5413549F545E540CB
:10240A003548F544E53F3547F543AF46AE45AD445B
:10241A00AC43AB42AA41A940A83FC3121082504F15
:10242A00AF42AE41AD40AC3F122EB9E4FBFAC3EA6B
:10243A009402502474002BF58274003AF583E0FF6D
:10244A0074012BF58274003AF583E0FD1233467469
:10245A00022BFBE43AFA80D6E5422401F542E43540
:10246A0041F541E43540F540E4353FF53F809BD2E4
:01247A00B0B1
:01247B00223E
:1015460012285CE4F559F55AE4FDFF123346055AB4
:10155600E55A70020559C39410E559940040E9E430
:10156600F559F55AE4F55BF55CE55AAE597803C3CF
:1015760033CE33CED8F9FFE4FD123346055CE55C85
:101586007002055BC39405E55B940040DC055AE5F3
:101596005A70020559C39420E559940040C60BBB06
:1015A60000010AEB64374A709AE4FAFBE4F559F550
:1015B6005AE4FDFF123346055AE55A70020559C32F
:1015C6009410E559940040E9E4F559F55AE4F55BC1
:1015D600F55CE55A25E0FDE55933FCEDAE047803EC
:1015E600CEC313CE13D8F9FFC007EDAE047805C3FA
:1015F60033CE33CED8F9FDD007123346055CE55C11
:101606007002055BC39405E55B940040C5055AE589
:101616005A70020559C39420E559940040AF0BBB9C
:1016260000010AEB64374A7083E4FAFBE4F559F5E6
:101636005AE4FDFF123346055AE55A70020559C3AE
:101646009410E559940040E9E4F559F55AE4F55B40
:10165600F55CAD5AE4FF123346055CE55C700205A5
:101666005BC39405E55B940040E8055AE55A7002B1
:101676000559C39420E559940040D20BBB00010ADA
:10168600EB64374A70A6E4FAFBE4F559F55AE4FD33
:10169600FF123346055AE55A70020559C39410E500
:1016A60059940040E9E4F559F55AE4F55BF55CE533
:1016B6005A25E0FFE55933FEEF7803CEC313CE1368
:1016C600D8F9FFAE5AEE33333354F84FFFEE25E028
:1016D600FEC43354E0455AFD123346055CE55C70A2
:1016E60002055BC39405E55B940040C3055AE55AC1
:1016F60070020559C39420E559940040AD0BBB0018
:0A170600010AEB64374A7081D2B08B
:0117100022B6
:1021F90012285CE4F55FF560E4FDFF1233460560E3
:10220900E5607002055FC394B0E55F940040E90B97
:10221900BB00010AEB641C4A70D9E4FAFBE4F55DE2
:10222900F55EE4F55FF560EBAE027803C333CE33B8
:10223900CED8F9FFE4FD1233460560E5607002056A
:102249005FC3942CE55F940040DDE4F55FF560EB36
:1022590025E0FDEA33FCEDAE047803CEC313CE13BB
:10226900D8F9FFC007EDAE047805C333CE33CED815
:10227900F9FDD0071233460560E5607002055FC3BA
:10228900942CE55F940040C7E4F55FF560AD03E485
:10229900FF1233460560E5607002055FC3942CE5C3
:1022A9005F940040E8E4F55FF560EB25E0FFEA3371
:1022B900FEEF7803CEC313CE13D8F912333105607C
:1022C900E5607002055FC3942CE55F940040DB056F
:1022D9005EE55E7002055DC39406E55D94005003FA
:1022E90002222B0BBB00010AEB64204A6003022285
:0122F90026BE
:0122FA0022C1
:102B8E0012285CC2B0D2B1E4F563F564E4FDFF1225
:102B9E0033460564E56470020563C394B0E563943F
:102BAE000040E90BBB00010AEB641C4A70D9E4FA41
:102BBE00FBE4F561F562E4F563F564EBAE027803D0
:102BCE00C333CE33CED8F9FFE4FD1233460564E5A8
:102BDE006470020563C394B0E563940040DD056242
:102BEE00E56270020561C39406E561940040C70B6F
:0C2BFE00BB00010AEB64204A70B7D2B0A3
:012C0A0022A7
:1028ED0012285CC2B0D2B1E4F567F568E4FDFF12C1
:1028FD0033460568E56870020567C394B0E56794D3
:10290D000040E90BBB00010AEB641C4A70D9E4FAE4
:10291D00FBE4F565F566E4F567F568EBAE02780363
:10292D00CEC313CE13D8F9FFC007EBAE027805C3A3
:10293D0033CE33CED8F9FDD0071233460568E5689E
:10294D0070020567C394B0E567940040CE0566E557
:10295D006670020565C39403E565940040B80BBB32
:0B296D0000010AEB64404A70A8D2B0E1
:01297800223C
:102F820012285CC2B0D2B1E4F583F582E4FDFF12EF
:102F92003346A3E58264B0458370F10BBB00010A9E
:102FA200EB641C4A70E1E4FAFBE4F575F576E4F5AE
:102FB20083F582AD03E4FF123346A3E58264B04594
:102FC2008370F00576E57670020575C39406E575A3
:102FD200940040DA0BBB00010AEB64204A70CAD2AB
:012FE200B03E
:012FE30022CB
:102C0B0012285CC2B0E4F56BF56CE4FDFF123346A1
:102C1B00056CE56C7002056BC394B0E56B940040DA
:102C2B00E90BBB00010AEB641C4A70D9E4FAFBE424
:102C3B00F569F56AE4F56BF56CEB25E0FFEA33FE1D
:102C4B00EF7803CEC313CE13D8F9123331056CE5ED
:102C5B006C7002056BC394B0E56B940040DB056AA6
:102C6B00E56A70020569C39406E569940040C50BDB
:0C2C7B00BB00010AEB64204A70B5D2B027
:012C8700222A
:102A050012285CC2B0D2B1E4F50CF50DE4FBFAC3B3
:102A1500EA9400500DE4FDFF1233460BBB00010A9A
:102A250080EDE4FAFBE4F50EF50FEBAE027802C398
:102A350033CE33CED8F97803CEC313CE13D8F9FFEE
:102A4500EB25E0FE33333354F84FFFEB25E025E06B
:102A5500C43354E04EFD123346050FE50F700205F1
:102A65000EC3940BE50E940040C00BBB00010AEBAE
:102A750064104A70B0050DE50D7002050CC394DCB9
:082A8500E50C94004086D2B07C
:012A8D002226
:102E4F0012285CC2B0E4F56DF56EE4FBFAE4FDFF09
:102E5F001233460BBB00010AEB64104A70EFE4FA21
:102E6F00FBE4F56FF570EB25E0FFEA33FEEF780337
:102E7F00CEC313CE13D8F91233310570E57070023B
:102E8F00056FC39405E56F940040DB0BBB00010A8F
:102E9F00EB64204A70CB056EE56E7002056DC3942E
:092EAF00DCE56D940040A3D2B0F3
:012EB80022F7
:101A070012285CE4F583F582E4FD7FF8123346A3E0
:101A1700E58264B0458370F00BBB00010AEB641BE1
:101A27004A70E0E4FAFBE4F583F5827DE07F071274
:101A37003346A3E58264B0458370F00BBB00010A0F
:101A4700EB641B4A70E0E4FAFBE4F583F5827D1F43
:101A5700E4FF123346A3E58264B0458370F00BBB05
:101A670000010AEB641B4A70E0E4FAFBE4F583F536
:101A7700827DE07FFF123346A3E58264B045837021
:101A8700F00BBB00010AEB641B4A70E0E4FAFBE4CD
:101A9700F583F5827D1F7FF8123346A3E58264B094
:101AA700458370F00BBB00010AEB641B4A70E0E44E
:101AB700FAFBE4F583F5827DFF7F07123346A3E542
:101AC7008264B0458370F00BBB00010AEB641B4ACC
:101AD70070E0E4FAFBE4F583F5827DFF7FFF1233C4
:101AE70046A3E58264B0458370F00BBB00010AEBA7
:101AF700641B4A70E0E4FAFBE4F583F582E4FDFF3A
:101B0700123346A3E58264B0458370F10BBB000135
:101B17000AEB641B4A70E1E4FAFBE4F583F582E41F
:101B2700FDFF123346A3E58264B0458370F10BBB1A
:091B370000010AEB64044A70E1AC
:011B40002282
:10304500EFC3942050047F5F8050EFC39420400C61
:10305500EFD3942F5006EF2428FF803EEFC3943022
:10306500400CEFD39439500674D02FFF802CEFC35A
:10307500943A400CEFD394405006EF241EFF801A7B
:10308500EFC39441400CEFD3947E5006EF24C9FF63
:0B3095008008EFD3947E40027F5F2292
:10269000FDE43517FC851B25851C26851D27851E19
:0526A00028AB1AAA1985
:0626A500A907AF05AE0419
:1026AB00EB240FFDE43A15791579A879F608A60500
:1026BB00EF2407FDE43EFC122873AF017E00D3EF3D
:1026CB00945FEE940040027F5FEFC4F8540FC8682C
:1026DB00FFEEC454F048FE752AFF752B00752C8E47
:1026EB00EF252CF52CEE352BF52BE4F529AB2A0534
:1026FB002CE52CAA2B7002052B14F9120EE9FBE426
:10270B00FAEBA802088002C333D8FC30E706AF26E9
:10271B00AE258004AF28AE271235A30ABA08E2050E
:08272B0029E529C3941040C503
:012733002283
:102A8E008B158A1689178C188D19AB15AA16A917CE
:102A9E00120EE97003D38001C34066AB150517E52E
:102AAE0017AA167002051614F9120EE9FF12304518
:102ABE00851C25851D26851E27851F28AB1BAA1A5A
:102ACE00AD19AC181226A5D3E51994A7E5189400F4
:102ADE004012E4F518F5197410251BF51BE4351A90
:102AEE00F51A800B74082519F519E43518F518D365
:102AFE00E51B94CBE51A94004090E4F51AF51B8083
:022B0E0089221A
:102734008E158F168C178D188A198B1AD3E5189459
:102744008FE5179400400675170075188FD3E51AA6
:1027540094CBE5199400400CE51A24EFF51AE51919
:1027640034FFF519E515C4540FFF851B25851C2678
:10277400851D27851E28AB1AAA19AD18AC17122679
:10278400A5E515540FFFE5182408122690E515C495
:10279400F854F0C8E516C4540F48540FFFE5182444
:1027A40010122690E516540FFFE5182418FDE435A1
:1027B40017FC851B25851C26851D27851E28AB1A1D
:0527C400AA190226A580
:10355A007B017D047C007F04121C788E778F78E4CF
:03356A00FEFF223F
:10328C008A0C8B0DED2401FBE43C15791579A8799A
:10329C00F608A603AB05AA04EF2401FDE43EFC12DC
:1032AC002873E50CFFAD0D123346E50CFFAD0D1286
:1032BC003346E50CFFAD0D123346E50CFFAD0D02A8
:0232CC00334687
:0C2F1E008E4B8F4C8C4D8D4E8A4F8B508B
:102F2A0015791579A879A65108A652AA4FAB50ACC3
:102F3A004DAD4EAE4BAF4C122873AB50AA4FE55273
:102F4A002401FFE43551FEC3EB9FEA9E5029854CCC
:102F5A0082854B83E54E2401FFE4354DFEC3E582AD
:102F6A009FE5839E500AAF54AE531235A3A380E463
:072F7A000BBB00010A80C738
:012F8100222D
:042C88008E718F7248
:102C8C0075730075740FC3E57494DBE57394005091
:102C9C0027857351857452857153857254AB74AA10
:102CAC00737DAF7C00E4FFFE122F1E74102574F5AB
:102CBC0074E43573F57380CE75730075740FC3E5CA
:102CCC007494AFE573940050277551007552DB85F1
:102CDC007153857254E4FBFAAD74AC73AF74AE737C
:102CEC00122F1E74102574F574E43573F57380CEB1
:012CFC0022B5
:10344600C294C295E4900233F0EF20E704C2B28042
:1034560002D2B2D295EF25E0FFC295900233E00486
:05346600F0E0B408E4F1
:01346B00223E
:102CFD009002341210E500000000C294D2B3E490AB
:102D0D000233F0900233E0FFC3940C5049C295306A
:102D1D00B33AC3740B9FFF74017E00A807088005AA
:102D2D00C333CE33CED8F9FFEE3395E0FDFC9002E0
:102D3D0034E0F8A3E0F9A3E0FAA3E04FFFEA4EFE7A
:102D4D00E94DFDE84CFC9002341210D9D295900259
:102D5D0033E004F080ADD294900234A3A3E0FEA33F
:022D6D00E0FF85
:012D6F002241
:021EBF00AB076F
:101EC100E490021AF0A3F0A3F0D2B590021AE0C395
:101ED100940B502C20B529C294EB04FF1234461206
:101EE1002CFD90021AE025E0241DF582E43402F570
:101EF10083EEF0A3EFF090021AE004F0D29480CBCD
:101F010090021AE07003021FD6E4A3F090021AE0D7
:101F1100F9A3E0C3994003021FC2E4A3F090021B9E
:101F2100E0FF90021AE0C39FFF90021CE0C39F40B4
:101F310003021FB9E0FF25E0241FF582E43402F516
:101F410083E0FCA3E0FDEF25E0241DF582E43402EB
:101F5100F583E0FEA3E0D39DEE9C405390021CE08C
:101F610025E0241DF582E43402F583E0FCA3E0FDC5
:101F7100900218ECF0A3EDF0EF25E0241FF582E4C8
:101F81003402F583E0FEA3E0FF90021CE0FB25E0B4
:101F9100241DF582E43402F583EEF0A3EFF0EB2586
:101FA100E0241FF582E43402F583ECF0A3EDF09018
:101FB100021CE004F0021F1E90021BE004F0021F4D
:101FC1000DE9C31325E0241DF582E43402F583E015
:081FD100FEA3E0FF22E4FEFF85
:011FD90022E5
:101711009002001210E5000000009002041210E592
:10172100000000009002081210E500000000900285
:101731000C1210E5000000009002101210E50000EC
:1017410000009002141210E500000000D2B520B58F
:10175100FD20B6030218AD7F327E001234AE30B5E3
:10176100030218A37FD0121EBFE4FCFD90020812F1
:1017710010D9900208E0FCA3E0FDA3E0FEA3E02461
:10178100BDFFEE34FFFEED34FFFDEC34FFFCE47BE6
:10179100B0FAF9F8120F57E47BA57A02F9F8120FA3
:1017A100E2E4120D347BB87A1E7945783F120C2E93
:1017B100120D729002001210D97F90121EBFE4FC2C
:1017C100FD90020C1210D990020CE0FCA3E0FDA3E5
:1017D100E0FEA3E024A0FFEE34FFFEED34FFFDECBC
:1017E10034FFFCE47BDCFAF9F8120F57E4FB7A03CF
:1017F100F9F8120FE2E4120D347B337A33797378FE
:101801003F120C2E120D729002041210D97F0F7E1E
:10181100001234AE30B50302175FE4FFFEFDFC9009
:101821000200E0F8A3E0F9A3E0FAA3E0FBC3121081
:1018310082500302175FE47FB0FEFDFC900200E0DE
:10184100F8A3A3A3E0121082400302175FE4FFFE96
:10185100FDFC900204E0F8A3E0F9A3E0FAA3E0FBA9
:10186100C3121082500302175FE47FDCFEFDFC907F
:101871000204E0F8A3A3A3E0121082400302175F61
:10188100900200A3A3E0FEA3E0FFC006A3A3A3E090
:10189100FEA3E0FDAC06D0067B007AF812328C0282
:1018A100175F7F327E001234AE021752E4FFFE1240
:0518B100342002175273
:100003001201100100000040C410000000000102B2
:1000130003010902200001010080FA090400000223
:10002300FF000000070502024000000705820240AE
:0A00330000000403090401000000AE
:101B4100900200EEF0A3EFF0900204EBF0A3EAF0B4
:101B5100A3E9F0E4900791F0900791E0FF90000372
:101B610093FE74402FF582E43407F583EEF090077D
:101B710091E004F0E0B412E0E4900791F090079155
:101B8100E0FF90001593FE74522FF582E43407F5BF
:101B910083EEF0900791E004F0E0B420E0900200C1
:101BA100E0FEA3E0900748F0EEA3F0A3EDF0ECA374
:101BB100F090077274FFF0A37400F0A37435F090F5
:101BC1000204E0F9A3E0FAA3E0900775C9F0A3EAE3
:101BD100F0A3E9F0900207E0F9A3E0FAA3E090078F
:101BE10078C9F0A3EAF0A3E9F090020AE0F9A3E0D2
:101BF100FAA3E090077BC9F0A3EAF0A3E9F0900211
:101C01000DE0FFC394FA500590075AEFF090020ED1
:101C1100E0900759F090020FE0FEA3E090074CF02E
:101C2100EEA3F0E59620E7FB759601759708E5961A
:101C310020E7FB75960775970FE59620E7FB7596EC
:101C41000975970EE59620E7FB75960B7597077555
:101C5100D7E012358CE4900793F0900792F090074B
:101C610094F0900786F043E602D2AFE59620E7FBB9
:071C71007596017597012231
:1033D2009007867402F0E59620E7FB7596017597D3
:1033E20001E490078EF0A37403F0A3F0E490079336
:0733F200F090079204F022A5
:10111600E59620E7FB75960EE4F597E59620E7FB46
:10112600759691E59620E7FB90079EE597F0E0FF20
:1011360030E210E59620E7FB759611E4F5979007E7
:101146008EF022EF30E410E59620E7FB75961175D8
:101156009780E490078EF090078EE06003021247B6
:1011660090079EE020E0030212477596204396C042
:10117600E4900791F0E59620E7FB900791E0247E46
:10118600F582E43407F583E597F0900791E004F0E3
:10119600E0B407E1E59620E7FBE4F596900791E0D9
:1011A600247EF582E43407F583E597F0900781E025
:1011B600FE900780E07C002400FFEC3E900795F04F
:1011C600A3EFF0900785E0FE900784E02400FFEC93
:1011D6003E900797F0A3EFF090077FE0B40C005025
:1011E6005D9011EEF82828730212120212170212ED
:1011F6001C02122102124402122602122B0212446F
:1012060002123002123502123A02123F122D70807B
:10121600301230FA802B1222FB80261231528021A6
:1012260012348E801C12252F80171232458012121E
:1012360030A0800D1233F980081235338003123442
:10124600CD90078EE06401600302134890079E74F8
:1012560002F0C390078DE0944090078CE094004024
:1012660061E59620E7FB759620E4900791F09007DC
:1012760091E0FFC394405022900787E0FBA3E0FA79
:10128600A3E0F98F82758300120F02F597E5962089
:10129600E7FB900791E004F080D4900788E475F0AE
:1012A60040120F4190078DE024C0F090078CE03487
:1012B600FFF090078BE02440F090078AE03400F0BE
:1012C6008052E59620E7FB759620E4900791F09012
:1012D6000791E0FFD390078DE09F90078CE0940084
:1012E6004026900787E0FBA3E0FAA3E0F990079178
:1012F600E0F582758300120F02F597E59620E7FB6D
:10130600900791E004F080C790079EE04408F0E45F
:1013160090078EF0900797E0FEA3E0FF90078AE023
:10132600B50611A3E0B5070C90079EE04408F0E46B
:1013360090078EF0E59620E7FB75961190079EE0E4
:03134600F59722F6
:1034CD00E59620E7FB75960EE4F597E59620E7FB6C
:0D34DD0075961175972090078E7404F022EB
:102D700090077EE0247F600714600624027048807C
:102D80002D90078FE0B40309900782E0B40202801F
:102D90000E900790E0B40316900782E0B4820F9083
:102DA000078774FFF0A37400F0A37439800D9007B7
:102DB0008774FFF0A37400F0A3743BF090078CE4D9
:102DC000F0A37402F080031234CD90078EE0640407
:102DD000601012353390078E7401F0E490078AF08A
:032DE000A3F0223B
:1030FA00900780E07041900782E0B4021DE59620B7
:10310A00E7FB75960E759702E59620E7FB75961410
:10311A00759780E490078FF08020E59620E7FB758D
:10312A00960E759702E59620E7FB759611759740FE
:10313A00E4900790F080031234CDE59620E7FB7502
:08314A00960EE4F597023533FF
:1022FB00900796E020E003022391900794E030E0F2
:10230B000854FEF04402F08007900794E054FDF06F
:10231B00E59620E7FB75960E759702E59620E7FB91
:10232B00759614759710E59620E7FB7596117597C2
:10233B0008E59620E7FB759694E59620E7FB90075A
:10234B009DE597F0E020E4E9E59620E7FB75961410
:10235B00759710E59620E7FB759691E59620E7FBC0
:10236B0090079DE597F0E020E3E9E59620E7FB7504
:10237B0096117597089007927408F0900794E0FFF8
:10238B0030E1034401F0900795E0FCA3E0FD30E160
:10239B000D9007867406F0900792E04410F0ED3034
:1023AB00E20D9007867404F0900792E04420F0E56C
:0D23BB009620E7FB75960EE4F5970235338A
:10315200900780E07040900782E0B4021BE5962061
:10316200E7FB75960E759702E59620E7FB759614B8
:1031720075972090078F8019E59620E7FB75960ECC
:10318200759702E59620E7FB7596117597109007E3
:10319200907403F080031234CDE59620E7FB759618
:0731A2000EE4F5970235333E
:10348E00E59620E7FBE4F596900780E0FFF597EFD1
:10349E0090078660057403F080037402F0023533E2
:10252F00900781E024FE601B14603B2402706990C9
:10253F0007877401F0A37407F0A37440F09007406D
:10254F00E0804A9007877401F0A37407F0A37452D8
:10255F00F0900755E0FE900754E07C002400FFEC5C
:10256F003E90078C802C900780E075F003A42472B6
:10257F00F582E43407F583E0FBA3E0FAA3E0F990DA
:10258F000787EBF0A3EAF0A3E9F0120EE9FF90073B
:10259F008CE4F0A3EFF080031234CD90078CE0FEB3
:1025AF00A3E0FF900797E0FCA3E0FDC39FEC9E50D4
:1025BF000890078CECF0A3EDF090078EE0640460B8
:1025CF001012353390078E7401F0E490078AF0A350
:0225DF00F022E8
:10324500900786E0FFB40414A374FFF0A37400F0A4
:10325500A37439F090078CE4F0A304F0EFB40316DF
:1032650090078774FFF0A37400F0A3743BF09007F8
:103275008CE4F0A304F012353390078E7401F0E46A
:0732850090078AF0A3F0227C
:1030A000900780E0D394004042900792E04440F0C3
:1030B0009007867404F0E490078FF0A3F0E5962063
:1030C000E7FB75960E759702E59620E7FB7596125D
:1030D000759784E59620E7FB759615759780E596BC
:1030E00020E7FB75960EE4F597800C900786740335
:0A30F000F090078FF0A3F0023533D3
:1033F90090078774FFF0A37400F0A3743BF0900763
:103409008CE4F0A304F012353390078E7401F0E4D4
:0734190090078AF0A3F022E6
:1035330090078EE06404600BE59620E7FB75961117
:043543007597402216
:030043000218B6EA
:1018B600C0E0C0F0C083C082C0D075D000C000C0F8
:1018C60001C002C003C004C005C006C0079007A13E
:1018D600E596F0E59620E7FB75968EE59620E7FB04
:1018E6009007A2E597F0E59620E7FB759686E596C4
:1018F60020E7FB900799E597F0E030E30BE59620AB
:10190600E7FB75960B759707900799E030E203128F
:1019160033D2900799E030E014900786E0FF640424
:101926006004EFB40607900792E04480F0E5962045
:10193600E7FB759682E59620E7FB900799E597F019
:10194600E030E003121116900799E030E22AE5969E
:1019560020E7FB75960E759702E59620E7FB7596D0
:1019660091E59620E7FB90079AE597F0E05403701F
:1019760007900792E04402F0E59620E7FB7596840F
:10198600E59620E7FB900799E597F0E030E229E538
:101996009620E7FB75960E759702E59620E7FB7590
:1019A6009694E59620E7FB90079AE597F0E030E0FD
:1019B60007900792E04404F0E59620E7FB75960E43
:1019C6009007A2E0F597E59620E7FB9007A1E5963C
:1019D600F0E59620E7FB900794E030E00990079247
:1019E600E0600312346CD007D006D005D004D003D3
:1019F600D002D001D000D0D0D082D083D0F0D0E0B9
:011A060032AD
:1032CE00E5B964E0602E53A90FC0A943B280E5A909
:1032DE005407D394014003E4F5A9E4F5B943B9804A
:1032EE00E4D5E0FD43B9C0E5B930E5FBD0E0B4026A
:0832FE000343A90253A90F22AA
:1033060053D7BF43C910E5A95402900791F043B2C1
:103316008075A910E4F5B943B220001232CE9007A9
:0B33260091E042A953C9EF43D74022B9
:0E357E00900792E0FFE4F022900792E0FF2217
:1025E100900786E0B40606EDD3944040037F0022B5
:1025F100E59620E7FB75960E759702E59620E7FBB9
:10260100759694E59620E7FB90079CE597F0E0200E
:10261100E00302268DE59620E7FB759696E5962068
:10262100E7FB900793E597F0E0FFEDC39F5006AEFF
:1026310005AF068000900793EFF053E6FDE5962085
:10264100E7FB7596E2900793E06025FEEB600630AC
:10265100E70F7F0022E59620E7FBA79709DEF680CA
:102661000F89828A83E59620E7FBE597F0A3DEF5E3
:10267100E59620E7FBE4F596E59620E7FB759614D1
:0F268100E4F59743E602900793E0FF227F0022E3
:101FDA00900786E0B4060DED4C6009D3ED9400EC51
:101FEA0094104004E4FEFF2253E6FDE490079FF0BC
:101FFA00A3F090079BF089828A83C083C0829007EE
:10200A009BE030E0030220DBE59620E7FB75960EA5
:10201A00759702E59620E7FB759691E59620E7FB12
:10202A0090079BE597F0E030E020E59620E7FB7506
:10203A00960EE4F597E59620E7FB759691E59620CE
:10204A00E7FB90079BE597F080B4C3ED9440EC94CE
:10205A00009007A0E0401B2440F090079FE0340066
:10206A00F074C02DFD74FF3CFCE490079BF07840AF
:10207A0080132DF090079FE03CF090079B7401F0CD
:10208A00A805E4FCFDE59620E7FB759622D082D0F0
:10209A0083E8602BEB601130E71AE59620E7FBE452
:1020AA0093F597A3D8F48017E59620E7FB8797095D
:1020BA00D8F6800BE59620E7FBE0F597A3D8F5C0A4
:1020CA0083C082E59620E7FB759611759701022079
:1020DA0008D082D08343E60290079FE0FEA3E0FF88
:0120EA0022D3
:10350400900794E04401F0900792E0600BE5962068
:09351400E7FB75960B75970F2279
:0C358C00E59620E7FB75960F75978922E5
:10346C00D007D007D007D006D005D004D003D002A7
:10347C00D001D000D0D0D082D083D0F0D0E00200E8
:02348C008B2291
:100C2E00EC4D6011E8497017ED33EC3304600DE4C0
:100C3E00FCFFFEFD22E933E8330470F8020DDE12EC
:100C4E000DA958046009E4CC2481500628500902ED
:100C5E000DE8284003020DE5C0E0EB4A7044B98070
:100C6E0006D0E0FB020DD4EF4E701CBD8008EBFFEA
:100C7E00EAFEE9FD80EBE98DF0A4FEE5F0020D172A
:100C8E00E9CDF9EAFEEBFFEF89F0A4FCE5F0CE89A1
:100C9E00F0A42EFFE435F0CD89F0A42DFEE435F05E
:100CAE008067EF4E7005BD80D780C3EF8BF0A4AC8C
:100CBE00F0EE8BF0A42CFCE435F0F8EF8AF0A42CC7
:100CCE00E5F038FCE433CB8DF0A42CFCE5F03BF8DA
:100CDE00EE8AF0A42CFCE5F038F8E433CF89F0A4CA
:100CEE002CFCE5F038CF3400CE89F0A42FFFE5F0D0
:100CFE003EFEE433C98DF0A42EFEE5F039CD8AF028
:100D0E00A42FFFE5F03EFEE43DFD33D0E0FB50079F
:100D1E000BBB000F020DE8EC2CFCEF33FFEE33FEA5
:060D2E00ED33FD020DC0D3
:100D340075F020800E75F010800575F0087D007E3A
:100D4400007F003392D530D503121074EC33401079
:100D5400EF33FFEE33FEED33FDEC33FCD5F0ED2243
:0E0D6400E5F0247EA2D513CC92E7CDCEFF227F
:100D7200EDD2E7CD33EC3392D524814006E4FFFE79
:100D8200FDFC22FCE4CFCECDCC24E0501174FF80D8
:100D9200EDC3CC13CCCD13CDCE13CECF13CF047075
:070DA200F030D5DE021074F1
:100DA900E9D2E7C933E833F892D5EDD2E7CD33EC90
:070DB90033FC5002B2D52209
:100DC000EC30E7100FBF000C0EBE00080DBD000494
:100DD0000BEB6014A2D5EB13FCED92E7FD2274FF40
:100DE000FCFDFEFF22E480F8A2D574FF13FC7D8099
:030DF000E480EFAD
:0300000002297959
:0C297900787FE4F6D8FD7581790229C052
:100DF300E709F608DFFA8046E709F208DFFA803EE2
:100E030088828C83E709F0A3DFFA8032E309F608CE
:100E1300DFFA8078E309F208DFFA807088828C8336
:100E2300E309F0A3DFFA806489828A83E0A3F608EA
:100E3300DFFA805889828A83E0A3F208DFFA804CC4
:100E430080D280FA80C680D4806980F2803380109B
:100E530080A680EA809A80A880DA80E280CA803304
:100E630089828A83ECFAE493A3C8C582C8CCC5837C
:100E7300CCF0A3C8C582C8CCC583CCDFE9DEE7804C
:100E83000D89828A83E493A3F608DFF9ECFAA9F0CB
:100E9300EDFB2289828A83ECFAE0A3C8C582C8CC21
:100EA300C583CCF0A3C8C582C8CCC583CCDFEADE3A
:100EB300E880DB89828A83E493A3F208DFF980CC9C
:100EC30088F0EF60010E4E60C388F0ED2402B40495
:100ED3000050B9F582EB2402B4040050AF2323453C
:060EE3008223900E437310
:100EE900BB010689828A83E0225002E722BBFE0207
:090EF900E32289828A83E493223A
:100F0200BB010CE58229F582E5833AF583E02250A4
:100F120006E92582F8E622BBFE06E92582F8E222EE
:0D0F2200E58229F582E5833AF583E4932208
:100F2F00EF8DF0A4A8F0CF8CF0A428CE8DF0A42ED6
:020F3F00FE2290
:100F4100C5F0F8A3E028F0C5F0F8E582158270023B
:060F51001583E038F022D8
:100F5700E88FF0A4CC8BF0A42CFCE98EF0A42CFC39
:100F67008AF0EDA42CFCEA8EF0A4CDA8F08BF0A4B7
:100F77002DCC3825F0FDE98FF0A42CCD35F0FCEB16
:100F87008EF0A4FEA9F0EB8FF0A4CFC5F02ECD39DB
:0F0F9700FEE43CFCEAA42DCE35F0FDE43CFC2248
:100FA60075F008758200EF2FFFEE33FECD33CDCC02
:100FB60033CCC58233C5829BED9AEC99E582984085
:100FC6000CF582EE9BFEED9AFDEC99FC0FD5F0D662
:100FD600E4CEFBE4CDFAE4CCF9A88222B800C1B98C
:100FE6000059BA002DEC8BF084CFCECDFCE5F0CBCA
:100FF600F97818EF2FFFEE33FEED33FDEC33FCEB03
:1010060033FB10D703994004EB99FB0FD8E5E4F9BD
:10101600FA227818EF2FFFEE33FEED33FDEC33FCAA
:10102600C933C910D7059BE99A4007EC9BFCE99A9E
:10103600F90FD8E0E4C9FAE4CCFB2275F010EF2FE3
:10104600FFEE33FEED33FDCC33CCC833C810D707E3
:101056009BEC9AE899400AED9BFDEC9AFCE899F81E
:0E1066000FD5F0DAE4CDFBE4CCFAE4C8F922B1
:0E107400C3E49FFFE49EFEE49DFDE49CFC228D
:10108200EB9FF5F0EA9E42F0E99D42F0E89C45F0C4
:01109200223B
:10109300E8600FECC313FCED13FDEE13FEEF13FF3B
:0310A300D8F1225F
:1010A600E8600FEFC333FFEE33FEED33FDEC33FCA8
:0310B600D8F1224C
:1010B9007401FF3395E0FEFDFC080808E6CF2FF622
:1010C90018E6CE3EF618E6CD3DF618E6CC3CF622FB
:0C10D900ECF0A3EDF0A3EEF0A3EFF0228A
:1010E500A8828583F0D083D0821210FC1210FC12E6
:1010F50010FC1210FCE473E493A3C583C5F0C5830B
:10110500C8C582C8F0A3C583C5F0C583C8C582C854
:0111150022B7
:10298500023384E493A3F8E493A34003F68001F2B1
:1029950008DFF48029E493A3F85407240CC8C33353
:1029A500C4540F4420C8834004F456800146F6DF22
:1029B500E4800B010204081020408090335BE47E24
:1029C500019360BCA3FF543F30E509541FFEE49317
:1029D500A360010ECF54C025E060A840B8E493A3DE
:1029E500FAE493A3F8E493A3C8C582C8CAC583CA09
:1029F500F0A3C8C582C8CAC583CADFE9DEE780BEC1
:013383000049
:00000001FF
