:10373D00555342204445425547005553422052456A
:10374D0041440010C4EA611A03530069006C00691A
:10375D000063006F006E0020004C0061006200737A
:10376D000010035500530042002000410050004955
:10377D00000A0343003500310046000F80010001AF
:10388900810000810700810C00810E00810F0081F9
:103899000D008104008205000084080000000181F8
:0838A90001AA8102558103FF11
:1000030012340F30B636122B68123643123A8E74FE
:10001300FFFFFE120046123643123A8E122D45128E
:100023003643123A8E121C35123643123A8EE4FFCF
:0D003300FE12004612364312186180C722EB
:1039C300E4FDFCC3ED9FEC9E5014E4FBFA0BBB003B
:0E39D300010AEBF44A70F60DBD00010C80E510
:0139E10022C3
:043643007F017E0085
:073647007859EEF208EFF2E2
:10364E00E408F208F230B721E4FFFED3785AE29F85
:10365E0018E29E401EE4FDFC0DBD00010CEDF44C85
:10366E0070F60FBF00010E80E2123A8E7F147E00BC
:10367E001239C3785CE22401F218E23400F2C30876
:09368E00E2946418E2940040BCCF
:013697002210
:103A8E0030B60512008E80F87FF47E011239C330F5
:033A9E00B6FD2250
:10008E0078617C007DFE7BFF7A37798C7E007F0164
:10009E00120F2E7807E2700302026E785D7401F281
:1000AE00785DE2FFC39410507BEF25E025E024D469
:1000BE00F582E43402F583E07028E2FD25E025E0C8
:1000CE0024D5F582E43402F583E0FEED25E025E04B
:1000DE0024D6F582E43402F583E0FDEDFF1239FFFC
:1000EE00803A785DE225E025E024D4F582E43402FE
:1000FE00F583E0B40126E2FD25E025E024D5F58266
:10010E00E43402F583E0FEED25E025E024D6F58209
:10011E00E43402F583E0FDEDFF123A1F785DE20450
:10012E00F20200AE0000000000000000000000001F
:10013E0000000000000000007BFF7A37793DE47874
:10014E0067F208F208F208F274FF08F208F2E4FD12
:10015E00FC122DE09002D7E020E003020253785DFE
:10016E007401F2785DE2FFC394104003020253EF74
:10017E0025E025E024D4F582E43402F583E07055C1
:10018E00E2FD25E025E024D5F582E43402F583E096
:10019E00FEED25E025E024D6F582E43402F583E079
:1001AE00FDEDFFE2FB25E025E024D7F582E43402E5
:1001BE00F583E075F024A4FDACF0EB75F011A4FB13
:1001CE00AAF078687407F20874E0F2E408F208F214
:1001DE001229548068785DE2FB25E025E024D4F5F1
:1001EE0082E43402F583E064017052E2FD25E025DD
:1001FE00E024D5F582E43402F583E0FEED25E0251A
:10020E00E024D6F582E43402F583E0FDEDFFEB2524
:10021E00E025E024D7F582E43402F583E075F0247E
:10022E00A4FDACF0EB75F011A4FBAAF07868E4F233
:10023E0008741FF274FF08F208F2122954785DE276
:10024E0004F2020171000000000000000000000036
:10025E00000000000000000000E47807F20200A198
:10026E00780DE2700302033AE4785DF2785DE2C342
:10027E0094404003020327C2B0D2B1E2FE24D4F56B
:10028E0082E43402F583E0FF74D52EF582E4340265
:10029E00F583E0FD1238CBD2B0785DE2FF24D4F5C1
:1002AE0082E43402F583E0FE780508E2FD2401F2D3
:1002BE0018E2FC3400F2747C2DF58274003CF58358
:1002CE00EEF074D52FF582E43402F583E0FF08E2F8
:1002DE00FD2401F218E2FC3400F2747C2DF58274D8
:1002EE00003CF583EFF008E2B4002518E2B40220DA
:1002FE00780812115C1231BF7804E290007CF07F16
:10030E00007E007D007C001231BFE47805F208F219
:10031E00785DE22402F202027AE4780DF27BFE7A34
:10032E000079617D01FC12250B02026E7800E270ED
:10033E00030204479002D7E070030203FD785D7458
:10034E0004F2785DE2C394244003020434C2B0D2B6
:10035E00B1E2FE24D4F582E43402F583E0FF74D5D5
:10036E002EF582E43402F583E0FD1238CBD2B0785C
:10037E005DE2FF24D4F582E43402F583E0FE7805D5
:10038E0008E2FD2401F218E2FC3400F2747C2DF533
:10039E008274003CF583EEF074D52FF582E43402BE
:1003AE00F583E0FF08E2FD2401F218E2FC3400F2CE
:1003BE00747C2DF58274003CF583EFF008E2B400F6
:1003CE002518E2B40220780812115C1231BF7804AD
:1003DE00E290007CF07F007E007D007C001231BF39
:1003EE00E47805F208F2785DE22402F20203507816
:1003FE005D7404F2785DE2C39424502AC2B0D2B187
:10040E00E2FE24D4F582E43402F583E0FF74D52EA7
:10041E00F582E43402F583E0FD1238CBD2B0785D7C
:10042E00E22402F280CEE47800F27BFE7A0079615B
:10043E007D01FC12250B02033A780FE270030204D1
:10044E00FE785D7404F2785DE2FFC39424400302EB
:10045E0004EB74D42FF582E43402F583E07020E2CD
:10046E00FD24D5F582E43402F583E0FE74D62DF535
:10047E0082E43402F583E0FDEDFF1239FF805578FA
:10048E005DE224D4F582E43402F583E0B40120E287
:10049E00FD24D5F582E43402F583E0FE74D62DF505
:1004AE0082E43402F583E0FDEDFF123A1F802578D9
:1004BE005DE224D4F582E43402F583E06410701416
:1004CE00000000000000000000000000000000001E
:1004DE0000000000785DE22404F2020454E4780F78
:1004EE00F27BFE7A0079617D01FC12250B02044736
:1004FE00780CE27003020653E4785DF2785DE2FF59
:10050E00C394185011747C2FF582E43402F583E401
:10051E00F0E204F280E69002DBE025E07860F290F3
:10052E0002D9E0FEA3E0FDEE785EF2ED08F2900255
:10053E00D8E06401703C18E2FE08E2FF1239FFE4D5
:10054E00785DF27860E2FF785DE2C39F5024123A44
:10055E0064785DE2FD247CF582E43402F583E4F0F8
:10056E00747D2DF582E43402F583EFF0E22402F27D
:10057E0080D1E4780CF27B017A02797C7860E2FD1E
:10058E007C0012250B7F647E001239C37BFF7A3705
:10059E007947E47867F208F208F208F274FF08F27D
:1005AE0008F2E4FDFC122DE09002D7E020E00302F9
:1005BE0004FE9002DCE075F024A4FDACF0785EE25F
:1005CE00FE08E2FF78687407F20874E0F2E408F2BD
:1005DE0008F27B11FA122954E4785DF27860E2FF9A
:1005EE00785DE2F9C39F40030204FE9002DCE075E1
:1005FE00F024A4FDACF0C004C005E9C3132402FF2F
:10060E00E433FE7C007D11120F9AAA06AB07747CB0
:10061E0029F582E43402F583E0FE747D29F582E447
:10062E003402F583E0FDEDFF7868E4F208741FF202
:10063E0074FF08F208F2D005D004122954785DE256
:10064E002402F28097780EE26040E4785DF2785DE5
:10065E00E2FFC39440501174942FF582E43402F5F6
:10066E0083E4F0E204F280E6E4900294F0A374A036
:10067E00F0E4A3F0A37480F0E4780EF27B017A022A
:0A068E0079947D40FC12250B80BB1F
:01069800223F
:1037D40053D9BF75B283E4F5B943B980FF0FEFB491
:1037E400FFFB43B9C0E5B930E5FBE4F5A943EF02BB
:1037F40075F1FF75A4FF75A5FF75F2FF75A6FF753A
:10380400AEFF75F4FF43A717C286C28743E10243A4
:02381400E24090
:01381600228F
:10340F001237D4123851903750E493FE740193FF62
:10341F00903752E493FC740193FD90028374FFF094
:10342F00A37437F0A3746EF0A374FFF0A37437F096
:10343F00A3747EF0903788E493900289F0903789D7
:10344F00E49390028AF090378AE493FB740193908F
:10345F00028BCBF0A3EBF07BFF7A377954122191DB
:0C346F00123A3575A17075F80F021F109D
:030040000238E2A1
:03008B00022056FA
:10205600C0E0C0F0C083C082C0D075D000C000C050
:0D20660001C002C003C004C005C006C007D1
:10207300123AB27856EFF220E20302211D7B017A75
:102083000279D47D40122AB97801E2FF9002D4E0AC
:10209300FEB5071408E2FDA3E0B5050C08E2FDA3B5
:1020A300E0B505047807806F7803E2FDB5061318E1
:1020B300E2FE9002D5E0B50609A3E0B50704780C6B
:1020C30080557802E2FF9002D4E0B5071118E2FED2
:1020D300A3E0B50609A3E0B50504780E80397801BD
:1020E300E2FE9002D4E0FDB506127803E2FCA3E021
:1020F300B50409A3E0B507047800801B7803E2B5B3
:1021030005139002D5E0B5060C18E2FFA3E0B5076E
:1021130004780F8002780D7401F27856E230E703F9
:102123001200407856E230E6031237D47856E23094
:10213300E41B15081508A808E4F208749FF27A0056
:102143007B007C007D7F7E007F00122CC37856E2EB
:1021530030E5207804E204F215081508A808E4F233
:1021630008749FF27A007B007C007D7F7E007F00F5
:03217300122CC368
:10217600D007D006D005D004D003D002D001D000BD
:0B218600D0D0D082D083D0F0D0E03267
:0C3A4E007FFF123A5A7FFF123A5A7FFFA6
:093A5A008FA330FFFDC2FFAFA3F2
:013A63002240
:0A3ACC0075A3FF30FFFDC2FFAFA39A
:013AD60022CD
:0232B400AE0763
:1032B600E4FB123A4E123A4EC2FAEE4440FF123A7C
:1032C6005A7867E2FC08E2FD08E2FE08E2FF781899
:1032D600121136123A5A7867E2FC08E2FD08E2FE5D
:1032E60008E2FF7810121136123A5A7867E2FC08A3
:1032F600E2FD08E2FE08E2FF7808121136123A5A99
:103306007867080808E2FF123A5A7F95123A5A7F00
:10331600FF123A5ABFFF09AE030BEED3946440EF97
:02332600D2FAD9
:013328002282
:10289D00E4FEFA75A90375A23BE4FD7FFF123A5AD7
:1028AD000DEDB464F678671211C500000000E4FF69
:1028BD001232B4AE070AEAD3940A5004EEB401D929
:1028CD00E4FA78671211C5000000007F371232B4A8
:1028DD00AE070AEAD3946440037F0122EEB401E20D
:1028ED00E4FA78671211C5000000007F291232B496
:1028FD00AE070AEAD3946440037F0122EE70C3EE63
:10290D00601FE4FA78671211C5000000007F011204
:10291D0032B4AE070AEAD3946440037F0122EE700D
:10292D00E378671211C5000000007F3B1232B4AE90
:10293D000778671211C5000002007F101232B475BE
:06294D00A201E4F5A9FF60
:012953002261
:05347B00781012118819
:10348000E4FA75A9037810E2FC08E2FD08E2FE0800
:10349000E2FF780912114978671211887F11123200
:1034A000B40AEAD3940A40037F0122EF70D7C2FA2C
:1034B000123ACCBFFEFAE4FDFC123ACC747C2DF536
:1034C0008274003CF583EFF00DBD00010CE4B505FE
:0E34D000E8ECB402E4123A53D2FAE4F5A9FF94
:0134DE0022CB
:0531BF00786212118886
:1031C400E4FA75A9037862E2FC08E2FD08E2FE086D
:1031D400E2FF780912114978671211887F181232B8
:1031E400B4AE070AEAD3940A40037F0122EE70D5F5
:1031F400C2FA7FFF123A5A7FFE123A5AFDFC747CDF
:103204002DF58274003CF583E0FF123A5A0DBD009F
:10321400010CE4B505E8ECB402E4123A4EAE07EE54
:10322400541F64056003D2FA227FFF123A5AEF60FA
:07323400F8D2FAE4F5A9FF4E
:01323B002270
:103AA100E4F912289DEF600809E9D3940340F32259
:013AB10022F2
:10069900000000182442424242424242241800000B
:1006A900000000107010101010101010107C0000C5
:1006B9000000003C4242420404081020427E00002F
:1006C9000000003C4242041804020242443800007F
:1006D900000000040C14242444447E04041E000079
:1006E9000000007E40404058640202424438000045
:1006F9000000001C24404058644242422418000073
:100709000000007E4444080810101010101000006A
:100719000000003C4242422418244242423C00006C
:100729000000001824424242261A0202243800001E
:100739000000001010182828243C444242E7000019
:10074900000000F8444444784442424244F800001E
:100759000000003E42428080808080424438000090
:10076900000000F8444242424242424244F800003A
:10077900000000FC424848784848404242FC0000DA
:10078900000000FC424848784848404040E00000EA
:100799000000003C44448080808E8444443800003A
:1007A900000000E7424242427E42424242E70000E4
:1007B9000000007C1010101010101010107C0000A8
:1007C9000000003E0808080808080808080888F01A
:1007D900000000EE444850705048484444EE000080
:1007E900000000E0404040404040404042FE0000E0
:1007F900000000EE6C6C6C6C5454545454D60000D8
:10080900000000C7626252524A4A4A4646E2000064
:100819000000003844828282828282824438000049
:10082900000000FC424242427C40404040E000005F
:1008390000000038448282828282B2CA4C380600A3
:10084900000000FC4242427C4848444442E3000024
:100859000000003E4242402018040242427C00004F
:10086900000000FE92101010101010101038000037
:10087900000000E74242424242424242423C0000FA
:10088900000000E7424244242428281810100000E0
:10089900000000D692929292AAAA6C4444440000A5
:1008A900000000E7422424181818242442E7000015
:1008B900000000EE444428281010101010380000E1
:1008C9000000007E840408081020204242FC000039
:1008D900001E1010101010101010101010101E0013
:1008E90000004040202010101008080404040202EF
:1008F900007808080808080808080808080878009F
:10090900001C2200000000000000000000000000A0
:10091900000000000000000000000000000000FFCF
:10092900006010000000000000000000000000004E
:10093900000000000000003C421E2242423F00002D
:10094900000000C0404040586442424264580000E0
:10095900000000000000001C22404040221C000052
:10096900000000060202021E22424242261B00002B
:10097900000000000000003C427E4040423C000074
:100989000000000F1110107E10101010107C0000D4
:10099900000000000000003E444438403C42423C14
:1009A900000000C04040405C6242424242E7000011
:1009B900000000303000007010101010107C000092
:1009C9000000000C0C00001C040404040404447816
:1009D900000000C04040404E4850684844EE0000C6
:1009E900000000701010101010101010107C000082
:1009F90000000000000000FE4949494949ED000096
:100A090000000000000000DC6242424242E70000B0
:100A1900000000000000003C42424242423C00000B
:100A290000000000000000D864424242447840E0DF
:100A3900000000000000001E22424242221E02075E
:100A490000000000000000EE3220202020F8000005
:100A5900000000000000003E42403C02427C0000D1
:100A6900000000000010107C10101010100C000085
:100A790000000000000000C642424242463B00001E
:100A890000000000000000E74224242810100000A4
:100A990000000000000000D79292AAAA4444000076
:100AA900000000000000006E2418181824760000C9
:100AB90000000000000000E742242428181010E07C
:100AC900000000000000007E44081010227E000093
:100AD90000030404040404080404040404040300D3
:100AE900080808080808080808080808080808087D
:100AF9000060101010101008101010101010600075
:100B0900304C43000000000000000000000000001D
:100B190000000000000000000000000000000000CC
:100B2900000000101010101010100000181800001C
:100B390000123624480000000000000000000000F8
:100B4900000000242424FE484848FE484848000084
:100B590000001038545450301814145454381010DC
:100B690000000044A4A8A8A8541A2A2A2A4400006C
:100B790000000030484848506EA4948889760000E7
:100B890000606020C00000000000000000000000BC
:100B990000020408081010101010100808040200C0
:100BA900004020101008080808080810102040000C
:100BB900000000001010D63838D6101000000000D0
:100BC9000000000010101010FE101010100000009E
:100BD900000000000000000000000000606020C06C
:100BE90000000000000000007F000000000000007D
:100BF900000000000000000000000000606000002C
:100C090000000102020404080810102020404000DE
:100C1900000000000000181800000000181800006B
:100C2900000000000000001000000000001010206B
:100C390000000002040810204020100804020000EF
:100C4900000000000000FE000000FE00000000009F
:100C59000000004020100804020408102040000091
:100C69000000003C42426202040808001818000013
:100C790000000038445AAAAAAAAAB442443800007B
:100C8900FFFFFFFFFFFFFFFFFFFFFFFFFFFFFFFF6B
:0438B100825400003D
:041411007862EFF21C
:10141500ED64086003021503C2B0D296C2B1E2F5CD
:10142500A0C297D297D2B0E4F5A675F3FF75A0FFD9
:10143500C2B0D2B1D297C2960000000000000000F1
:10144500D28700000000AFA07865F208EFF2C287EE
:1014550000000000D29600000000C29600000000C7
:1014650000000000D28700000000A9A0C28700008C
:101475000000D29600000000C296000000000000A7
:101485000000D287000000007869E5A0F2C287005D
:10149500000000D2960000000000000000C2960087
:1014A50000000000000000D28700000000AAA0C2D2
:1014B5008700000000D2960000000000000000D266
:1014C50096000000000000000075A6FFEBB4010BBC
:1014D5007866E2FEE9F582EE08801EEBB4020CE9BF
:1014E500FE7869E2F582EE7867800EEBB4030F783B
:1014F50069E2FEEAF582EE7867F2E58208F2ED64CC
:10150500044C600302163975A6FF7862E2FFC2B08B
:10151500C2B1E4FDC297EF30E704D2968002C296CD
:10152500D297EF25E0FF0DEDB408E975A6FEEB6453
:10153500016005EB6403702AE4FDC297D287D29659
:101545007864E225E0FF18E233FEA296E433F582E3
:10155500EEF2EF458208F2C287D2970DEDB409DAB3
:101565008032EB64026005EB64047028E4FDC297E9
:10157500D287D2967864E225E0FF18E233FEA29680
:10158500E433F582EEF2EF458208F2C287D2970D79
:10159500EDB410DAE4FDC297D287D2967866E225DB
:1015A500E0FF18E233FEA296E433F582EEF2EF4552
:1015B5008208F2C287D2970DEDB408DAE4FDC2972E
:1015C500D287D296E925E0FFA296E4334FF9C28788
:1015D500D2970DEDB408E7E4FDC297D287D296788D
:1015E50069E225E0FFA296E4334FF2C287D2970D58
:1015F500EDB408E575A6FFC287D296D2B1D297D2CF
:1016050096D2B0EBB401127864E2FE08E24EFF0810
:10161500E208CFF208EFF2801BEB6402600AEBB43C
:1016250003028004EBB4040C7866E2FEE9FDEE08E3
:0D163500F2ED08F2C2877867E2FE08E2FFDE
:011642002285
:0439FF00AD07AC065E
:103A0300ECC2B0D296C2B1F5A0C297D297AF058FE0
:073A1300A0C297D297D2B0C8
:013A1A002289
:043A1B00F808E2FFC6
:023A1F00AC06F3
:103A2100EC787BF2C2B0D296D2B1EFF5A0C297D2B8
:033A310097D2B079
:013A3400226F
:1038B600FFAE03EE33333354F84FFFEE25E0FEC47C
:0538C6003354E04BFD4E
:1038CB00C2B0D296D2B18FA0C297D297AF058FA0BC
:0638DB00C297D297D2B0A3
:0138E10022C4
:093AD700AD07AC06ECFF0238CB90
:101F1000123A64D2857F967E001239C3C2857F78DB
:101F20007E001239C3D2857F967E001239C37FECC2
:101F30007E001239FF7F0C123A1F7FC01239FF7FDB
:101F400024123A1F7F05123A1F7FC11239FF7F0505
:101F5000123A1F7FC51239FF7F42123A1F7F3B1290
:101F60003A1F7FC71239FF7FB7123A1F7F361239E7
:101F7000FF7FC0123A1F7F3A1239FF7F55123A1F76
:101F80007FF21239FF7F01123A1F7FE01239FF7F83
:101F90003F123A1F7F28123A1F7F24123A1F7F2DCB
:101FA000123A1F7F26123A1F7F0B123A1F7F4F12E1
:101FB0003A1F7FC4123A1F7F3A123A1F7F18123A13
:101FC0001F0F123A1F7F08123A1F7F05123A1F1F78
:101FD000123A1F7F01123A1F7FE11239FFE4FF120C
:101FE0003A1F7F17123A1F7F1B123A1F7F12123AB5
:101FF0001F7F19123A1F7F14123A1F7F30123A1FA7
:102000007F3B123A1F7F45123A1F7F07123A1F7F0C
:1020100026123A1F7F2E123A1F7F3A123A1F0F12D2
:102020003A1F7F3E123A1F7FB41239FF7F07123AE0
:102030001F7FB11239FF7F05123A1F7F0A123A1F24
:102040007F111239FF7F781239C37F297E00123940
:06205000FF7F290239FFA9
:102CAA00F215081508A808E4F208749FF27A007B66
:092CBA00007C007D7F7E007F009C
:102CC30015081508A808EAF208EBF215081508A874
:102CD30008ECF208EDF215081508A808EEF208EF63
:102CE300F27F2A7E001239FFA908E3FF123A1FA8D8
:102CF3000808E2FF123A1FA8080808A900E3FF1218
:102D03003A1FA808080808E2FF123A1F7F2B12395E
:102D1300FFE5082404F9E3FF123A1FE5082404122F
:102D23003A1BE5082406F9E3FF123A1FE5082406D7
:102D3300123A1B7F2C1239FF75A903E5082408F505
:022D4300082264
:02004600AC0606
:10004800EC785BF2EF08122CAAC2B0E47859F208F7
:10005800F2E4FBFA785BE2FF08E2FD1238CB0BBB57
:1000680000010AEB64804A70EB785AE22401F21826
:10007800E23400F2C308E294A018E2940040D2D21D
:01008800B0C7
:010089002254
:102B6800122CABC2B079F8E4FE7FF8FD1238CB79AD
:102B7800077EE07F077DE01238CB0BBB00010AEB34
:102B8800647E4A70EAE4F97E1FFF7D1F1238CB7815
:102B980059F208F279F8E4FE7FF8FD1238CBFAFB17
:102BA800E4F9FEFFFD1238CB0BBB00010AEB647E93
:102BB8004A70EDE4F97E1FFF7D1F1238CB785AE288
:102BC8002401F218E23400F2C308E2949E18E29459
:102BD8000040C179F8E4FE7FF8FD1238CBFAFB79A2
:102BE800077EE07F077DE01238CB0BBB00010AEBC4
:102BF800647E4A70EAE4F97E1FFF7D1F1238CBF528
:032C0800A9D2B09E
:012C0B0022A6
:101C35007859742AF2785B7402F2187435F2785C7C
:101C45007401F2C2B0122CAB785AE2FFC3EB9FEAE3
:101C550094005069E4785DF27859E2FF785DE2C35B
:101C65009F500CE4FD7FF81238CBE204F280E9E4E2
:101C7500785DF27859E2FF785DE2C39F500CE4FD90
:101C85007FF81238CBE204F280E9E4785DF2785B04
:101C9500E2FF7859E22FFFE433FE785DE2C39FEE61
:101CA5006480F8748098500EE4FD7FF81238CB7884
:101CB5005DE204F280D80BBB00010A808BE4FAFBDD
:101CC500785AE2FFC3EB9FEA94005069E4785DF22D
:101CD5007859E2FF785DE2C39F500C7DE07F0712E3
:101CE50038CBE204F280E9E4785DF27859E2FF78D6
:101CF5005DE2C39F500C7DE07F071238CBE204F212
:101D050080E9E4785DF2785BE2FF7859E22FFFE441
:101D150033FE785DE2C39FEE6480F8748098500EC0
:101D25007DE07F071238CB785DE204F280D80BBBEB
:101D350000010A808BE4FAFB785CE2FF785AE22F17
:101D4500FFE433FEC3EB9FEA9E5069E4785DF278C9
:101D550059E2FF785DE2C39F500C7D1FE4FF123806
:101D6500CBE204F280E9E4785DF27859E2FF785D30
:101D7500E2C39F500C7D1FE4FF1238CBE204F280D2
:101D8500E9E4785DF2785BE2FF7859E22FFFE4330E
:101D9500FE785DE2C39FEE6480F8748098500E7DF6
:101DA5001FE4FF1238CB785DE204F280D80BBB004C
:091DB500010A8084D2B0E4F5A912
:011DBE002202
:10369800AA06A907781474FFF208EAF208E9F212F8
:1036A8002CABE47817F208F27817E2FE08E2FFC3C1
:1036B800EE9440502DEF25E0FFEE33FE7814E2FB48
:1036C80008E2FA08E2F98F828E83120FC2FDACF08D
:1036D800ECFF1238CB7818E22401F218E23400F239
:0236E80080C69A
:0136EA0022BD
:03261C007819EF3B
:10261F00122CAAC2B0D2B178221211C500000050FC
:10262F007819E2FFE4FCFDFE7822E2FB08E2F908EC
:10263F00E2FA08E2CBF8120FFAEF2401FFE43EFEB4
:10264F00E43DFDE43CFC781A1211887822E2FC0884
:10265F00E2FD08E2FE08E2FF781AE2FB08E2F90861
:10266F00E2FA08E2CBF8EB2FFFEA3EFEE93DFDE888
:10267F003CFC781E8078781EE2FC08E2FD08E2FE42
:10268F0008E2FF781AE2FB08E2F908E2FA08E2CB67
:10269F00F8C3121125505C781AE2FC08E2FD08E23B
:1026AF00FE08E2FF12347BE4FBFAC3EA94025024E3
:1026BF00747C2BF58274003AF583E0FF747D2BF563
:1026CF008274003AF583E0FD1238CB74022BFBE4E1
:1026DF003AFA80D6781AE2FC08E2FD08E2FE08E238
:1026EF002401FFE43EFEE43DFDE43CFC781A1211A8
:0526FF00888083D2B0C9
:0127040022B2
:10164300122CABE47826F208F2C37826E294005019
:1016530012E4FDFF1238CB08E22401F218E2340051
:10166300F280E6E47826F208F2E47828F208F278C9
:1016730026E2FE08E27803C333CE33CED8F9FFE483
:10168300FD1238CB7829E22401F218E23400F2C3C8
:1016930008E2940418E2940040D57827E22401F28A
:1016A30018E23400F2C308E2942018E2940040B92F
:1016B3000BBB00010AEB64284A7088E4FAFBE47868
:1016C30026F208F2C37826E294005012E4FDFF12DA
:1016D30038CB08E22401F218E23400F280E6E47821
:1016E30026F208F2E47828F208F27827E225E0FDF2
:1016F30018E233FCEDAE047803CEC313CE13D8F94E
:10170300FFC007EDAE047805C333CE33CED8F9FD61
:10171300D0071238CB7829E22401F218E23400F220
:10172300C308E2940418E2940040BF7827E224013E
:10173300F218E23400F2C308E2942018E294004065
:10174300A30BBB00010AEB64284A60030216C1E441
:10175300FAFBE47826F208F2C37826E294005012EA
:10176300E4FDFF1238CB08E22401F218E23400F260
:1017730080E6E47826F208F2E47828F208F2782684
:1017830008E2FDE4FF1238CB7829E22401F218E2E3
:101793003400F2C308E2940418E2940040E078278E
:1017A300E22401F218E23400F2C308E2942018E2C2
:1017B300940040C40BBB00010AEB64284A7093E415
:1017C300FAFBE47826F208F2C37826E2940050127A
:1017D300E4FDFF1238CB08E22401F218E23400F2F0
:1017E30080E6E47826F208F2E47828F208F2782614
:1017F300E2FC08E2FD25E0FFEC33FEEF7803CEC305
:1018030013CE13D8F9FFAE05EE33333354F84FFF3D
:10181300EE25E0C43354E0FE782608E24EFD12388C
:10182300CB7829E22401F218E23400F2C308E294EF
:101833000418E2940040B77827E22401F218E23456
:1018430000F2C308E2942018E29400409B0BBB0013
:0D185300010AEB64284A60030217C5D2B0F9
:011860002265
:1022C800122CABC3EA94005029E4782CF208F2E40B
:1022D800FDFF1238CB782DE22401F218E23400F227
:1022E800C308E2948018E2940040E40BBB00010AA2
:1022F80080D1E4FAFBE4782AF208F2E4782CF208B8
:10230800F2EBAE027803C333CE33CED8F9FFE4FD47
:102318001238CB782DE22401F218E23400F2C30817
:10232800E2942018E2940040D8E4782CF208F2EB0A
:1023380025E0FDEA33FCEDAE047803CEC313CE13DB
:10234800D8F9FFC007EDAE047805C333CE33CED835
:10235800F9FDD0071238CB782DE22401F218E234C7
:1023680000F2C308E2942018E2940040C2E4782CFA
:10237800F208F2AD03E4FF1238CB782DE22401F223
:1023880018E23400F2C308E2942018E2940040E313
:10239800E4782CF208F2EB25E0FFEA33FEEF78034D
:1023A800CEC313CE13D8F91238B6782DE22401F231
:1023B80018E23400F2C308E2942018E2940040D6F0
:1023C800782BE22401F218E23400F2C308E2940503
:1023D80018E2940050030223030BBB00010AEB64CC
:0723E800204A60030222FD00
:0123EF0022CB
:102E7600122CABC2B0D2B1C3EA94005029E4783028
:102E8600F208F2E4FDFF1238CB7831E22401F218A1
:102E9600E23400F2C308E2948018E2940040E40BA6
:102EA600BB00010A80D1E4FAFBE4782EF208F2E4D2
:102EB6007830F208F2EBAE027803C333CE33CED8C5
:102EC600F9FFE4FD1238CB7831E22401F218E2343E
:102ED60000F2C308E2948018E2940040D8782FE20A
:102EE6002401F218E23400F2C308E2940518E294D1
:102EF6000040BC0BBB00010AEB64204A70ABD2B0A9
:012F060022A8
:102C0C00122CABC2B0D2B1E47834F208F2E4FDFF7E
:102C1C001238CB7835E22401F218E23400F2C30802
:102C2C00E2948018E2940040E40BBB00010AEB64D0
:102C3C00204A70D3E4FAFBE47832F208F2E47834F8
:102C4C00F208F2EBAE027803CEC313CE13D8F9FF21
:102C5C00C007EBAE027805C333CE33CED8F9FDD026
:102C6C00071238CB7835E22401F218E23400F2C3B3
:102C7C0008E2948018E2940040C97833E22401F20F
:102C8C0018E23400F2C308E2940218E2940040AD5A
:0D2C9C000BBB00010AEB64404A709CD2B0F3
:012CA9002208
:1030B300122CABC2B0D2B1C3EA94005029E47838E1
:1030C300F208F2E4FDFF1238CB7839E22401F2185A
:1030D300E23400F2C308E2948018E2940040E40B67
:1030E300BB00010A80D1E4FAFBE47836F208F2E48B
:1030F3007838F208F2AD03E4FF1238CB7839E224D2
:1031030001F218E23400F2C308E2948018E294005A
:1031130040E37837E22401F218E23400F2C308E214
:10312300940518E2940040C70BBB00010AEB64202E
:053133004A70B6D2B0A5
:013138002274
:102F0700122CABC2B0C3EA94005029E4783CF20813
:102F1700F2E4FDFF1238CB783DE22401F218E234E7
:102F270000F2C308E2948018E2940040E40BBB006F
:102F3700010A80D1E4FAFBE4783AF208F2E4783C3B
:102F4700F208F2EB25E0FFEA33FEEF7803CEC31376
:102F5700CE13D8F91238B6783DE22401F218E234DC
:102F670000F2C308E2948018E2940040D6783BE26E
:102F77002401F218E23400F2C308E2940518E2943F
:102F87000040BA0BBB00010AEB64204A70A9D2B01B
:012F97002217
:102D4500122CABC2B0D2B1E47859F208F2E4FBFA26
:102D5500C3EA9400500DE4FDFF1238CB0BBB000114
:102D65000A80EDE4FAFBE4785BF208F2EBAE027858
:102D750002C333CE33CED8F97803CEC313CE13D8DE
:102D8500F9FFAE03EE25E0F933333354F84FFFEE88
:102D950025E025E0FEC43354E049FD1238CB785CCC
:102DA500E22401F218E23400F2C308E2940818E2C2
:102DB500940040B80BBB00010AEB64104A70A77879
:102DC5005AE22401F218E23400F2C308E294A01892
:0A2DD500E294005003022D52D2B028
:012DDF0022D1
:10323C00122CABC2B0E4783EF208F2E4FBFAC3EA1B
:10324C009400500DE4FDFF1238CB0BBB00010A803B
:10325C00EDE4FAFBE47840F208F2EB25E0FFEA3308
:10326C00FEEF7803CEC313CE13D8F91238B67841DB
:10327C00E22401F218E23400F2C308E2940418E2EA
:10328C00940040D60BBB00010AEB64204A70C57851
:10329C003FE22401F218E23400F2C308E294A018D1
:0732AC00E294004096D2B04D
:0132B30022F8
:101A7B00122CABE47842F208F2E4FD7FF81238CB7B
:101A8B007843E22401F218E23400F2C308E29480B6
:101A9B0018E2940040E30BBB00010AEB64144A709C
:101AAB00D2E4FAFBE47842F208F27DE07F071238C9
:101ABB00CB7843E22401F218E23400F2C308E2943B
:101ACB008018E2940040E30BBB00010AEB64144A5C
:101ADB0070D2E4FAFBE47842F208F27D1FE4FF12C5
:101AEB0038CB7843E22401F218E23400F2C308E267
:101AFB00948018E2940040E30BBB00010AEB6414E2
:101B0B004A70D2E4FAFBE47842F208F27DE07FFF00
:101B1B001238CB7843E22401F218E23400F2C30806
:101B2B00E2948018E2940040E30BBB00010AEB64E3
:101B3B00144A70D2E4FAFBE47842F208F27D1F7F7C
:101B4B00F81238CB7843E22401F218E23400F2C3E6
:101B5B0008E2948018E2940040E30BBB00010AEB0F
:101B6B0064144A70D2E4FAFBE47842F208F27DFF87
:101B7B007F071238CB7843E22401F218E23400F2EB
:101B8B00C308E2948018E2940040E30BBB00010A07
:101B9B00EB64144A70D2E4FAFBE47842F208F27D6B
:101BAB00FF7FFF1238CB7843E22401F218E23400B6
:101BBB00F2C308E2948018E2940040E30BBB0001EF
:101BCB000AEB64144A70D2E4FAFBE47842F208F2AE
:101BDB00E4FDFF1238CB7843E22401F218E2340023
:101BEB00F2C308E2948018E2940040E40BBB0001BE
:101BFB000AEB64144A70D3E4FAFBC3EA940050294D
:101C0B00E47842F208F2E4FDFF1238CB7843E22489
:101C1B0001F218E23400F2C308E2948018E2940057
:091C2B0040E40BBB00010A80D16A
:011C3400228D
:1034DF00EFC3942050047F5F8050EFC39420400CC3
:1034EF00EFD3942F5006EF2428FF803EEFC3943084
:1034FF00400CEFD39439500674D02FFF802CEFC3BC
:10350F00943A400CEFD394405006EF241EFF801ADC
:10351F00EFC39441400CEFD3947E5006EF24C9FFC4
:0B352F008008EFD3947E40027F5F22F3
:1027D200FD18E23400FC7866E2FA08E2FB08E2F552
:1027E2008308E2F5827872E583F208E582F2786A7C
:1027F200E2F58308E2F5827874E583F208E582F275
:08280200786DEFF2AF05AE04A2
:10280A00EB240FFCE43A15081508A808F208CCF2E4
:10281A00EF2407FDE43EFC122CC3786DE2FF7E0034
:10282A00D3945FEE940040027F5FEFC4F8540FC860
:10283A0068FFEEC454F048FE787774FFF208740615
:10284A00F2087499F2E22FF218E23EF2E47876F294
:10285A007877E2FB0808E2F92401F218E2FA340078
:10286A00F2120F54FBE4FAEBA802088002C333D831
:10287A00FC30E704787280027874E2FE08E2FF1204
:10288A003AD70AEAB408E07876E204F2E2C394108E
:02289A0040BE3E
:01289C002219
:102DE0007862EBF208EAF208E9F208ECF208EDF298
:102DF0007862E2FB08E2FA08E2F9120F547003D39A
:102E00008001C340707862E2FB0808E2F92401F215
:102E100018E2FA3400F2120F54FF1234DF7865E240
:102E2000FC08E2FD08E2FA08E2FB08E2F58308E2AA
:102E3000F5827872E583F208E582F2786B1227F268
:102E4000D37866E2947718E29400400BE4F208F23B
:102E50007868E2241080057866E22408F218E234EB
:102E600000F2D37868E2948F18E294004082E4F292
:062E700008F2022DF02221
:102954007862EEF208EFF27866EAF208EBF2786455
:10296400ECF208EDF2D3945FEC9400400718E4F223
:1029740008745FF27866E2FE08E2FFD3948FEE9467
:10298400004009EF24EFF2EE34FF18F27862E2C45B
:10299400540FFF7864E2FC08E2FD081227DA78623B
:1029A400E2540FFF7865E224081227D27962E3C467
:1029B400F854F0C809E3C4540F48540FFF7865E293
:1029C40024101227D27863E2540FFF7865E22418AA
:1029D400FD18E23400FC7866E2FA08E2FB08E2F54E
:1029E4008308E2F5827872E583F208E582F2786A78
:1029F400E2F58308E2F5827874E583F208E582F271
:032A0400022802A3
:103A64007B027D087C00E4FF1214117854EEF20806
:063A7400EFF2E4FEFF2268
:1036EB007859EAF208EBF2ED2401FAE43C150815DF
:1036FB0008A808F208CAF2AB05AA04EF2401FDE4FE
:10370B003EFC122CC37859E2FC08E2FDECFF1238A8
:10371B00CB18E2FC08E2FDECFF1238CB18E2FC08F8
:10372B00E2FDECFF1238CB18E2FC08E2FDECFF02E5
:02373B0038CB89
:103139007844EEF208EFF28B828A8308ECF208ED0C
:01314900F293
:10314A00784AE2FF08E215081508A808CFF208EF46
:10315A00F27844E2FE08E2FF122CC3AE83AF827813
:10316A004EEEF208EFF2784BE22401FF18E2340047
:10317A00FEC3784FE29F18E29E50397844E2FE0877
:10318A00E2FBAA067847E22401FF18E23400FEC3F4
:10319A00EB9FEA9E5011784CE2FE08E2FF123AD702
:1031AA000BBB00010A80DD784FE22401F218E234F9
:0431BA0000F280B2ED
:0131BE0022EE
:072F98007850EEF208EFF2A1
:102F9F0008E4F208740FF2C37853E2949F18E29496
:102FAF00005030E2FA08E2FB784AEAF208EBF278D6
:102FBF0050E2FF08E2784CCFF208EFF27D7F7C0001
:102FCF00E4FFFE1231397853E22410F218E2340094
:102FDF00F280C47852E4F208740FF2C37853E2948B
:102FEF007F18E294005030E2FC08E2FDFFAE047857
:102FFF004AE4F208749FF27850E2FB08E2784CCB77
:10300F00F208EBF2E4FBFA1231397853E22410F2B2
:07301F0018E23400F280C446
:013026002287
:083AE0005450205445535400DA
:10395B00C294C295E49002AFF0EF20E704C2B280AC
:10396B0002D2B2D295EF25E0FFC2959002AFE004F0
:05397B00F0E0B408E4D7
:013980002224
:103329009002B012119400000000C294D2B3E4904C
:1033390002AFF09002AFE0FFC3940C5049C2953040
:10334900B33AC3740B9FFF74017E00A80708800578
:10335900C333CE33CED8F9FFEE3395E0FDFC9002AE
:10336900B0E0F8A3E0F9A3E0FAA3E04FFFEA4EFECC
:10337900E94DFDE84CFC9002B012117CD295900207
:10338900AFE004F080ADD2949002B0A3A3E0FEA315
:02339900E0FF53
:01339B00220F
:0223F000AB0739
:1023F200E4900296F0A3F0A3F0D2B5900296E0C367
:10240200940B502C20B529C294EB04FF12395B12B5
:102412003329900296E025E02499F582E43402F50E
:1024220083EEF0A3EFF0900296E004F0D29480CB1A
:10243200900296E07003022507E4A3F0900296E072
:10244200F9A3E0C39940030224F3E4A3F0900297B6
:10245200E0FF900296E0C39FFF900298E0C39F4086
:10246200030224EAE0FF25E0249BF582E43402F52E
:1024720083E0FCA3E0FDEF25E02499F582E4340239
:10248200F583E0FEA3E0D39DEE9C4053900298E0DA
:1024920025E02499F582E43402F583E0FCA3E0FD13
:1024A200900294ECF0A3EDF0EF25E0249BF582E49A
:1024B2003402F583E0FEA3E0FF900298E0FB25E002
:1024C2002499F582E43402F583EEF0A3EFF0EB25D4
:1024D200E0249BF582E43402F583ECF0A3EDF09066
:1024E2000298E004F002244F900297E004F00224E4
:1024F2003EE9C31325E02499F582E43402F583E032
:08250200FEA3E0FF22E4FEFF4E
:01250A0022AE
:1018610090027C12119400000000900280121194E9
:101871000000000090028412119400000000900208
:10188100881211940000000090028C121194000043
:10189100000090029012119400000000E4FFFE127B
:1018A10000467BFF7A3A79E0E47867F208F208F2C1
:1018B10008F274FF08F208F2E4FDFC122DE0D2B543
:1018C10020B5FD20B603021A567F327E001239C3BD
:1018D10020B5F07FD01223F0E4FCFD9002841211B8
:1018E1007C900284E0FCA3E0FDA3E0FEA3E024BD24
:1018F100FFEE34FFFEED34FFFDEC34FFFCE47B80B2
:10190100FAF9F8120FFAE47BA57A02F9F8121085B8
:10191100E4120D9F7BB87A1E7945783F120C99121B
:101921000DDD90027C12117C7F901223F0E4FCFD0E
:1019310090028812117C900288E0FCA3E0FDA3E0F4
:10194100FEA3E024A0FFEE34FFFEED34FFFDEC34F6
:10195100FFFCE47BA0FAF9F8120FFAE4FB7A03F931
:10196100F8121085E4120D9F7B337A337973783F37
:10197100120C99120DDD90028012117C7F0A7E00FB
:101981001239C390027CE0F8A3E0F9A3E0FAA3E0E6
:10199100FBC374809BFFE49AFEE499FDE498FC90FC
:1019A100027C12117C900280E0F8A3E0F9A3E0FA36
:1019B100A3E0FBC374A09BFFE49AFEE499FDE498C5
:1019C100FC90028012117C30B5030218D1E4FFFEB5
:1019D100FDFC90027CE0F8A3E0F9A3E0FAA3E0FBB0
:1019E100C312112550030218D1E47F80FEFDFC9043
:1019F100027CE0F8A3A3A3E012112540030218D151
:101A0100E4FFFEFDFC900280E0F8A3E0F9A3E0FA18
:101A1100A3E0FBC312112550030218D1E47FA0FEFD
:101A2100FDFC900280E0F8A3A3A3E012112540037E
:101A31000218D190027CA3A3E0FEA3E0FFC006A39D
:101A4100A3A3E0FEA3E0FDAC06D0067B007AF8126A
:101A510036EB0218D1E4FFFE1200467BFF7A3A7999
:101A6100E0E47867F208F208F208F274FF08F2087D
:0A1A7100F2E4FDFC122DE00218C49F
:103817001201100100000040C41000000000010266
:1038270003010902200001010080FA0904000002D7
:10383700FF00000007050202400000070582024062
:0A3847000000040309040100000062
:1021910090027CEEF0A3EFF0900280EBF0A3EAF066
:1021A100A3E9F0E4900791F0900791E0FF903817D0
:1021B10093FE74402FF582E43407F583EEF0900727
:1021C10091E004F0E0B412E0E4900791F0900791FF
:1021D100E0FF90382993FE74522FF582E43407F51D
:1021E10083EEF0900791E004F0E0B420E090027CEF
:1021F100E0FEA3E0900748F0EEA3F0A3EDF0ECA31E
:10220100F090077274FFF0A37438F0A37449F09052
:102211000280E0F9A3E0FAA3E0900775C9F0A3EA10
:10222100F0A3E9F0900283E0F9A3E0FAA3E09007BC
:1022310078C9F0A3EAF0A3E9F0900286E0F9A3E0FF
:10224100FAA3E090077BC9F0A3EAF0A3E9F09002BA
:1022510089E0FFC394FA500590075AEFF090028A83
:10226100E0900759F090028BE0FEA3E090074CF05C
:10227100EEA3F0E59620E7FB759601759708E596C4
:1022810020E7FB75960775970FE59620E7FB759696
:102291000975970EE59620E7FB75960B75970775FF
:1022A100D7E0123AC0E4900793F0900792F09007BC
:1022B10094F0900786F043E602D2AFE59620E7FB63
:0722C10075960175970122DB
:10390D009007867402F0E59620E7FB759601759792
:10391D0001E490078EF0A37403F0A3F0E4900793F5
:07392D00F090079204F02264
:1011DE00E59620E7FB75960EE4F597E59620E7FB7E
:1011EE00759691E59620E7FB90079EE597F0E0FF58
:1011FE0030E210E59620E7FB759611E4F59790071F
:10120E008EF022EF30E410E59620E7FB759611750F
:10121E009780E490078EF090078EE0600302130F24
:10122E0090079EE020E00302130F7596204396C0B0
:10123E00E4900791F0E59620E7FB900791E0247E7D
:10124E00F582E43407F583E597F0900791E004F01A
:10125E00E0B407E1E59620E7FBE4F596900791E010
:10126E00247EF582E43407F583E597F0900781E05C
:10127E00FE900780E07C002400FFEC3E900795F086
:10128E00A3EFF0900785E0FE900784E02400FFECCA
:10129E003E900797F0A3EFF090077FE0B40C00505C
:1012AE005D9012B6F82828730212DA0212DF0212CB
:1012BE00E40212E902130C0212EE0212F302130CF4
:1012CE000212F80212FD02130202130712339C805F
:1012DE0030123594802B12270580261235EC802192
:1012EE001239A3801C122A07801712378D80121212
:1012FE00353A800D1239348008123A7A8003123949
:10130E00E290078EE06401600302141090079E7451
:10131E0002F0C390078DE0944090078CE09400405B
:10132E0061E59620E7FB759620E4900791F0900713
:10133E0091E0FFC394405022900787E0FBA3E0FAB0
:10134E00A3E0F98F82758300120F6DF597E5962055
:10135E00E7FB900791E004F080D4900788E475F0E5
:10136E0040120FAC90078DE024C0F090078CE03453
:10137E00FFF090078BE02440F090078AE03400F0F5
:10138E008052E59620E7FB759620E4900791F09049
:10139E000791E0FFD390078DE09F90078CE09400BB
:1013AE004026900787E0FBA3E0FAA3E0F9900791AF
:1013BE00E0F582758300120F6DF597E59620E7FB39
:1013CE00900791E004F080C790079EE04408F0E497
:1013DE0090078EF0900797E0FEA3E0FF90078AE05B
:1013EE00B50611A3E0B5070C90079EE04408F0E4A3
:1013FE0090078EF0E59620E7FB75961190079EE01C
:03140E00F597222D
:1039E200E59620E7FB75960EE4F597E59620E7FB52
:0D39F20075961175972090078E7404F022D1
:10339C0090077EE0247F600714600624027048804A
:1033AC002D90078FE0B40309900782E0B4020280ED
:1033BC000E900790E0B40316900782E0B4820F9051
:1033CC00078774FFF0A37438F0A3744D800D900739
:1033DC008774FFF0A37438F0A3744FF090078CE45B
:1033EC00F0A37402F080031239E290078EE06404BB
:1033FC006010123A7A90078E7401F0E490078AF00C
:03340C00A3F02208
:10359400900780E07041900782E0B4021DE5962018
:1035A400E7FB75960E759702E59620E7FB75961472
:1035B400759780E490078FF08020E59620E7FB75EF
:1035C400960E759702E59620E7FB75961175974060
:1035D400E4900790F080031239E2E59620E7FB754A
:0835E400960EE4F597023A7A15
:10270500900796E020E00302279B900794E030E0D5
:102715000854FEF04402F08007900794E054FDF061
:10272500E59620E7FB75960E759702E59620E7FB83
:10273500759614759710E59620E7FB7596117597B4
:1027450008E59620E7FB759694E59620E7FB90074C
:102755009DE597F0E020E4E9E59620E7FB75961402
:10276500759710E59620E7FB759691E59620E7FBB2
:1027750090079DE597F0E020E3E9E59620E7FB75F6
:1027850096117597089007927408F0900794E0FFEA
:1027950030E1034401F0900795E0FCA3E0FD30E152
:1027A5000D9007867406F0900792E04410F0ED3026
:1027B500E20D9007867404F0900792E04420F0E55E
:0D27C5009620E7FB75960EE4F597023A7A30
:1035EC00900780E07040900782E0B4021BE59620C3
:1035FC00E7FB75960E759702E59620E7FB7596141A
:10360C0075972090078F8019E59620E7FB75960E2D
:10361C00759702E59620E7FB759611759710900744
:10362C00907403F080031239E2E59620E7FB75965F
:07363C000EE4F597023A7A53
:1039A300E59620E7FBE4F596900780E0FFF597EFB7
:1039B30090078660057403F080037402F0023A7A7C
:102A0700900781E024FE601B14603B2402706990EC
:102A170007877401F0A37407F0A37440F090074090
:102A2700E0804A9007877401F0A37407F0A37452FB
:102A3700F0900755E0FE900754E07C002400FFEC7F
:102A47003E90078C802C900780E075F003A42472D9
:102A5700F582E43407F583E0FBA3E0FAA3E0F990FD
:102A67000787EBF0A3EAF0A3E9F0120F54FF9007F2
:102A77008CE4F0A3EFF080031239E290078CE0FEBC
:102A8700A3E0FF900797E0FCA3E0FDC39FEC9E50F7
:102A97000890078CECF0A3EDF090078EE0640460DB
:102AA70010123A7A90078E7401F0E490078AF0A327
:022AB700F0220B
:10378D00900786E0FFB40414A374FFF0A37438F01F
:10379D00A3744DF090078CE4F0A304F0EFB403167E
:1037AD0090078774FFF0A37438F0A3744FF090075F
:1037BD008CE4F0A304F0123A7A90078E7401F0E4D1
:0737CD0090078AF0A3F0222F
:10353A00900780E0D394004042900792E04440F024
:10354A009007867404F0E490078FF0A3F0E59620C4
:10355A00E7FB75960E759702E59620E7FB759612BE
:10356A00759784E59620E7FB759615759780E5961D
:10357A0020E7FB75960EE4F597800C900786740396
:0A358A00F090078FF0A3F0023A7AE8
:1039340090078774FFF0A37438F0A3744FF09007D6
:103944008CE4F0A304F0123A7A90078E7401F0E448
:0739540090078AF0A3F022A6
:103A7A0090078EE06404600BE59620E7FB759611CB
:043A8A0075974022CA
:03004300021DBFDC
:101DBF00C0E0C0F0C083C082C0D075D000C000C0EA
:101DCF0001C002C003C004C005C006C0079007A130
:101DDF00E596F0E59620E7FB75968EE59620E7FBF6
:101DEF009007A2E597F0E59620E7FB759686E596B6
:101DFF0020E7FB900799E597F0E030E30BE596209D
:101E0F00E7FB75960B759707900799E030E2031281
:101E1F00390D900799E030E014900786E0FF6404D5
:101E2F006004EFB40607900792E04480F0E5962037
:101E3F00E7FB759682E59620E7FB900799E597F00B
:101E4F00E030E0031211DE900799E030E22AE596C8
:101E5F0020E7FB75960E759702E59620E7FB7596C2
:101E6F0091E59620E7FB90079AE597F0E054037011
:101E7F0007900792E04402F0E59620E7FB75968401
:101E8F00E59620E7FB900799E597F0E030E229E52A
:101E9F009620E7FB75960E759702E59620E7FB7582
:101EAF009694E59620E7FB90079AE597F0E030E0EF
:101EBF0007900792E04404F0E59620E7FB75960E35
:101ECF009007A2E0F597E59620E7FB9007A1E5962E
:101EDF00F0E59620E7FB900794E030E00990079239
:101EEF00E06003123981D007D006D005D004D003AB
:101EFF00D002D001D000D0D0D082D083D0F0D0E0AB
:011F0F00329F
:10385100E5B964E0602E53A90FC0A943B280E5A980
:103861005407D394014003E4F5A9E4F5B943B980C1
:10387100E4D5E0FD43B9C0E5B930E5FBD0E0B402E1
:083881000343A90253A90F2221
:1038E20053D7BF43C910E5A95402900791F043B2E0
:1038F2008075A910E4F5B943B2200012385190073F
:0B39020091E042A953C9EF43D74022D7
:0E3AB200900792E0FFE4F022900792E0FF22DE
:102AB900900786E0B40606EDD3944040037F0022D8
:102AC900E59620E7FB75960E759702E59620E7FBDC
:102AD900759694E59620E7FB90079CE597F0E02032
:102AE900E003022B65E59620E7FB759696E59620AF
:102AF900E7FB900793E597F0E0FFEDC39F5006AE23
:102B090005AF068000900793EFF053E6FDE59620A8
:102B1900E7FB7596E2900793E06025FEEB600630CF
:102B2900E70F7F0022E59620E7FBA79709DEF680ED
:102B39000F89828A83E59620E7FBE597F0A3DEF506
:102B4900E59620E7FBE4F596E59620E7FB759614F4
:0F2B5900E4F59743E602900793E0FF227F002206
:10250B00900786E0B4060DED4C6009D3ED9400EC1A
:10251B0094104004E4FEFF2253E6FDE490079FF085
:10252B00A3F090079BF089828A83C083C0829007B7
:10253B009BE030E00302260CE59620E7FB75960E38
:10254B00759702E59620E7FB759691E59620E7FBDC
:10255B0090079BE597F0E030E020E59620E7FB75D0
:10256B00960EE4F597E59620E7FB759691E5962098
:10257B00E7FB90079BE597F080B4C3ED9440EC9498
:10258B00009007A0E0401B2440F090079FE0340030
:10259B00F074C02DFD74FF3CFCE490079BF0784079
:1025AB0080132DF090079FE03CF090079B7401F097
:1025BB00A805E4FCFDE59620E7FB759622D082D0BA
:1025CB0083E8602BEB601130E71AE59620E7FBE41C
:1025DB0093F597A3D8F48017E59620E7FB87970927
:1025EB00D8F6800BE59620E7FBE0F597A3D8F5C06E
:1025FB0083C082E59620E7FB75961175970102253E
:10260B0039D082D08343E60290079FE0FEA3E0FF20
:01261B00229C
:103A3500900794E04401F0900792E0600BE5962032
:093A4500E7FB75960B75970F2243
:0C3AC000E59620E7FB75960F75978922AC
:10398100D007D007D007D006D005D004D003D0028D
:10399100D001D000D0D0D082D083D0F0D0E00200CE
:0239A1008B2277
:100C9900EC4D6011E8497017ED33EC3304600DE455
:100CA900FCFFFEFD22E933E8330470F8020E491215
:100CB9000E1458046009E4CC248150062850090216
:100CC9000E53284003020E50C0E0EB4A7044B9802D
:100CD90006D0E0FB020E3FEF4E701CBD8008EBFF13
:100CE900EAFEE9FD80EBE98DF0A4FEE5F0020D8254
:100CF900E9CDF9EAFEEBFFEF89F0A4FCE5F0CE8936
:100D0900F0A42EFFE435F0CD89F0A42DFEE435F0F2
:100D19008067EF4E7005BD80D780C3EF8BF0A4AC20
:100D2900F0EE8BF0A42CFCE435F0F8EF8AF0A42C5B
:100D3900E5F038FCE433CB8DF0A42CFCE5F03BF86E
:100D4900EE8AF0A42CFCE5F038F8E433CF89F0A45E
:100D59002CFCE5F038CF3400CE89F0A42FFFE5F064
:100D69003EFEE433C98DF0A42EFEE5F039CD8AF0BC
:100D7900A42FFFE5F03EFEE43DFD33D0E0FB500734
:100D89000BBB000F020E53EC2CFCEF33FFEE33FECE
:060D9900ED33FD020E2BFC
:100D9F0075F020800E75F010800575F0087D007ECF
:100DAF00007F003392D530D503121117EC3340106A
:100DBF00EF33FFEE33FEED33FDEC33FCD5F0ED22D8
:0E0DCF00E5F0247EA2D513CC92E7CDCEFF2214
:100DDD00EDD2E7CD33EC3392D524814006E4FFFE0E
:100DED00FDFC22FCE4CFCECDCC24E0501174FF806D
:100DFD00EDC3CC13CCCD13CDCE13CECF13CF04700A
:070E0D00F030D5DE021117E1
:100E1400E9D2E7C933E833F892D5EDD2E7CD33EC24
:070E240033FC5002B2D5229D
:100E2B00EC30E7100FBF000C0EBE00080DBD000428
:100E3B000BEB6014A2D5EB13FCED92E7FD2274FFD4
:100E4B00FCFDFEFF22E480F8A2D574FF13FC7D802D
:030E5B00E480EF41
:03000000023027A4
:0C302700787FE4F6D8FD75810802306E59
:100E5E00E709F608DFFA8046E709F208DFFA803E76
:100E6E0088828C83E709F0A3DFFA8032E309F60863
:100E7E00DFFA8078E309F208DFFA807088828C83CB
:100E8E00E309F0A3DFFA806489828A83E0A3F6087F
:100E9E00DFFA805889828A83E0A3F208DFFA804C59
:100EAE0080D280FA80C680D4806980F28033801030
:100EBE0080A680EA809A80A880DA80E280CA803399
:100ECE0089828A83ECFAE493A3C8C582C8CCC58311
:100EDE00CCF0A3C8C582C8CCC583CCDFE9DEE780E1
:100EEE000D89828A83E493A3F608DFF9ECFAA9F060
:100EFE00EDFB2289828A83ECFAE0A3C8C582C8CCB6
:100F0E00C583CCF0A3C8C582C8CCC583CCDFEADECE
:100F1E00E880DB89828A83E493A3F208DFF980CC30
:100F2E0088F0EF60010E4E60C388F0ED2402B40429
:100F3E000050B9F582EB2402B4040050AF232345D0
:060F4E008223900EAE7339
:100F5400BB010689828A83E0225002E722BBFE029B
:090F6400E32289828A83E49322CE
:100F6D00BB010CE58229F582E5833AF583E0225039
:100F7D0006E92582F8E622BBFE06E92582F8E22283
:0D0F8D00E58229F582E5833AF583E493229D
:100F9A00EF8DF0A4A8F0CF8CF0A428CE8DF0A42E6B
:020FAA00FE2225
:100FAC00C5F0F8A3E028F0C5F0F8E58215827002D0
:060FBC001583E038F0226D
:100FC200BB0110E58229F582E5833AF583E0F5F06D
:100FD200A3E0225009E92582F886F008E622BBFE4A
:100FE2000AE92582F8E2F5F008E222E5832AF58390
:080FF200E993F5F0A3E9932255
:100FFA00E88FF0A4CC8BF0A42CFCE98EF0A42CFC96
:10100A008AF0EDA42CFCEA8EF0A4CDA8F08BF0A413
:10101A002DCC3825F0FDE98FF0A42CCD35F0FCEB72
:10102A008EF0A4FEA9F0EB8FF0A4CFC5F02ECD3937
:0F103A00FEE43CFCEAA42DCE35F0FDE43CFC22A4
:1010490075F008758200EF2FFFEE33FECD33CDCC5E
:1010590033CCC58233C5829BED9AEC99E5829840E1
:101069000CF582EE9BFEED9AFDEC99FC0FD5F0D6BE
:10107900E4CEFBE4CDFAE4CCF9A88222B800C1B9E8
:101089000059BA002DEC8BF084CFCECDFCE5F0CB26
:10109900F97818EF2FFFEE33FEED33FDEC33FCEB5F
:1010A90033FB10D703994004EB99FB0FD8E5E4F91A
:1010B900FA227818EF2FFFEE33FEED33FDEC33FC07
:1010C900C933C910D7059BE99A4007EC9BFCE99AFB
:1010D900F90FD8E0E4C9FAE4CCFB2275F010EF2F40
:1010E900FFEE33FEED33FDCC33CCC833C810D70740
:1010F9009BEC9AE899400AED9BFDEC9AFCE899F87B
:0E1109000FD5F0DAE4CDFBE4CCFAE4C8F9220D
:0E111700C3E49FFFE49EFEE49DFDE49CFC22E9
:10112500EB9FF5F0EA9E42F0E99D42F0E89C45F020
:011135002297
:10113600E8600FECC313FCED13FDEE13FEEF13FF97
:03114600D8F122BB
:10114900E8600FEFC333FFEE33FEED33FDEC33FC04
:03115900D8F122A8
:10115C007401FF3395E0FEFDFC080808E2CF2FF286
:10116C0018E2CE3EF218E2CD3DF218E2CC3CF2226F
:0C117C00ECF0A3EDF0A3EEF0A3EFF022E6
:0C118800ECF208EDF208EEF208EFF222A3
:10119400A8828583F0D083D0821211AB1211AB12D6
:1011A40011AB1211ABE473E493A3C583C5F0C583FB
:1011B400C8C582C8F0A3C583C5F0C583C8C582C8A5
:0111C4002208
:1011C500D083D082E493F208740193F208740293F9
:0911D500F208740393F274047330
:10303300020003E493A3F8E493A34003F68001F2B0
:1030430008DFF48029E493A3F85407240CC8C3339E
:10305300C4540F4420C8834004F456800146F6DF6D
:10306300E4800B0102040810204080903889E47E3C
:10307300019360BCA3FF543F30E509541FFEE49362
:10308300A360010ECF54C025E060A840B8E493A329
:10309300FAE493A3F8E493A3C8C582C8CAC583CA54
:1030A300F0A3C8C582C8CAC583CADFE9DEE780BE0C
:0138B5000012
:00000001FF
