:1030EB0055534220444542554700555342205245C3
:1030FB0041440010C4EA611A03530069006C006973
:10310B000063006F006E0020004C006100620073D2
:10311B0000100355005300420020004100500049AD
:10312B00000A0343003500310046000F8001000107
:1032B700012F00013600013B00013D00013E0001E6
:1032C7003C00013300023400000437000000010114
:0832D70030AA0131550132FF5C
:10220100122D8B20B6030222C412280212313B7F09
:10221100F47E011233967F007EF812320612313BB2
:102221007FE07E0712320612313B7F1F7E001232A1
:102231000612313B74FFFFFE12320612313B7F2042
:102241007E03123396E4FFFE12320612313B7FE821
:102251007E0312339612347512176712313B123412
:10226100757FC87E0012339612203012313B122A3C
:10227100C312313B12289912313B122DF712313B17
:10228100122A4012313B1229B512313B122D1D1277
:10229100313B121A8312313B1234887F0A7E0012BD
:1022A1003396123488E4F50BAF0B1222C57F057EFD
:1022B1000012313F050BE50BC3940140EB12159859
:0322C100022204F2
:0122C40022F7
:10339600E4FDFCC3ED9FEC9E5014E4FBFA0BBB006E
:0E33A600010AEBF44A70F60DBD00010C80E543
:0133B40022F6
:04313B007F0A7E0089
:04313F008E0C8F0D56
:10314300E4F50EF50F30B720E4FFFEC3EF950DEE67
:10315300950C501EE4FDFC0DBD00010CEDF44C700C
:10316300F60FBF00010E80E31234757F147E001248
:103173003396050FE50F7002050EC39464E50E94B4
:033183000040C247
:013186002226
:1034750030B60512068E80F87FF47E011233963041
:03348500B6FD226F
:10068E0078147C007D007BFF7A31793A7E007F0101
:10069E00120EC4E5367003020859751001E51025D7
:1006AE00E025E02458F582E43402F583E07029E574
:1006BE001025E025E02459F582E43402F583E0FEAE
:1006CE00E51025E025E0245AF582E43402F583E0B6
:1006DE00FDEDFF12344B803BE51025E025E024585C
:1006EE00F582E43402F583E064017027E51025E01D
:1006FE0025E02459F582E43402F583E0FEE5102569
:10070E00E025E0245AF582E43402F583E0FDEDFFA6
:10071E001233D60510E510C394104081000000007E
:10072E0000000000000000000000000000000000BB
:10073E007BFF7A3079EBE4F51AF51BF51CF51D7489
:10074E00FFF51EF51FE4FDFC1226CD90025BE020A6
:10075E00E00302083F751001E51025E025E024585E
:10076E00F582E43402F583E07054E51025E025E0CF
:10077E002459F582E43402F583E0FEE51025E025E8
:10078E00E0245AF582E43402F583E0FDEDFFE51036
:10079E0025E025E0245BF582E43402F583E075F074
:1007AE0024A4FDACF0E51075F011A4FBAAF0751BA6
:1007BE0007751CE0E4F51DF51E1227688067E5102D
:1007CE0025E025E02458F582E43402F583E0640147
:1007DE007053E51025E025E02459F582E43402F546
:1007EE0083E0FEE51025E025E0245AF582E434028C
:1007FE00F583E0FDEDFFE51025E025E0245BF582B5
:10080E00E43402F583E075F024A4FDACF0E5107538
:10081E00F011A4FBAAF0751B00751C1F74FFF51DCB
:10082E00F51E1227680510E510C394105003020739
:10083E006600000000000000000000000000000044
:10084E000000000000E4F5360206A1E53C7003024C
:10085E000915E4F510E510C394404003020904C2E3
:10086E00B0D2B174582510F582E43402F583E0FF5E
:10087E0074592510F582E43402F583E0FD123278C6
:10088E00D2B074582510F582E43402F583E0FF05EA
:10089E0035E535AC3470020534142400F58274004D
:1008AE003CF583EFF074592510F582E43402F5839C
:1008BE00E0FF0535E535AC3470020534142400F53F
:1008CE008274003CF583EFF0E4B53523E534B402D1
:1008DE001E78371210BA122B44900000E533F07FC9
:1008EE00007E007D007C00122B44E4F534F53505C6
:1008FE00100510020863E4F53CFB7A0079147D01C3
:10090E00FC121E11020859E52F7003020A0D900207
:10091E005BE070030209C9751004E510C39424400E
:10092E00030209FCC2B0D2B174582510F582E4342A
:10093E0002F583E0FF74592510F582E43402F58345
:10094E00E0FD123278D2B074582510F582E43402EC
:10095E00F583E0FF0535E535AC347002053414241B
:10096E0000F58274003CF583EFF074592510F58282
:10097E00E43402F583E0FF0535E535AC347002054D
:10098E0034142400F58274003CF583EFF0E4B535A1
:10099E0023E534B4021E78371210BA122B4490009D
:1009AE0000E533F07F007E007D007C00122B44E4D6
:1009BE00F534F53505100510020928751004E510FB
:1009CE00C394245029C2B0D2B174582510F582E4D4
:1009DE003402F583E0FF74592510F582E43402F5F4
:1009EE0083E0FD123278D2B00510051080D0E4F508
:1009FE002FFB7A0079147D01FC121E11020915E5F8
:100A0E003E7003020ABE751004E510C39424400321
:100A1E00020AAD74582510F582E43402F583E070B5
:100A2E002174592510F582E43402F583E0FE745AE0
:100A3E002510F582E43402F583E0FDEDFF12344B10
:100A4E00805474582510F582E43402F583E0B40125
:100A5E002174592510F582E43402F583E0FE745AB0
:100A6E002510F582E43402F583E0FDEDFF1233D656
:100A7E00802474582510F582E43402F583E0641066
:100A8E0070140000000000000000000000000000D4
:100A9E0000000000000074042510F510020A17E48F
:100AAE00F53EFB7A0079147D01FC121E11020A0D2F
:100ABE00E53B7003020BF1E4F51074002510F5828E
:100ACE00E43402F583E4F00510E510B418EC90025E
:100ADE005FE025E0F51390025DE0FEA3E0FDEEF58C
:100AEE0011EDF51290025CE064017034AF12AE119C
:100AFE0012344BE4F510E510C395135023123499BC
:100B0E0074002510F582E43402F583E4F0740125B7
:100B1E0010F582E43402F583EFF00510051080D64F
:100B2E00E4F53B7B017A027900E513FD7C00121E91
:100B3E00117F647E001233967BFF7A3079F5E4F5EF
:100B4E001AF51BF51CF51D74FFF51EF51FE4FDFCD3
:100B5E001226CD90025BE020E003020ABE900260F6
:100B6E00E075F024A4FDACF0751B07751CE0E4F5F0
:100B7E001DF51E7B11FAAF12AE11122768E4F510A7
:100B8E00E510C395134003020ABE900260E075F0B3
:100B9E0024A4FDACF0C004C005E510C3132402FF6D
:100BAE00E433FE7C007D11120F30AA06AB077400F1
:100BBE002510F582E43402F583E0FE74012510F56C
:100BCE0082E43402F583E0FDEDFF751B00751C1FFA
:100BDE0074FFF51DF51ED005D0041227680510050B
:100BEE0010809DE53D6039E4F51074182510F582EE
:100BFE00E43402F583E4F00510E510B440EC900205
:100C0E00187401F0A37440F0E4A3F0A374F0F0E4C0
:100C1E00F53D7B017A0279187D40FC121E1180C3CE
:010C2E0022A3
:1000460053D9BF75B283E4F5B943B980FF0FBFFF3B
:10005600FC43B9C0E5B930E5FBE4F5A943EF027509
:10006600F1FF75A4FF75A5FF75F2FF75A6FF75AEC6
:10007600FF75F4FF43A717C286C28743E10243E236
:010086004039
:010087002256
:102D8B001200461231CE9030FEE493FE740193FF95
:102D9B00903100E493FC740193FD90020774FFF0F3
:102DAB00A37431F0A3741CF0A374FFF0A37431F07F
:102DBB00A3742CF0903136E49390020DF0903137E0
:102DCB00E49390020EF0903138E493FB74019390EE
:102DDB00020FCBF0A3EBF07BFF7A317902121BBF12
:0C2DEB001233EC75A17075F80F0211177F
:03003D0002323854
:03008B00021F222F
:101F2200C0E0C0F0C083C082C0D075D000C000C085
:0D1F320001C002C003C004C005C006C00706
:101F3F001234AA8F08E50830E27C7B017A027958C7
:101F4F007D401224DF900258E0FFB5300FA3E0B5BB
:101F5F00310AA3E0B53205753601805AEFB532115B
:101F6F00900259E0B5310AA3E0B53005753B018009
:101F7F0045900258E0B5310FA3E0B5300AA3E0B5A4
:101F8F003205753D01802F900258E0FFB5300FA349
:101F9F00E0B5320AA3E0B53105752F018018EFB512
:101FAF003211900259E0B5300AA3E0B53105753E04
:101FBF00018003753C01E50830E70312003DE50899
:101FCF0030E603120046E50830E41A153F153FA826
:101FDF003F760108763F7A007B007C007DEF7E0024
:101FEF007F00122649E50830E51C0533153F153FE4
:101FFF00A83F760108763F7A007B007C007DEF7E5C
:06200F00007F00122649CB
:10201500D007D006D005D004D003D002D001D0001F
:0B202500D0D0D082D083D0F0D0E032C9
:0C3435007FFF1234417FFF1234417FFF03
:093441008FA330FFFDC2FFAFA311
:01344A00225F
:0A34C40075A3FF30FFFDC2FFAFA3A8
:0134CE0022DB
:022F2600AE07F4
:102F2800E4FB123435123435C2FAEE4440FF123451
:102F380041AF21AE20AD1FAC1E7818121094123488
:102F480041AF21AE20AD1FAC1E7810121094123480
:102F580041AF21AE20AD1FAC1E7808121094123478
:102F680041AF211234417F951234417FFF12344121
:0E2F7800BFFF09AE030BEED3946440EFD2FA14
:012F86002228
:10237A00E4FEFA75A90375A23BE4FD7FFF1234411E
:10238A000DBD64F7E4F521F520F51FF51EFF122FA8
:10239A0026AE070AEAD3940A5003BE01DCE4FAE443
:1023AA00F521F520F51FF51E7F37122F26AE070AF5
:1023BA00EAD3946440037F0122BE01E3E4FAF521E3
:1023CA00F520F51FF51E7F29122F26AE070AEAD33C
:1023DA00946440037F0122EE70C5EE601FE4FAE4C4
:1023EA00F521F520F51FF51E7F01122F26AE070AEB
:1023FA00EAD3946440037F0122EE70E3E4F521F509
:10240A0020F51FF51E7F3B122F26AE07E4F5217536
:10241A002002F51FF51E7F10122F2675A201E4F582
:02242A00A9FF08
:01242C00228D
:082E5D008F1C8E1B8D1A8C19CD
:102E6500E4FA75A903AF1CAE1BAD1AAC19780912AB
:102E750010A78F218E208D1F8C1E7F11122F260AE1
:102E8500EAD3940A40037F0122EF70D9C2FA1234C3
:102E9500C4BFFEFAE4FDFC1234C474002DF582743F
:102EA500003CF583EFF00DBD00010CE4B505E8EC41
:0C2EB500B402E412343AD2FAE4F5A9FFAA
:012EC10022EE
:082B44008F188E178D168C15F9
:102B4C00E4FA75A903AF18AE17AD16AC15780912D7
:102B5C0010A78F218E208D1F8C1E7F18122F26AE52
:102B6C00070AEAD3940A40037F0122EE70D7C2FA17
:102B7C007FFF1234417FFE123441FDFC74002DF5B1
:102B8C008274003CF583E0FF1234410DBD00010C52
:102B9C00E4B505E8ECB402E4123435AE07EE541F8C
:102BAC0064056003D2FA227FFF123441EF60F8D241
:052BBC00FAE4F5A9FF99
:012BC10022F1
:10348800E4F912237AEF600809E9D3940340F322A0
:013498002211
:10008E00000000182442424242424242241800001C
:10009E00000000107010101010101010107C0000D6
:1000AE000000003C4242420404081020427E000040
:1000BE000000003C42420418040202424438000090
:1000CE00000000040C14242444447E04041E00008A
:1000DE000000007E40404058640202424438000056
:1000EE000000001C24404058644242422418000084
:1000FE000000007E4444080810101010101000007C
:10010E000000003C4242422418244242423C00007D
:10011E000000001824424242261A0202243800002F
:10012E000000001010182828243C444242E700002A
:10013E00000000F8444444784442424244F800002F
:10014E000000003E424280808080804244380000A1
:10015E00000000F8444242424242424244F800004B
:10016E00000000FC424848784848404242FC0000EB
:10017E00000000FC424848784848404040E00000FB
:10018E000000003C44448080808E8444443800004B
:10019E00000000E7424242427E42424242E70000F5
:1001AE000000007C1010101010101010107C0000B9
:1001BE000000003E0808080808080808080888F02B
:1001CE00000000EE444850705048484444EE000091
:1001DE00000000E0404040404040404042FE0000F1
:1001EE00000000EE6C6C6C6C5454545454D60000E9
:1001FE00000000C7626252524A4A4A4646E2000076
:10020E00000000384482828282828282443800005A
:10021E00000000FC424242427C40404040E0000070
:10022E0000000038448282828282B2CA4C380600B4
:10023E00000000FC4242427C4848444442E3000035
:10024E000000003E4242402018040242427C000060
:10025E00000000FE92101010101010101038000048
:10026E00000000E74242424242424242423C00000B
:10027E00000000E7424244242428281810100000F1
:10028E00000000D692929292AAAA6C4444440000B6
:10029E00000000E7422424181818242442E7000026
:1002AE00000000EE444428281010101010380000F2
:1002BE000000007E840408081020204242FC00004A
:1002CE00001E1010101010101010101010101E0024
:1002DE000000404020201010100808040404020200
:1002EE0000780808080808080808080808087800B0
:1002FE00001C2200000000000000000000000000B2
:10030E00000000000000000000000000000000FFE0
:10031E00006010000000000000000000000000005F
:10032E00000000000000003C421E2242423F00003E
:10033E00000000C0404040586442424264580000F1
:10034E00000000000000001C22404040221C000063
:10035E00000000060202021E22424242261B00003C
:10036E00000000000000003C427E4040423C000085
:10037E000000000F1110107E10101010107C0000E5
:10038E00000000000000003E444438403C42423C25
:10039E00000000C04040405C6242424242E7000022
:1003AE00000000303000007010101010107C0000A3
:1003BE000000000C0C00001C040404040404447827
:1003CE00000000C04040404E4850684844EE0000D7
:1003DE00000000701010101010101010107C000093
:1003EE0000000000000000FE4949494949ED0000A7
:1003FE0000000000000000DC6242424242E70000C2
:10040E00000000000000003C42424242423C00001C
:10041E0000000000000000D864424242447840E0F0
:10042E00000000000000001E22424242221E02076F
:10043E0000000000000000EE3220202020F8000016
:10044E00000000000000003E42403C02427C0000E2
:10045E00000000000010107C10101010100C000096
:10046E0000000000000000C642424242463B00002F
:10047E0000000000000000E74224242810100000B5
:10048E0000000000000000D79292AAAA4444000087
:10049E00000000000000006E2418181824760000DA
:1004AE0000000000000000E742242428181010E08D
:1004BE00000000000000007E44081010227E0000A4
:1004CE0000030404040404080404040404040300E4
:1004DE00080808080808080808080808080808088E
:1004EE000060101010101008101010101010600086
:1004FE00304C43000000000000000000000000002F
:10050E0000000000000000000000000000000000DD
:10051E00000000101010101010100000181800002D
:10052E000012362448000000000000000000000009
:10053E00000000242424FE484848FE484848000095
:10054E0000001038545450301814145454381010ED
:10055E0000000044A4A8A8A8541A2A2A2A4400007D
:10056E0000000030484848506EA4948889760000F8
:10057E0000606020C00000000000000000000000CD
:10058E0000020408081010101010100808040200D1
:10059E00004020101008080808080810102040001D
:1005AE00000000001010D63838D6101000000000E1
:1005BE000000000010101010FE10101010000000AF
:1005CE00000000000000000000000000606020C07D
:1005DE0000000000000000007F000000000000008E
:1005EE00000000000000000000000000606000003D
:1005FE0000000102020404080810102020404000F0
:10060E00000000000000181800000000181800007C
:10061E00000000000000001000000000001010207C
:10062E000000000204081020402010080402000000
:10063E00000000000000FE000000FE0000000000B0
:10064E0000000040201008040204081020400000A2
:10065E000000003C42426202040808001818000024
:10066E0000000038445AAAAAAAAAB442443800008C
:10067E00FFFFFFFFFFFFFFFFFFFFFFFFFFFFFFFF7C
:04344B00AD07AC0617
:10344F00ECF52EC2B0D296C2B18DA0C297D297D250
:01345F00B0BC
:013460002249
:0433D200F808E6FF12
:0433D600AD07AC068D
:1033DA00ECF52EC2B0D296D2B18DA0C297D297D2B6
:0133EA00B032
:0133EB0022BF
:10326300FFAE03EE33333354F84FFFEE25E0FEC4D5
:053273003354E04BFDA7
:10327800C2B0D296D2B18FA0C297D2978DA0C29772
:04328800D297D2B057
:01328C00221F
:0934CF00AD07AC06AF040232782F
:10111700D2857F0A7E00123396C2857F0A7E00122F
:101127003396D2857F0A7E001233967F017E0012A6
:10113700344B7F2C0E1233967FFD7E0012344B7F8B
:10114700061233D60F1233D67F6612344B7F8012C6
:1011570033D612344B7F051233D61233967F807EF7
:101167000012344B7F011233D67F641233967FB659
:101177007E0012344B7F021233D67FA21233D67F02
:101187006012344B7F261233D67F6312344B7F08AD
:101197001233D67F6412344B7F0C1233D67F68121A
:1011A700344B7F701233D67F6912344B7F1F123353
:1011B700D67F6A12344B7FC41233D67F6B12344BFF
:1011C7007F0C1233D67F6C12344B7F181233D67FC5
:1011D7006D12344B7F771233D67F6E12344B7F8478
:1011E7001233D67F6F12344B7F481233D67FF712F4
:1011F700344B7F101233D67F7012344B7F44123337
:10120700D67FF612344B7F011233D67F101233D6B6
:10121700E4FF1233D67FED12344B7FF91233D61227
:1012270033D6E4FF1233D61233D67F111233D6E406
:10123700FF1233D67FE012344B7F101233D67F195B
:101247001233D67F0D1233D67F1A1233D67F071289
:1012570033D67F131233D60F1233D67FE112344BB6
:101267007F2B1233D67F5F1233D67FE212344B7F48
:101277001B1233D67F281233D61233D67F18123378
:10128700D67F151233D67F171233D67FE312344B2E
:101297007F101233D67F171233D67F051233D67FCE
:1012A700131233D67F081233D67F131233D67F0635
:1012B7001233D67FE412344B7F0B1233D67F501292
:1012C70033D67FE512344B7F171233D67F24123380
:1012D700D67F151233D67F171233D61233D67F1F18
:1012E7001233D67F6612344B7F901233D67F671244
:1012F700344B7F071233D67FB112344BE4FF1233DE
:10130700D67F121233D67FEC12344B7F331233D68B
:101317007F161233D61233D6E4FF1233D67F181254
:1013270033D61233D67FFD12344B7FFA1233D60FE2
:101337001233D67F1112344B7F2C0E1233967F3621
:101347007E0012344B7F081233D67F3A12344B7F1C
:0E135700651233D67F2912344B7F0A0233967B
:10263200153F153FA83F760108763F7A007B007C64
:07264200007DEF7E007F0028
:10264900153F153FA83FA60208A603153F153FA849
:102659003FA60408A605153F153FA83FA60608A6EC
:1026690007E4F5A97F2AFE12344BA93FE7FF12338D
:10267900D6A83F08E6FF1233D6A83F0808A900E705
:10268900FF1233D6A83F080808E6FF1233D67F2B7E
:1026990012344BE53F2404F9E7FF1233D6E53F2412
:1026A900041233D2E53F2406F9E7FF1233D6E53F9A
:1026B90024061233D27F2C12344B75A903E53F242B
:0426C90008F53F22AF
:02320600AC0614
:103208008C0CEFF50D122632C2B0D2B1900000AD91
:103218000DAF0C123278A3E58264F0458370F00B91
:0F322800BB00010ABA01E5BB40E2D2B0E4F5A950
:013237002274
:10280200122632C2B0D2B17EF8E4FC7FF8FD123259
:10281200787E077CE07F077DE01232780BBB0001F7
:102822000AEB64EE4A70EAE4FE7C1FFF7D1F12325F
:1028320078F582F5837EF8E4FC7FF8FD123278FAAF
:10284200FBE4FEFCFFFD1232780BBB00010AEB64D5
:10285200EE4A70EDE4FE7C1FFF7D1F123278A3E585
:1028620082B43ED1E583B401CC7EF8E4FC7FF8FD6E
:10287200123278FAFB7E077CE07F077DE012327825
:102882000BBB00010AEB64EE4A70EAE4FF7D1F1203
:062892003278F5A9D2B076
:01289800221D
:0222C5008F0C7C
:1022C700122632C2B0D2B1E475182C751701F51673
:1022D700F515AF0CFCFDFEAB18AA17A916A8151229
:1022E7000F58EF2401F510E43EF50FE43DF50EE439
:1022F7003CF50DE5102518F514E50F3517F513E531
:102307000E3516F512E50D3515F511AF14AE13ADF3
:1023170012AC11AB10AA0FA90EA80DC3121083504F
:102327004FAF10AE0FAD0EAC0D122E5DE4FBFAC32E
:10233700EA9402502474002BF58274003AF583E086
:10234700FF74012BF58274003AF583E0FD123278B1
:1023570074022BFBE43AFA80D6E5102401F510E469
:10236700350FF50FE4350EF50EE4350DF50D809BB1
:02237700D2B0E2
:012379002241
:10176700122632E4F50CF50DE4FDFF123278050D73
:10177700E50D7002050CC39410E50C940040E9E4F4
:10178700F50CF50DE4F50EF50FE50DAE0C7803C37A
:1017970033CE33CED8F9FFE4FD123278050FE50FCB
:1017A7007002050EC39407E50E940040DC050DE5B5
:1017B7000D7002050CC39420E50C940040C60BBBCA
:1017C70000010AEB64504A709AE4FAFBE4F50CF561
:1017D7000DE4FDFF123278050DE50D7002050CC30F
:1017E7009410E50C940040E9E4F50CF50DE4F50ED2
:1017F700F50FE50D25E0FDE50C33FCEDAE047803B0
:10180700CEC313CE13D8F9FFC007EDAE047805C3D6
:1018170033CE33CED8F9FDD007123278050FE50F56
:101827007002050EC39407E50E940040C5050DE54B
:101837000D7002050CC39420E50C940040AF0BBB60
:1018470000010AEB64504A7083E4FAFBE4F50CF5F7
:101857000DE4FDFF123278050DE50D7002050CC38E
:101867009410E50C940040E9E4F50CF50DE4F50E51
:10187700F50FAD0DE4FF123278050FE50F70020585
:101887000EC39407E50E940040E8050DE50D7002C0
:10189700050CC39420E50C940040D20BBB00010A51
:1018A700EB64504A70A6E4FAFBE4F50CF50DE4FD91
:1018B700FF123278050DE50D7002050CC39410E593
:1018C7000C940040E9E4F50CF50DE4F50EF50FE591
:1018D7000D25E0FFE50C33FEEF7803CEC313CE13DF
:1018E700D8F9FFAE0DEE33333354F84FFFEE25E052
:1018F700FEC43354E0450DFD123278050FE50F7035
:1019070002050EC39407E50E940040C3050DE50DCF
:101917007002050CC39420E50C940040AD0BBB008E
:0A192700010AEB64504A7081D2B04F
:011931002293
:10203000122632C3EA94005023E4F50EF50FE4FDB6
:10204000FF123278050FE50F7002050EC394F0E51C
:102050000E940040E90BBB00010A80D7E4FAFBE4D0
:10206000F50CF50DE4F50EF50FEBAE027803C33376
:10207000CE33CED8F9FFE4FD123278050FE50F70AC
:1020800002050EC3943CE50E940040DDE4F50EF528
:102090000FEB25E0FDEA33FCEDAE047803CEC3136D
:1020A000CE13D8F9FFC007EDAE047805C333CE33A5
:1020B000CED8F9FDD007123278050FE50F70020572
:1020C0000EC3943CE50E940040C7E4F50EF50FAD49
:1020D00003E4FF123278050FE50F7002050EC3947A
:1020E0003CE50E940040E8E4F50EF50FEB25E0FF2B
:1020F000EA33FEEF7803CEC313CE13D8F91232635E
:10210000050FE50F7002050EC3943CE50E940040E8
:10211000DB050DE50D7002050CC3940AE50C940077
:1021200050030220640BBB00010AEB64204A6003E9
:0321300002205F2B
:012133002289
:102AC300122632C2B0D296D2B1C3EA94005023E4A4
:102AD300F50EF50FE4FDFF123278050FE50F7002D6
:102AE300050EC394F0E50E940040E90BBB00010A08
:102AF30080D7E4FAFBE4F50CF50DE4F50EF50FEBE6
:102B0300AE027803C333CE33CED8F9FFE4FD1232DD
:102B130078050FE50F7002050EC394F0E50E9400DF
:102B230040DD050DE50D7002050CC3940AE50C9418
:102B33000040C70BBB00010AEB64204A70B7D2B058
:012B4300226F
:10289900122632C2B0D296D2B1C3EA94005023E4D0
:1028A900F50EF50FE4FDFF123278050FE50F700202
:1028B900050EC394F0E50E940040E90BBB00010A34
:1028C90080D7E4FAFBE4F50CF50DE4F50EF50FEB12
:1028D900AE027803CEC313CE13D8F9FFC007EBAE0F
:1028E900027805C333CE33CED8F9FDD0071232783A
:1028F900050FE50F7002050EC394F0E50E94004034
:10290900CE050DE50D7002050CC39405E50C940088
:0F29190040B80BBB00010AEB64404A70A8D2B073
:01292800228C
:102DF700122632C2B0D296D2B1C3EA9400501BE475
:102E0700F583F582E4FDFF123278A3E58264F0458D
:102E17008370F10BBB00010A80DFE4FAFBE4F50CD9
:102E2700F50DE4F583F582AD03E4FF123278A3E5EF
:102E37008264F0458370F0050DE50D7002050CC343
:102E4700940AE50C940040DA0BBB00010AEB6420FE
:052E57004A70CAD2B070
:012E5C002253
:102A4000122632C2B0D296D2B1C3EA94005023E427
:102A5000F50EF50FE4FDFF123278050FE50F700259
:102A6000050EC394F0E50E940040E90BBB00010A8B
:102A700080D7E4FAFBE4F50CF50DE4F50EF50FEB69
:102A800025E0FFEA33FEEF7803CEC313CE13D8F967
:102A9000123263050FE50F7002050EC394F0E50EC8
:102AA000940040DB050DE50D7002050CC3940AE5AA
:102AB0000C940040C50BBB00010AEB64204A70B5C2
:022AC000D2B092
:012AC20022F1
:1029B500122632C2B0D296D2B1E4F50CF50DE4FB85
:1029C500FAC3EA9400500DE4FDFF1232780BBB0008
:1029D500010A80EDE4FAFBE4F50EF50FEBAE0278A3
:1029E50002C333CE33CED8F97803CEC313CE13D872
:1029F500F9FFEB25E0FE33333354F84FFFEB25E0C9
:102A050025E0C43354E04EFD123278050FE50F7012
:102A150002050EC3940FE50E940040C00BBB0001E8
:102A25000AEB64104A70B0050DE50D7002050CC384
:0A2A35009440E50C94014086D2B0F5
:012A3F002274
:102D1D00122632C2B0D296D2B1E4F50CF50DE4FB19
:102D2D00FAE4FDFF1232780BBB00010AEB64104A86
:102D3D0070EFE4FAFBE4F50EF50FEB25E0FFEA3357
:102D4D00FEEF7803CEC313CE13D8F9123263050FFD
:102D5D00E50F7002050EC39407E50E940040DB0BE2
:102D6D00BB00010AEB64204A70CB050DE50D700226
:0D2D7D00050CC39440E50C940140A3D2B0B6
:012D8A002226
:101A8300122632E4F583F582E4FD7FF8123278A35F
:101A9300E58264F0458370F00BBB00010AEB642818
:101AA3004A70E0E4FAFBE4F583F5827DE07F0712F8
:101AB3003278A3E58264F0458370F00BBB00010A22
:101AC300EB64284A70E0E4FAFBE4F583F5827D1FBA
:101AD300E4FF123278A3E58264F0458370F00BBB18
:101AE30000010AEB64284A70E0E4FAFBE4F583F5AD
:101AF300827DE07FFF123278A3E58264F045837034
:101B0300F00BBB00010AEB64284A70E0E4FAFBE443
:101B1300F583F5827D1F7FF8123278A3E58264F0A6
:101B2300458370F00BBB00010AEB64284A70E0E4C4
:101B3300FAFBE4F583F5827DFF7F07123278A3E594
:101B43008264F0458370F00BBB00010AEB64284A02
:101B530070E0E4FAFBE4F583F5827DFF7FFF123248
:101B630078A3E58264F0458370F00BBB00010AEBB8
:101B730064284A70E0E4FAFBE4F583F582E4FDFFB0
:101B8300123278A3E58264F0458370F10BBB000148
:101B93000AEB64284A70E1E4FAFBC3EA9400501BA1
:101BA300E4F583F582E4FDFF123278A3E58264F065
:0B1BB300458370F10BBB00010A80DFCE
:011BBE002204
:102F8700EFC3942050047F5F8050EFC39420400C20
:102F9700EFD3942F5006EF2428FF803EEFC39430E1
:102FA700400CEFD39439500674D02FFF802CEFC319
:102FB700943A400CEFD394405006EF241EFF801A3A
:102FC700EFC39441400CEFD3947E5006EF24C9FF22
:0B2FD7008008EFD3947E40027F5F2251
:10258E00FDE43517FC851B25851C26851D27851E1C
:05259E0028AB1AAA1988
:0625A3008F20AF05AE041D
:1025A900EB240FFDE43A153F153FA83FF608A605B1
:1025B900EF2407FDE43EFC122649AF207E00D3EF4D
:1025C900945FEE940040027F5FEFC4F8540FC8682F
:1025D900FFEEC454F048FE752AFF752B00752C8E4A
:1025E900EF252CF52CEE352BF52BE4F529AB2A0537
:1025F9002CE52CAA2B7002052B14F9120EEAFBE428
:10260900FAEBA802088002C333D8FC30E706AF26EC
:10261900AE258004AF28AE271234CF0ABA08E205E6
:0826290029E529C3941040C506
:012631002286
:1026CD008B158A1689178C188D19AB15AA16A91793
:1026DD00120EEA7003D38001C34066AB150517E5F2
:1026ED0017AA167002051614F9120EEAFF122F879B
:1026FD00851C25851D26851E27851F28AB1BAA1A1F
:10270D00AD19AC181225A3D3E51994E7E51894007B
:10271D004012E4F518F5197410251BF51BE4351A54
:10272D00F51A800B74082519F519E43518F518D329
:10273D00E51B942FE51A94014090E4F51AF51B80E2
:10274D0089153F153FA83F760108763F7A007B003B
:0B275D007C007DEF7E007F000226491B
:102768008E158F168C178D188A198B1AD3E5189425
:10277800CFE517940040067517007518CFD3E51AF2
:10278800942FE5199401400CE51A24EFF51AE51980
:1027980034FFF519E515C4540FFF851B25851C2644
:1027A800851D27851E28AB1AAA19AD18AC17122546
:1027B800A3E515540FFFE518240812258EE515C466
:1027C800F854F0C8E516C4540F48540FFFE5182410
:1027D8001012258EE516540FFFE518241812258EC1
:1027E800153F153FA83F760108763F7A007B007CAD
:0A27F800007DEF7E007F00022649FD
:10349900C2B0D2B1D297C296D2B0E515FEE516FFF9
:0134A9002200
:103405007F287E0012344B7F0A1233967F107E0090
:0834150012344B7F780233965C
:10341D007F117E0012344B7F781233967F297E0008
:08342D0012344B7F0A023396B2
:10328D008A0C8B0DED2402FBE43C153F153FA83F46
:10329D00F608A603AB05AA04EF2401FDE43EFC12DB
:0A32AD002649E50CFFAD0D02327852
:0C2EC2008E108F118C128D138A148B154A
:102ECE00153F153FA83FA61608A617AA14AB15ACBA
:102EDE0012AD13AE10AF11122649AB15AA14E51799
:102EEE002401FFE43516FEC3EB9FEA9E502985119F
:102EFE0082851083E5132401FFE43512FEC3E582BB
:102F0E009FE5839E500AAF19AE181234CFA380E40A
:072F1E000BBB00010A80C794
:012F25002289
:042BC2008E0C8F0DD9
:102BC600750E00750F0FC3E50F943FE50E94015087
:102BD60027850E16850F17850C18850D19AB0FAABC
:102BE6000E7DEF7C00E4FFFE122EC27410250FF559
:102BF6000FE4350EF50E80CE750E00750F0FC3E58A
:102C06000F94EFE50E9400502775160175173F8552
:102C16000C18850D19E4FBFAAD0FAC0EAF0FAE0E16
:102C2600122EC27410250FF50FE4350EF50E80CE68
:012C3600227B
:0834D8005450205445535400E8
:10332E00C294C295E4900233F0EF20E704C2B2805B
:10333E0002D2B2D295EF25E0FFC295900233E0049F
:05334E00F0E0B408E40A
:013353002257
:102C37009002341210E600000000C294D2B3E49070
:102C47000233F0900233E0FFC3940C5049C2953031
:102C5700B33AC3740B9FFF74017E00A80708800571
:102C6700C333CE33CED8F9FFEE3395E0FDFC9002A7
:102C770034E0F8A3E0F9A3E0FAA3E04FFFEA4EFE41
:102C8700E94DFDE84CFC9002341210DAD29590021F
:102C970033E004F080ADD294900234A3A3E0FEA306
:022CA700E0FF4C
:012CA9002208
:021CF600AB073A
:101CF800E490021AF0A3F0A3F0D2B590021AE0C360
:101D0800940B502C20B529C294EB04FF12332E12E9
:101D18002C3790021AE025E0241DF582E43402F500
:101D280083EEF0A3EFF090021AE004F0D29480CB97
:101D380090021AE07003021E0DE4A3F090021AE06C
:101D4800F9A3E0C3994003021DF9E4A3F090021B34
:101D5800E0FF90021AE0C39FFF90021CE0C39F407F
:101D680003021DF0E0FF25E0241FF582E43402F5AC
:101D780083E0FCA3E0FDEF25E0241DF582E43402B6
:101D8800F583E0FEA3E0D39DEE9C405390021CE057
:101D980025E0241DF582E43402F583E0FCA3E0FD90
:101DA800900218ECF0A3EDF0EF25E0241FF582E493
:101DB8003402F583E0FEA3E0FF90021CE0FB25E07F
:101DC800241DF582E43402F583EEF0A3EFF0EB2551
:101DD800E0241FF582E43402F583ECF0A3EDF090E3
:101DE800021CE004F0021D5590021BE004F0021DE5
:101DF80044E9C31325E0241DF582E43402F583E0A9
:081E0800FEA3E0FF22E4FEFF4F
:011E100022AF
:101598009002001210E6000000009002041210E60B
:1015A800000000009002081210E6000000009002FF
:1015B8000C1210E6000000009002101210E6000065
:1015C80000009002141210E600000000E4FFFE1272
:1015D8003206D2B520B5FD20B60302173C7F327E15
:1015E8000012339630B5030217327FD0121CF6E48E
:1015F800FCFD9002081210DA900208E0FCA3E0FD5E
:10160800A3E0FEA3E024BDFFEE34FFFEED34FFFDB2
:10161800EC34FFFCE47BF0FAF9F8120F58E47BA5F0
:101628007A02F9F8120FE3E4120D357BB87A1E79C5
:1016380045783F120C2F120D739002001210DA7FBA
:1016480090121CF6E4FCFD90020C1210DA90020CC9
:10165800E0FCA3E0FDA3E0FEA3E024A0FFEE34FF3E
:10166800FEED34FFFDEC34FFFCE47B407A01F9F831
:10167800120F58E4FB7A03F9F8120FE3E4120D3560
:101688007B337A337973783F120C2F120D739002E3
:10169800041210DA7F0F7E0012339630B50302155C
:1016A800ECE4FFFEFDFC900200E0F8A3E0F9A3E003
:1016B800FAA3E0FBC312108350030215ECE47FF099
:1016C800FEFDFC900200E0F8A3A3A3E01210834003
:1016D800030215ECE4FFFEFDFC900204E0F8A3E031
:1016E800F9A3E0FAA3E0FBC312108350030215EC40
:1016F800E47F407E01FDFC900204E0F8A3A3A3E090
:1017080012108340030215EC900200A3A3E0FEA38D
:10171800E0FFC006A3A3A3E0FEA3E0FDAC06D0064D
:101728007B007AF812328D0215EC7F327E0012337C
:10173800960215DFE4FFFE1232067FB57EAD122B4E
:10174800C27BFF7A3479D8E4F51AF51BF51CF51D30
:0F17580074FFF51EF51FE4FDFC1226CD0215DF10
:100003001201100100000040C410000000000102B2
:1000130003010902200001010080FA090400000223
:10002300FF000000070502024000000705820240AE
:0A00330000000403090401000000AE
:101BBF00900200EEF0A3EFF0900204EBF0A3EAF036
:101BCF00A3E9F0E4900791F0900791E0FF900003F4
:101BDF0093FE74402FF582E43407F583EEF09007FF
:101BEF0091E004F0E0B412E0E4900791F0900791D7
:101BFF00E0FF90001593FE74522FF582E43407F541
:101C0F0083EEF0900791E004F0E0B420E090020042
:101C1F00E0FEA3E0900748F0EEA3F0A3EDF0ECA3F5
:101C2F00F090077274FFF0A37400F0A37435F09076
:101C3F000204E0F9A3E0FAA3E0900775C9F0A3EA64
:101C4F00F0A3E9F0900207E0F9A3E0FAA3E0900710
:101C5F0078C9F0A3EAF0A3E9F090020AE0F9A3E053
:101C6F00FAA3E090077BC9F0A3EAF0A3E9F0900292
:101C7F000DE0FFC394FA500590075AEFF090020E53
:101C8F00E0900759F090020FE0FEA3E090074CF0B0
:101C9F00EEA3F0E59620E7FB759601759708E5969C
:101CAF0020E7FB75960775970FE59620E7FB75966E
:101CBF000975970EE59620E7FB75960B75970775D7
:101CCF00D7E01234B8E4900793F0900792F09007A2
:101CDF0094F0900786F043E602D2AFE59620E7FB3B
:071CEF0075960175970122B3
:1032E0009007867402F0E59620E7FB7596017597C6
:1032F00001E490078EF0A37403F0A3F0E490079329
:07330000F090079204F02297
:10136500E59620E7FB75960EE4F597E59620E7FBF5
:10137500759691E59620E7FB90079EE597F0E0FFCF
:1013850030E210E59620E7FB759611E4F597900796
:101395008EF022EF30E410E59620E7FB7596117587
:1013A5009780E490078EF090078EE0600302149614
:1013B50090079EE020E0030214967596204396C0A0
:1013C500E4900791F0E59620E7FB900791E0247EF5
:1013D500F582E43407F583E597F0900791E004F092
:1013E500E0B407E1E59620E7FBE4F596900791E088
:1013F500247EF582E43407F583E597F0900781E0D4
:10140500FE900780E07C002400FFEC3E900795F0FD
:10141500A3EFF0900785E0FE900784E02400FFEC41
:101425003E900797F0A3EFF090077FE0B40C0050D3
:101435005D90143DF82828730214610214660214A5
:101445006B02147002149302147502147A02149339
:1014550002147F02148402148902148E122CAA80AD
:101465003012303C802B122134802612309480219A
:10147500123376801C12242D8017123187801212A8
:101485002FE2800D12330780081234618003123376
:10149500B590078EE06401600302159790079E746E
:1014A50002F0C390078DE0944090078CE0940040D3
:1014B50061E59620E7FB759620E4900791F090078B
:1014C50091E0FFC394405022900787E0FBA3E0FA28
:1014D500A3E0F98F82758300120F03F597E5962037
:1014E500E7FB900791E004F080D4900788E475F05D
:1014F50040120F4290078DE024C0F090078CE03435
:10150500FFF090078BE02440F090078AE03400F06C
:101515008052E59620E7FB759620E4900791F090C0
:101525000791E0FFD390078DE09F90078CE0940032
:101535004026900787E0FBA3E0FAA3E0F990079126
:10154500E0F582758300120F03F597E59620E7FB1A
:10155500900791E004F080C790079EE04408F0E40E
:1015650090078EF0900797E0FEA3E0FF90078AE0D2
:10157500B50611A3E0B5070C90079EE04408F0E41A
:1015850090078EF0E59620E7FB75961190079EE093
:03159500F59722A5
:1033B500E59620E7FB75960EE4F597E59620E7FB85
:0D33C50075961175972090078E7404F02204
:102CAA0090077EE0247F6007146006240270488043
:102CBA002D90078FE0B40309900782E0B4020280E6
:102CCA000E900790E0B40316900782E0B4820F904A
:102CDA00078774FFF0A37400F0A37439800D90077E
:102CEA008774FFF0A37400F0A3743BF090078CE4A0
:102CFA00F0A37402F080031233B590078EE06404E7
:102D0A00601012346190078E7401F0E490078AF023
:032D1A00A3F02201
:10303C00900780E07041900782E0B4021DE5962075
:10304C00E7FB75960E759702E59620E7FB759614CF
:10305C00759780E490078FF08020E59620E7FB754C
:10306C00960E759702E59620E7FB759611759740BD
:10307C00E4900790F080031233B5E59620E7FB75DA
:08308C00960EE4F59702346191
:10213400900796E020E0030221CA900794E030E083
:102144000854FEF04402F08007900794E054FDF038
:10215400E59620E7FB75960E759702E59620E7FB5A
:10216400759614759710E59620E7FB75961175978B
:1021740008E59620E7FB759694E59620E7FB900723
:102184009DE597F0E020E4E9E59620E7FB759614D9
:10219400759710E59620E7FB759691E59620E7FB89
:1021A40090079DE597F0E020E3E9E59620E7FB75CD
:1021B40096117597089007927408F0900794E0FFC1
:1021C40030E1034401F0900795E0FCA3E0FD30E129
:1021D4000D9007867406F0900792E04410F0ED30FD
:1021E400E20D9007867404F0900792E04420F0E535
:0D21F4009620E7FB75960EE4F59702346126
:10309400900780E07040900782E0B4021BE5962020
:1030A400E7FB75960E759702E59620E7FB75961477
:1030B40075972090078F8019E59620E7FB75960E8B
:1030C400759702E59620E7FB7596117597109007A2
:1030D400907403F080031233B5E59620E7FB7596F0
:0730E4000EE4F597023461D0
:10337600E59620E7FBE4F596900780E0FFF597EFEA
:1033860090078660057403F080037402F0023461CE
:10242D00900781E024FE601B14603B2402706990CC
:10243D0007877401F0A37407F0A37440F090074070
:10244D00E0804A9007877401F0A37407F0A37452DB
:10245D00F0900755E0FE900754E07C002400FFEC5F
:10246D003E90078C802C900780E075F003A42472B9
:10247D00F582E43407F583E0FBA3E0FAA3E0F990DD
:10248D000787EBF0A3EAF0A3E9F0120EEAFF90073D
:10249D008CE4F0A3EFF080031233B590078CE0FECF
:1024AD00A3E0FF900797E0FCA3E0FDC39FEC9E50D7
:1024BD000890078CECF0A3EDF090078EE0640460BB
:1024CD001012346190078E7401F0E490078AF0A326
:0224DD00F022EB
:10318700900786E0FFB40414A374FFF0A37400F063
:10319700A37439F090078CE4F0A304F0EFB403169E
:1031A70090078774FFF0A37400F0A3743BF09007B7
:1031B7008CE4F0A304F012346190078E7401F0E4FC
:0731C70090078AF0A3F0223B
:102FE200900780E0D394004042900792E04440F082
:102FF2009007867404F0E490078FF0A3F0E5962022
:10300200E7FB75960E759702E59620E7FB7596121B
:10301200759784E59620E7FB759615759780E5967A
:1030220020E7FB75960EE4F597800C9007867403F3
:0A303200F090078FF0A3F002346164
:1033070090078774FFF0A37400F0A3743BF0900755
:103317008CE4F0A304F012346190078E7401F0E49A
:0733270090078AF0A3F022D9
:1034610090078EE06404600BE59620E7FB759611EA
:0434710075974022E9
:030043000219326D
:10193200C0E0C0F0C083C082C0D075D000C000C07B
:1019420001C002C003C004C005C006C0079007A1C1
:10195200E596F0E59620E7FB75968EE59620E7FB87
:101962009007A2E597F0E59620E7FB759686E59647
:1019720020E7FB900799E597F0E030E30BE596202E
:10198200E7FB75960B759707900799E030E2031213
:1019920032E0900799E030E014900786E0FF64049B
:1019A2006004EFB40607900792E04480F0E59620C9
:1019B200E7FB759682E59620E7FB900799E597F09D
:1019C200E030E003121365900799E030E22AE596D1
:1019D20020E7FB75960E759702E59620E7FB759654
:1019E20091E59620E7FB90079AE597F0E0540370A3
:1019F20007900792E04402F0E59620E7FB75968493
:101A0200E59620E7FB900799E597F0E030E229E5BB
:101A12009620E7FB75960E759702E59620E7FB7513
:101A22009694E59620E7FB90079AE597F0E030E080
:101A320007900792E04404F0E59620E7FB75960EC6
:101A42009007A2E0F597E59620E7FB9007A1E596BF
:101A5200F0E59620E7FB900794E030E009900792CA
:101A6200E06003123354D007D006D005D004D0036F
:101A7200D002D001D000D0D0D082D083D0F0D0E03C
:011A82003231
:1031CE00E5B964E0602E53A90FC0A943B280E5A90A
:1031DE005407D394014003E4F5A9E4F5B943B9804B
:1031EE00E4D5E0FD43B9C0E5B930E5FBD0E0B4026B
:0831FE000343A90253A90F22AB
:1032380053D7BF43C910E5A95402900791F043B290
:103248008075A910E4F5B943B220001231CE900779
:0B32580091E042A953C9EF43D7402288
:0E34AA00900792E0FFE4F022900792E0FF22EC
:1024DF00900786E0B40606EDD3944040037F0022B8
:1024EF00E59620E7FB75960E759702E59620E7FBBC
:1024FF00759694E59620E7FB90079CE597F0E02012
:10250F00E00302258BE59620E7FB759696E596206E
:10251F00E7FB900793E597F0E0FFEDC39F5006AE02
:10252F0005AF068000900793EFF053E6FDE5962088
:10253F00E7FB7596E2900793E06025FEEB600630AF
:10254F00E70F7F0022E59620E7FBA79709DEF680CD
:10255F000F89828A83E59620E7FBE597F0A3DEF5E6
:10256F00E59620E7FBE4F596E59620E7FB759614D4
:0F257F00E4F59743E602900793E0FF227F0022E6
:101E1100900786E0B4060DED4C6009D3ED9400EC1B
:101E210094104004E4FEFF2253E6FDE490079FF086
:101E3100A3F090079BF089828A83C083C0829007B8
:101E41009BE030E003021F12E59620E7FB75960E3A
:101E5100759702E59620E7FB759691E59620E7FBDD
:101E610090079BE597F0E030E020E59620E7FB75D1
:101E7100960EE4F597E59620E7FB759691E5962099
:101E8100E7FB90079BE597F080B4C3ED9440EC9499
:101E9100009007A0E0401B2440F090079FE0340031
:101EA100F074C02DFD74FF3CFCE490079BF078407A
:101EB10080132DF090079FE03CF090079B7401F098
:101EC100A805E4FCFDE59620E7FB759622D082D0BB
:101ED10083E8602BEB601130E71AE59620E7FBE41D
:101EE10093F597A3D8F48017E59620E7FB87970928
:101EF100D8F6800BE59620E7FBE0F597A3D8F5C06F
:101F010083C082E59620E7FB759611759701021E45
:101F11003FD082D08343E60290079FE0FEA3E0FF1B
:011F2100229D
:1033EC00900794E04401F0900792E0600BE5962082
:0933FC00E7FB75960B75970F2293
:0C34B800E59620E7FB75960F75978922BA
:10335400D007D007D007D006D005D004D003D002C0
:10336400D001D000D0D0D082D083D0F0D0E0020001
:023374008B22AA
:100C2F00EC4D6011E8497017ED33EC3304600DE4BF
:100C3F00FCFFFEFD22E933E8330470F8020DDF12EA
:100C4F000DAA58046009E4CC2481500628500902EB
:100C5F000DE9284003020DE6C0E0EB4A7044B9806D
:100C6F0006D0E0FB020DD5EF4E701CBD8008EBFFE8
:100C7F00EAFEE9FD80EBE98DF0A4FEE5F0020D1828
:100C8F00E9CDF9EAFEEBFFEF89F0A4FCE5F0CE89A0
:100C9F00F0A42EFFE435F0CD89F0A42DFEE435F05D
:100CAF008067EF4E7005BD80D780C3EF8BF0A4AC8B
:100CBF00F0EE8BF0A42CFCE435F0F8EF8AF0A42CC6
:100CCF00E5F038FCE433CB8DF0A42CFCE5F03BF8D9
:100CDF00EE8AF0A42CFCE5F038F8E433CF89F0A4C9
:100CEF002CFCE5F038CF3400CE89F0A42FFFE5F0CF
:100CFF003EFEE433C98DF0A42EFEE5F039CD8AF027
:100D0F00A42FFFE5F03EFEE43DFD33D0E0FB50079E
:100D1F000BBB000F020DE9EC2CFCEF33FFEE33FEA3
:060D2F00ED33FD020DC1D1
:100D350075F020800E75F010800575F0087D007E39
:100D4500007F003392D530D503121075EC33401077
:100D5500EF33FFEE33FEED33FDEC33FCD5F0ED2242
:0E0D6500E5F0247EA2D513CC92E7CDCEFF227E
:100D7300EDD2E7CD33EC3392D524814006E4FFFE78
:100D8300FDFC22FCE4CFCECDCC24E0501174FF80D7
:100D9300EDC3CC13CCCD13CDCE13CECF13CF047074
:070DA300F030D5DE021075EF
:100DAA00E9D2E7C933E833F892D5EDD2E7CD33EC8F
:070DBA0033FC5002B2D52208
:100DC100EC30E7100FBF000C0EBE00080DBD000493
:100DD1000BEB6014A2D5EB13FCED92E7FD2274FF3F
:100DE100FCFDFEFF22E480F8A2D574FF13FC7D8098
:030DF100E480EFAC
:03000000022929A9
:0C292900787FE4F6D8FD75813F0229702C
:100DF400E709F608DFFA8046E709F208DFFA803EE1
:100E040088828C83E709F0A3DFFA8032E309F608CD
:100E1400DFFA8078E309F208DFFA807088828C8335
:100E2400E309F0A3DFFA806489828A83E0A3F608E9
:100E3400DFFA805889828A83E0A3F208DFFA804CC3
:100E440080D280FA80C680D4806980F2803380109A
:100E540080A680EA809A80A880DA80E280CA803303
:100E640089828A83ECFAE493A3C8C582C8CCC5837B
:100E7400CCF0A3C8C582C8CCC583CCDFE9DEE7804B
:100E84000D89828A83E493A3F608DFF9ECFAA9F0CA
:100E9400EDFB2289828A83ECFAE0A3C8C582C8CC20
:100EA400C583CCF0A3C8C582C8CCC583CCDFEADE39
:100EB400E880DB89828A83E493A3F208DFF980CC9B
:100EC40088F0EF60010E4E60C388F0ED2402B40494
:100ED4000050B9F582EB2402B4040050AF2323453B
:060EE4008223900E44730E
:100EEA00BB010689828A83E0225002E722BBFE0206
:090EFA00E32289828A83E4932239
:100F0300BB010CE58229F582E5833AF583E02250A3
:100F130006E92582F8E622BBFE06E92582F8E222ED
:0D0F2300E58229F582E5833AF583E4932207
:100F3000EF8DF0A4A8F0CF8CF0A428CE8DF0A42ED5
:020F4000FE228F
:100F4200C5F0F8A3E028F0C5F0F8E582158270023A
:060F52001583E038F022D7
:100F5800E88FF0A4CC8BF0A42CFCE98EF0A42CFC38
:100F68008AF0EDA42CFCEA8EF0A4CDA8F08BF0A4B6
:100F78002DCC3825F0FDE98FF0A42CCD35F0FCEB15
:100F88008EF0A4FEA9F0EB8FF0A4CFC5F02ECD39DA
:0F0F9800FEE43CFCEAA42DCE35F0FDE43CFC2247
:100FA70075F008758200EF2FFFEE33FECD33CDCC01
:100FB70033CCC58233C5829BED9AEC99E582984084
:100FC7000CF582EE9BFEED9AFDEC99FC0FD5F0D661
:100FD700E4CEFBE4CDFAE4CCF9A88222B800C1B98B
:100FE7000059BA002DEC8BF084CFCECDFCE5F0CBC9
:100FF700F97818EF2FFFEE33FEED33FDEC33FCEB02
:1010070033FB10D703994004EB99FB0FD8E5E4F9BC
:10101700FA227818EF2FFFEE33FEED33FDEC33FCA9
:10102700C933C910D7059BE99A4007EC9BFCE99A9D
:10103700F90FD8E0E4C9FAE4CCFB2275F010EF2FE2
:10104700FFEE33FEED33FDCC33CCC833C810D707E2
:101057009BEC9AE899400AED9BFDEC9AFCE899F81D
:0E1067000FD5F0DAE4CDFBE4CCFAE4C8F922B0
:0E107500C3E49FFFE49EFEE49DFDE49CFC228C
:10108300EB9FF5F0EA9E42F0E99D42F0E89C45F0C3
:01109300223A
:10109400E8600FECC313FCED13FDEE13FEEF13FF3A
:0310A400D8F1225E
:1010A700E8600FEFC333FFEE33FEED33FDEC33FCA7
:0310B700D8F1224B
:1010BA007401FF3395E0FEFDFC080808E6CF2FF621
:1010CA0018E6CE3EF618E6CD3DF618E6CC3CF622FA
:0C10DA00ECF0A3EDF0A3EEF0A3EFF02289
:1010E600A8828583F0D083D0821210FD1210FD12E3
:1010F60010FD1210FDE473E493A3C583C5F0C58308
:10110600C8C582C8F0A3C583C5F0C583C8C582C853
:0111160022B6
:10293500022201E493A3F8E493A34003F68001F295
:1029450008DFF48029E493A3F85407240CC8C333A3
:10295500C4540F4420C8834004F456800146F6DF72
:10296500E4800B01020408102040809032B7E47E19
:10297500019360BCA3FF543F30E509541FFEE49367
:10298500A360010ECF54C025E060A840B8E493A32E
:10299500FAE493A3F8E493A3C8C582C8CAC583CA59
:1029A500F0A3C8C582C8CAC583CADFE9DEE780BE11
:0132DF0000EE
:00000001FF
