:1030D30055534220444542554700555342205245DB
:1030E30041440010C4EA611A03530069006C00698B
:1030F3000063006F006E0020004C006100620073EB
:1031030000100355005300420020004100500049C5
:10311300000A0343003500310046000F800100011F
:10335400012300012A00012F000131000132000184
:10336400300001270002280000042B0000000101A6
:0833740024AA0125550126FFE2
:10312300122D7130B644E4FFFE12326D7FE87E0348
:103133001233F57F007EF812326D1233F17FE07E99
:103143000712326D1233F17F1F7E0012326D12337C
:10315300F11226A97FC87E001233F574FFFFFE1219
:0B316300326D1233F11216E780B92222
:0433F1007F647E0077
:1033F500E4FDFCC3ED9FEC9E5014E4FBFA0BBB000F
:0E340500010AEBF44A70F60DBD00010C80E5E3
:013413002296
:04316E008E478F48B1
:10317200E4F549F54A30B720E4FFFEC3EF9548EE87
:103182009547501EE4FDFC0DBD00010CEDF44C70A2
:10319200F60FBF00010E80E31234B67F147E0012D8
:1031A20033F5054AE54A70020549C39464E549943A
:0331B2000040C218
:0131B50022F7
:1034B60030B60512068E80F87FF47E011233F530A1
:0334C600B6FD222E
:10068E0078417C007D007BFF7A3179227E007F01EC
:10069E00120EC0E52A7003020859753D01E53D258D
:1006AE00E025E02458F582E43402F583E07029E574
:1006BE003D25E025E02459F582E43402F583E0FE81
:1006CE00E53D25E025E0245AF582E43402F583E089
:1006DE00FDEDFF1232D2803BE53D25E025E02458AA
:1006EE00F582E43402F583E064017027E53D25E0F0
:1006FE0025E02459F582E43402F583E0FEE53D253C
:10070E00E025E0245AF582E43402F583E0FDEDFFA6
:10071E001232A5053DE53DC3941040810000000056
:10072E0000000000000000000000000000000000BB
:10073E007BFF7A3079D3E4F50FF510F511F51274CD
:10074E00FFF513F514E4FDFC12274490025BE02044
:10075E00E00302083F753D01E53D25E025E0245804
:10076E00F582E43402F583E07054E53D25E025E0A2
:10077E002459F582E43402F583E0FEE53D25E025BB
:10078E00E0245AF582E43402F583E0FDEDFFE53D09
:10079E0025E025E0245BF582E43402F583E075F074
:1007AE0024A4FDACF0E53D75F011A4FBAAF075395B
:1007BE0007753AE0E4F53BF53C1227DF8067E53D2F
:1007CE0025E025E02458F582E43402F583E0640147
:1007DE007053E53D25E025E02459F582E43402F519
:1007EE0083E0FEE53D25E025E0245AF582E434025F
:1007FE00F583E0FDEDFFE53D25E025E0245BF58288
:10080E00E43402F583E075F024A4FDACF0E53D750B
:10081E00F011A4FBAAF0753900753A1F74FFF53B71
:10082E00F53C1227DF053DE53DC39410500302074A
:10083E006600000000000000000000000000000044
:10084E000000000000E4F52A0206A1E53070030264
:10085E000915E4F53DE53DC394404003020904C289
:10086E00B0D2B17458253DF582E43402F583E0FF31
:10087E007459253DF582E43402F583E0FD123212FF
:10088E00D2B07458253DF582E43402F583E0FF05BD
:10089E0029E529AC2870020528142400F58274007D
:1008AE003CF583EFF07459253DF582E43402F5836F
:1008BE00E0FF0529E529AC2870020528142400F56F
:1008CE008274003CF583EFF0E4B52923E528B402E9
:1008DE001E782B1210B6122B2A900000E527F07FFF
:1008EE00007E007D007C00122B2AE4F528F52905F8
:1008FE003D053D020863E4F530FB7A0079417D0148
:10090E00FC121F64020859E5237003020A0D9002BF
:10091E005BE070030209C9753D04E53DC3942440B4
:10092E00030209FCC2B0D2B17458253DF582E434FD
:10093E0002F583E0FF7459253DF582E43402F58318
:10094E00E0FD123212D2B07458253DF582E4340225
:10095E00F583E0FF0529E529AC287002052814244B
:10096E0000F58274003CF583EFF07459253DF58255
:10097E00E43402F583E0FF0529E529AC2870020571
:10098E0028142400F58274003CF583EFF0E4B529B9
:10099E0023E528B4021E782B1210B6122B2A9000D3
:1009AE0000E527F07F007E007D007C00122B2AE4FC
:1009BE00F528F529053D053D020928753D04E53D5F
:1009CE00C394245029C2B0D2B17458253DF582E4A7
:1009DE003402F583E0FF7459253DF582E43402F5C7
:1009EE0083E0FD123212D2B0053D053D80D0E4F514
:1009FE0023FB7A0079417D01FC121F64020915E583
:100A0E00327003020ABE753D04E53DC394244003D3
:100A1E00020AAD7458253DF582E43402F583E07088
:100A2E00217459253DF582E43402F583E0FE745AB3
:100A3E00253DF582E43402F583E0FDEDFF1232D25E
:100A4E0080547458253DF582E43402F583E0B401F8
:100A5E00217459253DF582E43402F583E0FE745A83
:100A6E00253DF582E43402F583E0FDEDFF1232A55B
:100A7E0080247458253DF582E43402F583E0641039
:100A8E0070140000000000000000000000000000D4
:100A9E000000000000007404253DF53D020A17E435
:100AAE00F532FB7A0079417D01FC121F64020A0DBA
:100ABE00E52F7003020BEDE4F53D7400253DF58244
:100ACE00E43402F583E4F0053DE53DB418EC900204
:100ADE005FE025E0F54090025DE0FEA3E0FDEEF55F
:100AEE003EEDF53F90025CE064017034AF3FAE3EE8
:100AFE001232D2E4F53DE53DC3954050231234C980
:100B0E007400253DF582E43402F583E4F07401258A
:100B1E003DF582E43402F583EFF0053D053D80D6C8
:100B2E00E4F52F7B017A027900E540FD7C00121F6F
:100B3E00641233F17BFF7A3079DDE4F50FF510F5B1
:100B4E0011F51274FFF513F514E4FDFC1227449011
:100B5E00025BE020E003020ABE900260E075F02422
:100B6E00A4FDACF0753907753AE0E4F53BF53C7B36
:100B7E0011FAAF3FAE3E1227DFE4F53DE53DC395DA
:100B8E00404003020ABE900260E075F024A4FDAC62
:100B9E00F0C004C005E53DC3132402FFE433FE7C20
:100BAE00007D11120F2CAA06AB077400253DF582AD
:100BBE00E43402F583E0FE7401253DF582E434024F
:100BCE00F583E0FDEDFF753900753A1F74FFF53BB7
:100BDE00F53CD005D0041227DF053D053D809DE58F
:100BEE00316039E4F53D7418253DF582E43402F5A3
:100BFE0083E4F0053DE53DB440EC9002187401F03D
:100C0E00A37440F0E4A3F0A374F0F0E4F5317B019B
:0C0C1E007A0279187D40FC121F6480C32C
:010C2A0022A7
:1000460053D9BF75B283E4F5B943B980FF0FBFFF3B
:10005600FC43B9C0E5B930E5FBE4F5A943EF027509
:10006600F1FF75A4FF75A5FF75F2FF75A6FF75AEC6
:10007600FF75F4FF43A717C286C28743E10243E236
:010086004039
:010087002256
:102D71001200461232359030E6E493FE740193FF5F
:102D81009030E8E493FC740193FD90029F74FFF08E
:102D9100A37431F0A37404F0A374FFF0A37431F0B1
:102DA100A37414F090311EE4939002A5F090311FAA
:102DB100E4939002A6F0903120E493FB7401939088
:102DC10002A7CBF0A3EBF07BFF7A3079EA121D1258
:0C2DD10012347375A17075F80F02111315
:03003D000232FF8D
:03008B00022075DB
:10207500C0E0C0F0C083C082C0D075D000C000C031
:0D20850001C002C003C004C005C006C007B2
:102092001234D88F08E50830E27C7B017A02795845
:1020A2007D401224BB900258E0FFB5240FA3E0B597
:1020B200250AA3E0B52605752A01805AEFB5261137
:1020C200900259E0B5250AA3E0B52405752F0180D9
:1020D20045900258E0B5250FA3E0B5240AA3E0B568
:1020E2002605753101802F900258E0FFB5240FA319
:1020F200E0B5260AA3E0B525057523018018EFB5E2
:102102002611900259E0B5240AA3E0B525057532DF
:10211200018003753001E50830E70312003DE50850
:1021220030E603120046E50830E41A15731573A869
:1021320073760108763F7A007B007C007DEF7E009B
:102142007F00122625E50830E51C05271573157357
:10215200A873760108763F7A007B007C007DEF7ED3
:06216200007F001226259B
:10216800D007D006D005D004D003D002D001D000CB
:0B217800D0D0D082D083D0F0D0E03275
:0C348C007FFF1234987FFF1234987FFFFE
:093498008FA330FFFDC2FFAFA3BA
:0134A1002208
:0A34F20075A3FF30FFFDC2FFAFA37A
:0134FC0022AD
:022F0E00AE070C
:102F1000E4FB12348C12348CC2FAEE4440FF1234BB
:102F200098AF46AE45AD44AC4378181210901234B9
:102F300098AF46AE45AD44AC4378101210901234B1
:102F400098AF46AE45AD44AC4378081210901234A9
:102F500098AF461234987F951234987FFF123498B8
:0E2F6000BFFF09AE030BEED3946440EFD2FA2C
:012F6E002240
:10235600E4FEFA75A90375A23BE4FD7FFF123498EB
:102366000DBD64F7E4F546F545F544F543FF122F38
:102376000EAE070AEAD3940A5003BE01DCE4FAE47F
:10238600F546F545F544F5437F37122F0EAE070A9D
:10239600EAD3946440037F0122BE01E3E4FAF546E2
:1023A600F545F544F5437F29122F0EAE070AEAD309
:1023B600946440037F0122EE70C5EE601FE4FAE4E8
:1023C600F546F545F544F5437F01122F0EAE070A93
:1023D600EAD3946440037F0122EE70E3E4F546F508
:1023E60045F544F5437F3B122F0EAE07E4F54675DF
:1023F6004502F544F5437F10122F0E75A201E4F550
:02240600A9FF2C
:0124080022B1
:082E45008F4E8E4D8D4C8C4B1D
:102E4D00E4FA75A903AF4EAE4DAD4CAC4B780912FB
:102E5D0010A38F468E458D448C437F11122F0E0A81
:102E6D00EAD3940A40037F0122EF70D9C2FA1234DB
:102E7D00F2BFFEFAE4FDFC1234F274002DF58274FB
:102E8D00003CF583EFF00DBD00010CE4B505E8EC59
:0C2E9D00B402E4123491D2FAE4F5A9FF6B
:012EA9002206
:082B2A008F528E518D508C4F2B
:102B3200E4FA75A903AF52AE51AD50AC4F78091209
:102B420010A38F468E458D448C437F18122F0EAEF4
:102B5200070AEAD3940A40037F0122EE70D7C2FA31
:102B62007FFF1234987FFE123498FDFC74002DF51D
:102B72008274003CF583E0FF1234980DBD00010C15
:102B8200E4B505E8ECB402E412348CAE07EE541F4F
:102B920064056003D2FA227FFF123498EF60F8D204
:052BA200FAE4F5A9FFB3
:012BA700220B
:10008E00000000182442424242424242241800001C
:10009E00000000107010101010101010107C0000D6
:1000AE000000003C4242420404081020427E000040
:1000BE000000003C42420418040202424438000090
:1000CE00000000040C14242444447E04041E00008A
:1000DE000000007E40404058640202424438000056
:1000EE000000001C24404058644242422418000084
:1000FE000000007E4444080810101010101000007C
:10010E000000003C4242422418244242423C00007D
:10011E000000001824424242261A0202243800002F
:10012E000000001010182828243C444242E700002A
:10013E00000000F8444444784442424244F800002F
:10014E000000003E424280808080804244380000A1
:10015E00000000F8444242424242424244F800004B
:10016E00000000FC424848784848404242FC0000EB
:10017E00000000FC424848784848404040E00000FB
:10018E000000003C44448080808E8444443800004B
:10019E00000000E7424242427E42424242E70000F5
:1001AE000000007C1010101010101010107C0000B9
:1001BE000000003E0808080808080808080888F02B
:1001CE00000000EE444850705048484444EE000091
:1001DE00000000E0404040404040404042FE0000F1
:1001EE00000000EE6C6C6C6C5454545454D60000E9
:1001FE00000000C7626252524A4A4A4646E2000076
:10020E00000000384482828282828282443800005A
:10021E00000000FC424242427C40404040E0000070
:10022E0000000038448282828282B2CA4C380600B4
:10023E00000000FC4242427C4848444442E3000035
:10024E000000003E4242402018040242427C000060
:10025E00000000FE92101010101010101038000048
:10026E00000000E74242424242424242423C00000B
:10027E00000000E7424244242428281810100000F1
:10028E00000000D692929292AAAA6C4444440000B6
:10029E00000000E7422424181818242442E7000026
:1002AE00000000EE444428281010101010380000F2
:1002BE000000007E840408081020204242FC00004A
:1002CE00001E1010101010101010101010101E0024
:1002DE000000404020201010100808040404020200
:1002EE0000780808080808080808080808087800B0
:1002FE00001C2200000000000000000000000000B2
:10030E00000000000000000000000000000000FFE0
:10031E00006010000000000000000000000000005F
:10032E00000000000000003C421E2242423F00003E
:10033E00000000C0404040586442424264580000F1
:10034E00000000000000001C22404040221C000063
:10035E00000000060202021E22424242261B00003C
:10036E00000000000000003C427E4040423C000085
:10037E000000000F1110107E10101010107C0000E5
:10038E00000000000000003E444438403C42423C25
:10039E00000000C04040405C6242424242E7000022
:1003AE00000000303000007010101010107C0000A3
:1003BE000000000C0C00001C040404040404447827
:1003CE00000000C04040404E4850684844EE0000D7
:1003DE00000000701010101010101010107C000093
:1003EE0000000000000000FE4949494949ED0000A7
:1003FE0000000000000000DC6242424242E70000C2
:10040E00000000000000003C42424242423C00001C
:10041E0000000000000000D864424242447840E0F0
:10042E00000000000000001E22424242221E02076F
:10043E0000000000000000EE3220202020F8000016
:10044E00000000000000003E42403C02427C0000E2
:10045E00000000000010107C10101010100C000096
:10046E0000000000000000C642424242463B00002F
:10047E0000000000000000E74224242810100000B5
:10048E0000000000000000D79292AAAA4444000087
:10049E00000000000000006E2418181824760000DA
:1004AE0000000000000000E742242428181010E08D
:1004BE00000000000000007E44081010227E0000A4
:1004CE0000030404040404080404040404040300E4
:1004DE00080808080808080808080808080808088E
:1004EE000060101010101008101010101010600086
:1004FE00304C43000000000000000000000000002F
:10050E0000000000000000000000000000000000DD
:10051E00000000101010101010100000181800002D
:10052E000012362448000000000000000000000009
:10053E00000000242424FE484848FE484848000095
:10054E0000001038545450301814145454381010ED
:10055E0000000044A4A8A8A8541A2A2A2A4400007D
:10056E0000000030484848506EA4948889760000F8
:10057E0000606020C00000000000000000000000CD
:10058E0000020408081010101010100808040200D1
:10059E00004020101008080808080810102040001D
:1005AE00000000001010D63838D6101000000000E1
:1005BE000000000010101010FE10101010000000AF
:1005CE00000000000000000000000000606020C07D
:1005DE0000000000000000007F000000000000008E
:1005EE00000000000000000000000000606000003D
:1005FE0000000102020404080810102020404000F0
:10060E00000000000000181800000000181800007C
:10061E00000000000000001000000000001010207C
:10062E000000000204081020402010080402000000
:10063E00000000000000FE000000FE0000000000B0
:10064E0000000040201008040204081020400000A2
:10065E000000003C42426202040808001818000024
:10066E0000000038445AAAAAAAAAB442443800008C
:10067E00FFFFFFFFFFFFFFFFFFFFFFFFFFFFFFFF7C
:0432D200AD07AC0692
:1032D600ECF522C2B0C2A0C2A1D2A1E4FBED30E758
:1032E60004D2A08002C2A0ED25E0FDEC33FCC2A111
:0832F600D2A10BBB08E7D2B026
:0132FE0022AD
:0432A100F808E6FF44
:0432A500AD07AC06BF
:1032A900ECF522C2B0D2A0C2A1D2A1E4FBED30E775
:1032B90004D2A08002C2A0ED25E0FDEC33FCC2A13E
:0832C900D2A10BBB08E7D2B053
:0132D10022DA
:1031FD00FFAE03EE33333354F84FFFEE25E0FEC43C
:05320D003354E04BFD0D
:10321200C2B0D2A0D2B1C2A1D2A1E4FEEF25E0FF9A
:1032220092A0ED25E0FD92B1C2A1D2A10EBE08ECA2
:02323200D2B018
:013234002277
:0934FD00AD07AC06AF0402321267
:10111300D2857F0A7E001233F5C2857F0A7E0012D4
:1011230033F5D2857F0A7E001233F57F017E0012EC
:1011330032D27F2C0E1233F57FFD7E001232D27F26
:10114300061232A50F1232A57F661232D27F8012A9
:1011530032A51232D27F051232A51233F57F807E7B
:10116300001232D27F011232A57F641233F57FB6AB
:101173007E001232D27F021232A57FA21232A57FE5
:10118300601232D27F261232A57F631232D27F08D9
:101193001232A57F641232D27F0C1232A57F6812FD
:1011A30032D27F701232A57F691232D27F1F123280
:1011B300A57F6A1232D27FC41232A57F6B1232D25C
:1011C3007F0C1232A57F6C1232D27F181232A57FA8
:1011D3006D1232D27F771232A57F6E1232D27F84A4
:1011E3001232A57F6F1232D27F481232A57FF712D7
:1011F30032D27F101232A57F701232D27F44123264
:10120300A57FF61232D27F011232A57F101232A5CA
:101213007F801232A57FED1232D27FF91232A512EE
:1012230032A5E4FF1232A51232A57F111232A5E4D2
:10123300FF1232A57FE01232D27F101232A57F193E
:101243001232A57F0D1232A57F1A1232A57F071223
:1012530032A57F131232A50F1232A57FE11232D2CB
:101263007F2B1232A57F5F1232A57FE21232D27F2B
:101273001B1232A57F281232A51232A57F18123213
:10128300A57F151232A57F171232A57FE31232D242
:101293007F101232A57F171232A57F051232A57F68
:1012A300131232A57F081232A57F131232A57F06CF
:1012B3001232A57FE41232D27F0B1232A57F501275
:1012C30032A57FE51232D27F171232A57F24123264
:1012D300A57F151232A57F171232A51232A57F1FE3
:1012E3001232A57F661232D27F901232A57F671227
:1012F30032D27F071232A57FB11232D2E4FF12320B
:10130300A57F121232A57FEC1232D27F331232A59F
:101313007F161232A51232A5E4FF1232A57F1812EE
:1013230032A51232A57FFD1232D27FFA1232A50FF7
:101333001232A57F111232D27F2C0E1233F57F3673
:101343007E001232D27F081232A57F3A1232D27F48
:10135300651232A57F291232D27F0A1233F57FC874
:101363007E001232D27FFF1232A57F931232A57F05
:10137300421232A57F361232D27FC81232A57F3A8B
:101383001232D27F551232A57FC01232D27F13128E
:1013930032A57F0E1232A57FC11232D27F021232E2
:1013A300A57FC51232D27FD31232A57FB11232D2BA
:1013B300E4FF1232A57F1B1232A57FB41232D27F13
:1013C300021232A57FE01232D2E4FF1232A57F036C
:1013D3001232A57F081232A57F061232A57F13129F
:1013E30032A57F091232A57F391232A51232A57FA9
:1013F300481232A57F021232A57F0A1232A57F0856
:101403001232A57F171232A51232A57F0F1232A511
:101413007FE11232D2E4FF1232A57F281232A50FE8
:101423001232A57F011232A57F0D1232A57F03125E
:1014330032A57F3F1232A57F331232A57F5212327B
:10144300A57F041232A57F0F1232A51F1232A57F8A
:10145300371232A50F1232A57F0F1232A57F111258
:1014630032D27F781233F57F297E001232D2157380
:101473001573A873760108763F7A007B007C007DA4
:10148300EF7F0012262575A903C2B0D2B1E4FBFA9F
:10149300900000E4FDFF123212A3E58264F045835D
:1014A30070F10BBB00010ABA01E6BB40E3E4F5A906
:0114B3002216
:10260E0015731573A873760108763F7A007B007CEC
:07261E00007DEF7E007F004C
:1026250015731573A873A60208A60315731573A869
:1026350073A60408A60515731573A873A60608A640
:1026450007E4F5A97F2AFE1232D2A973E7FF1232F9
:10265500A5A87308E6FF1232A5A8730808A900E724
:10266500FF1232A5A873080808E6FF1232A57F2BD2
:102675001232D2E5732404F9E7FF1232A5E573247B
:10268500041232A1E5732406F9E7FF1232A5E573BA
:1026950024061232A17F2C1232D275A903E57324C8
:0426A50008F573229F
:02326D00AC06AD
:10326F008C0AEFF50B12260EC2B0D2B1E4FB900020
:10327F0000AD0BAF0A123212A3E58264F0458370E2
:10328F00F00BBB00010ABA01E5BB40E2D2B0E4F596
:01329F00A985
:0132A000220B
:1026A90012260EC2B0D2B179F8E4FC7FF8FD1232DD
:1026B90012E4FB79077CE07F077DE01232120BBB45
:1026C90000010AEB64EE4A70EAE4F97C1FFF7D1F02
:1026D90012321290000079F8E4FC7FF8FD123212F0
:1026E900E4FAFBE4F9FCFFFD1232120BBB00010A0C
:1026F900EB64EE4A70EDE4F97C1FFF7D1F12321284
:10270900A3E582B43ED0E583B401CB79F8E4FC7F3C
:10271900F8FD123212E4FAFB79077CE07F077DE0CD
:102729001232120BBB00010AEB64EE4A70EAE4FFB5
:0A2739007D1F123212E4F5A9D2B0A0
:012743002273
:1018B60012260EE4FBE4F553F554E4FDFF12321252
:1018C6000554E55470020553C39410E55394004043
:1018D600E9E4F553F554E4F555F556E554AE537879
:1018E60003C333CE33CED8F9FFE4FD1232120556C8
:1018F600E55670020555C39407E555940040DC058E
:1019060054E55470020553C39420E553940040C631
:101916000BBB00010AEB64504A709AE4FAFBE4F54B
:1019260053F554E4FDFF1232120554E554700205D6
:1019360053C39410E553940040E9E4F553F554E499
:10194600F555F556E55425E0FDE55333FCEDAE04BB
:101956007803CEC313CE13D8F9FFC007EDAE0478D3
:1019660005C333CE33CED8F9FDD007123212055651
:10197600E55670020555C39407E555940040C50524
:1019860054E55470020553C39420E553940040AFC8
:101996000BBB00010AEB64504A7083E4FAFBE4F5E2
:1019A60053F554E4FDFF1232120554E55470020556
:1019B60053C39410E553940040E9E4F553F554E419
:1019C600F555F556AD54E4FF1232120556E556703C
:1019D600020555C39407E555940040E80554E554BF
:1019E60070020553C39420E553940040D20BBB000C
:1019F600010AEB64504A70A6E4FAFBE4F553F55489
:101A0600E4FDFF1232120554E55470020553C394E7
:101A160010E553940040E9E4F553F554E4F555F523
:101A260056E55425E0FFE55333FEEF7803CEC313A6
:101A3600CE13D8F9FFAE54EE33333354F84FFFEEDE
:101A460025E0FEC43354E04554FD1232120556E536
:101A56005670020555C39407E555940040C30554D6
:101A6600E55470020553C39420E553940040AD0B32
:0C1A7600BB00010AEB64504A7081D2B042
:011A82002241
:1021830012260EE4FBC3EA94005023E4F559F55AF2
:10219300E4FDFF123212055AE55A70020559C39441
:1021A300F0E559940040E90BBB00010A80D7E4FA3B
:1021B300FBE4F557F558E4F559F55AEBAE0278030D
:1021C300C333CE33CED8F9FFE4FD123212055AE5FC
:1021D3005A70020559C3943CE559940040DDE4F577
:1021E30059F55AEB25E0FDEA33FCEDAE047803CE56
:1021F300C313CE13D8F9FFC007EDAE047805C3337C
:10220300CE33CED8F9FDD007123212055AE55A70F3
:10221300020559C3943CE559940040C7E4F559F5C8
:102223005AAD03E4FF123212055AE55A70020559FA
:10223300C3943CE559940040E8E4F559F55AEB257D
:10224300E0FFEA33FEEF7803CEC313CE13D8F912BF
:1022530031FD055AE55A70020559C3943CE559947A
:102263000040DB0558E55870020557C3940AE5574B
:10227300940050030221B90BBB00010AEB64204A0E
:0522830060030221B41C
:012288002233
:102AA70012260EC2B0D296D2B1E4FBC3EA9400500C
:102AB70023E4F55DF55EE4FDFF123212055EE55E87
:102AC7007002055DC394F0E55D940040E90BBB001F
:102AD700010A80D7E4FAFBE4F55BF55CE4F55DF504
:102AE7005EEBAE027803C333CE33CED8F9FFE4FDF5
:102AF700123212055EE55E7002055DC394F0E55D76
:102B0700940040DD055CE55C7002055BC3940AE553
:102B17005B940040C70BBB00010AEB64204A70B707
:022B2700D2B02A
:012B29002289
:1028790012260EC2B0D296D2B1E4FBC3EA9400503C
:1028890023E4F561F562E4FDFF1232120562E562A7
:1028990070020561C394F0E561940040E90BBB0047
:1028A900010A80D7E4FAFBE4F55FF560E4F561F528
:1028B90062EBAE027803CEC313CE13D8F9FFC0077B
:1028C900EBAE027805C333CE33CED8F9FDD007126B
:1028D90032120562E56270020561C394F0E5619404
:1028E9000040CE0560E5607002055FC39405E55FB1
:1028F900940040B80BBB00010AEB64404A70A8D2AF
:01290900B01D
:01290A0022AA
:102DDD0012260EC2B0D296D2B1E4FBC3EA940050D3
:102DED001BE4F583F582E4FDFF123212A3E5826444
:102DFD00F0458370F10BBB00010A80DFE4FAFBE4C0
:102E0D00F56FF570E4F583F582AD03E4FF12321230
:102E1D00A3E58264F0458370F00570E570700205DE
:102E2D006FC3940AE56F940040DA0BBB00010AEB07
:072E3D0064204A70CAD2B004
:012E4400226B
:102A220012260EC2B0D296D2B1E4FBC3EA94005091
:102A320023E4F565F566E4FDFF1232120566E566EC
:102A420070020565C394F0E565940040E90BBB0094
:102A5200010A80D7E4FAFBE4F563F564E4F565F571
:102A620066EB25E0FFEA33FEEF7803CEC313CE1305
:102A7200D8F91231FD0566E56670020565C394F06A
:102A8200E565940040DB0564E56470020563C39468
:102A92000AE563940040C50BBB00010AEB64204ABF
:042AA20070B5D2B089
:012AA600220D
:1029970012260EC2B0D296D2B1E4F567F568E4FB11
:1029A700FAC3EA9400500DE4FDFF1232120BBB008C
:1029B700010A80EDE4FAFBE4F569F56AEBAE02780B
:1029C70002C333CE33CED8F97803CEC313CE13D890
:1029D700F9FFEB25E0FE33333354F84FFFEB25E0E7
:1029E70025E0C43354E04EFD123212056AE56A70E1
:1029F700020569C3940FE569940040C00BBB000151
:102A07000AEB64104A70B00568E56870020567C391
:0A2A17009440E56794014086D2B0B8
:012A21002292
:102D030012260EC2B0D296D2B1E4F56BF56CE4FB99
:102D1300FAE4FDFF1232120BBB00010AEB64104A06
:102D230070EFE4FAFBE4F56DF56EEB25E0FFEA33B3
:102D3300FEEF7803CEC313CE13D8F91231FD056E1F
:102D4300E56E7002056DC39407E56D940040DB0BDF
:102D5300BB00010AEB64204A70CB056CE56C700282
:0D2D6300056BC39440E56B940140A3D2B012
:012D70002240
:101BD40012260EE4FBE4F583F582E4FD7FF812326D
:101BE40012A3E58264F0458370F00BBB00010AEB9D
:101BF40064284A70E0E4FAFBE4F583F5827DE07F33
:101C040007123212A3E58264F0458370F00BBB0027
:101C1400010AEB64284A70E0E4FAFBE4F583F582F8
:101C24007D1FE4FF123212A3E58264F0458370F055
:101C34000BBB00010AEB64284A70E0E4FAFBE4F50C
:101C440083F5827DE07FFF123212A3E58264F045C2
:101C54008370F00BBB00010AEB64284A70E0E4FADD
:101C6400FBE4F583F5827D1F7FF8123212A3E5822F
:101C740064F0458370F00BBB00010AEB64284A70E2
:101C8400E0E4FAFBE4F583F5827DFF7F071232126C
:101C9400A3E58264F0458370F00BBB00010AEB649A
:101CA400284A70E0E4FAFBE4F583F5827DFF7FFFC8
:101CB400123212A3E58264F0458370F00BBB00017D
:101CC4000AEB64284A70E0E4FAFBE4F583F582E465
:101CD400FDFF123212A3E58264F0458370F10BBB61
:101CE40000010AEB64284A70E1E4FAFBC3EA9400B9
:101CF400501BE4F583F582E4FDFF123212A3E58262
:0D1D040064F0458370F10BBB00010A80DF25
:011D110022AF
:102F6F00EFC3942050047F5F8050EFC39420400C38
:102F7F00EFD3942F5006EF2428FF803EEFC39430F9
:102F8F00400CEFD39439500674D02FFF802CEFC331
:102F9F00943A400CEFD394405006EF241EFF801A52
:102FAF00EFC39441400CEFD3947E5006EF24C9FF3A
:0B2FBF008008EFD3947E40027F5F2269
:10256A00FDE43535FC85391A853A1B853B1C853CCB
:05257A001DAB38AA377B
:06257F008F15AF05AE044C
:10258500EB240FFDE43A15731573A873F608A60539
:10259500EF2407FDE43EFC122625AF157E00D3EFA0
:1025A500945FEE940040027F5FEFC4F8540FC86853
:1025B500FFEEC454F048FE751FFF75200075218E8F
:1025C500EF2521F521EE3520F520E4F51EAB1F059D
:1025D50021E521AA207002052014F9120EE6FBE47C
:1025E500FAEBA802088002C333D8FC30E706AF1B1C
:1025F500AE1A8004AF1DAE1C1234FD0ABA08E205FE
:082605001EE51EC3941040C540
:01260D0022AA
:102744008B0A8A0B890C8C0D8D0EAB0AAA0BA90C73
:10275400120EE67003D38001C34066AB0A050CE594
:102764000CAA0B7002050B14F9120EE6FF122F6F60
:1027740085111A85121B85131C85141DAB10AA0F15
:10278400AD0EAC0D12257FD3E50E94E7E50D940054
:102794004012E4F50DF50E74102510F510E4350F14
:1027A400F50F800B7408250EF50EE4350DF50DD3E9
:1027B400E510942FE50F94014090E4F50FF5108097
:1027C4008915731573A873760108763F7A007B0028
:0B27D4007C007DEF7E007F00022625C8
:1027DF008E338F348C358D368A378B38D3E53694DC
:1027EF00CFE535940040067535007536CFD3E53803
:1027FF00942FE5379401400CE53824EFF538E53791
:10280F0034FFF537E533C4540FFF85391A853A1B6A
:10281F00853B1C853C1DAB38AA37AD36AC35122530
:10282F007FE533540FFFE536240812256AE533C4DC
:10283F00F854F0C8E534C4540F48540FFFE536245C
:10284F001012256AE534540FFFE536241812256A55
:10285F0015731573A873760108763F7A007B007C99
:0A286F00007DEF7E007F00022625A9
:0E34C900C2B0D2B1C2A1D2B0E571FEE572FF71
:0134D70022D2
:10332A008A0A8B0BED2402FBE43C15731573A87310
:10333A00F608A603AB05AA04EF2401FDE43EFC123D
:0A334A002625E50AFFAD0B02321242
:0C2EAA008E0E8F0F8C108D118A128B136E
:102EB60015731573A873A61408A615AA12AB13AC3E
:102EC60010AD11AE0EAF0F122625AB13AA12E515E3
:102ED6002401FFE43514FEC3EB9FEA9E5029850FBB
:102EE60082850E83E5112401FFE43510FEC3E582D9
:102EF6009FE5839E500AAF17AE161234FDA380E4F9
:072F06000BBB00010A80C7AC
:012F0D0022A1
:042BA8008E0A8F0BF7
:102BAC00750C00750D0FC3E50D943FE50C940150A9
:102BBC0027850C14850D15850A16850B17AB0DAAE8
:102BCC000C7DEF7C00E4FFFE122EAA7410250DF58F
:102BDC000DE4350CF50C80CE750C00750D0FC3E5AE
:102BEC000D94EFE50C9400502775140175153F8575
:102BFC000A16850B17E4FBFAAD0DAC0CAF0DAE0C41
:102C0C00122EAA7410250DF50DE4350CF50C80CEA2
:012C1C002295
:083506005450205445535400B9
:1033CB00C294C295E49002CBF0EF20E704C2B28026
:1033DB0002D2B2D295EF25E0FFC2959002CBE0046A
:0533EB00F0E0B408E46D
:0133F00022BA
:102C1D009002CC1210E200000000C294D2B3E490F6
:102C2D0002CBF09002CBE0FFC3940C5049C295301B
:102C3D00B33AC3740B9FFF74017E00A8070880058B
:102C4D00C333CE33CED8F9FFEE3395E0FDFC9002C1
:102C5D00CCE0F8A3E0F9A3E0FAA3E04FFFEA4EFEC3
:102C6D00E94DFDE84CFC9002CC1210D6D2959002A5
:102C7D00CBE004F080ADD2949002CCA3A3E0FEA3F0
:022C8D00E0FF66
:012C8F002222
:021E4900AB07E5
:101E4B00E49002B2F0A3F0A3F0D2B59002B2E0C3DB
:101E5B00940B502C20B529C294EB04FF1233CB12F8
:101E6B002C1D9002B2E025E024B5F582E43402F596
:101E7B0083EEF0A3EFF09002B2E004F0D29480CBAB
:101E8B009002B2E07003021F60E4A3F09002B2E094
:101E9B00F9A3E0C3994003021F4CE4A3F09002B3F3
:101EAB00E0FF9002B2E0C39FFF9002B4E0C39F40FB
:101EBB0003021F43E0FF25E024B7F582E43402F56B
:101ECB0083E0FCA3E0FDEF25E024B5F582E43402CA
:101EDB00F583E0FEA3E0D39DEE9C40539002B4E06B
:101EEB0025E024B5F582E43402F583E0FCA3E0FDA4
:101EFB009002B0ECF0A3EDF0EF25E024B7F582E40F
:101F0B003402F583E0FEA3E0FF9002B4E0FB25E092
:101F1B0024B5F582E43402F583EEF0A3EFF0EB2564
:101F2B00E024B7F582E43402F583ECF0A3EDF090F6
:101F3B0002B4E004F0021EA89002B3E004F0021E0B
:101F4B0097E9C31325E024B5F582E43402F583E069
:081F5B00FEA3E0FF22E4FEFFFB
:011F6300225B
:1016E7009002981210E20000000090029C1210E293
:1016F700000000009002A01210E20000000090021B
:10170700A41210E2000000009002A81210E20000EC
:1017170000009002AC1210E200000000E4FFFE128D
:10172700326DD2B520B5FD20B60302188B7F327E0D
:10173700001233F530B5030218817FD0121E49E439
:10174700FCFD9002A01210D69002A0E0FCA3E0FDE1
:10175700A3E0FEA3E024BDFFEE34FFFEED34FFFD62
:10176700EC34FFFCE47BF0FAF9F8120F54E47BA5A4
:101777007A02F9F8120FDFE4120D317BB87A1E797D
:1017870045783F120C2B120D6F9002981210D67FDE
:1017970090121E49E4FCFD9002A41210D69002A4F8
:1017A700E0FCA3E0FDA3E0FEA3E024A0FFEE34FFEE
:1017B700FEED34FFFDEC34FFFCE47B407A01F9F8E1
:1017C700120F54E4FB7A03F9F8120FDFE4120D311C
:1017D7007B337A337973783F120C2B120D6F90029B
:1017E7009C1210D67F0F7E001233F530B503021717
:1017F7003BE4FFFEFDFC900298E0F8A3E0F9A3E0CC
:10180700FAA3E0FBC312107F500302173BE47FF0FB
:10181700FEFDFC900298E0F8A3A3A3E012107F401E
:101827000302173BE4FFFEFDFC90029CE0F8A3E0F7
:10183700F9A3E0FAA3E0FBC312107F500302173BA2
:10184700E47F407E01FDFC90029CE0F8A3A3A3E0A7
:1018570012107F400302173B900298A3A3E0FEA358
:10186700E0FFC006A3A3A3E0FEA3E0FDAC06D006FD
:101877007B007AF812332A02173B7F327E0012333D
:10188700F502172EE4FFFE12326D7FB57EAD122BE7
:10189700A87BFF7A357906E4F50FF510F511F512F7
:0F18A70074FFF513F514E4FDFC12274402172E0D
:100003001201100100000040C410000000000102B2
:1000130003010902200001010080FA090400000223
:10002300FF000000070502024000000705820240AE
:0A00330000000403090401000000AE
:101D1200900298EEF0A3EFF090029CEBF0A3EAF0B1
:101D2200A3E9F0E4900791F0900791E0FF9000039F
:101D320093FE74402FF582E43407F583EEF09007AA
:101D420091E004F0E0B412E0E4900791F090079182
:101D5200E0FF90001593FE74522FF582E43407F5EC
:101D620083EEF0900791E004F0E0B420E090029856
:101D7200E0FEA3E0900748F0EEA3F0A3EDF0ECA3A1
:101D8200F090077274FFF0A37400F0A37435F09022
:101D9200029CE0F9A3E0FAA3E0900775C9F0A3EA78
:101DA200F0A3E9F090029FE0F9A3E0FAA3E0900724
:101DB20078C9F0A3EAF0A3E9F09002A2E0F9A3E067
:101DC200FAA3E090077BC9F0A3EAF0A3E9F090023E
:101DD200A5E0FFC394FA500590075AEFF09002A6CF
:101DE200E0900759F09002A7E0FEA3E090074CF0C4
:101DF200EEA3F0E59620E7FB759601759708E59648
:101E020020E7FB75960775970FE59620E7FB759619
:101E12000975970EE59620E7FB75960B7597077582
:101E2200D7E01234E6E4900793F0900792F090071F
:101E320094F0900786F043E602D2AFE59620E7FBE6
:071E4200759601759701225E
:10337D009007867402F0E59620E7FB759601759728
:10338D0001E490078EF0A37403F0A3F0E49007938B
:07339D00F090079204F022FA
:1014B400E59620E7FB75960EE4F597E59620E7FBA5
:1014C400759691E59620E7FB90079EE597F0E0FF7F
:1014D40030E210E59620E7FB759611E4F597900746
:1014E4008EF022EF30E410E59620E7FB7596117537
:1014F4009780E490078EF090078EE060030215E574
:1015040090079EE020E0030215E57596204396C0FF
:10151400E4900791F0E59620E7FB900791E0247EA4
:10152400F582E43407F583E597F0900791E004F041
:10153400E0B407E1E59620E7FBE4F596900791E037
:10154400247EF582E43407F583E597F0900781E083
:10155400FE900780E07C002400FFEC3E900795F0AD
:10156400A3EFF0900785E0FE900784E02400FFECF1
:101574003E900797F0A3EFF090077FE0B40C005083
:101584005D90158CF82828730215B00215B5021564
:10159400BA0215BF0215E20215C40215C90215E20A
:1015A4000215CE0215D30215D80215DD122C908037
:1015B40030123024802B122289802612307C802124
:1015C400123436801C12240980171231B68012128C
:1015D4002FCA800D1233A480081234A2800312345F
:1015E4005690078EE0640160030216E690079E742D
:1015F40002F0C390078DE0944090078CE094004083
:1016040061E59620E7FB759620E4900791F090073A
:1016140091E0FFC394405022900787E0FBA3E0FAD7
:10162400A3E0F98F82758300120EFFF597E59620EB
:10163400E7FB900791E004F080D4900788E475F00C
:1016440040120F3E90078DE024C0F090078CE034E8
:10165400FFF090078BE02440F090078AE03400F01C
:101664008052E59620E7FB759620E4900791F09070
:101674000791E0FFD390078DE09F90078CE09400E2
:101684004026900787E0FBA3E0FAA3E0F9900791D6
:10169400E0F582758300120EFFF597E59620E7FBCF
:1016A400900791E004F080C790079EE04408F0E4BE
:1016B40090078EF0900797E0FEA3E0FF90078AE082
:1016C400B50611A3E0B5070C90079EE04408F0E4CA
:1016D40090078EF0E59620E7FB75961190079EE043
:0316E400F5972255
:10345600E59620E7FB75960EE4F597E59620E7FBE3
:0D34660075961175972090078E7404F02262
:102C900090077EE0247F600714600624027048805D
:102CA0002D90078FE0B40309900782E0B402028000
:102CB0000E900790E0B40316900782E0B4820F9064
:102CC000078774FFF0A37400F0A37439800D900798
:102CD0008774FFF0A37400F0A3743BF090078CE4BA
:102CE000F0A37402F0800312345690078EE064045F
:102CF00060101234A290078E7401F0E490078AF0FD
:032D0000A3F0221B
:10302400900780E07041900782E0B4021DE596208D
:10303400E7FB75960E759702E59620E7FB759614E7
:10304400759780E490078FF08020E59620E7FB7564
:10305400960E759702E59620E7FB759611759740D5
:10306400E4900790F08003123456E59620E7FB7550
:08307400960EE4F5970234A268
:10228900900796E020E00302231F900794E030E0D6
:102299000854FEF04402F08007900794E054FDF0E2
:1022A900E59620E7FB75960E759702E59620E7FB04
:1022B900759614759710E59620E7FB759611759735
:1022C90008E59620E7FB759694E59620E7FB9007CD
:1022D9009DE597F0E020E4E9E59620E7FB75961483
:1022E900759710E59620E7FB759691E59620E7FB33
:1022F90090079DE597F0E020E3E9E59620E7FB7577
:1023090096117597089007927408F0900794E0FF6A
:1023190030E1034401F0900795E0FCA3E0FD30E1D2
:102329000D9007867406F0900792E04410F0ED30A6
:10233900E20D9007867404F0900792E04420F0E5DE
:0D2349009620E7FB75960EE4F5970234A28E
:10307C00900780E07040900782E0B4021BE5962038
:10308C00E7FB75960E759702E59620E7FB7596148F
:10309C0075972090078F8019E59620E7FB75960EA3
:1030AC00759702E59620E7FB7596117597109007BA
:1030BC00907403F08003123456E59620E7FB759666
:0730CC000EE4F5970234A2A7
:10343600E59620E7FBE4F596900780E0FFF597EF29
:1034460090078660057403F080037402F00234A2CC
:10240900900781E024FE601B14603B2402706990F0
:1024190007877401F0A37407F0A37440F090074094
:10242900E0804A9007877401F0A37407F0A37452FF
:10243900F0900755E0FE900754E07C002400FFEC83
:102449003E90078C802C900780E075F003A42472DD
:10245900F582E43407F583E0FBA3E0FAA3E0F99001
:102469000787EBF0A3EAF0A3E9F0120EE6FF900765
:102479008CE4F0A3EFF0800312345690078CE0FE51
:10248900A3E0FF900797E0FCA3E0FDC39FEC9E50FB
:102499000890078CECF0A3EDF090078EE0640460DF
:1024A900101234A290078E7401F0E490078AF0A309
:0224B900F0220F
:1031B600900786E0FFB40414A374FFF0A37400F034
:1031C600A37439F090078CE4F0A304F0EFB403166F
:1031D60090078774FFF0A37400F0A3743BF0900788
:1031E6008CE4F0A304F01234A290078E7401F0E48C
:0731F60090078AF0A3F0220C
:102FCA00900780E0D394004042900792E04440F09A
:102FDA009007867404F0E490078FF0A3F0E596203A
:102FEA00E7FB75960E759702E59620E7FB75961234
:102FFA00759784E59620E7FB759615759780E59693
:10300A0020E7FB75960EE4F597800C90078674030B
:0A301A00F090078FF0A3F00234A23B
:1033A40090078774FFF0A37400F0A3743BF09007B8
:1033B4008CE4F0A304F01234A290078E7401F0E4BC
:0733C40090078AF0A3F0223C
:1034A20090078EE06404600BE59620E7FB759611A9
:0434B20075974022A8
:03004300021A831B
:101A8300C0E0C0F0C083C082C0D075D000C000C029
:101A930001C002C003C004C005C006C0079007A16F
:101AA300E596F0E59620E7FB75968EE59620E7FB35
:101AB3009007A2E597F0E59620E7FB759686E596F5
:101AC30020E7FB900799E597F0E030E30BE59620DC
:101AD300E7FB75960B759707900799E030E20312C1
:101AE300337D900799E030E014900786E0FF6404AB
:101AF3006004EFB40607900792E04480F0E5962077
:101B0300E7FB759682E59620E7FB900799E597F04A
:101B1300E030E0031214B4900799E030E22AE5962E
:101B230020E7FB75960E759702E59620E7FB759601
:101B330091E59620E7FB90079AE597F0E054037050
:101B430007900792E04402F0E59620E7FB75968440
:101B5300E59620E7FB900799E597F0E030E229E569
:101B63009620E7FB75960E759702E59620E7FB75C1
:101B73009694E59620E7FB90079AE597F0E030E02E
:101B830007900792E04404F0E59620E7FB75960E74
:101B93009007A2E0F597E59620E7FB9007A1E5966D
:101BA300F0E59620E7FB900794E030E00990079278
:101BB300E06003123414D007D006D005D004D0035C
:101BC300D002D001D000D0D0D082D083D0F0D0E0EA
:011BD30032DF
:10323500E5B964E0602E53A90FC0A943B280E5A9A2
:103245005407D394014003E4F5A9E4F5B943B980E3
:10325500E4D5E0FD43B9C0E5B930E5FBD0E0B40203
:083265000343A90253A90F2243
:1032FF0053D7BF43C910E5A95402900791F043B2C9
:10330F008075A910E4F5B943B22000123235900749
:0B331F0091E042A953C9EF43D74022C0
:0E34D800900792E0FFE4F022900792E0FF22BE
:1024BB00900786E0B40606EDD3944040037F0022DC
:1024CB00E59620E7FB75960E759702E59620E7FBE0
:1024DB00759694E59620E7FB90079CE597F0E02036
:1024EB00E003022567E59620E7FB759696E59620B7
:1024FB00E7FB900793E597F0E0FFEDC39F5006AE27
:10250B0005AF068000900793EFF053E6FDE59620AC
:10251B00E7FB7596E2900793E06025FEEB600630D3
:10252B00E70F7F0022E59620E7FBA79709DEF680F1
:10253B000F89828A83E59620E7FBE597F0A3DEF50A
:10254B00E59620E7FBE4F596E59620E7FB759614F8
:0F255B00E4F59743E602900793E0FF227F00220A
:101F6400900786E0B4060DED4C6009D3ED9400ECC7
:101F740094104004E4FEFF2253E6FDE490079FF032
:101F8400A3F090079BF089828A83C083C082900764
:101F94009BE030E003022065E59620E7FB75960E92
:101FA400759702E59620E7FB759691E59620E7FB89
:101FB40090079BE597F0E030E020E59620E7FB757D
:101FC400960EE4F597E59620E7FB759691E5962045
:101FD400E7FB90079BE597F080B4C3ED9440EC9445
:101FE400009007A0E0401B2440F090079FE03400DD
:101FF400F074C02DFD74FF3CFCE490079BF0784026
:1020040080132DF090079FE03CF090079B7401F043
:10201400A805E4FCFDE59620E7FB759622D082D066
:1020240083E8602BEB601130E71AE59620E7FBE4C8
:1020340093F597A3D8F48017E59620E7FB879709D3
:10204400D8F6800BE59620E7FBE0F597A3D8F5C01A
:1020540083C082E59620E7FB759611759701021FF0
:1020640092D082D08343E60290079FE0FEA3E0FF74
:012074002249
:10347300900794E04401F0900792E0600BE59620FA
:09348300E7FB75960B75970F220B
:0C34E600E59620E7FB75960F759789228C
:10341400D007D007D007D006D005D004D003D002FF
:10342400D001D000D0D0D082D083D0F0D0E0020040
:023434008B22E9
:100C2B00EC4D6011E8497017ED33EC3304600DE4C3
:100C3B00FCFFFEFD22E933E8330470F8020DDB12F2
:100C4B000DA658046009E4CC2481500628500902F3
:100C5B000DE5284003020DE2C0E0EB4A7044B98079
:100C6B0006D0E0FB020DD1EF4E701CBD8008EBFFF0
:100C7B00EAFEE9FD80EBE98DF0A4FEE5F0020D1430
:100C8B00E9CDF9EAFEEBFFEF89F0A4FCE5F0CE89A4
:100C9B00F0A42EFFE435F0CD89F0A42DFEE435F061
:100CAB008067EF4E7005BD80D780C3EF8BF0A4AC8F
:100CBB00F0EE8BF0A42CFCE435F0F8EF8AF0A42CCA
:100CCB00E5F038FCE433CB8DF0A42CFCE5F03BF8DD
:100CDB00EE8AF0A42CFCE5F038F8E433CF89F0A4CD
:100CEB002CFCE5F038CF3400CE89F0A42FFFE5F0D3
:100CFB003EFEE433C98DF0A42EFEE5F039CD8AF02B
:100D0B00A42FFFE5F03EFEE43DFD33D0E0FB5007A2
:100D1B000BBB000F020DE5EC2CFCEF33FFEE33FEAB
:060D2B00ED33FD020DBDD9
:100D310075F020800E75F010800575F0087D007E3D
:100D4100007F003392D530D503121071EC3340107F
:100D5100EF33FFEE33FEED33FDEC33FCD5F0ED2246
:0E0D6100E5F0247EA2D513CC92E7CDCEFF2282
:100D6F00EDD2E7CD33EC3392D524814006E4FFFE7C
:100D7F00FDFC22FCE4CFCECDCC24E0501174FF80DB
:100D8F00EDC3CC13CCCD13CDCE13CECF13CF047078
:070D9F00F030D5DE021071F7
:100DA600E9D2E7C933E833F892D5EDD2E7CD33EC93
:070DB60033FC5002B2D5220C
:100DBD00EC30E7100FBF000C0EBE00080DBD000497
:100DCD000BEB6014A2D5EB13FCED92E7FD2274FF43
:100DDD00FCFDFEFF22E480F8A2D574FF13FC7D809C
:030DED00E480EFB0
:0300000002290BC7
:0C290B00787FE4F6D8FD75817302295234
:100DF000E709F608DFFA8046E709F208DFFA803EE5
:100E000088828C83E709F0A3DFFA8032E309F608D1
:100E1000DFFA8078E309F208DFFA807088828C8339
:100E2000E309F0A3DFFA806489828A83E0A3F608ED
:100E3000DFFA805889828A83E0A3F208DFFA804CC7
:100E400080D280FA80C680D4806980F2803380109E
:100E500080A680EA809A80A880DA80E280CA803307
:100E600089828A83ECFAE493A3C8C582C8CCC5837F
:100E7000CCF0A3C8C582C8CCC583CCDFE9DEE7804F
:100E80000D89828A83E493A3F608DFF9ECFAA9F0CE
:100E9000EDFB2289828A83ECFAE0A3C8C582C8CC24
:100EA000C583CCF0A3C8C582C8CCC583CCDFEADE3D
:100EB000E880DB89828A83E493A3F208DFF980CC9F
:100EC00088F0EF60010E4E60C388F0ED2402B40498
:100ED0000050B9F582EB2402B4040050AF2323453F
:060EE0008223900E407316
:100EE600BB010689828A83E0225002E722BBFE020A
:090EF600E32289828A83E493223D
:100EFF00BB010CE58229F582E5833AF583E02250A8
:100F0F0006E92582F8E622BBFE06E92582F8E222F1
:0D0F1F00E58229F582E5833AF583E493220B
:100F2C00EF8DF0A4A8F0CF8CF0A428CE8DF0A42ED9
:020F3C00FE2293
:100F3E00C5F0F8A3E028F0C5F0F8E582158270023E
:060F4E001583E038F022DB
:100F5400E88FF0A4CC8BF0A42CFCE98EF0A42CFC3C
:100F64008AF0EDA42CFCEA8EF0A4CDA8F08BF0A4BA
:100F74002DCC3825F0FDE98FF0A42CCD35F0FCEB19
:100F84008EF0A4FEA9F0EB8FF0A4CFC5F02ECD39DE
:0F0F9400FEE43CFCEAA42DCE35F0FDE43CFC224B
:100FA30075F008758200EF2FFFEE33FECD33CDCC05
:100FB30033CCC58233C5829BED9AEC99E582984088
:100FC3000CF582EE9BFEED9AFDEC99FC0FD5F0D665
:100FD300E4CEFBE4CDFAE4CCF9A88222B800C1B98F
:100FE3000059BA002DEC8BF084CFCECDFCE5F0CBCD
:100FF300F97818EF2FFFEE33FEED33FDEC33FCEB06
:1010030033FB10D703994004EB99FB0FD8E5E4F9C0
:10101300FA227818EF2FFFEE33FEED33FDEC33FCAD
:10102300C933C910D7059BE99A4007EC9BFCE99AA1
:10103300F90FD8E0E4C9FAE4CCFB2275F010EF2FE6
:10104300FFEE33FEED33FDCC33CCC833C810D707E6
:101053009BEC9AE899400AED9BFDEC9AFCE899F821
:0E1063000FD5F0DAE4CDFBE4CCFAE4C8F922B4
:0E107100C3E49FFFE49EFEE49DFDE49CFC2290
:10107F00EB9FF5F0EA9E42F0E99D42F0E89C45F0C7
:01108F00223E
:10109000E8600FECC313FCED13FDEE13FEEF13FF3E
:0310A000D8F12262
:1010A300E8600FEFC333FFEE33FEED33FDEC33FCAB
:0310B300D8F1224F
:1010B6007401FF3395E0FEFDFC080808E6CF2FF625
:1010C60018E6CE3EF618E6CD3DF618E6CC3CF622FE
:0C10D600ECF0A3EDF0A3EEF0A3EFF0228D
:1010E200A8828583F0D083D0821210F91210F912EF
:1010F20010F91210F9E473E493A3C583C5F0C58314
:10110200C8C582C8F0A3C583C5F0C583C8C582C857
:0111120022BA
:10291700023123E493A3F8E493A34003F68001F282
:1029270008DFF48029E493A3F85407240CC8C333C1
:10293700C4540F4420C8834004F456800146F6DF90
:10294700E4800B0102040810204080903354E47E99
:10295700019360BCA3FF543F30E509541FFEE49385
:10296700A360010ECF54C025E060A840B8E493A34C
:10297700FAE493A3F8E493A3C8C582C8CAC583CA77
:10298700F0A3C8C582C8CAC583CADFE9DEE780BE2F
:01337C000050
:00000001FF
