:103742005553422044454255470055534220524565
:1037520041440010C4EA611A03530069006C006915
:103762000063006F006E0020004C00610062007375
:103772000010035500530042002000410050004950
:10378200000A0343003500310046000F80010001AA
:10388E00810000810700810C00810E00810F0081F4
:10389E000D008104008205000084080000000181F3
:0838AE0001AA8102558103FF0C
:1000030012340430B636122B5B12369B123A8B74C1
:10001300FFFFFE12004612369B123A8B122D391245
:10002300369B123A8B121C1912369B123A8BE4FF41
:0D003300FE12004612369B12186380C72291
:1039C800E4FDFCC3ED9FEC9E5014E4FBFA0BBB0036
:0E39D800010AEBF44A70F60DBD00010C80E50B
:0139E60022BE
:04369B007F017E002D
:07369F007859EEF208EFF28A
:1036A600E408F208F230B721E4FFFED3785AE29F2D
:1036B60018E29E401EE4FDFC0DBD00010CEDF44C2D
:1036C60070F60FBF00010E80E2123A8B7F147E0067
:1036D6001239C8785CE22401F218E23400F2C30819
:0936E600E2946418E2940040BC77
:0136EF0022B8
:103A8B0030B60512008E80F87FF47E011239C830F3
:033A9B00B6FD2253
:10008E0078617C007DFE7BFF7A3779917E007F015F
:10009E00120F307807E2700302026E785D7401F27F
:1000AE00785DE2FFC39410507BEF25E025E024D469
:1000BE00F582E43402F583E07028E2FD25E025E0C8
:1000CE0024D5F582E43402F583E0FEED25E025E04B
:1000DE0024D6F582E43402F583E0FDEDFF123A6298
:1000EE00803A785DE225E025E024D4F582E43402FE
:1000FE00F583E0B40126E2FD25E025E024D5F58266
:10010E00E43402F583E0FEED25E025E024D6F58209
:10011E00E43402F583E0FDEDFF123A08785DE20467
:10012E00F20200AE0000000000000000000000001F
:10013E0000000000000000007BFF7A377942E4786F
:10014E0067F208F208F208F274FF08F208F2E4FD12
:10015E00FC122DD49002D7E020E003020253785D0A
:10016E007401F2785DE2FFC394104003020253EF74
:10017E0025E025E024D4F582E43402F583E07055C1
:10018E00E2FD25E025E024D5F582E43402F583E096
:10019E00FEED25E025E024D6F582E43402F583E079
:1001AE00FDEDFFE2FB25E025E024D7F582E43402E5
:1001BE00F583E075F024A4FDACF0EB75F011A4FB13
:1001CE00AAF078687407F20874E0F2E408F208F214
:1001DE001229468068785DE2FB25E025E024D4F5FF
:1001EE0082E43402F583E064017052E2FD25E025DD
:1001FE00E024D5F582E43402F583E0FEED25E0251A
:10020E00E024D6F582E43402F583E0FDEDFFEB2524
:10021E00E025E024D7F582E43402F583E075F0247E
:10022E00A4FDACF0EB75F011A4FBAAF07868E4F233
:10023E0008741FF274FF08F208F2122946785DE284
:10024E0004F2020171000000000000000000000036
:10025E00000000000000000000E47807F20200A198
:10026E00780DE2700302033AE4785DF2785DE2C342
:10027E0094404003020327C2B0D2B1E2FE24D4F56B
:10028E0082E43402F583E0FF74D52EF582E4340265
:10029E00F583E0FD1238D0D2B0785DE2FF24D4F5BC
:1002AE0082E43402F583E0FE780508E2FD2401F2D3
:1002BE0018E2FC3400F2747C2DF58274003CF58358
:1002CE00EEF074D52FF582E43402F583E0FF08E2F8
:1002DE00FD2401F218E2FC3400F2747C2DF58274D8
:1002EE00003CF583EFF008E2B4002518E2B40220DA
:1002FE00780812115E1231B47804E290007CF07F1F
:10030E00007E007D007C001231B4E47805F208F224
:10031E00785DE22402F202027AE4780DF27BFE7A34
:10032E000079617D01FC1224FD02026E7800E270FC
:10033E00030204479002D7E070030203FD785D7458
:10034E0004F2785DE2C394244003020434C2B0D2B6
:10035E00B1E2FE24D4F582E43402F583E0FF74D5D5
:10036E002EF582E43402F583E0FD1238D0D2B07857
:10037E005DE2FF24D4F582E43402F583E0FE7805D5
:10038E0008E2FD2401F218E2FC3400F2747C2DF533
:10039E008274003CF583EEF074D52FF582E43402BE
:1003AE00F583E0FF08E2FD2401F218E2FC3400F2CE
:1003BE00747C2DF58274003CF583EFF008E2B400F6
:1003CE002518E2B40220780812115E1231B47804B6
:1003DE00E290007CF07F007E007D007C001231B444
:1003EE00E47805F208F2785DE22402F20203507816
:1003FE005D7404F2785DE2C39424502AC2B0D2B187
:10040E00E2FE24D4F582E43402F583E0FF74D52EA7
:10041E00F582E43402F583E0FD1238D0D2B0785D77
:10042E00E22402F280CEE47800F27BFE7A0079615B
:10043E007D01FC1224FD02033A780FE270030204E0
:10044E00FE785D7404F2785DE2FFC39424400302EB
:10045E0004EB74D42FF582E43402F583E07020E2CD
:10046E00FD24D5F582E43402F583E0FE74D62DF535
:10047E0082E43402F583E0FDEDFF123A6280557896
:10048E005DE224D4F582E43402F583E0B40120E287
:10049E00FD24D5F582E43402F583E0FE74D62DF505
:1004AE0082E43402F583E0FDEDFF123A08802578F0
:1004BE005DE224D4F582E43402F583E06410701416
:1004CE00000000000000000000000000000000001E
:1004DE0000000000785DE22404F2020454E4780F78
:1004EE00F27BFE7A0079617D01FC1224FD02044745
:1004FE00780CE27003020653E4785DF2785DE2FF59
:10050E00C394185011747C2FF582E43402F583E401
:10051E00F0E204F280E69002DBE025E07860F290F3
:10052E0002D9E0FEA3E0FDEE785EF2ED08F2900255
:10053E00D8E06401703C18E2FE08E2FF123A62E471
:10054E00785DF27860E2FF785DE2C39F5024123A44
:10055E004C785DE2FD247CF582E43402F583E4F010
:10056E00747D2DF582E43402F583EFF0E22402F27D
:10057E0080D1E4780CF27B017A02797C7860E2FD1E
:10058E007C001224FD7F647E001239C87BFF7A370F
:10059E00794CE47867F208F208F208F274FF08F278
:1005AE0008F2E4FDFC122DD49002D7E020E0030205
:1005BE0004FE9002DCE075F024A4FDACF0785EE25F
:1005CE00FE08E2FF78687407F20874E0F2E408F2BD
:1005DE0008F27B11FA122946E4785DF27860E2FFA8
:1005EE00785DE2F9C39F40030204FE9002DCE075E1
:1005FE00F024A4FDACF0C004C005E9C3132402FF2F
:10060E00E433FE7C007D11120F9CAA06AB07747CAE
:10061E0029F582E43402F583E0FE747D29F582E447
:10062E003402F583E0FDEDFF7868E4F208741FF202
:10063E0074FF08F208F2D005D004122946785DE264
:10064E002402F28097780EE26042E4785DF2785DE3
:10065E00E2FFC39440501174942FF582E43402F5F6
:10066E0083E4F0E204F280E69002947401F0A37445
:10067E00E0F0A37401F0A37440F0E4780EF27B0175
:0C068E007A0279947D40FC1224FD80B9B2
:01069A00223D
:1037D90053D9BF75B283E4F5B943B980FF0FEFB48C
:1037E900FFFB43B9C0E5B930E5FBE4F5A943EF02B6
:1037F90075F1FF75A4FF75A5FF75F2FF75A6FF7535
:10380900AEFF75F4FF43A717C286C28743E102439F
:02381900E2408B
:01381B00228A
:103404001237D9123856903755E493FE740193FF5E
:10341400903757E493FC740193FD90028374FFF09A
:10342400A37437F0A37473F0A374FFF0A37437F09C
:10343400A37483F090378DE493900289F090378ED3
:10344400E49390028AF090378FE493FB7401939095
:10345400028BCBF0A3EBF07BFF7A377959122183EF
:0C346400123A1D75A17075F80F021EF8D9
:030040000238E79C
:03008B000220460A
:10204600C0E0C0F0C083C082C0D075D000C000C060
:0D20560001C002C003C004C005C006C007E1
:10206300123AAF7856EFF220E20302210D7B017A98
:102073000279D47D40122AAC7801E2FF9002D4E0C9
:10208300FEB5071408E2FDA3E0B5050C08E2FDA3C5
:10209300E0B505047807806F7803E2FDB5061318F1
:1020A300E2FE9002D5E0B50609A3E0B50704780C7B
:1020B30080557802E2FF9002D4E0B5071118E2FEE2
:1020C300A3E0B50609A3E0B50504780E80397801CD
:1020D300E2FE9002D4E0FDB506127803E2FCA3E031
:1020E300B50409A3E0B507047800801B7803E2B5C3
:1020F30005139002D5E0B5060C18E2FFA3E0B5077F
:1021030004780F8002780D7401F27856E230E70309
:102113001200407856E230E6031237D97856E2309F
:10212300E41C15081508A8087401F20874DFF27A94
:10213300007B007C017D3F7E007F00122CB7785628
:10214300E230E5217804E204F215081508A80874C2
:1021530001F20874DFF27A007B007C017D3F7E0090
:052163007F00122CB703
:10216800D007D006D005D004D003D002D001D000CB
:0B217800D0D0D082D083D0F0D0E03275
:0C3A36007FFF123A427FFF123A427FFFEE
:093A42008FA330FFFDC2FFAFA30A
:013A4B002258
:0A3AC90075A3FF30FFFDC2FFAFA39D
:013AD30022D0
:0232A900AE076E
:1032AB00E4FB123A36123A36C2FAEE4440FF123AB7
:1032BB00427867E2FC08E2FD08E2FE08E2FF7818BC
:1032CB00121138123A427867E2FC08E2FD08E2FE7E
:1032DB0008E2FF7810121138123A427867E2FC08C4
:1032EB00E2FD08E2FE08E2FF7808121138123A42BA
:1032FB007867080808E2FF123A427F95123A427F3C
:10330B00FF123A42BFFF09AE030BEED3946440EFBA
:02331B00D2FAE4
:01331D00228D
:10288F00E4FEFA75A90375A23BE4FD7FFF123A42FD
:10289F000DEDB464F678671211C700000000E4FF75
:1028AF001232A9AE070AEAD3940A5004EEB401D942
:1028BF00E4FA78671211C7000000007F371232A9BF
:1028CF00AE070AEAD3946440037F0122EEB401E21B
:1028DF00E4FA78671211C7000000007F291232A9AD
:1028EF00AE070AEAD3946440037F0122EE70C3EE71
:1028FF00601FE4FA78671211C7000000007F011211
:10290F0032A9AE070AEAD3946440037F0122EE7026
:10291F00E378671211C7000000007F3B1232A9AEA7
:10292F000778671211C7000002007F101232A975D5
:06293F00A201E4F5A9FF6E
:01294500226F
:05347000781012118A22
:10347500E4FA75A9037810E2FC08E2FD08E2FE080B
:10348500E2FF780912114B786712118A7F11123207
:10349500A90AEAD3940A40037F0122EF70D7C2FA42
:1034A500123AC9BFFEFAE4FDFC123AC9747C2DF547
:1034B5008274003CF583EFF00DBD00010CE4B50509
:0E34C500E8ECB402E4123A3BD2FAE4F5A9FFB7
:0134D30022D6
:0531B400786212118A8F
:1031B900E4FA75A9037862E2FC08E2FD08E2FE0878
:1031C900E2FF780912114B786712118A7F181232BF
:1031D900A9AE070AEAD3940A40037F0122EE70D50B
:1031E900C2FA7FFF123A427FFE123A42FDFC747C1A
:1031F9002DF58274003CF583E0FF123A420DBD00C3
:10320900010CE4B505E8ECB402E4123A36AE07EE77
:10321900541F64056003D2FA227FFF123A42EF601D
:07322900F8D2FAE4F5A9FF59
:01323000227B
:103A9E00E4F912288FEF600809E9D3940340F3226A
:013AAE0022F5
:10069B000000001824424242424242422418000009
:1006AB00000000107010101010101010107C0000C3
:1006BB000000003C4242420404081020427E00002D
:1006CB000000003C4242041804020242443800007D
:1006DB00000000040C14242444447E04041E000077
:1006EB000000007E40404058640202424438000043
:1006FB000000001C24404058644242422418000071
:10070B000000007E44440808101010101010000068
:10071B000000003C4242422418244242423C00006A
:10072B000000001824424242261A0202243800001C
:10073B000000001010182828243C444242E7000017
:10074B00000000F8444444784442424244F800001C
:10075B000000003E4242808080808042443800008E
:10076B00000000F8444242424242424244F8000038
:10077B00000000FC424848784848404242FC0000D8
:10078B00000000FC424848784848404040E00000E8
:10079B000000003C44448080808E84444438000038
:1007AB00000000E7424242427E42424242E70000E2
:1007BB000000007C1010101010101010107C0000A6
:1007CB000000003E0808080808080808080888F018
:1007DB00000000EE444850705048484444EE00007E
:1007EB00000000E0404040404040404042FE0000DE
:1007FB00000000EE6C6C6C6C5454545454D60000D6
:10080B00000000C7626252524A4A4A4646E2000062
:10081B000000003844828282828282824438000047
:10082B00000000FC424242427C40404040E000005D
:10083B0000000038448282828282B2CA4C380600A1
:10084B00000000FC4242427C4848444442E3000022
:10085B000000003E4242402018040242427C00004D
:10086B00000000FE92101010101010101038000035
:10087B00000000E74242424242424242423C0000F8
:10088B00000000E7424244242428281810100000DE
:10089B00000000D692929292AAAA6C4444440000A3
:1008AB00000000E7422424181818242442E7000013
:1008BB00000000EE444428281010101010380000DF
:1008CB000000007E840408081020204242FC000037
:1008DB00001E1010101010101010101010101E0011
:1008EB0000004040202010101008080404040202ED
:1008FB00007808080808080808080808080878009D
:10090B00001C22000000000000000000000000009E
:10091B00000000000000000000000000000000FFCD
:10092B00006010000000000000000000000000004C
:10093B00000000000000003C421E2242423F00002B
:10094B00000000C0404040586442424264580000DE
:10095B00000000000000001C22404040221C000050
:10096B00000000060202021E22424242261B000029
:10097B00000000000000003C427E4040423C000072
:10098B000000000F1110107E10101010107C0000D2
:10099B00000000000000003E444438403C42423C12
:1009AB00000000C04040405C6242424242E700000F
:1009BB00000000303000007010101010107C000090
:1009CB000000000C0C00001C040404040404447814
:1009DB00000000C04040404E4850684844EE0000C4
:1009EB00000000701010101010101010107C000080
:1009FB0000000000000000FE4949494949ED000094
:100A0B0000000000000000DC6242424242E70000AE
:100A1B00000000000000003C42424242423C000009
:100A2B0000000000000000D864424242447840E0DD
:100A3B00000000000000001E22424242221E02075C
:100A4B0000000000000000EE3220202020F8000003
:100A5B00000000000000003E42403C02427C0000CF
:100A6B00000000000010107C10101010100C000083
:100A7B0000000000000000C642424242463B00001C
:100A8B0000000000000000E74224242810100000A2
:100A9B0000000000000000D79292AAAA4444000074
:100AAB00000000000000006E2418181824760000C7
:100ABB0000000000000000E742242428181010E07A
:100ACB00000000000000007E44081010227E000091
:100ADB0000030404040404080404040404040300D1
:100AEB00080808080808080808080808080808087B
:100AFB000060101010101008101010101010600073
:100B0B00304C43000000000000000000000000001B
:100B1B0000000000000000000000000000000000CA
:100B2B00000000101010101010100000181800001A
:100B3B0000123624480000000000000000000000F6
:100B4B00000000242424FE484848FE484848000082
:100B5B0000001038545450301814145454381010DA
:100B6B0000000044A4A8A8A8541A2A2A2A4400006A
:100B7B0000000030484848506EA4948889760000E5
:100B8B0000606020C00000000000000000000000BA
:100B9B0000020408081010101010100808040200BE
:100BAB00004020101008080808080810102040000A
:100BBB00000000001010D63838D6101000000000CE
:100BCB000000000010101010FE101010100000009C
:100BDB00000000000000000000000000606020C06A
:100BEB0000000000000000007F000000000000007B
:100BFB00000000000000000000000000606000002A
:100C0B0000000102020404080810102020404000DC
:100C1B000000000000001818000000001818000069
:100C2B000000000000000010000000000010102069
:100C3B0000000002040810204020100804020000ED
:100C4B00000000000000FE000000FE00000000009D
:100C5B00000000402010080402040810204000008F
:100C6B000000003C42426202040808001818000011
:100C7B0000000038445AAAAAAAAAB4424438000079
:100C8B00FFFFFFFFFFFFFFFFFFFFFFFFFFFFFFFF69
:0438B6008254000038
:041413007862EFF21A
:10141700ED64086003021505C2B0D296C2B1E2F5C9
:10142700A0C297D297D2B0E4F5A675F3FF75A0FFD7
:10143700C2B0D2B1D297C2960000000000000000EF
:10144700D28700000000AFA07865F208EFF2C287EC
:1014570000000000D29600000000C29600000000C5
:1014670000000000D28700000000A9A0C28700008A
:101477000000D29600000000C296000000000000A5
:101487000000D287000000007869E5A0F2C287005B
:10149700000000D2960000000000000000C2960085
:1014A70000000000000000D28700000000AAA0C2D0
:1014B7008700000000D2960000000000000000D264
:1014C70096000000000000000075A6FFEBB4010BBA
:1014D7007866E2FEE9F582EE08801EEBB4020CE9BD
:1014E700FE7869E2F582EE7867800EEBB4030F7839
:1014F70069E2FEEAF582EE7867F2E58208F2ED64CA
:10150700044C600302163B75A6FF7862E2FFC2B087
:10151700C2B1E4FDC297EF30E704D2968002C296CB
:10152700D297EF25E0FF0DEDB408E975A6FEEB6451
:10153700016005EB6403702AE4FDC297D287D29657
:101547007864E225E0FF18E233FEA296E433F582E1
:10155700EEF2EF458208F2C287D2970DEDB409DAB1
:101567008032EB64026005EB64047028E4FDC297E7
:10157700D287D2967864E225E0FF18E233FEA2967E
:10158700E433F582EEF2EF458208F2C287D2970D77
:10159700EDB410DAE4FDC297D287D2967866E225D9
:1015A700E0FF18E233FEA296E433F582EEF2EF4550
:1015B7008208F2C287D2970DEDB408DAE4FDC2972C
:1015C700D287D296E925E0FFA296E4334FF9C28786
:1015D700D2970DEDB408E7E4FDC297D287D296788B
:1015E70069E225E0FFA296E4334FF2C287D2970D56
:1015F700EDB408E575A6FFC287D296D2B1D297D2CD
:1016070096D2B0EBB401127864E2FE08E24EFF080E
:10161700E208CFF208EFF2801BEB6402600AEBB43A
:1016270003028004EBB4040C7866E2FEE9FDEE08E1
:0D163700F2ED08F2C2877867E2FE08E2FFDC
:011644002283
:023A6200AC06B0
:103A6400EC787BF2C2B0D296C2B18FC7C297D2971C
:023A7400D2B0CE
:013A7600222D
:043A0400F808E2FFDD
:023A0800AC060A
:103A0A00EC787BF2C2B0D296D2B18FC7C297D29766
:023A1A00D2B028
:013A1C002287
:1038BB00FFAE03EE33333354F84FFFEE25E0FEC477
:0538CB003354E04BFD49
:1038D000C2B0D296D2B18FC7C297D297AF058FC769
:0638E000C297D297D2B09E
:0138E60022BF
:093AD400AD07AC06ECFF0238D08E
:101EF800123A4CD2857FC87E001239C8C2857FC885
:101F08007E001239C8D2857FC87E001239C87F96F4
:101F18007E001239C87F117E00123A627F9612390C
:101F2800C87FF07E00123A627FC3123A087FF0122F
:101F38003A627F96123A087F3A123A627F55123A0D
:101F4800087F36123A627F48123A087FE8123A62EE
:101F58007F40123A087F82123A087F07123A087FB8
:101F680018123A087F27123A087F0A123A087FB6F1
:101F7800123A087F33123A087FC5123A627F271255
:101F88003A087FC2123A627FA7123A087FE0123AF3
:101F9800627FF0123A087F01123A087F06123A0867
:101FA8007F0F123A087F12123A087F1D123A087FF3
:101FB80036123A087F54123A087F44123A087F0CC6
:101FC800123A087F18123A087F16123A087F13123D
:101FD8003A087F15123A087FE1123A627FF0123A06
:101FE800087F01123A087F05123A087F0A123A0858
:101FF8000F123A087F07123A087F32123A087F44D4
:10200800123A08123A087F0C123A087F18123A0856
:102018001F123A087F13123A087F16123A087FF007
:10202800123A627F3C123A087FF0123A627F6912D4
:0E2038003A087F961239C87F297E00023A626C
:102C9D00F2150815087401A808F20874DFF27C011A
:0A2CAD007D3F7A007B007E007F006F
:102CB70015081508A808EAF208EBF215081508A880
:102CC70008ECF208EDF215081508A808EEF208EF6F
:102CD700F27F2A7E00123A62A908E3FF123A08A897
:102CE7000808E2FF123A08A8080808A900E3FF123B
:102CF7003A08A808080808E2FF123A087F2B123A98
:102D070062E5082404F9E3FF123A08E508240412EF
:102D17003A04E5082406F9E3FF123A08E508240611
:102D2700123A047F2C123A6275A903E5082408F5C4
:022D3700082270
:02004600AC0606
:10004800EC785BF2EF08122C9DC2B0E47859F20804
:10005800F2E4FBFA785BE2FF08E2FD1238D00BBB52
:1000680000010ABA01EEBB40EB785AE22401F2180B
:10007800E23400F2C308E294E018E2940140D2D2DC
:01008800B0C7
:010089002254
:102B5B00122C9EC2B079F8E4FE7FF8FD1238D079C2
:102B6B00077EE07F077DE01238D00BBB00010ABA6D
:102B7B0001EDBB3EEAE4F97E1FFF7D1F1238D078D2
:102B8B0059F208F279F8E4FE7FF8FD1238D0FAFB1F
:102B9B00E4F9FEFFFD1238D00BBB00010ABA01F0BD
:102BAB00BB3EEDE4F97E1FFF7D1F1238D0785AE251
:102BBB002401F218E23400F2C308E294DE18E29426
:102BCB000140C179F8E4FE7FF8FD1238D0FAFB79A9
:102BDB00077EE07F077DE01238D00BBB00010ABAFD
:102BEB0001EDBB3EEAE4F97E1FFF7D1F1238D0F5E5
:032BFB00A9D2B0AC
:012BFE0022B4
:101C19007859746AF2785B7402F21874A0F2E47865
:101C29005CF2C2B01508150804122CA4785AE2FF18
:101C3900C3EB9FEA94005069E4785DF27859E2FFBA
:101C4900785DE2C39F500CE4FD7FF81238D0E204BE
:101C5900F280E9E4785DF27859E2FF785DE2C39FAA
:101C6900500CE4FD7FF81238D0E204F280E9E47800
:101C79005DF2785BE2FF7859E22FFFE433FE785D8D
:101C8900E2C39FEE6480F8748098500EE4FD7FF8FB
:101C99001238D0785DE204F280D80BBB00010A80CB
:101CA9008BE4FAFB785AE2FFC3EB9FEA9400506990
:101CB900E4785DF27859E2FF785DE2C39F500C7DCC
:101CC900E07F071238D0E204F280E9E4785DF27827
:101CD90059E2FF785DE2C39F500C7DE07F0712381F
:101CE900D0E204F280E9E4785DF2785BE2FF7859AA
:101CF900E22FFFE433FE785DE2C39FEE6480F8745F
:101D09008098500E7DE07F071238D0785DE204F2AA
:101D190080D80BBB00010A808BE4FAFB785CE2FFF8
:101D2900785AE22FFFE433FEC3EB9FEA9E5069E441
:101D3900785DF27859E2FF785DE2C39F500C7D1F10
:101D4900E4FF1238D0E204F280E9E4785DF27859D0
:101D5900E2FF785DE2C39F500C7D1FE4FF1238D08B
:101D6900E204F280E9E4785DF2785BE2FF7859E217
:101D79002FFFE433FE785DE2C39FEE6480F8748040
:101D890098500E7D1FE4FF1238D0785DE204F2808E
:0D1D9900D80BBB00010A8084D2B0E4F5A98C
:011DA600221A
:1034D400AA06A907781474FFF208EAF208E9F215BB
:1034E400081508A808E4F208749FF27C007D7F1296
:1034F4002CAFE47817F208F27817E2FE08E2FFC373
:10350400EE9440502DEF25E0FFEE33FE7814E2FBFD
:1035140008E2FA08E2F98F828E83120FC4FDACF040
:10352400ECFF1238D07818E22401F218E23400F2E9
:0235340080C64F
:013536002272
:03260E007819EF49
:10261100122C9DC2B0D2B178221211C7000002580B
:102621007819E2FFE4FCFDFE7822E2FB08E2F908FA
:10263100E2FA08E2CBF8120FFCEF2401FFE43EFEC0
:10264100E43DFDE43CFC781A12118A7822E2FC0890
:10265100E2FD08E2FE08E2FF781AE2FB08E2F9086F
:10266100E2FA08E2CBF8EB2FFFEA3EFEE93DFDE896
:102671003CFC781E8078781EE2FC08E2FD08E2FE50
:1026810008E2FF781AE2FB08E2F908E2FA08E2CB75
:10269100F8C3121127505C781AE2FC08E2FD08E247
:1026A100FE08E2FF123470E4FBFAC3EA94025024FC
:1026B100747C2BF58274003AF583E0FF747D2BF571
:1026C1008274003AF583E0FD1238D074022BFBE4EA
:1026D1003AFA80D6781AE2FC08E2FD08E2FE08E246
:1026E1002401FFE43EFEE43DFDE43CFC781A1211B6
:0526F1008A8083D2B0D5
:0126F60022C1
:10164500122C9EE47826F208F2C37826E294005024
:1016550012E4FDFF1238D008E22401F218E234004A
:10166500F280E6E47826F208F2E47828F208F278C7
:1016750026E2FE08E27803C333CE33CED8F9FFE481
:10168500FD1238D07829E22401F218E23400F2C3C1
:1016950008E2940A18E2940040D57827E22401F282
:1016A50018E23400F2C308E2942018E2940040B92D
:1016B5000BBB00010AEB64784A7088E4FAFBE47816
:1016C50026F208F2C37826E294005012E4FDFF12D8
:1016D50038D008E22401F218E23400F280E6E4781A
:1016E50026F208F2E47828F208F27827E225E0FDF0
:1016F50018E233FCEDAE047803CEC313CE13D8F94C
:10170500FFC007EDAE047805C333CE33CED8F9FD5F
:10171500D0071238D07829E22401F218E23400F219
:10172500C308E2940A18E2940040BF7827E2240136
:10173500F218E23400F2C308E2942018E294004063
:10174500A30BBB00010AEB64784A60030216C3E4ED
:10175500FAFBE47826F208F2C37826E294005012E8
:10176500E4FDFF1238D008E22401F218E23400F259
:1017750080E6E47826F208F2E47828F208F2782682
:1017850008E2FDE4FF1238D07829E22401F218E2DC
:101795003400F2C308E2940A18E2940040E0782786
:1017A500E22401F218E23400F2C308E2942018E2C0
:1017B500940040C40BBB00010AEB64784A7093E4C3
:1017C500FAFBE47826F208F2C37826E29400501278
:1017D500E4FDFF1238D008E22401F218E23400F2E9
:1017E50080E6E47826F208F2E47828F208F2782612
:1017F500E2FC08E2FD25E0FFEC33FEEF7803CEC303
:1018050013CE13D8F9FFAE05EE33333354F84FFF3B
:10181500EE25E0C43354E0FE782608E24EFD12388A
:10182500D07829E22401F218E23400F2C308E294E8
:101835000A18E2940040B77827E22401F218E2344E
:1018450000F2C308E2942018E29400409B0BBB0011
:0D185500010AEB64784A60030217C7D2B0A5
:011862002263
:1022BA00122C9EC3EA94005029E4782CF208F2E426
:1022CA00FDFF1238D0782DE22401F218E23400F230
:1022DA00C308E2944018E2940140E40BBB00010AEF
:1022EA0080D1E4FAFBE4782AF208F2E4782CF208C6
:1022FA00F2EBAE027803C333CE33CED8F9FFE4FD56
:10230A001238D0782DE22401F218E23400F2C30820
:10231A00E2945018E2940040D8E4782CF208F2EBE8
:10232A0025E0FDEA33FCEDAE047803CEC313CE13E9
:10233A00D8F9FFC007EDAE047805C333CE33CED843
:10234A00F9FDD0071238D0782DE22401F218E234D0
:10235A0000F2C308E2945018E2940040C2E4782CD8
:10236A00F208F2AD03E4FF1238D0782DE22401F22C
:10237A0018E23400F2C308E2945018E2940040E3F1
:10238A00E4782CF208F2EB25E0FFEA33FEEF78035B
:10239A00CEC313CE13D8F91238BB782DE22401F23A
:1023AA0018E23400F2C308E2945018E2940040D6CE
:1023BA00782BE22401F218E23400F2C308E2940F07
:1023CA0018E2940050030222F50BBB00010AEB64E9
:0723DA00204A60030222EF1C
:0123E10022D9
:102E6A00122C9EC2B0D2B1C3EA94005029E4783041
:102E7A00F208F2E4FDFF1238D07831E22401F218A8
:102E8A00E23400F2C308E2944018E2940140E40BF1
:102E9A00BB00010A80D1E4FAFBE4782EF208F2E4DE
:102EAA007830F208F2EBAE027803C333CE33CED8D1
:102EBA00F9FFE4FD1238D07831E22401F218E23445
:102ECA0000F2C308E2944018E2940140D8782FE255
:102EDA002401F218E23400F2C308E2940F18E294D3
:102EEA000040BC0BBB00010AEB64204A70ABD2B0B5
:012EFA0022B5
:102BFF00122C9EC2B0D2B1E47834F208F2E4FDFF99
:102C0F001238D07835E22401F218E23400F2C3080A
:102C1F00E2944018E2940140E40BBB00010AEB641C
:102C2F00204A70D3E4FAFBE47832F208F2E4783405
:102C3F00F208F2EBAE027803CEC313CE13D8F9FF2E
:102C4F00C007EBAE027805C333CE33CED8F9FDD033
:102C5F00071238D07835E22401F218E23400F2C3BB
:102C6F0008E2944018E2940140C97833E22401F25B
:102C7F0018E23400F2C308E2940718E2940040AD62
:0D2C8F000BBB00010AEB64404A709CD2B000
:012C9C002215
:1030A800122C9EC2B0D2B1C3EA94005029E47838F9
:1030B800F208F2E4FDFF1238D07839E22401F21860
:1030C800E23400F2C308E2944018E2940140E40BB1
:1030D800BB00010A80D1E4FAFBE47836F208F2E496
:1030E8007838F208F2AD03E4FF1238D07839E224D8
:1030F80001F218E23400F2C308E2944018E29401A5
:1031080040E37837E22401F218E23400F2C308E21F
:10311800940F18E2940040C70BBB00010AEB64202F
:053128004A70B6D2B0B0
:01312D00227F
:102EFB00122C9EC2B0C3EA94005029E4783CF2082D
:102F0B00F2E4FDFF1238D0783DE22401F218E234EE
:102F1B0000F2C308E2944018E2940140E40BBB00BA
:102F2B00010A80D1E4FAFBE4783AF208F2E4783C47
:102F3B00F208F2EB25E0FFEA33FEEF7803CEC31382
:102F4B00CE13D8F91238BB783DE22401F218E234E3
:102F5B0000F2C308E2944018E2940140D6783BE2B9
:102F6B002401F218E23400F2C308E2940F18E29441
:102F7B000040BA0BBB00010AEB64204A70A9D2B027
:012F8B002223
:102D3900122C9EC2B0D2B1E47859F208F2E4FBFA3F
:102D4900C3EA9400500DE4FDFF1238D00BBB00011B
:102D59000A80EDE4FAFBE4785BF208F2EBAE027864
:102D690002C333CE33CED8F97803CEC313CE13D8EA
:102D7900F9FFAE03EE25E0F933333354F84FFFEE94
:102D890025E025E0FEC43354E049FD1238D0785CD3
:102D9900E22401F218E23400F2C308E2941418E2C2
:102DA900940040B80BBB00010AEB64104A70A77885
:102DB9005AE22401F218E23400F2C308E294E0185E
:0A2DC900E294015003022D46D2B03F
:012DD30022DD
:10323100122C9EC2B0E4783EF208F2E4FBFAC3EA33
:103241009400500DE4FDFF1238D00BBB00010A8041
:10325100EDE4FAFBE47840F208F2EB25E0FFEA3313
:10326100FEEF7803CEC313CE13D8F91238BB7841E1
:10327100E22401F218E23400F2C308E2940A18E2EF
:10328100940040D60BBB00010AEB64204A70C5785C
:103291003FE22401F218E23400F2C308E294E0189C
:0732A100E294014096D2B057
:0132A8002203
:101A5F00122C9EE47842F208F2E4FD7FF81238D09F
:101A6F007843E22401F218E23400F2C308E2944012
:101A7F0018E2940140E30BBB00010AEB643C4A708F
:101A8F00D2E4FAFBE47842F208F27DE07F071238E5
:101A9F00D07843E22401F218E23400F2C308E29452
:101AAF004018E2940140E30BBB00010AEB643C4A8F
:101ABF0070D2E4FAFBE47842F208F27D1FE4FF12E1
:101ACF0038D07843E22401F218E23400F2C308E27E
:101ADF00944018E2940140E30BBB00010AEB643C15
:101AEF004A70D2E4FAFBE47842F208F27DE07FFF1D
:101AFF001238D07843E22401F218E23400F2C3081E
:101B0F00E2944018E2940140E30BBB00010AEB643E
:101B1F003C4A70D2E4FAFBE47842F208F27D1F7F70
:101B2F00F81238D07843E22401F218E23400F2C3FD
:101B3F0008E2944018E2940140E30BBB00010AEB6A
:101B4F00643C4A70D2E4FAFBE47842F208F27DFF7B
:101B5F007F071238D07843E22401F218E23400F202
:101B6F00C308E2944018E2940140E30BBB00010A62
:101B7F00EB643C4A70D2E4FAFBE47842F208F27D5F
:101B8F00FF7FFF1238D07843E22401F218E23400CD
:101B9F00F2C308E2944018E2940140E30BBB00014A
:101BAF000AEB643C4A70D2E4FAFBE47842F208F2A2
:101BBF00E4FDFF1238D07843E22401F218E234003A
:101BCF00F2C308E2944018E2940140E40BBB000119
:101BDF000AEB643C4A70D3E4FAFBC3EA9400502941
:101BEF00E47842F208F2E4FDFF1238D07843E224A1
:101BFF0001F218E23400F2C308E2944018E29401B3
:091C0F0040E40BBB00010A80D186
:011C180022A9
:10353700EFC3942050047F5F8050EFC39420400C6A
:10354700EFD3942F5006EF2428FF803EEFC394302B
:10355700400CEFD39439500674D02FFF802CEFC363
:10356700943A400CEFD394405006EF241EFF801A84
:10357700EFC39441400CEFD3947E5006EF24C9FF6C
:0B3587008008EFD3947E40027F5F229B
:1027C400FD18E23400FC7866E2FA08E2FB08E2F560
:1027D4008308E2F5827872E583F208E582F2786A8A
:1027E400E2F58308E2F5827874E583F208E582F283
:0827F400786DEFF2AF05AE04B1
:1027FC00EB240FFCE43A15081508A808F208CCF2F3
:10280C00EF2407FDE43EFC122CB7786DE2FF7E004E
:10281C00D3945FEE940040027F5FEFC4F8540FC86E
:10282C0068FFEEC454F048FE787774FFF208740623
:10283C00F208749BF2E22FF218E23EF2E47876F2A0
:10284C007877E2FB0808E2F92401F218E2FA340086
:10285C00F2120F56FBE4FAEBA802088002C333D83D
:10286C00FC30E704787280027874E2FE08E2FF1212
:10287C003AD40AEAB408E07876E204F2E2C394109F
:02288C0040BE4C
:01288E002227
:102DD4007862EBF208EAF208E9F208ECF208EDF2A4
:102DE4007862E2FB08E2FA08E2F9120F567003D3A4
:102DF4008001C340707862E2FB0808E2F92401F222
:102E040018E2FA3400F2120F56FF1235377865E2F1
:102E1400FC08E2FD08E2FA08E2FB08E2F58308E2B6
:102E2400F5827872E583F208E582F2786B1227E482
:102E3400D37866E2943718E29401400BE4F208F286
:102E44007868E2241080057866E22408F218E234F7
:102E540000F2D37868E294CF18E294014082E4F25D
:062E640008F2022DE42239
:102946007862EEF208EFF27866EAF208EBF2786463
:10295600ECF208EDF2D3941FEC94014008187401D0
:10296600F208741FF27866E2FE08E2FFD394CFEE17
:1029760094014009EF24EFF2EE34FF18F27862E298
:10298600C4540FFF7864E2FC08E2FD081227CC78F5
:1029960062E2540FFF7865E224081227C47962E3E5
:1029A600C4F854F0C809E3C4540F48540FFF7865BF
:1029B600E224101227C47863E2540FFF7865E224FC
:1029C60018FD18E23400FC7866E2FA08E2FB08E239
:1029D600F58308E2F5827872E583F208E582F278FB
:1029E6006AE2F58308E2F5827874E583F208E58207
:0429F600F20227F4CE
:103A4C007B027D087C00E4FF1214137854EEF2081C
:063A5C00EFF2E4FEFF2280
:1036F0007859EAF208EBF2ED2401FAE43C150815DA
:1037000008A808F208CAF2AB05AA04EF2401FDE4F8
:103710003EFC122CB77859E2FC08E2FDECFF1238AF
:10372000D018E2FC08E2FDECFF1238D018E2FC08E9
:10373000E2FDECFF1238D018E2FC08E2FDECFF02DB
:0237400038D07F
:10312E007844EEF208EFF28B828A8308ECF208ED17
:01313E00F29E
:10313F00784AE2FF08E215081508A808CFF208EF51
:10314F00F27844E2FE08E2FF122CB7AE83AF82782A
:10315F004EEEF208EFF2784BE22401FF18E2340052
:10316F00FEC3784FE29F18E29E50397844E2FE0882
:10317F00E2FBAA067847E22401FF18E23400FEC3FF
:10318F00EB9FEA9E5011784CE2FE08E2FF123AD410
:10319F000BBB00010A80DD784FE22401F218E23404
:0431AF0000F280B2F8
:0131B30022F9
:072F8C007850EEF208EFF2AD
:102F930008E4F208740FF2C37853E294DF18E29462
:102FA300015030E2FA08E2FB784AEAF208EBF278E1
:102FB30050E2FF08E2784CCFF208EFF27D3F7C014C
:102FC300E4FFFE12312E7853E22410F218E23400AB
:102FD300F280C47852E4F208740FF2C37853E29497
:102FE3003F18E294015031E2FC08E2FDFFAE0478A1
:102FF3004A7401F20874DFF27850E2FB08E2784C7D
:10300300CBF208EBF2E4FBFA12312E7853E22410F0
:08301300F218E23400F280C360
:01301B002292
:083ADD005450205445535400DD
:10396000C294C295E49002AFF0EF20E704C2B280A7
:1039700002D2B2D295EF25E0FFC2959002AFE004EB
:05398000F0E0B408E4D2
:01398500221F
:10331E009002B012119600000000C294D2B3E49055
:10332E0002AFF09002AFE0FFC3940C5049C295304B
:10333E00B33AC3740B9FFF74017E00A80708800583
:10334E00C333CE33CED8F9FFEE3395E0FDFC9002B9
:10335E00B0E0F8A3E0F9A3E0FAA3E04FFFEA4EFED7
:10336E00E94DFDE84CFC9002B012117ED295900210
:10337E00AFE004F080ADD2949002B0A3A3E0FEA320
:02338E00E0FF5E
:01339000221A
:0223E200AB0747
:1023E400E4900296F0A3F0A3F0D2B5900296E0C375
:1023F400940B502C20B529C294EB04FF12396012BF
:10240400331E900296E025E02499F582E43402F527
:1024140083EEF0A3EFF0900296E004F0D29480CB28
:10242400900296E070030224F9E4A3F0900296E08F
:10243400F9A3E0C39940030224E5E4A3F0900297D2
:10244400E0FF900296E0C39FFF900298E0C39F4094
:10245400030224DCE0FF25E0249BF582E43402F54A
:1024640083E0FCA3E0FDEF25E02499F582E4340247
:10247400F583E0FEA3E0D39DEE9C4053900298E0E8
:1024840025E02499F582E43402F583E0FCA3E0FD21
:10249400900294ECF0A3EDF0EF25E0249BF582E4A8
:1024A4003402F583E0FEA3E0FF900298E0FB25E010
:1024B4002499F582E43402F583EEF0A3EFF0EB25E2
:1024C400E0249BF582E43402F583ECF0A3EDF09074
:1024D4000298E004F0022441900297E004F0022400
:1024E40030E9C31325E02499F582E43402F583E04E
:0824F400FEA3E0FF22E4FEFF5D
:0124FC0022BD
:1018630090027C12119600000000900280121196E3
:101873000000000090028412119600000000900204
:10188300881211960000000090028C12119600003D
:10189300000090029012119600000000E4FFFE1277
:1018A30000467BFF7A3A79DDE47867F208F208F2C2
:1018B30008F274FF08F208F2E4FDFC122DD4D2B54D
:1018C30020B5FD20B603021A3A7F327E001239C8D2
:1018D30020B5F07FD01223E2E4FCFD9002841211C4
:1018E3007E900284E0FCA3E0FDA3E0FEA3E024BD20
:1018F300FFEE34FFFEED34FFFDEC34FFFCE47B40F0
:101903007A01F9F8120FFCE47BA57A02F9F81210B8
:1019130087E4120DA17BB87A1E7945783F120C9BA0
:10192300120DDF90027C12117E7F901223E2E4FC01
:10193300FD90028812117E900288E0FCA3E0FDA3D3
:10194300E0FEA3E024A0FFEE34FFFEED34FFFDEC48
:1019530034FFFCE47BE07A01F9F8120FFCE4FB7A34
:1019630003F9F8121087E4120DA17B337A337973EC
:10197300783F120C9B120DDF90028012117E7F0ABA
:101983007E001239C890027CE0F8A3E0F9A3E0FAE4
:10199300A3E0FBC374F09BFFE49AFEE499FDE49893
:1019A300FC90027C12117E30B5030218D3E4FFFED3
:1019B300FDFC90027CE0F8A3E0F9A3E0FAA3E0FBCE
:1019C300C312112750030218D3E47F407E01FDFCAC
:1019D30090027CE0F8A3A3A3E012112740030218AE
:1019E300D3E4FFFEFDFC900280E0F8A3E0F9A3E05E
:1019F300FAA3E0FBC312112750030218D3E47FE0DC
:101A03007E01FDFC900280E0F8A3A3A3E01211275E
:101A130040030218D390027CA3A3E0FEA3E0FFC01F
:101A230006A3A3A3E0FEA3E0FDAC06D0067B007AE9
:101A3300F81236F00218D3E4FFFE1200467BFF7A59
:101A43003A79DDE47867F208F208F208F274FF08E5
:0C1A5300F208F2E4FDFC122DD40218C6CB
:10381C001201100100000040C41000000000010261
:10382C0003010902200001010080FA0904000002D2
:10383C00FF0000000705020240000007058202405D
:0A384C00000004030904010000005D
:1021830090027CEEF0A3EFF0900280EBF0A3EAF074
:10219300A3E9F0E4900791F0900791E0FF90381CD9
:1021A30093FE74402FF582E43407F583EEF0900735
:1021B30091E004F0E0B412E0E4900791F09007910D
:1021C300E0FF90382E93FE74522FF582E43407F526
:1021D30083EEF0900791E004F0E0B420E090027CFD
:1021E300E0FEA3E0900748F0EEA3F0A3EDF0ECA32C
:1021F300F090077274FFF0A37438F0A3744EF0905C
:102203000280E0F9A3E0FAA3E0900775C9F0A3EA1E
:10221300F0A3E9F0900283E0F9A3E0FAA3E09007CA
:1022230078C9F0A3EAF0A3E9F0900286E0F9A3E00D
:10223300FAA3E090077BC9F0A3EAF0A3E9F09002C8
:1022430089E0FFC394FA500590075AEFF090028A91
:10225300E0900759F090028BE0FEA3E090074CF06A
:10226300EEA3F0E59620E7FB759601759708E596D2
:1022730020E7FB75960775970FE59620E7FB7596A4
:102283000975970EE59620E7FB75960B759707750D
:10229300D7E0123ABDE4900793F0900792F09007CD
:1022A30094F0900786F043E602D2AFE59620E7FB71
:0722B30075960175970122E9
:103912009007867402F0E59620E7FB75960175978D
:1039220001E490078EF0A37403F0A3F0E4900793F0
:07393200F090079204F0225F
:1011E000E59620E7FB75960EE4F597E59620E7FB7C
:1011F000759691E59620E7FB90079EE597F0E0FF56
:1012000030E210E59620E7FB759611E4F59790071C
:101210008EF022EF30E410E59620E7FB759611750D
:101220009780E490078EF090078EE0600302131120
:1012300090079EE020E0030213117596204396C0AC
:10124000E4900791F0E59620E7FB900791E0247E7B
:10125000F582E43407F583E597F0900791E004F018
:10126000E0B407E1E59620E7FBE4F596900791E00E
:10127000247EF582E43407F583E597F0900781E05A
:10128000FE900780E07C002400FFEC3E900795F084
:10129000A3EFF0900785E0FE900784E02400FFECC8
:1012A0003E900797F0A3EFF090077FE0B40C00505A
:1012B0005D9012B8F82828730212DC0212E10212C3
:1012C000E60212EB02130E0212F00212F502130EE6
:1012D0000212FA0212FF0213040213091233918060
:1012E000301235EC802B1226F780261236448021EE
:1012F0001239A8801C1229FA801712379280121214
:101300003592800D1239398008123A7780031239EC
:10131000E790078EE06401600302141290079E7448
:1013200002F0C390078DE0944090078CE094004059
:1013300061E59620E7FB759620E4900791F0900711
:1013400091E0FFC394405022900787E0FBA3E0FAAE
:10135000A3E0F98F82758300120F6FF597E5962051
:10136000E7FB900791E004F080D4900788E475F0E3
:1013700040120FAE90078DE024C0F090078CE0344F
:10138000FFF090078BE02440F090078AE03400F0F3
:101390008052E59620E7FB759620E4900791F09047
:1013A0000791E0FFD390078DE09F90078CE09400B9
:1013B0004026900787E0FBA3E0FAA3E0F9900791AD
:1013C000E0F582758300120F6FF597E59620E7FB35
:1013D000900791E004F080C790079EE04408F0E495
:1013E00090078EF0900797E0FEA3E0FF90078AE059
:1013F000B50611A3E0B5070C90079EE04408F0E4A1
:1014000090078EF0E59620E7FB75961190079EE019
:03141000F597222B
:1039E700E59620E7FB75960EE4F597E59620E7FB4D
:0D39F70075961175972090078E7404F022CC
:1033910090077EE0247F6007146006240270488055
:1033A1002D90078FE0B40309900782E0B4020280F8
:1033B1000E900790E0B40316900782E0B4820F905C
:1033C100078774FFF0A37438F0A37452800D90073F
:1033D1008774FFF0A37438F0A37454F090078CE461
:1033E100F0A37402F080031239E790078EE06404C1
:1033F1006010123A7790078E7401F0E490078AF01A
:03340100A3F02213
:1035EC00900780E07041900782E0B4021DE59620C0
:1035FC00E7FB75960E759702E59620E7FB7596141A
:10360C00759780E490078FF08020E59620E7FB7596
:10361C00960E759702E59620E7FB75961175974007
:10362C00E4900790F080031239E7E59620E7FB75EC
:08363C00960EE4F597023A77BF
:1026F700900796E020E00302278D900794E030E0F2
:102707000854FEF04402F08007900794E054FDF06F
:10271700E59620E7FB75960E759702E59620E7FB91
:10272700759614759710E59620E7FB7596117597C2
:1027370008E59620E7FB759694E59620E7FB90075A
:102747009DE597F0E020E4E9E59620E7FB75961410
:10275700759710E59620E7FB759691E59620E7FBC0
:1027670090079DE597F0E020E3E9E59620E7FB7504
:1027770096117597089007927408F0900794E0FFF8
:1027870030E1034401F0900795E0FCA3E0FD30E160
:102797000D9007867406F0900792E04410F0ED3034
:1027A700E20D9007867404F0900792E04420F0E56C
:0D27B7009620E7FB75960EE4F597023A7741
:10364400900780E07040900782E0B4021BE596206A
:10365400E7FB75960E759702E59620E7FB759614C1
:1036640075972090078F8019E59620E7FB75960ED5
:10367400759702E59620E7FB7596117597109007EC
:10368400907403F080031239E7E59620E7FB759602
:073694000EE4F597023A77FE
:1039A800E59620E7FBE4F596900780E0FFF597EFB2
:1039B80090078660057403F080037402F0023A777A
:1029FA00900781E024FE601B14603B2402706990FA
:102A0A0007877401F0A37407F0A37440F09007409D
:102A1A00E0804A9007877401F0A37407F0A3745208
:102A2A00F0900755E0FE900754E07C002400FFEC8C
:102A3A003E90078C802C900780E075F003A42472E6
:102A4A00F582E43407F583E0FBA3E0FAA3E0F9900A
:102A5A000787EBF0A3EAF0A3E9F0120F56FF9007FD
:102A6A008CE4F0A3EFF080031239E790078CE0FEC4
:102A7A00A3E0FF900797E0FCA3E0FDC39FEC9E5004
:102A8A000890078CECF0A3EDF090078EE0640460E8
:102A9A0010123A7790078E7401F0E490078AF0A337
:022AAA00F02218
:10379200900786E0FFB40414A374FFF0A37438F01A
:1037A200A37452F090078CE4F0A304F0EFB4031674
:1037B20090078774FFF0A37438F0A37454F0900755
:1037C2008CE4F0A304F0123A7790078E7401F0E4CF
:0737D20090078AF0A3F0222A
:10359200900780E0D394004042900792E04440F0CC
:1035A2009007867404F0E490078FF0A3F0E596206C
:1035B200E7FB75960E759702E59620E7FB75961266
:1035C200759784E59620E7FB759615759780E596C5
:1035D20020E7FB75960EE4F597800C90078674033E
:0A35E200F090078FF0A3F0023A7793
:1039390090078774FFF0A37438F0A37454F09007CC
:103949008CE4F0A304F0123A7790078E7401F0E446
:0739590090078AF0A3F022A1
:103A770090078EE06404600BE59620E7FB759611CE
:043A870075974022CD
:03004300021DA7F4
:101DA700C0E0C0F0C083C082C0D075D000C000C002
:101DB70001C002C003C004C005C006C0079007A148
:101DC700E596F0E59620E7FB75968EE59620E7FB0E
:101DD7009007A2E597F0E59620E7FB759686E596CE
:101DE70020E7FB900799E597F0E030E30BE59620B5
:101DF700E7FB75960B759707900799E030E203129A
:101E07003912900799E030E014900786E0FF6404E8
:101E17006004EFB40607900792E04480F0E596204F
:101E2700E7FB759682E59620E7FB900799E597F023
:101E3700E030E0031211E0900799E030E22AE596DE
:101E470020E7FB75960E759702E59620E7FB7596DA
:101E570091E59620E7FB90079AE597F0E054037029
:101E670007900792E04402F0E59620E7FB75968419
:101E7700E59620E7FB900799E597F0E030E229E542
:101E87009620E7FB75960E759702E59620E7FB759A
:101E97009694E59620E7FB90079AE597F0E030E007
:101EA70007900792E04404F0E59620E7FB75960E4D
:101EB7009007A2E0F597E59620E7FB9007A1E59646
:101EC700F0E59620E7FB900794E030E00990079251
:101ED700E06003123986D007D006D005D004D003BE
:101EE700D002D001D000D0D0D082D083D0F0D0E0C3
:011EF70032B8
:10385600E5B964E0602E53A90FC0A943B280E5A97B
:103866005407D394014003E4F5A9E4F5B943B980BC
:10387600E4D5E0FD43B9C0E5B930E5FBD0E0B402DC
:083886000343A90253A90F221C
:1038E70053D7BF43C910E5A95402900791F043B2DB
:1038F7008075A910E4F5B943B22000123856900735
:0B39070091E042A953C9EF43D74022D2
:0E3AAF00900792E0FFE4F022900792E0FF22E1
:102AAC00900786E0B40606EDD3944040037F0022E5
:102ABC00E59620E7FB75960E759702E59620E7FBE9
:102ACC00759694E59620E7FB90079CE597F0E0203F
:102ADC00E003022B58E59620E7FB759696E59620C9
:102AEC00E7FB900793E597F0E0FFEDC39F5006AE30
:102AFC0005AF068000900793EFF053E6FDE59620B6
:102B0C00E7FB7596E2900793E06025FEEB600630DC
:102B1C00E70F7F0022E59620E7FBA79709DEF680FA
:102B2C000F89828A83E59620E7FBE597F0A3DEF513
:102B3C00E59620E7FBE4F596E59620E7FB75961401
:0F2B4C00E4F59743E602900793E0FF227F002213
:1024FD00900786E0B4060DED4C6009D3ED9400EC29
:10250D0094104004E4FEFF2253E6FDE490079FF093
:10251D00A3F090079BF089828A83C083C0829007C5
:10252D009BE030E0030225FEE59620E7FB75960E55
:10253D00759702E59620E7FB759691E59620E7FBEA
:10254D0090079BE597F0E030E020E59620E7FB75DE
:10255D00960EE4F597E59620E7FB759691E59620A6
:10256D00E7FB90079BE597F080B4C3ED9440EC94A6
:10257D00009007A0E0401B2440F090079FE034003E
:10258D00F074C02DFD74FF3CFCE490079BF0784087
:10259D0080132DF090079FE03CF090079B7401F0A5
:1025AD00A805E4FCFDE59620E7FB759622D082D0C8
:1025BD0083E8602BEB601130E71AE59620E7FBE42A
:1025CD0093F597A3D8F48017E59620E7FB87970935
:1025DD00D8F6800BE59620E7FBE0F597A3D8F5C07C
:1025ED0083C082E59620E7FB75961175970102254C
:1025FD002BD082D08343E60290079FE0FEA3E0FF3D
:01260D0022AA
:103A1D00900794E04401F0900792E0600BE596204A
:093A2D00E7FB75960B75970F225B
:0C3ABD00E59620E7FB75960F75978922AF
:10398600D007D007D007D006D005D004D003D00288
:10399600D001D000D0D0D082D083D0F0D0E00200C9
:0239A6008B2272
:100C9B00EC4D6011E8497017ED33EC3304600DE453
:100CAB00FCFFFEFD22E933E8330470F8020E4B1211
:100CBB000E1658046009E4CC248150062850090212
:100CCB000E55284003020E52C0E0EB4A7044B98027
:100CDB0006D0E0FB020E41EF4E701CBD8008EBFF0F
:100CEB00EAFEE9FD80EBE98DF0A4FEE5F0020D8450
:100CFB00E9CDF9EAFEEBFFEF89F0A4FCE5F0CE8934
:100D0B00F0A42EFFE435F0CD89F0A42DFEE435F0F0
:100D1B008067EF4E7005BD80D780C3EF8BF0A4AC1E
:100D2B00F0EE8BF0A42CFCE435F0F8EF8AF0A42C59
:100D3B00E5F038FCE433CB8DF0A42CFCE5F03BF86C
:100D4B00EE8AF0A42CFCE5F038F8E433CF89F0A45C
:100D5B002CFCE5F038CF3400CE89F0A42FFFE5F062
:100D6B003EFEE433C98DF0A42EFEE5F039CD8AF0BA
:100D7B00A42FFFE5F03EFEE43DFD33D0E0FB500732
:100D8B000BBB000F020E55EC2CFCEF33FFEE33FECA
:060D9B00ED33FD020E2DF8
:100DA10075F020800E75F010800575F0087D007ECD
:100DB100007F003392D530D503121119EC33401066
:100DC100EF33FFEE33FEED33FDEC33FCD5F0ED22D6
:0E0DD100E5F0247EA2D513CC92E7CDCEFF2212
:100DDF00EDD2E7CD33EC3392D524814006E4FFFE0C
:100DEF00FDFC22FCE4CFCECDCC24E0501174FF806B
:100DFF00EDC3CC13CCCD13CDCE13CECF13CF047008
:070E0F00F030D5DE021119DD
:100E1600E9D2E7C933E833F892D5EDD2E7CD33EC22
:070E260033FC5002B2D5229B
:100E2D00EC30E7100FBF000C0EBE00080DBD000426
:100E3D000BEB6014A2D5EB13FCED92E7FD2274FFD2
:100E4D00FCFDFEFF22E480F8A2D574FF13FC7D802B
:030E5D00E480EF3F
:0300000002301CAF
:0C301C00787FE4F6D8FD7581080230636F
:100E6000E709F608DFFA8046E709F208DFFA803E74
:100E700088828C83E709F0A3DFFA8032E309F60861
:100E8000DFFA8078E309F208DFFA807088828C83C9
:100E9000E309F0A3DFFA806489828A83E0A3F6087D
:100EA000DFFA805889828A83E0A3F208DFFA804C57
:100EB00080D280FA80C680D4806980F2803380102E
:100EC00080A680EA809A80A880DA80E280CA803397
:100ED00089828A83ECFAE493A3C8C582C8CCC5830F
:100EE000CCF0A3C8C582C8CCC583CCDFE9DEE780DF
:100EF0000D89828A83E493A3F608DFF9ECFAA9F05E
:100F0000EDFB2289828A83ECFAE0A3C8C582C8CCB3
:100F1000C583CCF0A3C8C582C8CCC583CCDFEADECC
:100F2000E880DB89828A83E493A3F208DFF980CC2E
:100F300088F0EF60010E4E60C388F0ED2402B40427
:100F40000050B9F582EB2402B4040050AF232345CE
:060F50008223900EB07335
:100F5600BB010689828A83E0225002E722BBFE0299
:090F6600E32289828A83E49322CC
:100F6F00BB010CE58229F582E5833AF583E0225037
:100F7F0006E92582F8E622BBFE06E92582F8E22281
:0D0F8F00E58229F582E5833AF583E493229B
:100F9C00EF8DF0A4A8F0CF8CF0A428CE8DF0A42E69
:020FAC00FE2223
:100FAE00C5F0F8A3E028F0C5F0F8E58215827002CE
:060FBE001583E038F0226B
:100FC400BB0110E58229F582E5833AF583E0F5F06B
:100FD400A3E0225009E92582F886F008E622BBFE48
:100FE4000AE92582F8E2F5F008E222E5832AF5838E
:080FF400E993F5F0A3E9932253
:100FFC00E88FF0A4CC8BF0A42CFCE98EF0A42CFC94
:10100C008AF0EDA42CFCEA8EF0A4CDA8F08BF0A411
:10101C002DCC3825F0FDE98FF0A42CCD35F0FCEB70
:10102C008EF0A4FEA9F0EB8FF0A4CFC5F02ECD3935
:0F103C00FEE43CFCEAA42DCE35F0FDE43CFC22A2
:10104B0075F008758200EF2FFFEE33FECD33CDCC5C
:10105B0033CCC58233C5829BED9AEC99E5829840DF
:10106B000CF582EE9BFEED9AFDEC99FC0FD5F0D6BC
:10107B00E4CEFBE4CDFAE4CCF9A88222B800C1B9E6
:10108B000059BA002DEC8BF084CFCECDFCE5F0CB24
:10109B00F97818EF2FFFEE33FEED33FDEC33FCEB5D
:1010AB0033FB10D703994004EB99FB0FD8E5E4F918
:1010BB00FA227818EF2FFFEE33FEED33FDEC33FC05
:1010CB00C933C910D7059BE99A4007EC9BFCE99AF9
:1010DB00F90FD8E0E4C9FAE4CCFB2275F010EF2F3E
:1010EB00FFEE33FEED33FDCC33CCC833C810D7073E
:1010FB009BEC9AE899400AED9BFDEC9AFCE899F879
:0E110B000FD5F0DAE4CDFBE4CCFAE4C8F9220B
:0E111900C3E49FFFE49EFEE49DFDE49CFC22E7
:10112700EB9FF5F0EA9E42F0E99D42F0E89C45F01E
:011137002295
:10113800E8600FECC313FCED13FDEE13FEEF13FF95
:03114800D8F122B9
:10114B00E8600FEFC333FFEE33FEED33FDEC33FC02
:03115B00D8F122A6
:10115E007401FF3395E0FEFDFC080808E2CF2FF284
:10116E0018E2CE3EF218E2CD3DF218E2CC3CF2226D
:0C117E00ECF0A3EDF0A3EEF0A3EFF022E4
:0C118A00ECF208EDF208EEF208EFF222A1
:10119600A8828583F0D083D0821211AD1211AD12D0
:1011A60011AD1211ADE473E493A3C583C5F0C583F5
:1011B600C8C582C8F0A3C583C5F0C583C8C582C8A3
:0111C6002206
:1011C700D083D082E493F208740193F208740293F7
:0911D700F208740393F27404732E
:10302800020003E493A3F8E493A34003F68001F2BB
:1030380008DFF48029E493A3F85407240CC8C333A9
:10304800C4540F4420C8834004F456800146F6DF78
:10305800E4800B010204081020408090388EE47E42
:10306800019360BCA3FF543F30E509541FFEE4936D
:10307800A360010ECF54C025E060A840B8E493A334
:10308800FAE493A3F8E493A3C8C582C8CAC583CA5F
:10309800F0A3C8C582C8CAC583CADFE9DEE780BE17
:0138BA00000D
:00000001FF
