:10372A00555342204445425547005553422052457D
:10373A0041440010C4EA611A03530069006C00692D
:10374A000063006F006E0020004C0061006200738D
:10375A000010035500530042002000410050004968
:10376A00000A0343003500310046000F80010001C2
:1038F300810000810700810C00810E00810F00818F
:103903000D0081040082050000840800000001818D
:0839130001AA8102558103FFA6
:10377A001233FC30B642122B3D12363074FFFFFE74
:10378A001200461236307F007EF81200461236309A
:10379A007FE07E071200461236307F1F7E0012003D
:1037AA0046123630122D2C123630E4FFFE12004635
:0937BA00123630121A1F80BB22E6
:103A2C00E4FDFCC3ED9FEC9E5014E4FBFA0BBB00D1
:0E3A3C00010AEBF44A70F60DBD00010C80E5A6
:013A4A002259
:043630007F1E7E007B
:07363400785DEEF208EFF2F1
:10363B00E408F208F230B721E4FFFED3785EE29F94
:10364B0018E29E401EE4FDFC0DBD00010CEDF44C98
:10365B0070F60FBF00010E80E2123AC17F147E009C
:10366B00123A2C7860E22401F218E23400F2C3081B
:09367B00E2946418E2940040BCE2
:013684002223
:103AC10030B60512008E80F87FF47E01123A2C3058
:033AD100B6FD221D
:10008E0078657C007DFE7BFF7A3779797E007F0173
:10009E00120F2E7807E2700302026E78617401F27D
:1000AE007861E2FFC39410507BEF25E025E024D762
:1000BE00F582E43402F583E07028E2FD25E025E0C8
:1000CE0024D8F582E43402F583E0FEED25E025E048
:1000DE0024D9F582E43402F583E0FDEDFF123920D8
:1000EE00803A7861E225E025E024D7F582E43402F7
:1000FE00F583E0B40126E2FD25E025E024D8F58263
:10010E00E43402F583E0FEED25E025E024D9F58206
:10011E00E43402F583E0FDEDFF1238C87861E204A5
:10012E00F20200AE0000000000000000000000001F
:10013E0000000000000000007BFF7A37792AE47887
:10014E006BF208F208F208F274FF08F208F2E4FD0E
:10015E00FC122DC79002DAE020E003020253786110
:10016E007401F27861E2FFC394104003020253EF70
:10017E0025E025E024D7F582E43402F583E07055BE
:10018E00E2FD25E025E024D8F582E43402F583E093
:10019E00FEED25E025E024D9F582E43402F583E076
:1001AE00FDEDFFE2FB25E025E024DAF582E43402E2
:1001BE00F583E075F024A4FDACF0EB75F011A4FB13
:1001CE00AAF0786C7407F20874E0F2E408F208F210
:1001DE0012292980687861E2FB25E025E024D7F515
:1001EE0082E43402F583E064017052E2FD25E025DD
:1001FE00E024D8F582E43402F583E0FEED25E02517
:10020E00E024D9F582E43402F583E0FDEDFFEB2521
:10021E00E025E024DAF582E43402F583E075F0247B
:10022E00A4FDACF0EB75F011A4FBAAF0786CE4F22F
:10023E0008741FF274FF08F208F21229297861E29D
:10024E0004F2020171000000000000000000000036
:10025E00000000000000000000E47807F20200A198
:10026E00780DE2700302033AE47861F27861E2C33A
:10027E0094404003020327C2A0D2B1E2FE24D7F578
:10028E0082E43402F583E0FF74D82EF582E4340262
:10029E00F583E0FD120018D2A07861E2FF24D7F5B5
:1002AE0082E43402F583E0FE780508E2FD2401F2D3
:1002BE0018E2FC3400F2747F2DF58274003CF58355
:1002CE00EEF074D82FF582E43402F583E0FF08E2F5
:1002DE00FD2401F218E2FC3400F2747F2DF58274D5
:1002EE00003CF583EFF008E2B4002518E2B40220DA
:1002FE00780812115C1231AC7804E290007FF07F26
:10030E00007E007D007C001231ACE47805F208F22C
:10031E007861E22402F202027AE4780DF27BFE7A30
:10032E000079657D01FC1224E002026E7800E27015
:10033E00030204479002DAE070030203FD78617451
:10034E0004F27861E2C394244003020434C2A0D2C2
:10035E00B1E2FE24D7F582E43402F583E0FF74D8CF
:10036E002EF582E43402F583E0FD120018D2A07857
:10037E0061E2FF24D7F582E43402F583E0FE7805CE
:10038E0008E2FD2401F218E2FC3400F2747F2DF530
:10039E008274003CF583EEF074D82FF582E43402BB
:1003AE00F583E0FF08E2FD2401F218E2FC3400F2CE
:1003BE00747F2DF58274003CF583EFF008E2B400F3
:1003CE002518E2B40220780812115C1231AC7804C0
:1003DE00E290007FF07F007E007D007C001231AC49
:1003EE00E47805F208F27861E22402F20203507812
:1003FE00617404F27861E2C39424502AC2A0D2B18F
:10040E00E2FE24D7F582E43402F583E0FF74D82EA1
:10041E00F582E43402F583E0FD120018D2A0786173
:10042E00E22402F280CEE47800F27BFE7A00796557
:10043E007D01FC1224E002033A780FE270030204FD
:10044E00FE78617404F27861E2FFC39424400302E3
:10045E0004EB74D72FF582E43402F583E07020E2CA
:10046E00FD24D8F582E43402F583E0FE74D92DF52F
:10047E0082E43402F583E0FDEDFF123920805578D9
:10048E0061E224D7F582E43402F583E0B40120E280
:10049E00FD24D8F582E43402F583E0FE74D92DF5FF
:1004AE0082E43402F583E0FDEDFF1238C880257832
:1004BE0061E224D7F582E43402F583E0641070140F
:1004CE00000000000000000000000000000000001E
:1004DE00000000007861E22404F2020454E4780F74
:1004EE00F27BFE7A0079657D01FC1224E00204475E
:1004FE00780CE27003020653E47861F27861E2FF51
:10050E00C394185011747F2FF582E43402F583E4FE
:10051E00F0E204F280E69002DEE025E07864F290EC
:10052E0002DCE0FEA3E0FDEE7862F2ED08F290024E
:10053E00DBE06401703C18E2FE08E2FF123920E4B1
:10054E007861F27864E2FF7861E2C39F5024123A38
:10055E00977861E2FD247FF582E43402F583E4F0BE
:10056E0074802DF582E43402F583EFF0E22402F27A
:10057E0080D1E4780CF27B017A02797F7864E2FD17
:10058E007C001224E07F647E00123A2C7BFF7A37C7
:10059E007934E4786BF208F208F208F274FF08F28C
:1005AE0008F2E4FDFC122DC79002DAE020E003020F
:1005BE0004FE9002DFE075F024A4FDACF07862E258
:1005CE00FE08E2FF786C7407F20874E0F2E408F2B9
:1005DE0008F27B11FA122929E47861F27864E2FFBD
:1005EE007861E2F9C39F40030204FE9002DFE075DA
:1005FE00F024A4FDACF0C004C005E9C3132402FF2F
:10060E00E433FE7C007D11120F9AAA06AB07747FAD
:10061E0029F582E43402F583E0FE748029F582E444
:10062E003402F583E0FDEDFF786CE4F208741FF2FE
:10063E0074FF08F208F2D005D0041229297861E27D
:10064E002402F28097780EE26040E47861F27861DD
:10065E00E2FFC39440501174972FF582E43402F5F3
:10066E0083E4F0E204F280E6E4900297F0A374A033
:10067E00F0E4A3F0A37480F0E4780EF27B017A022A
:0A068E0079977D40FC1224E080BB48
:01069800223F
:10380A0053D9BF75B283E4F5B943B980FF0FEFB45A
:10381A00FFFB43B9C0E5B930E5FBE4F5A943EF0284
:10382A0075F1FF75A4FF75A5FF75F2FF75A6FF7503
:10383A00AEFF75F4FF43A717C286C28743E102436E
:02384A00E2405A
:01384C002259
:1033FC0012380A12388790373DE493FE740193FF1C
:10340C0090373FE493FC740193FD90028674FFF0B7
:10341C00A37437F0A3745BF0A374FFF0A37437F0BC
:10342C00A3746BF0903775E49390028CF090377620
:10343C00E49390028DF0903777E493FB74019390B2
:10344C00028ECBF0A3EBF07BFF7A3779411221642B
:0C345C00123A6875A17075F80F021BBDD4
:033B130002394B29
:03008B0002202927
:10202900C0E0C0F0C083C082C0D075D000C000C07D
:0D20390001C002C003C004C005C006C007FE
:10204600123AE5785BEFF220E2030220F07B017A98
:102056000279D77D40122A8E7801E2FF9002D7E0FE
:10206600FEB5071408E2FDA3E0B5050C08E2FDA3E2
:10207600E0B505047807806F7803E2FDB50613180E
:10208600E2FE9002D8E0B50609A3E0B50704780C95
:1020960080557802E2FF9002D7E0B5071118E2FEFC
:1020A600A3E0B50609A3E0B50504780E80397801EA
:1020B600E2FE9002D7E0FDB506127803E2FCA3E04B
:1020C600B50409A3E0B507047800801B7803E2B5E0
:1020D60005139002D8E0B5060C18E2FFA3E0B50799
:1020E60004780F8002780D7401F2785BE230E70322
:1020F600123B13785BE230E60312380A785BE23073
:10210600E41B15081508A808E4F208749FF27A0083
:102116007B007C007D7F7E007F00122C00785BE2D6
:1021260030E5207804E204F215081508A808E4F260
:1021360008749FF27A007B007C007D7F7E007F0022
:03214600122C0058
:10214900D007D006D005D004D003D002D001D000EA
:0B215900D0D0D082D083D0F0D0E03294
:0C3A81007FFF123A8D7FFF123A8D7FFF0D
:093A8D008FA330FFFDC2FFAFA3BF
:013A9600220D
:0A3AFF0075A3FF30FFFDC2FFAFA367
:013B09002299
:0232A100AE0776
:1032A300E4FB123A81123A81C2FAEE4440FF123A29
:1032B3008D786BE2FC08E2FD08E2FE08E2FF781875
:1032C300121136123A8D786BE2FC08E2FD08E2FE39
:1032D30008E2FF7810121136123A8D786BE2FC087F
:1032E300E2FD08E2FE08E2FF7808121136123A8D79
:1032F300786B080808E2FF123A8D7F95123A8D7FAA
:10330300FF123A8DBFFF09AE030BEED3946440EF77
:02331300D2FAEC
:013315002295
:10287200E4FEFA75A90375A23BE4FD7FFF123A8DCF
:102882000DEDB464F6786B1211C500000000E4FF90
:102892001232A1AE070AEAD3940A5004EEB401D967
:1028A200E4FA786B1211C5000000007F371232A1E2
:1028B200AE070AEAD3946440037F0122EEB401E238
:1028C200E4FA786B1211C5000000007F291232A1D0
:1028D200AE070AEAD3946440037F0122EE70C3EE8E
:1028E200601FE4FA786B1211C5000000007F01122C
:1028F20032A1AE070AEAD3946440037F0122EE704C
:10290200E3786B1211C5000000007F3B1232A1AECA
:1029120007786B1211C5000002007F101232A175F8
:06292200A201E4F5A9FF8B
:01292800228C
:0534680078101211882C
:10346D00E4FA75A9037810E2FC08E2FD08E2FE0813
:10347D00E2FF7809121149786B1211887F1112320F
:10348D00A10AEAD3940A40037F0122EF70D7C2FA52
:10349D00123AFFBFFEFAE4FDFC123AFF747F2DF5E0
:1034AD008274003CF583EFF00DBD00010CE4B50511
:0E34BD00E8ECB402E4123A86D2FAE4F5A9FF74
:0134CB0022DE
:0531AC00786612118895
:1031B100E4FA75A9037866E2FC08E2FD08E2FE087C
:1031C100E2FF7809121149786B1211887F181232C7
:1031D100A1AE070AEAD3940A40037F0122EE70D51B
:1031E100C2FA7FFF123A8D7FFE123A8DFDFC747F89
:1031F1002DF58274003CF583E0FF123A8D0DBD0080
:10320100010CE4B505E8ECB402E4123A81AE07EE34
:10321100541F64056003D2FA227FFF123A8DEF60DA
:07322100F8D2FAE4F5A9FF61
:013228002283
:103AD400E4F9122872EF600809E9D3940340F32251
:013AE40022BF
:10069900000000182442424242424242241800000B
:1006A900000000107010101010101010107C0000C5
:1006B9000000003C4242420404081020427E00002F
:1006C9000000003C4242041804020242443800007F
:1006D900000000040C14242444447E04041E000079
:1006E9000000007E40404058640202424438000045
:1006F9000000001C24404058644242422418000073
:100709000000007E4444080810101010101000006A
:100719000000003C4242422418244242423C00006C
:100729000000001824424242261A0202243800001E
:100739000000001010182828243C444242E7000019
:10074900000000F8444444784442424244F800001E
:100759000000003E42428080808080424438000090
:10076900000000F8444242424242424244F800003A
:10077900000000FC424848784848404242FC0000DA
:10078900000000FC424848784848404040E00000EA
:100799000000003C44448080808E8444443800003A
:1007A900000000E7424242427E42424242E70000E4
:1007B9000000007C1010101010101010107C0000A8
:1007C9000000003E0808080808080808080888F01A
:1007D900000000EE444850705048484444EE000080
:1007E900000000E0404040404040404042FE0000E0
:1007F900000000EE6C6C6C6C5454545454D60000D8
:10080900000000C7626252524A4A4A4646E2000064
:100819000000003844828282828282824438000049
:10082900000000FC424242427C40404040E000005F
:1008390000000038448282828282B2CA4C380600A3
:10084900000000FC4242427C4848444442E3000024
:100859000000003E4242402018040242427C00004F
:10086900000000FE92101010101010101038000037
:10087900000000E74242424242424242423C0000FA
:10088900000000E7424244242428281810100000E0
:10089900000000D692929292AAAA6C4444440000A5
:1008A900000000E7422424181818242442E7000015
:1008B900000000EE444428281010101010380000E1
:1008C9000000007E840408081020204242FC000039
:1008D900001E1010101010101010101010101E0013
:1008E90000004040202010101008080404040202EF
:1008F900007808080808080808080808080878009F
:10090900001C2200000000000000000000000000A0
:10091900000000000000000000000000000000FFCF
:10092900006010000000000000000000000000004E
:10093900000000000000003C421E2242423F00002D
:10094900000000C0404040586442424264580000E0
:10095900000000000000001C22404040221C000052
:10096900000000060202021E22424242261B00002B
:10097900000000000000003C427E4040423C000074
:100989000000000F1110107E10101010107C0000D4
:10099900000000000000003E444438403C42423C14
:1009A900000000C04040405C6242424242E7000011
:1009B900000000303000007010101010107C000092
:1009C9000000000C0C00001C040404040404447816
:1009D900000000C04040404E4850684844EE0000C6
:1009E900000000701010101010101010107C000082
:1009F90000000000000000FE4949494949ED000096
:100A090000000000000000DC6242424242E70000B0
:100A1900000000000000003C42424242423C00000B
:100A290000000000000000D864424242447840E0DF
:100A3900000000000000001E22424242221E02075E
:100A490000000000000000EE3220202020F8000005
:100A5900000000000000003E42403C02427C0000D1
:100A6900000000000010107C10101010100C000085
:100A790000000000000000C642424242463B00001E
:100A890000000000000000E74224242810100000A4
:100A990000000000000000D79292AAAA4444000076
:100AA900000000000000006E2418181824760000C9
:100AB90000000000000000E742242428181010E07C
:100AC900000000000000007E44081010227E000093
:100AD90000030404040404080404040404040300D3
:100AE900080808080808080808080808080808087D
:100AF9000060101010101008101010101010600075
:100B0900304C43000000000000000000000000001D
:100B190000000000000000000000000000000000CC
:100B2900000000101010101010100000181800001C
:100B390000123624480000000000000000000000F8
:100B4900000000242424FE484848FE484848000084
:100B590000001038545450301814145454381010DC
:100B690000000044A4A8A8A8541A2A2A2A4400006C
:100B790000000030484848506EA4948889760000E7
:100B890000606020C00000000000000000000000BC
:100B990000020408081010101010100808040200C0
:100BA900004020101008080808080810102040000C
:100BB900000000001010D63838D6101000000000D0
:100BC9000000000010101010FE101010100000009E
:100BD900000000000000000000000000606020C06C
:100BE90000000000000000007F000000000000007D
:100BF900000000000000000000000000606000002C
:100C090000000102020404080810102020404000DE
:100C1900000000000000181800000000181800006B
:100C2900000000000000001000000000001010206B
:100C390000000002040810204020100804020000EF
:100C4900000000000000FE000000FE00000000009F
:100C59000000004020100804020408102040000091
:100C69000000003C42426202040808001818000013
:100C790000000038445AAAAAAAAAB442443800007B
:100C8900FFFFFFFFFFFFFFFFFFFFFFFFFFFFFFFF6B
:04391B0082590000CD
:041411007866EFF218
:10141500ED64086003021503C2A0D296C2B1E2F5DD
:10142500A0C297D297D2A0E4F5A675F3FF75A0FFE9
:10143500C2A0D2B1D297C296000000000000000001
:10144500D28700000000AFA07869F208EFF2C287EA
:1014550000000000D29600000000C29600000000C7
:1014650000000000D28700000000A9A0C28700008C
:101475000000D29600000000C296000000000000A7
:101485000000D28700000000786DE5A0F2C2870059
:10149500000000D2960000000000000000C2960087
:1014A50000000000000000D28700000000AAA0C2D2
:1014B5008700000000D2960000000000000000D266
:1014C50096000000000000000075A6FFEBB4010BBC
:1014D500786AE2FEE9F582EE08801EEBB4020CE9BB
:1014E500FE786DE2F582EE786B800EEBB4030F7833
:1014F5006DE2FEEAF582EE786BF2E58208F2ED64C4
:10150500044C600302163975A6FF7866E2FFC2A097
:10151500C2B1E4FDC297EF30E704D2968002C296CD
:10152500D297EF25E0FF0DEDB408E975A6FEEB6453
:10153500016005EB6403702AE4FDC297D287D29659
:101545007868E225E0FF18E233FEA296E433F582DF
:10155500EEF2EF458208F2C287D2970DEDB409DAB3
:101565008032EB64026005EB64047028E4FDC297E9
:10157500D287D2967868E225E0FF18E233FEA2967C
:10158500E433F582EEF2EF458208F2C287D2970D79
:10159500EDB410DAE4FDC297D287D296786AE225D7
:1015A500E0FF18E233FEA296E433F582EEF2EF4552
:1015B5008208F2C287D2970DEDB408DAE4FDC2972E
:1015C500D287D296E925E0FFA296E4334FF9C28788
:1015D500D2970DEDB408E7E4FDC297D287D296788D
:1015E5006DE225E0FFA296E4334FF2C287D2970D54
:1015F500EDB408E575A6FFC287D296D2B1D297D2CF
:1016050096D2A0EBB401127868E2FE08E24EFF081C
:10161500E208CFF208EFF2801BEB6402600AEBB43C
:1016250003028004EBB4040C786AE2FEE9FDEE08DF
:0D163500F2ED08F2C287786BE2FE08E2FFDA
:011642002285
:04392000AD07AC063D
:10392400EC787EF2C2A0C2B1E4FBED30E704D2969B
:103934008002C296ED25E0FDEC33FCC297D2970BD2
:06394400EBB408E6D2A07E
:01394A00225A
:0938BF00F808E22401FFEE33FEDB
:0438C800AD07AC0696
:1038CC00EC787EF2C2A0D2B1E4FBED30E704D296E4
:1038DC008002C296ED25E0FDEC33FCC297D2970B2B
:0638EC00EBB408E6D2A0D7
:0138F20022B3
:10000300FFAE03EE33333354F84FFFEE25E0FEC467
:050013003354E04BFD39
:10001800C2A0D2B1E4FEEF25E0FF9296C297D29734
:100028000EEEB408F1D2B1E4FEED25E0FD9296C2E1
:0A00380097D2970EEEB408F1D2A0A3
:01004200229B
:093B0A00AD07AC06ECFF02001847
:101BBD00123A97D2857F967E00123A2CC2857F7895
:101BCD007E00123A2CD2857F967E00123A2C7F1120
:101BDD007E001239207F78123A2C7FB17E001239A7
:101BED00207F011238C87F081238C87F051238C807
:101BFD007FB21239207F011238C87F081238C87F92
:101C0D00051238C87FB31239207F011238C87F08FA
:101C1D001238C87F051238C81238C87F081238C864
:101C2D007F051238C87FB41239207F031238C87F60
:101C3D00C01239207F281238C87F081238C87F0497
:101C4D001238C87FC11239201F1238C87FC212390D
:101C5D00207F0D1238C8E4FF1238C87FC312392017
:101C6D007F8D1238C87F2A1238C87FC41239207F61
:101C7D008D1238C87FEE1238C87FC51239207F14F7
:101C8D001238C87F361239207FC01238C87FE01253
:101C9D0039207F071238C87F181238C87F0C1238C8
:101CAD00C87F151238C87F2E1238C87F2A1238C83F
:101CBD007F231238C87F281238C81238C81238C886
:101CCD007F2E1238C87F391238C8E4FF1238C87F0A
:101CDD00031238C81F1238C87F101238C87FE1129E
:101CED0039207F061238C87F231238C87F0D12386D
:101CFD00C87F171238C87F351238C87F301238C8E0
:101D0D007F2A1238C87F2D1238C81F1238C87F2974
:101D1D001238C87F311238C87F3B1238C8E4FF1221
:101D2D0038C87F021238C80F1238C87F121238C84F
:0F1D3D007F3A1239207F051238C87F29023920DA
:102BE700F215081508A808E4F208749FF27A007B2A
:092BF700007C007D7F7E007F0060
:102C000015081508A808EAF208EBF215081508A837
:102C100008ECF208EDF215081508A808EEF208EF26
:102C2000F27F2A7E00123920A908E3FF1238C8A8D3
:102C30000808E224021238C4A8080808A900E3FF23
:102C40007E001238C8A808080808E224021238C416
:102C50007F2B7E00123920E5082404F9E3FF1238A7
:102C6000C8E50824041238BFE5082406F9E3FF7E0E
:102C7000001238C8E50824061238BF7F2C7E0012E7
:0C2C8000392075A903E5082408F5082296
:02004600AC0606
:10004800EC785FF2EF08122BE7C2A0E4785DF208C3
:10005800F2E4FBFA785FE2FF08E2FD1200180BBB3E
:1000680000010AEB64804A70EB785EE22401F21822
:10007800E23400F2C308E294A018E2940040D2D21D
:01008800A0D7
:010089002254
:102B3D00122BE8C2A079F8E4FC7FF8FD120018E42E
:102B4D00FB79077CE07F077DE01200180BBB0001CD
:102B5D000AEB647E4A70EAE4F97C1FFF7D1F1200C8
:102B6D0018E4785DF208F279F8E4FC7FF8FD1200C4
:102B7D0018E4FAFBE4F9FCFFFD1200180BBB000191
:102B8D000AEB647E4A70EDE4F97C1FFF7D1F120095
:102B9D0018785EE22401F218E23400F2C308E294E0
:102BAD009E18E2940040C079F8E4FC7FF8FD120015
:102BBD0018E4FAFB79077CE07F077DE01200180B23
:102BCD00BB00010AEB647E4A70EAE4F97C1FFF7DCD
:092BDD001F120018E4F5A9D2A0B2
:012BE60022CC
:101D4C007814742AF278167402F2187435F2781733
:101D5C007401F2C2A0122BE8E4FB7815E2FFC3EB8E
:101D6C009FEA94005069E47818F27814E2FF78182E
:101D7C00E2C39F500CE4FD7FF8120018E204F280DD
:101D8C00E9E47818F27814E2FF7818E2C39F500C5B
:101D9C007D1FE4FF120018E204F280E9E47818F2E7
:101DAC007816E2FF7814E22FFFE433FE7818E2C3D2
:101DBC009FEE6480F8748098500E7DE07F071200CF
:101DCC00187818E204F280D80BBB00010A808BE46F
:101DDC00FAFB7815E2FFC3EB9FEA94005069E478B4
:101DEC0018F27814E2FF7818E2C39F500C7DE07F64
:101DFC0007120018E204F280E9E47818F27814E291
:101E0C00FF7818E2C39F500CE4FD7FF8120018E233
:101E1C0004F280E9E47818F27816E2FF7814E22FE5
:101E2C00FFE433FE7818E2C39FEE6480F874809868
:101E3C00500E7D1FE4FF1200187818E204F280D8CF
:101E4C000BBB00010A808BE4FAFB7817E2FF7815D4
:101E5C00E22FFFE433FEC3EB9FEA9E5069E478184F
:101E6C00F27814E2FF7818E2C39F500C7D1FE4FF58
:101E7C00120018E204F280E9E47818F27814E2FF18
:101E8C007818E2C39F500C7DE07F07120018E20423
:101E9C00F280E9E47818F27816E2FF7814E22FFF6A
:101EAC00E433FE7818E2C39FEE6480F87480985097
:101EBC000EE4FD7FF81200187818E204F280D80BBB
:0B1ECC00BB00010A8084D2A0E4F5A94D
:011ED70022E8
:10368500AA06A907781974FFF208EAF208E9F21206
:103695002BE8E4781CF208F2781CE2FE08E2FFC38E
:1036A500EE9440502DEF25E0FFEE33FE7819E2FB56
:1036B50008E2FA08E2F98F828E83120FC2FDACF0A0
:1036C500ECFF120018781DE22401F218E23400F232
:0236D50080C6AD
:0136D70022D0
:0325F100781EEF62
:1025F400122BE7C2A0D2B178271211C500000050F7
:10260400781EE2FFE4FCFDFE7827E2FB08E2F9080D
:10261400E2FA08E2CBF8120FFAEF2401FFE43EFEDF
:10262400E43DFDE43CFC781F1211887827E2FC08A5
:10263400E2FD08E2FE08E2FF781FE2FB08E2F90887
:10264400E2FA08E2CBF8EB2FFFEA3EFEE93DFDE8B3
:102654003CFC782380787823E2FC08E2FD08E2FE63
:1026640008E2FF781FE2FB08E2F908E2FA08E2CB8D
:10267400F8C3121125505C781FE2FC08E2FD08E261
:10268400FE08E2FF123468E4FBFAC3EA9402502421
:10269400747F2BF58274003AF583E0FF74802BF588
:1026A4008274003AF583E0FD12001874022BFBE4F7
:1026B4003AFA80D6781FE2FC08E2FD08E2FE08E25E
:1026C4002401FFE43EFEE43DFDE43CFC781F1211CE
:0526D400888083D2A004
:0126D90022DE
:10164300122BE8E4FBE4782BF208F2C3782BE29444
:10165300005012E4FDFF12001808E22401F218E220
:101663003400F280E6E4782BF208F2E4782DF208F5
:10167300F2782BE2FE08E27803C333CE33CED8F9F7
:10168300FFE4FD120018782EE22401F218E2340080
:10169300F2C308E2940418E2940040D5782CE224C3
:1016A30001F218E23400F2C308E2942018E2940035
:1016B30040B90BBB00010AEB64284A7088E4FAFBCB
:1016C300E4782BF208F2C3782BE294005012E4FD85
:1016D300FF12001808E22401F218E23400F280E657
:1016E300E4782BF208F2E4782DF208F2782CE22564
:1016F300E0FD18E233FCEDAE047803CEC313CE1342
:10170300D8F9FFC007EDAE047805C333CE33CED886
:10171300F9FDD007120018782EE22401F218E23402
:1017230000F2C308E2940418E2940040BF782CE26C
:101733002401F218E23400F2C308E2942018E29480
:101743000040A30BBB00010AEB64284A60030216A6
:10175300C3E4FAFBE4782BF208F2C3782BE294009B
:101763005012E4FDFF12001808E22401F218E234DB
:1017730000F280E6E4782BF208F2E4782DF208F226
:10178300782B08E2FDE4FF120018782EE22401F220
:1017930018E23400F2C308E2940418E2940040E033
:1017A300782CE22401F218E23400F2C308E2942018
:1017B30018E2940040C40BBB00010AEB64284A7092
:1017C30093E4FAFBE4782BF208F2C3782BE294005B
:1017D3005012E4FDFF12001808E22401F218E2346B
:1017E30000F280E6E4782BF208F2E4782DF208F2B6
:1017F300782BE2FC08E2FD25E0FFEC33FEEF7803F3
:10180300CEC313CE13D8F9FFAE05EE33333354F8FA
:101813004FFFEE25E0C43354E0FE782B08E24EFD83
:10182300120018782EE22401F218E23400F2C30801
:10183300E2940418E2940040B7782CE22401F218F1
:10184300E23400F2C308E2942018E29400409B0BB8
:0F185300BB00010AEB64284A60030217C7D2A04A
:011862002263
:10229B00122BE8E4FBC3EA94005029E47831F208EE
:1022AB00F2E4FDFF1200187832E22401F218E23456
:1022BB0000F2C308E2948018E2940040E40BBB00E8
:1022CB00010A80D1E4FAFBE4782FF208F2E47831CA
:1022DB00F208F2EBAE027803C333CE33CED8F9FF5C
:1022EB00E4FD1200187832E22401F218E23400F215
:1022FB00C308E2942018E2940040D8E47831F20845
:10230B00F2EB25E0FDEA33FCEDAE047803CEC3130C
:10231B00CE13D8F9FFC007EDAE047805C333CE3327
:10232B00CED8F9FDD0071200187832E22401F2184A
:10233B00E23400F2C308E2942018E2940040C2E4B5
:10234B007831F208F2AD03E4FF1200187832E22480
:10235B0001F218E23400F2C308E2942018E2940070
:10236B0040E3E47831F208F2EB25E0FFEA33FEEFCD
:10237B007803CEC313CE13D8F91200037832E224BC
:10238B0001F218E23400F2C308E2942018E2940040
:10239B0040D67830E22401F218E23400F2C308E2AE
:1023AB00940518E2940050030222D80BBB00010ADB
:0923BB00EB64204A60030222D207
:0123C40022F6
:102E5D00122BE8C2A0D2B1E4FBC3EA94005029E4DE
:102E6D007835F208F2E4FDFF1200187836E22401FD
:102E7D00F218E23400F2C308E2948018E2940040A4
:102E8D00E40BBB00010A80D1E4FAFBE47833F208CD
:102E9D00F2E47835F208F2EBAE027803C333CE33A9
:102EAD00CED8F9FFE4FD1200187836E22401F218AD
:102EBD00E23400F2C308E2948018E2940040D8781E
:102ECD0034E22401F218E23400F2C308E29405184A
:102EDD00E2940040BC0BBB00010AEB64204A70ABCE
:022EED00D2A071
:012EEF0022C0
:102C8C00122BE8C2A0D2B1E4FBE47839F208F2E4EA
:102C9C00FDFF120018783AE22401F218E23400F237
:102CAC00C308E2948018E2940040E40BBB00010AD4
:102CBC00EB64204A70D3E4FAFBE47837F208F2E4D0
:102CCC007839F208F2EBAE027803CEC313CE13D8E8
:102CDC00F9FFC007EBAE027805C333CE33CED8F97B
:102CEC00FDD007120018783AE22401F218E2340001
:102CFC00F2C308E2948018E2940040C97838E224C8
:102D0C0001F218E23400F2C308E2940218E29400D3
:0F2D1C0040AD0BBB00010AEB64404A709CD2A093
:012D2B002285
:10309E00122BE8C2A0D2B1E4FBC3EA94005029E49B
:1030AE00783DF208F2E4FDFF120018783EE22401AA
:1030BE00F218E23400F2C308E2948018E294004061
:1030CE00E40BBB00010A80D1E4FAFBE4783BF20882
:1030DE00F2E4783DF208F2AD03E4FF120018783EF8
:1030EE00E22401F218E23400F2C308E2948018E2FE
:1030FE00940040E3783CE22401F218E23400F2C37B
:10310E0008E2940518E2940040C70BBB00010AEBDD
:07311E0064204A70B6D2A044
:013125002287
:102EF000122BE8C2A0E4FBC3EA94005029E4784115
:102F0000F208F2E4FDFF1200187842E22401F21800
:102F1000E23400F2C308E2948018E2940040E40B2B
:102F2000BB00010A80D1E4FAFBE4783FF208F2E446
:102F30007841F208F2EB25E0FFEA33FEEF7803CEAA
:102F4000C313CE13D8F91200037842E22401F21819
:102F5000E23400F2C308E2948018E2940040D6788C
:102F600040E22401F218E23400F2C308E2940518AA
:102F7000E2940040BA0BBB00010AEB64204A70A93E
:022F8000D2A0DD
:012F8200222C
:102D2C00122BE8C2A0D2B1E4785DF208F2E4FBFA0F
:102D3C00C3EA9400500DE4FDFF1200180BBB000118
:102D4C000A80EDE4FAFBE4785FF208F2EBAE02786D
:102D5C0002C333CE33CED8F97803CEC313CE13D8F7
:102D6C00F9FFAE03EE25E0F933333354F84FFFEEA1
:102D7C0025E025E0FEC43354E049FD1200187860CC
:102D8C00E22401F218E23400F2C308E2940818E2DB
:102D9C00940040B80BBB00010AEB64104A70A77892
:102DAC005EE22401F218E23400F2C308E294A018A7
:0A2DBC00E294005003022D39D2A06A
:012DC60022EA
:10322900122BE8C2A0E47843F208F2E4FBFAC3EAFD
:103239009400500DE4FDFF1200180BBB00010A8039
:10324900EDE4FAFBE47845F208F2EB25E0FFEA3316
:10325900FEEF7803CEC313CE13D8F91200037846D4
:10326900E22401F218E23400F2C308E2940418E2FD
:10327900940040D60BBB00010AEB64204A70C57864
:1032890044E22401F218E23400F2C308E294A018DF
:07329900E294004096D2A070
:0132A000220B
:10186300122BE8E4FBE47847F208F2E4FD7FF81278
:1018730000187848E22401F218E23400F2C308E2C7
:10188300948018E2940040E30BBB00010AEB64145C
:101893004A70D2E4FAFBE47847F208F27DE07F076E
:1018A3001200187848E22401F218E23400F2C30867
:1018B300E2948018E2940040E30BBB00010AEB645E
:1018C300144A70D2E4FAFBE47847F208F27D1FE48D
:1018D300FF1200187848E22401F218E23400F2C340
:1018E30008E2948018E2940040E30BBB00010AEB8A
:1018F30064144A70D2E4FAFBE47847F208F27DE01C
:101903007FFF1200187848E22401F218E23400F253
:10191300C308E2948018E2940040E30BBB00010A81
:10192300EB64144A70D2E4FAFBE47847F208F27DE0
:101933001F7FF81200187848E22401F218E23400FD
:10194300F2C308E2948018E2940040E30BBB000169
:101953000AEB64144A70D2E4FAFBE47847F208F223
:101963007DFF7F071200187848E22401F218E23461
:1019730000F2C308E2948018E2940040E30BBB003A
:10198300010AEB64144A70D2E4FAFBE47847F208E4
:10199300F27DFF7FFF1200187848E22401F218E27B
:1019A3003400F2C308E2948018E2940040E30BBBD6
:1019B30000010AEB64144A70D2E4FAFBE47847F2BC
:1019C30008F2E4FDFF1200187848E22401F218E25D
:1019D3003400F2C308E2948018E2940040E40BBBA5
:1019E30000010AEB64144A70D3E4FAFBC3EA9400DF
:1019F3005029E47847F208F2E4FDFF120018784812
:101A0300E22401F218E23400F2C308E2948018E2FF
:0B1A1300940040E40BBB00010A80D1EE
:011A1E0022A5
:1034CC00EFC3942050047F5F8050EFC39420400CD6
:1034DC00EFD3942F5006EF2428FF803EEFC3943097
:1034EC00400CEFD39439500674D02FFF802CEFC3CF
:1034FC00943A400CEFD394405006EF241EFF801AF0
:10350C00EFC39441400CEFD3947E5006EF24C9FFD7
:0B351C008008EFD3947E40027F5F2206
:1027A700FD18E23400FC786AE2FA08E2FB08E2F579
:1027B7008308E2F5827876E583F208E582F2786E9F
:1027C700E2F58308E2F5827878E583F208E582F29C
:0827D7007871EFF2AF05AE04CA
:1027DF00EB240FFCE43A15081508A808F208CCF210
:1027EF00EF2407FDE43EFC122C007871E2FF7E001F
:1027FF00D3945FEE940040027F5FEFC4F8540FC88C
:10280F0068FFEEC454F048FE787B74FFF20874063C
:10281F00F2087499F2E22FF218E23EF2E4787AF2BB
:10282F00787BE2FB0808E2F92401F218E2FA34009F
:10283F00F2120F54FBE4FAEBA802088002C333D85C
:10284F00FC30E704787680027878E2FE08E2FF1227
:10285F003B0A0AEAB408E0787AE204F2E2C3941081
:02286F0040BE69
:012871002244
:102DC7007866EBF208EAF208E9F208ECF208EDF2AD
:102DD7007866E2FB08E2FA08E2F9120F547003D3AF
:102DE7008001C340707866E2FB0808E2F92401F22B
:102DF70018E2FA3400F2120F54FF1234CC7869E269
:102E0700FC08E2FD08E2FA08E2FB08E2F58308E2C3
:102E1700F5827876E583F208E582F2786F1227C7A4
:102E2700D3786AE2947718E29400400BE4F208F250
:102E3700786CE224108005786AE22408F218E234FC
:102E470000F2D3786CE2948F18E294004082E4F2A7
:062E570008F2022DD72253
:102929007866EEF208EFF2786AEAF208EBF2786874
:10293900ECF208EDF2D3945FEC9400400718E4F24E
:1029490008745FF2786AE2FE08E2FFD3948FEE948E
:10295900004009EF24EFF2EE34FF18F27866E2C482
:10296900540FFF7868E2FC08E2FD081227AF786689
:10297900E2540FFF7869E224081227A77966E3C4B5
:10298900F854F0C809E3C4540F48540FFF7869E2BA
:1029990024101227A77867E2540FFF7869E22418F8
:1029A900FD18E23400FC786AE2FA08E2FB08E2F575
:1029B9008308E2F5827876E583F208E582F2786E9B
:1029C900E2F58308E2F5827878E583F208E582F298
:0329D9000227D7FB
:103A97007B027D087C00E4FF1214117859EEF208CE
:063AA700EFF2E4FEFF2235
:1036D800785DEAF208EBF2ED2401FAE43C150815EE
:1036E80008A808F208CAF2AB05AA04EF2401FDE411
:1036F8003EFC122C00785DE2FC08E2FDECFF1200B3
:103708001818E2FC08E2FDECFF12001818E2FC08A9
:10371800E2FDECFF12001818E2FC08E2FDECFF02E3
:02372800001887
:103126007849EEF208EFF28B828A8308ECF208ED1A
:01313600F2A6
:10313700784FE2FF08E215081508A808CFF208EF54
:10314700F27849E2FE08E2FF122C00AE83AF8278E4
:1031570053EEF208EFF27850E22401FF18E2340050
:10316700FEC37854E29F18E29E50397849E2FE0880
:10317700E2FBAA06784CE22401FF18E23400FEC302
:10318700EB9FEA9E50117851E2FE08E2FF123B0ADC
:103197000BBB00010A80DD7854E22401F218E23407
:0431A70000F280B200
:0131AB002201
:072F83007855EEF208EFF2B1
:102F8A0008E4F208740FF2C37858E2949F18E294A6
:102F9A00005030E2FA08E2FB784FEAF208EBF278E6
:102FAA0055E2FF08E27851CFF208EFF27D7F7C000C
:102FBA00E4FFFE1231267858E22410F218E23400B7
:102FCA00F280C47857E4F208740FF2C37858E29496
:102FDA007F18E294005030E2FC08E2FDFFAE04786C
:102FEA004FE4F208749FF27855E2FB08E27851CB7D
:102FFA00F208EBF2E4FBFA1231267858E22410F2D6
:07300A0018E23400F280C45B
:01301100229C
:1039C400C294C295E49002B2F0EF20E704C2B28040
:1039D40002D2B2D295EF25E0FFC2959002B2E00484
:0539E400F0E0B408E46E
:0139E90022BB
:103316009002B312119400000000C294D2B3E4905C
:1033260002B2F09002B2E0FFC3940C5049C295304D
:10333600B33AC3740B9FFF74017E00A8070880058B
:10334600C333CE33CED8F9FFEE3395E0FDFC9002C1
:10335600B3E0F8A3E0F9A3E0FAA3E04FFFEA4EFEDC
:10336600E94DFDE84CFC9002B312117CD295900217
:10337600B2E004F080ADD2949002B3A3A3E0FEA322
:02338600E0FF66
:013388002222
:0223C500AB0764
:1023C700E4900299F0A3F0A3F0D2B5900299E0C38C
:1023D700940B502C20B529C294EB04FF1239C41278
:1023E7003316900299E025E0249CF582E43402F547
:1023F70083EEF0A3EFF0900299E004F0D29480CB43
:10240700900299E070030224DCE4A3F0900299E0C3
:10241700F9A3E0C39940030224C8E4A3F090029A09
:10242700E0FF900299E0C39FFF90029BE0C39F40AB
:10243700030224BFE0FF25E0249EF582E43402F581
:1024470083E0FCA3E0FDEF25E0249CF582E4340261
:10245700F583E0FEA3E0D39DEE9C405390029BE002
:1024670025E0249CF582E43402F583E0FCA3E0FD3B
:10247700900297ECF0A3EDF0EF25E0249EF582E4BF
:102487003402F583E0FEA3E0FF90029BE0FB25E02A
:10249700249CF582E43402F583EEF0A3EFF0EB25FC
:1024A700E0249EF582E43402F583ECF0A3EDF0908E
:1024B700029BE004F002242490029AE004F0022434
:1024C70013E9C31325E0249CF582E43402F583E085
:0824D700FEA3E0FF22E4FEFF7A
:0124DF0022DA
:101A1F0090027F1211940000000090028312119423
:101A2F000000000090028712119400000000900245
:101A3F008B1211940000000090028F12119400007D
:101A4F00000090029312119400000000E4FFFE12B8
:101A5F000046D2B520B5FD20B603021BB47F327EFF
:101A6F0000123A2C20B5F07FD01223C5E4FCFD9074
:101A7F00028712117C900287E0FCA3E0FDA3E0FE39
:101A8F00A3E024BDFFEE34FFFEED34FFFDEC34FF89
:101A9F00FCE47B80FAF9F8120FFAE47BA57A02F9DD
:101AAF00F8121085E4120D9F7BA47A7079BD783EF1
:101ABF00120C99120DDD90027F12117C7F90122370
:101ACF00C5E4FCFD90028B12117C90028BE0FCA30D
:101ADF00E0FDA3E0FEA3E024A0FFEE34FFFEED3413
:101AEF00FFFDEC34FFFCE47BA0FAF9F8120FFAE4E7
:101AFF00FB7A03F9F8121085E4120D9F7B667A6664
:101B0F0079E6783E120C99120DDD90028312117C4A
:101B1F007F0A7E00123A2C30B503021A73E4FFFEDF
:101B2F00FDFC90027FE0F8A3E0F9A3E0FAA3E0FB4D
:101B3F00C31211255003021A73E47F80FEFDFC903F
:101B4F00027FE0F8A3A3A3E01211254003021A734A
:101B5F00E4FFFEFDFC900283E0F8A3E0F9A3E0FAB6
:101B6F00A3E0FBC31211255003021A73E47FA0FEFA
:101B7F00FDFC900283E0F8A3A3A3E012112540031C
:101B8F00021A7390027FA3A3E0FEA3E0FFC006A397
:101B9F00A3A3E0FEA3E0FDAC06D0067B007AF8120B
:0E1BAF0036D8021A73E4FFFE120046021A66D0
:10384D001201100100000040C41000000000010230
:10385D0003010902200001010080FA0904000002A1
:10386D00FF0000000705020240000007058202402C
:0A387D00000004030904010000002C
:1021640090027FEEF0A3EFF0900283EBF0A3EAF08D
:10217400A3E9F0E4900791F0900791E0FF90384DC7
:1021840093FE74402FF582E43407F583EEF0900754
:1021940091E004F0E0B412E0E4900791F09007912C
:1021A400E0FF90385F93FE74522FF582E43407F514
:1021B40083EEF0900791E004F0E0B420E090027F19
:1021C400E0FEA3E0900748F0EEA3F0A3EDF0ECA34B
:1021D400F090077274FFF0A37438F0A3747FF0904A
:1021E4000283E0F9A3E0FAA3E0900775C9F0A3EA3B
:1021F400F0A3E9F0900286E0F9A3E0FAA3E09007E7
:1022040078C9F0A3EAF0A3E9F0900289E0F9A3E029
:10221400FAA3E090077BC9F0A3EAF0A3E9F09002E7
:102224008CE0FFC394FA500590075AEFF090028DAA
:10223400E0900759F090028EE0FEA3E090074CF086
:10224400EEA3F0E59620E7FB759601759708E596F1
:1022540020E7FB75960775970FE59620E7FB7596C3
:102264000975970EE59620E7FB75960B759707752C
:10227400D7E0123AF3E4900793F0900792F09007B6
:1022840094F0900786F043E602D2AFE59620E7FB90
:072294007596017597012208
:103976009007867402F0E59620E7FB759601759729
:1039860001E490078EF0A37403F0A3F0E49007938C
:07399600F090079204F022FB
:1011DE00E59620E7FB75960EE4F597E59620E7FB7E
:1011EE00759691E59620E7FB90079EE597F0E0FF58
:1011FE0030E210E59620E7FB759611E4F59790071F
:10120E008EF022EF30E410E59620E7FB759611750F
:10121E009780E490078EF090078EE0600302130F24
:10122E0090079EE020E00302130F7596204396C0B0
:10123E00E4900791F0E59620E7FB900791E0247E7D
:10124E00F582E43407F583E597F0900791E004F01A
:10125E00E0B407E1E59620E7FBE4F596900791E010
:10126E00247EF582E43407F583E597F0900781E05C
:10127E00FE900780E07C002400FFEC3E900795F086
:10128E00A3EFF0900785E0FE900784E02400FFECCA
:10129E003E900797F0A3EFF090077FE0B40C00505C
:1012AE005D9012B6F82828730212DA0212DF0212CB
:1012BE00E40212E902130C0212EE0212F302130CF4
:1012CE000212F80212FD0213020213071233898072
:1012DE0030123581802B1226DA80261235D98021E4
:1012EE00123A0C801C1229DC80171237C38012129E
:1012FE003527800D12399D8008123AAD8003123ABF
:10130E004B90078EE06401600302141090079E74E8
:10131E0002F0C390078DE0944090078CE09400405B
:10132E0061E59620E7FB759620E4900791F0900713
:10133E0091E0FFC394405022900787E0FBA3E0FAB0
:10134E00A3E0F98F82758300120F6DF597E5962055
:10135E00E7FB900791E004F080D4900788E475F0E5
:10136E0040120FAC90078DE024C0F090078CE03453
:10137E00FFF090078BE02440F090078AE03400F0F5
:10138E008052E59620E7FB759620E4900791F09049
:10139E000791E0FFD390078DE09F90078CE09400BB
:1013AE004026900787E0FBA3E0FAA3E0F9900791AF
:1013BE00E0F582758300120F6DF597E59620E7FB39
:1013CE00900791E004F080C790079EE04408F0E497
:1013DE0090078EF0900797E0FEA3E0FF90078AE05B
:1013EE00B50611A3E0B5070C90079EE04408F0E4A3
:1013FE0090078EF0E59620E7FB75961190079EE01C
:03140E00F597222D
:103A4B00E59620E7FB75960EE4F597E59620E7FBE8
:0D3A5B0075961175972090078E7404F02267
:1033890090077EE0247F600714600624027048805D
:103399002D90078FE0B40309900782E0B402028000
:1033A9000E900790E0B40316900782E0B4820F9064
:1033B900078774FFF0A37438F0A37483800D900716
:1033C9008774FFF0A37438F0A37485F090078CE438
:1033D900F0A37402F08003123A4B90078EE0640464
:1033E9006010123AAD90078E7401F0E490078AF0EC
:0333F900A3F0221C
:10358100900780E07041900782E0B4021DE596202B
:10359100E7FB75960E759702E59620E7FB75961485
:1035A100759780E490078FF08020E59620E7FB7502
:1035B100960E759702E59620E7FB75961175974073
:1035C100E4900790F08003123A4BE59620E7FB75F3
:0835D100960EE4F597023AADF5
:1026DA00900796E020E003022770900794E030E02C
:1026EA000854FEF04402F08007900794E054FDF08D
:1026FA00E59620E7FB75960E759702E59620E7FBAF
:10270A00759614759710E59620E7FB7596117597DF
:10271A0008E59620E7FB759694E59620E7FB900777
:10272A009DE597F0E020E4E9E59620E7FB7596142D
:10273A00759710E59620E7FB759691E59620E7FBDD
:10274A0090079DE597F0E020E3E9E59620E7FB7521
:10275A0096117597089007927408F0900794E0FF15
:10276A0030E1034401F0900795E0FCA3E0FD30E17D
:10277A000D9007867406F0900792E04410F0ED3051
:10278A00E20D9007867404F0900792E04420F0E589
:0D279A009620E7FB75960EE4F597023AAD28
:1035D900900780E07040900782E0B4021BE59620D6
:1035E900E7FB75960E759702E59620E7FB7596142D
:1035F90075972090078F8019E59620E7FB75960E41
:10360900759702E59620E7FB759611759710900757
:10361900907403F08003123A4BE59620E7FB759608
:073629000EE4F597023AAD33
:103A0C00E59620E7FBE4F596900780E0FFF597EF4D
:103A1C0090078660057403F080037402F0023AADDF
:1029DC00900781E024FE601B14603B240270699018
:1029EC0007877401F0A37407F0A37440F0900740BC
:1029FC00E0804A9007877401F0A37407F0A3745227
:102A0C00F0900755E0FE900754E07C002400FFECAA
:102A1C003E90078C802C900780E075F003A4247204
:102A2C00F582E43407F583E0FBA3E0FAA3E0F99028
:102A3C000787EBF0A3EAF0A3E9F0120F54FF90071D
:102A4C008CE4F0A3EFF08003123A4B90078CE0FE7D
:102A5C00A3E0FF900797E0FCA3E0FDC39FEC9E5022
:102A6C000890078CECF0A3EDF090078EE064046006
:102A7C0010123AAD90078E7401F0E490078AF0A31F
:022A8C00F02236
:1037C300900786E0FFB40414A374FFF0A37438F0E9
:1037D300A37483F090078CE4F0A304F0EFB4031612
:1037E30090078774FFF0A37438F0A37485F09007F3
:1037F3008CE4F0A304F0123AAD90078E7401F0E468
:0738030090078AF0A3F022F8
:10352700900780E0D394004042900792E04440F037
:103537009007867404F0E490078FF0A3F0E59620D7
:10354700E7FB75960E759702E59620E7FB759612D1
:10355700759784E59620E7FB759615759780E59630
:1035670020E7FB75960EE4F597800C9007867403A9
:0A357700F090078FF0A3F0023AADC8
:10399D0090078774FFF0A37438F0A37485F0900737
:1039AD008CE4F0A304F0123AAD90078E7401F0E4AC
:0739BD0090078AF0A3F0223D
:103AAD0090078EE06404600BE59620E7FB75961198
:043ABD007597402297
:03004300021ED8C2
:101ED800C0E0C0F0C083C082C0D075D000C000C0D0
:101EE80001C002C003C004C005C006C0079007A116
:101EF800E596F0E59620E7FB75968EE59620E7FBDC
:101F08009007A2E597F0E59620E7FB759686E5969B
:101F180020E7FB900799E597F0E030E30BE5962082
:101F2800E7FB75960B759707900799E030E2031267
:101F38003976900799E030E014900786E0FF640452
:101F48006004EFB40607900792E04480F0E596201D
:101F5800E7FB759682E59620E7FB900799E597F0F1
:101F6800E030E0031211DE900799E030E22AE596AE
:101F780020E7FB75960E759702E59620E7FB7596A8
:101F880091E59620E7FB90079AE597F0E0540370F7
:101F980007900792E04402F0E59620E7FB759684E7
:101FA800E59620E7FB900799E597F0E030E229E510
:101FB8009620E7FB75960E759702E59620E7FB7568
:101FC8009694E59620E7FB90079AE597F0E030E0D5
:101FD80007900792E04404F0E59620E7FB75960E1B
:101FE8009007A2E0F597E59620E7FB9007A1E59614
:101FF800F0E59620E7FB900794E030E0099007921F
:10200800E060031239EAD007D006D005D004D00327
:10201800D002D001D000D0D0D082D083D0F0D0E090
:012028003285
:10388700E5B964E0602E53A90FC0A943B280E5A94A
:103897005407D394014003E4F5A9E4F5B943B9808B
:1038A700E4D5E0FD43B9C0E5B930E5FBD0E0B402AB
:0838B7000343A90253A90F22EB
:10394B0053D7BF43C910E5A95402900791F043B276
:10395B008075A910E4F5B943B2200012388790079F
:0B396B0091E042A953C9EF43D740226E
:0E3AE500900792E0FFE4F022900792E0FF22AB
:102A8E00900786E0B40606EDD3944040037F002203
:102A9E00E59620E7FB75960E759702E59620E7FB07
:102AAE00759694E59620E7FB90079CE597F0E0205D
:102ABE00E003022B3AE59620E7FB759696E5962005
:102ACE00E7FB900793E597F0E0FFEDC39F5006AE4E
:102ADE0005AF068000900793EFF053E6FDE59620D4
:102AEE00E7FB7596E2900793E06025FEEB600630FB
:102AFE00E70F7F0022E59620E7FBA79709DEF68019
:102B0E000F89828A83E59620E7FBE597F0A3DEF531
:102B1E00E59620E7FBE4F596E59620E7FB7596141F
:0F2B2E00E4F59743E602900793E0FF227F002231
:1024E000900786E0B4060DED4C6009D3ED9400EC46
:1024F00094104004E4FEFF2253E6FDE490079FF0B1
:10250000A3F090079BF089828A83C083C0829007E2
:102510009BE030E0030225E1E59620E7FB75960E8F
:10252000759702E59620E7FB759691E59620E7FB07
:1025300090079BE597F0E030E020E59620E7FB75FB
:10254000960EE4F597E59620E7FB759691E59620C3
:10255000E7FB90079BE597F080B4C3ED9440EC94C3
:10256000009007A0E0401B2440F090079FE034005B
:10257000F074C02DFD74FF3CFCE490079BF07840A4
:1025800080132DF090079FE03CF090079B7401F0C2
:10259000A805E4FCFDE59620E7FB759622D082D0E5
:1025A00083E8602BEB601130E71AE59620E7FBE447
:1025B00093F597A3D8F48017E59620E7FB87970952
:1025C000D8F6800BE59620E7FBE0F597A3D8F5C099
:1025D00083C082E59620E7FB759611759701022569
:1025E0000ED082D08343E60290079FE0FEA3E0FF77
:0125F00022C8
:103A6800900794E04401F0900792E0600BE59620FF
:093A7800E7FB75960B75970F2210
:0C3AF300E59620E7FB75960F7597892279
:1039EA00D007D007D007D006D005D004D003D00224
:1039FA00D001D000D0D0D082D083D0F0D0E0020065
:023A0A008B220D
:100C9900EC4D6011E8497017ED33EC3304600DE455
:100CA900FCFFFEFD22E933E8330470F8020E491215
:100CB9000E1458046009E4CC248150062850090216
:100CC9000E53284003020E50C0E0EB4A7044B9802D
:100CD90006D0E0FB020E3FEF4E701CBD8008EBFF13
:100CE900EAFEE9FD80EBE98DF0A4FEE5F0020D8254
:100CF900E9CDF9EAFEEBFFEF89F0A4FCE5F0CE8936
:100D0900F0A42EFFE435F0CD89F0A42DFEE435F0F2
:100D19008067EF4E7005BD80D780C3EF8BF0A4AC20
:100D2900F0EE8BF0A42CFCE435F0F8EF8AF0A42C5B
:100D3900E5F038FCE433CB8DF0A42CFCE5F03BF86E
:100D4900EE8AF0A42CFCE5F038F8E433CF89F0A45E
:100D59002CFCE5F038CF3400CE89F0A42FFFE5F064
:100D69003EFEE433C98DF0A42EFEE5F039CD8AF0BC
:100D7900A42FFFE5F03EFEE43DFD33D0E0FB500734
:100D89000BBB000F020E53EC2CFCEF33FFEE33FECE
:060D9900ED33FD020E2BFC
:100D9F0075F020800E75F010800575F0087D007ECF
:100DAF00007F003392D530D503121117EC3340106A
:100DBF00EF33FFEE33FEED33FDEC33FCD5F0ED22D8
:0E0DCF00E5F0247EA2D513CC92E7CDCEFF2214
:100DDD00EDD2E7CD33EC3392D524814006E4FFFE0E
:100DED00FDFC22FCE4CFCECDCC24E0501174FF806D
:100DFD00EDC3CC13CCCD13CDCE13CECF13CF04700A
:070E0D00F030D5DE021117E1
:100E1400E9D2E7C933E833F892D5EDD2E7CD33EC24
:070E240033FC5002B2D5229D
:100E2B00EC30E7100FBF000C0EBE00080DBD000428
:100E3B000BEB6014A2D5EB13FCED92E7FD2274FFD4
:100E4B00FCFDFEFF22E480F8A2D574FF13FC7D802D
:030E5B00E480EF41
:03000000023012B9
:0C301200787FE4F6D8FD75810802305983
:100E5E00E709F608DFFA8046E709F208DFFA803E76
:100E6E0088828C83E709F0A3DFFA8032E309F60863
:100E7E00DFFA8078E309F208DFFA807088828C83CB
:100E8E00E309F0A3DFFA806489828A83E0A3F6087F
:100E9E00DFFA805889828A83E0A3F208DFFA804C59
:100EAE0080D280FA80C680D4806980F28033801030
:100EBE0080A680EA809A80A880DA80E280CA803399
:100ECE0089828A83ECFAE493A3C8C582C8CCC58311
:100EDE00CCF0A3C8C582C8CCC583CCDFE9DEE780E1
:100EEE000D89828A83E493A3F608DFF9ECFAA9F060
:100EFE00EDFB2289828A83ECFAE0A3C8C582C8CCB6
:100F0E00C583CCF0A3C8C582C8CCC583CCDFEADECE
:100F1E00E880DB89828A83E493A3F208DFF980CC30
:100F2E0088F0EF60010E4E60C388F0ED2402B40429
:100F3E000050B9F582EB2402B4040050AF232345D0
:060F4E008223900EAE7339
:100F5400BB010689828A83E0225002E722BBFE029B
:090F6400E32289828A83E49322CE
:100F6D00BB010CE58229F582E5833AF583E0225039
:100F7D0006E92582F8E622BBFE06E92582F8E22283
:0D0F8D00E58229F582E5833AF583E493229D
:100F9A00EF8DF0A4A8F0CF8CF0A428CE8DF0A42E6B
:020FAA00FE2225
:100FAC00C5F0F8A3E028F0C5F0F8E58215827002D0
:060FBC001583E038F0226D
:100FC200BB0110E58229F582E5833AF583E0F5F06D
:100FD200A3E0225009E92582F886F008E622BBFE4A
:100FE2000AE92582F8E2F5F008E222E5832AF58390
:080FF200E993F5F0A3E9932255
:100FFA00E88FF0A4CC8BF0A42CFCE98EF0A42CFC96
:10100A008AF0EDA42CFCEA8EF0A4CDA8F08BF0A413
:10101A002DCC3825F0FDE98FF0A42CCD35F0FCEB72
:10102A008EF0A4FEA9F0EB8FF0A4CFC5F02ECD3937
:0F103A00FEE43CFCEAA42DCE35F0FDE43CFC22A4
:1010490075F008758200EF2FFFEE33FECD33CDCC5E
:1010590033CCC58233C5829BED9AEC99E5829840E1
:101069000CF582EE9BFEED9AFDEC99FC0FD5F0D6BE
:10107900E4CEFBE4CDFAE4CCF9A88222B800C1B9E8
:101089000059BA002DEC8BF084CFCECDFCE5F0CB26
:10109900F97818EF2FFFEE33FEED33FDEC33FCEB5F
:1010A90033FB10D703994004EB99FB0FD8E5E4F91A
:1010B900FA227818EF2FFFEE33FEED33FDEC33FC07
:1010C900C933C910D7059BE99A4007EC9BFCE99AFB
:1010D900F90FD8E0E4C9FAE4CCFB2275F010EF2F40
:1010E900FFEE33FEED33FDCC33CCC833C810D70740
:1010F9009BEC9AE899400AED9BFDEC9AFCE899F87B
:0E1109000FD5F0DAE4CDFBE4CCFAE4C8F9220D
:0E111700C3E49FFFE49EFEE49DFDE49CFC22E9
:10112500EB9FF5F0EA9E42F0E99D42F0E89C45F020
:011135002297
:10113600E8600FECC313FCED13FDEE13FEEF13FF97
:03114600D8F122BB
:10114900E8600FEFC333FFEE33FEED33FDEC33FC04
:03115900D8F122A8
:10115C007401FF3395E0FEFDFC080808E2CF2FF286
:10116C0018E2CE3EF218E2CD3DF218E2CC3CF2226F
:0C117C00ECF0A3EDF0A3EEF0A3EFF022E6
:0C118800ECF208EDF208EEF208EFF222A3
:10119400A8828583F0D083D0821211AB1211AB12D6
:1011A40011AB1211ABE473E493A3C583C5F0C583FB
:1011B400C8C582C8F0A3C583C5F0C583C8C582C8A5
:0111C4002208
:1011C500D083D082E493F208740193F208740293F9
:0911D500F208740393F274047330
:10301E0002377AE493A3F8E493A34003F68001F217
:10302E0008DFF48029E493A3F85407240CC8C333B3
:10303E00C4540F4420C8834004F456800146F6DF82
:10304E00E4800B01020408102040809038F3E47EE7
:10305E00019360BCA3FF543F30E509541FFEE49377
:10306E00A360010ECF54C025E060A840B8E493A33E
:10307E00FAE493A3F8E493A3C8C582C8CAC583CA69
:10308E00F0A3C8C582C8CAC583CADFE9DEE780BE21
:01391F0000A7
:00000001FF
