:103722005553422044454255470055534220524585
:1037320041440010C4EA611A03530069006C006935
:103742000063006F006E0020004C00610062007395
:103752000010035500530042002000410050004970
:10376200000A0343003500310046000F80010001CA
:10388100810000810700810C00810E00810F008101
:103891000D00810400820500008408000000018100
:0838A10001AA8102558103FF19
:103772001233E630B646122B3D7F1E7E0012367F94
:1037820074FFFFFE12004612367B7F007EF81200A5
:103792004612367B7FE07E0712004612367B7F1F81
:1037A2007E0012004612367B122D1D12367BE4FF7C
:0D37B200FE12004612367B12186A80B72204
:1039B700E4FDFCC3ED9FEC9E5014E4FBFA0BBB0047
:0E39C700010AEBF44A70F60DBD00010C80E51C
:0139D50022CF
:04367B007F287E0026
:07367F00785EEEF208EFF2A5
:10368600E408F208F230B721E4FFFED3785FE29F48
:1036960018E29E401EE4FDFC0DBD00010CEDF44C4D
:1036A60070F60FBF00010E80E2123A867F147E008C
:1036B6001239B77861E22401F218E23400F2C30845
:0936C600E2946418E2940040BC97
:0136CF0022D8
:103A860030B60512008E80F87FF47E011239B73009
:033A9600B6FD2258
:10008E0078667C007DFE7BFF7A3779717E007F017A
:10009E00120F2F7807E2700302026E78627401F27B
:1000AE007862E2FFC39410507BEF25E025E024D95F
:1000BE00F582E43402F583E07028E2FD25E025E0C8
:1000CE0024DAF582E43402F583E0FEED25E025E046
:1000DE0024DBF582E43402F583E0FDEDFF123A12E3
:1000EE00803A7862E225E025E024D9F582E43402F4
:1000FE00F583E0B40126E2FD25E025E024DAF58261
:10010E00E43402F583E0FEED25E025E024DBF58204
:10011E00E43402F583E0FDEDFF1239DA7862E20491
:10012E00F20200AE0000000000000000000000001F
:10013E0000000000000000007BFF7A377922E4788F
:10014E006CF208F208F208F274FF08F208F2E4FD0D
:10015E00FC122DB89002DCE020E00302025378621C
:10016E007401F27862E2FFC394104003020253EF6F
:10017E0025E025E024D9F582E43402F583E07055BC
:10018E00E2FD25E025E024DAF582E43402F583E091
:10019E00FEED25E025E024DBF582E43402F583E074
:1001AE00FDEDFFE2FB25E025E024DCF582E43402E0
:1001BE00F583E075F024A4FDACF0EB75F011A4FB13
:1001CE00AAF0786D7407F20874E0F2E408F208F20F
:1001DE0012292980687862E2FB25E025E024D9F512
:1001EE0082E43402F583E064017052E2FD25E025DD
:1001FE00E024DAF582E43402F583E0FEED25E02515
:10020E00E024DBF582E43402F583E0FDEDFFEB251F
:10021E00E025E024DCF582E43402F583E075F02479
:10022E00A4FDACF0EB75F011A4FBAAF0786DE4F22E
:10023E0008741FF274FF08F208F21229297862E29C
:10024E0004F2020171000000000000000000000036
:10025E00000000000000000000E47807F20200A198
:10026E00780DE2700302033AE47862F27862E2C338
:10027E0094404003020327C2B0D2B1E2FE24D9F566
:10028E0082E43402F583E0FF74DA2EF582E4340260
:10029E00F583E0FD1238EED2B07862E2FF24D9F594
:1002AE0082E43402F583E0FE780508E2FD2401F2D3
:1002BE0018E2FC3400F274812DF58274003CF58353
:1002CE00EEF074DA2FF582E43402F583E0FF08E2F3
:1002DE00FD2401F218E2FC3400F274812DF58274D3
:1002EE00003CF583EFF008E2B4002518E2B40220DA
:1002FE00780812115D1231987804E2900081F07F37
:10030E00007E007D007C00123198E47805F208F240
:10031E007862E22402F202027AE4780DF27BFE7A2F
:10032E000079667D01FC1224E002026E7800E27014
:10033E00030204479002DCE070030203FD7862744E
:10034E0004F27862E2C394244003020434C2B0D2B1
:10035E00B1E2FE24D9F582E43402F583E0FF74DACB
:10036E002EF582E43402F583E0FD1238EED2B07839
:10037E0062E2FF24D9F582E43402F583E0FE7805CB
:10038E0008E2FD2401F218E2FC3400F274812DF52E
:10039E008274003CF583EEF074DA2FF582E43402B9
:1003AE00F583E0FF08E2FD2401F218E2FC3400F2CE
:1003BE0074812DF58274003CF583EFF008E2B400F1
:1003CE002518E2B40220780812115D1231987804D3
:1003DE00E2900081F07F007E007D007C001231985B
:1003EE00E47805F208F27862E22402F20203507811
:1003FE00627404F27862E2C39424502AC2B0D2B17D
:10040E00E2FE24D9F582E43402F583E0FF74DA2E9D
:10041E00F582E43402F583E0FD1238EED2B0786254
:10042E00E22402F280CEE47800F27BFE7A00796656
:10043E007D01FC1224E002033A780FE270030204FD
:10044E00FE78627404F27862E2FFC39424400302E1
:10045E0004EB74D92FF582E43402F583E07020E2C8
:10046E00FD24DAF582E43402F583E0FE74DB2DF52B
:10047E0082E43402F583E0FDEDFF123A12805578E6
:10048E0062E224D9F582E43402F583E0B40120E27D
:10049E00FD24DAF582E43402F583E0FE74DB2DF5FB
:1004AE0082E43402F583E0FDEDFF1239DA8025781F
:1004BE0062E224D9F582E43402F583E0641070140C
:1004CE00000000000000000000000000000000001E
:1004DE00000000007862E22404F2020454E4780F73
:1004EE00F27BFE7A0079667D01FC1224E00204475D
:1004FE00780CE27003020653E47862F27862E2FF4F
:10050E00C39418501174812FF582E43402F583E4FC
:10051E00F0E204F280E69002E0E025E07865F290E9
:10052E0002DEE0FEA3E0FDEE7863F2ED08F290024B
:10053E00DDE06401703C18E2FE08E2FF123A12E4BC
:10054E007862F27865E2FF7862E2C39F5024123A35
:10055E005C7862E2FD2481F582E43402F583E4F0F6
:10056E0074822DF582E43402F583EFF0E22402F278
:10057E0080D1E4780CF27B017A0279817865E2FD14
:10058E007C001224E07F647E001239B77BFF7A373D
:10059E00792CE4786CF208F208F208F274FF08F293
:1005AE0008F2E4FDFC122DB89002DCE020E003021C
:1005BE0004FE9002E1E075F024A4FDACF07863E255
:1005CE00FE08E2FF786D7407F20874E0F2E408F2B8
:1005DE0008F27B11FA122929E47862F27865E2FFBB
:1005EE007862E2F9C39F40030204FE9002E1E075D7
:1005FE00F024A4FDACF0C004C005E9C3132402FF2F
:10060E00E433FE7C007D11120F9BAA06AB077481AA
:10061E0029F582E43402F583E0FE748229F582E442
:10062E003402F583E0FDEDFF786DE4F208741FF2FD
:10063E0074FF08F208F2D005D0041229297862E27C
:10064E002402F28097780EE26041E47862F27862DA
:10065E00E2FFC39440501174992FF582E43402F5F1
:10066E0083E4F0E204F280E69002997401F0A37440
:10067E0040F0E4A3F0A374F0F0E4780EF27B017A7C
:0B068E000279997D40FC1224E080BA44
:01069900223E
:1038060053D9BF75B283E4F5B943B980FF0FEFB45E
:10381600FFFB43B9C0E5B930E5FBE4F5A943EF0288
:1038260075F1FF75A4FF75A5FF75F2FF75A6FF7507
:10383600AEFF75F4FF43A717C286C28743E1024372
:02384600E2405E
:01384800225D
:1033E600123806123849903735E493FE740193FF7C
:1033F600903737E493FC740193FD90028874FFF0D4
:10340600A37437F0A37453F0A374FFF0A37437F0DA
:10341600A37463F090376DE49390028EF090376E4C
:10342600E49390028FF090376FE493FB74019390CE
:103436000290CBF0A3EBF07BFF7A37793912216645
:0C344600123A2D75A17075F80F021EDB04
:03003D000238AED8
:03008B0002202927
:10202900C0E0C0F0C083C082C0D075D000C000C07D
:0D20390001C002C003C004C005C006C007FE
:10204600123AAA785BEFF220E2030220F07B017AD3
:102056000279D97D40122A8E7801E2FF9002D9E0FA
:10206600FEB5071408E2FDA3E0B5050C08E2FDA3E2
:10207600E0B505047807806F7803E2FDB50613180E
:10208600E2FE9002DAE0B50609A3E0B50704780C93
:1020960080557802E2FF9002D9E0B5071118E2FEFA
:1020A600A3E0B50609A3E0B50504780E80397801EA
:1020B600E2FE9002D9E0FDB506127803E2FCA3E049
:1020C600B50409A3E0B507047800801B7803E2B5E0
:1020D60005139002DAE0B5060C18E2FFA3E0B50797
:1020E60004780F8002780D7401F2785BE230E70322
:1020F60012003D785BE230E603123806785BE23088
:10210600E41C15081508A8087401F208743FF27A51
:10211600007B007C007DEF7E007F00122C9B785BAD
:10212600E230E5217804E204F215081508A80874DF
:1021360001F208743FF27A007B007C007DEF7E009E
:052146007F00122C9B3C
:10214B00D007D006D005D004D003D002D001D000E8
:0B215B00D0D0D082D083D0F0D0E03292
:0C3A46007FFF123A527FFF123A527FFFBE
:093A52008FA330FFFDC2FFAFA3FA
:013A5B002248
:0A3AC40075A3FF30FFFDC2FFAFA3A2
:013ACE0022D5
:02328B00AE078C
:10328D00E4FB123A46123A46C2FAEE4440FF123AB5
:10329D0052786CE2FC08E2FD08E2FE08E2FF7818C5
:1032AD00121137123A52786CE2FC08E2FD08E2FE88
:1032BD0008E2FF7810121137123A52786CE2FC08CE
:1032CD00E2FD08E2FE08E2FF7808121137123A52C9
:1032DD00786C080808E2FF123A527F95123A527F35
:1032ED00FF123A52BFFF09AE030BEED3946440EFC9
:0232FD00D2FA03
:0132FF0022AC
:10287200E4FEFA75A90375A23BE4FD7FFF123A520A
:102882000DEDB464F6786C1211C600000000E4FF8E
:1028920012328BAE070AEAD3940A5004EEB401D97D
:1028A200E4FA786C1211C6000000007F3712328BF6
:1028B200AE070AEAD3946440037F0122EEB401E238
:1028C200E4FA786C1211C6000000007F2912328BE4
:1028D200AE070AEAD3946440037F0122EE70C3EE8E
:1028E200601FE4FA786C1211C6000000007F01122A
:1028F200328BAE070AEAD3946440037F0122EE7062
:10290200E3786C1211C6000000007F3B12328BAEDE
:1029120007786C1211C6000002007F1012328B750C
:06292200A201E4F5A9FF8B
:01292800228C
:05345200781012118941
:10345700E4FA75A9037810E2FC08E2FD08E2FE0829
:10346700E2FF780912114A786C1211897F11123222
:103477008B0AEAD3940A40037F0122EF70D7C2FA7E
:10348700123AC4BFFEFAE4FDFC123AC474812DF56A
:103497008274003CF583EFF00DBD00010CE4B50527
:0E34A700E8ECB402E4123A4BD2FAE4F5A9FFC5
:0134B50022F4
:053198007867121189A7
:10319D00E4FA75A9037867E2FC08E2FD08E2FE088F
:1031AD00E2FF780912114A786C1211897F181232D8
:1031BD008BAE070AEAD3940A40037F0122EE70D545
:1031CD00C2FA7FFF123A527FFE123A52FDFC748111
:1031DD002DF58274003CF583E0FF123A520DBD00CF
:1031ED00010CE4B505E8ECB402E4123A46AE07EE84
:1031FD00541F64056003D2FA227FFF123A52EF602A
:07320D00F8D2FAE4F5A9FF75
:013214002297
:103A9900E4F9122872EF600809E9D3940340F3228C
:013AA90022FA
:10069A00000000182442424242424242241800000A
:1006AA00000000107010101010101010107C0000C4
:1006BA000000003C4242420404081020427E00002E
:1006CA000000003C4242041804020242443800007E
:1006DA00000000040C14242444447E04041E000078
:1006EA000000007E40404058640202424438000044
:1006FA000000001C24404058644242422418000072
:10070A000000007E44440808101010101010000069
:10071A000000003C4242422418244242423C00006B
:10072A000000001824424242261A0202243800001D
:10073A000000001010182828243C444242E7000018
:10074A00000000F8444444784442424244F800001D
:10075A000000003E4242808080808042443800008F
:10076A00000000F8444242424242424244F8000039
:10077A00000000FC424848784848404242FC0000D9
:10078A00000000FC424848784848404040E00000E9
:10079A000000003C44448080808E84444438000039
:1007AA00000000E7424242427E42424242E70000E3
:1007BA000000007C1010101010101010107C0000A7
:1007CA000000003E0808080808080808080888F019
:1007DA00000000EE444850705048484444EE00007F
:1007EA00000000E0404040404040404042FE0000DF
:1007FA00000000EE6C6C6C6C5454545454D60000D7
:10080A00000000C7626252524A4A4A4646E2000063
:10081A000000003844828282828282824438000048
:10082A00000000FC424242427C40404040E000005E
:10083A0000000038448282828282B2CA4C380600A2
:10084A00000000FC4242427C4848444442E3000023
:10085A000000003E4242402018040242427C00004E
:10086A00000000FE92101010101010101038000036
:10087A00000000E74242424242424242423C0000F9
:10088A00000000E7424244242428281810100000DF
:10089A00000000D692929292AAAA6C4444440000A4
:1008AA00000000E7422424181818242442E7000014
:1008BA00000000EE444428281010101010380000E0
:1008CA000000007E840408081020204242FC000038
:1008DA00001E1010101010101010101010101E0012
:1008EA0000004040202010101008080404040202EE
:1008FA00007808080808080808080808080878009E
:10090A00001C22000000000000000000000000009F
:10091A00000000000000000000000000000000FFCE
:10092A00006010000000000000000000000000004D
:10093A00000000000000003C421E2242423F00002C
:10094A00000000C0404040586442424264580000DF
:10095A00000000000000001C22404040221C000051
:10096A00000000060202021E22424242261B00002A
:10097A00000000000000003C427E4040423C000073
:10098A000000000F1110107E10101010107C0000D3
:10099A00000000000000003E444438403C42423C13
:1009AA00000000C04040405C6242424242E7000010
:1009BA00000000303000007010101010107C000091
:1009CA000000000C0C00001C040404040404447815
:1009DA00000000C04040404E4850684844EE0000C5
:1009EA00000000701010101010101010107C000081
:1009FA0000000000000000FE4949494949ED000095
:100A0A0000000000000000DC6242424242E70000AF
:100A1A00000000000000003C42424242423C00000A
:100A2A0000000000000000D864424242447840E0DE
:100A3A00000000000000001E22424242221E02075D
:100A4A0000000000000000EE3220202020F8000004
:100A5A00000000000000003E42403C02427C0000D0
:100A6A00000000000010107C10101010100C000084
:100A7A0000000000000000C642424242463B00001D
:100A8A0000000000000000E74224242810100000A3
:100A9A0000000000000000D79292AAAA4444000075
:100AAA00000000000000006E2418181824760000C8
:100ABA0000000000000000E742242428181010E07B
:100ACA00000000000000007E44081010227E000092
:100ADA0000030404040404080404040404040300D2
:100AEA00080808080808080808080808080808087C
:100AFA000060101010101008101010101010600074
:100B0A00304C43000000000000000000000000001C
:100B1A0000000000000000000000000000000000CB
:100B2A00000000101010101010100000181800001B
:100B3A0000123624480000000000000000000000F7
:100B4A00000000242424FE484848FE484848000083
:100B5A0000001038545450301814145454381010DB
:100B6A0000000044A4A8A8A8541A2A2A2A4400006B
:100B7A0000000030484848506EA4948889760000E6
:100B8A0000606020C00000000000000000000000BB
:100B9A0000020408081010101010100808040200BF
:100BAA00004020101008080808080810102040000B
:100BBA00000000001010D63838D6101000000000CF
:100BCA000000000010101010FE101010100000009D
:100BDA00000000000000000000000000606020C06B
:100BEA0000000000000000007F000000000000007C
:100BFA00000000000000000000000000606000002B
:100C0A0000000102020404080810102020404000DD
:100C1A00000000000000181800000000181800006A
:100C2A00000000000000001000000000001010206A
:100C3A0000000002040810204020100804020000EE
:100C4A00000000000000FE000000FE00000000009E
:100C5A000000004020100804020408102040000090
:100C6A000000003C42426202040808001818000012
:100C7A0000000038445AAAAAAAAAB442443800007A
:100C8A00FFFFFFFFFFFFFFFFFFFFFFFFFFFFFFFF6A
:0438A9008259000040
:041412007867EFF216
:10141600ED64086003021504C2B0D296C2B1E2F5CB
:10142600A0C297D297D2B0E4F5A675F3FF75A0FFD8
:10143600C2B0D2B1D297C2960000000000000000F0
:10144600D28700000000AFA0786AF208EFF2C287E8
:1014560000000000D29600000000C29600000000C6
:1014660000000000D28700000000A9A0C28700008B
:101476000000D29600000000C296000000000000A6
:101486000000D28700000000786EE5A0F2C2870057
:10149600000000D2960000000000000000C2960086
:1014A60000000000000000D28700000000AAA0C2D1
:1014B6008700000000D2960000000000000000D265
:1014C60096000000000000000075A6FFEBB4010BBB
:1014D600786BE2FEE9F582EE08801EEBB4020CE9B9
:1014E600FE786EE2F582EE786C800EEBB4030F7830
:1014F6006EE2FEEAF582EE786CF2E58208F2ED64C1
:10150600044C600302163A75A6FF7867E2FFC2B084
:10151600C2B1E4FDC2A1EF30E704D2A08002C2A0AE
:10152600D2A1EF25E0FF0DEDB408E975A6FEEB6448
:10153600016005EB6403702AE4FDC2A1D287D2A044
:101546007869E225E0FF18E233FEA2A0E433F582D3
:10155600EEF2EF458208F2C287D2A10DEDB409DAA8
:101566008032EB64026005EB64047028E4FDC2A1DE
:10157600D287D2A07869E225E0FF18E233FEA2A066
:10158600E433F582EEF2EF458208F2C287D2A10D6E
:10159600EDB410DAE4FDC2A1D287D2A0786BE225C1
:1015A600E0FF18E233FEA2A0E433F582EEF2EF4547
:1015B6008208F2C287D2A10DEDB408DAE4FDC2A119
:1015C600D287D2A0E925E0FFA2A0E4334FF9C28773
:1015D600D2A10DEDB408E7E4FDC2A1D287D2A0786E
:1015E6006EE225E0FFA2A0E4334FF2C287D2A10D3E
:1015F600EDB408E575A6FFC287D296D2B1D2A1D2C4
:10160600A0D2B0EBB401127869E2FE08E24EFF0800
:10161600E208CFF208EFF2801BEB6402600AEBB43B
:1016260003028004EBB4040C786BE2FEE9FDEE08DD
:0D163600F2ED08F2C287786CE2FE08E2FFD8
:011643002284
:043A1200AD07AC064A
:103A1600EC7880F2C2B0D296C2B1F5A0AF058FC7DE
:063A2600C297D297D2B056
:013A2C002277
:0439D600F808E2FF0C
:0439DA00AD07AC0683
:1039DE00EC7880F2C2B0D296D2B1F5A0AF058FC707
:0639EE00C297D297D2B08F
:0139F40022B0
:1038D900FFAE03EE33333354F84FFFEE25E0FEC459
:0538E9003354E04BFD2B
:1038EE00C2B0D296D2B18FA0AF058FC7C297D29772
:0238FE00D2B046
:0139000022A4
:093ACF00AD07AC06ECFF0238EE75
:101EDB00123A5CD2857F967E001239B7C2857F7825
:101EEB007E001239B7D2857F967E001239B77F11EB
:101EFB007E00123A127F781239B77F367E00123A83
:101F0B0012E4FF1239DA7F3A123A127F551239DA9C
:101F1B007FB2123A127F0C1239DA7F0C1239DAE4E3
:101F2B00FF1239DA7F331239DA7F331239DA7FB79E
:101F3B00123A127F351239DA7FBB123A127F3C12FA
:101F4B0039DA7FC0123A127F2C1239DA7FC2123A79
:101F5B00127F011239DA7FC3123A127F111239DA6A
:101F6B007FC4123A127F201239DA7FC6123A127FDF
:101F7B000F1239DA7FD0123A127FA41239DA7FA10D
:101F8B001239DA7FE0123A127FD01239DAE4FF12FB
:101F9B0039DA7F051239DA7F0E1239DA7F151239E9
:101FAB00DA7F0D1239DA7F371239DA7F431239DAD9
:101FBB007F471239DA7F091239DA7F151239DA7F46
:101FCB00121239DA7F161239DA7F191239DA7FE1F8
:101FDB00123A127FD01239DAE4FF1239DA7F051286
:101FEB0039DA7F0D1239DA7F0C1239DA7F061239A2
:101FFB00DA7F2D1239DA7F441239DA7F401239DA5F
:10200B007F0E1239DA7F1C1239DA7F181239DA7F18
:0E201B00161239DA7F191239DA7F29023A12C9
:102C8100F2150815087401A808F208743FF27DEFE7
:0A2C91007A007B007C007E007F00CB
:102C9B0015081508A808EAF208EBF215081508A89C
:102CAB0008ECF208EDF215081508A808EEF208EF8B
:102CBB00F27F2A7E00123A12A908E3FF1239DAA832
:102CCB000808E2FF1239DAA8080808A900E3FF1286
:102CDB0039DAA808080808E2FF1239DA7F2B123A12
:102CEB0012E5082404F9E3FF1239DAE5082404128B
:102CFB0039D6E5082406F9E3FF1239DAE50824068C
:102D0B001239D67F2C123A1275A903E5082408F55F
:022D1B0008228C
:02004600AC0606
:10004800EC7860F2EF08122C81C2B0E4785EF20816
:10005800F2E4FBFA7860E2FF08E2FD1238EE0BBB2F
:1000680000010AEB64F04A70EB785FE22401F218B1
:10007800E23400F2C308E2944018E2940140D2D27C
:01008800B0C7
:010089002254
:102B3D00122C82C2B079F8E4FE7FF8FD1238EE79DE
:102B4D00077EE07F077DE01238EE0BBB00010AEB3C
:102B5D0064EE4A70EAE4F97E1FFF7D1F1238EE78AD
:102B6D005EF208F279F8E4FE7FF8FD1238EEFAFB1A
:102B7D00E4F9FEFFFD1238EE0BBB00010AEB64EE2B
:102B8D004A70EDE4F97E1FFF7D1F1238EE785FE28B
:102B9D002401F218E23400F2C308E2943E18E294E4
:102BAD000140C179F8E4FE7FF8FD1238EEFAFB79A9
:102BBD00077EE07F077DE01238EE0BBB00010AEBCC
:102BCD0064EE4A70EAE4F97E1FFF7D1F1238EEF5C0
:032BDD00A9D2B0CA
:012BE00022D2
:101BFC0078147450F2E47816F218746AF278177448
:101C0C0002F2C2B01508150814122C887815E2FFE0
:101C1C00C3EB9FEA94005069E47818F27814E2FF61
:101C2C007818E2C39F500CE4FD7FF81238EEE20402
:101C3C00F280E9E47818F27814E2FF7818E2C39F96
:101C4C00500C7D1FE4FF1238EEE204F280E9E478D8
:101C5C0018F27816E2FF7814E22FFFE433FE7818BE
:101C6C00E2C39FEE6480F8748098500E7DE07F078D
:101C7C001238EE7818E204F280D80BBB00010A800F
:101C8C008BE4FAFB7815E2FFC3EB9FEA94005069F2
:101C9C00E47818F27814E2FF7818E2C39F500C7DB8
:101CAC00E07F071238EEE204F280E9E47818F2786B
:101CBC0014E2FF7818E2C39F500CE4FD7FF8123851
:101CCC00EEE204F280E9E47818F27816E2FF781478
:101CDC00E22FFFE433FE7818E2C39FEE6480F874C1
:101CEC008098500E7D1FE4FF1238EE7818E204F253
:101CFC0080D80BBB00010A808BE4FAFB7817E2FF5B
:101D0C007815E22FFFE433FEC3EB9FEA9E5069E4A3
:101D1C007818F27814E2FF7818E2C39F500C7D1FFC
:101D2C00E4FF1238EEE204F280E9E47818F2781459
:101D3C00E2FF7818E2C39F500C7DE07F071238EE6B
:101D4C00E204F280E9E47818F27816E2FF7814E203
:101D5C002FFFE433FE7818E2C39FEE6480F87480A2
:101D6C0098500EE4FD7FF81238EE7818E204F280F9
:0D1D7C00D80BBB00010A8084D2B0E4F5A9A9
:011D89002237
:1034B600AA06A907781974FFF208EAF208E9F215D4
:1034C600081508A808E4F208749FF27D7F122C9173
:1034D600E4781CF208F2781CE2FE08E2FFC3EE94E0
:1034E60040502DEF25E0FFEE33FE7819E2FB08E2AF
:1034F600FA08E2F98F828E83120FC3FDACF0ECFF5F
:103506001238EE781DE22401F218E23400F280C689
:013516002292
:0325F100781EEF62
:1025F400122C81C2B0D2B178271211C60000012C6E
:10260400781EE2FFE4FCFDFE7827E2FB08E2F9080D
:10261400E2FA08E2CBF8120FFBEF2401FFE43EFEDE
:10262400E43DFDE43CFC781F1211897827E2FC08A4
:10263400E2FD08E2FE08E2FF781FE2FB08E2F90887
:10264400E2FA08E2CBF8EB2FFFEA3EFEE93DFDE8B3
:102654003CFC782380787823E2FC08E2FD08E2FE63
:1026640008E2FF781FE2FB08E2F908E2FA08E2CB8D
:10267400F8C3121126505C781FE2FC08E2FD08E260
:10268400FE08E2FF123452E4FBFAC3EA9402502437
:1026940074812BF58274003AF583E0FF74822BF584
:1026A4008274003AF583E0FD1238EE74022BFBE4E9
:1026B4003AFA80D6781FE2FC08E2FD08E2FE08E25E
:1026C4002401FFE43EFEE43DFDE43CFC781F1211CE
:0526D400898083D2B0F3
:0126D90022DE
:10164400122C82E4782BF208F2E4FDFF1238EE78D3
:101654002CE22401F218E23400F2C308E2941018D8
:10166400E2940040E4E4782BF208F2E4782DF208E6
:10167400F2782BE2FE08E27803C333CE33CED8F9F6
:10168400FFE4FD1238EE782EE22401F218E2340071
:10169400F2C308E2940718E2940040D5782CE224BF
:1016A40001F218E23400F2C308E2942018E2940034
:1016B40040B90BBB00010AEB64504A7086E4FAFBA4
:1016C400E4782BF208F2E4FDFF1238EE782CE224E1
:1016D40001F218E23400F2C308E2941018E2940014
:1016E40040E4E4782BF208F2E4782DF208F2782C46
:1016F400E225E0FD18E233FCEDAE047803CEC3131B
:10170400CE13D8F9FFC007EDAE047805C333CE334A
:10171400CED8F9FDD0071238EE782EE22401F21863
:10172400E23400F2C308E2940718E2940040BF7860
:101734002CE22401F218E23400F2C308E2942018E7
:10174400E2940040A30BBB00010AEB64504A60031F
:101754000216C4E4FAFBE4782BF208F2E4FDFF126B
:1017640038EE782CE22401F218E23400F2C308E2E5
:10177400941018E2940040E4E4782BF208F2E47840
:101784002DF208F2782B08E2FDE4FF1238EE782EF1
:10179400E22401F218E23400F2C308E2940718E2EA
:1017A400940040E0782CE22401F218E23400F2C301
:1017B40008E2942018E2940040C40BBB00010AEB39
:1017C40064504A7091E4FAFBE4782BF208F2E4FDE9
:1017D400FF1238EE782CE22401F218E23400F2C34E
:1017E40008E2941018E2940040E4E4782BF208F242
:1017F400E4782DF208F2782BE2FC08E2FD25E0FF04
:10180400EC33FEEF7803CEC313CE13D8F9FFAE0545
:10181400EE33333354F84FFFEE25E0C43354E0FE87
:10182400782B08E24EFD1238EE782EE22401F218ED
:10183400E23400F2C308E2940718E2940040B77857
:101844002CE22401F218E23400F2C308E2942018D6
:10185400E29400409B0BBB00010AEB64504A600316
:051864000217CCD2B018
:01186900225C
:10229D00122C82C3EA94005029E47831F208F2E45A
:1022AD00FDFF1238EE7832E22401F218E23400F22A
:1022BD00C308E294F018E2940040E40BBB00010A5D
:1022CD0080D1E4FAFBE4782FF208F2E47831F208D9
:1022DD00F2EBAE027803C333CE33CED8F9FFE4FD73
:1022ED001238EE7832E22401F218E23400F2C3081B
:1022FD00E2943C18E2940040D8E47831F208F2EB15
:10230D0025E0FDEA33FCEDAE047803CEC313CE1306
:10231D00D8F9FFC007EDAE047805C333CE33CED860
:10232D00F9FDD0071238EE7832E22401F218E234CA
:10233D0000F2C308E2943C18E2940040C2E4783104
:10234D00F208F2AD03E4FF1238EE7832E22401F226
:10235D0018E23400F2C308E2943C18E2940040E322
:10236D00E47831F208F2EB25E0FFEA33FEEF780373
:10237D00CEC313CE13D8F91238D97832E22401F234
:10238D0018E23400F2C308E2943C18E2940040D6FF
:10239D007830E22401F218E23400F2C308E2940A24
:1023AD0018E2940050030222D80BBB00010AEB6423
:0723BD00204A60030222D256
:0123C40022F6
:102E4E00122C82C2B0D2B1C3EA94005029E4783574
:102E5E00F208F2E4FDFF1238EE7836E22401F218A1
:102E6E00E23400F2C308E294F018E2940040E40B5E
:102E7E00BB00010A80D1E4FAFBE47833F208F2E4F5
:102E8E007835F208F2EBAE027803C333CE33CED8E8
:102E9E00F9FFE4FD1238EE7836E22401F218E2343E
:102EAE0000F2C308E294F018E2940040D87834E2BD
:102EBE002401F218E23400F2C308E2940A18E294F4
:102ECE000040BC0BBB00010AEB64204A70ABD2B0D1
:012EDE0022D1
:102BE100122C82C2B0D2B1C3EA94005029E47839E0
:102BF100F208F2E4FDFF1238EE783AE22401F2180D
:102C0100E23400F2C308E294F018E2940040E40BCD
:102C1100BB00010A80D1E4FAFBE47837F208F2E460
:102C21007839F208F2EBAE027803CEC313CE13D893
:102C3100F9FFC007EBAE027805C333CE33CED8F926
:102C4100FDD0071238EE783AE22401F218E234009E
:102C5100F2C308E294F018E2940040C97838E22403
:102C610001F218E23400F2C308E2940518E294007C
:0F2C710040AD0BBB00010AEB64404A709CD2B02F
:012C80002231
:10308C00122C82C2B0D2B1C3EA94005029E4783D2C
:10309C00F208F2E4FDFF1238EE783EE22401F21859
:1030AC00E23400F2C308E294F018E2940040E40B1E
:1030BC00BB00010A80D1E4FAFBE4783BF208F2E4AD
:1030CC00783DF208F2AD03E4FF1238EE783EE224CC
:1030DC0001F218E23400F2C308E294F018E2940012
:1030EC0040E3783CE22401F218E23400F2C308E237
:1030FC00940A18E2940040C70BBB00010AEB642051
:05310C004A70B6D2B0CC
:01311100229B
:102EDF00122C82C2B0C3EA94005029E47841F20860
:102EEF00F2E4FDFF1238EE7842E22401F218E234E8
:102EFF0000F2C308E294F018E2940040E40BBB0028
:102F0F00010A80D1E4FAFBE4783FF208F2E4784159
:102F1F00F208F2EB25E0FFEA33FEEF7803CEC3139E
:102F2F00CE13D8F91238D97842E22401F218E234DC
:102F3F0000F2C308E294F018E2940040D67840E221
:102F4F002401F218E23400F2C308E2940A18E29462
:102F5F000040BA0BBB00010AEB64204A70A9D2B043
:012F6F00223F
:102D1D00122C82C2B0D2B1E4785EF208F2E4FBFA72
:102D2D00C3EA9400500DE4FDFF1238EE0BBB000119
:102D3D000A80EDE4FAFBE47860F208F2EBAE02787B
:102D4D0002C333CE33CED8F97803CEC313CE13D806
:102D5D00F9FFAE03EE25E0F933333354F84FFFEEB0
:102D6D0025E025E0FEC43354E049FD1238EE7861CC
:102D7D00E22401F218E23400F2C308E2940F18E2E3
:102D8D00940040B80BBB00010AEB64104A70A778A1
:102D9D005FE22401F218E23400F2C308E294401815
:0A2DAD00E294015003022D2AD2B077
:012DB70022F9
:10321500122C82C2B0E47843F208F2E4FBFAE4FD32
:10322500FF1238EE0BBB00010AEB64104A70EFE4A5
:10323500FAFBE47845F208F2EB25E0FFEA33FEEF0E
:103245007803CEC313CE13D8F91238D97846E224C1
:1032550001F218E23400F2C308E2940718E2940080
:1032650040D60BBB00010AEB64204A70C57844E2E6
:103275002401F218E23400F2C308E2944018E29403
:05328500014098D2B0E9
:01328A002221
:101A4200122C82E47847F208F2E4FD7FF81238EEB5
:101A52007848E22401F218E23400F2C308E294F07A
:101A620018E2940040E30BBB00010AEB64284A70C1
:101A7200D2E4FAFBE47847F208F27DE07F071238FD
:101A8200EE7848E22401F218E23400F2C308E2944C
:101A9200F018E2940040E30BBB00010AEB64284A11
:101AA20070D2E4FAFBE47847F208F27D1FE4FF12F9
:101AB20038EE7848E22401F218E23400F2C308E278
:101AC20094F018E2940040E30BBB00010AEB642897
:101AD2004A70D2E4FAFBE47847F208F27DE07FFF35
:101AE2001238EE7848E22401F218E23400F2C30818
:101AF200E294F018E2940040E30BBB00010AEB64AD
:101B0200284A70D2E4FAFBE47847F208F27D1F7F9C
:101B1200F81238EE7848E22401F218E23400F2C3F7
:101B220008E294F018E2940040E30BBB00010AEBD8
:101B320064284A70D2E4FAFBE47847F208F27DFFA7
:101B42007F071238EE7848E22401F218E23400F2FC
:101B5200C308E294F018E2940040E30BBB00010AD0
:101B6200EB64284A70D2E4FAFBE47847F208F27D8B
:101B7200FF7FFF1238EE7848E22401F218E23400C7
:101B8200F2C308E294F018E2940040E30BBB0001B8
:101B92000AEB64284A70D2E4FAFBE47847F208F2CE
:101BA200E4FDFF1238EE7848E22401F218E2340034
:101BB200F2C308E294F018E2940040E40BBB000187
:101BC2000AEB64284A70D3E4FAFBC3EA9400502972
:101BD200E47847F208F2E4FDFF1238EE7848E22496
:101BE20001F218E23400F2C308E294F018E2940021
:091BF20040E40BBB00010A80D1A4
:011BFB0022C7
:10351700EFC3942050047F5F8050EFC39420400C8A
:10352700EFD3942F5006EF2428FF803EEFC394304B
:10353700400CEFD39439500674D02FFF802CEFC383
:10354700943A400CEFD394405006EF241EFF801AA4
:10355700EFC39441400CEFD3947E5006EF24C9FF8C
:0B3567008008EFD3947E40027F5F22BB
:1027A700FD18E23400FC786BE2FA08E2FB08E2F578
:1027B7008308E2F5827877E583F208E582F2786F9D
:1027C700E2F58308E2F5827879E583F208E582F29B
:0827D7007872EFF2AF05AE04C9
:1027DF00EB240FFCE43A15081508A808F208CCF210
:1027EF00EF2407FDE43EFC122C9B7872E2FF7E0083
:1027FF00D3945FEE940040027F5FEFC4F8540FC88C
:10280F0068FFEEC454F048FE787C74FFF20874063B
:10281F00F208749AF2E22FF218E23EF2E4787BF2B9
:10282F00787CE2FB0808E2F92401F218E2FA34009E
:10283F00F2120F55FBE4FAEBA802088002C333D85B
:10284F00FC30E704787780027879E2FE08E2FF1225
:10285F003ACF0AEAB408E0787BE204F2E2C39410BC
:02286F0040BE69
:012871002244
:102DB8007867EBF208EAF208E9F208ECF208EDF2BB
:102DC8007867E2FB08E2FA08E2F9120F557003D3BC
:102DD8008001C340707867E2FB0808E2F92401F239
:102DE80018E2FA3400F2120F55FF123517786AE22A
:102DF800FC08E2FD08E2FA08E2FB08E2F58308E2D3
:102E0800F5827877E583F208E582F278701227C7B1
:102E1800D3786BE294E718E29400400BE4F208F2EE
:102E2800786DE224108005786BE22408F218E23409
:102E380000F2D3786DE2942F18E294014082E4F214
:062E480008F2022DC82271
:102929007867EEF208EFF2786BEAF208EBF2786971
:10293900ECF208EDF2D394CFEC9400400718E4F2DE
:102949000874CFF2786BE2FE08E2FFD3942FEE947D
:10295900014009EF24EFF2EE34FF18F27867E2C480
:10296900540FFF7869E2FC08E2FD081227AF786787
:10297900E2540FFF786AE224081227A77967E3C4B3
:10298900F854F0C809E3C4540F48540FFF786AE2B9
:1029990024101227A77868E2540FFF786AE22418F6
:1029A900FD18E23400FC786BE2FA08E2FB08E2F574
:1029B9008308E2F5827877E583F208E582F2786F99
:1029C900E2F58308E2F5827879E583F208E582F297
:0329D9000227D7FB
:103A5C007B027D087C00E4FF1214127859EEF20808
:063A6C00EFF2E4FEFF2270
:1036D000785EEAF208EBF2ED2401FAE43C150815F5
:1036E00008A808F208CAF2AB05AA04EF2401FDE419
:1036F0003EFC122C9B785EE2FC08E2FDECFF1238E7
:10370000EE18E2FC08E2FDECFF1238EE18E2FC08CD
:10371000E2FDECFF1238EE18E2FC08E2FDECFF02DD
:0237200038EE81
:103112007849EEF208EFF28B828A8308ECF208ED2E
:01312200F2BA
:10312300784FE2FF08E215081508A808CFF208EF68
:10313300F27849E2FE08E2FF122C9BAE83AF82785D
:1031430053EEF208EFF27850E22401FF18E2340064
:10315300FEC37854E29F18E29E50397849E2FE0894
:10316300E2FBAA06784CE22401FF18E23400FEC316
:10317300EB9FEA9E50117851E2FE08E2FF123ACF2C
:103183000BBB00010A80DD7854E22401F218E2341B
:0431930000F280B214
:013197002215
:072F70007855EEF208EFF2C4
:102F770008E4F208740FF2C37858E2943F18E29419
:102F8700015030E2FA08E2FB784FEAF208EBF278F8
:102F970055E2FF08E27851CFF208EFF27DEF7C00AF
:102FA700E4FFFE1231127858E22410F218E23400DE
:102FB700F280C47857E4F208740FF2C37858E294A9
:102FC700EF18E294005031E2FC08E2FDFFAE04780E
:102FD7004F7401F208743FF27855E2FB08E278512A
:102FE700CBF208EBF2E4FBFA1231127858E2241024
:082FF700F218E23400F280C37D
:012FFF0022AF
:083AD8005450205445535400E2
:10394F00C294C295E49002B4F0EF20E704C2B280B3
:10395F0002D2B2D295EF25E0FFC2959002B4E004F7
:05396F00F0E0B408E4E3
:013974002230
:103300009002B512119500000000C294D2B3E4906F
:1033100002B4F09002B4E0FFC3940C5049C295305F
:10332000B33AC3740B9FFF74017E00A807088005A1
:10333000C333CE33CED8F9FFEE3395E0FDFC9002D7
:10334000B5E0F8A3E0F9A3E0FAA3E04FFFEA4EFEF0
:10335000E94DFDE84CFC9002B512117DD29590022A
:10336000B4E004F080ADD2949002B5A3A3E0FEA334
:02337000E0FF7C
:013372002238
:0223C500AB0764
:1023C700E490029BF0A3F0A3F0D2B590029BE0C388
:1023D700940B502C20B529C294EB04FF12394F12ED
:1023E700330090029BE025E0249EF582E43402F559
:1023F70083EEF0A3EFF090029BE004F0D29480CB41
:1024070090029BE070030224DCE4A3F090029BE0BF
:10241700F9A3E0C39940030224C8E4A3F090029C07
:10242700E0FF90029BE0C39FFF90029DE0C39F40A7
:10243700030224BFE0FF25E024A0F582E43402F57F
:1024470083E0FCA3E0FDEF25E0249EF582E434025F
:10245700F583E0FEA3E0D39DEE9C405390029DE000
:1024670025E0249EF582E43402F583E0FCA3E0FD39
:10247700900299ECF0A3EDF0EF25E024A0F582E4BB
:102487003402F583E0FEA3E0FF90029DE0FB25E028
:10249700249EF582E43402F583EEF0A3EFF0EB25FA
:1024A700E024A0F582E43402F583ECF0A3EDF0908C
:1024B700029DE004F002242490029CE004F0022430
:1024C70013E9C31325E0249EF582E43402F583E083
:0824D700FEA3E0FF22E4FEFF7A
:0124DF0022DA
:10186A0090028112119500000000900285121195D4
:10187A0000000000900289121195000000009002F9
:10188A008D1211950000000090029112119500002E
:10189A00000090029512119500000000E4FFFE126C
:1018AA0000467BFF7A3A79D8E4786CF208F208F2BB
:1018BA0008F274FF08F208F2E4FDFC122DB8D2B562
:1018CA0020B5FD20B603021A1D7F327E001239B7F9
:1018DA0020B5F07FD01223C5E4FCFD9002891211D5
:1018EA007D900289E0FCA3E0FDA3E0FEA3E024BD15
:1018FA00FFEE34FFFEED34FFFDEC34FFFCE47BF039
:10190A00FAF9F8120FFBE47BA57A02F9F8121086AD
:10191A00E4120DA07BB87A1E7945783F120C9A1210
:10192A000DDE90028112117D7F901223C5E4FCFD29
:10193A0090028D12117D90028DE0FCA3E0FDA3E0E0
:10194A00FEA3E024A0FFEE34FFFEED34FFFDEC34ED
:10195A00FFFCE47B407A01F9F8120FFBE4FB7A03FF
:10196A00F9F8121086E4120DA07B337A3379737872
:10197A003F120C9A120DDE90028512117D7F0A7EAB
:10198A00001239B730B5030218DAE4FFFEFDFC9005
:10199A000281E0F8A3E0F9A3E0FAA3E0FBC3121185
:1019AA002650030218DAE47FF0FEFDFC900281E083
:1019BA00F8A3A3A3E012112640030218DAE4FFFEFB
:1019CA00FDFC900285E0F8A3E0F9A3E0FAA3E0FBAE
:1019DA00C312112650030218DAE47F407E01FDFC8F
:1019EA00900285E0F8A3A3A3E0121126400302188F
:1019FA00DA900281A3A3E0FEA3E0FFC006A3A3A39B
:101A0A00E0FEA3E0FDAC06D0067B007AF81236D0E1
:101A1A000218DAE4FFFE1200467BFF7A3A79D8E42C
:101A2A00786CF208F208F208F274FF08F208F2E49D
:081A3A00FDFC122DB80218CDCD
:100003001201100100000040C410000000000102B2
:1000130003010902200001010080FA090400000223
:10002300FF000000070502024000000705820240AE
:0A00330000000403090401000000AE
:10216600900281EEF0A3EFF0900285EBF0A3EAF087
:10217600A3E9F0E4900791F0900791E0FF90000347
:1021860093FE74402FF582E43407F583EEF0900752
:1021960091E004F0E0B412E0E4900791F09007912A
:1021A600E0FF90001593FE74522FF582E43407F594
:1021B60083EEF0900791E004F0E0B420E090028115
:1021C600E0FEA3E0900748F0EEA3F0A3EDF0ECA349
:1021D600F090077274FFF0A37400F0A37435F090CA
:1021E6000285E0F9A3E0FAA3E0900775C9F0A3EA37
:1021F600F0A3E9F0900288E0F9A3E0FAA3E09007E3
:1022060078C9F0A3EAF0A3E9F090028BE0F9A3E025
:10221600FAA3E090077BC9F0A3EAF0A3E9F09002E5
:102226008EE0FFC394FA500590075AEFF090028FA4
:10223600E0900759F0900290E0FEA3E090074CF082
:10224600EEA3F0E59620E7FB759601759708E596EF
:1022560020E7FB75960775970FE59620E7FB7596C1
:102266000975970EE59620E7FB75960B759707752A
:10227600D7E0123AB8E4900793F0900792F09007EF
:1022860094F0900786F043E602D2AFE59620E7FB8E
:072296007596017597012206
:103901009007867402F0E59620E7FB75960175979E
:1039110001E490078EF0A37403F0A3F0E490079301
:07392100F090079204F02270
:1011DF00E59620E7FB75960EE4F597E59620E7FB7D
:1011EF00759691E59620E7FB90079EE597F0E0FF57
:1011FF0030E210E59620E7FB759611E4F59790071E
:10120F008EF022EF30E410E59620E7FB759611750E
:10121F009780E490078EF090078EE0600302131022
:10122F0090079EE020E0030213107596204396C0AE
:10123F00E4900791F0E59620E7FB900791E0247E7C
:10124F00F582E43407F583E597F0900791E004F019
:10125F00E0B407E1E59620E7FBE4F596900791E00F
:10126F00247EF582E43407F583E597F0900781E05B
:10127F00FE900780E07C002400FFEC3E900795F085
:10128F00A3EFF0900785E0FE900784E02400FFECC9
:10129F003E900797F0A3EFF090077FE0B40C00505B
:1012AF005D9012B7F82828730212DB0212E00212C7
:1012BF00E50212EA02130D0212EF0212F402130DED
:1012CF000212F90212FE0213030213081233738083
:1012DF00301235CC802B1226DA802612362480214C
:1012EF00123997801C1229DC80171237BF80121217
:1012FF003572800D1239288008123A728003123924
:10130F00F590078EE06401600302141190079E743C
:10131F0002F0C390078DE0944090078CE09400405A
:10132F0061E59620E7FB759620E4900791F0900712
:10133F0091E0FFC394405022900787E0FBA3E0FAAF
:10134F00A3E0F98F82758300120F6EF597E5962053
:10135F00E7FB900791E004F080D4900788E475F0E4
:10136F0040120FAD90078DE024C0F090078CE03451
:10137F00FFF090078BE02440F090078AE03400F0F4
:10138F008052E59620E7FB759620E4900791F09048
:10139F000791E0FFD390078DE09F90078CE09400BA
:1013AF004026900787E0FBA3E0FAA3E0F9900791AE
:1013BF00E0F582758300120F6EF597E59620E7FB37
:1013CF00900791E004F080C790079EE04408F0E496
:1013DF0090078EF0900797E0FEA3E0FF90078AE05A
:1013EF00B50611A3E0B5070C90079EE04408F0E4A2
:1013FF0090078EF0E59620E7FB75961190079EE01B
:03140F00F597222C
:1039F500E59620E7FB75960EE4F597E59620E7FB3F
:0D3A050075961175972090078E7404F022BD
:1033730090077EE0247F6007146006240270488073
:103383002D90078FE0B40309900782E0B402028016
:103393000E900790E0B40316900782E0B4820F907A
:1033A300078774FFF0A37400F0A37439800D9007AE
:1033B3008774FFF0A37400F0A3743BF090078CE4D0
:1033C300F0A37402F080031239F590078EE06404D1
:1033D3006010123A7290078E7401F0E490078AF03D
:0333E300A3F02232
:1035CC00900780E07041900782E0B4021DE59620E0
:1035DC00E7FB75960E759702E59620E7FB7596143A
:1035EC00759780E490078FF08020E59620E7FB75B7
:1035FC00960E759702E59620E7FB75961175974028
:10360C00E4900790F080031239F5E59620E7FB75FE
:08361C00960EE4F597023A72E4
:1026DA00900796E020E003022770900794E030E02C
:1026EA000854FEF04402F08007900794E054FDF08D
:1026FA00E59620E7FB75960E759702E59620E7FBAF
:10270A00759614759710E59620E7FB7596117597DF
:10271A0008E59620E7FB759694E59620E7FB900777
:10272A009DE597F0E020E4E9E59620E7FB7596142D
:10273A00759710E59620E7FB759691E59620E7FBDD
:10274A0090079DE597F0E020E3E9E59620E7FB7521
:10275A0096117597089007927408F0900794E0FF15
:10276A0030E1034401F0900795E0FCA3E0FD30E17D
:10277A000D9007867406F0900792E04410F0ED3051
:10278A00E20D9007867404F0900792E04420F0E589
:0D279A009620E7FB75960EE4F597023A7263
:10362400900780E07040900782E0B4021BE596208A
:10363400E7FB75960E759702E59620E7FB759614E1
:1036440075972090078F8019E59620E7FB75960EF5
:10365400759702E59620E7FB75961175971090070C
:10366400907403F080031239F5E59620E7FB759614
:073674000EE4F597023A7223
:10399700E59620E7FBE4F596900780E0FFF597EFC3
:1039A70090078660057403F080037402F0023A7290
:1029DC00900781E024FE601B14603B240270699018
:1029EC0007877401F0A37407F0A37440F0900740BC
:1029FC00E0804A9007877401F0A37407F0A3745227
:102A0C00F0900755E0FE900754E07C002400FFECAA
:102A1C003E90078C802C900780E075F003A4247204
:102A2C00F582E43407F583E0FBA3E0FAA3E0F99028
:102A3C000787EBF0A3EAF0A3E9F0120F55FF90071C
:102A4C008CE4F0A3EFF080031239F590078CE0FED4
:102A5C00A3E0FF900797E0FCA3E0FDC39FEC9E5022
:102A6C000890078CECF0A3EDF090078EE064046006
:102A7C0010123A7290078E7401F0E490078AF0A35A
:022A8C00F02236
:1037BF00900786E0FFB40414A374FFF0A37400F025
:1037CF00A37439F090078CE4F0A304F0EFB4031660
:1037DF0090078774FFF0A37400F0A3743BF0900779
:1037EF008CE4F0A304F0123A7290078E7401F0E4A7
:0737FF0090078AF0A3F022FD
:10357200900780E0D394004042900792E04440F0EC
:103582009007867404F0E490078FF0A3F0E596208C
:10359200E7FB75960E759702E59620E7FB75961286
:1035A200759784E59620E7FB759615759780E596E5
:1035B20020E7FB75960EE4F597800C90078674035E
:0A35C200F090078FF0A3F0023A72B8
:1039280090078774FFF0A37400F0A3743BF090072E
:103938008CE4F0A304F0123A7290078E7401F0E45C
:0739480090078AF0A3F022B2
:103A720090078EE06404600BE59620E7FB759611D3
:043A820075974022D2
:03004300021D8A11
:101D8A00C0E0C0F0C083C082C0D075D000C000C01F
:101D9A0001C002C003C004C005C006C0079007A165
:101DAA00E596F0E59620E7FB75968EE59620E7FB2B
:101DBA009007A2E597F0E59620E7FB759686E596EB
:101DCA0020E7FB900799E597F0E030E30BE59620D2
:101DDA00E7FB75960B759707900799E030E20312B7
:101DEA003901900799E030E014900786E0FF640417
:101DFA006004EFB40607900792E04480F0E596206D
:101E0A00E7FB759682E59620E7FB900799E597F040
:101E1A00E030E0031211DF900799E030E22AE596FC
:101E2A0020E7FB75960E759702E59620E7FB7596F7
:101E3A0091E59620E7FB90079AE597F0E054037046
:101E4A0007900792E04402F0E59620E7FB75968436
:101E5A00E59620E7FB900799E597F0E030E229E55F
:101E6A009620E7FB75960E759702E59620E7FB75B7
:101E7A009694E59620E7FB90079AE597F0E030E024
:101E8A0007900792E04404F0E59620E7FB75960E6A
:101E9A009007A2E0F597E59620E7FB9007A1E59663
:101EAA00F0E59620E7FB900794E030E0099007926E
:101EBA00E06003123975D007D006D005D004D003EC
:101ECA00D002D001D000D0D0D082D083D0F0D0E0E0
:011EDA0032D5
:10384900E5B964E0602E53A90FC0A943B280E5A988
:103859005407D394014003E4F5A9E4F5B943B980C9
:10386900E4D5E0FD43B9C0E5B930E5FBD0E0B402E9
:083879000343A90253A90F2229
:1038AE0053D7BF43C910E5A95402900791F043B214
:1038BE008075A910E4F5B943B2200012384990077B
:0B38CE0091E042A953C9EF43D740220C
:0E3AAA00900792E0FFE4F022900792E0FF22E6
:102A8E00900786E0B40606EDD3944040037F002203
:102A9E00E59620E7FB75960E759702E59620E7FB07
:102AAE00759694E59620E7FB90079CE597F0E0205D
:102ABE00E003022B3AE59620E7FB759696E5962005
:102ACE00E7FB900793E597F0E0FFEDC39F5006AE4E
:102ADE0005AF068000900793EFF053E6FDE59620D4
:102AEE00E7FB7596E2900793E06025FEEB600630FB
:102AFE00E70F7F0022E59620E7FBA79709DEF68019
:102B0E000F89828A83E59620E7FBE597F0A3DEF531
:102B1E00E59620E7FBE4F596E59620E7FB7596141F
:0F2B2E00E4F59743E602900793E0FF227F002231
:1024E000900786E0B4060DED4C6009D3ED9400EC46
:1024F00094104004E4FEFF2253E6FDE490079FF0B1
:10250000A3F090079BF089828A83C083C0829007E2
:102510009BE030E0030225E1E59620E7FB75960E8F
:10252000759702E59620E7FB759691E59620E7FB07
:1025300090079BE597F0E030E020E59620E7FB75FB
:10254000960EE4F597E59620E7FB759691E59620C3
:10255000E7FB90079BE597F080B4C3ED9440EC94C3
:10256000009007A0E0401B2440F090079FE034005B
:10257000F074C02DFD74FF3CFCE490079BF07840A4
:1025800080132DF090079FE03CF090079B7401F0C2
:10259000A805E4FCFDE59620E7FB759622D082D0E5
:1025A00083E8602BEB601130E71AE59620E7FBE447
:1025B00093F597A3D8F48017E59620E7FB87970952
:1025C000D8F6800BE59620E7FBE0F597A3D8F5C099
:1025D00083C082E59620E7FB759611759701022569
:1025E0000ED082D08343E60290079FE0FEA3E0FF77
:0125F00022C8
:103A2D00900794E04401F0900792E0600BE596203A
:093A3D00E7FB75960B75970F224B
:0C3AB800E59620E7FB75960F75978922B4
:10397500D007D007D007D006D005D004D003D00299
:10398500D001D000D0D0D082D083D0F0D0E00200DA
:023995008B2283
:100C9A00EC4D6011E8497017ED33EC3304600DE454
:100CAA00FCFFFEFD22E933E8330470F8020E4A1213
:100CBA000E1558046009E4CC248150062850090214
:100CCA000E54284003020E51C0E0EB4A7044B9802A
:100CDA0006D0E0FB020E40EF4E701CBD8008EBFF11
:100CEA00EAFEE9FD80EBE98DF0A4FEE5F0020D8352
:100CFA00E9CDF9EAFEEBFFEF89F0A4FCE5F0CE8935
:100D0A00F0A42EFFE435F0CD89F0A42DFEE435F0F1
:100D1A008067EF4E7005BD80D780C3EF8BF0A4AC1F
:100D2A00F0EE8BF0A42CFCE435F0F8EF8AF0A42C5A
:100D3A00E5F038FCE433CB8DF0A42CFCE5F03BF86D
:100D4A00EE8AF0A42CFCE5F038F8E433CF89F0A45D
:100D5A002CFCE5F038CF3400CE89F0A42FFFE5F063
:100D6A003EFEE433C98DF0A42EFEE5F039CD8AF0BB
:100D7A00A42FFFE5F03EFEE43DFD33D0E0FB500733
:100D8A000BBB000F020E54EC2CFCEF33FFEE33FECC
:060D9A00ED33FD020E2CFA
:100DA00075F020800E75F010800575F0087D007ECE
:100DB000007F003392D530D503121118EC33401068
:100DC000EF33FFEE33FEED33FDEC33FCD5F0ED22D7
:0E0DD000E5F0247EA2D513CC92E7CDCEFF2213
:100DDE00EDD2E7CD33EC3392D524814006E4FFFE0D
:100DEE00FDFC22FCE4CFCECDCC24E0501174FF806C
:100DFE00EDC3CC13CCCD13CDCE13CECF13CF047009
:070E0E00F030D5DE021118DF
:100E1500E9D2E7C933E833F892D5EDD2E7CD33EC23
:070E250033FC5002B2D5229C
:100E2C00EC30E7100FBF000C0EBE00080DBD000427
:100E3C000BEB6014A2D5EB13FCED92E7FD2274FFD3
:100E4C00FCFDFEFF22E480F8A2D574FF13FC7D802C
:030E5C00E480EF40
:03000000023000CB
:0C300000787FE4F6D8FD758108023047A7
:100E5F00E709F608DFFA8046E709F208DFFA803E75
:100E6F0088828C83E709F0A3DFFA8032E309F60862
:100E7F00DFFA8078E309F208DFFA807088828C83CA
:100E8F00E309F0A3DFFA806489828A83E0A3F6087E
:100E9F00DFFA805889828A83E0A3F208DFFA804C58
:100EAF0080D280FA80C680D4806980F2803380102F
:100EBF0080A680EA809A80A880DA80E280CA803398
:100ECF0089828A83ECFAE493A3C8C582C8CCC58310
:100EDF00CCF0A3C8C582C8CCC583CCDFE9DEE780E0
:100EEF000D89828A83E493A3F608DFF9ECFAA9F05F
:100EFF00EDFB2289828A83ECFAE0A3C8C582C8CCB5
:100F0F00C583CCF0A3C8C582C8CCC583CCDFEADECD
:100F1F00E880DB89828A83E493A3F208DFF980CC2F
:100F2F0088F0EF60010E4E60C388F0ED2402B40428
:100F3F000050B9F582EB2402B4040050AF232345CF
:060F4F008223900EAF7337
:100F5500BB010689828A83E0225002E722BBFE029A
:090F6500E32289828A83E49322CD
:100F6E00BB010CE58229F582E5833AF583E0225038
:100F7E0006E92582F8E622BBFE06E92582F8E22282
:0D0F8E00E58229F582E5833AF583E493229C
:100F9B00EF8DF0A4A8F0CF8CF0A428CE8DF0A42E6A
:020FAB00FE2224
:100FAD00C5F0F8A3E028F0C5F0F8E58215827002CF
:060FBD001583E038F0226C
:100FC300BB0110E58229F582E5833AF583E0F5F06C
:100FD300A3E0225009E92582F886F008E622BBFE49
:100FE3000AE92582F8E2F5F008E222E5832AF5838F
:080FF300E993F5F0A3E9932254
:100FFB00E88FF0A4CC8BF0A42CFCE98EF0A42CFC95
:10100B008AF0EDA42CFCEA8EF0A4CDA8F08BF0A412
:10101B002DCC3825F0FDE98FF0A42CCD35F0FCEB71
:10102B008EF0A4FEA9F0EB8FF0A4CFC5F02ECD3936
:0F103B00FEE43CFCEAA42DCE35F0FDE43CFC22A3
:10104A0075F008758200EF2FFFEE33FECD33CDCC5D
:10105A0033CCC58233C5829BED9AEC99E5829840E0
:10106A000CF582EE9BFEED9AFDEC99FC0FD5F0D6BD
:10107A00E4CEFBE4CDFAE4CCF9A88222B800C1B9E7
:10108A000059BA002DEC8BF084CFCECDFCE5F0CB25
:10109A00F97818EF2FFFEE33FEED33FDEC33FCEB5E
:1010AA0033FB10D703994004EB99FB0FD8E5E4F919
:1010BA00FA227818EF2FFFEE33FEED33FDEC33FC06
:1010CA00C933C910D7059BE99A4007EC9BFCE99AFA
:1010DA00F90FD8E0E4C9FAE4CCFB2275F010EF2F3F
:1010EA00FFEE33FEED33FDCC33CCC833C810D7073F
:1010FA009BEC9AE899400AED9BFDEC9AFCE899F87A
:0E110A000FD5F0DAE4CDFBE4CCFAE4C8F9220C
:0E111800C3E49FFFE49EFEE49DFDE49CFC22E8
:10112600EB9FF5F0EA9E42F0E99D42F0E89C45F01F
:011136002296
:10113700E8600FECC313FCED13FDEE13FEEF13FF96
:03114700D8F122BA
:10114A00E8600FEFC333FFEE33FEED33FDEC33FC03
:03115A00D8F122A7
:10115D007401FF3395E0FEFDFC080808E2CF2FF285
:10116D0018E2CE3EF218E2CD3DF218E2CC3CF2226E
:0C117D00ECF0A3EDF0A3EEF0A3EFF022E5
:0C118900ECF208EDF208EEF208EFF222A2
:10119500A8828583F0D083D0821211AC1211AC12D3
:1011A50011AC1211ACE473E493A3C583C5F0C583F8
:1011B500C8C582C8F0A3C583C5F0C583C8C582C8A4
:0111C5002207
:1011C600D083D082E493F208740193F208740293F8
:0911D600F208740393F27404732F
:10300C00023772E493A3F8E493A34003F68001F231
:10301C0008DFF48029E493A3F85407240CC8C333C5
:10302C00C4540F4420C8834004F456800146F6DF94
:10303C00E4800B0102040810204080903881E47E6B
:10304C00019360BCA3FF543F30E509541FFEE49389
:10305C00A360010ECF54C025E060A840B8E493A350
:10306C00FAE493A3F8E493A3C8C582C8CAC583CA7B
:10307C00F0A3C8C582C8CAC583CADFE9DEE780BE33
:0138AD00001A
:00000001FF
