:1037CC0055534220444542554700555342205245DB
:1037DC0041440010C4EA611A03530069006C00698B
:1037EC000063006F006E0020004C006100620073EB
:1037FC0000100355005300420020004100500049C6
:10380C00000A0343003500310046000F800100011F
:1039BB00810000810700810C00810E00810F0081C6
:1039CB000D008104008205000084080000000181C5
:0839DB0001AA8102558103FFDE
:1000030012349030B636122BD9123725123B5E7458
:10001300FFFFFE120046123725123B5E122DC1125E
:100023003725123B5E121DE2123725123B5EE4FFB9
:0D003300FE12004612372512186C80C722FD
:103AC900E4FDFCC3ED9FEC9E5014E4FBFA0BBB0034
:0E3AD900010AEBF44A70F60DBD00010C80E509
:013AE70022BC
:043725007F017E00A2
:073729007858EEF208EFF200
:10373000E408F208F230B721E4FFFED37859E29FA3
:1037400018E29E401EE4FDFC0DBD00010CEDF44CA2
:1037500070F60FBF00010E80E2123B5E7F147E0008
:10376000123AC9785BE22401F218E23400F2C3088D
:09377000E2946418E2940040BCEC
:01377900222D
:103B5E0030B60512008E80F87FF47E01123AC9301D
:033B6E00B6FD227F
:10008E0078607C007DFE7BFF7A38791B7E007F01D5
:10009E00120F2F7807E2700302026E785C7401F281
:1000AE00785CE2FFC39410507BEF25E025E024D26C
:1000BE00F582E43402F583E07028E2FD25E025E0C8
:1000CE0024D3F582E43402F583E0FEED25E025E04D
:1000DE0024D4F582E43402F583E0FDEDFF12398C71
:1000EE00803A785CE225E025E024D2F582E4340201
:1000FE00F583E0B40126E2FD25E025E024D3F58268
:10010E00E43402F583E0FEED25E025E024D4F5820B
:10011E00E43402F583E0FDEDFF12395D785CE20414
:10012E00F20200AE0000000000000000000000001F
:10013E0000000000000000007BFF7A3779CCE478E5
:10014E0066F208F208F208F274FF08F208F2E4FD13
:10015E00FC122E5C9002D5E020E003020253785C84
:10016E007401F2785CE2FFC394104003020253EF75
:10017E0025E025E024D2F582E43402F583E07055C3
:10018E00E2FD25E025E024D3F582E43402F583E098
:10019E00FEED25E025E024D4F582E43402F583E07B
:1001AE00FDEDFFE2FB25E025E024D5F582E43402E7
:1001BE00F583E075F024A4FDACF0EB75F011A4FB13
:1001CE00AAF078677407F20874E0F2E408F208F215
:1001DE001229C58068785CE2FB25E025E024D2F583
:1001EE0082E43402F583E064017052E2FD25E025DD
:1001FE00E024D3F582E43402F583E0FEED25E0251C
:10020E00E024D4F582E43402F583E0FDEDFFEB2526
:10021E00E025E024D5F582E43402F583E075F02480
:10022E00A4FDACF0EB75F011A4FBAAF07867E4F234
:10023E0008741FF274FF08F208F21229C5785CE206
:10024E0004F2020171000000000000000000000036
:10025E00000000000000000000E47807F20200A198
:10026E00780DE2700302033AE4785CF2785CE2C344
:10027E0094404003020327C2A0D2B1E2FE24D2F57D
:10028E0082E43402F583E0FF74D32EF582E4340267
:10029E00F583E0FD1238BBD2A0785CE2FF24D2F5E4
:1002AE0082E43402F583E0FE780508E2FD2401F2D3
:1002BE0018E2FC3400F2747A2DF58274003CF5835A
:1002CE00EEF074D32FF582E43402F583E0FF08E2FA
:1002DE00FD2401F218E2FC3400F2747A2DF58274DA
:1002EE00003CF583EFF008E2B4002518E2B40220DA
:1002FE00780812115D1232427804E290007AF07F93
:10030E00007E007D007C00123242E47805F208F295
:10031E00785CE22402F202027AE4780DF27BFE7A35
:10032E000079607D01FC12257C02026E7800E2707D
:10033E00030204479002D5E070030203FD785C745B
:10034E0004F2785CE2C394244003020434C2A0D2C7
:10035E00B1E2FE24D2F582E43402F583E0FF74D3D9
:10036E002EF582E43402F583E0FD1238BBD2A0787C
:10037E005CE2FF24D2F582E43402F583E0FE7805D8
:10038E0008E2FD2401F218E2FC3400F2747A2DF535
:10039E008274003CF583EEF074D32FF582E43402C0
:1003AE00F583E0FF08E2FD2401F218E2FC3400F2CE
:1003BE00747A2DF58274003CF583EFF008E2B400F8
:1003CE002518E2B40220780812115D123242780428
:1003DE00E290007AF07F007E007D007C00123242B7
:1003EE00E47805F208F2785CE22402F20203507817
:1003FE005C7404F2785CE2C39424502AC2A0D2B199
:10040E00E2FE24D2F582E43402F583E0FF74D32EAB
:10041E00F582E43402F583E0FD1238BBD2A0785C9D
:10042E00E22402F280CEE47800F27BFE7A0079605C
:10043E007D01FC12257C02033A780FE27003020460
:10044E00FE785C7404F2785CE2FFC39424400302ED
:10045E0004EB74D22FF582E43402F583E07020E2CF
:10046E00FD24D3F582E43402F583E0FE74D42DF539
:10047E0082E43402F583E0FDEDFF12398C8055786D
:10048E005CE224D2F582E43402F583E0B40120E28A
:10049E00FD24D3F582E43402F583E0FE74D42DF509
:1004AE0082E43402F583E0FDEDFF12395D8025789C
:1004BE005CE224D2F582E43402F583E06410701419
:1004CE00000000000000000000000000000000001E
:1004DE0000000000785CE22404F2020454E4780F79
:1004EE00F27BFE7A0079607D01FC12257C020447C6
:1004FE00780CE27003020653E4785CF2785CE2FF5B
:10050E00C394185011747A2FF582E43402F583E403
:10051E00F0E204F280E69002D9E025E0785FF290F6
:10052E0002D7E0FEA3E0FDEE785DF2ED08F2900258
:10053E00D6E06401703C18E2FE08E2FF12398CE44A
:10054E00785CF2785FE2FF785CE2C39F5024123B46
:10055E0034785CE2FD247AF582E43402F583E4F02B
:10056E00747B2DF582E43402F583EFF0E22402F27F
:10057E0080D1E4780CF27B017A02797A785FE2FD21
:10058E007C0012257C7F647E00123AC97BFF7A378D
:10059E0079D6E47866F208F208F208F274FF08F2EF
:1005AE0008F2E4FDFC122E5C9002D5E020E003027E
:1005BE0004FE9002DAE075F024A4FDACF0785DE262
:1005CE00FE08E2FF78677407F20874E0F2E408F2BE
:1005DE0008F27B11FA1229C5E4785CF2785FE2FF2B
:1005EE00785CE2F9C39F40030204FE9002DAE075E4
:1005FE00F024A4FDACF0C004C005E9C3132402FF2F
:10060E00E433FE7C007D11120F9BAA06AB07747AB1
:10061E0029F582E43402F583E0FE747B29F582E449
:10062E003402F583E0FDEDFF7867E4F208741FF203
:10063E0074FF08F208F2D005D0041229C5785CE2E6
:10064E002402F28097780EE26041E4785CF2785CE6
:10065E00E2FFC39440501174922FF582E43402F5F8
:10066E0083E4F0E204F280E69002927401F0A37447
:10067E0040F0E4A3F0A374F0F0E4780EF27B017A7C
:0B068E000279927D40FC12257C80BAAE
:01069900223E
:1038630053D9BF75B283E4F5B943B980FF0FEFB401
:10387300FFFB43B9C0E5B930E5FBE4F5A943EF022B
:1038830075F1FF75A4FF75A5FF75F2FF75A6FF75AA
:10389300AEFF75F4FF43A717C286C28743E1024315
:0238A300E24001
:0138A5002200
:103490001238631239219037DFE493FE740193FFF1
:1034A0009037E1E493FC740193FD90028174FFF086
:1034B000A37437F0A374FDF0A374FFF0A37438F085
:1034C000A3740DF0903817E493900287F0903818A9
:1034D000E493900288F0903819E493FB7401939080
:1034E0000289CBF0A3EBF07BFF7A3779E31222005D
:0C34F000123B0575A17075F80F021C4519
:030040000239E89A
:03008B000220C38D
:1020C300C0E0C0F0C083C082C0D075D000C000C0E3
:0D20D30001C002C003C004C005C006C00764
:1020E000123B827856EFF220E20302218A7B017ACA
:1020F0000279D27D40122B2A7801E2FF9002D2E0D1
:10210000FEB5071408E2FDA3E0B5050C08E2FDA347
:10211000E0B505047807806F7803E2FDB506131873
:10212000E2FE9002D3E0B50609A3E0B50704780CFF
:1021300080557802E2FF9002D2E0B5071118E2FE66
:10214000A3E0B50609A3E0B50504780E803978014F
:10215000E2FE9002D2E0FDB506127803E2FCA3E0B5
:10216000B50409A3E0B507047800801B7803E2B545
:1021700005139002D3E0B5060C18E2FFA3E0B50703
:1021800004780F8002780D7401F27856E230E7038C
:102190001200407856E230E6031238637856E23097
:1021A000E41C15081508A8087401F208743FF27AB7
:1021B000007B007C007DEF7E007F00122D3F785673
:1021C000E230E5217804E204F215081508A8087445
:1021D00001F208743FF27A007B007C007DEF7E0004
:0521E0007F00122D3FFD
:1021E500D007D006D005D004D003D002D001D0004E
:0B21F500D0D0D082D083D0F0D0E032F8
:0C3B1E007FFF123B2A7FFF123B2A7FFF33
:093B2A008FA330FFFDC2FFAFA321
:013B3300226F
:0A3B9C0075A3FF30FFFDC2FFAFA3C9
:013BA60022FC
:02333500AE07E1
:10333700E4FB123B1E123B1EC2FAEE4440FF123B57
:103347002A7866E2FC08E2FD08E2FE08E2FF781848
:10335700121137123B2A7866E2FC08E2FD08E2FE0A
:1033670008E2FF7810121137123B2A7866E2FC0850
:10337700E2FD08E2FE08E2FF7808121137123B2A45
:103387007866080808E2FF123B2A7F95123B2A7FDE
:10339700FF123B2ABFFF09AE030BEED3946440EF45
:0233A700D2FA58
:0133A9002201
:10290E00E4FEFA75A90375A23BE4FD7FFF123B2A94
:10291E000DEDB464F678661211C600000000E4FFF7
:10292E00123335AE070AEAD3940A5004EEB401D935
:10293E00E4FA78661211C6000000007F37123335B4
:10294E00AE070AEAD3946440037F0122EEB401E29B
:10295E00E4FA78661211C6000000007F29123335A2
:10296E00AE070AEAD3946440037F0122EE70C3EEF1
:10297E00601FE4FA78661211C6000000007F011293
:10298E003335AE070AEAD3946440037F0122EE701A
:10299E00E378661211C6000000007F3B123335AE9D
:1029AE000778661211C6000002007F1012333575CB
:0629BE00A201E4F5A9FFEF
:0129C40022F0
:0534FC00781012118997
:10350100E4FA75A9037810E2FC08E2FD08E2FE087E
:10351100E2FF780912114A78661211897F1112337C
:10352100350AEAD3940A40037F0122EF70D7C2FA29
:10353100123B9CBFFEFAE4FDFC123B9C747A2DF514
:103541008274003CF583EFF00DBD00010CE4B5057C
:0E355100E8ECB402E4123B23D2FAE4F5A9FF41
:01355F002249
:05324200786112118902
:10324700E4FA75A9037861E2FC08E2FD08E2FE08EA
:10325700E2FF780912114A78661211897F18123332
:1032670035AE070AEAD3940A40037F0122EE70D5F0
:10327700C2FA7FFF123B2A7FFE123B2AFDFC747ABB
:103287002DF58274003CF583E0FF123B2A0DBD004B
:10329700010CE4B505E8ECB402E4123B1EAE07EE00
:1032A700541F64056003D2FA227FFF123B2AEF60A6
:0732B700F8D2FAE4F5A9FFCB
:0132BE0022ED
:103B7100E4F912290EEF600809E9D3940340F32216
:013B81002221
:10069A00000000182442424242424242241800000A
:1006AA00000000107010101010101010107C0000C4
:1006BA000000003C4242420404081020427E00002E
:1006CA000000003C4242041804020242443800007E
:1006DA00000000040C14242444447E04041E000078
:1006EA000000007E40404058640202424438000044
:1006FA000000001C24404058644242422418000072
:10070A000000007E44440808101010101010000069
:10071A000000003C4242422418244242423C00006B
:10072A000000001824424242261A0202243800001D
:10073A000000001010182828243C444242E7000018
:10074A00000000F8444444784442424244F800001D
:10075A000000003E4242808080808042443800008F
:10076A00000000F8444242424242424244F8000039
:10077A00000000FC424848784848404242FC0000D9
:10078A00000000FC424848784848404040E00000E9
:10079A000000003C44448080808E84444438000039
:1007AA00000000E7424242427E42424242E70000E3
:1007BA000000007C1010101010101010107C0000A7
:1007CA000000003E0808080808080808080888F019
:1007DA00000000EE444850705048484444EE00007F
:1007EA00000000E0404040404040404042FE0000DF
:1007FA00000000EE6C6C6C6C5454545454D60000D7
:10080A00000000C7626252524A4A4A4646E2000063
:10081A000000003844828282828282824438000048
:10082A00000000FC424242427C40404040E000005E
:10083A0000000038448282828282B2CA4C380600A2
:10084A00000000FC4242427C4848444442E3000023
:10085A000000003E4242402018040242427C00004E
:10086A00000000FE92101010101010101038000036
:10087A00000000E74242424242424242423C0000F9
:10088A00000000E7424244242428281810100000DF
:10089A00000000D692929292AAAA6C4444440000A4
:1008AA00000000E7422424181818242442E7000014
:1008BA00000000EE444428281010101010380000E0
:1008CA000000007E840408081020204242FC000038
:1008DA00001E1010101010101010101010101E0012
:1008EA0000004040202010101008080404040202EE
:1008FA00007808080808080808080808080878009E
:10090A00001C22000000000000000000000000009F
:10091A00000000000000000000000000000000FFCE
:10092A00006010000000000000000000000000004D
:10093A00000000000000003C421E2242423F00002C
:10094A00000000C0404040586442424264580000DF
:10095A00000000000000001C22404040221C000051
:10096A00000000060202021E22424242261B00002A
:10097A00000000000000003C427E4040423C000073
:10098A000000000F1110107E10101010107C0000D3
:10099A00000000000000003E444438403C42423C13
:1009AA00000000C04040405C6242424242E7000010
:1009BA00000000303000007010101010107C000091
:1009CA000000000C0C00001C040404040404447815
:1009DA00000000C04040404E4850684844EE0000C5
:1009EA00000000701010101010101010107C000081
:1009FA0000000000000000FE4949494949ED000095
:100A0A0000000000000000DC6242424242E70000AF
:100A1A00000000000000003C42424242423C00000A
:100A2A0000000000000000D864424242447840E0DE
:100A3A00000000000000001E22424242221E02075D
:100A4A0000000000000000EE3220202020F8000004
:100A5A00000000000000003E42403C02427C0000D0
:100A6A00000000000010107C10101010100C000084
:100A7A0000000000000000C642424242463B00001D
:100A8A0000000000000000E74224242810100000A3
:100A9A0000000000000000D79292AAAA4444000075
:100AAA00000000000000006E2418181824760000C8
:100ABA0000000000000000E742242428181010E07B
:100ACA00000000000000007E44081010227E000092
:100ADA0000030404040404080404040404040300D2
:100AEA00080808080808080808080808080808087C
:100AFA000060101010101008101010101010600074
:100B0A00304C43000000000000000000000000001C
:100B1A0000000000000000000000000000000000CB
:100B2A00000000101010101010100000181800001B
:100B3A0000123624480000000000000000000000F7
:100B4A00000000242424FE484848FE484848000083
:100B5A0000001038545450301814145454381010DB
:100B6A0000000044A4A8A8A8541A2A2A2A4400006B
:100B7A0000000030484848506EA4948889760000E6
:100B8A0000606020C00000000000000000000000BB
:100B9A0000020408081010101010100808040200BF
:100BAA00004020101008080808080810102040000B
:100BBA00000000001010D63838D6101000000000CF
:100BCA000000000010101010FE101010100000009D
:100BDA00000000000000000000000000606020C06B
:100BEA0000000000000000007F000000000000007C
:100BFA00000000000000000000000000606000002B
:100C0A0000000102020404080810102020404000DD
:100C1A00000000000000181800000000181800006A
:100C2A00000000000000001000000000001010206A
:100C3A0000000002040810204020100804020000EE
:100C4A00000000000000FE000000FE00000000009E
:100C5A000000004020100804020408102040000090
:100C6A000000003C42426202040808001818000012
:100C7A0000000038445AAAAAAAAAB442443800007A
:100C8A00FFFFFFFFFFFFFFFFFFFFFFFFFFFFFFFF6A
:0439E300825400000A
:041412007861EFF21C
:10141600ED64086003021504C2A0D296C2B1E2F5DB
:10142600A0C297D297D2A0E4F5A675F3FF75A0FFE8
:10143600C2A0D2B1D297C296000000000000000000
:10144600D28700000000AFA07864F208EFF2C287EE
:1014560000000000D29600000000C29600000000C6
:1014660000000000D28700000000A9A0C28700008B
:101476000000D29600000000C296000000000000A6
:101486000000D287000000007868E5A0F2C287005D
:10149600000000D2960000000000000000C2960086
:1014A60000000000000000D28700000000AAA0C2D1
:1014B6008700000000D2960000000000000000D265
:1014C60096000000000000000075A6FFEBB4010BBB
:1014D6007865E2FEE9F582EE08801EEBB4020CE9BF
:1014E600FE7868E2F582EE7866800EEBB4030F783C
:1014F60068E2FEEAF582EE7866F2E58208F2ED64CD
:10150600044C600302163A75A6FF7861E2FFC2A09A
:10151600C2B1E4FDC297EF30E704D2968002C296CC
:10152600D297EF25E0FF0DEDB408E975A6FEEB6452
:10153600016005EB6403702AE4FDC297D287D29658
:101546007863E225E0FF18E233FEA296E433F582E3
:10155600EEF2EF458208F2C287D2970DEDB409DAB2
:101566008032EB64026005EB64047028E4FDC297E8
:10157600D287D2967863E225E0FF18E233FEA29680
:10158600E433F582EEF2EF458208F2C287D2970D78
:10159600EDB410DAE4FDC297D287D2967865E225DB
:1015A600E0FF18E233FEA296E433F582EEF2EF4551
:1015B6008208F2C287D2970DEDB408DAE4FDC2972D
:1015C600D287D296E925E0FFA296E4334FF9C28787
:1015D600D2970DEDB408E7E4FDC297D287D296788C
:1015E60068E225E0FFA296E4334FF2C287D2970D58
:1015F600EDB408E575A6FFC287D296D2B1D297D2CE
:1016060096D2A0EBB401127863E2FE08E24EFF0820
:10161600E208CFF208EFF2801BEB6402600AEBB43B
:1016260003028004EBB4040C7865E2FEE9FDEE08E3
:0D163600F2ED08F2C2877866E2FE08E2FFDE
:011643002284
:04398C00AD07AC06D1
:10399000EC7879F2C2A0C296C297D297E4FBED30E0
:1039A000E704D2968002C296ED25E0FDEC33FCC21E
:0A39B00097D2970BEBB408E6D2A003
:0139BA0022EA
:04395900F808E2FF89
:04395D00AD07AC0600
:10396100EC7879F2C2A0D296C297D297E4FBED30FF
:10397100E704D2968002C296ED25E0FDEC33FCC24D
:0A39810097D2970BEBB408E6D2A032
:01398B002219
:1038A600FFAE03EE33333354F84FFFEE25E0FEC48C
:0538B6003354E04BFD5E
:1038BB00C2A0D296D2B1C297D297E4FEEF25E0FF19
:1038CB009296ED25E0FD92B1C29700000000D297D1
:0B38DB00000000000EEEB408E3D2A0D5
:0138E60022BF
:093BA700AD07AC06ECFF0238BBCF
:101C4500123B34D2857F967E00123AC9C2857F78D1
:101C55007E00123AC9D2857F967E00123AC97FE787
:101C65007E0012398C7F1012395D0F12398C7F96E8
:101C7500123AC97F367E0012398CE4FF12395D7F36
:101C85003A12398C7F0512395D7F2112398C7F2AF2
:101C950012398CE4FF12395D12395D12395D7FEF1F
:101CA50012395D7F2B12398CE4FF12395D12395DD3
:101CB50012395D7FEF12395D7FB212398C7F0C12BC
:101CC500395D12395DE4FF12395D7F3312395D12DA
:101CD500395D7FB712398C7F3512395D7FBB12397B
:101CE5008C7F1F12395D7FC012398C7F2C12395DB4
:101CF5007FC212398C7F0112395D7FC312398C7F07
:101D05001212395D7FC412398C7F2012395D7FC66E
:101D150012398C7F0F12395D7FD012398C7FA41256
:101D2500395D7FA112395D7FE012398C7FD0123980
:101D35005D7F0812395D7F1112395D7F0812395DAB
:101D45007F0C12395D7F1512395D7F3912395D7F40
:101D55003312395D7F5012395D7F3612395D7F133D
:101D650012395D0F12395D7F2912395D7F2D1239C8
:101D75005D7FE112398C7FD012395D7F0812395DA4
:101D85007F1012395D7F0812395D7F0612395D12A9
:101D9500395D7F3912395D7F4412395D7F511239C2
:101DA5005D7F0B12395D7F1612395D7F1412395D27
:101DB5007F2F12395D7F3112395D7FE712398C7FB4
:101DC5001012395D7F2912398C7FE712398C7F100B
:0D1DD50012395D7FE712398C7F1002395DF5
:102D2500F2150815087401A808F208743FF27DEF42
:0A2D35007A007B007C007E007F0026
:102D3F0015081508A808EAF208EBF215081508A8F7
:102D4F0008ECF208EDF215081508A808EEF208EFE6
:102D5F00F27F2A7E0012398CA908E3FF12395DA891
:102D6F000808E2FF12395DA8080808A900E3FF125E
:102D7F00395DA808080808E2FF12395D7F2B123968
:102D8F008CE5082404F9E3FF12395DE508240412E9
:102D9F003959E5082406F9E3FF12395DE5082406E1
:102DAF001239597F2C12398C75A903E5082408F5BF
:022DBF000822E8
:02004600AC0606
:10004800EC785AF2EF08122D25C2A0E47858F2088D
:10005800F2E4FBFA785AE2FF08E2FD1238BB0BBB68
:1000680000010AEB64F04A70EB7859E22401F218B7
:10007800E23400F2C308E2944018E2940140D2D27C
:01008800A0D7
:010089002254
:102BD900122D26C2A079F8E4FC7FF8FD1238BBE477
:102BE900FB79077CE07F077DE01238BB0BBB000156
:102BF9000AEB64EE4A70EAE4F97C1FFF7D1F123884
:102C0900BBE47858F208F279F8E4FC7FF8FD123851
:102C1900BBE4FAFBE4F9FCFFFD1238BB0BBB000176
:102C29000AEB64EE4A70EDE4F97C1FFF7D1F123850
:102C3900BB7859E22401F218E23400F2C308E294A5
:102C49003E18E2940140C079F8E4FC7FF8FD12389F
:102C5900BBE4FAFB79077CE07F077DE01238BB0B08
:102C6900BB00010AEB64EE4A70EAE4F97C1FFF7DC0
:092C79001F1238BBE4F5A9D2A03A
:012C8200222F
:101DE20078587450F2E4785AF218746AF2785B7494
:101DF20002F2C2A01508150814122D2CE4FB785922
:101E0200E2FFC3EB9FEA94005069E4785CF27858F1
:101E1200E2FF785CE2C39F500CE4FD7FF81238BB0E
:101E2200E204F280E9E4785CF27858E2FF785CE25E
:101E3200C39F500CE4FD7FF81238BBE204F280E944
:101E4200E4785CF2785AE2FF7858E22FFFE433FE3E
:101E5200785CE2C39FEE6480F8748098500EE4FDD3
:101E62007FF81238BB785CE204F280D80BBB000129
:101E72000A808BE4FAFB7859E2FFC3EB9FEA9400F5
:101E82005069E4785CF27858E2FF785CE2C39F50D4
:101E92000C7DE07F071238BBE204F280E9E4785C53
:101EA200F27858E2FF785CE2C39F500C7DE07F0736
:101EB2001238BBE204F280E9E4785CF2785AE2FF7D
:101EC2007858E22FFFE433FE785CE2C39FEE648031
:101ED200F8748098500E7DE07F071238BB785CE280
:101EE20004F280D80BBB00010A808BE4FAFB785B1A
:101EF200E2FF7859E22FFFE433FEC3EB9FEA9E50E4
:101F020069E4785CF27858E2FF785CE2C39F500C97
:101F12007D1FE4FF1238BBE204F280E9E4785CF250
:101F22007858E2FF785CE2C39F500C7D1FE4FF12F9
:101F320038BBE204F280E9E4785CF2785AE2FF7896
:101F420058E22FFFE433FE785CE2C39FEE6480F830
:101F5200748098500E7D1FE4FF1238BB785CE20457
:0F1F6200F280D80BBB00010A8084D2A0E4F5A95D
:011F7100224D
:10356000AA06A907781474FFF208EAF208E9F2152E
:10357000081508A808E4F208749FF27D7F122D3523
:10358000E47817F208F27817E2FE08E2FFC3EE943F
:1035900040502DEF25E0FFEE33FE7814E2FB08E209
:1035A000FA08E2F98F828E83120FC3FDACF0ECFFB4
:1035B0001238BB7818E22401F218E23400F280C617
:0135C00022E8
:03268D007819EFCA
:10269000122D25C2A0D2B178221211C60000012C41
:1026A0007819E2FFE4FCFDFE7822E2FB08E2F9087B
:1026B000E2FA08E2CBF8120FFBEF2401FFE43EFE42
:1026C000E43DFDE43CFC781A1211897822E2FC0812
:1026D000E2FD08E2FE08E2FF781AE2FB08E2F908F0
:1026E000E2FA08E2CBF8EB2FFFEA3EFEE93DFDE817
:1026F0003CFC781E8078781EE2FC08E2FD08E2FED1
:1027000008E2FF781AE2FB08E2F908E2FA08E2CBF5
:10271000F8C3121126505C781AE2FC08E2FD08E2C8
:10272000FE08E2FF1234FCE4FBFAC3EA94025024F0
:10273000747A2BF58274003AF583E0FF747B2BF5F5
:102740008274003AF583E0FD1238BB74022BFBE47F
:102750003AFA80D6781AE2FC08E2FD08E2FE08E2C6
:102760002401FFE43EFEE43DFDE43CFC781A121136
:05277000898083D2A066
:012775002241
:10164400122D26E4FBE47826F208F2E4FDFF1238BA
:10165400BB7827E22401F218E23400F2C308E294D2
:101664001018E2940040E4E47826F208F2E47828C2
:10167400F208F27826E2FE08E27803C333CE33CED2
:10168400D8F9FFE4FD1238BB7829E22401F218E20C
:101694003400F2C308E2940718E2940040D5782796
:1016A400E22401F218E23400F2C308E2942018E2C2
:1016B400940040B90BBB00010AEB64504A7086E405
:1016C400FAFBE47826F208F2E4FDFF1238BB78272F
:1016D400E22401F218E23400F2C308E2941018E2A2
:1016E400940040E4E47826F208F2E47828F208F260
:1016F4007827E225E0FD18E233FCEDAE047803CE52
:10170400C313CE13D8F9FFC007EDAE047805C33375
:10171400CE33CED8F9FDD0071238BB7829E22401A4
:10172400F218E23400F2C308E2940718E29400408D
:10173400BF7827E22401F218E23400F2C308E294ED
:101744002018E2940040A30BBB00010AEB64504A4A
:1017540060030216C6E4FAFBE47826F208F2E4FD1C
:10176400FF1238BB7827E22401F218E23400F2C3F6
:1017740008E2941018E2940040E4E47826F208F2B7
:10178400E47828F208F2782608E2FDE4FF1238BB78
:101794007829E22401F218E23400F2C308E2940743
:1017A40018E2940040E07827E22401F218E23400C1
:1017B400F2C308E2942018E2940040C40BBB000179
:1017C4000AEB64504A7091E4FAFBE47826F208F2DA
:1017D400E4FDFF1238BB7827E22401F218E234005A
:1017E400F2C308E2941018E2940040E4E47826F28C
:1017F40008F2E47828F208F27826E2FC08E2FD25F3
:10180400E0FFEC33FEEF7803CEC313CE13D8F9FF19
:10181400AE05EE33333354F84FFFEE25E0C43354B2
:10182400E0FE782608E24EFD1238BB7829E2240156
:10183400F218E23400F2C308E2940718E29400407C
:10184400B77827E22401F218E23400F2C308E294E4
:101854002018E29400409B0BBB00010AEB64504A41
:0718640060030217CED2A0C1
:01186B00225A
:10233700122D26E4FBC3EA94005029E4782CF20816
:10234700F2E4FDFF1238BB782DE22401F218E234E3
:1023570000F2C308E294F018E2940040E40BBB00DB
:10236700010A80D1E4FAFBE4782AF208F2E4782C37
:10237700F208F2EBAE027803C333CE33CED8F9FFBF
:10238700E4FD1238BB782DE22401F218E23400F2A2
:10239700C308E2943C18E2940040D8E4782CF20891
:1023A700F2EB25E0FDEA33FCEDAE047803CEC31370
:1023B700CE13D8F9FFC007EDAE047805C333CE338B
:1023C700CED8F9FDD0071238BB782DE22401F218D8
:1023D700E23400F2C308E2943C18E2940040C2E4FD
:1023E700782CF208F2AD03E4FF1238BB782DE22413
:1023F70001F218E23400F2C308E2943C18E29400B8
:1024070040E3E4782CF208F2EB25E0FFEA33FEEF35
:102417007803CEC313CE13D8F91238A6782DE22449
:1024270001F218E23400F2C308E2943C18E2940087
:1024370040D6782BE22401F218E23400F2C308E216
:10244700940A18E2940050030223740BBB00010A9C
:09245700EB64204A600302236ECD
:012460002259
:102EF200122D26C2A0D2B1E4FBC3EA94005029E409
:102F02007830F208F2E4FDFF1238BB7831E2240196
:102F1200F218E23400F2C308E294F018E29400409E
:102F2200E40BBB00010A80D1E4FAFBE4782EF2083C
:102F3200F2E47830F208F2EBAE027803C333CE3318
:102F4200CED8F9FFE4FD1238BB7831E22401F21841
:102F5200E23400F2C308E294F018E2940040D87818
:102F62002FE22401F218E23400F2C308E2940A18B4
:102F7200E2940040BC0BBB00010AEB64204A70AB38
:022F8200D2A0DB
:012F8400222A
:102C8300122D26C2A0D2B1E4FBC3EA94005029E47A
:102C93007834F208F2E4FDFF1238BB7835E2240100
:102CA300F218E23400F2C308E294F018E294004010
:102CB300E40BBB00010A80D1E4FAFBE47832F208AA
:102CC300F2E47834F208F2EBAE027803CEC313CE0B
:102CD30013D8F9FFC007EBAE027805C333CE33CE6A
:102CE300D8F9FDD0071238BB7835E22401F218E297
:102CF3003400F2C308E294F018E2940040C9783338
:102D0300E22401F218E23400F2C308E2940518E267
:102D1300940040AD0BBB00010AEB64404A709CD2A7
:012D2300A00F
:012D2400228C
:10313400122D26C2A0D2B1E4FBC3EA94005029E4C4
:103144007838F208F2E4FDFF1238BB7839E2240142
:10315400F218E23400F2C308E294F018E29400405A
:10316400E40BBB00010A80D1E4FAFBE47836F208F0
:10317400F2E47838F208F2AD03E4FF1238BB783990
:10318400E22401F218E23400F2C308E294F018E2F7
:10319400940040E37837E22401F218E23400F2C3E9
:1031A40008E2940A18E2940040C70BBB00010AEB42
:0731B40064204A70B6D2A0AE
:0131BB0022F1
:102F8500122D26C2A0E4FBC3EA94005029E4783C44
:102F9500F208F2E4FDFF1238BB783DE22401F21895
:102FA500E23400F2C308E294F018E2940040E40B26
:102FB500BB00010A80D1E4FAFBE4783AF208F2E4B6
:102FC500783CF208F2EB25E0FFEA33FEEF7803CE1A
:102FD500C313CE13D8F91238A6783DE22401F218AE
:102FE500E23400F2C308E294F018E2940040D67887
:102FF5003BE22401F218E23400F2C308E2940A1815
:10300500E2940040BA0BBB00010AEB64204A70A9A8
:02301500D2A047
:013017002296
:102DC100122D26C2A0D2B1E47858F208F2E4FBFA3F
:102DD100C3EA9400500DE4FDFF1238BB0BBB0001A8
:102DE1000A80EDE4FAFBE4785AF208F2EBAE0278DD
:102DF10002C333CE33CED8F97803CEC313CE13D862
:102E0100F9FFAE03EE25E0F933333354F84FFFEE0B
:102E110025E025E0FEC43354E049FD1238BB785B60
:102E2100E22401F218E23400F2C308E2940F18E23E
:102E3100940040B80BBB00010AEB64104A70A778FC
:102E410059E22401F218E23400F2C308E294401876
:0A2E5100E294015003022DCED2A03E
:012E5B002254
:1032BF00122D26C2A0E4783EF208F2E4FBFAE4FDF8
:1032CF00FF1238BB0BBB00010AEB64104A70EFE42E
:1032DF00FAFBE47840F208F2EB25E0FFEA33FEEF69
:1032EF007803CEC313CE13D8F91238A67841E2244F
:1032FF0001F218E23400F2C308E2940718E29400D6
:10330F0040D60BBB00010AEB64204A70C5783FE240
:10331F002401F218E23400F2C308E2944018E29458
:05332F00014098D2A04E
:013334002276
:101A8900122D26E4FBE47842F208F2E4FD7FF81215
:101A990038BB7843E22401F218E23400F2C308E2C9
:101AA90094F018E2940040E30BBB00010AEB6428B0
:101AB9004A70D2E4FAFBE47842F208F27DE07F074B
:101AC9001238BB7843E22401F218E23400F2C30869
:101AD900E294F018E2940040E30BBB00010AEB64C6
:101AE900284A70D2E4FAFBE47842F208F27D1FE456
:101AF900FF1238BB7843E22401F218E23400F2C342
:101B090008E294F018E2940040E30BBB00010AEBF1
:101B190064284A70D2E4FAFBE47842F208F27DE0E4
:101B29007FFF1238BB7843E22401F218E23400F255
:101B3900C308E294F018E2940040E30BBB00010AE9
:101B4900EB64284A70D2E4FAFBE47842F208F27DA9
:101B59001F7FF81238BB7843E22401F218E23400FF
:101B6900F2C308E294F018E2940040E30BBB0001D1
:101B79000AEB64284A70D2E4FAFBE47842F208F2EC
:101B89007DFF7F071238BB7843E22401F218E23463
:101B990000F2C308E294F018E2940040E30BBB00A2
:101BA900010AEB64284A70D2E4FAFBE47842F208AD
:101BB900F27DFF7FFF1238BB7843E22401F218E27D
:101BC9003400F2C308E294F018E2940040E30BBB3E
:101BD90000010AEB64284A70D2E4FAFBE47842F285
:101BE90008F2E4FDFF1238BB7843E22401F218E25F
:101BF9003400F2C308E294F018E2940040E40BBB0D
:101C090000010AEB64284A70D3E4FAFBC3EA9400A2
:101C19005029E47842F208F2E4FDFF1238BB784318
:101C2900E22401F218E23400F2C308E294F018E267
:0B1C3900940040E40BBB00010A80D1C6
:011C4400227D
:1035C100EFC3942050047F5F8050EFC39420400CE0
:1035D100EFD3942F5006EF2428FF803EEFC39430A1
:1035E100400CEFD39439500674D02FFF802CEFC3D9
:1035F100943A400CEFD394405006EF241EFF801AFA
:10360100EFC39441400CEFD3947E5006EF24C9FFE1
:0B3611008008EFD3947E40027F5F2210
:10284300FD18E23400FC7865E2FA08E2FB08E2F5E1
:102853008308E2F5827871E583F208E582F278690C
:10286300E2F58308E2F5827873E583F208E582F204
:08287300786CEFF2AF05AE0432
:10287B00EB240FFCE43A15081508A808F208CCF273
:10288B00EF2407FDE43EFC122D3F786CE2FF7E0047
:10289B00D3945FEE940040027F5FEFC4F8540FC8EF
:1028AB0068FFEEC454F048FE787674FFF2087406A5
:1028BB00F208749AF2E22FF218E23EF2E47875F223
:1028CB007876E2FB0808E2F92401F218E2FA340008
:1028DB00F2120F55FBE4FAEBA802088002C333D8BF
:1028EB00FC30E704787180027873E2FE08E2FF1295
:1028FB003BA70AEAB408E07875E204F2E2C394104D
:02290B0040BECC
:01290D0022A7
:102E5C007861EBF208EAF208E9F208ECF208EDF21C
:102E6C007861E2FB08E2FA08E2F9120F557003D31D
:102E7C008001C340707861E2FB0808E2F92401F29A
:102E8C0018E2FA3400F2120F55FF1235C17864E2E1
:102E9C00FC08E2FD08E2FA08E2FB08E2F58308E22E
:102EAC00F5827871E583F208E582F2786A1228637C
:102EBC00D37865E294E718E29400400BE4F208F250
:102ECC007867E2241080057865E22408F218E23471
:102EDC0000F2D37867E2942F18E294014082E4F276
:062EEC0008F2022E6C2228
:1029C5007861EEF208EFF27865EAF208EBF27863E7
:1029D500ECF208EDF2D394CFEC9400400718E4F242
:1029E5000874CFF27865E2FE08E2FFD3942FEE94E7
:1029F500014009EF24EFF2EE34FF18F27861E2C4EA
:102A0500540FFF7863E2FC08E2FD0812284B786159
:102A1500E2540FFF7864E224081228437961E3C485
:102A2500F854F0C809E3C4540F48540FFF7864E222
:102A350024101228437862E2540FFF7864E22418C8
:102A4500FD18E23400FC7865E2FA08E2FB08E2F5DD
:102A55008308E2F5827871E583F208E582F2786908
:102A6500E2F58308E2F5827873E583F208E582F200
:032A7500022873C1
:103B34007B027D087C00E4FF1214127854EEF20834
:063B4400EFF2E4FEFF2297
:10377A007858EAF208EBF2ED2401FAE43C15081550
:10378A0008A808F208CAF2AB05AA04EF2401FDE46E
:10379A003EFC122D3F7858E2FC08E2FDECFF12389D
:1037AA00BB18E2FC08E2FDECFF1238BB18E2FC0889
:1037BA00E2FDECFF1238BB18E2FC08E2FDECFF0266
:0237CA0038BB0A
:1031BC007844EEF208EFF28B828A8308ECF208ED89
:0131CC00F210
:1031CD00784AE2FF08E215081508A808CFF208EFC3
:1031DD00F27844E2FE08E2FF122D3FAE83AF827813
:1031ED004EEEF208EFF2784BE22401FF18E23400C4
:1031FD00FEC3784FE29F18E29E50397844E2FE08F4
:10320D00E2FBAA067847E22401FF18E23400FEC370
:10321D00EB9FEA9E5011784CE2FE08E2FF123BA7AD
:10322D000BBB00010A80DD784FE22401F218E23475
:04323D0000F280B269
:01324100226A
:073018007850EEF208EFF220
:10301F0008E4F208740FF2C37853E2943F18E29475
:10302F00015030E2FA08E2FB784AEAF208EBF27854
:10303F0050E2FF08E2784CCFF208EFF27DEF7C0010
:10304F00E4FFFE1231BC7853E22410F218E2340090
:10305F00F280C47852E4F208740FF2C37853E2940A
:10306F00EF18E294005031E2FC08E2FDFFAE047865
:10307F004A7401F208743FF27850E2FB08E2784C90
:10308F00CBF208EBF2E4FBFA1231BC7853E22410D6
:08309F00F218E23400F280C3D4
:0130A7002206
:083BB000545020544553540009
:103A6100C294C295E49002ADF0EF20E704C2B280A7
:103A710002D2B2D295EF25E0FFC2959002ADE004EB
:053A8100F0E0B408E4D0
:013A8600221D
:1033AA009002AE12119500000000C294D2B3E490CC
:1033BA0002ADF09002ADE0FFC3940C5049C29530C3
:1033CA00B33AC3740B9FFF74017E00A807088005F7
:1033DA00C333CE33CED8F9FFEE3395E0FDFC90022D
:1033EA00AEE0F8A3E0F9A3E0FAA3E04FFFEA4EFE4D
:1033FA00E94DFDE84CFC9002AE12117DD295900287
:10340A00ADE004F080ADD2949002AEA3A3E0FEA397
:02341A00E0FFD1
:01341C00228D
:02246100AB07C7
:10246300E4900294F0A3F0A3F0D2B5900294E0C3F9
:10247300940B502C20B529C294EB04FF123A61123D
:1024830033AA900294E025E02497F582E43402F520
:1024930083EEF0A3EFF0900294E004F0D29480CBAB
:1024A300900294E07003022578E4A3F0900294E094
:1024B300F9A3E0C3994003022564E4A3F0900295D5
:1024C300E0FF900294E0C39FFF900296E0C39F4019
:1024D3000302255BE0FF25E02499F582E43402F54D
:1024E30083E0FCA3E0FDEF25E02497F582E43402CA
:1024F300F583E0FEA3E0D39DEE9C4053900296E06B
:1025030025E02497F582E43402F583E0FCA3E0FDA3
:10251300900292ECF0A3EDF0EF25E02499F582E42C
:102523003402F583E0FEA3E0FF900296E0FB25E092
:102533002497F582E43402F583EEF0A3EFF0EB2564
:10254300E02499F582E43402F583ECF0A3EDF090F6
:102553000296E004F00224C0900295E004F0022405
:10256300AFE9C31325E02497F582E43402F583E051
:08257300FEA3E0FF22E4FEFFDD
:01257B00223D
:10186C0090027A1211950000000090027E121195E0
:10187C0000000000900282121195000000009002FE
:10188C00861211950000000090028A12119500003A
:10189C00000090028E12119500000000E4FFFE1271
:1018AC0000467BFF7A3B79B0E47866F208F208F2E6
:1018BC0008F274FF08F208F2E4FDFC122E5CD2B5BB
:1018CC0020B5FD20B603021A647F327E00123AC99D
:1018DC0020B5F07FD0122461E4FCFD90028212113D
:1018EC007D900282E0FCA3E0FDA3E0FEA3E024BD1A
:1018FC00FFEE34FFFEED34FFFDEC34FFFCE47BF037
:10190C00FAF9F8120FFBE47BA57A02F9F8121086AB
:10191C00E4120DA07BB87A1E7945783F120C9A120E
:10192C000DDE90027A12117D7F90122461E4FCFD91
:10193C0090028612117D900286E0FCA3E0FDA3E0EC
:10194C00FEA3E024A0FFEE34FFFEED34FFFDEC34EB
:10195C00FFFCE47B407A01F9F8120FFBE4FB7A03FD
:10196C00F9F8121086E4120DA07B337A3379737870
:10197C003F120C9A120DDE90027E12117D7F0A7EB0
:10198C0000123AC990027AE0F8A3E0F9A3E0FAA3B6
:10199C00E0FBC374F09BFFE49AFEE499FDE498FC31
:1019AC0090027A12117D90027EE0F8A3E0F9A3E098
:1019BC00FAA3E0FBC374409BFF74019AFEE499FD0B
:1019CC00E498FC90027E12117D30B5030218DCE421
:1019DC00FFFEFDFC90027AE0F8A3E0F9A3E0FAA385
:1019EC00E0FBC312112650030218DCE47FF0FEFD6D
:1019FC00FC90027AE0F8A3A3A3E0121126400302A4
:101A0C0018DCE4FFFEFDFC90027EE0F8A3E0F9A3F5
:101A1C00E0FAA3E0FBC312112650030218DCE47FAA
:101A2C00407E01FDFC90027EE0F8A3A3A3E012111E
:101A3C002640030218DC90027AA3A3E0FEA3E0FF89
:101A4C00C006A3A3A3E0FEA3E0FDAC06D0067B007A
:101A5C007AF812377A0218DCE4FFFE1200467BFF9C
:101A6C007A3B79B0E47866F208F208F208F274FF77
:0D1A7C0008F208F2E4FDFC122E5C0218CF07
:1038E7001201100100000040C41000000000010296
:1038F70003010902200001010080FA090400000207
:10390700FF00000007050202400000070582024091
:0A3917000000040309040100000091
:1022000090027AEEF0A3EFF090027EEBF0A3EAF0FA
:10221000A3E9F0E4900791F0900791E0FF9038E790
:1022200093FE74402FF582E43407F583EEF09007B7
:1022300091E004F0E0B412E0E4900791F09007918F
:10224000E0FF9038F993FE74522FF582E43407F5DD
:1022500083EEF0900791E004F0E0B420E090027A81
:10226000E0FEA3E0900748F0EEA3F0A3EDF0ECA3AE
:10227000F090077274FFF0A37439F0A37419F09012
:10228000027EE0F9A3E0FAA3E0900775C9F0A3EAA3
:10229000F0A3E9F0900281E0F9A3E0FAA3E090074F
:1022A00078C9F0A3EAF0A3E9F0900284E0F9A3E092
:1022B000FAA3E090077BC9F0A3EAF0A3E9F090024B
:1022C00087E0FFC394FA500590075AEFF090028818
:1022D000E0900759F0900289E0FEA3E090074CF0EF
:1022E000EEA3F0E59620E7FB759601759708E59655
:1022F00020E7FB75960775970FE59620E7FB759627
:102300000975970EE59620E7FB75960B759707758F
:10231000D7E0123B90E4900793F0900792F090077B
:1023200094F0900786F043E602D2AFE59620E7FBF3
:07233000759601759701226B
:103A13009007867402F0E59620E7FB75960175978B
:103A230001E490078EF0A37403F0A3F0E4900793EE
:073A3300F090079204F0225D
:1011DF00E59620E7FB75960EE4F597E59620E7FB7D
:1011EF00759691E59620E7FB90079EE597F0E0FF57
:1011FF0030E210E59620E7FB759611E4F59790071E
:10120F008EF022EF30E410E59620E7FB759611750E
:10121F009780E490078EF090078EE0600302131022
:10122F0090079EE020E0030213107596204396C0AE
:10123F00E4900791F0E59620E7FB900791E0247E7C
:10124F00F582E43407F583E597F0900791E004F019
:10125F00E0B407E1E59620E7FBE4F596900791E00F
:10126F00247EF582E43407F583E597F0900781E05B
:10127F00FE900780E07C002400FFEC3E900795F085
:10128F00A3EFF0900785E0FE900784E02400FFECC9
:10129F003E900797F0A3EFF090077FE0B40C00505B
:1012AF005D9012B7F82828730212DB0212E00212C7
:1012BF00E50212EA02130D0212EF0212F402130DED
:1012CF000212F90212FE02130302130812341D80D8
:1012DF0030123676802B12277680261236CE80215A
:1012EF00123AA9801C122A78801712381C80121209
:1012FF00361C800D123A3A8008123B4A8003123A8C
:10130F00E890078EE06401600302141190079E7449
:10131F0002F0C390078DE0944090078CE09400405A
:10132F0061E59620E7FB759620E4900791F0900712
:10133F0091E0FFC394405022900787E0FBA3E0FAAF
:10134F00A3E0F98F82758300120F6EF597E5962053
:10135F00E7FB900791E004F080D4900788E475F0E4
:10136F0040120FAD90078DE024C0F090078CE03451
:10137F00FFF090078BE02440F090078AE03400F0F4
:10138F008052E59620E7FB759620E4900791F09048
:10139F000791E0FFD390078DE09F90078CE09400BA
:1013AF004026900787E0FBA3E0FAA3E0F9900791AE
:1013BF00E0F582758300120F6EF597E59620E7FB37
:1013CF00900791E004F080C790079EE04408F0E496
:1013DF0090078EF0900797E0FEA3E0FF90078AE05A
:1013EF00B50611A3E0B5070C90079EE04408F0E4A2
:1013FF0090078EF0E59620E7FB75961190079EE01B
:03140F00F597222C
:103AE800E59620E7FB75960EE4F597E59620E7FB4B
:0D3AF80075961175972090078E7404F022CA
:10341D0090077EE0247F60071460062402704880C8
:10342D002D90078FE0B40309900782E0B40202806B
:10343D000E900790E0B40316900782E0B4820F90CF
:10344D00078774FFF0A37439F0A3741D800D9007E6
:10345D008774FFF0A37439F0A3741FF090078CE408
:10346D00F0A37402F08003123AE890078EE0640432
:10347D006010123B4A90078E7401F0E490078AF0B9
:03348D00A3F02287
:10367600900780E07041900782E0B4021DE5962035
:10368600E7FB75960E759702E59620E7FB7596148F
:10369600759780E490078FF08020E59620E7FB750C
:1036A600960E759702E59620E7FB7596117597407D
:1036B600E4900790F08003123AE8E59620E7FB7560
:0836C600960EE4F597023B4A61
:10277600900796E020E00302280C900794E030E0F2
:102786000854FEF04402F08007900794E054FDF0F0
:10279600E59620E7FB75960E759702E59620E7FB12
:1027A600759614759710E59620E7FB759611759743
:1027B60008E59620E7FB759694E59620E7FB9007DB
:1027C6009DE597F0E020E4E9E59620E7FB75961491
:1027D600759710E59620E7FB759691E59620E7FB41
:1027E60090079DE597F0E020E3E9E59620E7FB7585
:1027F60096117597089007927408F0900794E0FF79
:1028060030E1034401F0900795E0FCA3E0FD30E1E0
:102816000D9007867406F0900792E04410F0ED30B4
:10282600E20D9007867404F0900792E04420F0E5EC
:0D2836009620E7FB75960EE4F597023B4AED
:1036CE00900780E07040900782E0B4021BE59620E0
:1036DE00E7FB75960E759702E59620E7FB75961437
:1036EE0075972090078F8019E59620E7FB75960E4B
:1036FE00759702E59620E7FB759611759710900762
:10370E00907403F08003123AE8E59620E7FB759675
:07371E000EE4F597023B4A9F
:103AA900E59620E7FBE4F596900780E0FFF597EFB0
:103AB90090078660057403F080037402F0023B4AA4
:102A7800900781E024FE601B14603B24027069907B
:102A880007877401F0A37407F0A37440F09007401F
:102A9800E0804A9007877401F0A37407F0A374528A
:102AA800F0900755E0FE900754E07C002400FFEC0E
:102AB8003E90078C802C900780E075F003A4247268
:102AC800F582E43407F583E0FBA3E0FAA3E0F9908C
:102AD8000787EBF0A3EAF0A3E9F0120F55FF900780
:102AE8008CE4F0A3EFF08003123AE890078CE0FE44
:102AF800A3E0FF900797E0FCA3E0FDC39FEC9E5086
:102B08000890078CECF0A3EDF090078EE064046069
:102B180010123B4A90078E7401F0E490078AF0A3E4
:022B2800F02299
:10381C00900786E0FFB40414A374FFF0A37439F08E
:10382C00A3741DF090078CE4F0A304F0EFB403161E
:10383C0090078774FFF0A37439F0A3741FF09007FE
:10384C008CE4F0A304F0123B4A90078E7401F0E470
:07385C0090078AF0A3F0229F
:10361C00900780E0D394004042900792E04440F041
:10362C009007867404F0E490078FF0A3F0E59620E1
:10363C00E7FB75960E759702E59620E7FB759612DB
:10364C00759784E59620E7FB759615759780E5963A
:10365C0020E7FB75960EE4F597800C9007867403B3
:0A366C00F090078FF0A3F0023B4A34
:103A3A0090078774FFF0A37439F0A3741FF09007FE
:103A4A008CE4F0A304F0123B4A90078E7401F0E470
:073A5A0090078AF0A3F0229F
:103B4A0090078EE06404600BE59620E7FB759611FA
:043B5A0075974022F9
:03004300021F7227
:101F7200C0E0C0F0C083C082C0D075D000C000C035
:101F820001C002C003C004C005C006C0079007A17B
:101F9200E596F0E59620E7FB75968EE59620E7FB41
:101FA2009007A2E597F0E59620E7FB759686E59601
:101FB20020E7FB900799E597F0E030E30BE59620E8
:101FC200E7FB75960B759707900799E030E20312CD
:101FD2003A13900799E030E014900786E0FF64041A
:101FE2006004EFB40607900792E04480F0E5962083
:101FF200E7FB759682E59620E7FB900799E597F057
:10200200E030E0031211DF900799E030E22AE59612
:1020120020E7FB75960E759702E59620E7FB75960D
:1020220091E59620E7FB90079AE597F0E05403705C
:1020320007900792E04402F0E59620E7FB7596844C
:10204200E59620E7FB900799E597F0E030E229E575
:102052009620E7FB75960E759702E59620E7FB75CD
:102062009694E59620E7FB90079AE597F0E030E03A
:1020720007900792E04404F0E59620E7FB75960E80
:102082009007A2E0F597E59620E7FB9007A1E59679
:10209200F0E59620E7FB900794E030E00990079284
:1020A200E06003123A87D007D006D005D004D003EF
:1020B200D002D001D000D0D0D082D083D0F0D0E0F6
:0120C20032EB
:10392100E5B964E0602E53A90FC0A943B280E5A9AF
:103931005407D394014003E4F5A9E4F5B943B980F0
:10394100E4D5E0FD43B9C0E5B930E5FBD0E0B40210
:083951000343A90253A90F2250
:1039E80053D7BF43C910E5A95402900791F043B2D9
:1039F8008075A910E4F5B943B22000123921900767
:0B3A080091E042A953C9EF43D74022D0
:0E3B8200900792E0FFE4F022900792E0FF220D
:102B2A00900786E0B40606EDD3944040037F002266
:102B3A00E59620E7FB75960E759702E59620E7FB6A
:102B4A00759694E59620E7FB90079CE597F0E020C0
:102B5A00E003022BD6E59620E7FB759696E59620CC
:102B6A00E7FB900793E597F0E0FFEDC39F5006AEB1
:102B7A0005AF068000900793EFF053E6FDE5962037
:102B8A00E7FB7596E2900793E06025FEEB6006305E
:102B9A00E70F7F0022E59620E7FBA79709DEF6807C
:102BAA000F89828A83E59620E7FBE597F0A3DEF595
:102BBA00E59620E7FBE4F596E59620E7FB75961483
:0F2BCA00E4F59743E602900793E0FF227F002295
:10257C00900786E0B4060DED4C6009D3ED9400ECA9
:10258C0094104004E4FEFF2253E6FDE490079FF014
:10259C00A3F090079BF089828A83C083C082900746
:1025AC009BE030E00302267DE59620E7FB75960E56
:1025BC00759702E59620E7FB759691E59620E7FB6B
:1025CC0090079BE597F0E030E020E59620E7FB755F
:1025DC00960EE4F597E59620E7FB759691E5962027
:1025EC00E7FB90079BE597F080B4C3ED9440EC9427
:1025FC00009007A0E0401B2440F090079FE03400BF
:10260C00F074C02DFD74FF3CFCE490079BF0784007
:10261C0080132DF090079FE03CF090079B7401F025
:10262C00A805E4FCFDE59620E7FB759622D082D048
:10263C0083E8602BEB601130E71AE59620E7FBE4AA
:10264C0093F597A3D8F48017E59620E7FB879709B5
:10265C00D8F6800BE59620E7FBE0F597A3D8F5C0FC
:10266C0083C082E59620E7FB7596117597010225CC
:10267C00AAD082D08343E60290079FE0FEA3E0FF3E
:01268C00222B
:103B0500900794E04401F0900792E0600BE5962061
:093B1500E7FB75960B75970F2272
:0C3B9000E59620E7FB75960F75978922DB
:103A8700D007D007D007D006D005D004D003D00286
:103A9700D001D000D0D0D082D083D0F0D0E00200C7
:023AA7008B2270
:100C9A00EC4D6011E8497017ED33EC3304600DE454
:100CAA00FCFFFEFD22E933E8330470F8020E4A1213
:100CBA000E1558046009E4CC248150062850090214
:100CCA000E54284003020E51C0E0EB4A7044B9802A
:100CDA0006D0E0FB020E40EF4E701CBD8008EBFF11
:100CEA00EAFEE9FD80EBE98DF0A4FEE5F0020D8352
:100CFA00E9CDF9EAFEEBFFEF89F0A4FCE5F0CE8935
:100D0A00F0A42EFFE435F0CD89F0A42DFEE435F0F1
:100D1A008067EF4E7005BD80D780C3EF8BF0A4AC1F
:100D2A00F0EE8BF0A42CFCE435F0F8EF8AF0A42C5A
:100D3A00E5F038FCE433CB8DF0A42CFCE5F03BF86D
:100D4A00EE8AF0A42CFCE5F038F8E433CF89F0A45D
:100D5A002CFCE5F038CF3400CE89F0A42FFFE5F063
:100D6A003EFEE433C98DF0A42EFEE5F039CD8AF0BB
:100D7A00A42FFFE5F03EFEE43DFD33D0E0FB500733
:100D8A000BBB000F020E54EC2CFCEF33FFEE33FECC
:060D9A00ED33FD020E2CFA
:100DA00075F020800E75F010800575F0087D007ECE
:100DB000007F003392D530D503121118EC33401068
:100DC000EF33FFEE33FEED33FDEC33FCD5F0ED22D7
:0E0DD000E5F0247EA2D513CC92E7CDCEFF2213
:100DDE00EDD2E7CD33EC3392D524814006E4FFFE0D
:100DEE00FDFC22FCE4CFCECDCC24E0501174FF806C
:100DFE00EDC3CC13CCCD13CDCE13CECF13CF047009
:070E0E00F030D5DE021118DF
:100E1500E9D2E7C933E833F892D5EDD2E7CD33EC23
:070E250033FC5002B2D5229C
:100E2C00EC30E7100FBF000C0EBE00080DBD000427
:100E3C000BEB6014A2D5EB13FCED92E7FD2274FFD3
:100E4C00FCFDFEFF22E480F8A2D574FF13FC7D802C
:030E5C00E480EF40
:030000000230A823
:0C30A800787FE4F6D8FD7581080230EF57
:100E5F00E709F608DFFA8046E709F208DFFA803E75
:100E6F0088828C83E709F0A3DFFA8032E309F60862
:100E7F00DFFA8078E309F208DFFA807088828C83CA
:100E8F00E309F0A3DFFA806489828A83E0A3F6087E
:100E9F00DFFA805889828A83E0A3F208DFFA804C58
:100EAF0080D280FA80C680D4806980F2803380102F
:100EBF0080A680EA809A80A880DA80E280CA803398
:100ECF0089828A83ECFAE493A3C8C582C8CCC58310
:100EDF00CCF0A3C8C582C8CCC583CCDFE9DEE780E0
:100EEF000D89828A83E493A3F608DFF9ECFAA9F05F
:100EFF00EDFB2289828A83ECFAE0A3C8C582C8CCB5
:100F0F00C583CCF0A3C8C582C8CCC583CCDFEADECD
:100F1F00E880DB89828A83E493A3F208DFF980CC2F
:100F2F0088F0EF60010E4E60C388F0ED2402B40428
:100F3F000050B9F582EB2402B4040050AF232345CF
:060F4F008223900EAF7337
:100F5500BB010689828A83E0225002E722BBFE029A
:090F6500E32289828A83E49322CD
:100F6E00BB010CE58229F582E5833AF583E0225038
:100F7E0006E92582F8E622BBFE06E92582F8E22282
:0D0F8E00E58229F582E5833AF583E493229C
:100F9B00EF8DF0A4A8F0CF8CF0A428CE8DF0A42E6A
:020FAB00FE2224
:100FAD00C5F0F8A3E028F0C5F0F8E58215827002CF
:060FBD001583E038F0226C
:100FC300BB0110E58229F582E5833AF583E0F5F06C
:100FD300A3E0225009E92582F886F008E622BBFE49
:100FE3000AE92582F8E2F5F008E222E5832AF5838F
:080FF300E993F5F0A3E9932254
:100FFB00E88FF0A4CC8BF0A42CFCE98EF0A42CFC95
:10100B008AF0EDA42CFCEA8EF0A4CDA8F08BF0A412
:10101B002DCC3825F0FDE98FF0A42CCD35F0FCEB71
:10102B008EF0A4FEA9F0EB8FF0A4CFC5F02ECD3936
:0F103B00FEE43CFCEAA42DCE35F0FDE43CFC22A3
:10104A0075F008758200EF2FFFEE33FECD33CDCC5D
:10105A0033CCC58233C5829BED9AEC99E5829840E0
:10106A000CF582EE9BFEED9AFDEC99FC0FD5F0D6BD
:10107A00E4CEFBE4CDFAE4CCF9A88222B800C1B9E7
:10108A000059BA002DEC8BF084CFCECDFCE5F0CB25
:10109A00F97818EF2FFFEE33FEED33FDEC33FCEB5E
:1010AA0033FB10D703994004EB99FB0FD8E5E4F919
:1010BA00FA227818EF2FFFEE33FEED33FDEC33FC06
:1010CA00C933C910D7059BE99A4007EC9BFCE99AFA
:1010DA00F90FD8E0E4C9FAE4CCFB2275F010EF2F3F
:1010EA00FFEE33FEED33FDCC33CCC833C810D7073F
:1010FA009BEC9AE899400AED9BFDEC9AFCE899F87A
:0E110A000FD5F0DAE4CDFBE4CCFAE4C8F9220C
:0E111800C3E49FFFE49EFEE49DFDE49CFC22E8
:10112600EB9FF5F0EA9E42F0E99D42F0E89C45F01F
:011136002296
:10113700E8600FECC313FCED13FDEE13FEEF13FF96
:03114700D8F122BA
:10114A00E8600FEFC333FFEE33FEED33FDEC33FC03
:03115A00D8F122A7
:10115D007401FF3395E0FEFDFC080808E2CF2FF285
:10116D0018E2CE3EF218E2CD3DF218E2CC3CF2226E
:0C117D00ECF0A3EDF0A3EEF0A3EFF022E5
:0C118900ECF208EDF208EEF208EFF222A2
:10119500A8828583F0D083D0821211AC1211AC12D3
:1011A50011AC1211ACE473E493A3C583C5F0C583F8
:1011B500C8C582C8F0A3C583C5F0C583C8C582C8A4
:0111C5002207
:1011C600D083D082E493F208740193F208740293F8
:0911D600F208740393F27404732F
:1030B400020003E493A3F8E493A34003F68001F22F
:1030C40008DFF48029E493A3F85407240CC8C3331D
:1030D400C4540F4420C8834004F456800146F6DFEC
:1030E400E4800B01020408102040809039BBE47E88
:1030F400019360BCA3FF543F30E509541FFEE493E1
:10310400A360010ECF54C025E060A840B8E493A3A7
:10311400FAE493A3F8E493A3C8C582C8CAC583CAD2
:10312400F0A3C8C582C8CAC583CADFE9DEE780BE8A
:0139E70000DF
:00000001FF
